{
  "_format": "hh-sol-artifact-1",
  "contractName": "RoveMarketPlace",
  "sourceName": "contracts/goods/RoveMarketPlace.sol",
  "abi": [
    {
      "inputs": [
        {
          "internalType": "address",
          "name": "operator_",
          "type": "address"
        },
        {
          "internalType": "address",
          "name": "parameterControl_",
          "type": "address"
        }
      ],
      "stateMutability": "nonpayable",
      "type": "constructor"
    },
    {
      "anonymous": false,
      "inputs": [
        {
          "indexed": false,
          "internalType": "address",
          "name": "owner",
          "type": "address"
        },
        {
          "indexed": false,
          "internalType": "address",
          "name": "operator",
          "type": "address"
        },
        {
          "indexed": false,
          "internalType": "bool",
          "name": "approved",
          "type": "bool"
        }
      ],
      "name": "ApprovalForAll",
      "type": "event"
    },
    {
      "anonymous": false,
      "inputs": [
        {
          "indexed": true,
          "internalType": "address",
          "name": "beneficiary",
          "type": "address"
        },
        {
          "indexed": false,
          "internalType": "address",
          "name": "erc20",
          "type": "address"
        },
        {
          "indexed": false,
          "internalType": "uint256",
          "name": "amount",
          "type": "uint256"
        }
      ],
      "name": "BalanceWithdrawn",
      "type": "event"
    },
    {
      "anonymous": false,
      "inputs": [
        {
          "indexed": true,
          "internalType": "bytes32",
          "name": "offeringId",
          "type": "bytes32"
        },
        {
          "indexed": true,
          "internalType": "address",
          "name": "buyer",
          "type": "address"
        }
      ],
      "name": "OfferingClosed",
      "type": "event"
    },
    {
      "anonymous": false,
      "inputs": [
        {
          "indexed": true,
          "internalType": "bytes32",
          "name": "offeringId",
          "type": "bytes32"
        },
        {
          "indexed": true,
          "internalType": "address",
          "name": "hostContract",
          "type": "address"
        },
        {
          "indexed": true,
          "internalType": "address",
          "name": "offerer",
          "type": "address"
        },
        {
          "indexed": false,
          "internalType": "uint256",
          "name": "tokenId",
          "type": "uint256"
        },
        {
          "indexed": false,
          "internalType": "address",
          "name": "erc20",
          "type": "address"
        },
        {
          "indexed": false,
          "internalType": "uint256",
          "name": "price",
          "type": "uint256"
        },
        {
          "indexed": false,
          "internalType": "string",
          "name": "uri",
          "type": "string"
        },
        {
          "indexed": false,
          "internalType": "uint256",
          "name": "amount",
          "type": "uint256"
        }
      ],
      "name": "OfferingPlaced",
      "type": "event"
    },
    {
      "anonymous": false,
      "inputs": [
        {
          "indexed": true,
          "internalType": "bytes32",
          "name": "offeringId",
          "type": "bytes32"
        },
        {
          "indexed": true,
          "internalType": "address",
          "name": "buyer",
          "type": "address"
        },
        {
          "indexed": true,
          "internalType": "uint256",
          "name": "amount",
          "type": "uint256"
        }
      ],
      "name": "OfferingRemain",
      "type": "event"
    },
    {
      "anonymous": false,
      "inputs": [
        {
          "indexed": false,
          "internalType": "address",
          "name": "previousOperator",
          "type": "address"
        },
        {
          "indexed": false,
          "internalType": "address",
          "name": "newOperator",
          "type": "address"
        }
      ],
      "name": "OperatorChanged",
      "type": "event"
    },
    {
      "anonymous": false,
      "inputs": [
        {
          "indexed": false,
          "internalType": "address",
          "name": "previousOperator",
          "type": "address"
        },
        {
          "indexed": false,
          "internalType": "address",
          "name": "newOperator",
          "type": "address"
        }
      ],
      "name": "ParameterControlChanged",
      "type": "event"
    },
    {
      "anonymous": false,
      "inputs": [
        {
          "indexed": true,
          "internalType": "bytes32",
          "name": "role",
          "type": "bytes32"
        },
        {
          "indexed": true,
          "internalType": "bytes32",
          "name": "previousAdminRole",
          "type": "bytes32"
        },
        {
          "indexed": true,
          "internalType": "bytes32",
          "name": "newAdminRole",
          "type": "bytes32"
        }
      ],
      "name": "RoleAdminChanged",
      "type": "event"
    },
    {
      "anonymous": false,
      "inputs": [
        {
          "indexed": true,
          "internalType": "bytes32",
          "name": "role",
          "type": "bytes32"
        },
        {
          "indexed": true,
          "internalType": "address",
          "name": "account",
          "type": "address"
        },
        {
          "indexed": true,
          "internalType": "address",
          "name": "sender",
          "type": "address"
        }
      ],
      "name": "RoleGranted",
      "type": "event"
    },
    {
      "anonymous": false,
      "inputs": [
        {
          "indexed": true,
          "internalType": "bytes32",
          "name": "role",
          "type": "bytes32"
        },
        {
          "indexed": true,
          "internalType": "address",
          "name": "account",
          "type": "address"
        },
        {
          "indexed": true,
          "internalType": "address",
          "name": "sender",
          "type": "address"
        }
      ],
      "name": "RoleRevoked",
      "type": "event"
    },
    {
      "inputs": [],
      "name": "DEFAULT_ADMIN_ROLE",
      "outputs": [
        {
          "internalType": "bytes32",
          "name": "",
          "type": "bytes32"
        }
      ],
      "stateMutability": "view",
      "type": "function"
    },
    {
      "inputs": [],
      "name": "arrayOffering",
      "outputs": [
        {
          "internalType": "bytes32[]",
          "name": "",
          "type": "bytes32[]"
        }
      ],
      "stateMutability": "view",
      "type": "function"
    },
    {
      "inputs": [
        {
          "internalType": "address",
          "name": "_newOperator",
          "type": "address"
        }
      ],
      "name": "changeOperator",
      "outputs": [],
      "stateMutability": "nonpayable",
      "type": "function"
    },
    {
      "inputs": [
        {
          "internalType": "address",
          "name": "_new",
          "type": "address"
        }
      ],
      "name": "changeParameterControl",
      "outputs": [],
      "stateMutability": "nonpayable",
      "type": "function"
    },
    {
      "inputs": [
        {
          "internalType": "bytes32",
          "name": "_offeringId",
          "type": "bytes32"
        },
        {
          "internalType": "uint256",
          "name": "_amount",
          "type": "uint256"
        }
      ],
      "name": "closeOffering",
      "outputs": [],
      "stateMutability": "payable",
      "type": "function"
    },
    {
      "inputs": [
        {
          "internalType": "bytes32",
          "name": "role",
          "type": "bytes32"
        }
      ],
      "name": "getRoleAdmin",
      "outputs": [
        {
          "internalType": "bytes32",
          "name": "",
          "type": "bytes32"
        }
      ],
      "stateMutability": "view",
      "type": "function"
    },
    {
      "inputs": [
        {
          "internalType": "bytes32",
          "name": "role",
          "type": "bytes32"
        },
        {
          "internalType": "address",
          "name": "account",
          "type": "address"
        }
      ],
      "name": "grantRole",
      "outputs": [],
      "stateMutability": "nonpayable",
      "type": "function"
    },
    {
      "inputs": [
        {
          "internalType": "bytes32",
          "name": "role",
          "type": "bytes32"
        },
        {
          "internalType": "address",
          "name": "account",
          "type": "address"
        }
      ],
      "name": "hasRole",
      "outputs": [
        {
          "internalType": "bool",
          "name": "",
          "type": "bool"
        }
      ],
      "stateMutability": "view",
      "type": "function"
    },
    {
      "inputs": [],
      "name": "operator",
      "outputs": [
        {
          "internalType": "address",
          "name": "",
          "type": "address"
        }
      ],
      "stateMutability": "view",
      "type": "function"
    },
    {
      "inputs": [
        {
          "internalType": "bytes32",
          "name": "_offeringId",
          "type": "bytes32"
        }
      ],
      "name": "operatorCloseOffering",
      "outputs": [],
      "stateMutability": "nonpayable",
      "type": "function"
    },
    {
      "inputs": [],
      "name": "parameterControl",
      "outputs": [
        {
          "internalType": "address",
          "name": "",
          "type": "address"
        }
      ],
      "stateMutability": "view",
      "type": "function"
    },
    {
      "inputs": [
        {
          "internalType": "address",
          "name": "_hostContract",
          "type": "address"
        },
        {
          "internalType": "uint256",
          "name": "_tokenId",
          "type": "uint256"
        },
        {
          "internalType": "address",
          "name": "_erc20Token",
          "type": "address"
        },
        {
          "internalType": "uint256",
          "name": "_price",
          "type": "uint256"
        },
        {
          "internalType": "uint256",
          "name": "_amount",
          "type": "uint256"
        }
      ],
      "name": "placeOffering",
      "outputs": [],
      "stateMutability": "nonpayable",
      "type": "function"
    },
    {
      "inputs": [
        {
          "internalType": "bytes32",
          "name": "role",
          "type": "bytes32"
        },
        {
          "internalType": "address",
          "name": "account",
          "type": "address"
        }
      ],
      "name": "renounceRole",
      "outputs": [],
      "stateMutability": "nonpayable",
      "type": "function"
    },
    {
      "inputs": [
        {
          "internalType": "bytes32",
          "name": "role",
          "type": "bytes32"
        },
        {
          "internalType": "address",
          "name": "account",
          "type": "address"
        }
      ],
      "name": "revokeRole",
      "outputs": [],
      "stateMutability": "nonpayable",
      "type": "function"
    },
    {
      "inputs": [
        {
          "internalType": "bytes4",
          "name": "interfaceId",
          "type": "bytes4"
        }
      ],
      "name": "supportsInterface",
      "outputs": [
        {
          "internalType": "bool",
          "name": "",
          "type": "bool"
        }
      ],
      "stateMutability": "view",
      "type": "function"
    },
    {
      "inputs": [
        {
          "internalType": "address",
          "name": "_address",
          "type": "address"
        },
        {
          "internalType": "address",
          "name": "_erc20Token",
          "type": "address"
        }
      ],
      "name": "viewBalances",
      "outputs": [
        {
          "internalType": "uint256",
          "name": "",
          "type": "uint256"
        }
      ],
      "stateMutability": "view",
      "type": "function"
    },
    {
      "inputs": [
        {
          "internalType": "bytes32",
          "name": "_offeringId",
          "type": "bytes32"
        }
      ],
      "name": "viewOfferingNFT",
      "outputs": [
        {
          "internalType": "address",
          "name": "",
          "type": "address"
        },
        {
          "internalType": "uint256",
          "name": "",
          "type": "uint256"
        },
        {
          "internalType": "uint256",
          "name": "",
          "type": "uint256"
        },
        {
          "internalType": "bool",
          "name": "",
          "type": "bool"
        },
        {
          "internalType": "uint256",
          "name": "",
          "type": "uint256"
        }
      ],
      "stateMutability": "view",
      "type": "function"
    },
    {
      "inputs": [
        {
          "internalType": "address",
          "name": "_erc20Token",
          "type": "address"
        }
      ],
      "name": "withdrawBalance",
      "outputs": [],
      "stateMutability": "nonpayable",
      "type": "function"
    }
  ],
  "bytecode": "0x60806040523480156200001157600080fd5b5060405162002b6938038062002b6983398101604081905262000034916200027c565b60016000556001600160a01b038216620000875760405162461bcd60e51b815260206004820152600f60248201526e105111149154d4d7d2539590531251608a1b60448201526064015b60405180910390fd5b6001600160a01b038116620000d05760405162461bcd60e51b815260206004820152600e60248201526d105111149154d7d253959053125160921b60448201526064016200007e565b600380546001600160a01b0319166001600160a01b038416908117909155620000fc9060009062000143565b6003546001600160a01b031633146200011c576200011c60003362000153565b600480546001600160a01b0319166001600160a01b039290921691909117905550620002b4565b6200014f8282620001d7565b5050565b60008281526001602090815260408083206001600160a01b038516845290915290205460ff16156200014f5760008281526001602090815260408083206001600160a01b0385168085529252808320805460ff1916905551339285917ff6391f5c32d9c69d2a47ea670b442974b53935d1edc7fd64eb21e047a839171b9190a45050565b60008281526001602090815260408083206001600160a01b038516845290915290205460ff166200014f5760008281526001602081815260408084206001600160a01b0386168086529252808420805460ff19169093179092559051339285917f2f8788117e7eff1d82e926ec794901d17c78024a50270940304540a733656f0d9190a45050565b80516001600160a01b03811681146200027757600080fd5b919050565b600080604083850312156200029057600080fd5b6200029b836200025f565b9150620002ab602084016200025f565b90509250929050565b6128a580620002c46000396000f3fe6080604052600436106101095760003560e01c806391d1485411610095578063bdac0c1e11610064578063bdac0c1e146102f3578063c684c35e14610306578063d547741f14610326578063e2b4f2b714610346578063ec7bca541461038d57600080fd5b806391d148541461027c578063a217fddf1461029c578063b7694371146102b1578063bda06b37146102d157600080fd5b806336568abe116100dc57806336568abe146101c457806336748e0a146101e4578063570ca7351461021c57806363f008b01461023c578063756af45f1461025c57600080fd5b806301ffc9a71461010e57806306394c9b14610143578063248a9ca3146101655780632f2ff15d146101a4575b600080fd5b34801561011a57600080fd5b5061012e61012936600461231a565b61041c565b60405190151581526020015b60405180910390f35b34801561014f57600080fd5b5061016361015e36600461235c565b610453565b005b34801561017157600080fd5b50610196610180366004612379565b6000908152600160208190526040909120015490565b60405190815260200161013a565b3480156101b057600080fd5b506101636101bf366004612392565b610579565b3480156101d057600080fd5b506101636101df366004612392565b6105a5565b3480156101f057600080fd5b50600454610204906001600160a01b031681565b6040516001600160a01b03909116815260200161013a565b34801561022857600080fd5b50600354610204906001600160a01b031681565b34801561024857600080fd5b5061016361025736600461235c565b610623565b34801561026857600080fd5b5061016361027736600461235c565b610716565b34801561028857600080fd5b5061012e610297366004612392565b610a4b565b3480156102a857600080fd5b50610196600081565b3480156102bd57600080fd5b506101636102cc3660046123c2565b610a76565b3480156102dd57600080fd5b506102e6610ebb565b60405161013a9190612414565b610163610301366004612458565b610f13565b34801561031257600080fd5b50610163610321366004612379565b611d7f565b34801561033257600080fd5b50610163610341366004612392565b611e6c565b34801561035257600080fd5b5061019661036136600461247a565b6001600160a01b0380821660009081526005602090815260408083209386168352929052205492915050565b34801561039957600080fd5b506103e86103a8366004612379565b600090815260066020526040902060018101546002820154600383015460058401546004909401546001600160a01b03909316949193909260ff90911691565b604080516001600160a01b03909616865260208601949094529284019190915215156060830152608082015260a00161013a565b60006001600160e01b03198216637965db0b60e01b148061044d57506301ffc9a760e01b6001600160e01b03198316145b92915050565b6003546001600160a01b031633146104865760405162461bcd60e51b815260040161047d906124a8565b60405180910390fd5b610491600033610a4b565b6104ad5760405162461bcd60e51b815260040161047d906124a8565b6001600160a01b0381166104f55760405162461bcd60e51b815260206004820152600f60248201526e105111149154d4d7d2539590531251608a1b604482015260640161047d565b600380546001600160a01b038381166001600160a01b031983168117909355169061052290600090611e93565b61052d600082611e9d565b600354604080516001600160a01b03808516825290921660208301527fd58299b712891143e76310d5e664c4203c940a67db37cf856bdaa3c5c76a802c91015b60405180910390a15050565b600082815260016020819052604090912001546105968133611f04565b6105a08383611f68565b505050565b6001600160a01b03811633146106155760405162461bcd60e51b815260206004820152602f60248201527f416363657373436f6e74726f6c3a2063616e206f6e6c792072656e6f756e636560448201526e103937b632b9903337b91039b2b63360891b606482015260840161047d565b61061f8282611e9d565b5050565b6003546001600160a01b0316331461064d5760405162461bcd60e51b815260040161047d906124a8565b610658600033610a4b565b6106745760405162461bcd60e51b815260040161047d906124a8565b6001600160a01b0381166106bc5760405162461bcd60e51b815260206004820152600f60248201526e105111149154d4d7d2539590531251608a1b604482015260640161047d565b600480546001600160a01b038381166001600160a01b031983168117909355604080519190921680825260208201939093527fff8b036e9641959ee1d5b4efb05f8fa0e816d57e2879aa0758b191993511f7dd910161056d565b600260005414156107395760405162461bcd60e51b815260040161047d906124cf565b600260009081556001600160a01b038216815260056020908152604080832033808552925290912054806107a65760405162461bcd60e51b815260206004820152601460248201527357495448445241575f554e415641494c41424c4560601b604482015260640161047d565b6001600160a01b0383161561092c576040516370a0823160e01b815230600482015283906000906001600160a01b038316906370a0823190602401602060405180830381865afa1580156107fe573d6000803e3d6000fd5b505050506040513d601f19601f820116820180604052508101906108229190612506565b6001600160a01b038087166000908152600560209081526040808320938916835292905220549091508110156108895760405162461bcd60e51b815260206004820152600c60248201526b1253959053125117d195539160a21b604482015260640161047d565b60405163a9059cbb60e01b81526001600160a01b038581166004830152602482018590526000919084169063a9059cbb906044016020604051808303816000875af11580156108dc573d6000803e3d6000fd5b505050506040513d601f19601f82011682018060405250810190610900919061251f565b90506001811515146109245760405162461bcd60e51b815260040161047d90612541565b5050506109e0565b6000471161096b5760405162461bcd60e51b815260206004820152600c60248201526b1253959053125117d195539160a21b604482015260640161047d565b6000826001600160a01b03168260405160006040518083038185875af1925050503d80600081146109b8576040519150601f19603f3d011682016040523d82523d6000602084013e6109bd565b606091505b50509050806109de5760405162461bcd60e51b815260040161047d90612541565b505b6001600160a01b03838116600081815260056020908152604080832094871680845294825280832092909255815192835282018490527f50630162af2fe1b3638257703351230fbe331ec0b7368aba0eb78f2dabd03c0c910160405180910390a25050600160005550565b60009182526001602090815260408084206001600160a01b0393909316845291905290205460ff1690565b60026000541415610a995760405162461bcd60e51b815260040161047d906124cf565b60026000908155604051627eeac760e11b81523360048201819052602482018790529187916001600160a01b0383169062fdd58e90604401602060405180830381865afa158015610aee573d6000803e3d6000fd5b505050506040513d601f19601f82011682018060405250810190610b129190612506565b60405163e985e9c560e01b81526001600160a01b03858116600483015230602483015291925060009184169063e985e9c590604401602060405180830381865afa158015610b64573d6000803e3d6000fd5b505050506040513d601f19601f82011682018060405250810190610b88919061251f565b905084821015610bcc5760405162461bcd60e51b815260206004820152600f60248201526e109053105390d157d2539590531251608a1b604482015260640161047d565b600181151514610c165760405162461bcd60e51b8152602060048201526015602482015274115490cb4c4c4d4d57d393d517d054141493d59151605a1b604482015260640161047d565b610c24600280546001019055565b6000610c2f60025490565b90506000818b8b604051602001610c6b9392919092835260609190911b6bffffffffffffffffffffffff19166020830152603482015260540190565b604051602081830303815290604052805190602001209050856006600083815260200190815260200160002060000160006101000a8154816001600160a01b0302191690836001600160a01b031602179055508a6006600083815260200190815260200160002060010160006101000a8154816001600160a01b0302191690836001600160a01b0316021790555089600660008381526020019081526020016000206002018190555087600660008381526020019081526020016000206003018190555086600660008381526020019081526020016000206004018190555060006001600160a01b0316896001600160a01b031614610d985760008181526006602052604090206005018054610100600160a81b0319166101006001600160a01b038c1602179055610db9565b60008181526006602052604090206005018054610100600160a81b03191690555b6040516303a24d0760e21b8152600481018b90526000906001600160a01b03871690630e89341c90602401600060405180830381865afa158015610e01573d6000803e3d6000fd5b505050506040513d6000823e601f3d908101601f19168201604052610e2991908101906125ae565b90506007829080600181540180825580915050600190039060005260206000200160009091909190915055866001600160a01b03168c6001600160a01b0316837ff969eb8dd295090c24b5fc63d5c4206b05a83201ca80b0ea051c9ea317800be38e8e8e878f604051610ea0959493929190612687565b60405180910390a45050600160005550505050505050505050565b60606007805480602002602001604051908101604052809291908181526020018280548015610f0957602002820191906000526020600020905b815481526020019060010190808311610ef5575b5050505050905090565b60026000541415610f365760405162461bcd60e51b815260040161047d906124cf565b60026000818155838152600660209081526040808320815160e08101835281546001600160a01b03908116808352600184015482169583018690529683015482850152600383015460608301526004808401546080840181905260059094015460ff8116151560a0850152610100900490911660c0830152925163e985e9c560e01b815292830195909552306024830152919290839063e985e9c590604401602060405180830381865afa158015610ff2573d6000803e3d6000fd5b505050506040513d601f19601f82011682018060405250810190611016919061251f565b60c0858101516040805160e081018252600080825260208201819052918101829052606081018290526080810182905260a081018290529283018190529293506001600160a01b031615801592906111af575060c08601516040805160e0810182523381526060890180516020830152519091820190611097908b906126dc565b81526020018989606001516110ac91906126dc565b81526040516370a0823160e01b81523360048201526020909101906001600160a01b038416906370a0823190602401602060405180830381865afa1580156110f8573d6000803e3d6000fd5b505050506040513d601f19601f8201168201806040525081019061111c9190612506565b8152604051636eb1769f60e11b81523360048201523060248201526020909101906001600160a01b0384169063dd62ed3e90604401602060405180830381865afa15801561116e573d6000803e3d6000fd5b505050506040513d601f19601f820116820180604052508101906111929190612506565b81526020018860c001516001600160a01b03168152509150611211565b6040805160e08101825233815260608901805160208301525190918201906111d8908b906126dc565b81526020018989606001516111ed91906126dc565b8152602001600081526020016000815260200160006001600160a01b031681525091505b60018415151461125b5760405162461bcd60e51b8152602060048201526015602482015274115490cb4c4c4d4d57d393d517d054141493d59151605a1b604482015260640161047d565b878510156112ab5760405162461bcd60e51b815260206004820152601760248201527f4552432d313135352d414d4f554e545f494e56414c4944000000000000000000604482015260640161047d565b86516040808901519051627eeac760e11b81526001600160a01b0392831660048201526024810191909152899188169062fdd58e90604401602060405180830381865afa158015611300573d6000803e3d6000fd5b505050506040513d601f19601f820116820180604052508101906113249190612506565b10156113725760405162461bcd60e51b815260206004820152601860248201527f4552432d313135355f42414c414e43455f494e56414c49440000000000000000604482015260640161047d565b821561141c5781604001518260a0015110156113c65760405162461bcd60e51b8152602060048201526013602482015272115490cb4c8c17d393d517d054141493d59151606a1b604482015260640161047d565b8160400151826080015110156114175760405162461bcd60e51b8152602060048201526016602482015275115490cb4c8c17d09053105390d157d253959053125160521b604482015260640161047d565b611460565b81604001513410156114605760405162461bcd60e51b815260206004820152600d60248201526c159053155157d2539590531251609a1b604482015260640161047d565b8660a00151156114a45760405162461bcd60e51b815260206004820152600f60248201526e13d1919154925391d7d0d313d4d151608a1b604482015260640161047d565b865182516040808a01519051637921219560e11b81526001600160a01b03938416600482015291831660248301526044820152606481018a905260a06084820152600260a482015261060f60f31b60c48201529087169063f242432a9060e401600060405180830381600087803b15801561151e57600080fd5b505af1158015611532573d6000803e3d6000fd5b5050600480546040805160a0810182526000808252602082018190528183018190526060820181905260808201529051636d12dce160e01b81526001600160a01b03909216945092508391636d12dce1916115b091016020808252600e908201526d13505492d15517d091539151925560921b604082015260600190565b602060405180830381865afa1580156115cd573d6000803e3d6000fd5b505050506040513d601f19601f820116820180604052508101906115f19190612506565b6040820181905215611817576127108160400151856060015161161491906126dc565b61161e91906126fb565b606082015284156117b45760405163349f642f60e11b815260206004820152600a6024820152692927ab22afaa27a5a2a760b11b60448201526000906001600160a01b0384169063693ec85e90606401600060405180830381865afa15801561168b573d6000803e3d6000fd5b505050506040513d6000823e601f3d908101601f191682016040526116b391908101906125ae565b905080516000146117b2576116df6116d98b60c001516001600160a01b03166014611fd3565b82612176565b156117b257604051636d12dce160e01b81526020600482015260136024820152722224a9a1a7aaa72a2fa927ab22afaa27a5a2a760691b60448201526001600160a01b03841690636d12dce190606401602060405180830381865afa15801561174c573d6000803e3d6000fd5b505050506040513d601f19601f820116820180604052508101906117709190612506565b60808301819052156117b2576127108260800151836060015161179391906126dc565b61179d91906126fb565b82606001516117ac919061271d565b60608301525b505b8060600151846040018181516117ca919061271d565b905250606081015160c08501516001600160a01b03908116600090815260056020908152604080832060035490941683529290529081208054909190611811908490612734565b90915550505b604051636d12dce160e01b815260206004820152600f60248201526e10d491505513d497d0915391519255608a1b60448201526001600160a01b03831690636d12dce190606401602060405180830381865afa15801561187b573d6000803e3d6000fd5b505050506040513d601f19601f8201168201806040525081019061189f9190612506565b80825215611a38576040516301ffc9a760e01b8152636a4731c560e11b60048201526001600160a01b038916906301ffc9a790602401602060405180830381865afa1580156118f2573d6000803e3d6000fd5b505050506040513d601f19601f82011682018060405250810190611916919061251f565b15611a3357600080896001600160a01b0316632a55205a8c6040015188606001516040518363ffffffff1660e01b815260040161195d929190918252602082015260400190565b6040805180830381865afa158015611979573d6000803e3d6000fd5b505050506040513d601f19601f8201168201806040525081019061199d919061274c565b90925090506001600160a01b03821615611a305782516060870151612710916119c5916126dc565b6119cf91906126fb565b602084018190526040870180516119e790839061271d565b90525060208084015160c08801516001600160a01b0390811660009081526005845260408082209287168252919093528220805491929091611a2a908490612734565b90915550505b50505b611ba9565b6040516301ffc9a760e01b8152636a4731c560e11b60048201526001600160a01b038916906301ffc9a790602401602060405180830381865afa158015611a83573d6000803e3d6000fd5b505050506040513d601f19601f82011682018060405250810190611aa7919061251f565b15611ba957600080896001600160a01b0316632a55205a8c6040015188606001516040518363ffffffff1660e01b8152600401611aee929190918252602082015260400190565b6040805180830381865afa158015611b0a573d6000803e3d6000fd5b505050506040513d601f19601f82011682018060405250810190611b2e919061274c565b90925090506001600160a01b03821615611ba65760208301819052604086018051829190611b5d90839061271d565b90525060208084015160c08801516001600160a01b0390811660009081526005845260408082209287168252919093528220805491929091611ba0908490612734565b90915550505b50505b8415611c5957835160608501516040516323b872dd60e01b81526001600160a01b03928316600482015230602482015260448101919091526000918516906323b872dd906064016020604051808303816000875af1158015611c0f573d6000803e3d6000fd5b505050506040513d601f19601f82011682018060405250810190611c33919061251f565b9050600181151514611c575760405162461bcd60e51b815260040161047d90612541565b505b60008b815260066020526040812060040180548c9290611c7a90849061271d565b909155505060008b8152600660209081526040808320600401548782015160c08901516001600160a01b039081168652600585528386208f5190911686529093529083208054919a50919290611cd1908490612734565b909155505086611d335760008b815260066020526040808220600501805460ff19166001179055855190516001600160a01b03909116918d917f0cfb1c3841b1ebe2ad43e9d641c358c0d40c4a10fc3c2ee73fd956a2658ed1449190a3611d6d565b835160405188916001600160a01b0316908d907fd586202b1fb1f19550228698f4d5754bc25f72478fe3bcdf94e67ac6b64e284390600090a45b50506001600055505050505050505050565b6003546001600160a01b03163314611da95760405162461bcd60e51b815260040161047d906124a8565b611db4600033610a4b565b611dd05760405162461bcd60e51b815260040161047d906124a8565b60008181526006602052604090206005015460ff1615611e245760405162461bcd60e51b815260206004820152600f60248201526e13d1919154925391d7d0d313d4d151608a1b604482015260640161047d565b600081815260066020526040808220600501805460ff191660011790555182907f0cfb1c3841b1ebe2ad43e9d641c358c0d40c4a10fc3c2ee73fd956a2658ed144908390a350565b60008281526001602081905260409091200154611e898133611f04565b6105a08383611e9d565b61061f8282611f68565b611ea78282610a4b565b1561061f5760008281526001602090815260408083206001600160a01b0385168085529252808320805460ff1916905551339285917ff6391f5c32d9c69d2a47ea670b442974b53935d1edc7fd64eb21e047a839171b9190a45050565b611f0e8282610a4b565b61061f57611f26816001600160a01b03166014611fd3565b611f31836020611fd3565b604051602001611f4292919061277a565b60408051601f198184030181529082905262461bcd60e51b825261047d916004016127ef565b611f728282610a4b565b61061f5760008281526001602081815260408084206001600160a01b0386168086529252808420805460ff19169093179092559051339285917f2f8788117e7eff1d82e926ec794901d17c78024a50270940304540a733656f0d9190a45050565b60606000611fe28360026126dc565b611fed906002612734565b67ffffffffffffffff81111561200557612005612568565b6040519080825280601f01601f19166020018201604052801561202f576020820181803683370190505b509050600360fc1b8160008151811061204a5761204a612802565b60200101906001600160f81b031916908160001a905350600f60fb1b8160018151811061207957612079612802565b60200101906001600160f81b031916908160001a905350600061209d8460026126dc565b6120a8906001612734565b90505b6001811115612120576f181899199a1a9b1b9c1cb0b131b232b360811b85600f16601081106120dc576120dc612802565b1a60f81b8282815181106120f2576120f2612802565b60200101906001600160f81b031916908160001a90535060049490941c9361211981612818565b90506120ab565b50831561216f5760405162461bcd60e51b815260206004820181905260248201527f537472696e67733a20686578206c656e67746820696e73756666696369656e74604482015260640161047d565b9392505050565b6000612181836121b7565b925061218c826121b7565b9150815183511461219f5750600061044d565b8180519060200120838051906020012014905061044d565b606060008290506000815167ffffffffffffffff8111156121da576121da612568565b6040519080825280601f01601f191660200182016040528015612204576020820181803683370190505b50905060005b825181101561231257604183828151811061222757612227612802565b016020015160f81c108015906122575750605a83828151811061224c5761224c612802565b016020015160f81c11155b156122b95782818151811061226e5761226e612802565b602001015160f81c60f81b60f81c6020612288919061282f565b60f81b82828151811061229d5761229d612802565b60200101906001600160f81b031916908160001a905350612300565b8281815181106122cb576122cb612802565b602001015160f81c60f81b8282815181106122e8576122e8612802565b60200101906001600160f81b031916908160001a9053505b8061230a81612854565b91505061220a565b509392505050565b60006020828403121561232c57600080fd5b81356001600160e01b03198116811461216f57600080fd5b6001600160a01b038116811461235957600080fd5b50565b60006020828403121561236e57600080fd5b813561216f81612344565b60006020828403121561238b57600080fd5b5035919050565b600080604083850312156123a557600080fd5b8235915060208301356123b781612344565b809150509250929050565b600080600080600060a086880312156123da57600080fd5b85356123e581612344565b94506020860135935060408601356123fc81612344565b94979396509394606081013594506080013592915050565b6020808252825182820181905260009190848201906040850190845b8181101561244c57835183529284019291840191600101612430565b50909695505050505050565b6000806040838503121561246b57600080fd5b50508035926020909101359150565b6000806040838503121561248d57600080fd5b823561249881612344565b915060208301356123b781612344565b6020808252600d908201526c4f50455241544f525f4f4e4c5960981b604082015260600190565b6020808252601f908201527f5265656e7472616e637947756172643a207265656e7472616e742063616c6c00604082015260600190565b60006020828403121561251857600080fd5b5051919050565b60006020828403121561253157600080fd5b8151801515811461216f57600080fd5b6020808252600d908201526c1514905394d1915497d1905253609a1b604082015260600190565b634e487b7160e01b600052604160045260246000fd5b60005b83811015612599578181015183820152602001612581565b838111156125a8576000848401525b50505050565b6000602082840312156125c057600080fd5b815167ffffffffffffffff808211156125d857600080fd5b818401915084601f8301126125ec57600080fd5b8151818111156125fe576125fe612568565b604051601f8201601f19908116603f0116810190838211818310171561262657612626612568565b8160405282815287602084870101111561263f57600080fd5b61265083602083016020880161257e565b979650505050505050565b6000815180845261267381602086016020860161257e565b601f01601f19169290920160200192915050565b85815260018060a01b038516602082015283604082015260a0606082015260006126b460a083018561265b565b90508260808301529695505050505050565b634e487b7160e01b600052601160045260246000fd5b60008160001904831182151516156126f6576126f66126c6565b500290565b60008261271857634e487b7160e01b600052601260045260246000fd5b500490565b60008282101561272f5761272f6126c6565b500390565b60008219821115612747576127476126c6565b500190565b6000806040838503121561275f57600080fd5b825161276a81612344565b6020939093015192949293505050565b7f416363657373436f6e74726f6c3a206163636f756e74200000000000000000008152600083516127b281601785016020880161257e565b7001034b99036b4b9b9b4b733903937b6329607d1b60179184019182015283516127e381602884016020880161257e565b01602801949350505050565b60208152600061216f602083018461265b565b634e487b7160e01b600052603260045260246000fd5b600081612827576128276126c6565b506000190190565b600060ff821660ff84168060ff0382111561284c5761284c6126c6565b019392505050565b6000600019821415612868576128686126c6565b506001019056fea264697066735822122088c360686bf851a4f9beaf903a81b7a5b5088b4504ac79ac1cf317ace44e0f6264736f6c634300080c0033",
  "linkReferences": {},
  "deployedLinkReferences": {}
}