{
  "_format": "hh-sol-artifact-1",
  "contractName": "ObjectNFT",
  "sourceName": "contracts/goods/ObjectNFT.sol",
  "abi": [
    {
      "inputs": [
        {
          "internalType": "address",
          "name": "admin",
          "type": "address"
        },
        {
          "internalType": "address",
          "name": "operator",
          "type": "address"
        }
      ],
      "stateMutability": "nonpayable",
      "type": "constructor"
    },
    {
      "anonymous": false,
      "inputs": [
        {
          "indexed": false,
          "internalType": "address",
          "name": "previous",
          "type": "address"
        },
        {
          "indexed": false,
          "internalType": "address",
          "name": "new_",
          "type": "address"
        }
      ],
      "name": "AdminChanged",
      "type": "event"
    },
    {
      "anonymous": false,
      "inputs": [
        {
          "indexed": true,
          "internalType": "address",
          "name": "account",
          "type": "address"
        },
        {
          "indexed": true,
          "internalType": "address",
          "name": "operator",
          "type": "address"
        },
        {
          "indexed": false,
          "internalType": "bool",
          "name": "approved",
          "type": "bool"
        }
      ],
      "name": "ApprovalForAll",
      "type": "event"
    },
    {
      "anonymous": false,
      "inputs": [
        {
          "indexed": false,
          "internalType": "address",
          "name": "_initialOwner",
          "type": "address"
        },
        {
          "indexed": false,
          "internalType": "uint256",
          "name": "_id",
          "type": "uint256"
        },
        {
          "indexed": false,
          "internalType": "uint256",
          "name": "_initialSupply",
          "type": "uint256"
        },
        {
          "indexed": false,
          "internalType": "string",
          "name": "_uri",
          "type": "string"
        },
        {
          "indexed": false,
          "internalType": "address",
          "name": "_operator",
          "type": "address"
        }
      ],
      "name": "CreateEvent",
      "type": "event"
    },
    {
      "anonymous": false,
      "inputs": [
        {
          "indexed": false,
          "internalType": "address",
          "name": "userAddress",
          "type": "address"
        },
        {
          "indexed": false,
          "internalType": "address payable",
          "name": "relayerAddress",
          "type": "address"
        },
        {
          "indexed": false,
          "internalType": "bytes",
          "name": "functionSignature",
          "type": "bytes"
        }
      ],
      "name": "MetaTransactionExecuted",
      "type": "event"
    },
    {
      "anonymous": false,
      "inputs": [
        {
          "indexed": false,
          "internalType": "address",
          "name": "_to",
          "type": "address"
        },
        {
          "indexed": false,
          "internalType": "uint256",
          "name": "_id",
          "type": "uint256"
        },
        {
          "indexed": false,
          "internalType": "uint256",
          "name": "_quantity",
          "type": "uint256"
        }
      ],
      "name": "MintEvent",
      "type": "event"
    },
    {
      "anonymous": false,
      "inputs": [
        {
          "indexed": false,
          "internalType": "address",
          "name": "previous",
          "type": "address"
        },
        {
          "indexed": false,
          "internalType": "address",
          "name": "new_",
          "type": "address"
        }
      ],
      "name": "OperatorChanged",
      "type": "event"
    },
    {
      "anonymous": false,
      "inputs": [
        {
          "indexed": false,
          "internalType": "address",
          "name": "account",
          "type": "address"
        }
      ],
      "name": "Paused",
      "type": "event"
    },
    {
      "anonymous": false,
      "inputs": [
        {
          "indexed": false,
          "internalType": "uint256",
          "name": "_id",
          "type": "uint256"
        },
        {
          "indexed": false,
          "internalType": "uint256",
          "name": "previous",
          "type": "uint256"
        },
        {
          "indexed": false,
          "internalType": "uint256",
          "name": "new_",
          "type": "uint256"
        }
      ],
      "name": "PriceChanged",
      "type": "event"
    },
    {
      "anonymous": false,
      "inputs": [
        {
          "indexed": false,
          "internalType": "address",
          "name": "previous",
          "type": "address"
        },
        {
          "indexed": false,
          "internalType": "address",
          "name": "new_",
          "type": "address"
        }
      ],
      "name": "ProxyRegistryAddressChanged",
      "type": "event"
    },
    {
      "anonymous": false,
      "inputs": [
        {
          "indexed": true,
          "internalType": "bytes32",
          "name": "role",
          "type": "bytes32"
        },
        {
          "indexed": true,
          "internalType": "bytes32",
          "name": "previousAdminRole",
          "type": "bytes32"
        },
        {
          "indexed": true,
          "internalType": "bytes32",
          "name": "newAdminRole",
          "type": "bytes32"
        }
      ],
      "name": "RoleAdminChanged",
      "type": "event"
    },
    {
      "anonymous": false,
      "inputs": [
        {
          "indexed": true,
          "internalType": "bytes32",
          "name": "role",
          "type": "bytes32"
        },
        {
          "indexed": true,
          "internalType": "address",
          "name": "account",
          "type": "address"
        },
        {
          "indexed": true,
          "internalType": "address",
          "name": "sender",
          "type": "address"
        }
      ],
      "name": "RoleGranted",
      "type": "event"
    },
    {
      "anonymous": false,
      "inputs": [
        {
          "indexed": true,
          "internalType": "bytes32",
          "name": "role",
          "type": "bytes32"
        },
        {
          "indexed": true,
          "internalType": "address",
          "name": "account",
          "type": "address"
        },
        {
          "indexed": true,
          "internalType": "address",
          "name": "sender",
          "type": "address"
        }
      ],
      "name": "RoleRevoked",
      "type": "event"
    },
    {
      "anonymous": false,
      "inputs": [
        {
          "indexed": true,
          "internalType": "address",
          "name": "operator",
          "type": "address"
        },
        {
          "indexed": true,
          "internalType": "address",
          "name": "from",
          "type": "address"
        },
        {
          "indexed": true,
          "internalType": "address",
          "name": "to",
          "type": "address"
        },
        {
          "indexed": false,
          "internalType": "uint256[]",
          "name": "ids",
          "type": "uint256[]"
        },
        {
          "indexed": false,
          "internalType": "uint256[]",
          "name": "values",
          "type": "uint256[]"
        }
      ],
      "name": "TransferBatch",
      "type": "event"
    },
    {
      "anonymous": false,
      "inputs": [
        {
          "indexed": true,
          "internalType": "address",
          "name": "operator",
          "type": "address"
        },
        {
          "indexed": true,
          "internalType": "address",
          "name": "from",
          "type": "address"
        },
        {
          "indexed": true,
          "internalType": "address",
          "name": "to",
          "type": "address"
        },
        {
          "indexed": false,
          "internalType": "uint256",
          "name": "id",
          "type": "uint256"
        },
        {
          "indexed": false,
          "internalType": "uint256",
          "name": "value",
          "type": "uint256"
        }
      ],
      "name": "TransferSingle",
      "type": "event"
    },
    {
      "anonymous": false,
      "inputs": [
        {
          "indexed": false,
          "internalType": "string",
          "name": "value",
          "type": "string"
        },
        {
          "indexed": true,
          "internalType": "uint256",
          "name": "id",
          "type": "uint256"
        }
      ],
      "name": "URI",
      "type": "event"
    },
    {
      "anonymous": false,
      "inputs": [
        {
          "indexed": false,
          "internalType": "address",
          "name": "account",
          "type": "address"
        }
      ],
      "name": "Unpaused",
      "type": "event"
    },
    {
      "inputs": [],
      "name": "CREATOR_ROLE",
      "outputs": [
        {
          "internalType": "bytes32",
          "name": "",
          "type": "bytes32"
        }
      ],
      "stateMutability": "view",
      "type": "function"
    },
    {
      "inputs": [],
      "name": "DEFAULT_ADMIN_ROLE",
      "outputs": [
        {
          "internalType": "bytes32",
          "name": "",
          "type": "bytes32"
        }
      ],
      "stateMutability": "view",
      "type": "function"
    },
    {
      "inputs": [],
      "name": "ERC712_VERSION",
      "outputs": [
        {
          "internalType": "string",
          "name": "",
          "type": "string"
        }
      ],
      "stateMutability": "view",
      "type": "function"
    },
    {
      "inputs": [],
      "name": "MINTER_ROLE",
      "outputs": [
        {
          "internalType": "bytes32",
          "name": "",
          "type": "bytes32"
        }
      ],
      "stateMutability": "view",
      "type": "function"
    },
    {
      "inputs": [],
      "name": "OPERATOR_ROLE",
      "outputs": [
        {
          "internalType": "bytes32",
          "name": "",
          "type": "bytes32"
        }
      ],
      "stateMutability": "view",
      "type": "function"
    },
    {
      "inputs": [],
      "name": "PAUSER_ROLE",
      "outputs": [
        {
          "internalType": "bytes32",
          "name": "",
          "type": "bytes32"
        }
      ],
      "stateMutability": "view",
      "type": "function"
    },
    {
      "inputs": [],
      "name": "admin",
      "outputs": [
        {
          "internalType": "address",
          "name": "",
          "type": "address"
        }
      ],
      "stateMutability": "view",
      "type": "function"
    },
    {
      "inputs": [
        {
          "internalType": "address",
          "name": "account",
          "type": "address"
        },
        {
          "internalType": "uint256",
          "name": "id",
          "type": "uint256"
        }
      ],
      "name": "balanceOf",
      "outputs": [
        {
          "internalType": "uint256",
          "name": "",
          "type": "uint256"
        }
      ],
      "stateMutability": "view",
      "type": "function"
    },
    {
      "inputs": [
        {
          "internalType": "address[]",
          "name": "accounts",
          "type": "address[]"
        },
        {
          "internalType": "uint256[]",
          "name": "ids",
          "type": "uint256[]"
        }
      ],
      "name": "balanceOfBatch",
      "outputs": [
        {
          "internalType": "uint256[]",
          "name": "",
          "type": "uint256[]"
        }
      ],
      "stateMutability": "view",
      "type": "function"
    },
    {
      "inputs": [
        {
          "internalType": "address",
          "name": "_to",
          "type": "address"
        },
        {
          "internalType": "uint256[]",
          "name": "_ids",
          "type": "uint256[]"
        },
        {
          "internalType": "uint256[]",
          "name": "_quantities",
          "type": "uint256[]"
        },
        {
          "internalType": "bytes",
          "name": "_data",
          "type": "bytes"
        }
      ],
      "name": "batchMint",
      "outputs": [],
      "stateMutability": "nonpayable",
      "type": "function"
    },
    {
      "inputs": [
        {
          "internalType": "address",
          "name": "account",
          "type": "address"
        },
        {
          "internalType": "uint256",
          "name": "id",
          "type": "uint256"
        },
        {
          "internalType": "uint256",
          "name": "value",
          "type": "uint256"
        }
      ],
      "name": "burn",
      "outputs": [],
      "stateMutability": "nonpayable",
      "type": "function"
    },
    {
      "inputs": [
        {
          "internalType": "address",
          "name": "account",
          "type": "address"
        },
        {
          "internalType": "uint256[]",
          "name": "ids",
          "type": "uint256[]"
        },
        {
          "internalType": "uint256[]",
          "name": "values",
          "type": "uint256[]"
        }
      ],
      "name": "burnBatch",
      "outputs": [],
      "stateMutability": "nonpayable",
      "type": "function"
    },
    {
      "inputs": [
        {
          "internalType": "address",
          "name": "_newAdmin",
          "type": "address"
        }
      ],
      "name": "changeAdmin",
      "outputs": [],
      "stateMutability": "nonpayable",
      "type": "function"
    },
    {
      "inputs": [
        {
          "internalType": "address",
          "name": "_newOperator",
          "type": "address"
        }
      ],
      "name": "changeOperator",
      "outputs": [],
      "stateMutability": "nonpayable",
      "type": "function"
    },
    {
      "inputs": [
        {
          "internalType": "uint256",
          "name": "_id",
          "type": "uint256"
        },
        {
          "internalType": "uint256",
          "name": "_price",
          "type": "uint256"
        }
      ],
      "name": "changePriceToken",
      "outputs": [],
      "stateMutability": "nonpayable",
      "type": "function"
    },
    {
      "inputs": [
        {
          "internalType": "address",
          "name": "_initialOwner",
          "type": "address"
        },
        {
          "internalType": "uint256",
          "name": "_id",
          "type": "uint256"
        },
        {
          "internalType": "uint256",
          "name": "_initialSupply",
          "type": "uint256"
        },
        {
          "internalType": "string",
          "name": "_uri",
          "type": "string"
        },
        {
          "internalType": "bytes",
          "name": "_data",
          "type": "bytes"
        },
        {
          "internalType": "uint256",
          "name": "_price",
          "type": "uint256"
        },
        {
          "internalType": "uint256",
          "name": "_max",
          "type": "uint256"
        }
      ],
      "name": "create",
      "outputs": [
        {
          "internalType": "uint256",
          "name": "",
          "type": "uint256"
        }
      ],
      "stateMutability": "nonpayable",
      "type": "function"
    },
    {
      "inputs": [
        {
          "internalType": "address",
          "name": "recipient",
          "type": "address"
        },
        {
          "internalType": "uint256",
          "name": "initialSupply",
          "type": "uint256"
        },
        {
          "internalType": "string",
          "name": "tokenURI",
          "type": "string"
        },
        {
          "internalType": "uint256",
          "name": "price",
          "type": "uint256"
        },
        {
          "internalType": "uint256",
          "name": "max",
          "type": "uint256"
        }
      ],
      "name": "createNFT",
      "outputs": [
        {
          "internalType": "uint256",
          "name": "",
          "type": "uint256"
        }
      ],
      "stateMutability": "nonpayable",
      "type": "function"
    },
    {
      "inputs": [
        {
          "internalType": "uint256",
          "name": "",
          "type": "uint256"
        }
      ],
      "name": "creators",
      "outputs": [
        {
          "internalType": "address",
          "name": "",
          "type": "address"
        }
      ],
      "stateMutability": "view",
      "type": "function"
    },
    {
      "inputs": [
        {
          "internalType": "address",
          "name": "userAddress",
          "type": "address"
        },
        {
          "internalType": "bytes",
          "name": "functionSignature",
          "type": "bytes"
        },
        {
          "internalType": "bytes32",
          "name": "sigR",
          "type": "bytes32"
        },
        {
          "internalType": "bytes32",
          "name": "sigS",
          "type": "bytes32"
        },
        {
          "internalType": "uint8",
          "name": "sigV",
          "type": "uint8"
        }
      ],
      "name": "executeMetaTransaction",
      "outputs": [
        {
          "internalType": "bytes",
          "name": "",
          "type": "bytes"
        }
      ],
      "stateMutability": "nonpayable",
      "type": "function"
    },
    {
      "inputs": [
        {
          "internalType": "uint256",
          "name": "_id",
          "type": "uint256"
        }
      ],
      "name": "exists",
      "outputs": [
        {
          "internalType": "bool",
          "name": "",
          "type": "bool"
        }
      ],
      "stateMutability": "view",
      "type": "function"
    },
    {
      "inputs": [],
      "name": "getChainId",
      "outputs": [
        {
          "internalType": "uint256",
          "name": "",
          "type": "uint256"
        }
      ],
      "stateMutability": "view",
      "type": "function"
    },
    {
      "inputs": [
        {
          "internalType": "uint256",
          "name": "id",
          "type": "uint256"
        }
      ],
      "name": "getCreator",
      "outputs": [
        {
          "internalType": "address",
          "name": "sender",
          "type": "address"
        }
      ],
      "stateMutability": "view",
      "type": "function"
    },
    {
      "inputs": [],
      "name": "getDomainSeperator",
      "outputs": [
        {
          "internalType": "bytes32",
          "name": "",
          "type": "bytes32"
        }
      ],
      "stateMutability": "view",
      "type": "function"
    },
    {
      "inputs": [
        {
          "internalType": "uint256",
          "name": "_id",
          "type": "uint256"
        }
      ],
      "name": "getMaxSupplyToken",
      "outputs": [
        {
          "internalType": "uint256",
          "name": "",
          "type": "uint256"
        }
      ],
      "stateMutability": "view",
      "type": "function"
    },
    {
      "inputs": [
        {
          "internalType": "address",
          "name": "user",
          "type": "address"
        }
      ],
      "name": "getNonce",
      "outputs": [
        {
          "internalType": "uint256",
          "name": "nonce",
          "type": "uint256"
        }
      ],
      "stateMutability": "view",
      "type": "function"
    },
    {
      "inputs": [
        {
          "internalType": "uint256",
          "name": "_id",
          "type": "uint256"
        }
      ],
      "name": "getPriceToken",
      "outputs": [
        {
          "internalType": "uint256",
          "name": "",
          "type": "uint256"
        }
      ],
      "stateMutability": "view",
      "type": "function"
    },
    {
      "inputs": [
        {
          "internalType": "bytes32",
          "name": "role",
          "type": "bytes32"
        }
      ],
      "name": "getRoleAdmin",
      "outputs": [
        {
          "internalType": "bytes32",
          "name": "",
          "type": "bytes32"
        }
      ],
      "stateMutability": "view",
      "type": "function"
    },
    {
      "inputs": [
        {
          "internalType": "bytes32",
          "name": "role",
          "type": "bytes32"
        },
        {
          "internalType": "uint256",
          "name": "index",
          "type": "uint256"
        }
      ],
      "name": "getRoleMember",
      "outputs": [
        {
          "internalType": "address",
          "name": "",
          "type": "address"
        }
      ],
      "stateMutability": "view",
      "type": "function"
    },
    {
      "inputs": [
        {
          "internalType": "bytes32",
          "name": "role",
          "type": "bytes32"
        }
      ],
      "name": "getRoleMemberCount",
      "outputs": [
        {
          "internalType": "uint256",
          "name": "",
          "type": "uint256"
        }
      ],
      "stateMutability": "view",
      "type": "function"
    },
    {
      "inputs": [
        {
          "internalType": "bytes32",
          "name": "role",
          "type": "bytes32"
        },
        {
          "internalType": "address",
          "name": "account",
          "type": "address"
        }
      ],
      "name": "grantRole",
      "outputs": [],
      "stateMutability": "nonpayable",
      "type": "function"
    },
    {
      "inputs": [
        {
          "internalType": "bytes32",
          "name": "role",
          "type": "bytes32"
        },
        {
          "internalType": "address",
          "name": "account",
          "type": "address"
        }
      ],
      "name": "hasRole",
      "outputs": [
        {
          "internalType": "bool",
          "name": "",
          "type": "bool"
        }
      ],
      "stateMutability": "view",
      "type": "function"
    },
    {
      "inputs": [
        {
          "internalType": "address",
          "name": "_owner",
          "type": "address"
        },
        {
          "internalType": "address",
          "name": "_operator",
          "type": "address"
        }
      ],
      "name": "isApprovedForAll",
      "outputs": [
        {
          "internalType": "bool",
          "name": "isOperator",
          "type": "bool"
        }
      ],
      "stateMutability": "view",
      "type": "function"
    },
    {
      "inputs": [
        {
          "internalType": "uint256",
          "name": "",
          "type": "uint256"
        }
      ],
      "name": "max_supply_tokens",
      "outputs": [
        {
          "internalType": "uint256",
          "name": "",
          "type": "uint256"
        }
      ],
      "stateMutability": "view",
      "type": "function"
    },
    {
      "inputs": [
        {
          "internalType": "address",
          "name": "_to",
          "type": "address"
        },
        {
          "internalType": "uint256",
          "name": "_id",
          "type": "uint256"
        },
        {
          "internalType": "uint256",
          "name": "_quantity",
          "type": "uint256"
        },
        {
          "internalType": "bytes",
          "name": "_data",
          "type": "bytes"
        }
      ],
      "name": "mint",
      "outputs": [],
      "stateMutability": "nonpayable",
      "type": "function"
    },
    {
      "inputs": [
        {
          "internalType": "address",
          "name": "to",
          "type": "address"
        },
        {
          "internalType": "uint256[]",
          "name": "ids",
          "type": "uint256[]"
        },
        {
          "internalType": "uint256[]",
          "name": "amounts",
          "type": "uint256[]"
        },
        {
          "internalType": "bytes",
          "name": "data",
          "type": "bytes"
        }
      ],
      "name": "mintBatch",
      "outputs": [],
      "stateMutability": "nonpayable",
      "type": "function"
    },
    {
      "inputs": [],
      "name": "name",
      "outputs": [
        {
          "internalType": "string",
          "name": "",
          "type": "string"
        }
      ],
      "stateMutability": "view",
      "type": "function"
    },
    {
      "inputs": [],
      "name": "newItemId",
      "outputs": [
        {
          "internalType": "uint256",
          "name": "",
          "type": "uint256"
        }
      ],
      "stateMutability": "view",
      "type": "function"
    },
    {
      "inputs": [],
      "name": "operator",
      "outputs": [
        {
          "internalType": "address",
          "name": "",
          "type": "address"
        }
      ],
      "stateMutability": "view",
      "type": "function"
    },
    {
      "inputs": [],
      "name": "pause",
      "outputs": [],
      "stateMutability": "nonpayable",
      "type": "function"
    },
    {
      "inputs": [],
      "name": "paused",
      "outputs": [
        {
          "internalType": "bool",
          "name": "",
          "type": "bool"
        }
      ],
      "stateMutability": "view",
      "type": "function"
    },
    {
      "inputs": [
        {
          "internalType": "uint256",
          "name": "",
          "type": "uint256"
        }
      ],
      "name": "price_tokens",
      "outputs": [
        {
          "internalType": "uint256",
          "name": "",
          "type": "uint256"
        }
      ],
      "stateMutability": "view",
      "type": "function"
    },
    {
      "inputs": [],
      "name": "proxyRegistryAddress",
      "outputs": [
        {
          "internalType": "address",
          "name": "",
          "type": "address"
        }
      ],
      "stateMutability": "view",
      "type": "function"
    },
    {
      "inputs": [
        {
          "internalType": "bytes32",
          "name": "role",
          "type": "bytes32"
        },
        {
          "internalType": "address",
          "name": "account",
          "type": "address"
        }
      ],
      "name": "renounceRole",
      "outputs": [],
      "stateMutability": "nonpayable",
      "type": "function"
    },
    {
      "inputs": [
        {
          "internalType": "bytes32",
          "name": "role",
          "type": "bytes32"
        },
        {
          "internalType": "address",
          "name": "account",
          "type": "address"
        }
      ],
      "name": "revokeRole",
      "outputs": [],
      "stateMutability": "nonpayable",
      "type": "function"
    },
    {
      "inputs": [
        {
          "internalType": "uint256",
          "name": "",
          "type": "uint256"
        }
      ],
      "name": "royalties",
      "outputs": [
        {
          "internalType": "address",
          "name": "recipient",
          "type": "address"
        },
        {
          "internalType": "uint24",
          "name": "amount",
          "type": "uint24"
        },
        {
          "internalType": "bool",
          "name": "isValue",
          "type": "bool"
        }
      ],
      "stateMutability": "view",
      "type": "function"
    },
    {
      "inputs": [
        {
          "internalType": "uint256",
          "name": "_tokenId",
          "type": "uint256"
        },
        {
          "internalType": "uint256",
          "name": "_salePrice",
          "type": "uint256"
        }
      ],
      "name": "royaltyInfo",
      "outputs": [
        {
          "internalType": "address",
          "name": "receiver",
          "type": "address"
        },
        {
          "internalType": "uint256",
          "name": "royaltyAmount",
          "type": "uint256"
        }
      ],
      "stateMutability": "view",
      "type": "function"
    },
    {
      "inputs": [
        {
          "internalType": "address",
          "name": "from",
          "type": "address"
        },
        {
          "internalType": "address",
          "name": "to",
          "type": "address"
        },
        {
          "internalType": "uint256[]",
          "name": "ids",
          "type": "uint256[]"
        },
        {
          "internalType": "uint256[]",
          "name": "amounts",
          "type": "uint256[]"
        },
        {
          "internalType": "bytes",
          "name": "data",
          "type": "bytes"
        }
      ],
      "name": "safeBatchTransferFrom",
      "outputs": [],
      "stateMutability": "nonpayable",
      "type": "function"
    },
    {
      "inputs": [
        {
          "internalType": "address",
          "name": "from",
          "type": "address"
        },
        {
          "internalType": "address",
          "name": "to",
          "type": "address"
        },
        {
          "internalType": "uint256",
          "name": "id",
          "type": "uint256"
        },
        {
          "internalType": "uint256",
          "name": "amount",
          "type": "uint256"
        },
        {
          "internalType": "bytes",
          "name": "data",
          "type": "bytes"
        }
      ],
      "name": "safeTransferFrom",
      "outputs": [],
      "stateMutability": "nonpayable",
      "type": "function"
    },
    {
      "inputs": [
        {
          "internalType": "address",
          "name": "operator",
          "type": "address"
        },
        {
          "internalType": "bool",
          "name": "approved",
          "type": "bool"
        }
      ],
      "name": "setApprovalForAll",
      "outputs": [],
      "stateMutability": "nonpayable",
      "type": "function"
    },
    {
      "inputs": [
        {
          "internalType": "address",
          "name": "_to",
          "type": "address"
        },
        {
          "internalType": "uint256[]",
          "name": "_ids",
          "type": "uint256[]"
        }
      ],
      "name": "setCreator",
      "outputs": [],
      "stateMutability": "nonpayable",
      "type": "function"
    },
    {
      "inputs": [
        {
          "internalType": "uint256",
          "name": "_tokenId",
          "type": "uint256"
        },
        {
          "internalType": "string",
          "name": "_newURI",
          "type": "string"
        }
      ],
      "name": "setCustomURI",
      "outputs": [],
      "stateMutability": "nonpayable",
      "type": "function"
    },
    {
      "inputs": [
        {
          "internalType": "address",
          "name": "_proxyRegistryAddress",
          "type": "address"
        }
      ],
      "name": "setProxyRegistryAddress",
      "outputs": [],
      "stateMutability": "nonpayable",
      "type": "function"
    },
    {
      "inputs": [
        {
          "internalType": "uint256",
          "name": "_tokenId",
          "type": "uint256"
        },
        {
          "internalType": "address",
          "name": "_recipient",
          "type": "address"
        },
        {
          "internalType": "uint256",
          "name": "_value",
          "type": "uint256"
        }
      ],
      "name": "setTokenRoyalty",
      "outputs": [],
      "stateMutability": "nonpayable",
      "type": "function"
    },
    {
      "inputs": [
        {
          "internalType": "string",
          "name": "_newURI",
          "type": "string"
        }
      ],
      "name": "setURI",
      "outputs": [],
      "stateMutability": "nonpayable",
      "type": "function"
    },
    {
      "inputs": [
        {
          "internalType": "bytes4",
          "name": "interfaceId",
          "type": "bytes4"
        }
      ],
      "name": "supportsInterface",
      "outputs": [
        {
          "internalType": "bool",
          "name": "",
          "type": "bool"
        }
      ],
      "stateMutability": "view",
      "type": "function"
    },
    {
      "inputs": [],
      "name": "symbol",
      "outputs": [
        {
          "internalType": "string",
          "name": "",
          "type": "string"
        }
      ],
      "stateMutability": "view",
      "type": "function"
    },
    {
      "inputs": [
        {
          "internalType": "uint256",
          "name": "",
          "type": "uint256"
        }
      ],
      "name": "tokenSupply",
      "outputs": [
        {
          "internalType": "uint256",
          "name": "",
          "type": "uint256"
        }
      ],
      "stateMutability": "view",
      "type": "function"
    },
    {
      "inputs": [
        {
          "internalType": "uint256",
          "name": "_id",
          "type": "uint256"
        }
      ],
      "name": "totalSupply",
      "outputs": [
        {
          "internalType": "uint256",
          "name": "",
          "type": "uint256"
        }
      ],
      "stateMutability": "view",
      "type": "function"
    },
    {
      "inputs": [],
      "name": "unpause",
      "outputs": [],
      "stateMutability": "nonpayable",
      "type": "function"
    },
    {
      "inputs": [
        {
          "internalType": "uint256",
          "name": "_id",
          "type": "uint256"
        }
      ],
      "name": "uri",
      "outputs": [
        {
          "internalType": "string",
          "name": "",
          "type": "string"
        }
      ],
      "stateMutability": "view",
      "type": "function"
    },
    {
      "inputs": [
        {
          "internalType": "address",
          "name": "_to",
          "type": "address"
        },
        {
          "internalType": "uint256",
          "name": "_id",
          "type": "uint256"
        },
        {
          "internalType": "uint256",
          "name": "_quantity",
          "type": "uint256"
        },
        {
          "internalType": "bytes",
          "name": "_data",
          "type": "bytes"
        }
      ],
      "name": "userMint",
      "outputs": [],
      "stateMutability": "payable",
      "type": "function"
    },
    {
      "inputs": [
        {
          "internalType": "address",
          "name": "_to",
          "type": "address"
        }
      ],
      "name": "withdraw",
      "outputs": [],
      "stateMutability": "nonpayable",
      "type": "function"
    }
  ],
  "bytecode": "0x60806040526005805461ff00191690553480156200001c57600080fd5b5060405162006180380380620061808339810160408190526200003f9162000bd8565b6040518060400160405280600c81526020016b526f7665204f626a6563747360a01b81525060405180604001604052806003815260200162524f7360e81b8152506040518060200160405280600081525084848280620000a5816200036360201b60201c565b506005805460ff19169055620000c66000620000c06200037c565b62000398565b620000e460008051602062006160833981519152620000c06200037c565b6200010260008051602062006140833981519152620000c06200037c565b50600160085584516200011d90600f90602088019062000b15565b5083516200013390601090602087019062000b15565b50600b80546001600160a01b0319169055600f8054620001e49190620001599062000c10565b80601f0160208091040260200160405190810160405280929190818152602001828054620001879062000c10565b8015620001d85780601f10620001ac57610100808354040283529160200191620001d8565b820191906000526020600020905b815481529060010190602001808311620001ba57829003601f168201915b5050620003a492505050565b600980546001600160a01b0319166001600160a01b038416908117909155620002109060009062000410565b600a80546001600160a01b0319166001600160a01b0383169081179091556200025b907f97667070c54ef182b0f5858b034beac1b6f3089aa2d3188bb1e8929f4fa9b9299062000410565b600a5462000294907f828634d95e775031b9ff576b159a8509d3053581a8c9c4d7d86899e0afcd882f906001600160a01b031662000410565b600a54620002bc9060008051602062006160833981519152906001600160a01b031662000410565b600a54620002e49060008051602062006140833981519152906001600160a01b031662000410565b620002ee6200037c565b6009546001600160a01b0390811691161462000356576200032860008051602062006160833981519152620003226200037c565b62000448565b6200034660008051602062006140833981519152620003226200037c565b620003566000620003226200037c565b5050505050505062000df7565b80516200037890600490602084019062000b15565b5050565b6000620003936200047560201b62002c0a1760201c565b905090565b620003788282620004d4565b600554610100900460ff1615620003f35760405162461bcd60e51b815260206004820152600e60248201526d185b1c9958591e481a5b9a5d195960921b60448201526064015b60405180910390fd5b620003fe8162000512565b506005805461ff001916610100179055565b6000828152602081905260409020600101546200043781620004316200037c565b620005b4565b620004438383620004d4565b505050565b6000828152602081905260409020600101546200046981620004316200037c565b6200044383836200064f565b600033301415620004ce57600080368080601f0160208091040260200160405190810160405280939291908181526020018383808284376000920191909152505050503601516001600160a01b03169150620004d19050565b50335b90565b620004eb82826200068d60201b62002c671760201c565b60008281526001602090815260409091206200044391839062002cec6200072f821b17901c565b6040518060800160405280604f8152602001620060f1604f9139805160209182012082519282019290922060408051808201825260018152603160f81b90840152805180840194909452838101919091527fc89efdaa54c0f20c7adf612882df0950f5a951637e0307cdcb4c672f298b8bc660608401523060808401524660a0808501919091528151808503909101815260c090930190528151910120600655565b6000828152602081815260408083206001600160a01b038516845290915290205460ff166200037857620005fe816001600160a01b031660146200074f60201b62002d011760201c565b6200061483602062002d016200074f821b17811c565b6040516020016200062792919062000c80565b60408051601f198184030181529082905262461bcd60e51b8252620003ea9160040162000cf9565b6200066682826200090860201b62002e9c1760201c565b60008281526001602090815260409091206200044391839062002f1f620009a8821b17901c565b6000828152602081815260408083206001600160a01b038516845290915290205460ff1662000378576000828152602081815260408083206001600160a01b03851684529091529020805460ff19166001179055620006eb6200037c565b6001600160a01b0316816001600160a01b0316837f2f8788117e7eff1d82e926ec794901d17c78024a50270940304540a733656f0d60405160405180910390a45050565b600062000746836001600160a01b038416620009bf565b90505b92915050565b606060006200076083600262000d44565b6200076d90600262000d66565b6001600160401b0381111562000787576200078762000d81565b6040519080825280601f01601f191660200182016040528015620007b2576020820181803683370190505b509050600360fc1b81600081518110620007d057620007d062000d97565b60200101906001600160f81b031916908160001a905350600f60fb1b8160018151811062000802576200080262000d97565b60200101906001600160f81b031916908160001a90535060006200082884600262000d44565b6200083590600162000d66565b90505b6001811115620008b7576f181899199a1a9b1b9c1cb0b131b232b360811b85600f16601081106200086d576200086d62000d97565b1a60f81b82828151811062000886576200088662000d97565b60200101906001600160f81b031916908160001a90535060049490941c93620008af8162000dad565b905062000838565b508315620007465760405162461bcd60e51b815260206004820181905260248201527f537472696e67733a20686578206c656e67746820696e73756666696369656e746044820152606401620003ea565b6000828152602081815260408083206001600160a01b038516845290915290205460ff161562000378576000828152602081815260408083206001600160a01b03851684529091529020805460ff19169055620009646200037c565b6001600160a01b0316816001600160a01b0316837ff6391f5c32d9c69d2a47ea670b442974b53935d1edc7fd64eb21e047a839171b60405160405180910390a45050565b600062000746836001600160a01b03841662000a11565b600081815260018301602052604081205462000a085750815460018181018455600084815260208082209093018490558454848252828601909352604090209190915562000749565b50600062000749565b6000818152600183016020526040812054801562000b0a57600062000a3860018362000dc7565b855490915060009062000a4e9060019062000dc7565b905081811462000aba57600086600001828154811062000a725762000a7262000d97565b906000526020600020015490508087600001848154811062000a985762000a9862000d97565b6000918252602080832090910192909255918252600188019052604090208390555b855486908062000ace5762000ace62000de1565b60019003818190600052602060002001600090559055856001016000868152602001908152602001600020600090556001935050505062000749565b600091505062000749565b82805462000b239062000c10565b90600052602060002090601f01602090048101928262000b47576000855562000b92565b82601f1062000b6257805160ff191683800117855562000b92565b8280016001018555821562000b92579182015b8281111562000b9257825182559160200191906001019062000b75565b5062000ba092915062000ba4565b5090565b5b8082111562000ba0576000815560010162000ba5565b80516001600160a01b038116811462000bd357600080fd5b919050565b6000806040838503121562000bec57600080fd5b62000bf78362000bbb565b915062000c076020840162000bbb565b90509250929050565b600181811c9082168062000c2557607f821691505b6020821081141562000c4757634e487b7160e01b600052602260045260246000fd5b50919050565b60005b8381101562000c6a57818101518382015260200162000c50565b8381111562000c7a576000848401525b50505050565b7f416363657373436f6e74726f6c3a206163636f756e742000000000000000000081526000835162000cba81601785016020880162000c4d565b7001034b99036b4b9b9b4b733903937b6329607d1b601791840191820152835162000ced81602884016020880162000c4d565b01602801949350505050565b602081526000825180602084015262000d1a81604085016020870162000c4d565b601f01601f19169190910160400192915050565b634e487b7160e01b600052601160045260246000fd5b600081600019048311821515161562000d615762000d6162000d2e565b500290565b6000821982111562000d7c5762000d7c62000d2e565b500190565b634e487b7160e01b600052604160045260246000fd5b634e487b7160e01b600052603260045260246000fd5b60008162000dbf5762000dbf62000d2e565b506000190190565b60008282101562000ddc5762000ddc62000d2e565b500390565b634e487b7160e01b600052603160045260246000fd5b6152ea8062000e076000396000f3fe6080604052600436106103aa5760003560e01c8063731133e9116101e7578063bd85b0391161010d578063d547741f116100a0578063f242432a1161006f578063f242432a14610c04578063f5298aca14610c24578063f5b541a614610c44578063f851a44014610c6657600080fd5b8063d547741f14610b82578063e031742114610ba2578063e63ab1e914610bc2578063e985e9c514610be457600080fd5b8063d26ea6c0116100dc578063d26ea6c014610aea578063d2a6b51a14610b0a578063d48e638a14610b2a578063d539139314610b6057600080fd5b8063bd85b03914610a47578063ca15c87314610a74578063cd53d08e14610a94578063cd7c032614610aca57600080fd5b806395d89b4111610185578063a22cb46511610154578063a22cb465146109c7578063b085451c146109e7578063b48ab8b614610a14578063b6ccd0e014610a3457600080fd5b806395d89b41146109505780639713c8071461096557806399213a2814610985578063a217fddf146109b257600080fd5b80638aeda25a116101c15780638aeda25a146108ce5780638f283970146108f05780639010d07c1461091057806391d148541461093057600080fd5b8063731133e91461081f5780637f77f5741461083f5780638456cb59146108b957600080fd5b80632693ebf2116102d75780633f4ba83a1161026a578063570ca73511610239578063570ca735146107825780635c975abb146107ba5780636b20c454146107d25780636cb07567146107f257600080fd5b80633f4ba83a146107005780634e1273f4146107155780634f558e791461074257806351cff8d91461076257600080fd5b80632f2ff15d116102a65780632f2ff15d1461068d5780633408e470146106ad57806336568abe146106c05780633adf80b4146106e057600080fd5b80632693ebf2146105cb5780632a55205a146105f85780632d0335ab146106375780632eb2c2d61461066d57600080fd5b80630c53c51c1161034f5780631df284e91161031e5780631df284e9146105465780631f7fdffa1461056657806320379ee514610586578063248a9ca31461059b57600080fd5b80630c53c51c146104ac5780630e89341c146104cc5780630f7e5970146104ec578063177ed0f31461051957600080fd5b806301ffc9a71161038b57806301ffc9a71461041857806302fe53051461044857806306394c9b1461046a57806306fdde031461048a57600080fd5b80620ed58f146103af5780621f17bb146103d8578062fdd58e146103f8575b600080fd5b3480156103bb57600080fd5b506103c560155481565b6040519081526020015b60405180910390f35b3480156103e457600080fd5b506103c56103f33660046142b7565b610c86565b34801561040457600080fd5b506103c5610413366004614321565b610cd8565b34801561042457600080fd5b50610438610433366004614363565b610d74565b60405190151581526020016103cf565b34801561045457600080fd5b50610468610463366004614380565b610d99565b005b34801561047657600080fd5b506104686104853660046143bc565b610e4b565b34801561049657600080fd5b5061049f611066565b6040516103cf9190614431565b3480156104b857600080fd5b5061049f6104c7366004614444565b6110f4565b3480156104d857600080fd5b5061049f6104e73660046144c1565b6112c7565b3480156104f857600080fd5b5061049f604051806040016040528060018152602001603160f81b81525081565b34801561052557600080fd5b506103c56105343660046144c1565b60009081526011602052604090205490565b34801561055257600080fd5b506103c56105613660046144da565b61147a565b34801561057257600080fd5b5061046861058136600461460a565b6116de565b34801561059257600080fd5b506006546103c5565b3480156105a757600080fd5b506103c56105b63660046144c1565b60009081526020819052604090206001015490565b3480156105d757600080fd5b506103c56105e63660046144c1565b600d6020526000908152604090205481565b34801561060457600080fd5b506106186106133660046146a4565b61177c565b604080516001600160a01b0390931683526020830191909152016103cf565b34801561064357600080fd5b506103c56106523660046143bc565b6001600160a01b031660009081526007602052604090205490565b34801561067957600080fd5b506104686106883660046146c6565b61183e565b34801561069957600080fd5b506104686106a8366004614773565b6118e7565b3480156106b957600080fd5b50466103c5565b3480156106cc57600080fd5b506104686106db366004614773565b611919565b3480156106ec57600080fd5b506104686106fb3660046147a3565b6119a7565b34801561070c57600080fd5b50610468611a7c565b34801561072157600080fd5b506107356107303660046147df565b611b12565b6040516103cf91906148dc565b34801561074e57600080fd5b5061043861075d3660046144c1565b611c3b565b34801561076e57600080fd5b5061046861077d3660046143bc565b611c5a565b34801561078e57600080fd5b50600a546107a2906001600160a01b031681565b6040516001600160a01b0390911681526020016103cf565b3480156107c657600080fd5b5060055460ff16610438565b3480156107de57600080fd5b506104686107ed3660046148ef565b611de7565b3480156107fe57600080fd5b506103c561080d3660046144c1565b60116020526000908152604090205481565b34801561082b57600080fd5b5061046861083a366004614964565b611e3c565b34801561084b57600080fd5b5061088e61085a3660046144c1565b6013602052600090815260409020546001600160a01b03811690600160a01b810462ffffff1690600160b81b900460ff1683565b604080516001600160a01b03909416845262ffffff90921660208401521515908201526060016103cf565b3480156108c557600080fd5b50610468612005565b3480156108da57600080fd5b506103c560008051602061523583398151915281565b3480156108fc57600080fd5b5061046861090b3660046143bc565b612099565b34801561091c57600080fd5b506107a261092b3660046146a4565b6121db565b34801561093c57600080fd5b5061043861094b366004614773565b6121f3565b34801561095c57600080fd5b5061049f61221c565b34801561097157600080fd5b506104686109803660046149ba565b612229565b34801561099157600080fd5b506103c56109a03660046144c1565b60126020526000908152604090205481565b3480156109be57600080fd5b506103c5600081565b3480156109d357600080fd5b506104686109e23660046149f2565b6123a3565b3480156109f357600080fd5b506103c5610a023660046144c1565b60009081526012602052604090205490565b348015610a2057600080fd5b50610468610a2f36600461460a565b6123b5565b610468610a42366004614964565b61255a565b348015610a5357600080fd5b506103c5610a623660046144c1565b6000908152600d602052604090205490565b348015610a8057600080fd5b506103c5610a8f3660046144c1565b61273c565b348015610aa057600080fd5b506107a2610aaf3660046144c1565b600c602052600090815260409020546001600160a01b031681565b348015610ad657600080fd5b50600b546107a2906001600160a01b031681565b348015610af657600080fd5b50610468610b053660046143bc565b612753565b348015610b1657600080fd5b50610468610b25366004614a25565b61286b565b348015610b3657600080fd5b506107a2610b453660046144c1565b6000908152600c60205260409020546001600160a01b031690565b348015610b6c57600080fd5b506103c560008051602061529583398151915281565b348015610b8e57600080fd5b50610468610b9d366004614773565b61299b565b348015610bae57600080fd5b50610468610bbd3660046146a4565b6129c3565b348015610bce57600080fd5b506103c560008051602061527583398151915281565b348015610bf057600080fd5b50610438610bff366004614a6a565b612a8e565b348015610c1057600080fd5b50610468610c1f366004614a98565b612b5e565b348015610c3057600080fd5b50610468610c3f366004614b00565b612bb5565b348015610c5057600080fd5b506103c560008051602061525583398151915281565b348015610c7257600080fd5b506009546107a2906001600160a01b031681565b6000610c96601480546001019055565b601454601581905550610cca86601554878760405180604001604052806002815260200161060f60f31b815250888861147a565b505060155495945050505050565b60006001600160a01b038316610d495760405162461bcd60e51b815260206004820152602b60248201527f455243313135353a2062616c616e636520717565727920666f7220746865207a60448201526a65726f206164647265737360a81b60648201526084015b60405180910390fd5b5060008181526002602090815260408083206001600160a01b03861684529091529020545b92915050565b60006001600160e01b03198216636a4731c560e11b1480610d6e5750610d6e82612f34565b600a546001600160a01b0316610dad612f3f565b6001600160a01b031614610dd35760405162461bcd60e51b8152600401610d4090614b35565b610ded60008051602061525583398151915261094b612f3f565b610e095760405162461bcd60e51b8152600401610d4090614b35565b610e2360008051602061523583398151915261094b612f3f565b610e3f5760405162461bcd60e51b8152600401610d4090614b5c565b610e4881612f4e565b50565b6009546001600160a01b0316610e5f612f3f565b6001600160a01b031614610e855760405162461bcd60e51b8152600401610d4090614b82565b610e92600061094b612f3f565b610eae5760405162461bcd60e51b8152600401610d4090614b82565b6009546001600160a01b0316610ec2612f3f565b6001600160a01b031614610ee85760405162461bcd60e51b8152600401610d4090614ba6565b610ef5600061094b612f3f565b610f115760405162461bcd60e51b8152600401610d4090614ba6565b600a80546001600160a01b038381166001600160a01b0319831681179093551690610f4b90600080516020615255833981519152906118e7565b600a54610f7090600080516020615235833981519152906001600160a01b03166118e7565b600a54610f9590600080516020615295833981519152906001600160a01b03166118e7565b600a54610fba90600080516020615275833981519152906001600160a01b03166118e7565b610fd26000805160206152558339815191528261299b565b610fea6000805160206152358339815191528261299b565b6110026000805160206152958339815191528261299b565b61101a6000805160206152758339815191528261299b565b600a54604080516001600160a01b03808516825290921660208301527fd58299b712891143e76310d5e664c4203c940a67db37cf856bdaa3c5c76a802c91015b60405180910390a15050565b600f805461107390614bc9565b80601f016020809104026020016040519081016040528092919081815260200182805461109f90614bc9565b80156110ec5780601f106110c1576101008083540402835291602001916110ec565b820191906000526020600020905b8154815290600101906020018083116110cf57829003601f168201915b505050505081565b60408051606081810183526001600160a01b038816600081815260076020908152908590205484528301529181018690526111328782878787612f61565b6111885760405162461bcd60e51b815260206004820152602160248201527f5369676e657220616e64207369676e617475726520646f206e6f74206d6174636044820152600d60fb1b6064820152608401610d40565b6001600160a01b0387166000908152600760205260409020546111ac906001614c14565b6001600160a01b0388166000908152600760205260409081902091909155517f5845892132946850460bff5a0083f71031bc5bf9aadcd40f1de79423eac9b10b906111fc90899033908a90614c2c565b60405180910390a1600080306001600160a01b0316888a604051602001611224929190614c61565b60408051601f198184030181529082905261123e91614c98565b6000604051808303816000865af19150503d806000811461127b576040519150601f19603f3d011682016040523d82523d6000602084013e611280565b606091505b5091509150816112bb5760405162461bcd60e51b8152600401610d409060208082526004908201526319985a5b60e21b604082015260600190565b98975050505050505050565b6000818152600c60205260409020546060906001600160a01b03166113225760405162461bcd60e51b81526020600482015260116024820152702727a722ac24a9aa22a72a2faa27a5a2a760791b6044820152606401610d40565b6000828152600e60205260408120805461133b90614bc9565b80601f016020809104026020016040519081016040528092919081815260200182805461136790614bc9565b80156113b45780601f10611389576101008083540402835291602001916113b4565b820191906000526020600020905b81548152906001019060200180831161139757829003601f168201915b50505050509050600081511115611464576000838152600e6020526040902080546113de90614bc9565b80601f016020809104026020016040519081016040528092919081815260200182805461140a90614bc9565b80156114575780601f1061142c57610100808354040283529160200191611457565b820191906000526020600020905b81548152906001019060200180831161143a57829003601f168201915b5050505050915050919050565b61146d8361302f565b9392505050565b50919050565b600a546000906001600160a01b0316611491612f3f565b6001600160a01b0316146114b75760405162461bcd60e51b8152600401610d4090614b35565b6114d160008051602061525583398151915261094b612f3f565b6114ed5760405162461bcd60e51b8152600401610d4090614b35565b61150760008051602061523583398151915261094b612f3f565b6115415760405162461bcd60e51b815260206004820152600b60248201526a2727aa2fa1a922a0aa27a960a91b6044820152606401610d40565b6000878152600c60205260409020546001600160a01b0316156115965760405162461bcd60e51b815260206004820152600d60248201526c1053149150511657d1561254d5609a1b6044820152606401610d40565b81156115bc57818611156115bc5760405162461bcd60e51b8152600401610d4090614cb4565b6115c4612f3f565b6000888152600c6020526040902080546001600160a01b0319166001600160a01b0392909216919091179055845115611650576000878152600e60209081526040909120865161161692880190614154565b50867f6bb7ff708619ba0610cba295a58592e0451dee2622938c8755667688daf3529b866040516116479190614431565b60405180910390a25b61165c888888876130c3565b6000878152600d6020908152604080832089905560118252808320869055601290915290819020839055600a5490517fdfd613b842aef92c704876cb5eb94df518752614cc459d562f47af89b9be9126916116ca918b918b918b918b916001600160a01b0390911690614cd7565b60405180910390a150949695505050505050565b6116f860008051602061529583398151915261094b612f3f565b61176a5760405162461bcd60e51b815260206004820152603860248201527f455243313135355072657365744d696e7465725061757365723a206d7573742060448201527f68617665206d696e74657220726f6c6520746f206d696e7400000000000000006064820152608401610d40565b611776848484846131a6565b50505050565b6000828152601360209081526040808320815160608101835290546001600160a01b0381168252600160a01b810462ffffff1693820193909352600160b81b90920460ff16158015918301919091528291906118005780516020820151909350612710906117ef9062ffffff1686614d1a565b6117f99190614d39565b9150611836565b6000858152600c60205260409020546001600160a01b03169250612710611829856101f4614d1a565b6118339190614d39565b91505b509250929050565b611846612f3f565b6001600160a01b0316856001600160a01b0316148061186c575061186c85610bff612f3f565b6118d35760405162461bcd60e51b815260206004820152603260248201527f455243313135353a207472616e736665722063616c6c6572206973206e6f74206044820152711bdddb995c881b9bdc88185c1c1c9bdd995960721b6064820152608401610d40565b6118e0858585858561330c565b5050505050565b60008281526020819052604090206001015461190a81611905612f3f565b6134c4565b6119148383613528565b505050565b611921612f3f565b6001600160a01b0316816001600160a01b0316146119995760405162461bcd60e51b815260206004820152602f60248201527f416363657373436f6e74726f6c3a2063616e206f6e6c792072656e6f756e636560448201526e103937b632b9903337b91039b2b63360891b6064820152608401610d40565b6119a3828261354a565b5050565b816119b0612f3f565b6000828152600c60205260409020546001600160a01b039081169116146119e95760405162461bcd60e51b8152600401610d4090614b5c565b611a0360008051602061523583398151915261094b612f3f565b611a1f5760405162461bcd60e51b8152600401610d4090614b5c565b6000838152600e602090815260409091208351611a3e92850190614154565b50827f6bb7ff708619ba0610cba295a58592e0451dee2622938c8755667688daf3529b83604051611a6f9190614431565b60405180910390a2505050565b611a9660008051602061527583398151915261094b612f3f565b611b085760405162461bcd60e51b815260206004820152603b60248201527f455243313135355072657365744d696e7465725061757365723a206d7573742060448201527f686176652070617573657220726f6c6520746f20756e706175736500000000006064820152608401610d40565b611b1061356c565b565b60608151835114611b775760405162461bcd60e51b815260206004820152602960248201527f455243313135353a206163636f756e747320616e6420696473206c656e677468604482015268040dad2e6dac2e8c6d60bb1b6064820152608401610d40565b600083516001600160401b03811115611b9257611b92614202565b604051908082528060200260200182016040528015611bbb578160200160208202803683370190505b50905060005b8451811015611c3357611c06858281518110611bdf57611bdf614d5b565b6020026020010151858381518110611bf957611bf9614d5b565b6020026020010151610cd8565b828281518110611c1857611c18614d5b565b6020908102919091010152611c2c81614d71565b9050611bc1565b509392505050565b6000818152600c60205260408120546001600160a01b03161515610d6e565b60026008541415611cad5760405162461bcd60e51b815260206004820152601f60248201527f5265656e7472616e637947756172643a207265656e7472616e742063616c6c006044820152606401610d40565b60026008556009546001600160a01b0316611cc6612f3f565b6001600160a01b031614611cec5760405162461bcd60e51b8152600401610d4090614b82565b611cf9600061094b612f3f565b611d155760405162461bcd60e51b8152600401610d4090614b82565b60004711611d525760405162461bcd60e51b815260206004820152600a60248201526909c9ea8be8a9c9eaa8e960b31b6044820152606401610d40565b6000816001600160a01b03164760405160006040518083038185875af1925050503d8060008114611d9f576040519150601f19603f3d011682016040523d82523d6000602084013e611da4565b606091505b5050905080611dde5760405162461bcd60e51b8152600401610d40906020808252600490820152631190525360e21b604082015260600190565b50506001600855565b611def612f3f565b6001600160a01b0316836001600160a01b03161480611e155750611e1583610bff612f3f565b611e315760405162461bcd60e51b8152600401610d4090614d8c565b611914838383613605565b82611e45612f3f565b6000828152600c60205260409020546001600160a01b03908116911614611e7e5760405162461bcd60e51b8152600401610d4090614b5c565b6000848152600c60205260409020546001600160a01b0316611ed35760405162461bcd60e51b815260206004820152600e60248201526d2727a722ac24a9aa2faa27a5a2a760911b6044820152606401610d40565b611eed60008051602061529583398151915261094b612f3f565b611f265760405162461bcd60e51b815260206004820152600a6024820152692727aa2fa6a4a72a22a960b11b6044820152606401610d40565b60008481526012602052604090205415611f7d57600084815260126020908152604080832054600d90925290912054611f5f908561379d565b1115611f7d5760405162461bcd60e51b8152600401610d4090614cb4565b611f89858585856130c3565b6000848152600d6020526040902054611fa2908461379d565b6000858152600d60209081526040918290209290925580516001600160a01b038816815291820186905281018490527f8069ef4945469d029cc32e222031bccdc99b2eaaf4ee374cd268012f7ddee9079060600160405180910390a15050505050565b61201f60008051602061527583398151915261094b612f3f565b6120915760405162461bcd60e51b815260206004820152603960248201527f455243313135355072657365744d696e7465725061757365723a206d7573742060448201527f686176652070617573657220726f6c6520746f207061757365000000000000006064820152608401610d40565b611b106137a9565b6009546001600160a01b03166120ad612f3f565b6001600160a01b0316146120d35760405162461bcd60e51b8152600401610d4090614b82565b6120e0600061094b612f3f565b6120fc5760405162461bcd60e51b8152600401610d4090614b82565b6009546001600160a01b0316612110612f3f565b6001600160a01b0316146121365760405162461bcd60e51b8152600401610d4090614ba6565b612143600061094b612f3f565b61215f5760405162461bcd60e51b8152600401610d4090614ba6565b600980546001600160a01b038381166001600160a01b031983168117909355169061218c906000906118e7565b61219760008261299b565b600954604080516001600160a01b03808516825290921660208301527f7e644d79422f17c01e4894b5f4f588d331ebfa28653d42ae832dc59e38c9798f910161105a565b600082815260016020526040812061146d9083613825565b6000918252602082815260408084206001600160a01b0393909316845291905290205460ff1690565b6010805461107390614bc9565b600a546001600160a01b031661223d612f3f565b6001600160a01b0316146122635760405162461bcd60e51b8152600401610d4090614b35565b61227d60008051602061525583398151915261094b612f3f565b6122995760405162461bcd60e51b8152600401610d4090614b35565b6122b360008051602061523583398151915261094b612f3f565b6122ed5760405162461bcd60e51b815260206004820152600b60248201526a2727aa2fa1a922a0aa27a960a91b6044820152606401610d40565b61271081111561232a5760405162461bcd60e51b81526020600482015260086024820152670a89e9ebe90928e960c31b6044820152606401610d40565b604080516060810182526001600160a01b03938416815262ffffff928316602080830191825260018385019081526000978852601390915292909520905181549551925194166001600160b81b031990951694909417600160a01b91909216021760ff60b81b1916600160b81b91151591909102179055565b6119a36123ae612f3f565b8383613831565b600a546001600160a01b03166123c9612f3f565b6001600160a01b0316146123ef5760405162461bcd60e51b8152600401610d4090614b35565b61240960008051602061525583398151915261094b612f3f565b6124255760405162461bcd60e51b8152600401610d4090614b35565b61243f60008051602061529583398151915261094b612f3f565b6124785760405162461bcd60e51b815260206004820152600a6024820152692727aa2fa6a4a72a22a960b11b6044820152606401610d40565b60005b835181101561254d57600084828151811061249857612498614d5b565b602002602001015190506124aa612f3f565b6000828152600c60205260409020546001600160a01b039081169116146124e35760405162461bcd60e51b8152600401610d4090614b5c565b60008483815181106124f7576124f7614d5b565b6020026020010151905061252781600d60008581526020019081526020016000205461379d90919063ffffffff16565b6000928352600d602052604090922091909155508061254581614d71565b91505061247b565b50611776848484846131a6565b6000838152600c60205260409020546001600160a01b03166125af5760405162461bcd60e51b815260206004820152600e60248201526d2727a722ac24a9aa2faa27a5a2a760911b6044820152606401610d40565b6000838152601160205260409020541561261e576000838152601160205260409020546125dd908390614d1a565b3410156126195760405162461bcd60e51b815260206004820152600a6024820152694d4953535f505249434560b01b6044820152606401610d40565b61265e565b600182111561265e5760405162461bcd60e51b815260206004820152600c60248201526b4d41585f5155414e5449545960a01b6044820152606401610d40565b600083815260126020526040902054156126b557600083815260126020908152604080832054600d90925290912054612697908461379d565b11156126b55760405162461bcd60e51b8152600401610d4090614cb4565b6126c1848484846130c3565b6000838152600d60205260409020546126da908361379d565b6000848152600d60209081526040918290209290925580516001600160a01b038716815291820185905281018390527f8069ef4945469d029cc32e222031bccdc99b2eaaf4ee374cd268012f7ddee9079060600160405180910390a150505050565b6000818152600160205260408120610d6e90613912565b600a546001600160a01b0316612767612f3f565b6001600160a01b03161461278d5760405162461bcd60e51b8152600401610d4090614b35565b6127a760008051602061525583398151915261094b612f3f565b6127c35760405162461bcd60e51b8152600401610d4090614b35565b600b546001600160a01b03828116911614156128115760405162461bcd60e51b815260206004820152600d60248201526c141493d61657d2539590531251609a1b6044820152606401610d40565b600b80546001600160a01b038381166001600160a01b031983168117909355604080519190921680825260208201939093527ffc15895015d07bcb2ae0459d79c7bfb40d36feedb31f55cc34e3ef404c86c577910161105a565b600a546001600160a01b031661287f612f3f565b6001600160a01b0316146128a55760405162461bcd60e51b8152600401610d4090614b35565b6128bf60008051602061525583398151915261094b612f3f565b6128db5760405162461bcd60e51b8152600401610d4090614b35565b6001600160a01b0382166129245760405162461bcd60e51b815260206004820152601060248201526f24a72b20a624a22fa0a2222922a9a99760811b6044820152606401610d40565b61293c60008051602061523583398151915283613528565b61295460008051602061529583398151915283613528565b60005b815181101561191457600082828151811061297457612974614d5b565b60200260200101519050612988848261391c565b508061299381614d71565b915050612957565b6000828152602081905260409020600101546129b981611905612f3f565b611914838361354a565b600a546001600160a01b03166129d7612f3f565b6001600160a01b0316146129fd5760405162461bcd60e51b8152600401610d4090614b35565b612a1760008051602061525583398151915261094b612f3f565b612a335760405162461bcd60e51b8152600401610d4090614b35565b60008281526011602090815260409182902080549084905582518581529182018190529181018390527f2bce37c591c5b0d254c3056688b080a088f160fff82b6e79f456c8a20d5570f69060600160405180910390a1505050565b600b546000906001600160a01b031615612b3057600b5460405163c455279160e01b81526001600160a01b03858116600483015291821691841690829063c455279190602401602060405180830381865afa158015612af1573d6000803e3d6000fd5b505050506040513d601f19601f82011682018060405250810190612b159190614dd5565b6001600160a01b03161415612b2e576001915050610d6e565b505b6001600160a01b0380841660009081526003602090815260408083209386168352929052205460ff1661146d565b612b66612f3f565b6001600160a01b0316856001600160a01b03161480612b8c5750612b8c85610bff612f3f565b612ba85760405162461bcd60e51b8152600401610d4090614d8c565b6118e0858585858561398d565b612bbd612f3f565b6001600160a01b0316836001600160a01b03161480612be35750612be383610bff612f3f565b612bff5760405162461bcd60e51b8152600401610d4090614d8c565b611914838383613ab9565b600033301415612c6157600080368080601f0160208091040260200160405190810160405280939291908181526020018383808284376000920191909152505050503601516001600160a01b03169150612c649050565b50335b90565b612c7182826121f3565b6119a3576000828152602081815260408083206001600160a01b03851684529091529020805460ff19166001179055612ca8612f3f565b6001600160a01b0316816001600160a01b0316837f2f8788117e7eff1d82e926ec794901d17c78024a50270940304540a733656f0d60405160405180910390a45050565b600061146d836001600160a01b038416613bc9565b60606000612d10836002614d1a565b612d1b906002614c14565b6001600160401b03811115612d3257612d32614202565b6040519080825280601f01601f191660200182016040528015612d5c576020820181803683370190505b509050600360fc1b81600081518110612d7757612d77614d5b565b60200101906001600160f81b031916908160001a905350600f60fb1b81600181518110612da657612da6614d5b565b60200101906001600160f81b031916908160001a9053506000612dca846002614d1a565b612dd5906001614c14565b90505b6001811115612e4d576f181899199a1a9b1b9c1cb0b131b232b360811b85600f1660108110612e0957612e09614d5b565b1a60f81b828281518110612e1f57612e1f614d5b565b60200101906001600160f81b031916908160001a90535060049490941c93612e4681614df2565b9050612dd8565b50831561146d5760405162461bcd60e51b815260206004820181905260248201527f537472696e67733a20686578206c656e67746820696e73756666696369656e746044820152606401610d40565b612ea682826121f3565b156119a3576000828152602081815260408083206001600160a01b03851684529091529020805460ff19169055612edb612f3f565b6001600160a01b0316816001600160a01b0316837ff6391f5c32d9c69d2a47ea670b442974b53935d1edc7fd64eb21e047a839171b60405160405180910390a45050565b600061146d836001600160a01b038416613c18565b6000610d6e82613d0b565b6000612f49612c0a565b905090565b80516119a3906004906020840190614154565b60006001600160a01b038616612fa55760405162461bcd60e51b815260206004820152600960248201526824a72fa9a4a3a722a960b91b6044820152606401610d40565b6001612fb8612fb387613d4b565b613dc8565b6040805160008152602081018083529290925260ff851690820152606081018690526080810185905260a0016020604051602081039080840390855afa158015613006573d6000803e3d6000fd5b505050602060405103516001600160a01b0316866001600160a01b031614905095945050505050565b60606004805461303e90614bc9565b80601f016020809104026020016040519081016040528092919081815260200182805461306a90614bc9565b80156130b75780601f1061308c576101008083540402835291602001916130b7565b820191906000526020600020905b81548152906001019060200180831161309a57829003601f168201915b50505050509050919050565b6001600160a01b0384166130e95760405162461bcd60e51b8152600401610d4090614e09565b60006130f3612f3f565b90506131148160008761310588613df8565b61310e88613df8565b87613e43565b60008481526002602090815260408083206001600160a01b038916845290915281208054859290613146908490614c14565b909155505060408051858152602081018590526001600160a01b0380881692600092918516917fc3d58168c5ae7397731d063d5bbf3d657854427343f4c083240f7aacaa2d0f62910160405180910390a46118e081600087878787613e51565b6001600160a01b0384166131cc5760405162461bcd60e51b8152600401610d4090614e09565b81518351146131ed5760405162461bcd60e51b8152600401610d4090614e4a565b60006131f7612f3f565b905061320881600087878787613e43565b60005b84518110156132a45783818151811061322657613226614d5b565b60200260200101516002600087848151811061324457613244614d5b565b602002602001015181526020019081526020016000206000886001600160a01b03166001600160a01b03168152602001908152602001600020600082825461328c9190614c14565b9091555081905061329c81614d71565b91505061320b565b50846001600160a01b031660006001600160a01b0316826001600160a01b03167f4a39dc06d4c0dbc64b70af90fd698a233a518aa5d07e595d983b8c0526c8f7fb87876040516132f5929190614e92565b60405180910390a46118e081600087878787613fad565b815183511461332d5760405162461bcd60e51b8152600401610d4090614e4a565b6001600160a01b0384166133535760405162461bcd60e51b8152600401610d4090614eb7565b600061335d612f3f565b905061336d818787878787613e43565b60005b845181101561345657600085828151811061338d5761338d614d5b565b6020026020010151905060008583815181106133ab576133ab614d5b565b60209081029190910181015160008481526002835260408082206001600160a01b038e1683529093529190912054909150818110156133fc5760405162461bcd60e51b8152600401610d4090614efc565b60008381526002602090815260408083206001600160a01b038e8116855292528083208585039055908b1682528120805484929061343b908490614c14565b925050819055505050508061344f90614d71565b9050613370565b50846001600160a01b0316866001600160a01b0316826001600160a01b03167f4a39dc06d4c0dbc64b70af90fd698a233a518aa5d07e595d983b8c0526c8f7fb87876040516134a6929190614e92565b60405180910390a46134bc818787878787613fad565b505050505050565b6134ce82826121f3565b6119a3576134e6816001600160a01b03166014612d01565b6134f1836020612d01565b604051602001613502929190614f46565b60408051601f198184030181529082905262461bcd60e51b8252610d4091600401614431565b6135328282612c67565b60008281526001602052604090206119149082612cec565b6135548282612e9c565b60008281526001602052604090206119149082612f1f565b60055460ff166135b55760405162461bcd60e51b815260206004820152601460248201527314185d5cd8589b194e881b9bdd081c185d5cd95960621b6044820152606401610d40565b6005805460ff191690557f5db9ee0a495bf2e6ff9c91a7834c1ba4fdd244a5e8aa4e537bd38aeae4b073aa6135e8612f3f565b6040516001600160a01b03909116815260200160405180910390a1565b6001600160a01b03831661362b5760405162461bcd60e51b8152600401610d4090614fbb565b805182511461364c5760405162461bcd60e51b8152600401610d4090614e4a565b6000613656612f3f565b905061367681856000868660405180602001604052806000815250613e43565b60005b835181101561373e57600084828151811061369657613696614d5b565b6020026020010151905060008483815181106136b4576136b4614d5b565b60209081029190910181015160008481526002835260408082206001600160a01b038c1683529093529190912054909150818110156137055760405162461bcd60e51b8152600401610d4090614ffe565b60009283526002602090815260408085206001600160a01b038b168652909152909220910390558061373681614d71565b915050613679565b5060006001600160a01b0316846001600160a01b0316826001600160a01b03167f4a39dc06d4c0dbc64b70af90fd698a233a518aa5d07e595d983b8c0526c8f7fb868660405161378f929190614e92565b60405180910390a450505050565b600061146d8284614c14565b60055460ff16156137ef5760405162461bcd60e51b815260206004820152601060248201526f14185d5cd8589b194e881c185d5cd95960821b6044820152606401610d40565b6005805460ff191660011790557f62e78cea01bee320cd4e420270b5ea74000d11b0c9f74754ebdbfc544b05a2586135e8612f3f565b600061146d8383614068565b816001600160a01b0316836001600160a01b031614156138a55760405162461bcd60e51b815260206004820152602960248201527f455243313135353a2073657474696e6720617070726f76616c20737461747573604482015268103337b91039b2b63360b91b6064820152608401610d40565b6001600160a01b03838116600081815260036020908152604080832094871680845294825291829020805460ff191686151590811790915591519182527f17307eab39ab6107e8899845ad3d59bd9653f200f220920489ca2b5937696c31910160405180910390a3505050565b6000610d6e825490565b80613925612f3f565b6000828152600c60205260409020546001600160a01b0390811691161461395e5760405162461bcd60e51b8152600401610d4090614b5c565b506000908152600c6020526040902080546001600160a01b0319166001600160a01b0392909216919091179055565b6001600160a01b0384166139b35760405162461bcd60e51b8152600401610d4090614eb7565b60006139bd612f3f565b90506139ce81878761310588613df8565b60008481526002602090815260408083206001600160a01b038a16845290915290205483811015613a115760405162461bcd60e51b8152600401610d4090614efc565b60008581526002602090815260408083206001600160a01b038b8116855292528083208785039055908816825281208054869290613a50908490614c14565b909155505060408051868152602081018690526001600160a01b03808916928a821692918616917fc3d58168c5ae7397731d063d5bbf3d657854427343f4c083240f7aacaa2d0f62910160405180910390a4613ab0828888888888613e51565b50505050505050565b6001600160a01b038316613adf5760405162461bcd60e51b8152600401610d4090614fbb565b6000613ae9612f3f565b9050613b1981856000613afb87613df8565b613b0487613df8565b60405180602001604052806000815250613e43565b60008381526002602090815260408083206001600160a01b038816845290915290205482811015613b5c5760405162461bcd60e51b8152600401610d4090614ffe565b60008481526002602090815260408083206001600160a01b03898116808652918452828520888703905582518981529384018890529092908616917fc3d58168c5ae7397731d063d5bbf3d657854427343f4c083240f7aacaa2d0f62910160405180910390a45050505050565b6000818152600183016020526040812054613c1057508154600181810184556000848152602080822090930184905584548482528286019093526040902091909155610d6e565b506000610d6e565b60008181526001830160205260408120548015613d01576000613c3c600183615042565b8554909150600090613c5090600190615042565b9050818114613cb5576000866000018281548110613c7057613c70614d5b565b9060005260206000200154905080876000018481548110613c9357613c93614d5b565b6000918252602080832090910192909255918252600188019052604090208390555b8554869080613cc657613cc6615059565b600190038181906000526020600020016000905590558560010160008681526020019081526020016000206000905560019350505050610d6e565b6000915050610d6e565b60006001600160e01b03198216636cdb3d1360e11b1480613d3c57506001600160e01b031982166303a24d0760e21b145b80610d6e5750610d6e82614092565b60006040518060600160405280602581526020016152106025913980516020918201208351848301516040808701518051908601209051613dab950193845260208401929092526001600160a01b03166040830152606082015260800190565b604051602081830303815290604052805190602001209050919050565b6000613dd360065490565b60405161190160f01b6020820152602281019190915260428101839052606201613dab565b60408051600180825281830190925260609160009190602080830190803683370190505090508281600081518110613e3257613e32614d5b565b602090810291909101015292915050565b6134bc8686868686866140b7565b6001600160a01b0384163b156134bc5760405163f23a6e6160e01b81526001600160a01b0385169063f23a6e6190613e95908990899088908890889060040161506f565b6020604051808303816000875af1925050508015613ed0575060408051601f3d908101601f19168201909252613ecd918101906150b4565b60015b613f7d57613edc6150d1565b806308c379a01415613f165750613ef16150ec565b80613efc5750613f18565b8060405162461bcd60e51b8152600401610d409190614431565b505b60405162461bcd60e51b815260206004820152603460248201527f455243313135353a207472616e7366657220746f206e6f6e20455243313135356044820152732932b1b2b4bb32b91034b6b83632b6b2b73a32b960611b6064820152608401610d40565b6001600160e01b0319811663f23a6e6160e01b14613ab05760405162461bcd60e51b8152600401610d4090615175565b6001600160a01b0384163b156134bc5760405163bc197c8160e01b81526001600160a01b0385169063bc197c8190613ff190899089908890889088906004016151bd565b6020604051808303816000875af192505050801561402c575060408051601f3d908101601f19168201909252614029918101906150b4565b60015b61403857613edc6150d1565b6001600160e01b0319811663bc197c8160e01b14613ab05760405162461bcd60e51b8152600401610d4090615175565b600082600001828154811061407f5761407f614d5b565b9060005260206000200154905092915050565b60006001600160e01b03198216635a05180f60e01b1480610d6e5750610d6e8261411f565b60055460ff16156134bc5760405162461bcd60e51b815260206004820152602c60248201527f455243313135355061757361626c653a20746f6b656e207472616e736665722060448201526b1dda1a5b19481c185d5cd95960a21b6064820152608401610d40565b60006001600160e01b03198216637965db0b60e01b1480610d6e57506301ffc9a760e01b6001600160e01b0319831614610d6e565b82805461416090614bc9565b90600052602060002090601f01602090048101928261418257600085556141c8565b82601f1061419b57805160ff19168380011785556141c8565b828001600101855582156141c8579182015b828111156141c85782518255916020019190600101906141ad565b506141d49291506141d8565b5090565b5b808211156141d457600081556001016141d9565b6001600160a01b0381168114610e4857600080fd5b634e487b7160e01b600052604160045260246000fd5b601f8201601f191681016001600160401b038111828210171561423d5761423d614202565b6040525050565b600082601f83011261425557600080fd5b81356001600160401b0381111561426e5761426e614202565b604051614285601f8301601f191660200182614218565b81815284602083860101111561429a57600080fd5b816020850160208301376000918101602001919091529392505050565b600080600080600060a086880312156142cf57600080fd5b85356142da816141ed565b94506020860135935060408601356001600160401b038111156142fc57600080fd5b61430888828901614244565b9598949750949560608101359550608001359392505050565b6000806040838503121561433457600080fd5b823561433f816141ed565b946020939093013593505050565b6001600160e01b031981168114610e4857600080fd5b60006020828403121561437557600080fd5b813561146d8161434d565b60006020828403121561439257600080fd5b81356001600160401b038111156143a857600080fd5b6143b484828501614244565b949350505050565b6000602082840312156143ce57600080fd5b813561146d816141ed565b60005b838110156143f45781810151838201526020016143dc565b838111156117765750506000910152565b6000815180845261441d8160208601602086016143d9565b601f01601f19169290920160200192915050565b60208152600061146d6020830184614405565b600080600080600060a0868803121561445c57600080fd5b8535614467816141ed565b945060208601356001600160401b0381111561448257600080fd5b61448e88828901614244565b9450506040860135925060608601359150608086013560ff811681146144b357600080fd5b809150509295509295909350565b6000602082840312156144d357600080fd5b5035919050565b600080600080600080600060e0888a0312156144f557600080fd5b8735614500816141ed565b9650602088013595506040880135945060608801356001600160401b038082111561452a57600080fd5b6145368b838c01614244565b955060808a013591508082111561454c57600080fd5b506145598a828b01614244565b93505060a0880135915060c0880135905092959891949750929550565b60006001600160401b0382111561458f5761458f614202565b5060051b60200190565b600082601f8301126145aa57600080fd5b813560206145b782614576565b6040516145c48282614218565b83815260059390931b85018201928281019150868411156145e457600080fd5b8286015b848110156145ff57803583529183019183016145e8565b509695505050505050565b6000806000806080858703121561462057600080fd5b843561462b816141ed565b935060208501356001600160401b038082111561464757600080fd5b61465388838901614599565b9450604087013591508082111561466957600080fd5b61467588838901614599565b9350606087013591508082111561468b57600080fd5b5061469887828801614244565b91505092959194509250565b600080604083850312156146b757600080fd5b50508035926020909101359150565b600080600080600060a086880312156146de57600080fd5b85356146e9816141ed565b945060208601356146f9816141ed565b935060408601356001600160401b038082111561471557600080fd5b61472189838a01614599565b9450606088013591508082111561473757600080fd5b61474389838a01614599565b9350608088013591508082111561475957600080fd5b5061476688828901614244565b9150509295509295909350565b6000806040838503121561478657600080fd5b823591506020830135614798816141ed565b809150509250929050565b600080604083850312156147b657600080fd5b8235915060208301356001600160401b038111156147d357600080fd5b61183385828601614244565b600080604083850312156147f257600080fd5b82356001600160401b038082111561480957600080fd5b818501915085601f83011261481d57600080fd5b8135602061482a82614576565b6040516148378282614218565b83815260059390931b850182019282810191508984111561485757600080fd5b948201945b8386101561487e57853561486f816141ed565b8252948201949082019061485c565b9650508601359250508082111561489457600080fd5b5061183385828601614599565b600081518084526020808501945080840160005b838110156148d1578151875295820195908201906001016148b5565b509495945050505050565b60208152600061146d60208301846148a1565b60008060006060848603121561490457600080fd5b833561490f816141ed565b925060208401356001600160401b038082111561492b57600080fd5b61493787838801614599565b9350604086013591508082111561494d57600080fd5b5061495a86828701614599565b9150509250925092565b6000806000806080858703121561497a57600080fd5b8435614985816141ed565b9350602085013592506040850135915060608501356001600160401b038111156149ae57600080fd5b61469887828801614244565b6000806000606084860312156149cf57600080fd5b8335925060208401356149e1816141ed565b929592945050506040919091013590565b60008060408385031215614a0557600080fd5b8235614a10816141ed565b91506020830135801515811461479857600080fd5b60008060408385031215614a3857600080fd5b8235614a43816141ed565b915060208301356001600160401b03811115614a5e57600080fd5b61183385828601614599565b60008060408385031215614a7d57600080fd5b8235614a88816141ed565b91506020830135614798816141ed565b600080600080600060a08688031215614ab057600080fd5b8535614abb816141ed565b94506020860135614acb816141ed565b9350604086013592506060860135915060808601356001600160401b03811115614af457600080fd5b61476688828901614244565b600080600060608486031215614b1557600080fd5b8335614b20816141ed565b95602085013595506040909401359392505050565b6020808252600d908201526c27a7262cafa7a822a920aa27a960991b604082015260600190565b6020808252600c908201526b27a7262cafa1a922a0aa27a960a11b604082015260600190565b6020808252600a908201526927a7262cafa0a226a4a760b11b604082015260600190565b6020808252600990820152682727aa2fa0a226a4a760b91b604082015260600190565b600181811c90821680614bdd57607f821691505b6020821081141561147457634e487b7160e01b600052602260045260246000fd5b634e487b7160e01b600052601160045260246000fd5b60008219821115614c2757614c27614bfe565b500190565b6001600160a01b03848116825283166020820152606060408201819052600090614c5890830184614405565b95945050505050565b60008351614c738184602088016143d9565b60609390931b6bffffffffffffffffffffffff19169190920190815260140192915050565b60008251614caa8184602087016143d9565b9190910192915050565b6020808252600990820152680a48a828690be9a82b60bb1b604082015260600190565b600060018060a01b03808816835286602084015285604084015260a06060840152614d0560a0840186614405565b91508084166080840152509695505050505050565b6000816000190483118215151615614d3457614d34614bfe565b500290565b600082614d5657634e487b7160e01b600052601260045260246000fd5b500490565b634e487b7160e01b600052603260045260246000fd5b6000600019821415614d8557614d85614bfe565b5060010190565b60208082526029908201527f455243313135353a2063616c6c6572206973206e6f74206f776e6572206e6f7260408201526808185c1c1c9bdd995960ba1b606082015260800190565b600060208284031215614de757600080fd5b815161146d816141ed565b600081614e0157614e01614bfe565b506000190190565b60208082526021908201527f455243313135353a206d696e7420746f20746865207a65726f206164647265736040820152607360f81b606082015260800190565b60208082526028908201527f455243313135353a2069647320616e6420616d6f756e7473206c656e677468206040820152670dad2e6dac2e8c6d60c31b606082015260800190565b604081526000614ea560408301856148a1565b8281036020840152614c5881856148a1565b60208082526025908201527f455243313135353a207472616e7366657220746f20746865207a65726f206164604082015264647265737360d81b606082015260800190565b6020808252602a908201527f455243313135353a20696e73756666696369656e742062616c616e636520666f60408201526939103a3930b739b332b960b11b606082015260800190565b7f416363657373436f6e74726f6c3a206163636f756e7420000000000000000000815260008351614f7e8160178501602088016143d9565b7001034b99036b4b9b9b4b733903937b6329607d1b6017918401918201528351614faf8160288401602088016143d9565b01602801949350505050565b60208082526023908201527f455243313135353a206275726e2066726f6d20746865207a65726f206164647260408201526265737360e81b606082015260800190565b60208082526024908201527f455243313135353a206275726e20616d6f756e7420657863656564732062616c604082015263616e636560e01b606082015260800190565b60008282101561505457615054614bfe565b500390565b634e487b7160e01b600052603160045260246000fd5b6001600160a01b03868116825285166020820152604081018490526060810183905260a0608082018190526000906150a990830184614405565b979650505050505050565b6000602082840312156150c657600080fd5b815161146d8161434d565b600060033d1115612c645760046000803e5060005160e01c90565b600060443d10156150fa5790565b6040516003193d81016004833e81513d6001600160401b03816024840111818411171561512957505050505090565b82850191508151818111156151415750505050505090565b843d870101602082850101111561515b5750505050505090565b61516a60208286010187614218565b509095945050505050565b60208082526028908201527f455243313135353a204552433131353552656365697665722072656a656374656040820152676420746f6b656e7360c01b606082015260800190565b6001600160a01b0386811682528516602082015260a0604082018190526000906151e9908301866148a1565b82810360608401526151fb81866148a1565b905082810360808401526112bb818561440556fe4d6574615472616e73616374696f6e286e6f6e63652c66726f6d2c7369676e617475726529828634d95e775031b9ff576b159a8509d3053581a8c9c4d7d86899e0afcd882f97667070c54ef182b0f5858b034beac1b6f3089aa2d3188bb1e8929f4fa9b92965d7a28e3265b37a6474929f336521b332c1681b933f6cb9f3376673440d862a9f2df0fed2c77648de5860a4cc508cd0818c85b8b8a1ab4ceeef8d981c8956a6a26469706673582212200956eee9f464cfedc97322a7ab76374954138f609c0fb80604438b300743597364736f6c634300080c0033454950373132446f6d61696e28737472696e67206e616d652c737472696e672076657273696f6e2c6164647265737320766572696679696e67436f6e74726163742c627974657333322073616c742965d7a28e3265b37a6474929f336521b332c1681b933f6cb9f3376673440d862a9f2df0fed2c77648de5860a4cc508cd0818c85b8b8a1ab4ceeef8d981c8956a6",
  "linkReferences": {},
  "deployedLinkReferences": {}
}