{
  "_format": "hh-sol-artifact-1",
  "contractName": "ERC1155Tradable",
  "sourceName": "contracts/utils/ERC1155Tradable.sol",
  "abi": [
    {
      "inputs": [
        {
          "internalType": "string",
          "name": "_name",
          "type": "string"
        },
        {
          "internalType": "string",
          "name": "_symbol",
          "type": "string"
        },
        {
          "internalType": "string",
          "name": "_uri",
          "type": "string"
        },
        {
          "internalType": "address",
          "name": "_admin",
          "type": "address"
        },
        {
          "internalType": "address",
          "name": "_operator",
          "type": "address"
        }
      ],
      "stateMutability": "nonpayable",
      "type": "constructor"
    },
    {
      "anonymous": false,
      "inputs": [
        {
          "indexed": false,
          "internalType": "address",
          "name": "previous",
          "type": "address"
        },
        {
          "indexed": false,
          "internalType": "address",
          "name": "new_",
          "type": "address"
        }
      ],
      "name": "AdminChanged",
      "type": "event"
    },
    {
      "anonymous": false,
      "inputs": [
        {
          "indexed": true,
          "internalType": "address",
          "name": "account",
          "type": "address"
        },
        {
          "indexed": true,
          "internalType": "address",
          "name": "operator",
          "type": "address"
        },
        {
          "indexed": false,
          "internalType": "bool",
          "name": "approved",
          "type": "bool"
        }
      ],
      "name": "ApprovalForAll",
      "type": "event"
    },
    {
      "anonymous": false,
      "inputs": [
        {
          "indexed": false,
          "internalType": "address",
          "name": "_initialOwner",
          "type": "address"
        },
        {
          "indexed": false,
          "internalType": "uint256",
          "name": "_id",
          "type": "uint256"
        },
        {
          "indexed": false,
          "internalType": "uint256",
          "name": "_initialSupply",
          "type": "uint256"
        },
        {
          "indexed": false,
          "internalType": "string",
          "name": "_uri",
          "type": "string"
        },
        {
          "indexed": false,
          "internalType": "address",
          "name": "_operator",
          "type": "address"
        }
      ],
      "name": "CreateEvent",
      "type": "event"
    },
    {
      "anonymous": false,
      "inputs": [
        {
          "indexed": false,
          "internalType": "address",
          "name": "userAddress",
          "type": "address"
        },
        {
          "indexed": false,
          "internalType": "address payable",
          "name": "relayerAddress",
          "type": "address"
        },
        {
          "indexed": false,
          "internalType": "bytes",
          "name": "functionSignature",
          "type": "bytes"
        }
      ],
      "name": "MetaTransactionExecuted",
      "type": "event"
    },
    {
      "anonymous": false,
      "inputs": [
        {
          "indexed": false,
          "internalType": "address",
          "name": "_to",
          "type": "address"
        },
        {
          "indexed": false,
          "internalType": "uint256",
          "name": "_id",
          "type": "uint256"
        },
        {
          "indexed": false,
          "internalType": "uint256",
          "name": "_quantity",
          "type": "uint256"
        }
      ],
      "name": "MintEvent",
      "type": "event"
    },
    {
      "anonymous": false,
      "inputs": [
        {
          "indexed": false,
          "internalType": "address",
          "name": "previous",
          "type": "address"
        },
        {
          "indexed": false,
          "internalType": "address",
          "name": "new_",
          "type": "address"
        }
      ],
      "name": "OperatorChanged",
      "type": "event"
    },
    {
      "anonymous": false,
      "inputs": [
        {
          "indexed": false,
          "internalType": "address",
          "name": "account",
          "type": "address"
        }
      ],
      "name": "Paused",
      "type": "event"
    },
    {
      "anonymous": false,
      "inputs": [
        {
          "indexed": false,
          "internalType": "uint256",
          "name": "_id",
          "type": "uint256"
        },
        {
          "indexed": false,
          "internalType": "uint256",
          "name": "previous",
          "type": "uint256"
        },
        {
          "indexed": false,
          "internalType": "uint256",
          "name": "new_",
          "type": "uint256"
        }
      ],
      "name": "PriceChanged",
      "type": "event"
    },
    {
      "anonymous": false,
      "inputs": [
        {
          "indexed": false,
          "internalType": "address",
          "name": "previous",
          "type": "address"
        },
        {
          "indexed": false,
          "internalType": "address",
          "name": "new_",
          "type": "address"
        }
      ],
      "name": "ProxyRegistryAddressChanged",
      "type": "event"
    },
    {
      "anonymous": false,
      "inputs": [
        {
          "indexed": true,
          "internalType": "bytes32",
          "name": "role",
          "type": "bytes32"
        },
        {
          "indexed": true,
          "internalType": "bytes32",
          "name": "previousAdminRole",
          "type": "bytes32"
        },
        {
          "indexed": true,
          "internalType": "bytes32",
          "name": "newAdminRole",
          "type": "bytes32"
        }
      ],
      "name": "RoleAdminChanged",
      "type": "event"
    },
    {
      "anonymous": false,
      "inputs": [
        {
          "indexed": true,
          "internalType": "bytes32",
          "name": "role",
          "type": "bytes32"
        },
        {
          "indexed": true,
          "internalType": "address",
          "name": "account",
          "type": "address"
        },
        {
          "indexed": true,
          "internalType": "address",
          "name": "sender",
          "type": "address"
        }
      ],
      "name": "RoleGranted",
      "type": "event"
    },
    {
      "anonymous": false,
      "inputs": [
        {
          "indexed": true,
          "internalType": "bytes32",
          "name": "role",
          "type": "bytes32"
        },
        {
          "indexed": true,
          "internalType": "address",
          "name": "account",
          "type": "address"
        },
        {
          "indexed": true,
          "internalType": "address",
          "name": "sender",
          "type": "address"
        }
      ],
      "name": "RoleRevoked",
      "type": "event"
    },
    {
      "anonymous": false,
      "inputs": [
        {
          "indexed": true,
          "internalType": "address",
          "name": "operator",
          "type": "address"
        },
        {
          "indexed": true,
          "internalType": "address",
          "name": "from",
          "type": "address"
        },
        {
          "indexed": true,
          "internalType": "address",
          "name": "to",
          "type": "address"
        },
        {
          "indexed": false,
          "internalType": "uint256[]",
          "name": "ids",
          "type": "uint256[]"
        },
        {
          "indexed": false,
          "internalType": "uint256[]",
          "name": "values",
          "type": "uint256[]"
        }
      ],
      "name": "TransferBatch",
      "type": "event"
    },
    {
      "anonymous": false,
      "inputs": [
        {
          "indexed": true,
          "internalType": "address",
          "name": "operator",
          "type": "address"
        },
        {
          "indexed": true,
          "internalType": "address",
          "name": "from",
          "type": "address"
        },
        {
          "indexed": true,
          "internalType": "address",
          "name": "to",
          "type": "address"
        },
        {
          "indexed": false,
          "internalType": "uint256",
          "name": "id",
          "type": "uint256"
        },
        {
          "indexed": false,
          "internalType": "uint256",
          "name": "value",
          "type": "uint256"
        }
      ],
      "name": "TransferSingle",
      "type": "event"
    },
    {
      "anonymous": false,
      "inputs": [
        {
          "indexed": false,
          "internalType": "string",
          "name": "value",
          "type": "string"
        },
        {
          "indexed": true,
          "internalType": "uint256",
          "name": "id",
          "type": "uint256"
        }
      ],
      "name": "URI",
      "type": "event"
    },
    {
      "anonymous": false,
      "inputs": [
        {
          "indexed": false,
          "internalType": "address",
          "name": "account",
          "type": "address"
        }
      ],
      "name": "Unpaused",
      "type": "event"
    },
    {
      "inputs": [],
      "name": "CREATOR_ROLE",
      "outputs": [
        {
          "internalType": "bytes32",
          "name": "",
          "type": "bytes32"
        }
      ],
      "stateMutability": "view",
      "type": "function"
    },
    {
      "inputs": [],
      "name": "DEFAULT_ADMIN_ROLE",
      "outputs": [
        {
          "internalType": "bytes32",
          "name": "",
          "type": "bytes32"
        }
      ],
      "stateMutability": "view",
      "type": "function"
    },
    {
      "inputs": [],
      "name": "ERC712_VERSION",
      "outputs": [
        {
          "internalType": "string",
          "name": "",
          "type": "string"
        }
      ],
      "stateMutability": "view",
      "type": "function"
    },
    {
      "inputs": [],
      "name": "MINTER_ROLE",
      "outputs": [
        {
          "internalType": "bytes32",
          "name": "",
          "type": "bytes32"
        }
      ],
      "stateMutability": "view",
      "type": "function"
    },
    {
      "inputs": [],
      "name": "OPERATOR_ROLE",
      "outputs": [
        {
          "internalType": "bytes32",
          "name": "",
          "type": "bytes32"
        }
      ],
      "stateMutability": "view",
      "type": "function"
    },
    {
      "inputs": [],
      "name": "PAUSER_ROLE",
      "outputs": [
        {
          "internalType": "bytes32",
          "name": "",
          "type": "bytes32"
        }
      ],
      "stateMutability": "view",
      "type": "function"
    },
    {
      "inputs": [],
      "name": "admin",
      "outputs": [
        {
          "internalType": "address",
          "name": "",
          "type": "address"
        }
      ],
      "stateMutability": "view",
      "type": "function"
    },
    {
      "inputs": [
        {
          "internalType": "address",
          "name": "account",
          "type": "address"
        },
        {
          "internalType": "uint256",
          "name": "id",
          "type": "uint256"
        }
      ],
      "name": "balanceOf",
      "outputs": [
        {
          "internalType": "uint256",
          "name": "",
          "type": "uint256"
        }
      ],
      "stateMutability": "view",
      "type": "function"
    },
    {
      "inputs": [
        {
          "internalType": "address[]",
          "name": "accounts",
          "type": "address[]"
        },
        {
          "internalType": "uint256[]",
          "name": "ids",
          "type": "uint256[]"
        }
      ],
      "name": "balanceOfBatch",
      "outputs": [
        {
          "internalType": "uint256[]",
          "name": "",
          "type": "uint256[]"
        }
      ],
      "stateMutability": "view",
      "type": "function"
    },
    {
      "inputs": [
        {
          "internalType": "address",
          "name": "_to",
          "type": "address"
        },
        {
          "internalType": "uint256[]",
          "name": "_ids",
          "type": "uint256[]"
        },
        {
          "internalType": "uint256[]",
          "name": "_quantities",
          "type": "uint256[]"
        },
        {
          "internalType": "bytes",
          "name": "_data",
          "type": "bytes"
        }
      ],
      "name": "batchMint",
      "outputs": [],
      "stateMutability": "nonpayable",
      "type": "function"
    },
    {
      "inputs": [
        {
          "internalType": "address",
          "name": "account",
          "type": "address"
        },
        {
          "internalType": "uint256",
          "name": "id",
          "type": "uint256"
        },
        {
          "internalType": "uint256",
          "name": "value",
          "type": "uint256"
        }
      ],
      "name": "burn",
      "outputs": [],
      "stateMutability": "nonpayable",
      "type": "function"
    },
    {
      "inputs": [
        {
          "internalType": "address",
          "name": "account",
          "type": "address"
        },
        {
          "internalType": "uint256[]",
          "name": "ids",
          "type": "uint256[]"
        },
        {
          "internalType": "uint256[]",
          "name": "values",
          "type": "uint256[]"
        }
      ],
      "name": "burnBatch",
      "outputs": [],
      "stateMutability": "nonpayable",
      "type": "function"
    },
    {
      "inputs": [
        {
          "internalType": "address",
          "name": "_newAdmin",
          "type": "address"
        }
      ],
      "name": "changeAdmin",
      "outputs": [],
      "stateMutability": "nonpayable",
      "type": "function"
    },
    {
      "inputs": [
        {
          "internalType": "address",
          "name": "_newOperator",
          "type": "address"
        }
      ],
      "name": "changeOperator",
      "outputs": [],
      "stateMutability": "nonpayable",
      "type": "function"
    },
    {
      "inputs": [
        {
          "internalType": "uint256",
          "name": "_id",
          "type": "uint256"
        },
        {
          "internalType": "uint256",
          "name": "_price",
          "type": "uint256"
        }
      ],
      "name": "changePriceToken",
      "outputs": [],
      "stateMutability": "nonpayable",
      "type": "function"
    },
    {
      "inputs": [
        {
          "internalType": "address",
          "name": "_initialOwner",
          "type": "address"
        },
        {
          "internalType": "uint256",
          "name": "_id",
          "type": "uint256"
        },
        {
          "internalType": "uint256",
          "name": "_initialSupply",
          "type": "uint256"
        },
        {
          "internalType": "string",
          "name": "_uri",
          "type": "string"
        },
        {
          "internalType": "bytes",
          "name": "_data",
          "type": "bytes"
        },
        {
          "internalType": "uint256",
          "name": "_price",
          "type": "uint256"
        },
        {
          "internalType": "uint256",
          "name": "_max",
          "type": "uint256"
        }
      ],
      "name": "create",
      "outputs": [
        {
          "internalType": "uint256",
          "name": "",
          "type": "uint256"
        }
      ],
      "stateMutability": "nonpayable",
      "type": "function"
    },
    {
      "inputs": [
        {
          "internalType": "uint256",
          "name": "",
          "type": "uint256"
        }
      ],
      "name": "creators",
      "outputs": [
        {
          "internalType": "address",
          "name": "",
          "type": "address"
        }
      ],
      "stateMutability": "view",
      "type": "function"
    },
    {
      "inputs": [
        {
          "internalType": "address",
          "name": "userAddress",
          "type": "address"
        },
        {
          "internalType": "bytes",
          "name": "functionSignature",
          "type": "bytes"
        },
        {
          "internalType": "bytes32",
          "name": "sigR",
          "type": "bytes32"
        },
        {
          "internalType": "bytes32",
          "name": "sigS",
          "type": "bytes32"
        },
        {
          "internalType": "uint8",
          "name": "sigV",
          "type": "uint8"
        }
      ],
      "name": "executeMetaTransaction",
      "outputs": [
        {
          "internalType": "bytes",
          "name": "",
          "type": "bytes"
        }
      ],
      "stateMutability": "nonpayable",
      "type": "function"
    },
    {
      "inputs": [
        {
          "internalType": "uint256",
          "name": "_id",
          "type": "uint256"
        }
      ],
      "name": "exists",
      "outputs": [
        {
          "internalType": "bool",
          "name": "",
          "type": "bool"
        }
      ],
      "stateMutability": "view",
      "type": "function"
    },
    {
      "inputs": [],
      "name": "getChainId",
      "outputs": [
        {
          "internalType": "uint256",
          "name": "",
          "type": "uint256"
        }
      ],
      "stateMutability": "view",
      "type": "function"
    },
    {
      "inputs": [
        {
          "internalType": "uint256",
          "name": "id",
          "type": "uint256"
        }
      ],
      "name": "getCreator",
      "outputs": [
        {
          "internalType": "address",
          "name": "sender",
          "type": "address"
        }
      ],
      "stateMutability": "view",
      "type": "function"
    },
    {
      "inputs": [],
      "name": "getDomainSeperator",
      "outputs": [
        {
          "internalType": "bytes32",
          "name": "",
          "type": "bytes32"
        }
      ],
      "stateMutability": "view",
      "type": "function"
    },
    {
      "inputs": [
        {
          "internalType": "uint256",
          "name": "_id",
          "type": "uint256"
        }
      ],
      "name": "getMaxSupplyToken",
      "outputs": [
        {
          "internalType": "uint256",
          "name": "",
          "type": "uint256"
        }
      ],
      "stateMutability": "view",
      "type": "function"
    },
    {
      "inputs": [
        {
          "internalType": "address",
          "name": "user",
          "type": "address"
        }
      ],
      "name": "getNonce",
      "outputs": [
        {
          "internalType": "uint256",
          "name": "nonce",
          "type": "uint256"
        }
      ],
      "stateMutability": "view",
      "type": "function"
    },
    {
      "inputs": [
        {
          "internalType": "uint256",
          "name": "_id",
          "type": "uint256"
        }
      ],
      "name": "getPriceToken",
      "outputs": [
        {
          "internalType": "uint256",
          "name": "",
          "type": "uint256"
        }
      ],
      "stateMutability": "view",
      "type": "function"
    },
    {
      "inputs": [
        {
          "internalType": "bytes32",
          "name": "role",
          "type": "bytes32"
        }
      ],
      "name": "getRoleAdmin",
      "outputs": [
        {
          "internalType": "bytes32",
          "name": "",
          "type": "bytes32"
        }
      ],
      "stateMutability": "view",
      "type": "function"
    },
    {
      "inputs": [
        {
          "internalType": "bytes32",
          "name": "role",
          "type": "bytes32"
        },
        {
          "internalType": "uint256",
          "name": "index",
          "type": "uint256"
        }
      ],
      "name": "getRoleMember",
      "outputs": [
        {
          "internalType": "address",
          "name": "",
          "type": "address"
        }
      ],
      "stateMutability": "view",
      "type": "function"
    },
    {
      "inputs": [
        {
          "internalType": "bytes32",
          "name": "role",
          "type": "bytes32"
        }
      ],
      "name": "getRoleMemberCount",
      "outputs": [
        {
          "internalType": "uint256",
          "name": "",
          "type": "uint256"
        }
      ],
      "stateMutability": "view",
      "type": "function"
    },
    {
      "inputs": [
        {
          "internalType": "bytes32",
          "name": "role",
          "type": "bytes32"
        },
        {
          "internalType": "address",
          "name": "account",
          "type": "address"
        }
      ],
      "name": "grantRole",
      "outputs": [],
      "stateMutability": "nonpayable",
      "type": "function"
    },
    {
      "inputs": [
        {
          "internalType": "bytes32",
          "name": "role",
          "type": "bytes32"
        },
        {
          "internalType": "address",
          "name": "account",
          "type": "address"
        }
      ],
      "name": "hasRole",
      "outputs": [
        {
          "internalType": "bool",
          "name": "",
          "type": "bool"
        }
      ],
      "stateMutability": "view",
      "type": "function"
    },
    {
      "inputs": [
        {
          "internalType": "address",
          "name": "_owner",
          "type": "address"
        },
        {
          "internalType": "address",
          "name": "_operator",
          "type": "address"
        }
      ],
      "name": "isApprovedForAll",
      "outputs": [
        {
          "internalType": "bool",
          "name": "isOperator",
          "type": "bool"
        }
      ],
      "stateMutability": "view",
      "type": "function"
    },
    {
      "inputs": [
        {
          "internalType": "uint256",
          "name": "",
          "type": "uint256"
        }
      ],
      "name": "max_supply_tokens",
      "outputs": [
        {
          "internalType": "uint256",
          "name": "",
          "type": "uint256"
        }
      ],
      "stateMutability": "view",
      "type": "function"
    },
    {
      "inputs": [
        {
          "internalType": "address",
          "name": "_to",
          "type": "address"
        },
        {
          "internalType": "uint256",
          "name": "_id",
          "type": "uint256"
        },
        {
          "internalType": "uint256",
          "name": "_quantity",
          "type": "uint256"
        },
        {
          "internalType": "bytes",
          "name": "_data",
          "type": "bytes"
        }
      ],
      "name": "mint",
      "outputs": [],
      "stateMutability": "nonpayable",
      "type": "function"
    },
    {
      "inputs": [
        {
          "internalType": "address",
          "name": "to",
          "type": "address"
        },
        {
          "internalType": "uint256[]",
          "name": "ids",
          "type": "uint256[]"
        },
        {
          "internalType": "uint256[]",
          "name": "amounts",
          "type": "uint256[]"
        },
        {
          "internalType": "bytes",
          "name": "data",
          "type": "bytes"
        }
      ],
      "name": "mintBatch",
      "outputs": [],
      "stateMutability": "nonpayable",
      "type": "function"
    },
    {
      "inputs": [],
      "name": "name",
      "outputs": [
        {
          "internalType": "string",
          "name": "",
          "type": "string"
        }
      ],
      "stateMutability": "view",
      "type": "function"
    },
    {
      "inputs": [],
      "name": "operator",
      "outputs": [
        {
          "internalType": "address",
          "name": "",
          "type": "address"
        }
      ],
      "stateMutability": "view",
      "type": "function"
    },
    {
      "inputs": [],
      "name": "pause",
      "outputs": [],
      "stateMutability": "nonpayable",
      "type": "function"
    },
    {
      "inputs": [],
      "name": "paused",
      "outputs": [
        {
          "internalType": "bool",
          "name": "",
          "type": "bool"
        }
      ],
      "stateMutability": "view",
      "type": "function"
    },
    {
      "inputs": [
        {
          "internalType": "uint256",
          "name": "",
          "type": "uint256"
        }
      ],
      "name": "price_tokens",
      "outputs": [
        {
          "internalType": "uint256",
          "name": "",
          "type": "uint256"
        }
      ],
      "stateMutability": "view",
      "type": "function"
    },
    {
      "inputs": [],
      "name": "proxyRegistryAddress",
      "outputs": [
        {
          "internalType": "address",
          "name": "",
          "type": "address"
        }
      ],
      "stateMutability": "view",
      "type": "function"
    },
    {
      "inputs": [
        {
          "internalType": "bytes32",
          "name": "role",
          "type": "bytes32"
        },
        {
          "internalType": "address",
          "name": "account",
          "type": "address"
        }
      ],
      "name": "renounceRole",
      "outputs": [],
      "stateMutability": "nonpayable",
      "type": "function"
    },
    {
      "inputs": [
        {
          "internalType": "bytes32",
          "name": "role",
          "type": "bytes32"
        },
        {
          "internalType": "address",
          "name": "account",
          "type": "address"
        }
      ],
      "name": "revokeRole",
      "outputs": [],
      "stateMutability": "nonpayable",
      "type": "function"
    },
    {
      "inputs": [
        {
          "internalType": "uint256",
          "name": "",
          "type": "uint256"
        }
      ],
      "name": "royalties",
      "outputs": [
        {
          "internalType": "address",
          "name": "recipient",
          "type": "address"
        },
        {
          "internalType": "uint24",
          "name": "amount",
          "type": "uint24"
        },
        {
          "internalType": "bool",
          "name": "isValue",
          "type": "bool"
        }
      ],
      "stateMutability": "view",
      "type": "function"
    },
    {
      "inputs": [
        {
          "internalType": "uint256",
          "name": "_tokenId",
          "type": "uint256"
        },
        {
          "internalType": "uint256",
          "name": "_salePrice",
          "type": "uint256"
        }
      ],
      "name": "royaltyInfo",
      "outputs": [
        {
          "internalType": "address",
          "name": "receiver",
          "type": "address"
        },
        {
          "internalType": "uint256",
          "name": "royaltyAmount",
          "type": "uint256"
        }
      ],
      "stateMutability": "view",
      "type": "function"
    },
    {
      "inputs": [
        {
          "internalType": "address",
          "name": "from",
          "type": "address"
        },
        {
          "internalType": "address",
          "name": "to",
          "type": "address"
        },
        {
          "internalType": "uint256[]",
          "name": "ids",
          "type": "uint256[]"
        },
        {
          "internalType": "uint256[]",
          "name": "amounts",
          "type": "uint256[]"
        },
        {
          "internalType": "bytes",
          "name": "data",
          "type": "bytes"
        }
      ],
      "name": "safeBatchTransferFrom",
      "outputs": [],
      "stateMutability": "nonpayable",
      "type": "function"
    },
    {
      "inputs": [
        {
          "internalType": "address",
          "name": "from",
          "type": "address"
        },
        {
          "internalType": "address",
          "name": "to",
          "type": "address"
        },
        {
          "internalType": "uint256",
          "name": "id",
          "type": "uint256"
        },
        {
          "internalType": "uint256",
          "name": "amount",
          "type": "uint256"
        },
        {
          "internalType": "bytes",
          "name": "data",
          "type": "bytes"
        }
      ],
      "name": "safeTransferFrom",
      "outputs": [],
      "stateMutability": "nonpayable",
      "type": "function"
    },
    {
      "inputs": [
        {
          "internalType": "address",
          "name": "operator",
          "type": "address"
        },
        {
          "internalType": "bool",
          "name": "approved",
          "type": "bool"
        }
      ],
      "name": "setApprovalForAll",
      "outputs": [],
      "stateMutability": "nonpayable",
      "type": "function"
    },
    {
      "inputs": [
        {
          "internalType": "address",
          "name": "_to",
          "type": "address"
        },
        {
          "internalType": "uint256[]",
          "name": "_ids",
          "type": "uint256[]"
        }
      ],
      "name": "setCreator",
      "outputs": [],
      "stateMutability": "nonpayable",
      "type": "function"
    },
    {
      "inputs": [
        {
          "internalType": "uint256",
          "name": "_tokenId",
          "type": "uint256"
        },
        {
          "internalType": "string",
          "name": "_newURI",
          "type": "string"
        }
      ],
      "name": "setCustomURI",
      "outputs": [],
      "stateMutability": "nonpayable",
      "type": "function"
    },
    {
      "inputs": [
        {
          "internalType": "address",
          "name": "_proxyRegistryAddress",
          "type": "address"
        }
      ],
      "name": "setProxyRegistryAddress",
      "outputs": [],
      "stateMutability": "nonpayable",
      "type": "function"
    },
    {
      "inputs": [
        {
          "internalType": "uint256",
          "name": "_tokenId",
          "type": "uint256"
        },
        {
          "internalType": "address",
          "name": "_recipient",
          "type": "address"
        },
        {
          "internalType": "uint256",
          "name": "_value",
          "type": "uint256"
        }
      ],
      "name": "setTokenRoyalty",
      "outputs": [],
      "stateMutability": "nonpayable",
      "type": "function"
    },
    {
      "inputs": [
        {
          "internalType": "string",
          "name": "_newURI",
          "type": "string"
        }
      ],
      "name": "setURI",
      "outputs": [],
      "stateMutability": "nonpayable",
      "type": "function"
    },
    {
      "inputs": [
        {
          "internalType": "bytes4",
          "name": "interfaceId",
          "type": "bytes4"
        }
      ],
      "name": "supportsInterface",
      "outputs": [
        {
          "internalType": "bool",
          "name": "",
          "type": "bool"
        }
      ],
      "stateMutability": "view",
      "type": "function"
    },
    {
      "inputs": [],
      "name": "symbol",
      "outputs": [
        {
          "internalType": "string",
          "name": "",
          "type": "string"
        }
      ],
      "stateMutability": "view",
      "type": "function"
    },
    {
      "inputs": [
        {
          "internalType": "uint256",
          "name": "",
          "type": "uint256"
        }
      ],
      "name": "tokenSupply",
      "outputs": [
        {
          "internalType": "uint256",
          "name": "",
          "type": "uint256"
        }
      ],
      "stateMutability": "view",
      "type": "function"
    },
    {
      "inputs": [
        {
          "internalType": "uint256",
          "name": "_id",
          "type": "uint256"
        }
      ],
      "name": "totalSupply",
      "outputs": [
        {
          "internalType": "uint256",
          "name": "",
          "type": "uint256"
        }
      ],
      "stateMutability": "view",
      "type": "function"
    },
    {
      "inputs": [],
      "name": "unpause",
      "outputs": [],
      "stateMutability": "nonpayable",
      "type": "function"
    },
    {
      "inputs": [
        {
          "internalType": "uint256",
          "name": "_id",
          "type": "uint256"
        }
      ],
      "name": "uri",
      "outputs": [
        {
          "internalType": "string",
          "name": "",
          "type": "string"
        }
      ],
      "stateMutability": "view",
      "type": "function"
    },
    {
      "inputs": [
        {
          "internalType": "address",
          "name": "_to",
          "type": "address"
        },
        {
          "internalType": "uint256",
          "name": "_id",
          "type": "uint256"
        },
        {
          "internalType": "uint256",
          "name": "_quantity",
          "type": "uint256"
        },
        {
          "internalType": "bytes",
          "name": "_data",
          "type": "bytes"
        }
      ],
      "name": "userMint",
      "outputs": [],
      "stateMutability": "payable",
      "type": "function"
    },
    {
      "inputs": [
        {
          "internalType": "address",
          "name": "_to",
          "type": "address"
        }
      ],
      "name": "withdraw",
      "outputs": [],
      "stateMutability": "nonpayable",
      "type": "function"
    }
  ],
  "bytecode": "0x60806040526005805461ff00191690553480156200001c57600080fd5b506040516200612f3803806200612f8339810160408190526200003f9162000c57565b82806200004c8162000308565b506005805460ff191690556200006d60006200006762000321565b6200033d565b6200008b6000805160206200610f8339815191526200006762000321565b620000a9600080516020620060ef8339815191526200006762000321565b5060016008558451620000c490600f90602088019062000aba565b508351620000da90601090602087019062000aba565b50600b80546001600160a01b0319169055600f80546200018b9190620001009062000d0e565b80601f01602080910402602001604051908101604052809291908181526020018280546200012e9062000d0e565b80156200017f5780601f1062000153576101008083540402835291602001916200017f565b820191906000526020600020905b8154815290600101906020018083116200016157829003601f168201915b50506200034992505050565b600980546001600160a01b0319166001600160a01b038416908117909155620001b790600090620003b5565b600a80546001600160a01b0319166001600160a01b03831690811790915562000202907f97667070c54ef182b0f5858b034beac1b6f3089aa2d3188bb1e8929f4fa9b92990620003b5565b600a546200023b907f828634d95e775031b9ff576b159a8509d3053581a8c9c4d7d86899e0afcd882f906001600160a01b0316620003b5565b600a5462000263906000805160206200610f833981519152906001600160a01b0316620003b5565b600a546200028b90600080516020620060ef833981519152906001600160a01b0316620003b5565b6200029562000321565b6009546001600160a01b03908116911614620002fd57620002cf6000805160206200610f833981519152620002c962000321565b620003ed565b620002ed600080516020620060ef833981519152620002c962000321565b620002fd6000620002c962000321565b505050505062000eac565b80516200031d90600490602084019062000aba565b5050565b6000620003386200041a60201b62002b6e1760201c565b905090565b6200031d828262000479565b600554610100900460ff1615620003985760405162461bcd60e51b815260206004820152600e60248201526d185b1c9958591e481a5b9a5d195960921b60448201526064015b60405180910390fd5b620003a381620004b7565b506005805461ff001916610100179055565b600082815260208190526040902060010154620003dc81620003d662000321565b62000559565b620003e8838362000479565b505050565b6000828152602081905260409020600101546200040e81620003d662000321565b620003e88383620005f4565b6000333014156200047357600080368080601f0160208091040260200160405190810160405280939291908181526020018383808284376000920191909152505050503601516001600160a01b03169150620004769050565b50335b90565b6200049082826200063260201b62002bcb1760201c565b6000828152600160209081526040909120620003e891839062002c50620006d4821b17901c565b6040518060800160405280604f8152602001620060a0604f9139805160209182012082519282019290922060408051808201825260018152603160f81b90840152805180840194909452838101919091527fc89efdaa54c0f20c7adf612882df0950f5a951637e0307cdcb4c672f298b8bc660608401523060808401524660a0808501919091528151808503909101815260c090930190528151910120600655565b6000828152602081815260408083206001600160a01b038516845290915290205460ff166200031d57620005a3816001600160a01b03166014620006f460201b62002c651760201c565b620005b983602062002c65620006f4821b17811c565b604051602001620005cc92919062000d4b565b60408051601f198184030181529082905262461bcd60e51b82526200038f9160040162000dc4565b6200060b8282620008ad60201b62002e001760201c565b6000828152600160209081526040909120620003e891839062002e836200094d821b17901c565b6000828152602081815260408083206001600160a01b038516845290915290205460ff166200031d576000828152602081815260408083206001600160a01b03851684529091529020805460ff191660011790556200069062000321565b6001600160a01b0316816001600160a01b0316837f2f8788117e7eff1d82e926ec794901d17c78024a50270940304540a733656f0d60405160405180910390a45050565b6000620006eb836001600160a01b03841662000964565b90505b92915050565b606060006200070583600262000e0f565b6200071290600262000e31565b6001600160401b038111156200072c576200072c62000b60565b6040519080825280601f01601f19166020018201604052801562000757576020820181803683370190505b509050600360fc1b8160008151811062000775576200077562000e4c565b60200101906001600160f81b031916908160001a905350600f60fb1b81600181518110620007a757620007a762000e4c565b60200101906001600160f81b031916908160001a9053506000620007cd84600262000e0f565b620007da90600162000e31565b90505b60018111156200085c576f181899199a1a9b1b9c1cb0b131b232b360811b85600f166010811062000812576200081262000e4c565b1a60f81b8282815181106200082b576200082b62000e4c565b60200101906001600160f81b031916908160001a90535060049490941c93620008548162000e62565b9050620007dd565b508315620006eb5760405162461bcd60e51b815260206004820181905260248201527f537472696e67733a20686578206c656e67746820696e73756666696369656e7460448201526064016200038f565b6000828152602081815260408083206001600160a01b038516845290915290205460ff16156200031d576000828152602081815260408083206001600160a01b03851684529091529020805460ff191690556200090962000321565b6001600160a01b0316816001600160a01b0316837ff6391f5c32d9c69d2a47ea670b442974b53935d1edc7fd64eb21e047a839171b60405160405180910390a45050565b6000620006eb836001600160a01b038416620009b6565b6000818152600183016020526040812054620009ad57508154600181810184556000848152602080822090930184905584548482528286019093526040902091909155620006ee565b506000620006ee565b6000818152600183016020526040812054801562000aaf576000620009dd60018362000e7c565b8554909150600090620009f39060019062000e7c565b905081811462000a5f57600086600001828154811062000a175762000a1762000e4c565b906000526020600020015490508087600001848154811062000a3d5762000a3d62000e4c565b6000918252602080832090910192909255918252600188019052604090208390555b855486908062000a735762000a7362000e96565b600190038181906000526020600020016000905590558560010160008681526020019081526020016000206000905560019350505050620006ee565b6000915050620006ee565b82805462000ac89062000d0e565b90600052602060002090601f01602090048101928262000aec576000855562000b37565b82601f1062000b0757805160ff191683800117855562000b37565b8280016001018555821562000b37579182015b8281111562000b3757825182559160200191906001019062000b1a565b5062000b4592915062000b49565b5090565b5b8082111562000b45576000815560010162000b4a565b634e487b7160e01b600052604160045260246000fd5b60005b8381101562000b9357818101518382015260200162000b79565b8381111562000ba3576000848401525b50505050565b600082601f83011262000bbb57600080fd5b81516001600160401b038082111562000bd85762000bd862000b60565b604051601f8301601f19908116603f0116810190828211818310171562000c035762000c0362000b60565b8160405283815286602085880101111562000c1d57600080fd5b62000c3084602083016020890162000b76565b9695505050505050565b80516001600160a01b038116811462000c5257600080fd5b919050565b600080600080600060a0868803121562000c7057600080fd5b85516001600160401b038082111562000c8857600080fd5b62000c9689838a0162000ba9565b9650602088015191508082111562000cad57600080fd5b62000cbb89838a0162000ba9565b9550604088015191508082111562000cd257600080fd5b5062000ce18882890162000ba9565b93505062000cf26060870162000c3a565b915062000d026080870162000c3a565b90509295509295909350565b600181811c9082168062000d2357607f821691505b6020821081141562000d4557634e487b7160e01b600052602260045260246000fd5b50919050565b7f416363657373436f6e74726f6c3a206163636f756e742000000000000000000081526000835162000d8581601785016020880162000b76565b7001034b99036b4b9b9b4b733903937b6329607d1b601791840191820152835162000db881602884016020880162000b76565b01602801949350505050565b602081526000825180602084015262000de581604085016020870162000b76565b601f01601f19169190910160400192915050565b634e487b7160e01b600052601160045260246000fd5b600081600019048311821515161562000e2c5762000e2c62000df9565b500290565b6000821982111562000e475762000e4762000df9565b500190565b634e487b7160e01b600052603260045260246000fd5b60008162000e745762000e7462000df9565b506000190190565b60008282101562000e915762000e9162000df9565b500390565b634e487b7160e01b600052603160045260246000fd5b6151e48062000ebc6000396000f3fe6080604052600436106103965760003560e01c80637f77f574116101dc578063ca15c87311610102578063d547741f116100a0578063f242432a1161006f578063f242432a14610bba578063f5298aca14610bda578063f5b541a614610bfa578063f851a44014610c1c57600080fd5b8063d547741f14610b38578063e031742114610b58578063e63ab1e914610b78578063e985e9c514610b9a57600080fd5b8063d26ea6c0116100dc578063d26ea6c014610aa0578063d2a6b51a14610ac0578063d48e638a14610ae0578063d539139314610b1657600080fd5b8063ca15c87314610a2a578063cd53d08e14610a4a578063cd7c032614610a8057600080fd5b80639713c8071161017a578063b085451c11610149578063b085451c1461099d578063b48ab8b6146109ca578063b6ccd0e0146109ea578063bd85b039146109fd57600080fd5b80639713c8071461091b57806399213a281461093b578063a217fddf14610968578063a22cb4651461097d57600080fd5b80638f283970116101b65780638f283970146108a65780639010d07c146108c657806391d14854146108e657806395d89b411461090657600080fd5b80637f77f574146107f55780638456cb591461086f5780638aeda25a1461088457600080fd5b80632d0335ab116102c15780634e1273f41161025f5780635c975abb1161022e5780635c975abb146107705780636b20c454146107885780636cb07567146107a8578063731133e9146107d557600080fd5b80634e1273f4146106cb5780634f558e79146106f857806351cff8d914610718578063570ca7351461073857600080fd5b80633408e4701161029b5780633408e4701461066357806336568abe146106765780633adf80b4146106965780633f4ba83a146106b657600080fd5b80632d0335ab146105ed5780632eb2c2d6146106235780632f2ff15d1461064357600080fd5b80630f7e59701161033957806320379ee51161030857806320379ee51461053c578063248a9ca3146105515780632693ebf2146105815780632a55205a146105ae57600080fd5b80630f7e5970146104a2578063177ed0f3146104cf5780631df284e9146104fc5780631f7fdffa1461051c57600080fd5b806306394c9b1161037557806306394c9b1461042057806306fdde03146104405780630c53c51c146104625780630e89341c1461048257600080fd5b8062fdd58e1461039b57806301ffc9a7146103ce57806302fe5305146103fe575b600080fd5b3480156103a757600080fd5b506103bb6103b6366004614166565b610c3c565b6040519081526020015b60405180910390f35b3480156103da57600080fd5b506103ee6103e93660046141a8565b610cd8565b60405190151581526020016103c5565b34801561040a57600080fd5b5061041e61041936600461427a565b610cfd565b005b34801561042c57600080fd5b5061041e61043b3660046142b6565b610daf565b34801561044c57600080fd5b50610455610fca565b6040516103c5919061432b565b34801561046e57600080fd5b5061045561047d36600461433e565b611058565b34801561048e57600080fd5b5061045561049d3660046143bb565b61122b565b3480156104ae57600080fd5b50610455604051806040016040528060018152602001603160f81b81525081565b3480156104db57600080fd5b506103bb6104ea3660046143bb565b60009081526011602052604090205490565b34801561050857600080fd5b506103bb6105173660046143d4565b6113de565b34801561052857600080fd5b5061041e610537366004614504565b611642565b34801561054857600080fd5b506006546103bb565b34801561055d57600080fd5b506103bb61056c3660046143bb565b60009081526020819052604090206001015490565b34801561058d57600080fd5b506103bb61059c3660046143bb565b600d6020526000908152604090205481565b3480156105ba57600080fd5b506105ce6105c936600461459e565b6116e0565b604080516001600160a01b0390931683526020830191909152016103c5565b3480156105f957600080fd5b506103bb6106083660046142b6565b6001600160a01b031660009081526007602052604090205490565b34801561062f57600080fd5b5061041e61063e3660046145c0565b6117a2565b34801561064f57600080fd5b5061041e61065e36600461466d565b61184b565b34801561066f57600080fd5b50466103bb565b34801561068257600080fd5b5061041e61069136600461466d565b61187d565b3480156106a257600080fd5b5061041e6106b136600461469d565b61190b565b3480156106c257600080fd5b5061041e6119e0565b3480156106d757600080fd5b506106eb6106e63660046146d9565b611a76565b6040516103c591906147d6565b34801561070457600080fd5b506103ee6107133660046143bb565b611b9f565b34801561072457600080fd5b5061041e6107333660046142b6565b611bbe565b34801561074457600080fd5b50600a54610758906001600160a01b031681565b6040516001600160a01b0390911681526020016103c5565b34801561077c57600080fd5b5060055460ff166103ee565b34801561079457600080fd5b5061041e6107a33660046147e9565b611d4b565b3480156107b457600080fd5b506103bb6107c33660046143bb565b60116020526000908152604090205481565b3480156107e157600080fd5b5061041e6107f036600461485e565b611da0565b34801561080157600080fd5b506108446108103660046143bb565b6013602052600090815260409020546001600160a01b03811690600160a01b810462ffffff1690600160b81b900460ff1683565b604080516001600160a01b03909416845262ffffff90921660208401521515908201526060016103c5565b34801561087b57600080fd5b5061041e611f69565b34801561089057600080fd5b506103bb60008051602061512f83398151915281565b3480156108b257600080fd5b5061041e6108c13660046142b6565b611ffd565b3480156108d257600080fd5b506107586108e136600461459e565b61213f565b3480156108f257600080fd5b506103ee61090136600461466d565b612157565b34801561091257600080fd5b50610455612180565b34801561092757600080fd5b5061041e6109363660046148b4565b61218d565b34801561094757600080fd5b506103bb6109563660046143bb565b60126020526000908152604090205481565b34801561097457600080fd5b506103bb600081565b34801561098957600080fd5b5061041e6109983660046148ec565b612307565b3480156109a957600080fd5b506103bb6109b83660046143bb565b60009081526012602052604090205490565b3480156109d657600080fd5b5061041e6109e5366004614504565b612319565b61041e6109f836600461485e565b6124be565b348015610a0957600080fd5b506103bb610a183660046143bb565b6000908152600d602052604090205490565b348015610a3657600080fd5b506103bb610a453660046143bb565b6126a0565b348015610a5657600080fd5b50610758610a653660046143bb565b600c602052600090815260409020546001600160a01b031681565b348015610a8c57600080fd5b50600b54610758906001600160a01b031681565b348015610aac57600080fd5b5061041e610abb3660046142b6565b6126b7565b348015610acc57600080fd5b5061041e610adb36600461491f565b6127cf565b348015610aec57600080fd5b50610758610afb3660046143bb565b6000908152600c60205260409020546001600160a01b031690565b348015610b2257600080fd5b506103bb60008051602061518f83398151915281565b348015610b4457600080fd5b5061041e610b5336600461466d565b6128ff565b348015610b6457600080fd5b5061041e610b7336600461459e565b612927565b348015610b8457600080fd5b506103bb60008051602061516f83398151915281565b348015610ba657600080fd5b506103ee610bb5366004614964565b6129f2565b348015610bc657600080fd5b5061041e610bd5366004614992565b612ac2565b348015610be657600080fd5b5061041e610bf53660046149fa565b612b19565b348015610c0657600080fd5b506103bb60008051602061514f83398151915281565b348015610c2857600080fd5b50600954610758906001600160a01b031681565b60006001600160a01b038316610cad5760405162461bcd60e51b815260206004820152602b60248201527f455243313135353a2062616c616e636520717565727920666f7220746865207a60448201526a65726f206164647265737360a81b60648201526084015b60405180910390fd5b5060008181526002602090815260408083206001600160a01b03861684529091529020545b92915050565b60006001600160e01b03198216636a4731c560e11b1480610cd25750610cd282612e98565b600a546001600160a01b0316610d11612ea3565b6001600160a01b031614610d375760405162461bcd60e51b8152600401610ca490614a2f565b610d5160008051602061514f833981519152610901612ea3565b610d6d5760405162461bcd60e51b8152600401610ca490614a2f565b610d8760008051602061512f833981519152610901612ea3565b610da35760405162461bcd60e51b8152600401610ca490614a56565b610dac81612eb2565b50565b6009546001600160a01b0316610dc3612ea3565b6001600160a01b031614610de95760405162461bcd60e51b8152600401610ca490614a7c565b610df66000610901612ea3565b610e125760405162461bcd60e51b8152600401610ca490614a7c565b6009546001600160a01b0316610e26612ea3565b6001600160a01b031614610e4c5760405162461bcd60e51b8152600401610ca490614aa0565b610e596000610901612ea3565b610e755760405162461bcd60e51b8152600401610ca490614aa0565b600a80546001600160a01b038381166001600160a01b0319831681179093551690610eaf9060008051602061514f8339815191529061184b565b600a54610ed49060008051602061512f833981519152906001600160a01b031661184b565b600a54610ef99060008051602061518f833981519152906001600160a01b031661184b565b600a54610f1e9060008051602061516f833981519152906001600160a01b031661184b565b610f3660008051602061514f833981519152826128ff565b610f4e60008051602061512f833981519152826128ff565b610f6660008051602061518f833981519152826128ff565b610f7e60008051602061516f833981519152826128ff565b600a54604080516001600160a01b03808516825290921660208301527fd58299b712891143e76310d5e664c4203c940a67db37cf856bdaa3c5c76a802c91015b60405180910390a15050565b600f8054610fd790614ac3565b80601f016020809104026020016040519081016040528092919081815260200182805461100390614ac3565b80156110505780601f1061102557610100808354040283529160200191611050565b820191906000526020600020905b81548152906001019060200180831161103357829003601f168201915b505050505081565b60408051606081810183526001600160a01b038816600081815260076020908152908590205484528301529181018690526110968782878787612ec5565b6110ec5760405162461bcd60e51b815260206004820152602160248201527f5369676e657220616e64207369676e617475726520646f206e6f74206d6174636044820152600d60fb1b6064820152608401610ca4565b6001600160a01b038716600090815260076020526040902054611110906001614b0e565b6001600160a01b0388166000908152600760205260409081902091909155517f5845892132946850460bff5a0083f71031bc5bf9aadcd40f1de79423eac9b10b9061116090899033908a90614b26565b60405180910390a1600080306001600160a01b0316888a604051602001611188929190614b5b565b60408051601f19818403018152908290526111a291614b92565b6000604051808303816000865af19150503d80600081146111df576040519150601f19603f3d011682016040523d82523d6000602084013e6111e4565b606091505b50915091508161121f5760405162461bcd60e51b8152600401610ca49060208082526004908201526319985a5b60e21b604082015260600190565b98975050505050505050565b6000818152600c60205260409020546060906001600160a01b03166112865760405162461bcd60e51b81526020600482015260116024820152702727a722ac24a9aa22a72a2faa27a5a2a760791b6044820152606401610ca4565b6000828152600e60205260408120805461129f90614ac3565b80601f01602080910402602001604051908101604052809291908181526020018280546112cb90614ac3565b80156113185780601f106112ed57610100808354040283529160200191611318565b820191906000526020600020905b8154815290600101906020018083116112fb57829003601f168201915b505050505090506000815111156113c8576000838152600e60205260409020805461134290614ac3565b80601f016020809104026020016040519081016040528092919081815260200182805461136e90614ac3565b80156113bb5780601f10611390576101008083540402835291602001916113bb565b820191906000526020600020905b81548152906001019060200180831161139e57829003601f168201915b5050505050915050919050565b6113d183612f93565b9392505050565b50919050565b600a546000906001600160a01b03166113f5612ea3565b6001600160a01b03161461141b5760405162461bcd60e51b8152600401610ca490614a2f565b61143560008051602061514f833981519152610901612ea3565b6114515760405162461bcd60e51b8152600401610ca490614a2f565b61146b60008051602061512f833981519152610901612ea3565b6114a55760405162461bcd60e51b815260206004820152600b60248201526a2727aa2fa1a922a0aa27a960a91b6044820152606401610ca4565b6000878152600c60205260409020546001600160a01b0316156114fa5760405162461bcd60e51b815260206004820152600d60248201526c1053149150511657d1561254d5609a1b6044820152606401610ca4565b811561152057818611156115205760405162461bcd60e51b8152600401610ca490614bae565b611528612ea3565b6000888152600c6020526040902080546001600160a01b0319166001600160a01b03929092169190911790558451156115b4576000878152600e60209081526040909120865161157a928801906140b8565b50867f6bb7ff708619ba0610cba295a58592e0451dee2622938c8755667688daf3529b866040516115ab919061432b565b60405180910390a25b6115c088888887613027565b6000878152600d6020908152604080832089905560118252808320869055601290915290819020839055600a5490517fdfd613b842aef92c704876cb5eb94df518752614cc459d562f47af89b9be91269161162e918b918b918b918b916001600160a01b0390911690614bd1565b60405180910390a150949695505050505050565b61165c60008051602061518f833981519152610901612ea3565b6116ce5760405162461bcd60e51b815260206004820152603860248201527f455243313135355072657365744d696e7465725061757365723a206d7573742060448201527f68617665206d696e74657220726f6c6520746f206d696e7400000000000000006064820152608401610ca4565b6116da8484848461310a565b50505050565b6000828152601360209081526040808320815160608101835290546001600160a01b0381168252600160a01b810462ffffff1693820193909352600160b81b90920460ff16158015918301919091528291906117645780516020820151909350612710906117539062ffffff1686614c14565b61175d9190614c33565b915061179a565b6000858152600c60205260409020546001600160a01b0316925061271061178d856101f4614c14565b6117979190614c33565b91505b509250929050565b6117aa612ea3565b6001600160a01b0316856001600160a01b031614806117d057506117d085610bb5612ea3565b6118375760405162461bcd60e51b815260206004820152603260248201527f455243313135353a207472616e736665722063616c6c6572206973206e6f74206044820152711bdddb995c881b9bdc88185c1c1c9bdd995960721b6064820152608401610ca4565b6118448585858585613270565b5050505050565b60008281526020819052604090206001015461186e81611869612ea3565b613428565b611878838361348c565b505050565b611885612ea3565b6001600160a01b0316816001600160a01b0316146118fd5760405162461bcd60e51b815260206004820152602f60248201527f416363657373436f6e74726f6c3a2063616e206f6e6c792072656e6f756e636560448201526e103937b632b9903337b91039b2b63360891b6064820152608401610ca4565b61190782826134ae565b5050565b81611914612ea3565b6000828152600c60205260409020546001600160a01b0390811691161461194d5760405162461bcd60e51b8152600401610ca490614a56565b61196760008051602061512f833981519152610901612ea3565b6119835760405162461bcd60e51b8152600401610ca490614a56565b6000838152600e6020908152604090912083516119a2928501906140b8565b50827f6bb7ff708619ba0610cba295a58592e0451dee2622938c8755667688daf3529b836040516119d3919061432b565b60405180910390a2505050565b6119fa60008051602061516f833981519152610901612ea3565b611a6c5760405162461bcd60e51b815260206004820152603b60248201527f455243313135355072657365744d696e7465725061757365723a206d7573742060448201527f686176652070617573657220726f6c6520746f20756e706175736500000000006064820152608401610ca4565b611a746134d0565b565b60608151835114611adb5760405162461bcd60e51b815260206004820152602960248201527f455243313135353a206163636f756e747320616e6420696473206c656e677468604482015268040dad2e6dac2e8c6d60bb1b6064820152608401610ca4565b600083516001600160401b03811115611af657611af66141c5565b604051908082528060200260200182016040528015611b1f578160200160208202803683370190505b50905060005b8451811015611b9757611b6a858281518110611b4357611b43614c55565b6020026020010151858381518110611b5d57611b5d614c55565b6020026020010151610c3c565b828281518110611b7c57611b7c614c55565b6020908102919091010152611b9081614c6b565b9050611b25565b509392505050565b6000818152600c60205260408120546001600160a01b03161515610cd2565b60026008541415611c115760405162461bcd60e51b815260206004820152601f60248201527f5265656e7472616e637947756172643a207265656e7472616e742063616c6c006044820152606401610ca4565b60026008556009546001600160a01b0316611c2a612ea3565b6001600160a01b031614611c505760405162461bcd60e51b8152600401610ca490614a7c565b611c5d6000610901612ea3565b611c795760405162461bcd60e51b8152600401610ca490614a7c565b60004711611cb65760405162461bcd60e51b815260206004820152600a60248201526909c9ea8be8a9c9eaa8e960b31b6044820152606401610ca4565b6000816001600160a01b03164760405160006040518083038185875af1925050503d8060008114611d03576040519150601f19603f3d011682016040523d82523d6000602084013e611d08565b606091505b5050905080611d425760405162461bcd60e51b8152600401610ca4906020808252600490820152631190525360e21b604082015260600190565b50506001600855565b611d53612ea3565b6001600160a01b0316836001600160a01b03161480611d795750611d7983610bb5612ea3565b611d955760405162461bcd60e51b8152600401610ca490614c86565b611878838383613569565b82611da9612ea3565b6000828152600c60205260409020546001600160a01b03908116911614611de25760405162461bcd60e51b8152600401610ca490614a56565b6000848152600c60205260409020546001600160a01b0316611e375760405162461bcd60e51b815260206004820152600e60248201526d2727a722ac24a9aa2faa27a5a2a760911b6044820152606401610ca4565b611e5160008051602061518f833981519152610901612ea3565b611e8a5760405162461bcd60e51b815260206004820152600a6024820152692727aa2fa6a4a72a22a960b11b6044820152606401610ca4565b60008481526012602052604090205415611ee157600084815260126020908152604080832054600d90925290912054611ec39085613701565b1115611ee15760405162461bcd60e51b8152600401610ca490614bae565b611eed85858585613027565b6000848152600d6020526040902054611f069084613701565b6000858152600d60209081526040918290209290925580516001600160a01b038816815291820186905281018490527f8069ef4945469d029cc32e222031bccdc99b2eaaf4ee374cd268012f7ddee9079060600160405180910390a15050505050565b611f8360008051602061516f833981519152610901612ea3565b611ff55760405162461bcd60e51b815260206004820152603960248201527f455243313135355072657365744d696e7465725061757365723a206d7573742060448201527f686176652070617573657220726f6c6520746f207061757365000000000000006064820152608401610ca4565b611a7461370d565b6009546001600160a01b0316612011612ea3565b6001600160a01b0316146120375760405162461bcd60e51b8152600401610ca490614a7c565b6120446000610901612ea3565b6120605760405162461bcd60e51b8152600401610ca490614a7c565b6009546001600160a01b0316612074612ea3565b6001600160a01b03161461209a5760405162461bcd60e51b8152600401610ca490614aa0565b6120a76000610901612ea3565b6120c35760405162461bcd60e51b8152600401610ca490614aa0565b600980546001600160a01b038381166001600160a01b03198316811790935516906120f09060009061184b565b6120fb6000826128ff565b600954604080516001600160a01b03808516825290921660208301527f7e644d79422f17c01e4894b5f4f588d331ebfa28653d42ae832dc59e38c9798f9101610fbe565b60008281526001602052604081206113d19083613789565b6000918252602082815260408084206001600160a01b0393909316845291905290205460ff1690565b60108054610fd790614ac3565b600a546001600160a01b03166121a1612ea3565b6001600160a01b0316146121c75760405162461bcd60e51b8152600401610ca490614a2f565b6121e160008051602061514f833981519152610901612ea3565b6121fd5760405162461bcd60e51b8152600401610ca490614a2f565b61221760008051602061512f833981519152610901612ea3565b6122515760405162461bcd60e51b815260206004820152600b60248201526a2727aa2fa1a922a0aa27a960a91b6044820152606401610ca4565b61271081111561228e5760405162461bcd60e51b81526020600482015260086024820152670a89e9ebe90928e960c31b6044820152606401610ca4565b604080516060810182526001600160a01b03938416815262ffffff928316602080830191825260018385019081526000978852601390915292909520905181549551925194166001600160b81b031990951694909417600160a01b91909216021760ff60b81b1916600160b81b91151591909102179055565b611907612312612ea3565b8383613795565b600a546001600160a01b031661232d612ea3565b6001600160a01b0316146123535760405162461bcd60e51b8152600401610ca490614a2f565b61236d60008051602061514f833981519152610901612ea3565b6123895760405162461bcd60e51b8152600401610ca490614a2f565b6123a360008051602061518f833981519152610901612ea3565b6123dc5760405162461bcd60e51b815260206004820152600a6024820152692727aa2fa6a4a72a22a960b11b6044820152606401610ca4565b60005b83518110156124b15760008482815181106123fc576123fc614c55565b6020026020010151905061240e612ea3565b6000828152600c60205260409020546001600160a01b039081169116146124475760405162461bcd60e51b8152600401610ca490614a56565b600084838151811061245b5761245b614c55565b6020026020010151905061248b81600d60008581526020019081526020016000205461370190919063ffffffff16565b6000928352600d60205260409092209190915550806124a981614c6b565b9150506123df565b506116da8484848461310a565b6000838152600c60205260409020546001600160a01b03166125135760405162461bcd60e51b815260206004820152600e60248201526d2727a722ac24a9aa2faa27a5a2a760911b6044820152606401610ca4565b6000838152601160205260409020541561258257600083815260116020526040902054612541908390614c14565b34101561257d5760405162461bcd60e51b815260206004820152600a6024820152694d4953535f505249434560b01b6044820152606401610ca4565b6125c2565b60018211156125c25760405162461bcd60e51b815260206004820152600c60248201526b4d41585f5155414e5449545960a01b6044820152606401610ca4565b6000838152601260205260409020541561261957600083815260126020908152604080832054600d909252909120546125fb9084613701565b11156126195760405162461bcd60e51b8152600401610ca490614bae565b61262584848484613027565b6000838152600d602052604090205461263e9083613701565b6000848152600d60209081526040918290209290925580516001600160a01b038716815291820185905281018390527f8069ef4945469d029cc32e222031bccdc99b2eaaf4ee374cd268012f7ddee9079060600160405180910390a150505050565b6000818152600160205260408120610cd290613876565b600a546001600160a01b03166126cb612ea3565b6001600160a01b0316146126f15760405162461bcd60e51b8152600401610ca490614a2f565b61270b60008051602061514f833981519152610901612ea3565b6127275760405162461bcd60e51b8152600401610ca490614a2f565b600b546001600160a01b03828116911614156127755760405162461bcd60e51b815260206004820152600d60248201526c141493d61657d2539590531251609a1b6044820152606401610ca4565b600b80546001600160a01b038381166001600160a01b031983168117909355604080519190921680825260208201939093527ffc15895015d07bcb2ae0459d79c7bfb40d36feedb31f55cc34e3ef404c86c5779101610fbe565b600a546001600160a01b03166127e3612ea3565b6001600160a01b0316146128095760405162461bcd60e51b8152600401610ca490614a2f565b61282360008051602061514f833981519152610901612ea3565b61283f5760405162461bcd60e51b8152600401610ca490614a2f565b6001600160a01b0382166128885760405162461bcd60e51b815260206004820152601060248201526f24a72b20a624a22fa0a2222922a9a99760811b6044820152606401610ca4565b6128a060008051602061512f8339815191528361348c565b6128b860008051602061518f8339815191528361348c565b60005b81518110156118785760008282815181106128d8576128d8614c55565b602002602001015190506128ec8482613880565b50806128f781614c6b565b9150506128bb565b60008281526020819052604090206001015461291d81611869612ea3565b61187883836134ae565b600a546001600160a01b031661293b612ea3565b6001600160a01b0316146129615760405162461bcd60e51b8152600401610ca490614a2f565b61297b60008051602061514f833981519152610901612ea3565b6129975760405162461bcd60e51b8152600401610ca490614a2f565b60008281526011602090815260409182902080549084905582518581529182018190529181018390527f2bce37c591c5b0d254c3056688b080a088f160fff82b6e79f456c8a20d5570f69060600160405180910390a1505050565b600b546000906001600160a01b031615612a9457600b5460405163c455279160e01b81526001600160a01b03858116600483015291821691841690829063c455279190602401602060405180830381865afa158015612a55573d6000803e3d6000fd5b505050506040513d601f19601f82011682018060405250810190612a799190614ccf565b6001600160a01b03161415612a92576001915050610cd2565b505b6001600160a01b0380841660009081526003602090815260408083209386168352929052205460ff166113d1565b612aca612ea3565b6001600160a01b0316856001600160a01b03161480612af05750612af085610bb5612ea3565b612b0c5760405162461bcd60e51b8152600401610ca490614c86565b61184485858585856138f1565b612b21612ea3565b6001600160a01b0316836001600160a01b03161480612b475750612b4783610bb5612ea3565b612b635760405162461bcd60e51b8152600401610ca490614c86565b611878838383613a1d565b600033301415612bc557600080368080601f0160208091040260200160405190810160405280939291908181526020018383808284376000920191909152505050503601516001600160a01b03169150612bc89050565b50335b90565b612bd58282612157565b611907576000828152602081815260408083206001600160a01b03851684529091529020805460ff19166001179055612c0c612ea3565b6001600160a01b0316816001600160a01b0316837f2f8788117e7eff1d82e926ec794901d17c78024a50270940304540a733656f0d60405160405180910390a45050565b60006113d1836001600160a01b038416613b2d565b60606000612c74836002614c14565b612c7f906002614b0e565b6001600160401b03811115612c9657612c966141c5565b6040519080825280601f01601f191660200182016040528015612cc0576020820181803683370190505b509050600360fc1b81600081518110612cdb57612cdb614c55565b60200101906001600160f81b031916908160001a905350600f60fb1b81600181518110612d0a57612d0a614c55565b60200101906001600160f81b031916908160001a9053506000612d2e846002614c14565b612d39906001614b0e565b90505b6001811115612db1576f181899199a1a9b1b9c1cb0b131b232b360811b85600f1660108110612d6d57612d6d614c55565b1a60f81b828281518110612d8357612d83614c55565b60200101906001600160f81b031916908160001a90535060049490941c93612daa81614cec565b9050612d3c565b5083156113d15760405162461bcd60e51b815260206004820181905260248201527f537472696e67733a20686578206c656e67746820696e73756666696369656e746044820152606401610ca4565b612e0a8282612157565b15611907576000828152602081815260408083206001600160a01b03851684529091529020805460ff19169055612e3f612ea3565b6001600160a01b0316816001600160a01b0316837ff6391f5c32d9c69d2a47ea670b442974b53935d1edc7fd64eb21e047a839171b60405160405180910390a45050565b60006113d1836001600160a01b038416613b7c565b6000610cd282613c6f565b6000612ead612b6e565b905090565b80516119079060049060208401906140b8565b60006001600160a01b038616612f095760405162461bcd60e51b815260206004820152600960248201526824a72fa9a4a3a722a960b91b6044820152606401610ca4565b6001612f1c612f1787613caf565b613d2c565b6040805160008152602081018083529290925260ff851690820152606081018690526080810185905260a0016020604051602081039080840390855afa158015612f6a573d6000803e3d6000fd5b505050602060405103516001600160a01b0316866001600160a01b031614905095945050505050565b606060048054612fa290614ac3565b80601f0160208091040260200160405190810160405280929190818152602001828054612fce90614ac3565b801561301b5780601f10612ff05761010080835404028352916020019161301b565b820191906000526020600020905b815481529060010190602001808311612ffe57829003601f168201915b50505050509050919050565b6001600160a01b03841661304d5760405162461bcd60e51b8152600401610ca490614d03565b6000613057612ea3565b90506130788160008761306988613d5c565b61307288613d5c565b87613da7565b60008481526002602090815260408083206001600160a01b0389168452909152812080548592906130aa908490614b0e565b909155505060408051858152602081018590526001600160a01b0380881692600092918516917fc3d58168c5ae7397731d063d5bbf3d657854427343f4c083240f7aacaa2d0f62910160405180910390a461184481600087878787613db5565b6001600160a01b0384166131305760405162461bcd60e51b8152600401610ca490614d03565b81518351146131515760405162461bcd60e51b8152600401610ca490614d44565b600061315b612ea3565b905061316c81600087878787613da7565b60005b84518110156132085783818151811061318a5761318a614c55565b6020026020010151600260008784815181106131a8576131a8614c55565b602002602001015181526020019081526020016000206000886001600160a01b03166001600160a01b0316815260200190815260200160002060008282546131f09190614b0e565b9091555081905061320081614c6b565b91505061316f565b50846001600160a01b031660006001600160a01b0316826001600160a01b03167f4a39dc06d4c0dbc64b70af90fd698a233a518aa5d07e595d983b8c0526c8f7fb8787604051613259929190614d8c565b60405180910390a461184481600087878787613f11565b81518351146132915760405162461bcd60e51b8152600401610ca490614d44565b6001600160a01b0384166132b75760405162461bcd60e51b8152600401610ca490614db1565b60006132c1612ea3565b90506132d1818787878787613da7565b60005b84518110156133ba5760008582815181106132f1576132f1614c55565b60200260200101519050600085838151811061330f5761330f614c55565b60209081029190910181015160008481526002835260408082206001600160a01b038e1683529093529190912054909150818110156133605760405162461bcd60e51b8152600401610ca490614df6565b60008381526002602090815260408083206001600160a01b038e8116855292528083208585039055908b1682528120805484929061339f908490614b0e565b92505081905550505050806133b390614c6b565b90506132d4565b50846001600160a01b0316866001600160a01b0316826001600160a01b03167f4a39dc06d4c0dbc64b70af90fd698a233a518aa5d07e595d983b8c0526c8f7fb878760405161340a929190614d8c565b60405180910390a4613420818787878787613f11565b505050505050565b6134328282612157565b6119075761344a816001600160a01b03166014612c65565b613455836020612c65565b604051602001613466929190614e40565b60408051601f198184030181529082905262461bcd60e51b8252610ca49160040161432b565b6134968282612bcb565b60008281526001602052604090206118789082612c50565b6134b88282612e00565b60008281526001602052604090206118789082612e83565b60055460ff166135195760405162461bcd60e51b815260206004820152601460248201527314185d5cd8589b194e881b9bdd081c185d5cd95960621b6044820152606401610ca4565b6005805460ff191690557f5db9ee0a495bf2e6ff9c91a7834c1ba4fdd244a5e8aa4e537bd38aeae4b073aa61354c612ea3565b6040516001600160a01b03909116815260200160405180910390a1565b6001600160a01b03831661358f5760405162461bcd60e51b8152600401610ca490614eb5565b80518251146135b05760405162461bcd60e51b8152600401610ca490614d44565b60006135ba612ea3565b90506135da81856000868660405180602001604052806000815250613da7565b60005b83518110156136a25760008482815181106135fa576135fa614c55565b60200260200101519050600084838151811061361857613618614c55565b60209081029190910181015160008481526002835260408082206001600160a01b038c1683529093529190912054909150818110156136695760405162461bcd60e51b8152600401610ca490614ef8565b60009283526002602090815260408085206001600160a01b038b168652909152909220910390558061369a81614c6b565b9150506135dd565b5060006001600160a01b0316846001600160a01b0316826001600160a01b03167f4a39dc06d4c0dbc64b70af90fd698a233a518aa5d07e595d983b8c0526c8f7fb86866040516136f3929190614d8c565b60405180910390a450505050565b60006113d18284614b0e565b60055460ff16156137535760405162461bcd60e51b815260206004820152601060248201526f14185d5cd8589b194e881c185d5cd95960821b6044820152606401610ca4565b6005805460ff191660011790557f62e78cea01bee320cd4e420270b5ea74000d11b0c9f74754ebdbfc544b05a25861354c612ea3565b60006113d18383613fcc565b816001600160a01b0316836001600160a01b031614156138095760405162461bcd60e51b815260206004820152602960248201527f455243313135353a2073657474696e6720617070726f76616c20737461747573604482015268103337b91039b2b63360b91b6064820152608401610ca4565b6001600160a01b03838116600081815260036020908152604080832094871680845294825291829020805460ff191686151590811790915591519182527f17307eab39ab6107e8899845ad3d59bd9653f200f220920489ca2b5937696c31910160405180910390a3505050565b6000610cd2825490565b80613889612ea3565b6000828152600c60205260409020546001600160a01b039081169116146138c25760405162461bcd60e51b8152600401610ca490614a56565b506000908152600c6020526040902080546001600160a01b0319166001600160a01b0392909216919091179055565b6001600160a01b0384166139175760405162461bcd60e51b8152600401610ca490614db1565b6000613921612ea3565b905061393281878761306988613d5c565b60008481526002602090815260408083206001600160a01b038a168452909152902054838110156139755760405162461bcd60e51b8152600401610ca490614df6565b60008581526002602090815260408083206001600160a01b038b81168552925280832087850390559088168252812080548692906139b4908490614b0e565b909155505060408051868152602081018690526001600160a01b03808916928a821692918616917fc3d58168c5ae7397731d063d5bbf3d657854427343f4c083240f7aacaa2d0f62910160405180910390a4613a14828888888888613db5565b50505050505050565b6001600160a01b038316613a435760405162461bcd60e51b8152600401610ca490614eb5565b6000613a4d612ea3565b9050613a7d81856000613a5f87613d5c565b613a6887613d5c565b60405180602001604052806000815250613da7565b60008381526002602090815260408083206001600160a01b038816845290915290205482811015613ac05760405162461bcd60e51b8152600401610ca490614ef8565b60008481526002602090815260408083206001600160a01b03898116808652918452828520888703905582518981529384018890529092908616917fc3d58168c5ae7397731d063d5bbf3d657854427343f4c083240f7aacaa2d0f62910160405180910390a45050505050565b6000818152600183016020526040812054613b7457508154600181810184556000848152602080822090930184905584548482528286019093526040902091909155610cd2565b506000610cd2565b60008181526001830160205260408120548015613c65576000613ba0600183614f3c565b8554909150600090613bb490600190614f3c565b9050818114613c19576000866000018281548110613bd457613bd4614c55565b9060005260206000200154905080876000018481548110613bf757613bf7614c55565b6000918252602080832090910192909255918252600188019052604090208390555b8554869080613c2a57613c2a614f53565b600190038181906000526020600020016000905590558560010160008681526020019081526020016000206000905560019350505050610cd2565b6000915050610cd2565b60006001600160e01b03198216636cdb3d1360e11b1480613ca057506001600160e01b031982166303a24d0760e21b145b80610cd25750610cd282613ff6565b600060405180606001604052806025815260200161510a6025913980516020918201208351848301516040808701518051908601209051613d0f950193845260208401929092526001600160a01b03166040830152606082015260800190565b604051602081830303815290604052805190602001209050919050565b6000613d3760065490565b60405161190160f01b6020820152602281019190915260428101839052606201613d0f565b60408051600180825281830190925260609160009190602080830190803683370190505090508281600081518110613d9657613d96614c55565b602090810291909101015292915050565b61342086868686868661401b565b6001600160a01b0384163b156134205760405163f23a6e6160e01b81526001600160a01b0385169063f23a6e6190613df99089908990889088908890600401614f69565b6020604051808303816000875af1925050508015613e34575060408051601f3d908101601f19168201909252613e3191810190614fae565b60015b613ee157613e40614fcb565b806308c379a01415613e7a5750613e55614fe6565b80613e605750613e7c565b8060405162461bcd60e51b8152600401610ca4919061432b565b505b60405162461bcd60e51b815260206004820152603460248201527f455243313135353a207472616e7366657220746f206e6f6e20455243313135356044820152732932b1b2b4bb32b91034b6b83632b6b2b73a32b960611b6064820152608401610ca4565b6001600160e01b0319811663f23a6e6160e01b14613a145760405162461bcd60e51b8152600401610ca49061506f565b6001600160a01b0384163b156134205760405163bc197c8160e01b81526001600160a01b0385169063bc197c8190613f5590899089908890889088906004016150b7565b6020604051808303816000875af1925050508015613f90575060408051601f3d908101601f19168201909252613f8d91810190614fae565b60015b613f9c57613e40614fcb565b6001600160e01b0319811663bc197c8160e01b14613a145760405162461bcd60e51b8152600401610ca49061506f565b6000826000018281548110613fe357613fe3614c55565b9060005260206000200154905092915050565b60006001600160e01b03198216635a05180f60e01b1480610cd25750610cd282614083565b60055460ff16156134205760405162461bcd60e51b815260206004820152602c60248201527f455243313135355061757361626c653a20746f6b656e207472616e736665722060448201526b1dda1a5b19481c185d5cd95960a21b6064820152608401610ca4565b60006001600160e01b03198216637965db0b60e01b1480610cd257506301ffc9a760e01b6001600160e01b0319831614610cd2565b8280546140c490614ac3565b90600052602060002090601f0160209004810192826140e6576000855561412c565b82601f106140ff57805160ff191683800117855561412c565b8280016001018555821561412c579182015b8281111561412c578251825591602001919060010190614111565b5061413892915061413c565b5090565b5b80821115614138576000815560010161413d565b6001600160a01b0381168114610dac57600080fd5b6000806040838503121561417957600080fd5b823561418481614151565b946020939093013593505050565b6001600160e01b031981168114610dac57600080fd5b6000602082840312156141ba57600080fd5b81356113d181614192565b634e487b7160e01b600052604160045260246000fd5b601f8201601f191681016001600160401b0381118282101715614200576142006141c5565b6040525050565b600082601f83011261421857600080fd5b81356001600160401b03811115614231576142316141c5565b604051614248601f8301601f1916602001826141db565b81815284602083860101111561425d57600080fd5b816020850160208301376000918101602001919091529392505050565b60006020828403121561428c57600080fd5b81356001600160401b038111156142a257600080fd5b6142ae84828501614207565b949350505050565b6000602082840312156142c857600080fd5b81356113d181614151565b60005b838110156142ee5781810151838201526020016142d6565b838111156116da5750506000910152565b600081518084526143178160208601602086016142d3565b601f01601f19169290920160200192915050565b6020815260006113d160208301846142ff565b600080600080600060a0868803121561435657600080fd5b853561436181614151565b945060208601356001600160401b0381111561437c57600080fd5b61438888828901614207565b9450506040860135925060608601359150608086013560ff811681146143ad57600080fd5b809150509295509295909350565b6000602082840312156143cd57600080fd5b5035919050565b600080600080600080600060e0888a0312156143ef57600080fd5b87356143fa81614151565b9650602088013595506040880135945060608801356001600160401b038082111561442457600080fd5b6144308b838c01614207565b955060808a013591508082111561444657600080fd5b506144538a828b01614207565b93505060a0880135915060c0880135905092959891949750929550565b60006001600160401b03821115614489576144896141c5565b5060051b60200190565b600082601f8301126144a457600080fd5b813560206144b182614470565b6040516144be82826141db565b83815260059390931b85018201928281019150868411156144de57600080fd5b8286015b848110156144f957803583529183019183016144e2565b509695505050505050565b6000806000806080858703121561451a57600080fd5b843561452581614151565b935060208501356001600160401b038082111561454157600080fd5b61454d88838901614493565b9450604087013591508082111561456357600080fd5b61456f88838901614493565b9350606087013591508082111561458557600080fd5b5061459287828801614207565b91505092959194509250565b600080604083850312156145b157600080fd5b50508035926020909101359150565b600080600080600060a086880312156145d857600080fd5b85356145e381614151565b945060208601356145f381614151565b935060408601356001600160401b038082111561460f57600080fd5b61461b89838a01614493565b9450606088013591508082111561463157600080fd5b61463d89838a01614493565b9350608088013591508082111561465357600080fd5b5061466088828901614207565b9150509295509295909350565b6000806040838503121561468057600080fd5b82359150602083013561469281614151565b809150509250929050565b600080604083850312156146b057600080fd5b8235915060208301356001600160401b038111156146cd57600080fd5b61179785828601614207565b600080604083850312156146ec57600080fd5b82356001600160401b038082111561470357600080fd5b818501915085601f83011261471757600080fd5b8135602061472482614470565b60405161473182826141db565b83815260059390931b850182019282810191508984111561475157600080fd5b948201945b8386101561477857853561476981614151565b82529482019490820190614756565b9650508601359250508082111561478e57600080fd5b5061179785828601614493565b600081518084526020808501945080840160005b838110156147cb578151875295820195908201906001016147af565b509495945050505050565b6020815260006113d1602083018461479b565b6000806000606084860312156147fe57600080fd5b833561480981614151565b925060208401356001600160401b038082111561482557600080fd5b61483187838801614493565b9350604086013591508082111561484757600080fd5b5061485486828701614493565b9150509250925092565b6000806000806080858703121561487457600080fd5b843561487f81614151565b9350602085013592506040850135915060608501356001600160401b038111156148a857600080fd5b61459287828801614207565b6000806000606084860312156148c957600080fd5b8335925060208401356148db81614151565b929592945050506040919091013590565b600080604083850312156148ff57600080fd5b823561490a81614151565b91506020830135801515811461469257600080fd5b6000806040838503121561493257600080fd5b823561493d81614151565b915060208301356001600160401b0381111561495857600080fd5b61179785828601614493565b6000806040838503121561497757600080fd5b823561498281614151565b9150602083013561469281614151565b600080600080600060a086880312156149aa57600080fd5b85356149b581614151565b945060208601356149c581614151565b9350604086013592506060860135915060808601356001600160401b038111156149ee57600080fd5b61466088828901614207565b600080600060608486031215614a0f57600080fd5b8335614a1a81614151565b95602085013595506040909401359392505050565b6020808252600d908201526c27a7262cafa7a822a920aa27a960991b604082015260600190565b6020808252600c908201526b27a7262cafa1a922a0aa27a960a11b604082015260600190565b6020808252600a908201526927a7262cafa0a226a4a760b11b604082015260600190565b6020808252600990820152682727aa2fa0a226a4a760b91b604082015260600190565b600181811c90821680614ad757607f821691505b602082108114156113d857634e487b7160e01b600052602260045260246000fd5b634e487b7160e01b600052601160045260246000fd5b60008219821115614b2157614b21614af8565b500190565b6001600160a01b03848116825283166020820152606060408201819052600090614b52908301846142ff565b95945050505050565b60008351614b6d8184602088016142d3565b60609390931b6bffffffffffffffffffffffff19169190920190815260140192915050565b60008251614ba48184602087016142d3565b9190910192915050565b6020808252600990820152680a48a828690be9a82b60bb1b604082015260600190565b600060018060a01b03808816835286602084015285604084015260a06060840152614bff60a08401866142ff565b91508084166080840152509695505050505050565b6000816000190483118215151615614c2e57614c2e614af8565b500290565b600082614c5057634e487b7160e01b600052601260045260246000fd5b500490565b634e487b7160e01b600052603260045260246000fd5b6000600019821415614c7f57614c7f614af8565b5060010190565b60208082526029908201527f455243313135353a2063616c6c6572206973206e6f74206f776e6572206e6f7260408201526808185c1c1c9bdd995960ba1b606082015260800190565b600060208284031215614ce157600080fd5b81516113d181614151565b600081614cfb57614cfb614af8565b506000190190565b60208082526021908201527f455243313135353a206d696e7420746f20746865207a65726f206164647265736040820152607360f81b606082015260800190565b60208082526028908201527f455243313135353a2069647320616e6420616d6f756e7473206c656e677468206040820152670dad2e6dac2e8c6d60c31b606082015260800190565b604081526000614d9f604083018561479b565b8281036020840152614b52818561479b565b60208082526025908201527f455243313135353a207472616e7366657220746f20746865207a65726f206164604082015264647265737360d81b606082015260800190565b6020808252602a908201527f455243313135353a20696e73756666696369656e742062616c616e636520666f60408201526939103a3930b739b332b960b11b606082015260800190565b7f416363657373436f6e74726f6c3a206163636f756e7420000000000000000000815260008351614e788160178501602088016142d3565b7001034b99036b4b9b9b4b733903937b6329607d1b6017918401918201528351614ea98160288401602088016142d3565b01602801949350505050565b60208082526023908201527f455243313135353a206275726e2066726f6d20746865207a65726f206164647260408201526265737360e81b606082015260800190565b60208082526024908201527f455243313135353a206275726e20616d6f756e7420657863656564732062616c604082015263616e636560e01b606082015260800190565b600082821015614f4e57614f4e614af8565b500390565b634e487b7160e01b600052603160045260246000fd5b6001600160a01b03868116825285166020820152604081018490526060810183905260a060808201819052600090614fa3908301846142ff565b979650505050505050565b600060208284031215614fc057600080fd5b81516113d181614192565b600060033d1115612bc85760046000803e5060005160e01c90565b600060443d1015614ff45790565b6040516003193d81016004833e81513d6001600160401b03816024840111818411171561502357505050505090565b828501915081518181111561503b5750505050505090565b843d87010160208285010111156150555750505050505090565b615064602082860101876141db565b509095945050505050565b60208082526028908201527f455243313135353a204552433131353552656365697665722072656a656374656040820152676420746f6b656e7360c01b606082015260800190565b6001600160a01b0386811682528516602082015260a0604082018190526000906150e39083018661479b565b82810360608401526150f5818661479b565b9050828103608084015261121f81856142ff56fe4d6574615472616e73616374696f6e286e6f6e63652c66726f6d2c7369676e617475726529828634d95e775031b9ff576b159a8509d3053581a8c9c4d7d86899e0afcd882f97667070c54ef182b0f5858b034beac1b6f3089aa2d3188bb1e8929f4fa9b92965d7a28e3265b37a6474929f336521b332c1681b933f6cb9f3376673440d862a9f2df0fed2c77648de5860a4cc508cd0818c85b8b8a1ab4ceeef8d981c8956a6a2646970667358221220c2308590a14b88e419bc5c27b185bb062ed78424ce8a79366092cf618cbe3a5c64736f6c634300080c0033454950373132446f6d61696e28737472696e67206e616d652c737472696e672076657273696f6e2c6164647265737320766572696679696e67436f6e74726163742c627974657333322073616c742965d7a28e3265b37a6474929f336521b332c1681b933f6cb9f3376673440d862a9f2df0fed2c77648de5860a4cc508cd0818c85b8b8a1ab4ceeef8d981c8956a6",
  "linkReferences": {},
  "deployedLinkReferences": {}
}