{
  "_format": "hh-sol-artifact-1",
  "contractName": "TicketNFT",
  "sourceName": "contracts/services/TicketNFT.sol",
  "abi": [
    {
      "inputs": [
        {
          "internalType": "address",
          "name": "admin",
          "type": "address"
        },
        {
          "internalType": "address",
          "name": "operator",
          "type": "address"
        },
        {
          "internalType": "address",
          "name": "_parameterAdd",
          "type": "address"
        }
      ],
      "stateMutability": "nonpayable",
      "type": "constructor"
    },
    {
      "anonymous": false,
      "inputs": [
        {
          "indexed": false,
          "internalType": "address",
          "name": "previous",
          "type": "address"
        },
        {
          "indexed": false,
          "internalType": "address",
          "name": "new_",
          "type": "address"
        }
      ],
      "name": "AdminChanged",
      "type": "event"
    },
    {
      "anonymous": false,
      "inputs": [
        {
          "indexed": true,
          "internalType": "address",
          "name": "account",
          "type": "address"
        },
        {
          "indexed": true,
          "internalType": "address",
          "name": "operator",
          "type": "address"
        },
        {
          "indexed": false,
          "internalType": "bool",
          "name": "approved",
          "type": "bool"
        }
      ],
      "name": "ApprovalForAll",
      "type": "event"
    },
    {
      "anonymous": false,
      "inputs": [
        {
          "indexed": false,
          "internalType": "address",
          "name": "_initialOwner",
          "type": "address"
        },
        {
          "indexed": false,
          "internalType": "uint256",
          "name": "_id",
          "type": "uint256"
        },
        {
          "indexed": false,
          "internalType": "uint256",
          "name": "_initialSupply",
          "type": "uint256"
        },
        {
          "indexed": false,
          "internalType": "string",
          "name": "_uri",
          "type": "string"
        },
        {
          "indexed": false,
          "internalType": "address",
          "name": "_operator",
          "type": "address"
        }
      ],
      "name": "CreateEvent",
      "type": "event"
    },
    {
      "anonymous": false,
      "inputs": [
        {
          "indexed": false,
          "internalType": "address",
          "name": "userAddress",
          "type": "address"
        },
        {
          "indexed": false,
          "internalType": "address payable",
          "name": "relayerAddress",
          "type": "address"
        },
        {
          "indexed": false,
          "internalType": "bytes",
          "name": "functionSignature",
          "type": "bytes"
        }
      ],
      "name": "MetaTransactionExecuted",
      "type": "event"
    },
    {
      "anonymous": false,
      "inputs": [
        {
          "indexed": false,
          "internalType": "address",
          "name": "_to",
          "type": "address"
        },
        {
          "indexed": false,
          "internalType": "uint256",
          "name": "_id",
          "type": "uint256"
        },
        {
          "indexed": false,
          "internalType": "uint256",
          "name": "_quantity",
          "type": "uint256"
        }
      ],
      "name": "MintEvent",
      "type": "event"
    },
    {
      "anonymous": false,
      "inputs": [
        {
          "indexed": false,
          "internalType": "address",
          "name": "previous",
          "type": "address"
        },
        {
          "indexed": false,
          "internalType": "address",
          "name": "new_",
          "type": "address"
        }
      ],
      "name": "OperatorChanged",
      "type": "event"
    },
    {
      "anonymous": false,
      "inputs": [
        {
          "indexed": false,
          "internalType": "address",
          "name": "previous",
          "type": "address"
        },
        {
          "indexed": false,
          "internalType": "address",
          "name": "new_",
          "type": "address"
        }
      ],
      "name": "ParameterControlChanged",
      "type": "event"
    },
    {
      "anonymous": false,
      "inputs": [
        {
          "indexed": false,
          "internalType": "address",
          "name": "account",
          "type": "address"
        }
      ],
      "name": "Paused",
      "type": "event"
    },
    {
      "anonymous": false,
      "inputs": [
        {
          "indexed": false,
          "internalType": "uint256",
          "name": "_id",
          "type": "uint256"
        },
        {
          "indexed": false,
          "internalType": "uint256",
          "name": "previous",
          "type": "uint256"
        },
        {
          "indexed": false,
          "internalType": "uint256",
          "name": "new_",
          "type": "uint256"
        }
      ],
      "name": "PriceChanged",
      "type": "event"
    },
    {
      "anonymous": false,
      "inputs": [
        {
          "indexed": false,
          "internalType": "address",
          "name": "previous",
          "type": "address"
        },
        {
          "indexed": false,
          "internalType": "address",
          "name": "new_",
          "type": "address"
        }
      ],
      "name": "ProxyRegistryAddressChanged",
      "type": "event"
    },
    {
      "anonymous": false,
      "inputs": [
        {
          "indexed": true,
          "internalType": "bytes32",
          "name": "role",
          "type": "bytes32"
        },
        {
          "indexed": true,
          "internalType": "bytes32",
          "name": "previousAdminRole",
          "type": "bytes32"
        },
        {
          "indexed": true,
          "internalType": "bytes32",
          "name": "newAdminRole",
          "type": "bytes32"
        }
      ],
      "name": "RoleAdminChanged",
      "type": "event"
    },
    {
      "anonymous": false,
      "inputs": [
        {
          "indexed": true,
          "internalType": "bytes32",
          "name": "role",
          "type": "bytes32"
        },
        {
          "indexed": true,
          "internalType": "address",
          "name": "account",
          "type": "address"
        },
        {
          "indexed": true,
          "internalType": "address",
          "name": "sender",
          "type": "address"
        }
      ],
      "name": "RoleGranted",
      "type": "event"
    },
    {
      "anonymous": false,
      "inputs": [
        {
          "indexed": true,
          "internalType": "bytes32",
          "name": "role",
          "type": "bytes32"
        },
        {
          "indexed": true,
          "internalType": "address",
          "name": "account",
          "type": "address"
        },
        {
          "indexed": true,
          "internalType": "address",
          "name": "sender",
          "type": "address"
        }
      ],
      "name": "RoleRevoked",
      "type": "event"
    },
    {
      "anonymous": false,
      "inputs": [
        {
          "indexed": true,
          "internalType": "address",
          "name": "operator",
          "type": "address"
        },
        {
          "indexed": true,
          "internalType": "address",
          "name": "from",
          "type": "address"
        },
        {
          "indexed": true,
          "internalType": "address",
          "name": "to",
          "type": "address"
        },
        {
          "indexed": false,
          "internalType": "uint256[]",
          "name": "ids",
          "type": "uint256[]"
        },
        {
          "indexed": false,
          "internalType": "uint256[]",
          "name": "values",
          "type": "uint256[]"
        }
      ],
      "name": "TransferBatch",
      "type": "event"
    },
    {
      "anonymous": false,
      "inputs": [
        {
          "indexed": true,
          "internalType": "address",
          "name": "operator",
          "type": "address"
        },
        {
          "indexed": true,
          "internalType": "address",
          "name": "from",
          "type": "address"
        },
        {
          "indexed": true,
          "internalType": "address",
          "name": "to",
          "type": "address"
        },
        {
          "indexed": false,
          "internalType": "uint256",
          "name": "id",
          "type": "uint256"
        },
        {
          "indexed": false,
          "internalType": "uint256",
          "name": "value",
          "type": "uint256"
        }
      ],
      "name": "TransferSingle",
      "type": "event"
    },
    {
      "anonymous": false,
      "inputs": [
        {
          "indexed": false,
          "internalType": "string",
          "name": "value",
          "type": "string"
        },
        {
          "indexed": true,
          "internalType": "uint256",
          "name": "id",
          "type": "uint256"
        }
      ],
      "name": "URI",
      "type": "event"
    },
    {
      "anonymous": false,
      "inputs": [
        {
          "indexed": false,
          "internalType": "address",
          "name": "account",
          "type": "address"
        }
      ],
      "name": "Unpaused",
      "type": "event"
    },
    {
      "inputs": [],
      "name": "CREATOR_ROLE",
      "outputs": [
        {
          "internalType": "bytes32",
          "name": "",
          "type": "bytes32"
        }
      ],
      "stateMutability": "view",
      "type": "function"
    },
    {
      "inputs": [],
      "name": "DEFAULT_ADMIN_ROLE",
      "outputs": [
        {
          "internalType": "bytes32",
          "name": "",
          "type": "bytes32"
        }
      ],
      "stateMutability": "view",
      "type": "function"
    },
    {
      "inputs": [],
      "name": "ERC712_VERSION",
      "outputs": [
        {
          "internalType": "string",
          "name": "",
          "type": "string"
        }
      ],
      "stateMutability": "view",
      "type": "function"
    },
    {
      "inputs": [],
      "name": "MINTER_ROLE",
      "outputs": [
        {
          "internalType": "bytes32",
          "name": "",
          "type": "bytes32"
        }
      ],
      "stateMutability": "view",
      "type": "function"
    },
    {
      "inputs": [],
      "name": "OPERATOR_ROLE",
      "outputs": [
        {
          "internalType": "bytes32",
          "name": "",
          "type": "bytes32"
        }
      ],
      "stateMutability": "view",
      "type": "function"
    },
    {
      "inputs": [],
      "name": "PAUSER_ROLE",
      "outputs": [
        {
          "internalType": "bytes32",
          "name": "",
          "type": "bytes32"
        }
      ],
      "stateMutability": "view",
      "type": "function"
    },
    {
      "inputs": [],
      "name": "admin",
      "outputs": [
        {
          "internalType": "address",
          "name": "",
          "type": "address"
        }
      ],
      "stateMutability": "view",
      "type": "function"
    },
    {
      "inputs": [
        {
          "internalType": "address",
          "name": "account",
          "type": "address"
        },
        {
          "internalType": "uint256",
          "name": "id",
          "type": "uint256"
        }
      ],
      "name": "balanceOf",
      "outputs": [
        {
          "internalType": "uint256",
          "name": "",
          "type": "uint256"
        }
      ],
      "stateMutability": "view",
      "type": "function"
    },
    {
      "inputs": [
        {
          "internalType": "address[]",
          "name": "accounts",
          "type": "address[]"
        },
        {
          "internalType": "uint256[]",
          "name": "ids",
          "type": "uint256[]"
        }
      ],
      "name": "balanceOfBatch",
      "outputs": [
        {
          "internalType": "uint256[]",
          "name": "",
          "type": "uint256[]"
        }
      ],
      "stateMutability": "view",
      "type": "function"
    },
    {
      "inputs": [
        {
          "internalType": "address",
          "name": "_to",
          "type": "address"
        },
        {
          "internalType": "uint256[]",
          "name": "_ids",
          "type": "uint256[]"
        },
        {
          "internalType": "uint256[]",
          "name": "_quantities",
          "type": "uint256[]"
        },
        {
          "internalType": "bytes",
          "name": "_data",
          "type": "bytes"
        }
      ],
      "name": "batchMint",
      "outputs": [],
      "stateMutability": "nonpayable",
      "type": "function"
    },
    {
      "inputs": [
        {
          "internalType": "address",
          "name": "account",
          "type": "address"
        },
        {
          "internalType": "uint256",
          "name": "id",
          "type": "uint256"
        },
        {
          "internalType": "uint256",
          "name": "value",
          "type": "uint256"
        }
      ],
      "name": "burn",
      "outputs": [],
      "stateMutability": "nonpayable",
      "type": "function"
    },
    {
      "inputs": [
        {
          "internalType": "address",
          "name": "account",
          "type": "address"
        },
        {
          "internalType": "uint256[]",
          "name": "ids",
          "type": "uint256[]"
        },
        {
          "internalType": "uint256[]",
          "name": "values",
          "type": "uint256[]"
        }
      ],
      "name": "burnBatch",
      "outputs": [],
      "stateMutability": "nonpayable",
      "type": "function"
    },
    {
      "inputs": [
        {
          "internalType": "address",
          "name": "_newAdmin",
          "type": "address"
        }
      ],
      "name": "changeAdmin",
      "outputs": [],
      "stateMutability": "nonpayable",
      "type": "function"
    },
    {
      "inputs": [
        {
          "internalType": "address",
          "name": "_newOperator",
          "type": "address"
        }
      ],
      "name": "changeOperator",
      "outputs": [],
      "stateMutability": "nonpayable",
      "type": "function"
    },
    {
      "inputs": [
        {
          "internalType": "address",
          "name": "_new",
          "type": "address"
        }
      ],
      "name": "changeParameterControl",
      "outputs": [],
      "stateMutability": "nonpayable",
      "type": "function"
    },
    {
      "inputs": [
        {
          "internalType": "uint256",
          "name": "_id",
          "type": "uint256"
        },
        {
          "internalType": "uint256",
          "name": "_price",
          "type": "uint256"
        }
      ],
      "name": "changePriceToken",
      "outputs": [],
      "stateMutability": "nonpayable",
      "type": "function"
    },
    {
      "inputs": [
        {
          "internalType": "address",
          "name": "_initialOwner",
          "type": "address"
        },
        {
          "internalType": "uint256",
          "name": "_id",
          "type": "uint256"
        },
        {
          "internalType": "uint256",
          "name": "_initialSupply",
          "type": "uint256"
        },
        {
          "internalType": "string",
          "name": "_uri",
          "type": "string"
        },
        {
          "internalType": "bytes",
          "name": "_data",
          "type": "bytes"
        },
        {
          "internalType": "uint256",
          "name": "_price",
          "type": "uint256"
        },
        {
          "internalType": "uint256",
          "name": "_max",
          "type": "uint256"
        }
      ],
      "name": "create",
      "outputs": [
        {
          "internalType": "uint256",
          "name": "",
          "type": "uint256"
        }
      ],
      "stateMutability": "nonpayable",
      "type": "function"
    },
    {
      "inputs": [
        {
          "internalType": "uint256",
          "name": "",
          "type": "uint256"
        }
      ],
      "name": "creators",
      "outputs": [
        {
          "internalType": "address",
          "name": "",
          "type": "address"
        }
      ],
      "stateMutability": "view",
      "type": "function"
    },
    {
      "inputs": [
        {
          "internalType": "address",
          "name": "userAddress",
          "type": "address"
        },
        {
          "internalType": "bytes",
          "name": "functionSignature",
          "type": "bytes"
        },
        {
          "internalType": "bytes32",
          "name": "sigR",
          "type": "bytes32"
        },
        {
          "internalType": "bytes32",
          "name": "sigS",
          "type": "bytes32"
        },
        {
          "internalType": "uint8",
          "name": "sigV",
          "type": "uint8"
        }
      ],
      "name": "executeMetaTransaction",
      "outputs": [
        {
          "internalType": "bytes",
          "name": "",
          "type": "bytes"
        }
      ],
      "stateMutability": "nonpayable",
      "type": "function"
    },
    {
      "inputs": [
        {
          "internalType": "uint256",
          "name": "_id",
          "type": "uint256"
        }
      ],
      "name": "exists",
      "outputs": [
        {
          "internalType": "bool",
          "name": "",
          "type": "bool"
        }
      ],
      "stateMutability": "view",
      "type": "function"
    },
    {
      "inputs": [],
      "name": "getChainId",
      "outputs": [
        {
          "internalType": "uint256",
          "name": "",
          "type": "uint256"
        }
      ],
      "stateMutability": "view",
      "type": "function"
    },
    {
      "inputs": [
        {
          "internalType": "uint256",
          "name": "id",
          "type": "uint256"
        }
      ],
      "name": "getCreator",
      "outputs": [
        {
          "internalType": "address",
          "name": "sender",
          "type": "address"
        }
      ],
      "stateMutability": "view",
      "type": "function"
    },
    {
      "inputs": [],
      "name": "getDomainSeperator",
      "outputs": [
        {
          "internalType": "bytes32",
          "name": "",
          "type": "bytes32"
        }
      ],
      "stateMutability": "view",
      "type": "function"
    },
    {
      "inputs": [
        {
          "internalType": "uint256",
          "name": "_id",
          "type": "uint256"
        }
      ],
      "name": "getMaxSupplyToken",
      "outputs": [
        {
          "internalType": "uint256",
          "name": "",
          "type": "uint256"
        }
      ],
      "stateMutability": "view",
      "type": "function"
    },
    {
      "inputs": [
        {
          "internalType": "address",
          "name": "user",
          "type": "address"
        }
      ],
      "name": "getNonce",
      "outputs": [
        {
          "internalType": "uint256",
          "name": "nonce",
          "type": "uint256"
        }
      ],
      "stateMutability": "view",
      "type": "function"
    },
    {
      "inputs": [
        {
          "internalType": "uint256",
          "name": "_id",
          "type": "uint256"
        }
      ],
      "name": "getPriceToken",
      "outputs": [
        {
          "internalType": "uint256",
          "name": "",
          "type": "uint256"
        }
      ],
      "stateMutability": "view",
      "type": "function"
    },
    {
      "inputs": [
        {
          "internalType": "bytes32",
          "name": "role",
          "type": "bytes32"
        }
      ],
      "name": "getRoleAdmin",
      "outputs": [
        {
          "internalType": "bytes32",
          "name": "",
          "type": "bytes32"
        }
      ],
      "stateMutability": "view",
      "type": "function"
    },
    {
      "inputs": [
        {
          "internalType": "bytes32",
          "name": "role",
          "type": "bytes32"
        },
        {
          "internalType": "uint256",
          "name": "index",
          "type": "uint256"
        }
      ],
      "name": "getRoleMember",
      "outputs": [
        {
          "internalType": "address",
          "name": "",
          "type": "address"
        }
      ],
      "stateMutability": "view",
      "type": "function"
    },
    {
      "inputs": [
        {
          "internalType": "bytes32",
          "name": "role",
          "type": "bytes32"
        }
      ],
      "name": "getRoleMemberCount",
      "outputs": [
        {
          "internalType": "uint256",
          "name": "",
          "type": "uint256"
        }
      ],
      "stateMutability": "view",
      "type": "function"
    },
    {
      "inputs": [
        {
          "internalType": "bytes32",
          "name": "role",
          "type": "bytes32"
        },
        {
          "internalType": "address",
          "name": "account",
          "type": "address"
        }
      ],
      "name": "grantRole",
      "outputs": [],
      "stateMutability": "nonpayable",
      "type": "function"
    },
    {
      "inputs": [
        {
          "internalType": "bytes32",
          "name": "role",
          "type": "bytes32"
        },
        {
          "internalType": "address",
          "name": "account",
          "type": "address"
        }
      ],
      "name": "hasRole",
      "outputs": [
        {
          "internalType": "bool",
          "name": "",
          "type": "bool"
        }
      ],
      "stateMutability": "view",
      "type": "function"
    },
    {
      "inputs": [
        {
          "internalType": "address",
          "name": "_owner",
          "type": "address"
        },
        {
          "internalType": "address",
          "name": "_operator",
          "type": "address"
        }
      ],
      "name": "isApprovedForAll",
      "outputs": [
        {
          "internalType": "bool",
          "name": "isOperator",
          "type": "bool"
        }
      ],
      "stateMutability": "view",
      "type": "function"
    },
    {
      "inputs": [
        {
          "internalType": "uint256",
          "name": "",
          "type": "uint256"
        }
      ],
      "name": "max_supply_tokens",
      "outputs": [
        {
          "internalType": "uint256",
          "name": "",
          "type": "uint256"
        }
      ],
      "stateMutability": "view",
      "type": "function"
    },
    {
      "inputs": [
        {
          "internalType": "address",
          "name": "_to",
          "type": "address"
        },
        {
          "internalType": "uint256",
          "name": "_id",
          "type": "uint256"
        },
        {
          "internalType": "uint256",
          "name": "_quantity",
          "type": "uint256"
        },
        {
          "internalType": "bytes",
          "name": "_data",
          "type": "bytes"
        }
      ],
      "name": "mint",
      "outputs": [],
      "stateMutability": "nonpayable",
      "type": "function"
    },
    {
      "inputs": [
        {
          "internalType": "address",
          "name": "to",
          "type": "address"
        },
        {
          "internalType": "uint256[]",
          "name": "ids",
          "type": "uint256[]"
        },
        {
          "internalType": "uint256[]",
          "name": "amounts",
          "type": "uint256[]"
        },
        {
          "internalType": "bytes",
          "name": "data",
          "type": "bytes"
        }
      ],
      "name": "mintBatch",
      "outputs": [],
      "stateMutability": "nonpayable",
      "type": "function"
    },
    {
      "inputs": [],
      "name": "name",
      "outputs": [
        {
          "internalType": "string",
          "name": "",
          "type": "string"
        }
      ],
      "stateMutability": "view",
      "type": "function"
    },
    {
      "inputs": [],
      "name": "newItemId",
      "outputs": [
        {
          "internalType": "uint256",
          "name": "",
          "type": "uint256"
        }
      ],
      "stateMutability": "view",
      "type": "function"
    },
    {
      "inputs": [],
      "name": "operator",
      "outputs": [
        {
          "internalType": "address",
          "name": "",
          "type": "address"
        }
      ],
      "stateMutability": "view",
      "type": "function"
    },
    {
      "inputs": [],
      "name": "parameterControlAdd",
      "outputs": [
        {
          "internalType": "address",
          "name": "",
          "type": "address"
        }
      ],
      "stateMutability": "view",
      "type": "function"
    },
    {
      "inputs": [],
      "name": "pause",
      "outputs": [],
      "stateMutability": "nonpayable",
      "type": "function"
    },
    {
      "inputs": [],
      "name": "paused",
      "outputs": [
        {
          "internalType": "bool",
          "name": "",
          "type": "bool"
        }
      ],
      "stateMutability": "view",
      "type": "function"
    },
    {
      "inputs": [
        {
          "internalType": "uint256",
          "name": "",
          "type": "uint256"
        }
      ],
      "name": "price_tokens",
      "outputs": [
        {
          "internalType": "uint256",
          "name": "",
          "type": "uint256"
        }
      ],
      "stateMutability": "view",
      "type": "function"
    },
    {
      "inputs": [],
      "name": "proxyRegistryAddress",
      "outputs": [
        {
          "internalType": "address",
          "name": "",
          "type": "address"
        }
      ],
      "stateMutability": "view",
      "type": "function"
    },
    {
      "inputs": [
        {
          "internalType": "address",
          "name": "recipient",
          "type": "address"
        },
        {
          "internalType": "uint256",
          "name": "initialSupply",
          "type": "uint256"
        },
        {
          "internalType": "string",
          "name": "tokenURI",
          "type": "string"
        },
        {
          "internalType": "uint256",
          "name": "price",
          "type": "uint256"
        },
        {
          "internalType": "uint256",
          "name": "max",
          "type": "uint256"
        }
      ],
      "name": "publishTicket",
      "outputs": [
        {
          "internalType": "uint256",
          "name": "",
          "type": "uint256"
        }
      ],
      "stateMutability": "payable",
      "type": "function"
    },
    {
      "inputs": [
        {
          "internalType": "bytes32",
          "name": "role",
          "type": "bytes32"
        },
        {
          "internalType": "address",
          "name": "account",
          "type": "address"
        }
      ],
      "name": "renounceRole",
      "outputs": [],
      "stateMutability": "nonpayable",
      "type": "function"
    },
    {
      "inputs": [
        {
          "internalType": "bytes32",
          "name": "role",
          "type": "bytes32"
        },
        {
          "internalType": "address",
          "name": "account",
          "type": "address"
        }
      ],
      "name": "revokeRole",
      "outputs": [],
      "stateMutability": "nonpayable",
      "type": "function"
    },
    {
      "inputs": [
        {
          "internalType": "uint256",
          "name": "",
          "type": "uint256"
        }
      ],
      "name": "royalties",
      "outputs": [
        {
          "internalType": "address",
          "name": "recipient",
          "type": "address"
        },
        {
          "internalType": "uint24",
          "name": "amount",
          "type": "uint24"
        },
        {
          "internalType": "bool",
          "name": "isValue",
          "type": "bool"
        }
      ],
      "stateMutability": "view",
      "type": "function"
    },
    {
      "inputs": [
        {
          "internalType": "uint256",
          "name": "_tokenId",
          "type": "uint256"
        },
        {
          "internalType": "uint256",
          "name": "_salePrice",
          "type": "uint256"
        }
      ],
      "name": "royaltyInfo",
      "outputs": [
        {
          "internalType": "address",
          "name": "receiver",
          "type": "address"
        },
        {
          "internalType": "uint256",
          "name": "royaltyAmount",
          "type": "uint256"
        }
      ],
      "stateMutability": "view",
      "type": "function"
    },
    {
      "inputs": [
        {
          "internalType": "address",
          "name": "from",
          "type": "address"
        },
        {
          "internalType": "address",
          "name": "to",
          "type": "address"
        },
        {
          "internalType": "uint256[]",
          "name": "ids",
          "type": "uint256[]"
        },
        {
          "internalType": "uint256[]",
          "name": "amounts",
          "type": "uint256[]"
        },
        {
          "internalType": "bytes",
          "name": "data",
          "type": "bytes"
        }
      ],
      "name": "safeBatchTransferFrom",
      "outputs": [],
      "stateMutability": "nonpayable",
      "type": "function"
    },
    {
      "inputs": [
        {
          "internalType": "address",
          "name": "from",
          "type": "address"
        },
        {
          "internalType": "address",
          "name": "to",
          "type": "address"
        },
        {
          "internalType": "uint256",
          "name": "id",
          "type": "uint256"
        },
        {
          "internalType": "uint256",
          "name": "amount",
          "type": "uint256"
        },
        {
          "internalType": "bytes",
          "name": "data",
          "type": "bytes"
        }
      ],
      "name": "safeTransferFrom",
      "outputs": [],
      "stateMutability": "nonpayable",
      "type": "function"
    },
    {
      "inputs": [
        {
          "internalType": "address",
          "name": "operator",
          "type": "address"
        },
        {
          "internalType": "bool",
          "name": "approved",
          "type": "bool"
        }
      ],
      "name": "setApprovalForAll",
      "outputs": [],
      "stateMutability": "nonpayable",
      "type": "function"
    },
    {
      "inputs": [
        {
          "internalType": "address",
          "name": "_to",
          "type": "address"
        },
        {
          "internalType": "uint256[]",
          "name": "_ids",
          "type": "uint256[]"
        }
      ],
      "name": "setCreator",
      "outputs": [],
      "stateMutability": "nonpayable",
      "type": "function"
    },
    {
      "inputs": [
        {
          "internalType": "uint256",
          "name": "_tokenId",
          "type": "uint256"
        },
        {
          "internalType": "string",
          "name": "_newURI",
          "type": "string"
        }
      ],
      "name": "setCustomURI",
      "outputs": [],
      "stateMutability": "nonpayable",
      "type": "function"
    },
    {
      "inputs": [
        {
          "internalType": "address",
          "name": "_proxyRegistryAddress",
          "type": "address"
        }
      ],
      "name": "setProxyRegistryAddress",
      "outputs": [],
      "stateMutability": "nonpayable",
      "type": "function"
    },
    {
      "inputs": [
        {
          "internalType": "uint256",
          "name": "_tokenId",
          "type": "uint256"
        },
        {
          "internalType": "address",
          "name": "_recipient",
          "type": "address"
        },
        {
          "internalType": "uint256",
          "name": "_value",
          "type": "uint256"
        }
      ],
      "name": "setTokenRoyalty",
      "outputs": [],
      "stateMutability": "nonpayable",
      "type": "function"
    },
    {
      "inputs": [
        {
          "internalType": "string",
          "name": "_newURI",
          "type": "string"
        }
      ],
      "name": "setURI",
      "outputs": [],
      "stateMutability": "nonpayable",
      "type": "function"
    },
    {
      "inputs": [
        {
          "internalType": "bytes4",
          "name": "interfaceId",
          "type": "bytes4"
        }
      ],
      "name": "supportsInterface",
      "outputs": [
        {
          "internalType": "bool",
          "name": "",
          "type": "bool"
        }
      ],
      "stateMutability": "view",
      "type": "function"
    },
    {
      "inputs": [],
      "name": "symbol",
      "outputs": [
        {
          "internalType": "string",
          "name": "",
          "type": "string"
        }
      ],
      "stateMutability": "view",
      "type": "function"
    },
    {
      "inputs": [
        {
          "internalType": "uint256",
          "name": "",
          "type": "uint256"
        }
      ],
      "name": "tokenSupply",
      "outputs": [
        {
          "internalType": "uint256",
          "name": "",
          "type": "uint256"
        }
      ],
      "stateMutability": "view",
      "type": "function"
    },
    {
      "inputs": [
        {
          "internalType": "uint256",
          "name": "_id",
          "type": "uint256"
        }
      ],
      "name": "totalSupply",
      "outputs": [
        {
          "internalType": "uint256",
          "name": "",
          "type": "uint256"
        }
      ],
      "stateMutability": "view",
      "type": "function"
    },
    {
      "inputs": [],
      "name": "unpause",
      "outputs": [],
      "stateMutability": "nonpayable",
      "type": "function"
    },
    {
      "inputs": [
        {
          "internalType": "uint256",
          "name": "_id",
          "type": "uint256"
        }
      ],
      "name": "uri",
      "outputs": [
        {
          "internalType": "string",
          "name": "",
          "type": "string"
        }
      ],
      "stateMutability": "view",
      "type": "function"
    },
    {
      "inputs": [
        {
          "internalType": "address",
          "name": "_to",
          "type": "address"
        },
        {
          "internalType": "uint256",
          "name": "_id",
          "type": "uint256"
        },
        {
          "internalType": "uint256",
          "name": "_quantity",
          "type": "uint256"
        },
        {
          "internalType": "bytes",
          "name": "_data",
          "type": "bytes"
        }
      ],
      "name": "userMint",
      "outputs": [],
      "stateMutability": "payable",
      "type": "function"
    },
    {
      "inputs": [
        {
          "internalType": "address",
          "name": "_to",
          "type": "address"
        }
      ],
      "name": "withdraw",
      "outputs": [],
      "stateMutability": "nonpayable",
      "type": "function"
    }
  ],
  "bytecode": "0x60806040526005805461ff00191690553480156200001c57600080fd5b5060405162006580380380620065808339810160408190526200003f9162000c42565b6040518060400160405280600c81526020016b526f7665205469636b65747360a01b8152506040518060400160405280600381526020016252547360e81b8152506040518060200160405280600081525085858280620000a581620003d160201b60201c565b506005805460ff19169055620000c66000620000c0620003ea565b62000406565b620000e460008051602062006560833981519152620000c0620003ea565b6200010260008051602062006540833981519152620000c0620003ea565b50600160085584516200011d90600f90602088019062000b7f565b5083516200013390601090602087019062000b7f565b50600b80546001600160a01b0319169055600f8054620001e49190620001599062000c8c565b80601f0160208091040260200160405190810160405280929190818152602001828054620001879062000c8c565b8015620001d85780601f10620001ac57610100808354040283529160200191620001d8565b820191906000526020600020905b815481529060010190602001808311620001ba57829003601f168201915b50506200041292505050565b600980546001600160a01b0319166001600160a01b03841690811790915562000210906000906200047a565b600a80546001600160a01b0319166001600160a01b0383169081179091556200025b907f97667070c54ef182b0f5858b034beac1b6f3089aa2d3188bb1e8929f4fa9b929906200047a565b600a5462000294907f828634d95e775031b9ff576b159a8509d3053581a8c9c4d7d86899e0afcd882f906001600160a01b03166200047a565b600a54620002bc9060008051602062006560833981519152906001600160a01b03166200047a565b600a54620002e49060008051602062006540833981519152906001600160a01b03166200047a565b620002ee620003ea565b6009546001600160a01b039081169116146200035657620003286000805160206200656083398151915262000322620003ea565b620004b2565b620003466000805160206200654083398151915262000322620003ea565b62000356600062000322620003ea565b50505050506001600160a01b038116620003a85760405162461bcd60e51b815260206004820152600e60248201526d105111149154d7d253959053125160921b60448201526064015b60405180910390fd5b601680546001600160a01b0319166001600160a01b03929092169190911790555062000e739050565b8051620003e690600490602084019062000b7f565b5050565b600062000401620004df60201b62002dd81760201c565b905090565b620003e682826200053e565b600554610100900460ff16156200045d5760405162461bcd60e51b815260206004820152600e60248201526d185b1c9958591e481a5b9a5d195960921b60448201526064016200039f565b62000468816200057c565b506005805461ff001916610100179055565b600082815260208190526040902060010154620004a1816200049b620003ea565b6200061e565b620004ad83836200053e565b505050565b600082815260208190526040902060010154620004d3816200049b620003ea565b620004ad8383620006b9565b6000333014156200053857600080368080601f0160208091040260200160405190810160405280939291908181526020018383808284376000920191909152505050503601516001600160a01b031691506200053b9050565b50335b90565b620005558282620006f760201b62002e351760201c565b6000828152600160209081526040909120620004ad91839062002eba62000799821b17901c565b6040518060800160405280604f8152602001620064f1604f9139805160209182012082519282019290922060408051808201825260018152603160f81b90840152805180840194909452838101919091527fc89efdaa54c0f20c7adf612882df0950f5a951637e0307cdcb4c672f298b8bc660608401523060808401524660a0808501919091528151808503909101815260c090930190528151910120600655565b6000828152602081815260408083206001600160a01b038516845290915290205460ff16620003e65762000668816001600160a01b03166014620007b960201b62002ecf1760201c565b6200067e83602062002ecf620007b9821b17811c565b6040516020016200069192919062000cfc565b60408051601f198184030181529082905262461bcd60e51b82526200039f9160040162000d75565b620006d082826200097260201b6200306a1760201c565b6000828152600160209081526040909120620004ad918390620030ed62000a12821b17901c565b6000828152602081815260408083206001600160a01b038516845290915290205460ff16620003e6576000828152602081815260408083206001600160a01b03851684529091529020805460ff1916600117905562000755620003ea565b6001600160a01b0316816001600160a01b0316837f2f8788117e7eff1d82e926ec794901d17c78024a50270940304540a733656f0d60405160405180910390a45050565b6000620007b0836001600160a01b03841662000a29565b90505b92915050565b60606000620007ca83600262000dc0565b620007d790600262000de2565b6001600160401b03811115620007f157620007f162000dfd565b6040519080825280601f01601f1916602001820160405280156200081c576020820181803683370190505b509050600360fc1b816000815181106200083a576200083a62000e13565b60200101906001600160f81b031916908160001a905350600f60fb1b816001815181106200086c576200086c62000e13565b60200101906001600160f81b031916908160001a90535060006200089284600262000dc0565b6200089f90600162000de2565b90505b600181111562000921576f181899199a1a9b1b9c1cb0b131b232b360811b85600f1660108110620008d757620008d762000e13565b1a60f81b828281518110620008f057620008f062000e13565b60200101906001600160f81b031916908160001a90535060049490941c93620009198162000e29565b9050620008a2565b508315620007b05760405162461bcd60e51b815260206004820181905260248201527f537472696e67733a20686578206c656e67746820696e73756666696369656e7460448201526064016200039f565b6000828152602081815260408083206001600160a01b038516845290915290205460ff1615620003e6576000828152602081815260408083206001600160a01b03851684529091529020805460ff19169055620009ce620003ea565b6001600160a01b0316816001600160a01b0316837ff6391f5c32d9c69d2a47ea670b442974b53935d1edc7fd64eb21e047a839171b60405160405180910390a45050565b6000620007b0836001600160a01b03841662000a7b565b600081815260018301602052604081205462000a7257508154600181810184556000848152602080822090930184905584548482528286019093526040902091909155620007b3565b506000620007b3565b6000818152600183016020526040812054801562000b7457600062000aa260018362000e43565b855490915060009062000ab89060019062000e43565b905081811462000b2457600086600001828154811062000adc5762000adc62000e13565b906000526020600020015490508087600001848154811062000b025762000b0262000e13565b6000918252602080832090910192909255918252600188019052604090208390555b855486908062000b385762000b3862000e5d565b600190038181906000526020600020016000905590558560010160008681526020019081526020016000206000905560019350505050620007b3565b6000915050620007b3565b82805462000b8d9062000c8c565b90600052602060002090601f01602090048101928262000bb1576000855562000bfc565b82601f1062000bcc57805160ff191683800117855562000bfc565b8280016001018555821562000bfc579182015b8281111562000bfc57825182559160200191906001019062000bdf565b5062000c0a92915062000c0e565b5090565b5b8082111562000c0a576000815560010162000c0f565b80516001600160a01b038116811462000c3d57600080fd5b919050565b60008060006060848603121562000c5857600080fd5b62000c638462000c25565b925062000c736020850162000c25565b915062000c836040850162000c25565b90509250925092565b600181811c9082168062000ca157607f821691505b6020821081141562000cc357634e487b7160e01b600052602260045260246000fd5b50919050565b60005b8381101562000ce657818101518382015260200162000ccc565b8381111562000cf6576000848401525b50505050565b7f416363657373436f6e74726f6c3a206163636f756e742000000000000000000081526000835162000d3681601785016020880162000cc9565b7001034b99036b4b9b9b4b733903937b6329607d1b601791840191820152835162000d6981602884016020880162000cc9565b01602801949350505050565b602081526000825180602084015262000d9681604085016020870162000cc9565b601f01601f19169190910160400192915050565b634e487b7160e01b600052601160045260246000fd5b600081600019048311821515161562000ddd5762000ddd62000daa565b500290565b6000821982111562000df85762000df862000daa565b500190565b634e487b7160e01b600052604160045260246000fd5b634e487b7160e01b600052603260045260246000fd5b60008162000e3b5762000e3b62000daa565b506000190190565b60008282101562000e585762000e5862000daa565b500390565b634e487b7160e01b600052603160045260246000fd5b61566e8062000e836000396000f3fe6080604052600436106103c15760003560e01c8063731133e9116101f2578063bd85b0391161010d578063d547741f116100a0578063f242432a1161006f578063f242432a14610c4e578063f5298aca14610c6e578063f5b541a614610c8e578063f851a44014610cb057600080fd5b8063d547741f14610bcc578063e031742114610bec578063e63ab1e914610c0c578063e985e9c514610c2e57600080fd5b8063d26ea6c0116100dc578063d26ea6c014610b34578063d2a6b51a14610b54578063d48e638a14610b74578063d539139314610baa57600080fd5b8063bd85b03914610a91578063ca15c87314610abe578063cd53d08e14610ade578063cd7c032614610b1457600080fd5b80639713c80711610185578063a22cb46511610154578063a22cb46514610a11578063b085451c14610a31578063b48ab8b614610a5e578063b6ccd0e014610a7e57600080fd5b80639713c8071461099c57806399213a28146109bc5780639b27a883146109e9578063a217fddf146109fc57600080fd5b80638f283970116101c15780638f283970146109275780639010d07c1461094757806391d148541461096757806395d89b411461098757600080fd5b8063731133e9146108565780637f77f574146108765780638456cb59146108f05780638aeda25a1461090557600080fd5b80632d0335ab116102e25780634e193389116102755780635c975abb116102445780635c975abb146107d157806363f008b0146107e95780636b20c454146108095780636cb075671461082957600080fd5b80634e193389146107395780634f558e791461077157806351cff8d914610791578063570ca735146107b157600080fd5b806336568abe116102b157806336568abe146106b75780633adf80b4146106d75780633f4ba83a146106f75780634e1273f41461070c57600080fd5b80632d0335ab1461062e5780632eb2c2d6146106645780632f2ff15d146106845780633408e470146106a457600080fd5b80630f7e59701161035a57806320379ee51161032957806320379ee51461057d578063248a9ca3146105925780632693ebf2146105c25780632a55205a146105ef57600080fd5b80630f7e5970146104e3578063177ed0f3146105105780631df284e91461053d5780631f7fdffa1461055d57600080fd5b806306394c9b1161039657806306394c9b1461046157806306fdde03146104815780630c53c51c146104a35780630e89341c146104c357600080fd5b80620ed58f146103c6578062fdd58e146103ef57806301ffc9a71461040f57806302fe53051461043f575b600080fd5b3480156103d257600080fd5b506103dc60155481565b6040519081526020015b60405180910390f35b3480156103fb57600080fd5b506103dc61040a36600461456d565b610cd0565b34801561041b57600080fd5b5061042f61042a3660046145af565b610d6c565b60405190151581526020016103e6565b34801561044b57600080fd5b5061045f61045a366004614681565b610d91565b005b34801561046d57600080fd5b5061045f61047c3660046146bd565b610e43565b34801561048d57600080fd5b5061049661105e565b6040516103e69190614732565b3480156104af57600080fd5b506104966104be366004614745565b6110ec565b3480156104cf57600080fd5b506104966104de3660046147c2565b6112bf565b3480156104ef57600080fd5b50610496604051806040016040528060018152602001603160f81b81525081565b34801561051c57600080fd5b506103dc61052b3660046147c2565b60009081526011602052604090205490565b34801561054957600080fd5b506103dc6105583660046147db565b611472565b34801561056957600080fd5b5061045f61057836600461490b565b6114f3565b34801561058957600080fd5b506006546103dc565b34801561059e57600080fd5b506103dc6105ad3660046147c2565b60009081526020819052604090206001015490565b3480156105ce57600080fd5b506103dc6105dd3660046147c2565b600d6020526000908152604090205481565b3480156105fb57600080fd5b5061060f61060a3660046149a5565b611591565b604080516001600160a01b0390931683526020830191909152016103e6565b34801561063a57600080fd5b506103dc6106493660046146bd565b6001600160a01b031660009081526007602052604090205490565b34801561067057600080fd5b5061045f61067f3660046149c7565b611653565b34801561069057600080fd5b5061045f61069f366004614a74565b6116fc565b3480156106b057600080fd5b50466103dc565b3480156106c357600080fd5b5061045f6106d2366004614a74565b61172e565b3480156106e357600080fd5b5061045f6106f2366004614aa4565b6117bc565b34801561070357600080fd5b5061045f611891565b34801561071857600080fd5b5061072c610727366004614ae0565b611927565b6040516103e69190614bdd565b34801561074557600080fd5b50601654610759906001600160a01b031681565b6040516001600160a01b0390911681526020016103e6565b34801561077d57600080fd5b5061042f61078c3660046147c2565b611a50565b34801561079d57600080fd5b5061045f6107ac3660046146bd565b611a6f565b3480156107bd57600080fd5b50600a54610759906001600160a01b031681565b3480156107dd57600080fd5b5060055460ff1661042f565b3480156107f557600080fd5b5061045f6108043660046146bd565b611bfc565b34801561081557600080fd5b5061045f610824366004614bf0565b611d29565b34801561083557600080fd5b506103dc6108443660046147c2565b60116020526000908152604090205481565b34801561086257600080fd5b5061045f610871366004614c65565b611d7e565b34801561088257600080fd5b506108c56108913660046147c2565b6013602052600090815260409020546001600160a01b03811690600160a01b810462ffffff1690600160b81b900460ff1683565b604080516001600160a01b03909416845262ffffff90921660208401521515908201526060016103e6565b3480156108fc57600080fd5b5061045f611f47565b34801561091157600080fd5b506103dc6000805160206155b983398151915281565b34801561093357600080fd5b5061045f6109423660046146bd565b611fdb565b34801561095357600080fd5b506107596109623660046149a5565b61211d565b34801561097357600080fd5b5061042f610982366004614a74565b612135565b34801561099357600080fd5b5061049661215e565b3480156109a857600080fd5b5061045f6109b7366004614cbb565b61216b565b3480156109c857600080fd5b506103dc6109d73660046147c2565b60126020526000908152604090205481565b6103dc6109f7366004614cf3565b6122e5565b348015610a0857600080fd5b506103dc600081565b348015610a1d57600080fd5b5061045f610a2c366004614d5d565b612412565b348015610a3d57600080fd5b506103dc610a4c3660046147c2565b60009081526012602052604090205490565b348015610a6a57600080fd5b5061045f610a7936600461490b565b612424565b61045f610a8c366004614c65565b6125c9565b348015610a9d57600080fd5b506103dc610aac3660046147c2565b6000908152600d602052604090205490565b348015610aca57600080fd5b506103dc610ad93660046147c2565b61290a565b348015610aea57600080fd5b50610759610af93660046147c2565b600c602052600090815260409020546001600160a01b031681565b348015610b2057600080fd5b50600b54610759906001600160a01b031681565b348015610b4057600080fd5b5061045f610b4f3660046146bd565b612921565b348015610b6057600080fd5b5061045f610b6f366004614d90565b612a39565b348015610b8057600080fd5b50610759610b8f3660046147c2565b6000908152600c60205260409020546001600160a01b031690565b348015610bb657600080fd5b506103dc60008051602061561983398151915281565b348015610bd857600080fd5b5061045f610be7366004614a74565b612b69565b348015610bf857600080fd5b5061045f610c073660046149a5565b612b91565b348015610c1857600080fd5b506103dc6000805160206155f983398151915281565b348015610c3a57600080fd5b5061042f610c49366004614dd5565b612c5c565b348015610c5a57600080fd5b5061045f610c69366004614e03565b612d2c565b348015610c7a57600080fd5b5061045f610c89366004614e6b565b612d83565b348015610c9a57600080fd5b506103dc6000805160206155d983398151915281565b348015610cbc57600080fd5b50600954610759906001600160a01b031681565b60006001600160a01b038316610d415760405162461bcd60e51b815260206004820152602b60248201527f455243313135353a2062616c616e636520717565727920666f7220746865207a60448201526a65726f206164647265737360a81b60648201526084015b60405180910390fd5b5060008181526002602090815260408083206001600160a01b03861684529091529020545b92915050565b60006001600160e01b03198216636a4731c560e11b1480610d665750610d6682613102565b600a546001600160a01b0316610da561310d565b6001600160a01b031614610dcb5760405162461bcd60e51b8152600401610d3890614ea0565b610de56000805160206155d983398151915261098261310d565b610e015760405162461bcd60e51b8152600401610d3890614ea0565b610e1b6000805160206155b983398151915261098261310d565b610e375760405162461bcd60e51b8152600401610d3890614ec7565b610e408161311c565b50565b6009546001600160a01b0316610e5761310d565b6001600160a01b031614610e7d5760405162461bcd60e51b8152600401610d3890614eed565b610e8a600061098261310d565b610ea65760405162461bcd60e51b8152600401610d3890614eed565b6009546001600160a01b0316610eba61310d565b6001600160a01b031614610ee05760405162461bcd60e51b8152600401610d3890614f11565b610eed600061098261310d565b610f095760405162461bcd60e51b8152600401610d3890614f11565b600a80546001600160a01b038381166001600160a01b0319831681179093551690610f43906000805160206155d9833981519152906116fc565b600a54610f68906000805160206155b9833981519152906001600160a01b03166116fc565b600a54610f8d90600080516020615619833981519152906001600160a01b03166116fc565b600a54610fb2906000805160206155f9833981519152906001600160a01b03166116fc565b610fca6000805160206155d983398151915282612b69565b610fe26000805160206155b983398151915282612b69565b610ffa60008051602061561983398151915282612b69565b6110126000805160206155f983398151915282612b69565b600a54604080516001600160a01b03808516825290921660208301527fd58299b712891143e76310d5e664c4203c940a67db37cf856bdaa3c5c76a802c91015b60405180910390a15050565b600f805461106b90614f34565b80601f016020809104026020016040519081016040528092919081815260200182805461109790614f34565b80156110e45780601f106110b9576101008083540402835291602001916110e4565b820191906000526020600020905b8154815290600101906020018083116110c757829003601f168201915b505050505081565b60408051606081810183526001600160a01b0388166000818152600760209081529085902054845283015291810186905261112a878287878761312f565b6111805760405162461bcd60e51b815260206004820152602160248201527f5369676e657220616e64207369676e617475726520646f206e6f74206d6174636044820152600d60fb1b6064820152608401610d38565b6001600160a01b0387166000908152600760205260409020546111a4906001614f7f565b6001600160a01b0388166000908152600760205260409081902091909155517f5845892132946850460bff5a0083f71031bc5bf9aadcd40f1de79423eac9b10b906111f490899033908a90614f97565b60405180910390a1600080306001600160a01b0316888a60405160200161121c929190614fcc565b60408051601f198184030181529082905261123691615003565b6000604051808303816000865af19150503d8060008114611273576040519150601f19603f3d011682016040523d82523d6000602084013e611278565b606091505b5091509150816112b35760405162461bcd60e51b8152600401610d389060208082526004908201526319985a5b60e21b604082015260600190565b98975050505050505050565b6000818152600c60205260409020546060906001600160a01b031661131a5760405162461bcd60e51b81526020600482015260116024820152702727a722ac24a9aa22a72a2faa27a5a2a760791b6044820152606401610d38565b6000828152600e60205260408120805461133390614f34565b80601f016020809104026020016040519081016040528092919081815260200182805461135f90614f34565b80156113ac5780601f10611381576101008083540402835291602001916113ac565b820191906000526020600020905b81548152906001019060200180831161138f57829003601f168201915b5050505050905060008151111561145c576000838152600e6020526040902080546113d690614f34565b80601f016020809104026020016040519081016040528092919081815260200182805461140290614f34565b801561144f5780601f106114245761010080835404028352916020019161144f565b820191906000526020600020905b81548152906001019060200180831161143257829003601f168201915b5050505050915050919050565b611465836131fd565b9392505050565b50919050565b600a546000906001600160a01b031661148961310d565b6001600160a01b0316146114af5760405162461bcd60e51b8152600401610d3890614ea0565b6114c96000805160206155d983398151915261098261310d565b6114e55760405162461bcd60e51b8152600401610d3890614ea0565b506000979650505050505050565b61150d60008051602061561983398151915261098261310d565b61157f5760405162461bcd60e51b815260206004820152603860248201527f455243313135355072657365744d696e7465725061757365723a206d7573742060448201527f68617665206d696e74657220726f6c6520746f206d696e7400000000000000006064820152608401610d38565b61158b84848484613291565b50505050565b6000828152601360209081526040808320815160608101835290546001600160a01b0381168252600160a01b810462ffffff1693820193909352600160b81b90920460ff16158015918301919091528291906116155780516020820151909350612710906116049062ffffff168661501f565b61160e919061503e565b915061164b565b6000858152600c60205260409020546001600160a01b0316925061271061163e856101f461501f565b611648919061503e565b91505b509250929050565b61165b61310d565b6001600160a01b0316856001600160a01b03161480611681575061168185610c4961310d565b6116e85760405162461bcd60e51b815260206004820152603260248201527f455243313135353a207472616e736665722063616c6c6572206973206e6f74206044820152711bdddb995c881b9bdc88185c1c1c9bdd995960721b6064820152608401610d38565b6116f585858585856133f7565b5050505050565b60008281526020819052604090206001015461171f8161171a61310d565b6135af565b6117298383613613565b505050565b61173661310d565b6001600160a01b0316816001600160a01b0316146117ae5760405162461bcd60e51b815260206004820152602f60248201527f416363657373436f6e74726f6c3a2063616e206f6e6c792072656e6f756e636560448201526e103937b632b9903337b91039b2b63360891b6064820152608401610d38565b6117b88282613635565b5050565b816117c561310d565b6000828152600c60205260409020546001600160a01b039081169116146117fe5760405162461bcd60e51b8152600401610d3890614ec7565b6118186000805160206155b983398151915261098261310d565b6118345760405162461bcd60e51b8152600401610d3890614ec7565b6000838152600e602090815260409091208351611853928501906144bf565b50827f6bb7ff708619ba0610cba295a58592e0451dee2622938c8755667688daf3529b836040516118849190614732565b60405180910390a2505050565b6118ab6000805160206155f983398151915261098261310d565b61191d5760405162461bcd60e51b815260206004820152603b60248201527f455243313135355072657365744d696e7465725061757365723a206d7573742060448201527f686176652070617573657220726f6c6520746f20756e706175736500000000006064820152608401610d38565b611925613657565b565b6060815183511461198c5760405162461bcd60e51b815260206004820152602960248201527f455243313135353a206163636f756e747320616e6420696473206c656e677468604482015268040dad2e6dac2e8c6d60bb1b6064820152608401610d38565b600083516001600160401b038111156119a7576119a76145cc565b6040519080825280602002602001820160405280156119d0578160200160208202803683370190505b50905060005b8451811015611a4857611a1b8582815181106119f4576119f4615060565b6020026020010151858381518110611a0e57611a0e615060565b6020026020010151610cd0565b828281518110611a2d57611a2d615060565b6020908102919091010152611a4181615076565b90506119d6565b509392505050565b6000818152600c60205260408120546001600160a01b03161515610d66565b60026008541415611ac25760405162461bcd60e51b815260206004820152601f60248201527f5265656e7472616e637947756172643a207265656e7472616e742063616c6c006044820152606401610d38565b60026008556009546001600160a01b0316611adb61310d565b6001600160a01b031614611b015760405162461bcd60e51b8152600401610d3890614eed565b611b0e600061098261310d565b611b2a5760405162461bcd60e51b8152600401610d3890614eed565b60004711611b675760405162461bcd60e51b815260206004820152600a60248201526909c9ea8be8a9c9eaa8e960b31b6044820152606401610d38565b6000816001600160a01b03164760405160006040518083038185875af1925050503d8060008114611bb4576040519150601f19603f3d011682016040523d82523d6000602084013e611bb9565b606091505b5050905080611bf35760405162461bcd60e51b8152600401610d38906020808252600490820152631190525360e21b604082015260600190565b50506001600855565b6009546001600160a01b03163314611c435760405162461bcd60e51b815260206004820152600a60248201526941444d494e5f4f4e4c5960b01b6044820152606401610d38565b611c4e600033612135565b611c875760405162461bcd60e51b815260206004820152600a60248201526941444d494e5f4f4e4c5960b01b6044820152606401610d38565b6001600160a01b038116611ccf5760405162461bcd60e51b815260206004820152600f60248201526e105111149154d4d7d2539590531251608a1b6044820152606401610d38565b601680546001600160a01b038381166001600160a01b031983168117909355604080519190921680825260208201939093527fff8b036e9641959ee1d5b4efb05f8fa0e816d57e2879aa0758b191993511f7dd9101611052565b611d3161310d565b6001600160a01b0316836001600160a01b03161480611d575750611d5783610c4961310d565b611d735760405162461bcd60e51b8152600401610d3890615091565b6117298383836136f0565b82611d8761310d565b6000828152600c60205260409020546001600160a01b03908116911614611dc05760405162461bcd60e51b8152600401610d3890614ec7565b6000848152600c60205260409020546001600160a01b0316611e155760405162461bcd60e51b815260206004820152600e60248201526d2727a722ac24a9aa2faa27a5a2a760911b6044820152606401610d38565b611e2f60008051602061561983398151915261098261310d565b611e685760405162461bcd60e51b815260206004820152600a6024820152692727aa2fa6a4a72a22a960b11b6044820152606401610d38565b60008481526012602052604090205415611ebf57600084815260126020908152604080832054600d90925290912054611ea19085613888565b1115611ebf5760405162461bcd60e51b8152600401610d38906150da565b611ecb85858585613894565b6000848152600d6020526040902054611ee49084613888565b6000858152600d60209081526040918290209290925580516001600160a01b038816815291820186905281018490527f8069ef4945469d029cc32e222031bccdc99b2eaaf4ee374cd268012f7ddee9079060600160405180910390a15050505050565b611f616000805160206155f983398151915261098261310d565b611fd35760405162461bcd60e51b815260206004820152603960248201527f455243313135355072657365744d696e7465725061757365723a206d7573742060448201527f686176652070617573657220726f6c6520746f207061757365000000000000006064820152608401610d38565b611925613977565b6009546001600160a01b0316611fef61310d565b6001600160a01b0316146120155760405162461bcd60e51b8152600401610d3890614eed565b612022600061098261310d565b61203e5760405162461bcd60e51b8152600401610d3890614eed565b6009546001600160a01b031661205261310d565b6001600160a01b0316146120785760405162461bcd60e51b8152600401610d3890614f11565b612085600061098261310d565b6120a15760405162461bcd60e51b8152600401610d3890614f11565b600980546001600160a01b038381166001600160a01b03198316811790935516906120ce906000906116fc565b6120d9600082612b69565b600954604080516001600160a01b03808516825290921660208301527f7e644d79422f17c01e4894b5f4f588d331ebfa28653d42ae832dc59e38c9798f9101611052565b600082815260016020526040812061146590836139f3565b6000918252602082815260408084206001600160a01b0393909316845291905290205460ff1690565b6010805461106b90614f34565b600a546001600160a01b031661217f61310d565b6001600160a01b0316146121a55760405162461bcd60e51b8152600401610d3890614ea0565b6121bf6000805160206155d983398151915261098261310d565b6121db5760405162461bcd60e51b8152600401610d3890614ea0565b6121f56000805160206155b983398151915261098261310d565b61222f5760405162461bcd60e51b815260206004820152600b60248201526a2727aa2fa1a922a0aa27a960a91b6044820152606401610d38565b61271081111561226c5760405162461bcd60e51b81526020600482015260086024820152670a89e9ebe90928e960c31b6044820152606401610d38565b604080516060810182526001600160a01b03938416815262ffffff928316602080830191825260018385019081526000978852601390915292909520905181549551925194166001600160b81b031990951694909417600160a01b91909216021760ff60b81b1916600160b81b91151591909102179055565b601654604051636d12dce160e01b815260206004820152600e60248201526d5449434b45545f5055425f46454560901b60448201526000916001600160a01b03169082908290636d12dce190606401602060405180830381865afa158015612351573d6000803e3d6000fd5b505050506040513d601f19601f8201168201806040525081019061237591906150fd565b905080156123c057803410156123c05760405162461bcd60e51b815260206004820152601060248201526f4d4953535f5055424c4953485f46454560801b6044820152606401610d38565b6123ce601480546001019055565b60145460158190555061240288601554898960405180604001604052806002815260200161060f60f31b8152508a8a6139ff565b5050601554979650505050505050565b6117b861241d61310d565b8383613b9c565b600a546001600160a01b031661243861310d565b6001600160a01b03161461245e5760405162461bcd60e51b8152600401610d3890614ea0565b6124786000805160206155d983398151915261098261310d565b6124945760405162461bcd60e51b8152600401610d3890614ea0565b6124ae60008051602061561983398151915261098261310d565b6124e75760405162461bcd60e51b815260206004820152600a6024820152692727aa2fa6a4a72a22a960b11b6044820152606401610d38565b60005b83518110156125bc57600084828151811061250757612507615060565b6020026020010151905061251961310d565b6000828152600c60205260409020546001600160a01b039081169116146125525760405162461bcd60e51b8152600401610d3890614ec7565b600084838151811061256657612566615060565b6020026020010151905061259681600d60008581526020019081526020016000205461388890919063ffffffff16565b6000928352600d60205260409092209190915550806125b481615076565b9150506124ea565b5061158b84848484613291565b6000838152600c60205260409020546001600160a01b031661261e5760405162461bcd60e51b815260206004820152600e60248201526d2727a722ac24a9aa2faa27a5a2a760911b6044820152606401610d38565b6000838152601160205260409020541561268d5760008381526011602052604090205461264c90839061501f565b3410156126885760405162461bcd60e51b815260206004820152600a6024820152694d4953535f505249434560b01b6044820152606401610d38565b6126cd565b60018211156126cd5760405162461bcd60e51b815260206004820152600c60248201526b4d41585f5155414e5449545960a01b6044820152606401610d38565b6000838152601260205260409020541561272457600083815260126020908152604080832054600d909252909120546127069084613888565b11156127245760405162461bcd60e51b8152600401610d38906150da565b61273084848484613894565b6000838152600d60205260409020546127499083613888565b6000848152600d6020908152604080832093909355601190522054156128ba57601654604051636d12dce160e01b815260206004820152600e60248201526d5449434b45545f5055525f46454560901b60448201526001600160a01b03909116906000908290636d12dce190606401602060405180830381865afa1580156127d5573d6000803e3d6000fd5b505050506040513d601f19601f820116820180604052508101906127f991906150fd565b9050600061271061280a833461501f565b612814919061503e565b6000878152600c6020526040812054919250906001600160a01b031661283a8334615116565b604051600081818185875af1925050503d8060008114612876576040519150601f19603f3d011682016040523d82523d6000602084013e61287b565b606091505b50509050806128b55760405162461bcd60e51b8152600401610d38906020808252600490820152631190525360e21b604082015260600190565b505050505b604080516001600160a01b0386168152602081018590529081018390527f8069ef4945469d029cc32e222031bccdc99b2eaaf4ee374cd268012f7ddee9079060600160405180910390a150505050565b6000818152600160205260408120610d6690613c7d565b600a546001600160a01b031661293561310d565b6001600160a01b03161461295b5760405162461bcd60e51b8152600401610d3890614ea0565b6129756000805160206155d983398151915261098261310d565b6129915760405162461bcd60e51b8152600401610d3890614ea0565b600b546001600160a01b03828116911614156129df5760405162461bcd60e51b815260206004820152600d60248201526c141493d61657d2539590531251609a1b6044820152606401610d38565b600b80546001600160a01b038381166001600160a01b031983168117909355604080519190921680825260208201939093527ffc15895015d07bcb2ae0459d79c7bfb40d36feedb31f55cc34e3ef404c86c5779101611052565b600a546001600160a01b0316612a4d61310d565b6001600160a01b031614612a735760405162461bcd60e51b8152600401610d3890614ea0565b612a8d6000805160206155d983398151915261098261310d565b612aa95760405162461bcd60e51b8152600401610d3890614ea0565b6001600160a01b038216612af25760405162461bcd60e51b815260206004820152601060248201526f24a72b20a624a22fa0a2222922a9a99760811b6044820152606401610d38565b612b0a6000805160206155b983398151915283613613565b612b2260008051602061561983398151915283613613565b60005b8151811015611729576000828281518110612b4257612b42615060565b60200260200101519050612b568482613c87565b5080612b6181615076565b915050612b25565b600082815260208190526040902060010154612b878161171a61310d565b6117298383613635565b600a546001600160a01b0316612ba561310d565b6001600160a01b031614612bcb5760405162461bcd60e51b8152600401610d3890614ea0565b612be56000805160206155d983398151915261098261310d565b612c015760405162461bcd60e51b8152600401610d3890614ea0565b60008281526011602090815260409182902080549084905582518581529182018190529181018390527f2bce37c591c5b0d254c3056688b080a088f160fff82b6e79f456c8a20d5570f69060600160405180910390a1505050565b600b546000906001600160a01b031615612cfe57600b5460405163c455279160e01b81526001600160a01b03858116600483015291821691841690829063c455279190602401602060405180830381865afa158015612cbf573d6000803e3d6000fd5b505050506040513d601f19601f82011682018060405250810190612ce3919061512d565b6001600160a01b03161415612cfc576001915050610d66565b505b6001600160a01b0380841660009081526003602090815260408083209386168352929052205460ff16611465565b612d3461310d565b6001600160a01b0316856001600160a01b03161480612d5a5750612d5a85610c4961310d565b612d765760405162461bcd60e51b8152600401610d3890615091565b6116f58585858585613cf8565b612d8b61310d565b6001600160a01b0316836001600160a01b03161480612db15750612db183610c4961310d565b612dcd5760405162461bcd60e51b8152600401610d3890615091565b611729838383613e24565b600033301415612e2f57600080368080601f0160208091040260200160405190810160405280939291908181526020018383808284376000920191909152505050503601516001600160a01b03169150612e329050565b50335b90565b612e3f8282612135565b6117b8576000828152602081815260408083206001600160a01b03851684529091529020805460ff19166001179055612e7661310d565b6001600160a01b0316816001600160a01b0316837f2f8788117e7eff1d82e926ec794901d17c78024a50270940304540a733656f0d60405160405180910390a45050565b6000611465836001600160a01b038416613f34565b60606000612ede83600261501f565b612ee9906002614f7f565b6001600160401b03811115612f0057612f006145cc565b6040519080825280601f01601f191660200182016040528015612f2a576020820181803683370190505b509050600360fc1b81600081518110612f4557612f45615060565b60200101906001600160f81b031916908160001a905350600f60fb1b81600181518110612f7457612f74615060565b60200101906001600160f81b031916908160001a9053506000612f9884600261501f565b612fa3906001614f7f565b90505b600181111561301b576f181899199a1a9b1b9c1cb0b131b232b360811b85600f1660108110612fd757612fd7615060565b1a60f81b828281518110612fed57612fed615060565b60200101906001600160f81b031916908160001a90535060049490941c936130148161514a565b9050612fa6565b5083156114655760405162461bcd60e51b815260206004820181905260248201527f537472696e67733a20686578206c656e67746820696e73756666696369656e746044820152606401610d38565b6130748282612135565b156117b8576000828152602081815260408083206001600160a01b03851684529091529020805460ff191690556130a961310d565b6001600160a01b0316816001600160a01b0316837ff6391f5c32d9c69d2a47ea670b442974b53935d1edc7fd64eb21e047a839171b60405160405180910390a45050565b6000611465836001600160a01b038416613f83565b6000610d6682614076565b6000613117612dd8565b905090565b80516117b89060049060208401906144bf565b60006001600160a01b0386166131735760405162461bcd60e51b815260206004820152600960248201526824a72fa9a4a3a722a960b91b6044820152606401610d38565b6001613186613181876140b6565b614133565b6040805160008152602081018083529290925260ff851690820152606081018690526080810185905260a0016020604051602081039080840390855afa1580156131d4573d6000803e3d6000fd5b505050602060405103516001600160a01b0316866001600160a01b031614905095945050505050565b60606004805461320c90614f34565b80601f016020809104026020016040519081016040528092919081815260200182805461323890614f34565b80156132855780601f1061325a57610100808354040283529160200191613285565b820191906000526020600020905b81548152906001019060200180831161326857829003601f168201915b50505050509050919050565b6001600160a01b0384166132b75760405162461bcd60e51b8152600401610d3890615161565b81518351146132d85760405162461bcd60e51b8152600401610d38906151a2565b60006132e261310d565b90506132f381600087878787614163565b60005b845181101561338f5783818151811061331157613311615060565b60200260200101516002600087848151811061332f5761332f615060565b602002602001015181526020019081526020016000206000886001600160a01b03166001600160a01b0316815260200190815260200160002060008282546133779190614f7f565b9091555081905061338781615076565b9150506132f6565b50846001600160a01b031660006001600160a01b0316826001600160a01b03167f4a39dc06d4c0dbc64b70af90fd698a233a518aa5d07e595d983b8c0526c8f7fb87876040516133e09291906151ea565b60405180910390a46116f581600087878787614171565b81518351146134185760405162461bcd60e51b8152600401610d38906151a2565b6001600160a01b03841661343e5760405162461bcd60e51b8152600401610d389061520f565b600061344861310d565b9050613458818787878787614163565b60005b845181101561354157600085828151811061347857613478615060565b60200260200101519050600085838151811061349657613496615060565b60209081029190910181015160008481526002835260408082206001600160a01b038e1683529093529190912054909150818110156134e75760405162461bcd60e51b8152600401610d3890615254565b60008381526002602090815260408083206001600160a01b038e8116855292528083208585039055908b16825281208054849290613526908490614f7f565b925050819055505050508061353a90615076565b905061345b565b50846001600160a01b0316866001600160a01b0316826001600160a01b03167f4a39dc06d4c0dbc64b70af90fd698a233a518aa5d07e595d983b8c0526c8f7fb87876040516135919291906151ea565b60405180910390a46135a7818787878787614171565b505050505050565b6135b98282612135565b6117b8576135d1816001600160a01b03166014612ecf565b6135dc836020612ecf565b6040516020016135ed92919061529e565b60408051601f198184030181529082905262461bcd60e51b8252610d3891600401614732565b61361d8282612e35565b60008281526001602052604090206117299082612eba565b61363f828261306a565b600082815260016020526040902061172990826130ed565b60055460ff166136a05760405162461bcd60e51b815260206004820152601460248201527314185d5cd8589b194e881b9bdd081c185d5cd95960621b6044820152606401610d38565b6005805460ff191690557f5db9ee0a495bf2e6ff9c91a7834c1ba4fdd244a5e8aa4e537bd38aeae4b073aa6136d361310d565b6040516001600160a01b03909116815260200160405180910390a1565b6001600160a01b0383166137165760405162461bcd60e51b8152600401610d3890615313565b80518251146137375760405162461bcd60e51b8152600401610d38906151a2565b600061374161310d565b905061376181856000868660405180602001604052806000815250614163565b60005b835181101561382957600084828151811061378157613781615060565b60200260200101519050600084838151811061379f5761379f615060565b60209081029190910181015160008481526002835260408082206001600160a01b038c1683529093529190912054909150818110156137f05760405162461bcd60e51b8152600401610d3890615356565b60009283526002602090815260408085206001600160a01b038b168652909152909220910390558061382181615076565b915050613764565b5060006001600160a01b0316846001600160a01b0316826001600160a01b03167f4a39dc06d4c0dbc64b70af90fd698a233a518aa5d07e595d983b8c0526c8f7fb868660405161387a9291906151ea565b60405180910390a450505050565b60006114658284614f7f565b6001600160a01b0384166138ba5760405162461bcd60e51b8152600401610d3890615161565b60006138c461310d565b90506138e5816000876138d6886142cd565b6138df886142cd565b87614163565b60008481526002602090815260408083206001600160a01b038916845290915281208054859290613917908490614f7f565b909155505060408051858152602081018590526001600160a01b0380881692600092918516917fc3d58168c5ae7397731d063d5bbf3d657854427343f4c083240f7aacaa2d0f62910160405180910390a46116f581600087878787614318565b60055460ff16156139bd5760405162461bcd60e51b815260206004820152601060248201526f14185d5cd8589b194e881c185d5cd95960821b6044820152606401610d38565b6005805460ff191660011790557f62e78cea01bee320cd4e420270b5ea74000d11b0c9f74754ebdbfc544b05a2586136d361310d565b600061146583836143d3565b6000868152600c60205260408120546001600160a01b031615613a545760405162461bcd60e51b815260206004820152600d60248201526c1053149150511657d1561254d5609a1b6044820152606401610d38565b8115613a7a5781861115613a7a5760405162461bcd60e51b8152600401610d38906150da565b613a8261310d565b6000888152600c6020526040902080546001600160a01b0319166001600160a01b0392909216919091179055845115613b0e576000878152600e602090815260409091208651613ad4928801906144bf565b50867f6bb7ff708619ba0610cba295a58592e0451dee2622938c8755667688daf3529b86604051613b059190614732565b60405180910390a25b613b1a88888887613894565b6000878152600d6020908152604080832089905560118252808320869055601290915290819020839055600a5490517fdfd613b842aef92c704876cb5eb94df518752614cc459d562f47af89b9be912691613b88918b918b918b918b916001600160a01b039091169061539a565b60405180910390a150949695505050505050565b816001600160a01b0316836001600160a01b03161415613c105760405162461bcd60e51b815260206004820152602960248201527f455243313135353a2073657474696e6720617070726f76616c20737461747573604482015268103337b91039b2b63360b91b6064820152608401610d38565b6001600160a01b03838116600081815260036020908152604080832094871680845294825291829020805460ff191686151590811790915591519182527f17307eab39ab6107e8899845ad3d59bd9653f200f220920489ca2b5937696c31910160405180910390a3505050565b6000610d66825490565b80613c9061310d565b6000828152600c60205260409020546001600160a01b03908116911614613cc95760405162461bcd60e51b8152600401610d3890614ec7565b506000908152600c6020526040902080546001600160a01b0319166001600160a01b0392909216919091179055565b6001600160a01b038416613d1e5760405162461bcd60e51b8152600401610d389061520f565b6000613d2861310d565b9050613d398187876138d6886142cd565b60008481526002602090815260408083206001600160a01b038a16845290915290205483811015613d7c5760405162461bcd60e51b8152600401610d3890615254565b60008581526002602090815260408083206001600160a01b038b8116855292528083208785039055908816825281208054869290613dbb908490614f7f565b909155505060408051868152602081018690526001600160a01b03808916928a821692918616917fc3d58168c5ae7397731d063d5bbf3d657854427343f4c083240f7aacaa2d0f62910160405180910390a4613e1b828888888888614318565b50505050505050565b6001600160a01b038316613e4a5760405162461bcd60e51b8152600401610d3890615313565b6000613e5461310d565b9050613e8481856000613e66876142cd565b613e6f876142cd565b60405180602001604052806000815250614163565b60008381526002602090815260408083206001600160a01b038816845290915290205482811015613ec75760405162461bcd60e51b8152600401610d3890615356565b60008481526002602090815260408083206001600160a01b03898116808652918452828520888703905582518981529384018890529092908616917fc3d58168c5ae7397731d063d5bbf3d657854427343f4c083240f7aacaa2d0f62910160405180910390a45050505050565b6000818152600183016020526040812054613f7b57508154600181810184556000848152602080822090930184905584548482528286019093526040902091909155610d66565b506000610d66565b6000818152600183016020526040812054801561406c576000613fa7600183615116565b8554909150600090613fbb90600190615116565b9050818114614020576000866000018281548110613fdb57613fdb615060565b9060005260206000200154905080876000018481548110613ffe57613ffe615060565b6000918252602080832090910192909255918252600188019052604090208390555b8554869080614031576140316153dd565b600190038181906000526020600020016000905590558560010160008681526020019081526020016000206000905560019350505050610d66565b6000915050610d66565b60006001600160e01b03198216636cdb3d1360e11b14806140a757506001600160e01b031982166303a24d0760e21b145b80610d665750610d66826143fd565b60006040518060600160405280602581526020016155946025913980516020918201208351848301516040808701518051908601209051614116950193845260208401929092526001600160a01b03166040830152606082015260800190565b604051602081830303815290604052805190602001209050919050565b600061413e60065490565b60405161190160f01b6020820152602281019190915260428101839052606201614116565b6135a7868686868686614422565b6001600160a01b0384163b156135a75760405163bc197c8160e01b81526001600160a01b0385169063bc197c81906141b590899089908890889088906004016153f3565b6020604051808303816000875af19250505080156141f0575060408051601f3d908101601f191682019092526141ed91810190615445565b60015b61429d576141fc615462565b806308c379a01415614236575061421161547d565b8061421c5750614238565b8060405162461bcd60e51b8152600401610d389190614732565b505b60405162461bcd60e51b815260206004820152603460248201527f455243313135353a207472616e7366657220746f206e6f6e20455243313135356044820152732932b1b2b4bb32b91034b6b83632b6b2b73a32b960611b6064820152608401610d38565b6001600160e01b0319811663bc197c8160e01b14613e1b5760405162461bcd60e51b8152600401610d3890615506565b6040805160018082528183019092526060916000919060208083019080368337019050509050828160008151811061430757614307615060565b602090810291909101015292915050565b6001600160a01b0384163b156135a75760405163f23a6e6160e01b81526001600160a01b0385169063f23a6e619061435c908990899088908890889060040161554e565b6020604051808303816000875af1925050508015614397575060408051601f3d908101601f1916820190925261439491810190615445565b60015b6143a3576141fc615462565b6001600160e01b0319811663f23a6e6160e01b14613e1b5760405162461bcd60e51b8152600401610d3890615506565b60008260000182815481106143ea576143ea615060565b9060005260206000200154905092915050565b60006001600160e01b03198216635a05180f60e01b1480610d665750610d668261448a565b60055460ff16156135a75760405162461bcd60e51b815260206004820152602c60248201527f455243313135355061757361626c653a20746f6b656e207472616e736665722060448201526b1dda1a5b19481c185d5cd95960a21b6064820152608401610d38565b60006001600160e01b03198216637965db0b60e01b1480610d6657506301ffc9a760e01b6001600160e01b0319831614610d66565b8280546144cb90614f34565b90600052602060002090601f0160209004810192826144ed5760008555614533565b82601f1061450657805160ff1916838001178555614533565b82800160010185558215614533579182015b82811115614533578251825591602001919060010190614518565b5061453f929150614543565b5090565b5b8082111561453f5760008155600101614544565b6001600160a01b0381168114610e4057600080fd5b6000806040838503121561458057600080fd5b823561458b81614558565b946020939093013593505050565b6001600160e01b031981168114610e4057600080fd5b6000602082840312156145c157600080fd5b813561146581614599565b634e487b7160e01b600052604160045260246000fd5b601f8201601f191681016001600160401b0381118282101715614607576146076145cc565b6040525050565b600082601f83011261461f57600080fd5b81356001600160401b03811115614638576146386145cc565b60405161464f601f8301601f1916602001826145e2565b81815284602083860101111561466457600080fd5b816020850160208301376000918101602001919091529392505050565b60006020828403121561469357600080fd5b81356001600160401b038111156146a957600080fd5b6146b58482850161460e565b949350505050565b6000602082840312156146cf57600080fd5b813561146581614558565b60005b838110156146f55781810151838201526020016146dd565b8381111561158b5750506000910152565b6000815180845261471e8160208601602086016146da565b601f01601f19169290920160200192915050565b6020815260006114656020830184614706565b600080600080600060a0868803121561475d57600080fd5b853561476881614558565b945060208601356001600160401b0381111561478357600080fd5b61478f8882890161460e565b9450506040860135925060608601359150608086013560ff811681146147b457600080fd5b809150509295509295909350565b6000602082840312156147d457600080fd5b5035919050565b600080600080600080600060e0888a0312156147f657600080fd5b873561480181614558565b9650602088013595506040880135945060608801356001600160401b038082111561482b57600080fd5b6148378b838c0161460e565b955060808a013591508082111561484d57600080fd5b5061485a8a828b0161460e565b93505060a0880135915060c0880135905092959891949750929550565b60006001600160401b03821115614890576148906145cc565b5060051b60200190565b600082601f8301126148ab57600080fd5b813560206148b882614877565b6040516148c582826145e2565b83815260059390931b85018201928281019150868411156148e557600080fd5b8286015b8481101561490057803583529183019183016148e9565b509695505050505050565b6000806000806080858703121561492157600080fd5b843561492c81614558565b935060208501356001600160401b038082111561494857600080fd5b6149548883890161489a565b9450604087013591508082111561496a57600080fd5b6149768883890161489a565b9350606087013591508082111561498c57600080fd5b506149998782880161460e565b91505092959194509250565b600080604083850312156149b857600080fd5b50508035926020909101359150565b600080600080600060a086880312156149df57600080fd5b85356149ea81614558565b945060208601356149fa81614558565b935060408601356001600160401b0380821115614a1657600080fd5b614a2289838a0161489a565b94506060880135915080821115614a3857600080fd5b614a4489838a0161489a565b93506080880135915080821115614a5a57600080fd5b50614a678882890161460e565b9150509295509295909350565b60008060408385031215614a8757600080fd5b823591506020830135614a9981614558565b809150509250929050565b60008060408385031215614ab757600080fd5b8235915060208301356001600160401b03811115614ad457600080fd5b6116488582860161460e565b60008060408385031215614af357600080fd5b82356001600160401b0380821115614b0a57600080fd5b818501915085601f830112614b1e57600080fd5b81356020614b2b82614877565b604051614b3882826145e2565b83815260059390931b8501820192828101915089841115614b5857600080fd5b948201945b83861015614b7f578535614b7081614558565b82529482019490820190614b5d565b96505086013592505080821115614b9557600080fd5b506116488582860161489a565b600081518084526020808501945080840160005b83811015614bd257815187529582019590820190600101614bb6565b509495945050505050565b6020815260006114656020830184614ba2565b600080600060608486031215614c0557600080fd5b8335614c1081614558565b925060208401356001600160401b0380821115614c2c57600080fd5b614c388783880161489a565b93506040860135915080821115614c4e57600080fd5b50614c5b8682870161489a565b9150509250925092565b60008060008060808587031215614c7b57600080fd5b8435614c8681614558565b9350602085013592506040850135915060608501356001600160401b03811115614caf57600080fd5b6149998782880161460e565b600080600060608486031215614cd057600080fd5b833592506020840135614ce281614558565b929592945050506040919091013590565b600080600080600060a08688031215614d0b57600080fd5b8535614d1681614558565b94506020860135935060408601356001600160401b03811115614d3857600080fd5b614d448882890161460e565b9598949750949560608101359550608001359392505050565b60008060408385031215614d7057600080fd5b8235614d7b81614558565b915060208301358015158114614a9957600080fd5b60008060408385031215614da357600080fd5b8235614dae81614558565b915060208301356001600160401b03811115614dc957600080fd5b6116488582860161489a565b60008060408385031215614de857600080fd5b8235614df381614558565b91506020830135614a9981614558565b600080600080600060a08688031215614e1b57600080fd5b8535614e2681614558565b94506020860135614e3681614558565b9350604086013592506060860135915060808601356001600160401b03811115614e5f57600080fd5b614a678882890161460e565b600080600060608486031215614e8057600080fd5b8335614e8b81614558565b95602085013595506040909401359392505050565b6020808252600d908201526c27a7262cafa7a822a920aa27a960991b604082015260600190565b6020808252600c908201526b27a7262cafa1a922a0aa27a960a11b604082015260600190565b6020808252600a908201526927a7262cafa0a226a4a760b11b604082015260600190565b6020808252600990820152682727aa2fa0a226a4a760b91b604082015260600190565b600181811c90821680614f4857607f821691505b6020821081141561146c57634e487b7160e01b600052602260045260246000fd5b634e487b7160e01b600052601160045260246000fd5b60008219821115614f9257614f92614f69565b500190565b6001600160a01b03848116825283166020820152606060408201819052600090614fc390830184614706565b95945050505050565b60008351614fde8184602088016146da565b60609390931b6bffffffffffffffffffffffff19169190920190815260140192915050565b600082516150158184602087016146da565b9190910192915050565b600081600019048311821515161561503957615039614f69565b500290565b60008261505b57634e487b7160e01b600052601260045260246000fd5b500490565b634e487b7160e01b600052603260045260246000fd5b600060001982141561508a5761508a614f69565b5060010190565b60208082526029908201527f455243313135353a2063616c6c6572206973206e6f74206f776e6572206e6f7260408201526808185c1c1c9bdd995960ba1b606082015260800190565b6020808252600990820152680a48a828690be9a82b60bb1b604082015260600190565b60006020828403121561510f57600080fd5b5051919050565b60008282101561512857615128614f69565b500390565b60006020828403121561513f57600080fd5b815161146581614558565b60008161515957615159614f69565b506000190190565b60208082526021908201527f455243313135353a206d696e7420746f20746865207a65726f206164647265736040820152607360f81b606082015260800190565b60208082526028908201527f455243313135353a2069647320616e6420616d6f756e7473206c656e677468206040820152670dad2e6dac2e8c6d60c31b606082015260800190565b6040815260006151fd6040830185614ba2565b8281036020840152614fc38185614ba2565b60208082526025908201527f455243313135353a207472616e7366657220746f20746865207a65726f206164604082015264647265737360d81b606082015260800190565b6020808252602a908201527f455243313135353a20696e73756666696369656e742062616c616e636520666f60408201526939103a3930b739b332b960b11b606082015260800190565b7f416363657373436f6e74726f6c3a206163636f756e74200000000000000000008152600083516152d68160178501602088016146da565b7001034b99036b4b9b9b4b733903937b6329607d1b60179184019182015283516153078160288401602088016146da565b01602801949350505050565b60208082526023908201527f455243313135353a206275726e2066726f6d20746865207a65726f206164647260408201526265737360e81b606082015260800190565b60208082526024908201527f455243313135353a206275726e20616d6f756e7420657863656564732062616c604082015263616e636560e01b606082015260800190565b600060018060a01b03808816835286602084015285604084015260a060608401526153c860a0840186614706565b91508084166080840152509695505050505050565b634e487b7160e01b600052603160045260246000fd5b6001600160a01b0386811682528516602082015260a06040820181905260009061541f90830186614ba2565b82810360608401526154318186614ba2565b905082810360808401526112b38185614706565b60006020828403121561545757600080fd5b815161146581614599565b600060033d1115612e325760046000803e5060005160e01c90565b600060443d101561548b5790565b6040516003193d81016004833e81513d6001600160401b0381602484011181841117156154ba57505050505090565b82850191508151818111156154d25750505050505090565b843d87010160208285010111156154ec5750505050505090565b6154fb602082860101876145e2565b509095945050505050565b60208082526028908201527f455243313135353a204552433131353552656365697665722072656a656374656040820152676420746f6b656e7360c01b606082015260800190565b6001600160a01b03868116825285166020820152604081018490526060810183905260a06080820181905260009061558890830184614706565b97965050505050505056fe4d6574615472616e73616374696f6e286e6f6e63652c66726f6d2c7369676e617475726529828634d95e775031b9ff576b159a8509d3053581a8c9c4d7d86899e0afcd882f97667070c54ef182b0f5858b034beac1b6f3089aa2d3188bb1e8929f4fa9b92965d7a28e3265b37a6474929f336521b332c1681b933f6cb9f3376673440d862a9f2df0fed2c77648de5860a4cc508cd0818c85b8b8a1ab4ceeef8d981c8956a6a26469706673582212209a47935ab5cde2ec2a136526c9ce3b97028b37f562d0f6da983ec3b6aa25c69f64736f6c634300080c0033454950373132446f6d61696e28737472696e67206e616d652c737472696e672076657273696f6e2c6164647265737320766572696679696e67436f6e74726163742c627974657333322073616c742965d7a28e3265b37a6474929f336521b332c1681b933f6cb9f3376673440d862a9f2df0fed2c77648de5860a4cc508cd0818c85b8b8a1ab4ceeef8d981c8956a6",
  "linkReferences": {},
  "deployedLinkReferences": {}
}