{
  "_format": "hh-sol-artifact-1",
  "contractName": "ParameterControl",
  "sourceName": "contracts/governance/ParameterControl.sol",
  "abi": [
    {
      "inputs": [
        {
          "internalType": "address",
          "name": "admin_",
          "type": "address"
        }
      ],
      "stateMutability": "nonpayable",
      "type": "constructor"
    },
    {
      "anonymous": false,
      "inputs": [
        {
          "indexed": false,
          "internalType": "address",
          "name": "previousAdmin",
          "type": "address"
        },
        {
          "indexed": false,
          "internalType": "address",
          "name": "newAdmin",
          "type": "address"
        }
      ],
      "name": "AdminChanged",
      "type": "event"
    },
    {
      "anonymous": false,
      "inputs": [
        {
          "indexed": true,
          "internalType": "bytes32",
          "name": "role",
          "type": "bytes32"
        },
        {
          "indexed": true,
          "internalType": "bytes32",
          "name": "previousAdminRole",
          "type": "bytes32"
        },
        {
          "indexed": true,
          "internalType": "bytes32",
          "name": "newAdminRole",
          "type": "bytes32"
        }
      ],
      "name": "RoleAdminChanged",
      "type": "event"
    },
    {
      "anonymous": false,
      "inputs": [
        {
          "indexed": true,
          "internalType": "bytes32",
          "name": "role",
          "type": "bytes32"
        },
        {
          "indexed": true,
          "internalType": "address",
          "name": "account",
          "type": "address"
        },
        {
          "indexed": true,
          "internalType": "address",
          "name": "sender",
          "type": "address"
        }
      ],
      "name": "RoleGranted",
      "type": "event"
    },
    {
      "anonymous": false,
      "inputs": [
        {
          "indexed": true,
          "internalType": "bytes32",
          "name": "role",
          "type": "bytes32"
        },
        {
          "indexed": true,
          "internalType": "address",
          "name": "account",
          "type": "address"
        },
        {
          "indexed": true,
          "internalType": "address",
          "name": "sender",
          "type": "address"
        }
      ],
      "name": "RoleRevoked",
      "type": "event"
    },
    {
      "anonymous": false,
      "inputs": [
        {
          "indexed": false,
          "internalType": "string",
          "name": "key",
          "type": "string"
        },
        {
          "indexed": false,
          "internalType": "string",
          "name": "value",
          "type": "string"
        }
      ],
      "name": "SetEvent",
      "type": "event"
    },
    {
      "inputs": [],
      "name": "DEFAULT_ADMIN_ROLE",
      "outputs": [
        {
          "internalType": "bytes32",
          "name": "",
          "type": "bytes32"
        }
      ],
      "stateMutability": "view",
      "type": "function"
    },
    {
      "inputs": [],
      "name": "admin",
      "outputs": [
        {
          "internalType": "address",
          "name": "",
          "type": "address"
        }
      ],
      "stateMutability": "view",
      "type": "function"
    },
    {
      "inputs": [
        {
          "internalType": "string",
          "name": "key",
          "type": "string"
        }
      ],
      "name": "get",
      "outputs": [
        {
          "internalType": "string",
          "name": "",
          "type": "string"
        }
      ],
      "stateMutability": "view",
      "type": "function"
    },
    {
      "inputs": [
        {
          "internalType": "string",
          "name": "key",
          "type": "string"
        }
      ],
      "name": "getInt",
      "outputs": [
        {
          "internalType": "int256",
          "name": "",
          "type": "int256"
        }
      ],
      "stateMutability": "view",
      "type": "function"
    },
    {
      "inputs": [
        {
          "internalType": "bytes32",
          "name": "role",
          "type": "bytes32"
        }
      ],
      "name": "getRoleAdmin",
      "outputs": [
        {
          "internalType": "bytes32",
          "name": "",
          "type": "bytes32"
        }
      ],
      "stateMutability": "view",
      "type": "function"
    },
    {
      "inputs": [
        {
          "internalType": "string",
          "name": "key",
          "type": "string"
        }
      ],
      "name": "getUInt256",
      "outputs": [
        {
          "internalType": "uint256",
          "name": "",
          "type": "uint256"
        }
      ],
      "stateMutability": "view",
      "type": "function"
    },
    {
      "inputs": [
        {
          "internalType": "bytes32",
          "name": "role",
          "type": "bytes32"
        },
        {
          "internalType": "address",
          "name": "account",
          "type": "address"
        }
      ],
      "name": "grantRole",
      "outputs": [],
      "stateMutability": "nonpayable",
      "type": "function"
    },
    {
      "inputs": [
        {
          "internalType": "bytes32",
          "name": "role",
          "type": "bytes32"
        },
        {
          "internalType": "address",
          "name": "account",
          "type": "address"
        }
      ],
      "name": "hasRole",
      "outputs": [
        {
          "internalType": "bool",
          "name": "",
          "type": "bool"
        }
      ],
      "stateMutability": "view",
      "type": "function"
    },
    {
      "inputs": [
        {
          "internalType": "bytes32",
          "name": "role",
          "type": "bytes32"
        },
        {
          "internalType": "address",
          "name": "account",
          "type": "address"
        }
      ],
      "name": "renounceRole",
      "outputs": [],
      "stateMutability": "nonpayable",
      "type": "function"
    },
    {
      "inputs": [
        {
          "internalType": "bytes32",
          "name": "role",
          "type": "bytes32"
        },
        {
          "internalType": "address",
          "name": "account",
          "type": "address"
        }
      ],
      "name": "revokeRole",
      "outputs": [],
      "stateMutability": "nonpayable",
      "type": "function"
    },
    {
      "inputs": [
        {
          "internalType": "string",
          "name": "key",
          "type": "string"
        },
        {
          "internalType": "string",
          "name": "value",
          "type": "string"
        }
      ],
      "name": "set",
      "outputs": [],
      "stateMutability": "nonpayable",
      "type": "function"
    },
    {
      "inputs": [
        {
          "internalType": "string",
          "name": "key",
          "type": "string"
        },
        {
          "internalType": "int256",
          "name": "value",
          "type": "int256"
        }
      ],
      "name": "setInt",
      "outputs": [],
      "stateMutability": "nonpayable",
      "type": "function"
    },
    {
      "inputs": [
        {
          "internalType": "string",
          "name": "key",
          "type": "string"
        },
        {
          "internalType": "uint256",
          "name": "value",
          "type": "uint256"
        }
      ],
      "name": "setUInt256",
      "outputs": [],
      "stateMutability": "nonpayable",
      "type": "function"
    },
    {
      "inputs": [
        {
          "internalType": "bytes4",
          "name": "interfaceId",
          "type": "bytes4"
        }
      ],
      "name": "supportsInterface",
      "outputs": [
        {
          "internalType": "bool",
          "name": "",
          "type": "bool"
        }
      ],
      "stateMutability": "view",
      "type": "function"
    },
    {
      "inputs": [
        {
          "internalType": "address",
          "name": "admin_",
          "type": "address"
        }
      ],
      "name": "updateAdmin",
      "outputs": [],
      "stateMutability": "nonpayable",
      "type": "function"
    }
  ],
  "bytecode": "0x608060405234801561001057600080fd5b50604051620012da380380620012da83398101604081905261003191610167565b6001600160a01b03811661008b5760405162461bcd60e51b815260206004820152601560248201527f61646d696e206973207a65726f20616464726573730000000000000000000000604482015260640160405180910390fd5b600180546001600160a01b0319166001600160a01b0383169081179091556100b5906000906100bb565b50610197565b6100c582826100c9565b5050565b6000828152602081815260408083206001600160a01b038516845290915290205460ff166100c5576000828152602081815260408083206001600160a01b03851684529091529020805460ff191660011790556101233390565b6001600160a01b0316816001600160a01b0316837f2f8788117e7eff1d82e926ec794901d17c78024a50270940304540a733656f0d60405160405180910390a45050565b60006020828403121561017957600080fd5b81516001600160a01b038116811461019057600080fd5b9392505050565b61113380620001a76000396000f3fe608060405234801561001057600080fd5b50600436106100f55760003560e01c806391d1485411610097578063e2f273bd11610066578063e2f273bd14610202578063e942b51614610215578063f851a44014610228578063fda69fae1461025357600080fd5b806391d14854146101c1578063a217fddf146101d4578063c2c5b9f1146101dc578063d547741f146101ef57600080fd5b806336568abe116100d357806336568abe146101685780634a4fe0db1461017b578063693ec85e1461018e5780636d12dce1146101ae57600080fd5b806301ffc9a7146100fa578063248a9ca3146101225780632f2ff15d14610153575b600080fd5b61010d610108366004610c32565b610266565b60405190151581526020015b60405180910390f35b610145610130366004610c5c565b60009081526020819052604090206001015490565b604051908152602001610119565b610166610161366004610c91565b61029d565b005b610166610176366004610c91565b6102c8565b610166610189366004610d60565b61034b565b6101a161019c366004610da5565b6103f0565b6040516101199190610e3e565b6101456101bc366004610da5565b6104a0565b61010d6101cf366004610c91565b6104c8565b610145600081565b6101666101ea366004610d60565b6104f1565b6101666101fd366004610c91565b610582565b610166610210366004610e51565b6105a8565b610166610223366004610e6c565b6106fc565b60015461023b906001600160a01b031681565b6040516001600160a01b039091168152602001610119565b610145610261366004610da5565b6107e0565b60006001600160e01b03198216637965db0b60e01b148061029757506301ffc9a760e01b6001600160e01b03198316145b92915050565b6000828152602081905260409020600101546102b981336107f2565b6102c38383610856565b505050565b6001600160a01b038116331461033d5760405162461bcd60e51b815260206004820152602f60248201527f416363657373436f6e74726f6c3a2063616e206f6e6c792072656e6f756e636560448201526e103937b632b9903337b91039b2b63360891b60648201526084015b60405180910390fd5b61034782826108da565b5050565b61037a6040518060400160405280600d81526020016c6d73672e73656e64657220257360981b8152503361093f565b6001546001600160a01b031633146103a45760405162461bcd60e51b815260040161033490610ed0565b6103af6000336104c8565b6103cb5760405162461bcd60e51b815260040161033490610efd565b806004836040516103dc9190610f2c565b908152604051908190036020019020555050565b60606002826040516104029190610f2c565b9081526020016040518091039020805461041b90610f48565b80601f016020809104026020016040519081016040528092919081815260200182805461044790610f48565b80156104945780601f1061046957610100808354040283529160200191610494565b820191906000526020600020905b81548152906001019060200180831161047757829003601f168201915b50505050509050919050565b60006004826040516104b29190610f2c565b9081526020016040518091039020549050919050565b6000918252602082815260408084206001600160a01b0393909316845291905290205460ff1690565b6105206040518060400160405280600d81526020016c6d73672e73656e64657220257360981b8152503361093f565b6001546001600160a01b0316331461054a5760405162461bcd60e51b815260040161033490610ed0565b6105556000336104c8565b6105715760405162461bcd60e51b815260040161033490610efd565b806003836040516103dc9190610f2c565b60008281526020819052604090206001015461059e81336107f2565b6102c383836108da565b6001546001600160a01b031633146105bf57600080fd5b6105ca6000336104c8565b6105e65760405162461bcd60e51b815260040161033490610efd565b6001600160a01b0381166106345760405162461bcd60e51b815260206004820152601560248201527461646d696e206973207a65726f206164647265737360581b6044820152606401610334565b604080518082019091526016815275736574206e65772061646d696e202573202d3e20257360501b602082015260015461067891906001600160a01b031683610984565b600180546001600160a01b038381166001600160a01b03198316811790935516906106a5906000906109cb565b6106b06000826108da565b600154604080516001600160a01b03808516825290921660208301527f7e644d79422f17c01e4894b5f4f588d331ebfa28653d42ae832dc59e38c9798f91015b60405180910390a15050565b61072b6040518060400160405280600d81526020016c6d73672e73656e64657220257360981b8152503361093f565b6001546001600160a01b031633146107555760405162461bcd60e51b815260040161033490610ed0565b6107606000336104c8565b61077c5760405162461bcd60e51b815260040161033490610efd565b8060028360405161078d9190610f2c565b908152602001604051809103902090805190602001906107ae929190610b99565b507f8c9a5175c563a8f3b2a18163077ed9533438dfb7b8f52dd83bdbe5a5bd314cb182826040516106f0929190610f83565b60006003826040516104b29190610f2c565b6107fc82826104c8565b61034757610814816001600160a01b031660146109d5565b61081f8360206109d5565b604051602001610830929190610fb1565b60408051601f198184030181529082905262461bcd60e51b825261033491600401610e3e565b61086082826104c8565b610347576000828152602081815260408083206001600160a01b03851684529091529020805460ff191660011790556108963390565b6001600160a01b0316816001600160a01b0316837f2f8788117e7eff1d82e926ec794901d17c78024a50270940304540a733656f0d60405160405180910390a45050565b6108e482826104c8565b15610347576000828152602081815260408083206001600160a01b0385168085529252808320805460ff1916905551339285917ff6391f5c32d9c69d2a47ea670b442974b53935d1edc7fd64eb21e047a839171b9190a45050565b6103478282604051602401610955929190611026565b60408051601f198184030181529190526020810180516001600160e01b031663319af33360e01b179052610b78565b6102c383838360405160240161099c93929190611050565b60408051601f198184030181529190526020810180516001600160e01b03166307e763af60e51b179052610b78565b6103478282610856565b606060006109e4836002611099565b6109ef9060026110b8565b67ffffffffffffffff811115610a0757610a07610cbd565b6040519080825280601f01601f191660200182016040528015610a31576020820181803683370190505b509050600360fc1b81600081518110610a4c57610a4c6110d0565b60200101906001600160f81b031916908160001a905350600f60fb1b81600181518110610a7b57610a7b6110d0565b60200101906001600160f81b031916908160001a9053506000610a9f846002611099565b610aaa9060016110b8565b90505b6001811115610b22576f181899199a1a9b1b9c1cb0b131b232b360811b85600f1660108110610ade57610ade6110d0565b1a60f81b828281518110610af457610af46110d0565b60200101906001600160f81b031916908160001a90535060049490941c93610b1b816110e6565b9050610aad565b508315610b715760405162461bcd60e51b815260206004820181905260248201527f537472696e67733a20686578206c656e67746820696e73756666696369656e746044820152606401610334565b9392505050565b80516a636f6e736f6c652e6c6f67602083016000808483855afa5050505050565b828054610ba590610f48565b90600052602060002090601f016020900481019282610bc75760008555610c0d565b82601f10610be057805160ff1916838001178555610c0d565b82800160010185558215610c0d579182015b82811115610c0d578251825591602001919060010190610bf2565b50610c19929150610c1d565b5090565b5b80821115610c195760008155600101610c1e565b600060208284031215610c4457600080fd5b81356001600160e01b031981168114610b7157600080fd5b600060208284031215610c6e57600080fd5b5035919050565b80356001600160a01b0381168114610c8c57600080fd5b919050565b60008060408385031215610ca457600080fd5b82359150610cb460208401610c75565b90509250929050565b634e487b7160e01b600052604160045260246000fd5b600082601f830112610ce457600080fd5b813567ffffffffffffffff80821115610cff57610cff610cbd565b604051601f8301601f19908116603f01168101908282118183101715610d2757610d27610cbd565b81604052838152866020858801011115610d4057600080fd5b836020870160208301376000602085830101528094505050505092915050565b60008060408385031215610d7357600080fd5b823567ffffffffffffffff811115610d8a57600080fd5b610d9685828601610cd3565b95602094909401359450505050565b600060208284031215610db757600080fd5b813567ffffffffffffffff811115610dce57600080fd5b610dda84828501610cd3565b949350505050565b60005b83811015610dfd578181015183820152602001610de5565b83811115610e0c576000848401525b50505050565b60008151808452610e2a816020860160208601610de2565b601f01601f19169290920160200192915050565b602081526000610b716020830184610e12565b600060208284031215610e6357600080fd5b610b7182610c75565b60008060408385031215610e7f57600080fd5b823567ffffffffffffffff80821115610e9757600080fd5b610ea386838701610cd3565b93506020850135915080821115610eb957600080fd5b50610ec685828601610cd3565b9150509250929050565b60208082526013908201527229b2b73232b91034b9903737ba1030b236b4b760691b604082015260600190565b60208082526015908201527421b0b63632b91034b9903737ba10309030b236b4b760591b604082015260600190565b60008251610f3e818460208701610de2565b9190910192915050565b600181811c90821680610f5c57607f821691505b60208210811415610f7d57634e487b7160e01b600052602260045260246000fd5b50919050565b604081526000610f966040830185610e12565b8281036020840152610fa88185610e12565b95945050505050565b7f416363657373436f6e74726f6c3a206163636f756e7420000000000000000000815260008351610fe9816017850160208801610de2565b7001034b99036b4b9b9b4b733903937b6329607d1b601791840191820152835161101a816028840160208801610de2565b01602801949350505050565b6040815260006110396040830185610e12565b905060018060a01b03831660208301529392505050565b6060815260006110636060830186610e12565b6001600160a01b0394851660208401529290931660409091015292915050565b634e487b7160e01b600052601160045260246000fd5b60008160001904831182151516156110b3576110b3611083565b500290565b600082198211156110cb576110cb611083565b500190565b634e487b7160e01b600052603260045260246000fd5b6000816110f5576110f5611083565b50600019019056fea2646970667358221220a7680eb219727e0a67e4818dbea04ade636dba2b049043dea0cdd0c7fb4aaee864736f6c634300080c0033",
  "linkReferences": {},
  "deployedLinkReferences": {}
}