{
  "_format": "hh-sol-artifact-1",
  "contractName": "TicketNFTFor721",
  "sourceName": "contracts/services/TicketNFTFor721.sol",
  "abi": [
    {
      "inputs": [
        {
          "internalType": "address",
          "name": "admin",
          "type": "address"
        },
        {
          "internalType": "address",
          "name": "operator",
          "type": "address"
        },
        {
          "internalType": "address",
          "name": "_parameterAdd",
          "type": "address"
        }
      ],
      "stateMutability": "nonpayable",
      "type": "constructor"
    },
    {
      "anonymous": false,
      "inputs": [
        {
          "indexed": false,
          "internalType": "address",
          "name": "previous",
          "type": "address"
        },
        {
          "indexed": false,
          "internalType": "address",
          "name": "new_",
          "type": "address"
        }
      ],
      "name": "AdminChanged",
      "type": "event"
    },
    {
      "anonymous": false,
      "inputs": [
        {
          "indexed": true,
          "internalType": "address",
          "name": "account",
          "type": "address"
        },
        {
          "indexed": true,
          "internalType": "address",
          "name": "operator",
          "type": "address"
        },
        {
          "indexed": false,
          "internalType": "bool",
          "name": "approved",
          "type": "bool"
        }
      ],
      "name": "ApprovalForAll",
      "type": "event"
    },
    {
      "anonymous": false,
      "inputs": [
        {
          "indexed": false,
          "internalType": "address",
          "name": "_initialOwner",
          "type": "address"
        },
        {
          "indexed": false,
          "internalType": "uint256",
          "name": "_id",
          "type": "uint256"
        },
        {
          "indexed": false,
          "internalType": "uint256",
          "name": "_initialSupply",
          "type": "uint256"
        },
        {
          "indexed": false,
          "internalType": "string",
          "name": "_uri",
          "type": "string"
        },
        {
          "indexed": false,
          "internalType": "address",
          "name": "_operator",
          "type": "address"
        }
      ],
      "name": "CreateEvent",
      "type": "event"
    },
    {
      "anonymous": false,
      "inputs": [
        {
          "indexed": false,
          "internalType": "address",
          "name": "userAddress",
          "type": "address"
        },
        {
          "indexed": false,
          "internalType": "address payable",
          "name": "relayerAddress",
          "type": "address"
        },
        {
          "indexed": false,
          "internalType": "bytes",
          "name": "functionSignature",
          "type": "bytes"
        }
      ],
      "name": "MetaTransactionExecuted",
      "type": "event"
    },
    {
      "anonymous": false,
      "inputs": [
        {
          "indexed": false,
          "internalType": "address",
          "name": "_to",
          "type": "address"
        },
        {
          "indexed": false,
          "internalType": "uint256",
          "name": "_id",
          "type": "uint256"
        },
        {
          "indexed": false,
          "internalType": "uint256",
          "name": "_quantity",
          "type": "uint256"
        }
      ],
      "name": "MintEvent",
      "type": "event"
    },
    {
      "anonymous": false,
      "inputs": [
        {
          "indexed": false,
          "internalType": "address",
          "name": "previous",
          "type": "address"
        },
        {
          "indexed": false,
          "internalType": "address",
          "name": "new_",
          "type": "address"
        }
      ],
      "name": "OperatorChanged",
      "type": "event"
    },
    {
      "anonymous": false,
      "inputs": [
        {
          "indexed": false,
          "internalType": "address",
          "name": "previous",
          "type": "address"
        },
        {
          "indexed": false,
          "internalType": "address",
          "name": "new_",
          "type": "address"
        }
      ],
      "name": "ParameterControlChanged",
      "type": "event"
    },
    {
      "anonymous": false,
      "inputs": [
        {
          "indexed": false,
          "internalType": "address",
          "name": "account",
          "type": "address"
        }
      ],
      "name": "Paused",
      "type": "event"
    },
    {
      "anonymous": false,
      "inputs": [
        {
          "indexed": false,
          "internalType": "uint256",
          "name": "_id",
          "type": "uint256"
        },
        {
          "indexed": false,
          "internalType": "uint256",
          "name": "previous",
          "type": "uint256"
        },
        {
          "indexed": false,
          "internalType": "uint256",
          "name": "new_",
          "type": "uint256"
        }
      ],
      "name": "PriceChanged",
      "type": "event"
    },
    {
      "anonymous": false,
      "inputs": [
        {
          "indexed": false,
          "internalType": "address",
          "name": "previous",
          "type": "address"
        },
        {
          "indexed": false,
          "internalType": "address",
          "name": "new_",
          "type": "address"
        }
      ],
      "name": "ProxyRegistryAddressChanged",
      "type": "event"
    },
    {
      "anonymous": false,
      "inputs": [
        {
          "indexed": true,
          "internalType": "bytes32",
          "name": "role",
          "type": "bytes32"
        },
        {
          "indexed": true,
          "internalType": "bytes32",
          "name": "previousAdminRole",
          "type": "bytes32"
        },
        {
          "indexed": true,
          "internalType": "bytes32",
          "name": "newAdminRole",
          "type": "bytes32"
        }
      ],
      "name": "RoleAdminChanged",
      "type": "event"
    },
    {
      "anonymous": false,
      "inputs": [
        {
          "indexed": true,
          "internalType": "bytes32",
          "name": "role",
          "type": "bytes32"
        },
        {
          "indexed": true,
          "internalType": "address",
          "name": "account",
          "type": "address"
        },
        {
          "indexed": true,
          "internalType": "address",
          "name": "sender",
          "type": "address"
        }
      ],
      "name": "RoleGranted",
      "type": "event"
    },
    {
      "anonymous": false,
      "inputs": [
        {
          "indexed": true,
          "internalType": "bytes32",
          "name": "role",
          "type": "bytes32"
        },
        {
          "indexed": true,
          "internalType": "address",
          "name": "account",
          "type": "address"
        },
        {
          "indexed": true,
          "internalType": "address",
          "name": "sender",
          "type": "address"
        }
      ],
      "name": "RoleRevoked",
      "type": "event"
    },
    {
      "anonymous": false,
      "inputs": [
        {
          "indexed": true,
          "internalType": "address",
          "name": "operator",
          "type": "address"
        },
        {
          "indexed": true,
          "internalType": "address",
          "name": "from",
          "type": "address"
        },
        {
          "indexed": true,
          "internalType": "address",
          "name": "to",
          "type": "address"
        },
        {
          "indexed": false,
          "internalType": "uint256[]",
          "name": "ids",
          "type": "uint256[]"
        },
        {
          "indexed": false,
          "internalType": "uint256[]",
          "name": "values",
          "type": "uint256[]"
        }
      ],
      "name": "TransferBatch",
      "type": "event"
    },
    {
      "anonymous": false,
      "inputs": [
        {
          "indexed": true,
          "internalType": "address",
          "name": "operator",
          "type": "address"
        },
        {
          "indexed": true,
          "internalType": "address",
          "name": "from",
          "type": "address"
        },
        {
          "indexed": true,
          "internalType": "address",
          "name": "to",
          "type": "address"
        },
        {
          "indexed": false,
          "internalType": "uint256",
          "name": "id",
          "type": "uint256"
        },
        {
          "indexed": false,
          "internalType": "uint256",
          "name": "value",
          "type": "uint256"
        }
      ],
      "name": "TransferSingle",
      "type": "event"
    },
    {
      "anonymous": false,
      "inputs": [
        {
          "indexed": false,
          "internalType": "string",
          "name": "value",
          "type": "string"
        },
        {
          "indexed": true,
          "internalType": "uint256",
          "name": "id",
          "type": "uint256"
        }
      ],
      "name": "URI",
      "type": "event"
    },
    {
      "anonymous": false,
      "inputs": [
        {
          "indexed": false,
          "internalType": "address",
          "name": "account",
          "type": "address"
        }
      ],
      "name": "Unpaused",
      "type": "event"
    },
    {
      "inputs": [],
      "name": "CREATOR_ROLE",
      "outputs": [
        {
          "internalType": "bytes32",
          "name": "",
          "type": "bytes32"
        }
      ],
      "stateMutability": "view",
      "type": "function"
    },
    {
      "inputs": [],
      "name": "DEFAULT_ADMIN_ROLE",
      "outputs": [
        {
          "internalType": "bytes32",
          "name": "",
          "type": "bytes32"
        }
      ],
      "stateMutability": "view",
      "type": "function"
    },
    {
      "inputs": [],
      "name": "ERC712_VERSION",
      "outputs": [
        {
          "internalType": "string",
          "name": "",
          "type": "string"
        }
      ],
      "stateMutability": "view",
      "type": "function"
    },
    {
      "inputs": [],
      "name": "MINTER_ROLE",
      "outputs": [
        {
          "internalType": "bytes32",
          "name": "",
          "type": "bytes32"
        }
      ],
      "stateMutability": "view",
      "type": "function"
    },
    {
      "inputs": [],
      "name": "OPERATOR_ROLE",
      "outputs": [
        {
          "internalType": "bytes32",
          "name": "",
          "type": "bytes32"
        }
      ],
      "stateMutability": "view",
      "type": "function"
    },
    {
      "inputs": [],
      "name": "PAUSER_ROLE",
      "outputs": [
        {
          "internalType": "bytes32",
          "name": "",
          "type": "bytes32"
        }
      ],
      "stateMutability": "view",
      "type": "function"
    },
    {
      "inputs": [],
      "name": "admin",
      "outputs": [
        {
          "internalType": "address",
          "name": "",
          "type": "address"
        }
      ],
      "stateMutability": "view",
      "type": "function"
    },
    {
      "inputs": [
        {
          "internalType": "address",
          "name": "account",
          "type": "address"
        },
        {
          "internalType": "uint256",
          "name": "id",
          "type": "uint256"
        }
      ],
      "name": "balanceOf",
      "outputs": [
        {
          "internalType": "uint256",
          "name": "",
          "type": "uint256"
        }
      ],
      "stateMutability": "view",
      "type": "function"
    },
    {
      "inputs": [
        {
          "internalType": "address[]",
          "name": "accounts",
          "type": "address[]"
        },
        {
          "internalType": "uint256[]",
          "name": "ids",
          "type": "uint256[]"
        }
      ],
      "name": "balanceOfBatch",
      "outputs": [
        {
          "internalType": "uint256[]",
          "name": "",
          "type": "uint256[]"
        }
      ],
      "stateMutability": "view",
      "type": "function"
    },
    {
      "inputs": [
        {
          "internalType": "address",
          "name": "_to",
          "type": "address"
        },
        {
          "internalType": "uint256[]",
          "name": "_ids",
          "type": "uint256[]"
        },
        {
          "internalType": "uint256[]",
          "name": "_quantities",
          "type": "uint256[]"
        },
        {
          "internalType": "bytes",
          "name": "_data",
          "type": "bytes"
        }
      ],
      "name": "batchMint",
      "outputs": [],
      "stateMutability": "nonpayable",
      "type": "function"
    },
    {
      "inputs": [
        {
          "internalType": "address",
          "name": "account",
          "type": "address"
        },
        {
          "internalType": "uint256",
          "name": "id",
          "type": "uint256"
        },
        {
          "internalType": "uint256",
          "name": "value",
          "type": "uint256"
        }
      ],
      "name": "burn",
      "outputs": [],
      "stateMutability": "nonpayable",
      "type": "function"
    },
    {
      "inputs": [
        {
          "internalType": "address",
          "name": "account",
          "type": "address"
        },
        {
          "internalType": "uint256[]",
          "name": "ids",
          "type": "uint256[]"
        },
        {
          "internalType": "uint256[]",
          "name": "values",
          "type": "uint256[]"
        }
      ],
      "name": "burnBatch",
      "outputs": [],
      "stateMutability": "nonpayable",
      "type": "function"
    },
    {
      "inputs": [
        {
          "internalType": "address",
          "name": "_newAdmin",
          "type": "address"
        }
      ],
      "name": "changeAdmin",
      "outputs": [],
      "stateMutability": "nonpayable",
      "type": "function"
    },
    {
      "inputs": [
        {
          "internalType": "address",
          "name": "_newOperator",
          "type": "address"
        }
      ],
      "name": "changeOperator",
      "outputs": [],
      "stateMutability": "nonpayable",
      "type": "function"
    },
    {
      "inputs": [
        {
          "internalType": "address",
          "name": "_new",
          "type": "address"
        }
      ],
      "name": "changeParameterControl",
      "outputs": [],
      "stateMutability": "nonpayable",
      "type": "function"
    },
    {
      "inputs": [
        {
          "internalType": "uint256",
          "name": "_id",
          "type": "uint256"
        },
        {
          "internalType": "uint256",
          "name": "_price",
          "type": "uint256"
        }
      ],
      "name": "changePriceToken",
      "outputs": [],
      "stateMutability": "nonpayable",
      "type": "function"
    },
    {
      "inputs": [
        {
          "internalType": "address",
          "name": "_erc721",
          "type": "address"
        },
        {
          "internalType": "bool",
          "name": "approved",
          "type": "bool"
        }
      ],
      "name": "changeWhitelist",
      "outputs": [],
      "stateMutability": "nonpayable",
      "type": "function"
    },
    {
      "inputs": [
        {
          "internalType": "address",
          "name": "_initialOwner",
          "type": "address"
        },
        {
          "internalType": "uint256",
          "name": "_id",
          "type": "uint256"
        },
        {
          "internalType": "uint256",
          "name": "_initialSupply",
          "type": "uint256"
        },
        {
          "internalType": "string",
          "name": "_uri",
          "type": "string"
        },
        {
          "internalType": "bytes",
          "name": "_data",
          "type": "bytes"
        },
        {
          "internalType": "uint256",
          "name": "_price",
          "type": "uint256"
        },
        {
          "internalType": "uint256",
          "name": "_max",
          "type": "uint256"
        }
      ],
      "name": "create",
      "outputs": [
        {
          "internalType": "uint256",
          "name": "",
          "type": "uint256"
        }
      ],
      "stateMutability": "nonpayable",
      "type": "function"
    },
    {
      "inputs": [
        {
          "internalType": "uint256",
          "name": "",
          "type": "uint256"
        }
      ],
      "name": "creators",
      "outputs": [
        {
          "internalType": "address",
          "name": "",
          "type": "address"
        }
      ],
      "stateMutability": "view",
      "type": "function"
    },
    {
      "inputs": [
        {
          "internalType": "address",
          "name": "userAddress",
          "type": "address"
        },
        {
          "internalType": "bytes",
          "name": "functionSignature",
          "type": "bytes"
        },
        {
          "internalType": "bytes32",
          "name": "sigR",
          "type": "bytes32"
        },
        {
          "internalType": "bytes32",
          "name": "sigS",
          "type": "bytes32"
        },
        {
          "internalType": "uint8",
          "name": "sigV",
          "type": "uint8"
        }
      ],
      "name": "executeMetaTransaction",
      "outputs": [
        {
          "internalType": "bytes",
          "name": "",
          "type": "bytes"
        }
      ],
      "stateMutability": "nonpayable",
      "type": "function"
    },
    {
      "inputs": [
        {
          "internalType": "uint256",
          "name": "_id",
          "type": "uint256"
        }
      ],
      "name": "exists",
      "outputs": [
        {
          "internalType": "bool",
          "name": "",
          "type": "bool"
        }
      ],
      "stateMutability": "view",
      "type": "function"
    },
    {
      "inputs": [],
      "name": "getChainId",
      "outputs": [
        {
          "internalType": "uint256",
          "name": "",
          "type": "uint256"
        }
      ],
      "stateMutability": "view",
      "type": "function"
    },
    {
      "inputs": [
        {
          "internalType": "uint256",
          "name": "id",
          "type": "uint256"
        }
      ],
      "name": "getCreator",
      "outputs": [
        {
          "internalType": "address",
          "name": "sender",
          "type": "address"
        }
      ],
      "stateMutability": "view",
      "type": "function"
    },
    {
      "inputs": [],
      "name": "getDomainSeperator",
      "outputs": [
        {
          "internalType": "bytes32",
          "name": "",
          "type": "bytes32"
        }
      ],
      "stateMutability": "view",
      "type": "function"
    },
    {
      "inputs": [
        {
          "internalType": "uint256",
          "name": "_id",
          "type": "uint256"
        }
      ],
      "name": "getMaxSupplyToken",
      "outputs": [
        {
          "internalType": "uint256",
          "name": "",
          "type": "uint256"
        }
      ],
      "stateMutability": "view",
      "type": "function"
    },
    {
      "inputs": [
        {
          "internalType": "address",
          "name": "user",
          "type": "address"
        }
      ],
      "name": "getNonce",
      "outputs": [
        {
          "internalType": "uint256",
          "name": "nonce",
          "type": "uint256"
        }
      ],
      "stateMutability": "view",
      "type": "function"
    },
    {
      "inputs": [
        {
          "internalType": "uint256",
          "name": "_id",
          "type": "uint256"
        }
      ],
      "name": "getPriceToken",
      "outputs": [
        {
          "internalType": "uint256",
          "name": "",
          "type": "uint256"
        }
      ],
      "stateMutability": "view",
      "type": "function"
    },
    {
      "inputs": [
        {
          "internalType": "bytes32",
          "name": "role",
          "type": "bytes32"
        }
      ],
      "name": "getRoleAdmin",
      "outputs": [
        {
          "internalType": "bytes32",
          "name": "",
          "type": "bytes32"
        }
      ],
      "stateMutability": "view",
      "type": "function"
    },
    {
      "inputs": [
        {
          "internalType": "bytes32",
          "name": "role",
          "type": "bytes32"
        },
        {
          "internalType": "uint256",
          "name": "index",
          "type": "uint256"
        }
      ],
      "name": "getRoleMember",
      "outputs": [
        {
          "internalType": "address",
          "name": "",
          "type": "address"
        }
      ],
      "stateMutability": "view",
      "type": "function"
    },
    {
      "inputs": [
        {
          "internalType": "bytes32",
          "name": "role",
          "type": "bytes32"
        }
      ],
      "name": "getRoleMemberCount",
      "outputs": [
        {
          "internalType": "uint256",
          "name": "",
          "type": "uint256"
        }
      ],
      "stateMutability": "view",
      "type": "function"
    },
    {
      "inputs": [
        {
          "internalType": "bytes32",
          "name": "role",
          "type": "bytes32"
        },
        {
          "internalType": "address",
          "name": "account",
          "type": "address"
        }
      ],
      "name": "grantRole",
      "outputs": [],
      "stateMutability": "nonpayable",
      "type": "function"
    },
    {
      "inputs": [
        {
          "internalType": "bytes32",
          "name": "role",
          "type": "bytes32"
        },
        {
          "internalType": "address",
          "name": "account",
          "type": "address"
        }
      ],
      "name": "hasRole",
      "outputs": [
        {
          "internalType": "bool",
          "name": "",
          "type": "bool"
        }
      ],
      "stateMutability": "view",
      "type": "function"
    },
    {
      "inputs": [
        {
          "internalType": "address",
          "name": "_owner",
          "type": "address"
        },
        {
          "internalType": "address",
          "name": "_operator",
          "type": "address"
        }
      ],
      "name": "isApprovedForAll",
      "outputs": [
        {
          "internalType": "bool",
          "name": "isOperator",
          "type": "bool"
        }
      ],
      "stateMutability": "view",
      "type": "function"
    },
    {
      "inputs": [
        {
          "internalType": "uint256",
          "name": "",
          "type": "uint256"
        }
      ],
      "name": "max_supply_tokens",
      "outputs": [
        {
          "internalType": "uint256",
          "name": "",
          "type": "uint256"
        }
      ],
      "stateMutability": "view",
      "type": "function"
    },
    {
      "inputs": [
        {
          "internalType": "address",
          "name": "_to",
          "type": "address"
        },
        {
          "internalType": "uint256",
          "name": "_id",
          "type": "uint256"
        },
        {
          "internalType": "uint256",
          "name": "_quantity",
          "type": "uint256"
        },
        {
          "internalType": "bytes",
          "name": "_data",
          "type": "bytes"
        }
      ],
      "name": "mint",
      "outputs": [],
      "stateMutability": "nonpayable",
      "type": "function"
    },
    {
      "inputs": [
        {
          "internalType": "address",
          "name": "to",
          "type": "address"
        },
        {
          "internalType": "uint256[]",
          "name": "ids",
          "type": "uint256[]"
        },
        {
          "internalType": "uint256[]",
          "name": "amounts",
          "type": "uint256[]"
        },
        {
          "internalType": "bytes",
          "name": "data",
          "type": "bytes"
        }
      ],
      "name": "mintBatch",
      "outputs": [],
      "stateMutability": "nonpayable",
      "type": "function"
    },
    {
      "inputs": [],
      "name": "name",
      "outputs": [
        {
          "internalType": "string",
          "name": "",
          "type": "string"
        }
      ],
      "stateMutability": "view",
      "type": "function"
    },
    {
      "inputs": [],
      "name": "newItemId",
      "outputs": [
        {
          "internalType": "uint256",
          "name": "",
          "type": "uint256"
        }
      ],
      "stateMutability": "view",
      "type": "function"
    },
    {
      "inputs": [],
      "name": "operator",
      "outputs": [
        {
          "internalType": "address",
          "name": "",
          "type": "address"
        }
      ],
      "stateMutability": "view",
      "type": "function"
    },
    {
      "inputs": [],
      "name": "parameterControlAdd",
      "outputs": [
        {
          "internalType": "address",
          "name": "",
          "type": "address"
        }
      ],
      "stateMutability": "view",
      "type": "function"
    },
    {
      "inputs": [],
      "name": "pause",
      "outputs": [],
      "stateMutability": "nonpayable",
      "type": "function"
    },
    {
      "inputs": [],
      "name": "paused",
      "outputs": [
        {
          "internalType": "bool",
          "name": "",
          "type": "bool"
        }
      ],
      "stateMutability": "view",
      "type": "function"
    },
    {
      "inputs": [
        {
          "internalType": "uint256",
          "name": "",
          "type": "uint256"
        }
      ],
      "name": "price_tokens",
      "outputs": [
        {
          "internalType": "uint256",
          "name": "",
          "type": "uint256"
        }
      ],
      "stateMutability": "view",
      "type": "function"
    },
    {
      "inputs": [],
      "name": "proxyRegistryAddress",
      "outputs": [
        {
          "internalType": "address",
          "name": "",
          "type": "address"
        }
      ],
      "stateMutability": "view",
      "type": "function"
    },
    {
      "inputs": [
        {
          "internalType": "address",
          "name": "recipient",
          "type": "address"
        },
        {
          "internalType": "address",
          "name": "erc721",
          "type": "address"
        },
        {
          "internalType": "uint256",
          "name": "initialSupply",
          "type": "uint256"
        },
        {
          "internalType": "string",
          "name": "tokenURI",
          "type": "string"
        },
        {
          "internalType": "uint256",
          "name": "price",
          "type": "uint256"
        },
        {
          "internalType": "uint256",
          "name": "max",
          "type": "uint256"
        }
      ],
      "name": "publishTicket",
      "outputs": [
        {
          "internalType": "uint256",
          "name": "",
          "type": "uint256"
        }
      ],
      "stateMutability": "payable",
      "type": "function"
    },
    {
      "inputs": [
        {
          "internalType": "bytes32",
          "name": "role",
          "type": "bytes32"
        },
        {
          "internalType": "address",
          "name": "account",
          "type": "address"
        }
      ],
      "name": "renounceRole",
      "outputs": [],
      "stateMutability": "nonpayable",
      "type": "function"
    },
    {
      "inputs": [
        {
          "internalType": "bytes32",
          "name": "role",
          "type": "bytes32"
        },
        {
          "internalType": "address",
          "name": "account",
          "type": "address"
        }
      ],
      "name": "revokeRole",
      "outputs": [],
      "stateMutability": "nonpayable",
      "type": "function"
    },
    {
      "inputs": [
        {
          "internalType": "uint256",
          "name": "",
          "type": "uint256"
        }
      ],
      "name": "royalties",
      "outputs": [
        {
          "internalType": "address",
          "name": "recipient",
          "type": "address"
        },
        {
          "internalType": "uint24",
          "name": "amount",
          "type": "uint24"
        },
        {
          "internalType": "bool",
          "name": "isValue",
          "type": "bool"
        }
      ],
      "stateMutability": "view",
      "type": "function"
    },
    {
      "inputs": [
        {
          "internalType": "uint256",
          "name": "_tokenId",
          "type": "uint256"
        },
        {
          "internalType": "uint256",
          "name": "_salePrice",
          "type": "uint256"
        }
      ],
      "name": "royaltyInfo",
      "outputs": [
        {
          "internalType": "address",
          "name": "receiver",
          "type": "address"
        },
        {
          "internalType": "uint256",
          "name": "royaltyAmount",
          "type": "uint256"
        }
      ],
      "stateMutability": "view",
      "type": "function"
    },
    {
      "inputs": [
        {
          "internalType": "address",
          "name": "from",
          "type": "address"
        },
        {
          "internalType": "address",
          "name": "to",
          "type": "address"
        },
        {
          "internalType": "uint256[]",
          "name": "ids",
          "type": "uint256[]"
        },
        {
          "internalType": "uint256[]",
          "name": "amounts",
          "type": "uint256[]"
        },
        {
          "internalType": "bytes",
          "name": "data",
          "type": "bytes"
        }
      ],
      "name": "safeBatchTransferFrom",
      "outputs": [],
      "stateMutability": "nonpayable",
      "type": "function"
    },
    {
      "inputs": [
        {
          "internalType": "address",
          "name": "from",
          "type": "address"
        },
        {
          "internalType": "address",
          "name": "to",
          "type": "address"
        },
        {
          "internalType": "uint256",
          "name": "id",
          "type": "uint256"
        },
        {
          "internalType": "uint256",
          "name": "amount",
          "type": "uint256"
        },
        {
          "internalType": "bytes",
          "name": "data",
          "type": "bytes"
        }
      ],
      "name": "safeTransferFrom",
      "outputs": [],
      "stateMutability": "nonpayable",
      "type": "function"
    },
    {
      "inputs": [
        {
          "internalType": "address",
          "name": "operator",
          "type": "address"
        },
        {
          "internalType": "bool",
          "name": "approved",
          "type": "bool"
        }
      ],
      "name": "setApprovalForAll",
      "outputs": [],
      "stateMutability": "nonpayable",
      "type": "function"
    },
    {
      "inputs": [
        {
          "internalType": "address",
          "name": "_to",
          "type": "address"
        },
        {
          "internalType": "uint256[]",
          "name": "_ids",
          "type": "uint256[]"
        }
      ],
      "name": "setCreator",
      "outputs": [],
      "stateMutability": "nonpayable",
      "type": "function"
    },
    {
      "inputs": [
        {
          "internalType": "uint256",
          "name": "_tokenId",
          "type": "uint256"
        },
        {
          "internalType": "string",
          "name": "_newURI",
          "type": "string"
        }
      ],
      "name": "setCustomURI",
      "outputs": [],
      "stateMutability": "nonpayable",
      "type": "function"
    },
    {
      "inputs": [
        {
          "internalType": "address",
          "name": "_proxyRegistryAddress",
          "type": "address"
        }
      ],
      "name": "setProxyRegistryAddress",
      "outputs": [],
      "stateMutability": "nonpayable",
      "type": "function"
    },
    {
      "inputs": [
        {
          "internalType": "uint256",
          "name": "_tokenId",
          "type": "uint256"
        },
        {
          "internalType": "address",
          "name": "_recipient",
          "type": "address"
        },
        {
          "internalType": "uint256",
          "name": "_value",
          "type": "uint256"
        }
      ],
      "name": "setTokenRoyalty",
      "outputs": [],
      "stateMutability": "nonpayable",
      "type": "function"
    },
    {
      "inputs": [
        {
          "internalType": "string",
          "name": "_newURI",
          "type": "string"
        }
      ],
      "name": "setURI",
      "outputs": [],
      "stateMutability": "nonpayable",
      "type": "function"
    },
    {
      "inputs": [
        {
          "internalType": "bytes4",
          "name": "interfaceId",
          "type": "bytes4"
        }
      ],
      "name": "supportsInterface",
      "outputs": [
        {
          "internalType": "bool",
          "name": "",
          "type": "bool"
        }
      ],
      "stateMutability": "view",
      "type": "function"
    },
    {
      "inputs": [],
      "name": "symbol",
      "outputs": [
        {
          "internalType": "string",
          "name": "",
          "type": "string"
        }
      ],
      "stateMutability": "view",
      "type": "function"
    },
    {
      "inputs": [
        {
          "internalType": "uint256",
          "name": "",
          "type": "uint256"
        }
      ],
      "name": "tokenSupply",
      "outputs": [
        {
          "internalType": "uint256",
          "name": "",
          "type": "uint256"
        }
      ],
      "stateMutability": "view",
      "type": "function"
    },
    {
      "inputs": [
        {
          "internalType": "uint256",
          "name": "_id",
          "type": "uint256"
        }
      ],
      "name": "totalSupply",
      "outputs": [
        {
          "internalType": "uint256",
          "name": "",
          "type": "uint256"
        }
      ],
      "stateMutability": "view",
      "type": "function"
    },
    {
      "inputs": [],
      "name": "unpause",
      "outputs": [],
      "stateMutability": "nonpayable",
      "type": "function"
    },
    {
      "inputs": [
        {
          "internalType": "uint256",
          "name": "_id",
          "type": "uint256"
        }
      ],
      "name": "uri",
      "outputs": [
        {
          "internalType": "string",
          "name": "",
          "type": "string"
        }
      ],
      "stateMutability": "view",
      "type": "function"
    },
    {
      "inputs": [
        {
          "internalType": "address",
          "name": "_to",
          "type": "address"
        },
        {
          "internalType": "uint256",
          "name": "_id",
          "type": "uint256"
        },
        {
          "internalType": "uint256",
          "name": "_quantity",
          "type": "uint256"
        },
        {
          "internalType": "bytes",
          "name": "_data",
          "type": "bytes"
        }
      ],
      "name": "userMint",
      "outputs": [],
      "stateMutability": "payable",
      "type": "function"
    },
    {
      "inputs": [
        {
          "internalType": "address",
          "name": "_to",
          "type": "address"
        }
      ],
      "name": "withdraw",
      "outputs": [],
      "stateMutability": "nonpayable",
      "type": "function"
    }
  ],
  "bytecode": "0x60806040526005805461ff00191690553480156200001c57600080fd5b5060405162006a7238038062006a728339810160408190526200003f9162000c53565b6040518060400160405280601781526020017f526f7665205469636b65747320666f72204552433732310000000000000000008152506040518060400160405280600381526020016252547360e81b8152506040518060200160405280600081525085858280620000b681620003e260201b60201c565b506005805460ff19169055620000d76000620000d1620003fb565b62000417565b620000f560008051602062006a52833981519152620000d1620003fb565b6200011360008051602062006a32833981519152620000d1620003fb565b50600160085584516200012e90600f90602088019062000b90565b5083516200014490601090602087019062000b90565b50600b80546001600160a01b0319169055600f8054620001f591906200016a9062000c9d565b80601f0160208091040260200160405190810160405280929190818152602001828054620001989062000c9d565b8015620001e95780601f10620001bd57610100808354040283529160200191620001e9565b820191906000526020600020905b815481529060010190602001808311620001cb57829003601f168201915b50506200042392505050565b600980546001600160a01b0319166001600160a01b03841690811790915562000221906000906200048b565b600a80546001600160a01b0319166001600160a01b0383169081179091556200026c907f97667070c54ef182b0f5858b034beac1b6f3089aa2d3188bb1e8929f4fa9b929906200048b565b600a54620002a5907f828634d95e775031b9ff576b159a8509d3053581a8c9c4d7d86899e0afcd882f906001600160a01b03166200048b565b600a54620002cd9060008051602062006a52833981519152906001600160a01b03166200048b565b600a54620002f59060008051602062006a32833981519152906001600160a01b03166200048b565b620002ff620003fb565b6009546001600160a01b0390811691161462000367576200033960008051602062006a5283398151915262000333620003fb565b620004c3565b6200035760008051602062006a3283398151915262000333620003fb565b62000367600062000333620003fb565b50505050506001600160a01b038116620003b95760405162461bcd60e51b815260206004820152600e60248201526d105111149154d7d253959053125160921b60448201526064015b60405180910390fd5b601680546001600160a01b0319166001600160a01b03929092169190911790555062000e849050565b8051620003f790600490602084019062000b90565b5050565b600062000412620004f060201b620033c81760201c565b905090565b620003f782826200054f565b600554610100900460ff16156200046e5760405162461bcd60e51b815260206004820152600e60248201526d185b1c9958591e481a5b9a5d195960921b6044820152606401620003b0565b62000479816200058d565b506005805461ff001916610100179055565b600082815260208190526040902060010154620004b281620004ac620003fb565b6200062f565b620004be83836200054f565b505050565b600082815260208190526040902060010154620004e481620004ac620003fb565b620004be8383620006ca565b6000333014156200054957600080368080601f0160208091040260200160405190810160405280939291908181526020018383808284376000920191909152505050503601516001600160a01b031691506200054c9050565b50335b90565b6200056682826200070860201b620034251760201c565b6000828152600160209081526040909120620004be918390620034aa620007aa821b17901c565b6040518060800160405280604f8152602001620069e3604f9139805160209182012082519282019290922060408051808201825260018152603160f81b90840152805180840194909452838101919091527fc89efdaa54c0f20c7adf612882df0950f5a951637e0307cdcb4c672f298b8bc660608401523060808401524660a0808501919091528151808503909101815260c090930190528151910120600655565b6000828152602081815260408083206001600160a01b038516845290915290205460ff16620003f75762000679816001600160a01b03166014620007ca60201b620034bf1760201c565b6200068f836020620034bf620007ca821b17811c565b604051602001620006a292919062000d0d565b60408051601f198184030181529082905262461bcd60e51b8252620003b09160040162000d86565b620006e182826200098360201b6200365a1760201c565b6000828152600160209081526040909120620004be918390620036dd62000a23821b17901c565b6000828152602081815260408083206001600160a01b038516845290915290205460ff16620003f7576000828152602081815260408083206001600160a01b03851684529091529020805460ff1916600117905562000766620003fb565b6001600160a01b0316816001600160a01b0316837f2f8788117e7eff1d82e926ec794901d17c78024a50270940304540a733656f0d60405160405180910390a45050565b6000620007c1836001600160a01b03841662000a3a565b90505b92915050565b60606000620007db83600262000dd1565b620007e890600262000df3565b6001600160401b0381111562000802576200080262000e0e565b6040519080825280601f01601f1916602001820160405280156200082d576020820181803683370190505b509050600360fc1b816000815181106200084b576200084b62000e24565b60200101906001600160f81b031916908160001a905350600f60fb1b816001815181106200087d576200087d62000e24565b60200101906001600160f81b031916908160001a9053506000620008a384600262000dd1565b620008b090600162000df3565b90505b600181111562000932576f181899199a1a9b1b9c1cb0b131b232b360811b85600f1660108110620008e857620008e862000e24565b1a60f81b82828151811062000901576200090162000e24565b60200101906001600160f81b031916908160001a90535060049490941c936200092a8162000e3a565b9050620008b3565b508315620007c15760405162461bcd60e51b815260206004820181905260248201527f537472696e67733a20686578206c656e67746820696e73756666696369656e746044820152606401620003b0565b6000828152602081815260408083206001600160a01b038516845290915290205460ff1615620003f7576000828152602081815260408083206001600160a01b03851684529091529020805460ff19169055620009df620003fb565b6001600160a01b0316816001600160a01b0316837ff6391f5c32d9c69d2a47ea670b442974b53935d1edc7fd64eb21e047a839171b60405160405180910390a45050565b6000620007c1836001600160a01b03841662000a8c565b600081815260018301602052604081205462000a8357508154600181810184556000848152602080822090930184905584548482528286019093526040902091909155620007c4565b506000620007c4565b6000818152600183016020526040812054801562000b8557600062000ab360018362000e54565b855490915060009062000ac99060019062000e54565b905081811462000b3557600086600001828154811062000aed5762000aed62000e24565b906000526020600020015490508087600001848154811062000b135762000b1362000e24565b6000918252602080832090910192909255918252600188019052604090208390555b855486908062000b495762000b4962000e6e565b600190038181906000526020600020016000905590558560010160008681526020019081526020016000206000905560019350505050620007c4565b6000915050620007c4565b82805462000b9e9062000c9d565b90600052602060002090601f01602090048101928262000bc2576000855562000c0d565b82601f1062000bdd57805160ff191683800117855562000c0d565b8280016001018555821562000c0d579182015b8281111562000c0d57825182559160200191906001019062000bf0565b5062000c1b92915062000c1f565b5090565b5b8082111562000c1b576000815560010162000c20565b80516001600160a01b038116811462000c4e57600080fd5b919050565b60008060006060848603121562000c6957600080fd5b62000c748462000c36565b925062000c846020850162000c36565b915062000c946040850162000c36565b90509250925092565b600181811c9082168062000cb257607f821691505b6020821081141562000cd457634e487b7160e01b600052602260045260246000fd5b50919050565b60005b8381101562000cf757818101518382015260200162000cdd565b8381111562000d07576000848401525b50505050565b7f416363657373436f6e74726f6c3a206163636f756e742000000000000000000081526000835162000d4781601785016020880162000cda565b7001034b99036b4b9b9b4b733903937b6329607d1b601791840191820152835162000d7a81602884016020880162000cda565b01602801949350505050565b602081526000825180602084015262000da781604085016020870162000cda565b601f01601f19169190910160400192915050565b634e487b7160e01b600052601160045260246000fd5b600081600019048311821515161562000dee5762000dee62000dbb565b500290565b6000821982111562000e095762000e0962000dbb565b500190565b634e487b7160e01b600052604160045260246000fd5b634e487b7160e01b600052603260045260246000fd5b60008162000e4c5762000e4c62000dbb565b506000190190565b60008282101562000e695762000e6962000dbb565b500390565b634e487b7160e01b600052603160045260246000fd5b615b4f8062000e946000396000f3fe6080604052600436106103cc5760003560e01c80636cb07567116101fd578063bd85b03911610118578063d5391393116100ab578063e985e9c51161007a578063e985e9c514610c59578063f242432a14610c79578063f5298aca14610c99578063f5b541a614610cb9578063f851a44014610cdb57600080fd5b8063d539139314610bd5578063d547741f14610bf7578063e031742114610c17578063e63ab1e914610c3757600080fd5b8063cd7c0326116100e7578063cd7c032614610b3f578063d26ea6c014610b5f578063d2a6b51a14610b7f578063d48e638a14610b9f57600080fd5b8063bd85b03914610aa9578063bfb1c2ea14610ad6578063ca15c87314610ae9578063cd53d08e14610b0957600080fd5b806395d89b4111610190578063a22cb4651161015f578063a22cb46514610a29578063b085451c14610a49578063b48ab8b614610a76578063b6ccd0e014610a9657600080fd5b806395d89b41146109b25780639713c807146109c757806399213a28146109e7578063a217fddf14610a1457600080fd5b80638aeda25a116101cc5780638aeda25a146109305780638f283970146109525780639010d07c1461097257806391d148541461099257600080fd5b80636cb0756714610854578063731133e9146108815780637f77f574146108a15780638456cb591461091b57600080fd5b80632a55205a116102ed5780634e1273f411610280578063570ca7351161024f578063570ca735146107dc5780635c975abb146107fc57806363f008b0146108145780636b20c4541461083457600080fd5b80634e1273f4146107375780634e193389146107645780634f558e791461079c57806351cff8d9146107bc57600080fd5b80633408e470116102bc5780633408e470146106cf57806336568abe146106e25780633adf80b4146107025780633f4ba83a1461072257600080fd5b80632a55205a1461061a5780632d0335ab146106595780632eb2c2d61461068f5780632f2ff15d146106af57600080fd5b80630f7e59701161036557806320379ee51161033457806320379ee514610588578063248a9ca31461059d57806324c430ad146105cd5780632693ebf2146105ed57600080fd5b80630f7e5970146104ee578063177ed0f31461051b5780631df284e9146105485780631f7fdffa1461056857600080fd5b806306394c9b116103a157806306394c9b1461046c57806306fdde031461048c5780630c53c51c146104ae5780630e89341c146104ce57600080fd5b80620ed58f146103d1578062fdd58e146103fa57806301ffc9a71461041a57806302fe53051461044a575b600080fd5b3480156103dd57600080fd5b506103e760155481565b6040519081526020015b60405180910390f35b34801561040657600080fd5b506103e7610415366004614a15565b610cfb565b34801561042657600080fd5b5061043a610435366004614a57565b610d97565b60405190151581526020016103f1565b34801561045657600080fd5b5061046a610465366004614b29565b610dbc565b005b34801561047857600080fd5b5061046a610487366004614b65565b610e6e565b34801561049857600080fd5b506104a1611089565b6040516103f19190614bda565b3480156104ba57600080fd5b506104a16104c9366004614bed565b611117565b3480156104da57600080fd5b506104a16104e9366004614c6a565b6112ea565b3480156104fa57600080fd5b506104a1604051806040016040528060018152602001603160f81b81525081565b34801561052757600080fd5b506103e7610536366004614c6a565b60009081526011602052604090205490565b34801561055457600080fd5b506103e7610563366004614c83565b61149d565b34801561057457600080fd5b5061046a610583366004614db3565b611701565b34801561059457600080fd5b506006546103e7565b3480156105a957600080fd5b506103e76105b8366004614c6a565b60009081526020819052604090206001015490565b3480156105d957600080fd5b5061046a6105e8366004614e5b565b61179f565b3480156105f957600080fd5b506103e7610608366004614c6a565b600d6020526000908152604090205481565b34801561062657600080fd5b5061063a610635366004614e94565b611882565b604080516001600160a01b0390931683526020830191909152016103f1565b34801561066557600080fd5b506103e7610674366004614b65565b6001600160a01b031660009081526007602052604090205490565b34801561069b57600080fd5b5061046a6106aa366004614eb6565b611944565b3480156106bb57600080fd5b5061046a6106ca366004614f63565b6119ed565b3480156106db57600080fd5b50466103e7565b3480156106ee57600080fd5b5061046a6106fd366004614f63565b611a1f565b34801561070e57600080fd5b5061046a61071d366004614f88565b611aad565b34801561072e57600080fd5b5061046a611b82565b34801561074357600080fd5b50610757610752366004614fc4565b611c18565b6040516103f191906150c1565b34801561077057600080fd5b50601654610784906001600160a01b031681565b6040516001600160a01b0390911681526020016103f1565b3480156107a857600080fd5b5061043a6107b7366004614c6a565b611d41565b3480156107c857600080fd5b5061046a6107d7366004614b65565b611d60565b3480156107e857600080fd5b50600a54610784906001600160a01b031681565b34801561080857600080fd5b5060055460ff1661043a565b34801561082057600080fd5b5061046a61082f366004614b65565b611eed565b34801561084057600080fd5b5061046a61084f3660046150d4565b61201a565b34801561086057600080fd5b506103e761086f366004614c6a565b60116020526000908152604090205481565b34801561088d57600080fd5b5061046a61089c366004615149565b61206f565b3480156108ad57600080fd5b506108f06108bc366004614c6a565b6013602052600090815260409020546001600160a01b03811690600160a01b810462ffffff1690600160b81b900460ff1683565b604080516001600160a01b03909416845262ffffff90921660208401521515908201526060016103f1565b34801561092757600080fd5b5061046a612238565b34801561093c57600080fd5b506103e7600080516020615a9a83398151915281565b34801561095e57600080fd5b5061046a61096d366004614b65565b6122cc565b34801561097e57600080fd5b5061078461098d366004614e94565b61240e565b34801561099e57600080fd5b5061043a6109ad366004614f63565b612426565b3480156109be57600080fd5b506104a161244f565b3480156109d357600080fd5b5061046a6109e236600461519f565b61245c565b3480156109f357600080fd5b506103e7610a02366004614c6a565b60126020526000908152604090205481565b348015610a2057600080fd5b506103e7600081565b348015610a3557600080fd5b5061046a610a44366004614e5b565b6125d6565b348015610a5557600080fd5b506103e7610a64366004614c6a565b60009081526012602052604090205490565b348015610a8257600080fd5b5061046a610a91366004614db3565b6125e8565b61046a610aa4366004615149565b61278d565b348015610ab557600080fd5b506103e7610ac4366004614c6a565b6000908152600d602052604090205490565b6103e7610ae43660046151d7565b612c86565b348015610af557600080fd5b506103e7610b04366004614c6a565b612efa565b348015610b1557600080fd5b50610784610b24366004614c6a565b600c602052600090815260409020546001600160a01b031681565b348015610b4b57600080fd5b50600b54610784906001600160a01b031681565b348015610b6b57600080fd5b5061046a610b7a366004614b65565b612f11565b348015610b8b57600080fd5b5061046a610b9a366004615254565b613029565b348015610bab57600080fd5b50610784610bba366004614c6a565b6000908152600c60205260409020546001600160a01b031690565b348015610be157600080fd5b506103e7600080516020615afa83398151915281565b348015610c0357600080fd5b5061046a610c12366004614f63565b613159565b348015610c2357600080fd5b5061046a610c32366004614e94565b613181565b348015610c4357600080fd5b506103e7600080516020615ada83398151915281565b348015610c6557600080fd5b5061043a610c74366004615299565b61324c565b348015610c8557600080fd5b5061046a610c943660046152c7565b61331c565b348015610ca557600080fd5b5061046a610cb436600461532f565b613373565b348015610cc557600080fd5b506103e7600080516020615aba83398151915281565b348015610ce757600080fd5b50600954610784906001600160a01b031681565b60006001600160a01b038316610d6c5760405162461bcd60e51b815260206004820152602b60248201527f455243313135353a2062616c616e636520717565727920666f7220746865207a60448201526a65726f206164647265737360a81b60648201526084015b60405180910390fd5b5060008181526002602090815260408083206001600160a01b03861684529091529020545b92915050565b60006001600160e01b03198216636a4731c560e11b1480610d915750610d91826136f2565b600a546001600160a01b0316610dd06136fd565b6001600160a01b031614610df65760405162461bcd60e51b8152600401610d6390615364565b610e10600080516020615aba8339815191526109ad6136fd565b610e2c5760405162461bcd60e51b8152600401610d6390615364565b610e46600080516020615a9a8339815191526109ad6136fd565b610e625760405162461bcd60e51b8152600401610d639061538b565b610e6b8161370c565b50565b6009546001600160a01b0316610e826136fd565b6001600160a01b031614610ea85760405162461bcd60e51b8152600401610d63906153b1565b610eb560006109ad6136fd565b610ed15760405162461bcd60e51b8152600401610d63906153b1565b6009546001600160a01b0316610ee56136fd565b6001600160a01b031614610f0b5760405162461bcd60e51b8152600401610d63906153d5565b610f1860006109ad6136fd565b610f345760405162461bcd60e51b8152600401610d63906153d5565b600a80546001600160a01b038381166001600160a01b0319831681179093551690610f6e90600080516020615aba833981519152906119ed565b600a54610f9390600080516020615a9a833981519152906001600160a01b03166119ed565b600a54610fb890600080516020615afa833981519152906001600160a01b03166119ed565b600a54610fdd90600080516020615ada833981519152906001600160a01b03166119ed565b610ff5600080516020615aba83398151915282613159565b61100d600080516020615a9a83398151915282613159565b611025600080516020615afa83398151915282613159565b61103d600080516020615ada83398151915282613159565b600a54604080516001600160a01b03808516825290921660208301527fd58299b712891143e76310d5e664c4203c940a67db37cf856bdaa3c5c76a802c91015b60405180910390a15050565b600f8054611096906153f8565b80601f01602080910402602001604051908101604052809291908181526020018280546110c2906153f8565b801561110f5780601f106110e45761010080835404028352916020019161110f565b820191906000526020600020905b8154815290600101906020018083116110f257829003601f168201915b505050505081565b60408051606081810183526001600160a01b03881660008181526007602090815290859020548452830152918101869052611155878287878761371f565b6111ab5760405162461bcd60e51b815260206004820152602160248201527f5369676e657220616e64207369676e617475726520646f206e6f74206d6174636044820152600d60fb1b6064820152608401610d63565b6001600160a01b0387166000908152600760205260409020546111cf906001615443565b6001600160a01b0388166000908152600760205260409081902091909155517f5845892132946850460bff5a0083f71031bc5bf9aadcd40f1de79423eac9b10b9061121f90899033908a9061545b565b60405180910390a1600080306001600160a01b0316888a604051602001611247929190615490565b60408051601f1981840301815290829052611261916154c7565b6000604051808303816000865af19150503d806000811461129e576040519150601f19603f3d011682016040523d82523d6000602084013e6112a3565b606091505b5091509150816112de5760405162461bcd60e51b8152600401610d639060208082526004908201526319985a5b60e21b604082015260600190565b98975050505050505050565b6000818152600c60205260409020546060906001600160a01b03166113455760405162461bcd60e51b81526020600482015260116024820152702727a722ac24a9aa22a72a2faa27a5a2a760791b6044820152606401610d63565b6000828152600e60205260408120805461135e906153f8565b80601f016020809104026020016040519081016040528092919081815260200182805461138a906153f8565b80156113d75780601f106113ac576101008083540402835291602001916113d7565b820191906000526020600020905b8154815290600101906020018083116113ba57829003601f168201915b50505050509050600081511115611487576000838152600e602052604090208054611401906153f8565b80601f016020809104026020016040519081016040528092919081815260200182805461142d906153f8565b801561147a5780601f1061144f5761010080835404028352916020019161147a565b820191906000526020600020905b81548152906001019060200180831161145d57829003601f168201915b5050505050915050919050565b611490836137ed565b9392505050565b50919050565b600a546000906001600160a01b03166114b46136fd565b6001600160a01b0316146114da5760405162461bcd60e51b8152600401610d6390615364565b6114f4600080516020615aba8339815191526109ad6136fd565b6115105760405162461bcd60e51b8152600401610d6390615364565b61152a600080516020615a9a8339815191526109ad6136fd565b6115645760405162461bcd60e51b815260206004820152600b60248201526a2727aa2fa1a922a0aa27a960a91b6044820152606401610d63565b6000878152600c60205260409020546001600160a01b0316156115b95760405162461bcd60e51b815260206004820152600d60248201526c1053149150511657d1561254d5609a1b6044820152606401610d63565b81156115df57818611156115df5760405162461bcd60e51b8152600401610d63906154e3565b6115e76136fd565b6000888152600c6020526040902080546001600160a01b0319166001600160a01b0392909216919091179055845115611673576000878152600e60209081526040909120865161163992880190614967565b50867f6bb7ff708619ba0610cba295a58592e0451dee2622938c8755667688daf3529b8660405161166a9190614bda565b60405180910390a25b61167f88888887613881565b6000878152600d6020908152604080832089905560118252808320869055601290915290819020839055600a5490517fdfd613b842aef92c704876cb5eb94df518752614cc459d562f47af89b9be9126916116ed918b918b918b918b916001600160a01b0390911690615506565b60405180910390a150949695505050505050565b61171b600080516020615afa8339815191526109ad6136fd565b61178d5760405162461bcd60e51b815260206004820152603860248201527f455243313135355072657365744d696e7465725061757365723a206d7573742060448201527f68617665206d696e74657220726f6c6520746f206d696e7400000000000000006064820152608401610d63565b61179984848484613964565b50505050565b600a546001600160a01b03166117b36136fd565b6001600160a01b0316146117d95760405162461bcd60e51b8152600401610d6390615364565b6117f3600080516020615aba8339815191526109ad6136fd565b61180f5760405162461bcd60e51b8152600401610d6390615364565b6001600160a01b0382166118575760405162461bcd60e51b815260206004820152600f60248201526e105111149154d4d7d2539590531251608a1b6044820152606401610d63565b6001600160a01b03919091166000908152601760205260409020805460ff1916911515919091179055565b6000828152601360209081526040808320815160608101835290546001600160a01b0381168252600160a01b810462ffffff1693820193909352600160b81b90920460ff16158015918301919091528291906119065780516020820151909350612710906118f59062ffffff1686615549565b6118ff9190615568565b915061193c565b6000858152600c60205260409020546001600160a01b0316925061271061192f856101f4615549565b6119399190615568565b91505b509250929050565b61194c6136fd565b6001600160a01b0316856001600160a01b03161480611972575061197285610c746136fd565b6119d95760405162461bcd60e51b815260206004820152603260248201527f455243313135353a207472616e736665722063616c6c6572206973206e6f74206044820152711bdddb995c881b9bdc88185c1c1c9bdd995960721b6064820152608401610d63565b6119e68585858585613aca565b5050505050565b600082815260208190526040902060010154611a1081611a0b6136fd565b613c82565b611a1a8383613ce6565b505050565b611a276136fd565b6001600160a01b0316816001600160a01b031614611a9f5760405162461bcd60e51b815260206004820152602f60248201527f416363657373436f6e74726f6c3a2063616e206f6e6c792072656e6f756e636560448201526e103937b632b9903337b91039b2b63360891b6064820152608401610d63565b611aa98282613d08565b5050565b81611ab66136fd565b6000828152600c60205260409020546001600160a01b03908116911614611aef5760405162461bcd60e51b8152600401610d639061538b565b611b09600080516020615a9a8339815191526109ad6136fd565b611b255760405162461bcd60e51b8152600401610d639061538b565b6000838152600e602090815260409091208351611b4492850190614967565b50827f6bb7ff708619ba0610cba295a58592e0451dee2622938c8755667688daf3529b83604051611b759190614bda565b60405180910390a2505050565b611b9c600080516020615ada8339815191526109ad6136fd565b611c0e5760405162461bcd60e51b815260206004820152603b60248201527f455243313135355072657365744d696e7465725061757365723a206d7573742060448201527f686176652070617573657220726f6c6520746f20756e706175736500000000006064820152608401610d63565b611c16613d2a565b565b60608151835114611c7d5760405162461bcd60e51b815260206004820152602960248201527f455243313135353a206163636f756e747320616e6420696473206c656e677468604482015268040dad2e6dac2e8c6d60bb1b6064820152608401610d63565b600083516001600160401b03811115611c9857611c98614a74565b604051908082528060200260200182016040528015611cc1578160200160208202803683370190505b50905060005b8451811015611d3957611d0c858281518110611ce557611ce561558a565b6020026020010151858381518110611cff57611cff61558a565b6020026020010151610cfb565b828281518110611d1e57611d1e61558a565b6020908102919091010152611d32816155a0565b9050611cc7565b509392505050565b6000818152600c60205260408120546001600160a01b03161515610d91565b60026008541415611db35760405162461bcd60e51b815260206004820152601f60248201527f5265656e7472616e637947756172643a207265656e7472616e742063616c6c006044820152606401610d63565b60026008556009546001600160a01b0316611dcc6136fd565b6001600160a01b031614611df25760405162461bcd60e51b8152600401610d63906153b1565b611dff60006109ad6136fd565b611e1b5760405162461bcd60e51b8152600401610d63906153b1565b60004711611e585760405162461bcd60e51b815260206004820152600a60248201526909c9ea8be8a9c9eaa8e960b31b6044820152606401610d63565b6000816001600160a01b03164760405160006040518083038185875af1925050503d8060008114611ea5576040519150601f19603f3d011682016040523d82523d6000602084013e611eaa565b606091505b5050905080611ee45760405162461bcd60e51b8152600401610d63906020808252600490820152631190525360e21b604082015260600190565b50506001600855565b6009546001600160a01b03163314611f345760405162461bcd60e51b815260206004820152600a60248201526941444d494e5f4f4e4c5960b01b6044820152606401610d63565b611f3f600033612426565b611f785760405162461bcd60e51b815260206004820152600a60248201526941444d494e5f4f4e4c5960b01b6044820152606401610d63565b6001600160a01b038116611fc05760405162461bcd60e51b815260206004820152600f60248201526e105111149154d4d7d2539590531251608a1b6044820152606401610d63565b601680546001600160a01b038381166001600160a01b031983168117909355604080519190921680825260208201939093527fff8b036e9641959ee1d5b4efb05f8fa0e816d57e2879aa0758b191993511f7dd910161107d565b6120226136fd565b6001600160a01b0316836001600160a01b03161480612048575061204883610c746136fd565b6120645760405162461bcd60e51b8152600401610d63906155bb565b611a1a838383613dc3565b826120786136fd565b6000828152600c60205260409020546001600160a01b039081169116146120b15760405162461bcd60e51b8152600401610d639061538b565b6000848152600c60205260409020546001600160a01b03166121065760405162461bcd60e51b815260206004820152600e60248201526d2727a722ac24a9aa2faa27a5a2a760911b6044820152606401610d63565b612120600080516020615afa8339815191526109ad6136fd565b6121595760405162461bcd60e51b815260206004820152600a6024820152692727aa2fa6a4a72a22a960b11b6044820152606401610d63565b600084815260126020526040902054156121b057600084815260126020908152604080832054600d909252909120546121929085613f5b565b11156121b05760405162461bcd60e51b8152600401610d63906154e3565b6121bc85858585613881565b6000848152600d60205260409020546121d59084613f5b565b6000858152600d60209081526040918290209290925580516001600160a01b038816815291820186905281018490527f8069ef4945469d029cc32e222031bccdc99b2eaaf4ee374cd268012f7ddee9079060600160405180910390a15050505050565b612252600080516020615ada8339815191526109ad6136fd565b6122c45760405162461bcd60e51b815260206004820152603960248201527f455243313135355072657365744d696e7465725061757365723a206d7573742060448201527f686176652070617573657220726f6c6520746f207061757365000000000000006064820152608401610d63565b611c16613f67565b6009546001600160a01b03166122e06136fd565b6001600160a01b0316146123065760405162461bcd60e51b8152600401610d63906153b1565b61231360006109ad6136fd565b61232f5760405162461bcd60e51b8152600401610d63906153b1565b6009546001600160a01b03166123436136fd565b6001600160a01b0316146123695760405162461bcd60e51b8152600401610d63906153d5565b61237660006109ad6136fd565b6123925760405162461bcd60e51b8152600401610d63906153d5565b600980546001600160a01b038381166001600160a01b03198316811790935516906123bf906000906119ed565b6123ca600082613159565b600954604080516001600160a01b03808516825290921660208301527f7e644d79422f17c01e4894b5f4f588d331ebfa28653d42ae832dc59e38c9798f910161107d565b60008281526001602052604081206114909083613fe3565b6000918252602082815260408084206001600160a01b0393909316845291905290205460ff1690565b60108054611096906153f8565b600a546001600160a01b03166124706136fd565b6001600160a01b0316146124965760405162461bcd60e51b8152600401610d6390615364565b6124b0600080516020615aba8339815191526109ad6136fd565b6124cc5760405162461bcd60e51b8152600401610d6390615364565b6124e6600080516020615a9a8339815191526109ad6136fd565b6125205760405162461bcd60e51b815260206004820152600b60248201526a2727aa2fa1a922a0aa27a960a91b6044820152606401610d63565b61271081111561255d5760405162461bcd60e51b81526020600482015260086024820152670a89e9ebe90928e960c31b6044820152606401610d63565b604080516060810182526001600160a01b03938416815262ffffff928316602080830191825260018385019081526000978852601390915292909520905181549551925194166001600160b81b031990951694909417600160a01b91909216021760ff60b81b1916600160b81b91151591909102179055565b611aa96125e16136fd565b8383613fef565b600a546001600160a01b03166125fc6136fd565b6001600160a01b0316146126225760405162461bcd60e51b8152600401610d6390615364565b61263c600080516020615aba8339815191526109ad6136fd565b6126585760405162461bcd60e51b8152600401610d6390615364565b612672600080516020615afa8339815191526109ad6136fd565b6126ab5760405162461bcd60e51b815260206004820152600a6024820152692727aa2fa6a4a72a22a960b11b6044820152606401610d63565b60005b83518110156127805760008482815181106126cb576126cb61558a565b602002602001015190506126dd6136fd565b6000828152600c60205260409020546001600160a01b039081169116146127165760405162461bcd60e51b8152600401610d639061538b565b600084838151811061272a5761272a61558a565b6020026020010151905061275a81600d600085815260200190815260200160002054613f5b90919063ffffffff16565b6000928352600d6020526040909220919091555080612778816155a0565b9150506126ae565b5061179984848484613964565b6000838152600c60205260409020546001600160a01b03166127e25760405162461bcd60e51b815260206004820152600e60248201526d2727a722ac24a9aa2faa27a5a2a760911b6044820152606401610d63565b816001146128215760405162461bcd60e51b815260206004820152600c60248201526b4d41585f5155414e5449545960a01b6044820152606401610d63565b60008381526011602052604090205415612880576000838152601160205260409020543410156128805760405162461bcd60e51b815260206004820152600a6024820152694d4953535f505249434560b01b6044820152606401610d63565b600083815260126020526040902054156128d857600083815260126020908152604080832054600d909252909120546128ba906001615443565b11156128d85760405162461bcd60e51b8152600401610d63906154e3565b6000838152601860209081526040808320546001600160a01b031680845260179092529091205460ff166129405760405162461bcd60e51b815260206004820152600f60248201526e415050524f5645445f45524337323160881b6044820152606401610d63565b80600061294d84826140d0565b90506129576133c8565b6040516331a9108f60e11b8152600481018390526001600160a01b0391821691841690636352211e90602401602060405180830381865afa1580156129a0573d6000803e3d6000fd5b505050506040513d601f19601f820116820180604052508101906129c49190615604565b6001600160a01b031614612a0d5760405162461bcd60e51b815260206004820152601060248201526f4e4f545f4f574e45525f45524337323160801b6044820152606401610d63565b6001600160a01b038316600090815260196020908152604080832084845290915290205460ff1615612a6a5760405162461bcd60e51b815260206004820152600660248201526513525395115160d21b6044820152606401610d63565b6001600160a01b03831660009081526019602090815260408083208484529091529020805460ff19166001908117909155612aa9908890889087613881565b6000868152600d6020526040902054612ac3906001615443565b6000878152600d602090815260408083209390935560119052205415612c3457601654604051636d12dce160e01b815260206004820152600e60248201526d5449434b45545f5055525f46454560901b60448201526001600160a01b03909116906000908290636d12dce190606401602060405180830381865afa158015612b4f573d6000803e3d6000fd5b505050506040513d601f19601f82011682018060405250810190612b739190615621565b90506000612710612b848334615549565b612b8e9190615568565b60008a8152600c6020526040812054919250906001600160a01b0316612bb4833461563a565b604051600081818185875af1925050503d8060008114612bf0576040519150601f19603f3d011682016040523d82523d6000602084013e612bf5565b606091505b5050905080612c2f5760405162461bcd60e51b8152600401610d63906020808252600490820152631190525360e21b604082015260600190565b505050505b604080516001600160a01b03891681526020810188905260018183015290517f8069ef4945469d029cc32e222031bccdc99b2eaaf4ee374cd268012f7ddee9079181900360600190a150505050505050565b601654604051636d12dce160e01b815260206004820152600e60248201526d5449434b45545f5055425f46454560901b60448201526000916001600160a01b03169082908290636d12dce190606401602060405180830381865afa158015612cf2573d6000803e3d6000fd5b505050506040513d601f19601f82011682018060405250810190612d169190615621565b90508015612d615780341015612d615760405162461bcd60e51b815260206004820152601060248201526f4d4953535f5055424c4953485f46454560801b6044820152606401610d63565b6040516301ffc9a760e01b81526380ac58cd60e01b600482015288906001600160a01b038216906301ffc9a790602401602060405180830381865afa158015612dae573d6000803e3d6000fd5b505050506040513d601f19601f82011682018060405250810190612dd29190615651565b612e0b5760405162461bcd60e51b815260206004820152600a6024820152694e4f545f45524337323160b01b6044820152606401610d63565b6001600160a01b03891660009081526017602052604090205460ff1615612e615760405162461bcd60e51b815260206004820152600a6024820152691254d7d1561254d5115960b21b6044820152606401610d63565b612e6f601480546001019055565b60145460159081556001600160a01b038a166000818152601760209081526040808320805460ff1916600117905584548352601882529182902080546001600160a01b031916909317909255915482518084019093526002835261060f60f31b91830191909152612ee8918c91908b908b908b8b61149d565b50506015549998505050505050505050565b6000818152600160205260408120610d9190614125565b600a546001600160a01b0316612f256136fd565b6001600160a01b031614612f4b5760405162461bcd60e51b8152600401610d6390615364565b612f65600080516020615aba8339815191526109ad6136fd565b612f815760405162461bcd60e51b8152600401610d6390615364565b600b546001600160a01b0382811691161415612fcf5760405162461bcd60e51b815260206004820152600d60248201526c141493d61657d2539590531251609a1b6044820152606401610d63565b600b80546001600160a01b038381166001600160a01b031983168117909355604080519190921680825260208201939093527ffc15895015d07bcb2ae0459d79c7bfb40d36feedb31f55cc34e3ef404c86c577910161107d565b600a546001600160a01b031661303d6136fd565b6001600160a01b0316146130635760405162461bcd60e51b8152600401610d6390615364565b61307d600080516020615aba8339815191526109ad6136fd565b6130995760405162461bcd60e51b8152600401610d6390615364565b6001600160a01b0382166130e25760405162461bcd60e51b815260206004820152601060248201526f24a72b20a624a22fa0a2222922a9a99760811b6044820152606401610d63565b6130fa600080516020615a9a83398151915283613ce6565b613112600080516020615afa83398151915283613ce6565b60005b8151811015611a1a5760008282815181106131325761313261558a565b60200260200101519050613146848261412f565b5080613151816155a0565b915050613115565b60008281526020819052604090206001015461317781611a0b6136fd565b611a1a8383613d08565b600a546001600160a01b03166131956136fd565b6001600160a01b0316146131bb5760405162461bcd60e51b8152600401610d6390615364565b6131d5600080516020615aba8339815191526109ad6136fd565b6131f15760405162461bcd60e51b8152600401610d6390615364565b60008281526011602090815260409182902080549084905582518581529182018190529181018390527f2bce37c591c5b0d254c3056688b080a088f160fff82b6e79f456c8a20d5570f69060600160405180910390a1505050565b600b546000906001600160a01b0316156132ee57600b5460405163c455279160e01b81526001600160a01b03858116600483015291821691841690829063c455279190602401602060405180830381865afa1580156132af573d6000803e3d6000fd5b505050506040513d601f19601f820116820180604052508101906132d39190615604565b6001600160a01b031614156132ec576001915050610d91565b505b6001600160a01b0380841660009081526003602090815260408083209386168352929052205460ff16611490565b6133246136fd565b6001600160a01b0316856001600160a01b0316148061334a575061334a85610c746136fd565b6133665760405162461bcd60e51b8152600401610d63906155bb565b6119e685858585856141a0565b61337b6136fd565b6001600160a01b0316836001600160a01b031614806133a157506133a183610c746136fd565b6133bd5760405162461bcd60e51b8152600401610d63906155bb565b611a1a8383836142cc565b60003330141561341f57600080368080601f0160208091040260200160405190810160405280939291908181526020018383808284376000920191909152505050503601516001600160a01b031691506134229050565b50335b90565b61342f8282612426565b611aa9576000828152602081815260408083206001600160a01b03851684529091529020805460ff191660011790556134666136fd565b6001600160a01b0316816001600160a01b0316837f2f8788117e7eff1d82e926ec794901d17c78024a50270940304540a733656f0d60405160405180910390a45050565b6000611490836001600160a01b0384166143dc565b606060006134ce836002615549565b6134d9906002615443565b6001600160401b038111156134f0576134f0614a74565b6040519080825280601f01601f19166020018201604052801561351a576020820181803683370190505b509050600360fc1b816000815181106135355761353561558a565b60200101906001600160f81b031916908160001a905350600f60fb1b816001815181106135645761356461558a565b60200101906001600160f81b031916908160001a9053506000613588846002615549565b613593906001615443565b90505b600181111561360b576f181899199a1a9b1b9c1cb0b131b232b360811b85600f16601081106135c7576135c761558a565b1a60f81b8282815181106135dd576135dd61558a565b60200101906001600160f81b031916908160001a90535060049490941c936136048161566e565b9050613596565b5083156114905760405162461bcd60e51b815260206004820181905260248201527f537472696e67733a20686578206c656e67746820696e73756666696369656e746044820152606401610d63565b6136648282612426565b15611aa9576000828152602081815260408083206001600160a01b03851684529091529020805460ff191690556136996136fd565b6001600160a01b0316816001600160a01b0316837ff6391f5c32d9c69d2a47ea670b442974b53935d1edc7fd64eb21e047a839171b60405160405180910390a45050565b6000611490836001600160a01b03841661442b565b6000610d918261451e565b60006137076133c8565b905090565b8051611aa9906004906020840190614967565b60006001600160a01b0386166137635760405162461bcd60e51b815260206004820152600960248201526824a72fa9a4a3a722a960b91b6044820152606401610d63565b60016137766137718761455e565b6145db565b6040805160008152602081018083529290925260ff851690820152606081018690526080810185905260a0016020604051602081039080840390855afa1580156137c4573d6000803e3d6000fd5b505050602060405103516001600160a01b0316866001600160a01b031614905095945050505050565b6060600480546137fc906153f8565b80601f0160208091040260200160405190810160405280929190818152602001828054613828906153f8565b80156138755780601f1061384a57610100808354040283529160200191613875565b820191906000526020600020905b81548152906001019060200180831161385857829003601f168201915b50505050509050919050565b6001600160a01b0384166138a75760405162461bcd60e51b8152600401610d6390615685565b60006138b16136fd565b90506138d2816000876138c38861460b565b6138cc8861460b565b87614656565b60008481526002602090815260408083206001600160a01b038916845290915281208054859290613904908490615443565b909155505060408051858152602081018590526001600160a01b0380881692600092918516917fc3d58168c5ae7397731d063d5bbf3d657854427343f4c083240f7aacaa2d0f62910160405180910390a46119e681600087878787614664565b6001600160a01b03841661398a5760405162461bcd60e51b8152600401610d6390615685565b81518351146139ab5760405162461bcd60e51b8152600401610d63906156c6565b60006139b56136fd565b90506139c681600087878787614656565b60005b8451811015613a62578381815181106139e4576139e461558a565b602002602001015160026000878481518110613a0257613a0261558a565b602002602001015181526020019081526020016000206000886001600160a01b03166001600160a01b031681526020019081526020016000206000828254613a4a9190615443565b90915550819050613a5a816155a0565b9150506139c9565b50846001600160a01b031660006001600160a01b0316826001600160a01b03167f4a39dc06d4c0dbc64b70af90fd698a233a518aa5d07e595d983b8c0526c8f7fb8787604051613ab392919061570e565b60405180910390a46119e6816000878787876147c0565b8151835114613aeb5760405162461bcd60e51b8152600401610d63906156c6565b6001600160a01b038416613b115760405162461bcd60e51b8152600401610d6390615733565b6000613b1b6136fd565b9050613b2b818787878787614656565b60005b8451811015613c14576000858281518110613b4b57613b4b61558a565b602002602001015190506000858381518110613b6957613b6961558a565b60209081029190910181015160008481526002835260408082206001600160a01b038e168352909352919091205490915081811015613bba5760405162461bcd60e51b8152600401610d6390615778565b60008381526002602090815260408083206001600160a01b038e8116855292528083208585039055908b16825281208054849290613bf9908490615443565b9250508190555050505080613c0d906155a0565b9050613b2e565b50846001600160a01b0316866001600160a01b0316826001600160a01b03167f4a39dc06d4c0dbc64b70af90fd698a233a518aa5d07e595d983b8c0526c8f7fb8787604051613c6492919061570e565b60405180910390a4613c7a8187878787876147c0565b505050505050565b613c8c8282612426565b611aa957613ca4816001600160a01b031660146134bf565b613caf8360206134bf565b604051602001613cc09291906157c2565b60408051601f198184030181529082905262461bcd60e51b8252610d6391600401614bda565b613cf08282613425565b6000828152600160205260409020611a1a90826134aa565b613d12828261365a565b6000828152600160205260409020611a1a90826136dd565b60055460ff16613d735760405162461bcd60e51b815260206004820152601460248201527314185d5cd8589b194e881b9bdd081c185d5cd95960621b6044820152606401610d63565b6005805460ff191690557f5db9ee0a495bf2e6ff9c91a7834c1ba4fdd244a5e8aa4e537bd38aeae4b073aa613da66136fd565b6040516001600160a01b03909116815260200160405180910390a1565b6001600160a01b038316613de95760405162461bcd60e51b8152600401610d6390615837565b8051825114613e0a5760405162461bcd60e51b8152600401610d63906156c6565b6000613e146136fd565b9050613e3481856000868660405180602001604052806000815250614656565b60005b8351811015613efc576000848281518110613e5457613e5461558a565b602002602001015190506000848381518110613e7257613e7261558a565b60209081029190910181015160008481526002835260408082206001600160a01b038c168352909352919091205490915081811015613ec35760405162461bcd60e51b8152600401610d639061587a565b60009283526002602090815260408085206001600160a01b038b1686529091529092209103905580613ef4816155a0565b915050613e37565b5060006001600160a01b0316846001600160a01b0316826001600160a01b03167f4a39dc06d4c0dbc64b70af90fd698a233a518aa5d07e595d983b8c0526c8f7fb8686604051613f4d92919061570e565b60405180910390a450505050565b60006114908284615443565b60055460ff1615613fad5760405162461bcd60e51b815260206004820152601060248201526f14185d5cd8589b194e881c185d5cd95960821b6044820152606401610d63565b6005805460ff191660011790557f62e78cea01bee320cd4e420270b5ea74000d11b0c9f74754ebdbfc544b05a258613da66136fd565b6000611490838361487b565b816001600160a01b0316836001600160a01b031614156140635760405162461bcd60e51b815260206004820152602960248201527f455243313135353a2073657474696e6720617070726f76616c20737461747573604482015268103337b91039b2b63360b91b6064820152608401610d63565b6001600160a01b03838116600081815260036020908152604080832094871680845294825291829020805460ff191686151590811790915591519182527f17307eab39ab6107e8899845ad3d59bd9653f200f220920489ca2b5937696c31910160405180910390a3505050565b60006140dd826020615443565b8351101561411c5760405162461bcd60e51b815260206004820152600c60248201526b4f55545f4f465f52414e474560a01b6044820152606401610d63565b50016020015190565b6000610d91825490565b806141386136fd565b6000828152600c60205260409020546001600160a01b039081169116146141715760405162461bcd60e51b8152600401610d639061538b565b506000908152600c6020526040902080546001600160a01b0319166001600160a01b0392909216919091179055565b6001600160a01b0384166141c65760405162461bcd60e51b8152600401610d6390615733565b60006141d06136fd565b90506141e18187876138c38861460b565b60008481526002602090815260408083206001600160a01b038a168452909152902054838110156142245760405162461bcd60e51b8152600401610d6390615778565b60008581526002602090815260408083206001600160a01b038b8116855292528083208785039055908816825281208054869290614263908490615443565b909155505060408051868152602081018690526001600160a01b03808916928a821692918616917fc3d58168c5ae7397731d063d5bbf3d657854427343f4c083240f7aacaa2d0f62910160405180910390a46142c3828888888888614664565b50505050505050565b6001600160a01b0383166142f25760405162461bcd60e51b8152600401610d6390615837565b60006142fc6136fd565b905061432c8185600061430e8761460b565b6143178761460b565b60405180602001604052806000815250614656565b60008381526002602090815260408083206001600160a01b03881684529091529020548281101561436f5760405162461bcd60e51b8152600401610d639061587a565b60008481526002602090815260408083206001600160a01b03898116808652918452828520888703905582518981529384018890529092908616917fc3d58168c5ae7397731d063d5bbf3d657854427343f4c083240f7aacaa2d0f62910160405180910390a45050505050565b600081815260018301602052604081205461442357508154600181810184556000848152602080822090930184905584548482528286019093526040902091909155610d91565b506000610d91565b6000818152600183016020526040812054801561451457600061444f60018361563a565b85549091506000906144639060019061563a565b90508181146144c85760008660000182815481106144835761448361558a565b90600052602060002001549050808760000184815481106144a6576144a661558a565b6000918252602080832090910192909255918252600188019052604090208390555b85548690806144d9576144d96158be565b600190038181906000526020600020016000905590558560010160008681526020019081526020016000206000905560019350505050610d91565b6000915050610d91565b60006001600160e01b03198216636cdb3d1360e11b148061454f57506001600160e01b031982166303a24d0760e21b145b80610d915750610d91826148a5565b6000604051806060016040528060258152602001615a7560259139805160209182012083518483015160408087015180519086012090516145be950193845260208401929092526001600160a01b03166040830152606082015260800190565b604051602081830303815290604052805190602001209050919050565b60006145e660065490565b60405161190160f01b60208201526022810191909152604281018390526062016145be565b604080516001808252818301909252606091600091906020808301908036833701905050905082816000815181106146455761464561558a565b602090810291909101015292915050565b613c7a8686868686866148ca565b6001600160a01b0384163b15613c7a5760405163f23a6e6160e01b81526001600160a01b0385169063f23a6e61906146a890899089908890889088906004016158d4565b6020604051808303816000875af19250505080156146e3575060408051601f3d908101601f191682019092526146e091810190615919565b60015b614790576146ef615936565b806308c379a014156147295750614704615951565b8061470f575061472b565b8060405162461bcd60e51b8152600401610d639190614bda565b505b60405162461bcd60e51b815260206004820152603460248201527f455243313135353a207472616e7366657220746f206e6f6e20455243313135356044820152732932b1b2b4bb32b91034b6b83632b6b2b73a32b960611b6064820152608401610d63565b6001600160e01b0319811663f23a6e6160e01b146142c35760405162461bcd60e51b8152600401610d63906159da565b6001600160a01b0384163b15613c7a5760405163bc197c8160e01b81526001600160a01b0385169063bc197c81906148049089908990889088908890600401615a22565b6020604051808303816000875af192505050801561483f575060408051601f3d908101601f1916820190925261483c91810190615919565b60015b61484b576146ef615936565b6001600160e01b0319811663bc197c8160e01b146142c35760405162461bcd60e51b8152600401610d63906159da565b60008260000182815481106148925761489261558a565b9060005260206000200154905092915050565b60006001600160e01b03198216635a05180f60e01b1480610d915750610d9182614932565b60055460ff1615613c7a5760405162461bcd60e51b815260206004820152602c60248201527f455243313135355061757361626c653a20746f6b656e207472616e736665722060448201526b1dda1a5b19481c185d5cd95960a21b6064820152608401610d63565b60006001600160e01b03198216637965db0b60e01b1480610d9157506301ffc9a760e01b6001600160e01b0319831614610d91565b828054614973906153f8565b90600052602060002090601f01602090048101928261499557600085556149db565b82601f106149ae57805160ff19168380011785556149db565b828001600101855582156149db579182015b828111156149db5782518255916020019190600101906149c0565b506149e79291506149eb565b5090565b5b808211156149e757600081556001016149ec565b6001600160a01b0381168114610e6b57600080fd5b60008060408385031215614a2857600080fd5b8235614a3381614a00565b946020939093013593505050565b6001600160e01b031981168114610e6b57600080fd5b600060208284031215614a6957600080fd5b813561149081614a41565b634e487b7160e01b600052604160045260246000fd5b601f8201601f191681016001600160401b0381118282101715614aaf57614aaf614a74565b6040525050565b600082601f830112614ac757600080fd5b81356001600160401b03811115614ae057614ae0614a74565b604051614af7601f8301601f191660200182614a8a565b818152846020838601011115614b0c57600080fd5b816020850160208301376000918101602001919091529392505050565b600060208284031215614b3b57600080fd5b81356001600160401b03811115614b5157600080fd5b614b5d84828501614ab6565b949350505050565b600060208284031215614b7757600080fd5b813561149081614a00565b60005b83811015614b9d578181015183820152602001614b85565b838111156117995750506000910152565b60008151808452614bc6816020860160208601614b82565b601f01601f19169290920160200192915050565b6020815260006114906020830184614bae565b600080600080600060a08688031215614c0557600080fd5b8535614c1081614a00565b945060208601356001600160401b03811115614c2b57600080fd5b614c3788828901614ab6565b9450506040860135925060608601359150608086013560ff81168114614c5c57600080fd5b809150509295509295909350565b600060208284031215614c7c57600080fd5b5035919050565b600080600080600080600060e0888a031215614c9e57600080fd5b8735614ca981614a00565b9650602088013595506040880135945060608801356001600160401b0380821115614cd357600080fd5b614cdf8b838c01614ab6565b955060808a0135915080821115614cf557600080fd5b50614d028a828b01614ab6565b93505060a0880135915060c0880135905092959891949750929550565b60006001600160401b03821115614d3857614d38614a74565b5060051b60200190565b600082601f830112614d5357600080fd5b81356020614d6082614d1f565b604051614d6d8282614a8a565b83815260059390931b8501820192828101915086841115614d8d57600080fd5b8286015b84811015614da85780358352918301918301614d91565b509695505050505050565b60008060008060808587031215614dc957600080fd5b8435614dd481614a00565b935060208501356001600160401b0380821115614df057600080fd5b614dfc88838901614d42565b94506040870135915080821115614e1257600080fd5b614e1e88838901614d42565b93506060870135915080821115614e3457600080fd5b50614e4187828801614ab6565b91505092959194509250565b8015158114610e6b57600080fd5b60008060408385031215614e6e57600080fd5b8235614e7981614a00565b91506020830135614e8981614e4d565b809150509250929050565b60008060408385031215614ea757600080fd5b50508035926020909101359150565b600080600080600060a08688031215614ece57600080fd5b8535614ed981614a00565b94506020860135614ee981614a00565b935060408601356001600160401b0380821115614f0557600080fd5b614f1189838a01614d42565b94506060880135915080821115614f2757600080fd5b614f3389838a01614d42565b93506080880135915080821115614f4957600080fd5b50614f5688828901614ab6565b9150509295509295909350565b60008060408385031215614f7657600080fd5b823591506020830135614e8981614a00565b60008060408385031215614f9b57600080fd5b8235915060208301356001600160401b03811115614fb857600080fd5b61193985828601614ab6565b60008060408385031215614fd757600080fd5b82356001600160401b0380821115614fee57600080fd5b818501915085601f83011261500257600080fd5b8135602061500f82614d1f565b60405161501c8282614a8a565b83815260059390931b850182019282810191508984111561503c57600080fd5b948201945b8386101561506357853561505481614a00565b82529482019490820190615041565b9650508601359250508082111561507957600080fd5b5061193985828601614d42565b600081518084526020808501945080840160005b838110156150b65781518752958201959082019060010161509a565b509495945050505050565b6020815260006114906020830184615086565b6000806000606084860312156150e957600080fd5b83356150f481614a00565b925060208401356001600160401b038082111561511057600080fd5b61511c87838801614d42565b9350604086013591508082111561513257600080fd5b5061513f86828701614d42565b9150509250925092565b6000806000806080858703121561515f57600080fd5b843561516a81614a00565b9350602085013592506040850135915060608501356001600160401b0381111561519357600080fd5b614e4187828801614ab6565b6000806000606084860312156151b457600080fd5b8335925060208401356151c681614a00565b929592945050506040919091013590565b60008060008060008060c087890312156151f057600080fd5b86356151fb81614a00565b9550602087013561520b81614a00565b94506040870135935060608701356001600160401b0381111561522d57600080fd5b61523989828a01614ab6565b9350506080870135915060a087013590509295509295509295565b6000806040838503121561526757600080fd5b823561527281614a00565b915060208301356001600160401b0381111561528d57600080fd5b61193985828601614d42565b600080604083850312156152ac57600080fd5b82356152b781614a00565b91506020830135614e8981614a00565b600080600080600060a086880312156152df57600080fd5b85356152ea81614a00565b945060208601356152fa81614a00565b9350604086013592506060860135915060808601356001600160401b0381111561532357600080fd5b614f5688828901614ab6565b60008060006060848603121561534457600080fd5b833561534f81614a00565b95602085013595506040909401359392505050565b6020808252600d908201526c27a7262cafa7a822a920aa27a960991b604082015260600190565b6020808252600c908201526b27a7262cafa1a922a0aa27a960a11b604082015260600190565b6020808252600a908201526927a7262cafa0a226a4a760b11b604082015260600190565b6020808252600990820152682727aa2fa0a226a4a760b91b604082015260600190565b600181811c9082168061540c57607f821691505b6020821081141561149757634e487b7160e01b600052602260045260246000fd5b634e487b7160e01b600052601160045260246000fd5b600082198211156154565761545661542d565b500190565b6001600160a01b0384811682528316602082015260606040820181905260009061548790830184614bae565b95945050505050565b600083516154a2818460208801614b82565b60609390931b6bffffffffffffffffffffffff19169190920190815260140192915050565b600082516154d9818460208701614b82565b9190910192915050565b6020808252600990820152680a48a828690be9a82b60bb1b604082015260600190565b600060018060a01b03808816835286602084015285604084015260a0606084015261553460a0840186614bae565b91508084166080840152509695505050505050565b60008160001904831182151516156155635761556361542d565b500290565b60008261558557634e487b7160e01b600052601260045260246000fd5b500490565b634e487b7160e01b600052603260045260246000fd5b60006000198214156155b4576155b461542d565b5060010190565b60208082526029908201527f455243313135353a2063616c6c6572206973206e6f74206f776e6572206e6f7260408201526808185c1c1c9bdd995960ba1b606082015260800190565b60006020828403121561561657600080fd5b815161149081614a00565b60006020828403121561563357600080fd5b5051919050565b60008282101561564c5761564c61542d565b500390565b60006020828403121561566357600080fd5b815161149081614e4d565b60008161567d5761567d61542d565b506000190190565b60208082526021908201527f455243313135353a206d696e7420746f20746865207a65726f206164647265736040820152607360f81b606082015260800190565b60208082526028908201527f455243313135353a2069647320616e6420616d6f756e7473206c656e677468206040820152670dad2e6dac2e8c6d60c31b606082015260800190565b6040815260006157216040830185615086565b82810360208401526154878185615086565b60208082526025908201527f455243313135353a207472616e7366657220746f20746865207a65726f206164604082015264647265737360d81b606082015260800190565b6020808252602a908201527f455243313135353a20696e73756666696369656e742062616c616e636520666f60408201526939103a3930b739b332b960b11b606082015260800190565b7f416363657373436f6e74726f6c3a206163636f756e74200000000000000000008152600083516157fa816017850160208801614b82565b7001034b99036b4b9b9b4b733903937b6329607d1b601791840191820152835161582b816028840160208801614b82565b01602801949350505050565b60208082526023908201527f455243313135353a206275726e2066726f6d20746865207a65726f206164647260408201526265737360e81b606082015260800190565b60208082526024908201527f455243313135353a206275726e20616d6f756e7420657863656564732062616c604082015263616e636560e01b606082015260800190565b634e487b7160e01b600052603160045260246000fd5b6001600160a01b03868116825285166020820152604081018490526060810183905260a06080820181905260009061590e90830184614bae565b979650505050505050565b60006020828403121561592b57600080fd5b815161149081614a41565b600060033d11156134225760046000803e5060005160e01c90565b600060443d101561595f5790565b6040516003193d81016004833e81513d6001600160401b03816024840111818411171561598e57505050505090565b82850191508151818111156159a65750505050505090565b843d87010160208285010111156159c05750505050505090565b6159cf60208286010187614a8a565b509095945050505050565b60208082526028908201527f455243313135353a204552433131353552656365697665722072656a656374656040820152676420746f6b656e7360c01b606082015260800190565b6001600160a01b0386811682528516602082015260a060408201819052600090615a4e90830186615086565b8281036060840152615a608186615086565b905082810360808401526112de8185614bae56fe4d6574615472616e73616374696f6e286e6f6e63652c66726f6d2c7369676e617475726529828634d95e775031b9ff576b159a8509d3053581a8c9c4d7d86899e0afcd882f97667070c54ef182b0f5858b034beac1b6f3089aa2d3188bb1e8929f4fa9b92965d7a28e3265b37a6474929f336521b332c1681b933f6cb9f3376673440d862a9f2df0fed2c77648de5860a4cc508cd0818c85b8b8a1ab4ceeef8d981c8956a6a26469706673582212200f0e7088b277304aa44241794c2c5e49d31c63d31f6906c0822b4c9f93e6ac6e64736f6c634300080c0033454950373132446f6d61696e28737472696e67206e616d652c737472696e672076657273696f6e2c6164647265737320766572696679696e67436f6e74726163742c627974657333322073616c742965d7a28e3265b37a6474929f336521b332c1681b933f6cb9f3376673440d862a9f2df0fed2c77648de5860a4cc508cd0818c85b8b8a1ab4ceeef8d981c8956a6",
  "linkReferences": {},
  "deployedLinkReferences": {}
}