{
  "_format": "hh-sol-artifact-1",
  "contractName": "RoveTokenTimelock",
  "sourceName": "contracts/monetary/RoveTokenTimelock.sol",
  "abi": [
    {
      "inputs": [
        {
          "internalType": "contract IERC20",
          "name": "token_",
          "type": "address"
        },
        {
          "internalType": "address[4]",
          "name": "beneficiary_",
          "type": "address[4]"
        },
        {
          "internalType": "uint256",
          "name": "releaseTime_",
          "type": "uint256"
        }
      ],
      "stateMutability": "nonpayable",
      "type": "constructor"
    },
    {
      "inputs": [],
      "name": "beneficiary",
      "outputs": [
        {
          "internalType": "address[4]",
          "name": "",
          "type": "address[4]"
        }
      ],
      "stateMutability": "view",
      "type": "function"
    },
    {
      "inputs": [
        {
          "internalType": "uint128",
          "name": "index",
          "type": "uint128"
        }
      ],
      "name": "beneficiary",
      "outputs": [
        {
          "internalType": "address",
          "name": "",
          "type": "address"
        }
      ],
      "stateMutability": "view",
      "type": "function"
    },
    {
      "inputs": [],
      "name": "current_balance",
      "outputs": [
        {
          "internalType": "uint256",
          "name": "",
          "type": "uint256"
        }
      ],
      "stateMutability": "view",
      "type": "function"
    },
    {
      "inputs": [],
      "name": "release",
      "outputs": [],
      "stateMutability": "nonpayable",
      "type": "function"
    },
    {
      "inputs": [],
      "name": "releaseTime",
      "outputs": [
        {
          "internalType": "uint256",
          "name": "",
          "type": "uint256"
        }
      ],
      "stateMutability": "view",
      "type": "function"
    },
    {
      "inputs": [],
      "name": "token",
      "outputs": [
        {
          "internalType": "contract IERC20",
          "name": "",
          "type": "address"
        }
      ],
      "stateMutability": "view",
      "type": "function"
    }
  ],
  "bytecode": "0x60c06040523480156200001157600080fd5b506040516200102038038062001020833981016040819052620000349162000186565b6001600055428111620000a85760405162461bcd60e51b815260206004820152603260248201527f546f6b656e54696d656c6f636b3a2072656c656173652074696d65206973206260448201527165666f72652063757272656e742074696d6560701b606482015260840160405180910390fd5b6001600160a01b038316608052620000c46001836004620000d1565b5060a052506200022f9050565b82600481019282156200011c579160200282015b828111156200011c57825182546001600160a01b0319166001600160a01b03909116178255602090920191600190910190620000e5565b506200012a9291506200012e565b5090565b5b808211156200012a57600081556001016200012f565b6001600160a01b03811681146200015b57600080fd5b50565b634e487b7160e01b600052604160045260246000fd5b8051620001818162000145565b919050565b600080600060c084860312156200019c57600080fd5b8351620001a98162000145565b92506020603f85018613620001bd57600080fd5b604051608081016001600160401b0381118282101715620001e257620001e26200015e565b6040528060a0870188811115620001f857600080fd5b8388015b818110156200021e57620002108162000174565b8352918401918401620001fc565b505195989197509495509350505050565b60805160a051610d956200028b6000396000818160d5015281816102cc01526102f201526000818160fc015281816101ae015281816103930152818161058b015281816105c601528181610602015261063e0152610d956000f3fe608060405234801561001057600080fd5b50600436106100625760003560e01c806338af3eed1461006757806350183a5d146100855780635408cfae146100b057806386d1a69f146100c6578063b91d4001146100d0578063fc0c546a146100f7575b600080fd5b61006f61011e565b60405161007c9190610a3e565b60405180910390f35b610098610093366004610a78565b610163565b6040516001600160a01b03909116815260200161007c565b6100b8610192565b60405190815260200161007c565b6100ce61024c565b005b6100b87f000000000000000000000000000000000000000000000000000000000000000081565b6100987f000000000000000000000000000000000000000000000000000000000000000081565b610126610a20565b6040805160808101918290529060019060049082845b81546001600160a01b0316815260019091019060200180831161013c575050505050905090565b60006001826001600160801b03166004811061018157610181610aa1565b01546001600160a01b031692915050565b6040516370a0823160e01b8152306004820181905260009182907f00000000000000000000000000000000000000000000000000000000000000006001600160a01b0316906370a0823190602401602060405180830381865afa1580156101fd573d6000803e3d6000fd5b505050506040513d601f19601f820116820180604052508101906102219190610ab7565b9050610246604051806060016040528060298152602001610d37602991393083610674565b92915050565b600260005414156102a45760405162461bcd60e51b815260206004820152601f60248201527f5265656e7472616e637947756172643a207265656e7472616e742063616c6c0060448201526064015b60405180910390fd5b60026000819055506102f0604051806080016040528060508152602001610ce76050913930427f00000000000000000000000000000000000000000000000000000000000000006106c0565b7f000000000000000000000000000000000000000000000000000000000000000042101561037b5760405162461bcd60e51b815260206004820152603260248201527f546f6b656e54696d656c6f636b3a2063757272656e742074696d65206973206260448201527165666f72652072656c656173652074696d6560701b606482015260840161029b565b6040516370a0823160e01b81523060048201526000907f00000000000000000000000000000000000000000000000000000000000000006001600160a01b0316906370a0823190602401602060405180830381865afa1580156103e2573d6000803e3d6000fd5b505050506040513d601f19601f820116820180604052508101906104069190610ab7565b9050610413601482610ae6565b61041d9082610b10565b90506000811161043f5760405162461bcd60e51b815260040161029b90610b27565b600061044c601483610b6a565b905061045981600d610b7e565b90506104886040518060400160405280600b81526020016a031b7b6b6bab734ba3c9d160ad1b8152508261070f565b6000610495600584610b6a565b90506104bf6040518060400160405280600681526020016503a32b0b69d160d51b8152508261070f565b60006104cc600a85610b6a565b90506104f760405180604001604052806007815260200166039b0b632b99d160cd1b8152508261070f565b6000610504601486610b6a565b90506105336040518060400160405280600b81526020016a03634b8bab4b234ba3c9d160ad1b8152508261070f565b600061053f8486610b9d565b905061054b8382610b9d565b90506105578282610b9d565b90508581146105785760405162461bcd60e51b815260040161029b90610b27565b6105b46001600001546001600160a01b037f00000000000000000000000000000000000000000000000000000000000000008116911687610758565b6105ef60018001546001600160a01b037f00000000000000000000000000000000000000000000000000000000000000008116911686610758565b61062b6001600201546001600160a01b037f00000000000000000000000000000000000000000000000000000000000000008116911685610758565b6106676001600301546001600160a01b037f00000000000000000000000000000000000000000000000000000000000000008116911684610758565b5050600160005550505050565b6106bb83838360405160240161068c93929190610c0d565b60408051601f198184030181529190526020810180516001600160e01b03166307c8121760e01b1790526107aa565b505050565b610709848484846040516024016106da9493929190610c3b565b60408051601f198184030181529190526020810180516001600160e01b031663daa394bd60e01b1790526107aa565b50505050565b6107548282604051602401610725929190610c73565b60408051601f198184030181529190526020810180516001600160e01b03166309710a9d60e41b1790526107aa565b5050565b604080516001600160a01b038416602482015260448082018490528251808303909101815260649091019091526020810180516001600160e01b031663a9059cbb60e01b1790526106bb9084906107cb565b80516a636f6e736f6c652e6c6f67602083016000808483855afa5050505050565b6000610820826040518060400160405280602081526020017f5361666545524332303a206c6f772d6c6576656c2063616c6c206661696c6564815250856001600160a01b031661089d9092919063ffffffff16565b8051909150156106bb578080602001905181019061083e9190610c95565b6106bb5760405162461bcd60e51b815260206004820152602a60248201527f5361666545524332303a204552433230206f7065726174696f6e20646964206e6044820152691bdd081cdd58d8d9595960b21b606482015260840161029b565b60606108ac84846000856108b6565b90505b9392505050565b6060824710156109175760405162461bcd60e51b815260206004820152602660248201527f416464726573733a20696e73756666696369656e742062616c616e636520666f6044820152651c8818d85b1b60d21b606482015260840161029b565b6001600160a01b0385163b61096e5760405162461bcd60e51b815260206004820152601d60248201527f416464726573733a2063616c6c20746f206e6f6e2d636f6e7472616374000000604482015260640161029b565b600080866001600160a01b0316858760405161098a9190610cb7565b60006040518083038185875af1925050503d80600081146109c7576040519150601f19603f3d011682016040523d82523d6000602084013e6109cc565b606091505b50915091506109dc8282866109e7565b979650505050505050565b606083156109f65750816108af565b825115610a065782518084602001fd5b8160405162461bcd60e51b815260040161029b9190610cd3565b60405180608001604052806004906020820280368337509192915050565b60808101818360005b6004811015610a6f5781516001600160a01b0316835260209283019290910190600101610a47565b50505092915050565b600060208284031215610a8a57600080fd5b81356001600160801b03811681146108af57600080fd5b634e487b7160e01b600052603260045260246000fd5b600060208284031215610ac957600080fd5b5051919050565b634e487b7160e01b600052601260045260246000fd5b600082610af557610af5610ad0565b500690565b634e487b7160e01b600052601160045260246000fd5b600082821015610b2257610b22610afa565b500390565b60208082526023908201527f546f6b656e54696d656c6f636b3a206e6f20746f6b656e7320746f2072656c6560408201526261736560e81b606082015260800190565b600082610b7957610b79610ad0565b500490565b6000816000190483118215151615610b9857610b98610afa565b500290565b60008219821115610bb057610bb0610afa565b500190565b60005b83811015610bd0578181015183820152602001610bb8565b838111156107095750506000910152565b60008151808452610bf9816020860160208601610bb5565b601f01601f19169290920160200192915050565b606081526000610c206060830186610be1565b6001600160a01b039490941660208301525060400152919050565b608081526000610c4e6080830187610be1565b6001600160a01b03959095166020830152506040810192909252606090910152919050565b604081526000610c866040830185610be1565b90508260208301529392505050565b600060208284031215610ca757600080fd5b815180151581146108af57600080fd5b60008251610cc9818460208701610bb5565b9190910192915050565b6020815260006108af6020830184610be156fe63616c6c2072656c6561736520666f7220746f6b656e206c6f636b2074696d6520616464726573732025732c20626c6f636b2074696d657374616d702025732c2072656c656173652054696d65202573746f6b656e206c6f636b2074696d652061646472657373202573206861732062616c616e6365202573a26469706673582212201cfebc273e698358181f1f27dcce2ff7d7ec49d8fc73a2685a604c2f7c7159ff64736f6c634300080c0033",
  "linkReferences": {},
  "deployedLinkReferences": {}
}