{
  "_format": "hh-sol-artifact-1",
  "contractName": "RoveMarketPlaceERC721",
  "sourceName": "contracts/goods/RoveMarketPlaceERC721.sol",
  "abi": [
    {
      "inputs": [
        {
          "internalType": "address",
          "name": "operator_",
          "type": "address"
        },
        {
          "internalType": "address",
          "name": "parameterControl_",
          "type": "address"
        }
      ],
      "stateMutability": "nonpayable",
      "type": "constructor"
    },
    {
      "anonymous": false,
      "inputs": [
        {
          "indexed": false,
          "internalType": "address",
          "name": "owner",
          "type": "address"
        },
        {
          "indexed": false,
          "internalType": "address",
          "name": "operator",
          "type": "address"
        },
        {
          "indexed": false,
          "internalType": "bool",
          "name": "approved",
          "type": "bool"
        }
      ],
      "name": "ApprovalForAll",
      "type": "event"
    },
    {
      "anonymous": false,
      "inputs": [
        {
          "indexed": true,
          "internalType": "address",
          "name": "beneficiary",
          "type": "address"
        },
        {
          "indexed": false,
          "internalType": "uint256",
          "name": "amount",
          "type": "uint256"
        }
      ],
      "name": "BalanceWithdrawn",
      "type": "event"
    },
    {
      "anonymous": false,
      "inputs": [
        {
          "indexed": true,
          "internalType": "bytes32",
          "name": "offeringId",
          "type": "bytes32"
        },
        {
          "indexed": true,
          "internalType": "address",
          "name": "buyer",
          "type": "address"
        }
      ],
      "name": "OfferingClosed",
      "type": "event"
    },
    {
      "anonymous": false,
      "inputs": [
        {
          "indexed": true,
          "internalType": "bytes32",
          "name": "offeringId",
          "type": "bytes32"
        },
        {
          "indexed": true,
          "internalType": "address",
          "name": "hostContract",
          "type": "address"
        },
        {
          "indexed": true,
          "internalType": "address",
          "name": "offerer",
          "type": "address"
        },
        {
          "indexed": false,
          "internalType": "uint256",
          "name": "tokenId",
          "type": "uint256"
        },
        {
          "indexed": false,
          "internalType": "uint256",
          "name": "price",
          "type": "uint256"
        },
        {
          "indexed": false,
          "internalType": "string",
          "name": "uri",
          "type": "string"
        }
      ],
      "name": "OfferingPlaced",
      "type": "event"
    },
    {
      "anonymous": false,
      "inputs": [
        {
          "indexed": false,
          "internalType": "address",
          "name": "previousOperator",
          "type": "address"
        },
        {
          "indexed": false,
          "internalType": "address",
          "name": "newOperator",
          "type": "address"
        }
      ],
      "name": "OperatorChanged",
      "type": "event"
    },
    {
      "anonymous": false,
      "inputs": [
        {
          "indexed": false,
          "internalType": "address",
          "name": "previousOperator",
          "type": "address"
        },
        {
          "indexed": false,
          "internalType": "address",
          "name": "newOperator",
          "type": "address"
        }
      ],
      "name": "ParameterControlChanged",
      "type": "event"
    },
    {
      "anonymous": false,
      "inputs": [
        {
          "indexed": true,
          "internalType": "bytes32",
          "name": "role",
          "type": "bytes32"
        },
        {
          "indexed": true,
          "internalType": "bytes32",
          "name": "previousAdminRole",
          "type": "bytes32"
        },
        {
          "indexed": true,
          "internalType": "bytes32",
          "name": "newAdminRole",
          "type": "bytes32"
        }
      ],
      "name": "RoleAdminChanged",
      "type": "event"
    },
    {
      "anonymous": false,
      "inputs": [
        {
          "indexed": true,
          "internalType": "bytes32",
          "name": "role",
          "type": "bytes32"
        },
        {
          "indexed": true,
          "internalType": "address",
          "name": "account",
          "type": "address"
        },
        {
          "indexed": true,
          "internalType": "address",
          "name": "sender",
          "type": "address"
        }
      ],
      "name": "RoleGranted",
      "type": "event"
    },
    {
      "anonymous": false,
      "inputs": [
        {
          "indexed": true,
          "internalType": "bytes32",
          "name": "role",
          "type": "bytes32"
        },
        {
          "indexed": true,
          "internalType": "address",
          "name": "account",
          "type": "address"
        },
        {
          "indexed": true,
          "internalType": "address",
          "name": "sender",
          "type": "address"
        }
      ],
      "name": "RoleRevoked",
      "type": "event"
    },
    {
      "inputs": [],
      "name": "DEFAULT_ADMIN_ROLE",
      "outputs": [
        {
          "internalType": "bytes32",
          "name": "",
          "type": "bytes32"
        }
      ],
      "stateMutability": "view",
      "type": "function"
    },
    {
      "inputs": [],
      "name": "arrayOffering",
      "outputs": [
        {
          "internalType": "bytes32[]",
          "name": "",
          "type": "bytes32[]"
        }
      ],
      "stateMutability": "view",
      "type": "function"
    },
    {
      "inputs": [
        {
          "internalType": "address",
          "name": "_newOperator",
          "type": "address"
        }
      ],
      "name": "changeOperator",
      "outputs": [],
      "stateMutability": "nonpayable",
      "type": "function"
    },
    {
      "inputs": [
        {
          "internalType": "address",
          "name": "_new",
          "type": "address"
        }
      ],
      "name": "changeParameterControl",
      "outputs": [],
      "stateMutability": "nonpayable",
      "type": "function"
    },
    {
      "inputs": [
        {
          "internalType": "bytes32",
          "name": "_offeringId",
          "type": "bytes32"
        }
      ],
      "name": "closeOffering",
      "outputs": [],
      "stateMutability": "payable",
      "type": "function"
    },
    {
      "inputs": [
        {
          "internalType": "bytes32",
          "name": "role",
          "type": "bytes32"
        }
      ],
      "name": "getRoleAdmin",
      "outputs": [
        {
          "internalType": "bytes32",
          "name": "",
          "type": "bytes32"
        }
      ],
      "stateMutability": "view",
      "type": "function"
    },
    {
      "inputs": [
        {
          "internalType": "bytes32",
          "name": "role",
          "type": "bytes32"
        },
        {
          "internalType": "address",
          "name": "account",
          "type": "address"
        }
      ],
      "name": "grantRole",
      "outputs": [],
      "stateMutability": "nonpayable",
      "type": "function"
    },
    {
      "inputs": [
        {
          "internalType": "bytes32",
          "name": "role",
          "type": "bytes32"
        },
        {
          "internalType": "address",
          "name": "account",
          "type": "address"
        }
      ],
      "name": "hasRole",
      "outputs": [
        {
          "internalType": "bool",
          "name": "",
          "type": "bool"
        }
      ],
      "stateMutability": "view",
      "type": "function"
    },
    {
      "inputs": [],
      "name": "operator",
      "outputs": [
        {
          "internalType": "address",
          "name": "",
          "type": "address"
        }
      ],
      "stateMutability": "view",
      "type": "function"
    },
    {
      "inputs": [
        {
          "internalType": "bytes32",
          "name": "_offeringId",
          "type": "bytes32"
        }
      ],
      "name": "operatorCloseOffering",
      "outputs": [],
      "stateMutability": "nonpayable",
      "type": "function"
    },
    {
      "inputs": [],
      "name": "parameterControl",
      "outputs": [
        {
          "internalType": "address",
          "name": "",
          "type": "address"
        }
      ],
      "stateMutability": "view",
      "type": "function"
    },
    {
      "inputs": [
        {
          "internalType": "address",
          "name": "_hostContract",
          "type": "address"
        },
        {
          "internalType": "uint256",
          "name": "_tokenId",
          "type": "uint256"
        },
        {
          "internalType": "address",
          "name": "_erc20Token",
          "type": "address"
        },
        {
          "internalType": "uint256",
          "name": "_price",
          "type": "uint256"
        }
      ],
      "name": "placeOffering",
      "outputs": [],
      "stateMutability": "nonpayable",
      "type": "function"
    },
    {
      "inputs": [
        {
          "internalType": "bytes32",
          "name": "role",
          "type": "bytes32"
        },
        {
          "internalType": "address",
          "name": "account",
          "type": "address"
        }
      ],
      "name": "renounceRole",
      "outputs": [],
      "stateMutability": "nonpayable",
      "type": "function"
    },
    {
      "inputs": [
        {
          "internalType": "bytes32",
          "name": "role",
          "type": "bytes32"
        },
        {
          "internalType": "address",
          "name": "account",
          "type": "address"
        }
      ],
      "name": "revokeRole",
      "outputs": [],
      "stateMutability": "nonpayable",
      "type": "function"
    },
    {
      "inputs": [
        {
          "internalType": "bytes4",
          "name": "interfaceId",
          "type": "bytes4"
        }
      ],
      "name": "supportsInterface",
      "outputs": [
        {
          "internalType": "bool",
          "name": "",
          "type": "bool"
        }
      ],
      "stateMutability": "view",
      "type": "function"
    },
    {
      "inputs": [
        {
          "internalType": "address",
          "name": "_address",
          "type": "address"
        },
        {
          "internalType": "address",
          "name": "_erc_20_token",
          "type": "address"
        }
      ],
      "name": "viewBalances",
      "outputs": [
        {
          "internalType": "uint256",
          "name": "",
          "type": "uint256"
        }
      ],
      "stateMutability": "view",
      "type": "function"
    },
    {
      "inputs": [
        {
          "internalType": "bytes32",
          "name": "_offeringId",
          "type": "bytes32"
        }
      ],
      "name": "viewOfferingNFT",
      "outputs": [
        {
          "internalType": "address",
          "name": "",
          "type": "address"
        },
        {
          "internalType": "uint256",
          "name": "",
          "type": "uint256"
        },
        {
          "internalType": "uint256",
          "name": "",
          "type": "uint256"
        },
        {
          "internalType": "bool",
          "name": "",
          "type": "bool"
        }
      ],
      "stateMutability": "view",
      "type": "function"
    },
    {
      "inputs": [
        {
          "internalType": "address",
          "name": "_erc20Token",
          "type": "address"
        }
      ],
      "name": "withdrawBalance",
      "outputs": [],
      "stateMutability": "nonpayable",
      "type": "function"
    }
  ],
  "bytecode": "0x60806040523480156200001157600080fd5b506040516200248b3803806200248b8339810160408190526200003491620001e5565b60016000908155600380546001600160a01b0319166001600160a01b038516908117909155620000659190620000ac565b6003546001600160a01b03163314620000855762000085600033620000bc565b600480546001600160a01b0319166001600160a01b0392909216919091179055506200021d565b620000b8828262000140565b5050565b60008281526001602090815260408083206001600160a01b038516845290915290205460ff1615620000b85760008281526001602090815260408083206001600160a01b0385168085529252808320805460ff1916905551339285917ff6391f5c32d9c69d2a47ea670b442974b53935d1edc7fd64eb21e047a839171b9190a45050565b60008281526001602090815260408083206001600160a01b038516845290915290205460ff16620000b85760008281526001602081815260408084206001600160a01b0386168086529252808420805460ff19169093179092559051339285917f2f8788117e7eff1d82e926ec794901d17c78024a50270940304540a733656f0d9190a45050565b80516001600160a01b0381168114620001e057600080fd5b919050565b60008060408385031215620001f957600080fd5b6200020483620001c8565b91506200021460208401620001c8565b90509250929050565b61225e806200022d6000396000f3fe6080604052600436106101095760003560e01c8063756af45f11610095578063c684c35e11610064578063c684c35e146102e6578063d37c9a3914610306578063d547741f14610326578063e2b4f2b714610346578063ec7bca541461038c57600080fd5b8063756af45f1461026f57806391d148541461028f578063a217fddf146102af578063bda06b37146102c457600080fd5b8063330ef231116100dc578063330ef231146101c457806336568abe146101d757806336748e0a146101f7578063570ca7351461022f57806363f008b01461024f57600080fd5b806301ffc9a71461010e57806306394c9b14610143578063248a9ca3146101655780632f2ff15d146101a4575b600080fd5b34801561011a57600080fd5b5061012e610129366004611d27565b61040b565b60405190151581526020015b60405180910390f35b34801561014f57600080fd5b5061016361015e366004611d69565b610442565b005b34801561017157600080fd5b50610196610180366004611d86565b6000908152600160208190526040909120015490565b60405190815260200161013a565b3480156101b057600080fd5b506101636101bf366004611d9f565b610568565b6101636101d2366004611d86565b610594565b3480156101e357600080fd5b506101636101f2366004611d9f565b610e83565b34801561020357600080fd5b50600454610217906001600160a01b031681565b6040516001600160a01b03909116815260200161013a565b34801561023b57600080fd5b50600354610217906001600160a01b031681565b34801561025b57600080fd5b5061016361026a366004611d69565b610f01565b34801561027b57600080fd5b5061016361028a366004611d69565b610ff4565b34801561029b57600080fd5b5061012e6102aa366004611d9f565b61134a565b3480156102bb57600080fd5b50610196600081565b3480156102d057600080fd5b506102d9611375565b60405161013a9190611dcf565b3480156102f257600080fd5b50610163610301366004611d86565b6113cd565b34801561031257600080fd5b50610163610321366004611e13565b6114ba565b34801561033257600080fd5b50610163610341366004611d9f565b611879565b34801561035257600080fd5b50610196610361366004611e5b565b6001600160a01b03918216600090815260056020908152604080832093909416825291909152205490565b34801561039857600080fd5b506103df6103a7366004611d86565b60009081526006602052604090206001810154600282015460038301546004909301546001600160a01b039092169390929160ff1690565b604080516001600160a01b0390951685526020850193909352918301521515606082015260800161013a565b60006001600160e01b03198216637965db0b60e01b148061043c57506301ffc9a760e01b6001600160e01b03198316145b92915050565b6003546001600160a01b031633146104755760405162461bcd60e51b815260040161046c90611e89565b60405180910390fd5b61048060003361134a565b61049c5760405162461bcd60e51b815260040161046c90611e89565b6001600160a01b0381166104e45760405162461bcd60e51b815260206004820152600f60248201526e105111149154d4d7d2539590531251608a1b604482015260640161046c565b600380546001600160a01b038381166001600160a01b0319831681179093551690610511906000906118a0565b61051c6000826118aa565b600354604080516001600160a01b03808516825290921660208301527fd58299b712891143e76310d5e664c4203c940a67db37cf856bdaa3c5c76a802c91015b60405180910390a15050565b600082815260016020819052604090912001546105858133611911565b61058f8383611975565b505050565b600260005414156105b75760405162461bcd60e51b815260040161046c90611eb0565b60026000818155828152600660209081526040808320815160c0808201845282546001600160a01b039081168084526001850154821684880181905298850154848701819052600386015460608087019190915260049096015460ff8116151560808088019190915261010090910490931660a0808701829052885195860189528a86529885018a90529684018990529483018890529082018790529481019590955294938493919215159060008215610791575060a08701516040805160c081018252338082526060808c0180516020850152518385015292516370a0823160e01b8152600481019190915290918201906001600160a01b038416906370a0823190602401602060405180830381865afa1580156106da573d6000803e3d6000fd5b505050506040513d601f19601f820116820180604052508101906106fe9190611ee7565b8152604051636eb1769f60e11b81523360048201523060248201526020909101906001600160a01b0384169063dd62ed3e90604401602060405180830381865afa158015610750573d6000803e3d6000fd5b505050506040513d601f19601f820116820180604052508101906107749190611ee7565b81526020018960a001516001600160a01b031681525091506107de565b6040518060c00160405280336001600160a01b031681526020018960600151815260200189606001518152602001600081526020016000815260200160006001600160a01b031681525091505b6040516331a9108f60e11b8152600481018690526001600160a01b038086169190881690636352211e90602401602060405180830381865afa158015610828573d6000803e3d6000fd5b505050506040513d601f19601f8201168201806040525081019061084c9190611f00565b6001600160a01b0316146108995760405162461bcd60e51b815260206004820152601460248201527324a72b20a624a22fa2a9219b9918afa7aba722a960611b604482015260640161046c565b8215610943578160200151826080015110156108ed5760405162461bcd60e51b8152602060048201526013602482015272115490cb4c8c17d393d517d054141493d59151606a1b604482015260640161046c565b81602001518260600151101561093e5760405162461bcd60e51b8152602060048201526016602482015275115490cb4c8c17d09053105390d157d253959053125160521b604482015260640161046c565b610987565b81602001513410156109875760405162461bcd60e51b815260206004820152600d60248201526c159053155157d2539590531251609a1b604482015260640161046c565b60008981526006602052604090206004015460ff16156109db5760405162461bcd60e51b815260206004820152600f60248201526e13d1919154925391d7d0d313d4d151608a1b604482015260640161046c565b8151604051632142170760e11b81526001600160a01b038681166004830152918216602482015260448101879052908716906342842e0e90606401600060405180830381600087803b158015610a3057600080fd5b505af1158015610a44573d6000803e3d6000fd5b5050600480546040805160a0810182526000808252602082018190528183018190526060820181905260808201529051636d12dce160e01b81526001600160a01b03909216945092508391636d12dce191610ac291016020808252600e908201526d13505492d15517d091539151925560921b604082015260600190565b602060405180830381865afa158015610adf573d6000803e3d6000fd5b505050506040513d601f19601f82011682018060405250810190610b039190611ee7565b6040820181905215610d295761271081604001518560400151610b269190611f33565b610b309190611f52565b60608201528415610cc65760405163349f642f60e11b815260206004820152600a6024820152692927ab22afaa27a5a2a760b11b60448201526000906001600160a01b0384169063693ec85e90606401600060405180830381865afa158015610b9d573d6000803e3d6000fd5b505050506040513d6000823e601f3d908101601f19168201604052610bc59190810190611fba565b90508051600014610cc457610bf1610beb8c60a001516001600160a01b031660146119e0565b82611b83565b15610cc457604051636d12dce160e01b81526020600482015260136024820152722224a9a1a7aaa72a2fa927ab22afaa27a5a2a760691b60448201526001600160a01b03841690636d12dce190606401602060405180830381865afa158015610c5e573d6000803e3d6000fd5b505050506040513d601f19601f82011682018060405250810190610c829190611ee7565b6080830181905215610cc45761271082608001518360600151610ca59190611f33565b610caf9190611f52565b8260600151610cbe9190612067565b60608301525b505b806060015184602001818151610cdc9190612067565b90525060608101516003546001600160a01b03908116600090815260056020908152604080832060a08a015190941683529290529081208054909190610d2390849061207e565b90915550505b8415610dd957835160408086015190516323b872dd60e01b81526001600160a01b03928316600482015230602482015260448101919091526000918516906323b872dd906064016020604051808303816000875af1158015610d8f573d6000803e3d6000fd5b505050506040513d601f19601f82011682018060405250810190610db39190612096565b9050600181151514610dd75760405162461bcd60e51b815260040161046c906120b8565b505b6020808501516001600160a01b03808916600090815260058452604080822060a08a01519093168252919093528220805491929091610e1990849061207e565b909155505060008b815260066020526040808220600401805460ff19166001179055855190516001600160a01b03909116918d917f0cfb1c3841b1ebe2ad43e9d641c358c0d40c4a10fc3c2ee73fd956a2658ed1449190a350506001600055505050505050505050565b6001600160a01b0381163314610ef35760405162461bcd60e51b815260206004820152602f60248201527f416363657373436f6e74726f6c3a2063616e206f6e6c792072656e6f756e636560448201526e103937b632b9903337b91039b2b63360891b606482015260840161046c565b610efd82826118aa565b5050565b6003546001600160a01b03163314610f2b5760405162461bcd60e51b815260040161046c90611e89565b610f3660003361134a565b610f525760405162461bcd60e51b815260040161046c90611e89565b6001600160a01b038116610f9a5760405162461bcd60e51b815260206004820152600f60248201526e105111149154d4d7d2539590531251608a1b604482015260640161046c565b600480546001600160a01b038381166001600160a01b031983168117909355604080519190921680825260208201939093527fff8b036e9641959ee1d5b4efb05f8fa0e816d57e2879aa0758b191993511f7dd910161055c565b600260005414156110175760405162461bcd60e51b815260040161046c90611eb0565b60026000908155338082526005602090815260408084206001600160a01b038616855290915290912054806110855760405162461bcd60e51b815260206004820152601460248201527357495448445241575f554e415641494c41424c4560601b604482015260640161046c565b6001600160a01b0383161561122b576040516370a0823160e01b815230600482015283906000906001600160a01b038316906370a0823190602401602060405180830381865afa1580156110dd573d6000803e3d6000fd5b505050506040513d601f19601f820116820180604052508101906111019190611ee7565b6001600160a01b038086166000908152600560209081526040808320938a16835292905220549091508110156111685760405162461bcd60e51b815260206004820152600c60248201526b1253959053125117d195539160a21b604482015260640161046c565b6001600160a01b0384811660008181526005602090815260408083208a8616845290915280822054905163a9059cbb60e01b81526004810193909352602483018190529290919085169063a9059cbb906044016020604051808303816000875af11580156111da573d6000803e3d6000fd5b505050506040513d601f19601f820116820180604052508101906111fe9190612096565b90506001811515146112225760405162461bcd60e51b815260040161046c906120b8565b505050506112df565b6000471161126a5760405162461bcd60e51b815260206004820152600c60248201526b1253959053125117d195539160a21b604482015260640161046c565b6000826001600160a01b03168260405160006040518083038185875af1925050503d80600081146112b7576040519150601f19603f3d011682016040523d82523d6000602084013e6112bc565b606091505b50509050806112dd5760405162461bcd60e51b815260040161046c906120b8565b505b6001600160a01b03808316600081815260056020908152604080832094881683529390528281205590517fddc398b321237a8d40ac914388309c2f52a08c134e4dc4ce61e32f57cb7d80f1906113389084815260200190565b60405180910390a25050600160005550565b60009182526001602090815260408084206001600160a01b0393909316845291905290205460ff1690565b606060078054806020026020016040519081016040528092919081815260200182805480156113c357602002820191906000526020600020905b8154815260200190600101908083116113af575b5050505050905090565b6003546001600160a01b031633146113f75760405162461bcd60e51b815260040161046c90611e89565b61140260003361134a565b61141e5760405162461bcd60e51b815260040161046c90611e89565b60008181526006602052604090206004015460ff16156114725760405162461bcd60e51b815260206004820152600f60248201526e13d1919154925391d7d0d313d4d151608a1b604482015260640161046c565b600081815260066020526040808220600401805460ff191660011790555182907f0cfb1c3841b1ebe2ad43e9d641c358c0d40c4a10fc3c2ee73fd956a2658ed144908390a350565b600260005414156114dd5760405162461bcd60e51b815260040161046c90611eb0565b60026000556040516331a9108f60e11b8152600481018490523390859082906001600160a01b03831690636352211e90602401602060405180830381865afa15801561152d573d6000803e3d6000fd5b505050506040513d601f19601f820116820180604052508101906115519190611f00565b6001600160a01b03161461159e5760405162461bcd60e51b815260206004820152601460248201527324a72b20a624a22fa2a9219b9918afa7aba722a960611b604482015260640161046c565b60405163e985e9c560e01b81526001600160a01b0383811660048301523060248301526000919083169063e985e9c590604401602060405180830381865afa1580156115ee573d6000803e3d6000fd5b505050506040513d601f19601f820116820180604052508101906116129190612096565b905060018115151461165d5760405162461bcd60e51b8152602060048201526014602482015273115490cb4dcc8c57d393d517d054141493d5915160621b604482015260640161046c565b61166b600280546001019055565b600061167660025490565b905060008189896040516020016116b29392919092835260609190911b6bffffffffffffffffffffffff19166020830152603482015260540190565b60408051601f19818403018152918152815160209283012060008181526006909352912080546001600160a01b038089166001600160a01b03199283161783556001830180548e8316931692909217909155600282018b905560039091018890559091508716156117515760008181526006602052604090206004018054610100600160a81b0319166101006001600160a01b038a1602179055611772565b60008181526006602052604090206004018054610100600160a81b03191690555b60405163c87b56dd60e01b8152600481018990526000906001600160a01b0386169063c87b56dd90602401600060405180830381865afa1580156117ba573d6000803e3d6000fd5b505050506040513d6000823e601f3d908101601f191682016040526117e29190810190611fba565b600780546001810182556000919091527fa66cc928b5edb82af9bd49922954155ab7b0942694bea4ce44661d9a8736c688018390556040519091506001600160a01b0380881691908c169084907fedb9bcc509764747e9a869005eece6e1a1bf4936195e4454f5f0de1f64a1b95990611860908e908d90889061210b565b60405180910390a4505060016000555050505050505050565b600082815260016020819052604090912001546118968133611911565b61058f83836118aa565b610efd8282611975565b6118b4828261134a565b15610efd5760008281526001602090815260408083206001600160a01b0385168085529252808320805460ff1916905551339285917ff6391f5c32d9c69d2a47ea670b442974b53935d1edc7fd64eb21e047a839171b9190a45050565b61191b828261134a565b610efd57611933816001600160a01b031660146119e0565b61193e8360206119e0565b60405160200161194f929190612133565b60408051601f198184030181529082905262461bcd60e51b825261046c916004016121a8565b61197f828261134a565b610efd5760008281526001602081815260408084206001600160a01b0386168086529252808420805460ff19169093179092559051339285917f2f8788117e7eff1d82e926ec794901d17c78024a50270940304540a733656f0d9190a45050565b606060006119ef836002611f33565b6119fa90600261207e565b67ffffffffffffffff811115611a1257611a12611f74565b6040519080825280601f01601f191660200182016040528015611a3c576020820181803683370190505b509050600360fc1b81600081518110611a5757611a576121bb565b60200101906001600160f81b031916908160001a905350600f60fb1b81600181518110611a8657611a866121bb565b60200101906001600160f81b031916908160001a9053506000611aaa846002611f33565b611ab590600161207e565b90505b6001811115611b2d576f181899199a1a9b1b9c1cb0b131b232b360811b85600f1660108110611ae957611ae96121bb565b1a60f81b828281518110611aff57611aff6121bb565b60200101906001600160f81b031916908160001a90535060049490941c93611b26816121d1565b9050611ab8565b508315611b7c5760405162461bcd60e51b815260206004820181905260248201527f537472696e67733a20686578206c656e67746820696e73756666696369656e74604482015260640161046c565b9392505050565b6000611b8e83611bc4565b9250611b9982611bc4565b91508151835114611bac5750600061043c565b8180519060200120838051906020012014905061043c565b606060008290506000815167ffffffffffffffff811115611be757611be7611f74565b6040519080825280601f01601f191660200182016040528015611c11576020820181803683370190505b50905060005b8251811015611d1f576041838281518110611c3457611c346121bb565b016020015160f81c10801590611c645750605a838281518110611c5957611c596121bb565b016020015160f81c11155b15611cc657828181518110611c7b57611c7b6121bb565b602001015160f81c60f81b60f81c6020611c9591906121e8565b60f81b828281518110611caa57611caa6121bb565b60200101906001600160f81b031916908160001a905350611d0d565b828181518110611cd857611cd86121bb565b602001015160f81c60f81b828281518110611cf557611cf56121bb565b60200101906001600160f81b031916908160001a9053505b80611d178161220d565b915050611c17565b509392505050565b600060208284031215611d3957600080fd5b81356001600160e01b031981168114611b7c57600080fd5b6001600160a01b0381168114611d6657600080fd5b50565b600060208284031215611d7b57600080fd5b8135611b7c81611d51565b600060208284031215611d9857600080fd5b5035919050565b60008060408385031215611db257600080fd5b823591506020830135611dc481611d51565b809150509250929050565b6020808252825182820181905260009190848201906040850190845b81811015611e0757835183529284019291840191600101611deb565b50909695505050505050565b60008060008060808587031215611e2957600080fd5b8435611e3481611d51565b9350602085013592506040850135611e4b81611d51565b9396929550929360600135925050565b60008060408385031215611e6e57600080fd5b8235611e7981611d51565b91506020830135611dc481611d51565b6020808252600d908201526c4f50455241544f525f4f4e4c5960981b604082015260600190565b6020808252601f908201527f5265656e7472616e637947756172643a207265656e7472616e742063616c6c00604082015260600190565b600060208284031215611ef957600080fd5b5051919050565b600060208284031215611f1257600080fd5b8151611b7c81611d51565b634e487b7160e01b600052601160045260246000fd5b6000816000190483118215151615611f4d57611f4d611f1d565b500290565b600082611f6f57634e487b7160e01b600052601260045260246000fd5b500490565b634e487b7160e01b600052604160045260246000fd5b60005b83811015611fa5578181015183820152602001611f8d565b83811115611fb4576000848401525b50505050565b600060208284031215611fcc57600080fd5b815167ffffffffffffffff80821115611fe457600080fd5b818401915084601f830112611ff857600080fd5b81518181111561200a5761200a611f74565b604051601f8201601f19908116603f0116810190838211818310171561203257612032611f74565b8160405282815287602084870101111561204b57600080fd5b61205c836020830160208801611f8a565b979650505050505050565b60008282101561207957612079611f1d565b500390565b6000821982111561209157612091611f1d565b500190565b6000602082840312156120a857600080fd5b81518015158114611b7c57600080fd5b6020808252600d908201526c1514905394d1915497d1905253609a1b604082015260600190565b600081518084526120f7816020860160208601611f8a565b601f01601f19169290920160200192915050565b83815282602082015260606040820152600061212a60608301846120df565b95945050505050565b7f416363657373436f6e74726f6c3a206163636f756e742000000000000000000081526000835161216b816017850160208801611f8a565b7001034b99036b4b9b9b4b733903937b6329607d1b601791840191820152835161219c816028840160208801611f8a565b01602801949350505050565b602081526000611b7c60208301846120df565b634e487b7160e01b600052603260045260246000fd5b6000816121e0576121e0611f1d565b506000190190565b600060ff821660ff84168060ff0382111561220557612205611f1d565b019392505050565b600060001982141561222157612221611f1d565b506001019056fea26469706673582212208f268e8efea800df926fd3ce878d862f34b9b09133ed9274e0d8766ed34a200a64736f6c634300080c0033",
  "linkReferences": {},
  "deployedLinkReferences": {}
}