{
  "_format": "hh-sol-artifact-1",
  "contractName": "RoveMarketPlaceERC721",
  "sourceName": "contracts/goods/RoveMarketPlaceERC721.sol",
  "abi": [
    {
      "inputs": [
        {
          "internalType": "address",
          "name": "operator_",
          "type": "address"
        },
        {
          "internalType": "address",
          "name": "parameterControl_",
          "type": "address"
        }
      ],
      "stateMutability": "nonpayable",
      "type": "constructor"
    },
    {
      "anonymous": false,
      "inputs": [
        {
          "indexed": false,
          "internalType": "address",
          "name": "owner",
          "type": "address"
        },
        {
          "indexed": false,
          "internalType": "address",
          "name": "operator",
          "type": "address"
        },
        {
          "indexed": false,
          "internalType": "bool",
          "name": "approved",
          "type": "bool"
        }
      ],
      "name": "ApprovalForAll",
      "type": "event"
    },
    {
      "anonymous": false,
      "inputs": [
        {
          "indexed": true,
          "internalType": "address",
          "name": "beneficiary",
          "type": "address"
        },
        {
          "indexed": false,
          "internalType": "uint256",
          "name": "amount",
          "type": "uint256"
        }
      ],
      "name": "BalanceWithdrawn",
      "type": "event"
    },
    {
      "anonymous": false,
      "inputs": [
        {
          "indexed": true,
          "internalType": "bytes32",
          "name": "offeringId",
          "type": "bytes32"
        },
        {
          "indexed": true,
          "internalType": "address",
          "name": "buyer",
          "type": "address"
        }
      ],
      "name": "OfferingClosed",
      "type": "event"
    },
    {
      "anonymous": false,
      "inputs": [
        {
          "indexed": true,
          "internalType": "bytes32",
          "name": "offeringId",
          "type": "bytes32"
        },
        {
          "indexed": true,
          "internalType": "address",
          "name": "hostContract",
          "type": "address"
        },
        {
          "indexed": true,
          "internalType": "address",
          "name": "offerer",
          "type": "address"
        },
        {
          "indexed": false,
          "internalType": "uint256",
          "name": "tokenId",
          "type": "uint256"
        },
        {
          "indexed": false,
          "internalType": "uint256",
          "name": "price",
          "type": "uint256"
        },
        {
          "indexed": false,
          "internalType": "string",
          "name": "uri",
          "type": "string"
        }
      ],
      "name": "OfferingPlaced",
      "type": "event"
    },
    {
      "anonymous": false,
      "inputs": [
        {
          "indexed": false,
          "internalType": "address",
          "name": "previousOperator",
          "type": "address"
        },
        {
          "indexed": false,
          "internalType": "address",
          "name": "newOperator",
          "type": "address"
        }
      ],
      "name": "OperatorChanged",
      "type": "event"
    },
    {
      "anonymous": false,
      "inputs": [
        {
          "indexed": false,
          "internalType": "address",
          "name": "previousOperator",
          "type": "address"
        },
        {
          "indexed": false,
          "internalType": "address",
          "name": "newOperator",
          "type": "address"
        }
      ],
      "name": "ParameterControlChanged",
      "type": "event"
    },
    {
      "anonymous": false,
      "inputs": [
        {
          "indexed": true,
          "internalType": "bytes32",
          "name": "role",
          "type": "bytes32"
        },
        {
          "indexed": true,
          "internalType": "bytes32",
          "name": "previousAdminRole",
          "type": "bytes32"
        },
        {
          "indexed": true,
          "internalType": "bytes32",
          "name": "newAdminRole",
          "type": "bytes32"
        }
      ],
      "name": "RoleAdminChanged",
      "type": "event"
    },
    {
      "anonymous": false,
      "inputs": [
        {
          "indexed": true,
          "internalType": "bytes32",
          "name": "role",
          "type": "bytes32"
        },
        {
          "indexed": true,
          "internalType": "address",
          "name": "account",
          "type": "address"
        },
        {
          "indexed": true,
          "internalType": "address",
          "name": "sender",
          "type": "address"
        }
      ],
      "name": "RoleGranted",
      "type": "event"
    },
    {
      "anonymous": false,
      "inputs": [
        {
          "indexed": true,
          "internalType": "bytes32",
          "name": "role",
          "type": "bytes32"
        },
        {
          "indexed": true,
          "internalType": "address",
          "name": "account",
          "type": "address"
        },
        {
          "indexed": true,
          "internalType": "address",
          "name": "sender",
          "type": "address"
        }
      ],
      "name": "RoleRevoked",
      "type": "event"
    },
    {
      "inputs": [],
      "name": "DEFAULT_ADMIN_ROLE",
      "outputs": [
        {
          "internalType": "bytes32",
          "name": "",
          "type": "bytes32"
        }
      ],
      "stateMutability": "view",
      "type": "function"
    },
    {
      "inputs": [],
      "name": "arrayOffering",
      "outputs": [
        {
          "internalType": "bytes32[]",
          "name": "",
          "type": "bytes32[]"
        }
      ],
      "stateMutability": "view",
      "type": "function"
    },
    {
      "inputs": [
        {
          "internalType": "address",
          "name": "_newOperator",
          "type": "address"
        }
      ],
      "name": "changeOperator",
      "outputs": [],
      "stateMutability": "nonpayable",
      "type": "function"
    },
    {
      "inputs": [
        {
          "internalType": "address",
          "name": "_new",
          "type": "address"
        }
      ],
      "name": "changeParameterControl",
      "outputs": [],
      "stateMutability": "nonpayable",
      "type": "function"
    },
    {
      "inputs": [
        {
          "internalType": "bytes32",
          "name": "_offeringId",
          "type": "bytes32"
        }
      ],
      "name": "closeOffering",
      "outputs": [],
      "stateMutability": "payable",
      "type": "function"
    },
    {
      "inputs": [
        {
          "internalType": "bytes32",
          "name": "role",
          "type": "bytes32"
        }
      ],
      "name": "getRoleAdmin",
      "outputs": [
        {
          "internalType": "bytes32",
          "name": "",
          "type": "bytes32"
        }
      ],
      "stateMutability": "view",
      "type": "function"
    },
    {
      "inputs": [
        {
          "internalType": "bytes32",
          "name": "role",
          "type": "bytes32"
        },
        {
          "internalType": "address",
          "name": "account",
          "type": "address"
        }
      ],
      "name": "grantRole",
      "outputs": [],
      "stateMutability": "nonpayable",
      "type": "function"
    },
    {
      "inputs": [
        {
          "internalType": "bytes32",
          "name": "role",
          "type": "bytes32"
        },
        {
          "internalType": "address",
          "name": "account",
          "type": "address"
        }
      ],
      "name": "hasRole",
      "outputs": [
        {
          "internalType": "bool",
          "name": "",
          "type": "bool"
        }
      ],
      "stateMutability": "view",
      "type": "function"
    },
    {
      "inputs": [],
      "name": "operator",
      "outputs": [
        {
          "internalType": "address",
          "name": "",
          "type": "address"
        }
      ],
      "stateMutability": "view",
      "type": "function"
    },
    {
      "inputs": [
        {
          "internalType": "bytes32",
          "name": "_offeringId",
          "type": "bytes32"
        }
      ],
      "name": "operatorCloseOffering",
      "outputs": [],
      "stateMutability": "nonpayable",
      "type": "function"
    },
    {
      "inputs": [],
      "name": "parameterControl",
      "outputs": [
        {
          "internalType": "address",
          "name": "",
          "type": "address"
        }
      ],
      "stateMutability": "view",
      "type": "function"
    },
    {
      "inputs": [
        {
          "internalType": "address",
          "name": "_hostContract",
          "type": "address"
        },
        {
          "internalType": "uint256",
          "name": "_tokenId",
          "type": "uint256"
        },
        {
          "internalType": "address",
          "name": "_erc20Token",
          "type": "address"
        },
        {
          "internalType": "uint256",
          "name": "_price",
          "type": "uint256"
        }
      ],
      "name": "placeOffering",
      "outputs": [],
      "stateMutability": "nonpayable",
      "type": "function"
    },
    {
      "inputs": [
        {
          "internalType": "bytes32",
          "name": "role",
          "type": "bytes32"
        },
        {
          "internalType": "address",
          "name": "account",
          "type": "address"
        }
      ],
      "name": "renounceRole",
      "outputs": [],
      "stateMutability": "nonpayable",
      "type": "function"
    },
    {
      "inputs": [
        {
          "internalType": "bytes32",
          "name": "role",
          "type": "bytes32"
        },
        {
          "internalType": "address",
          "name": "account",
          "type": "address"
        }
      ],
      "name": "revokeRole",
      "outputs": [],
      "stateMutability": "nonpayable",
      "type": "function"
    },
    {
      "inputs": [
        {
          "internalType": "bytes4",
          "name": "interfaceId",
          "type": "bytes4"
        }
      ],
      "name": "supportsInterface",
      "outputs": [
        {
          "internalType": "bool",
          "name": "",
          "type": "bool"
        }
      ],
      "stateMutability": "view",
      "type": "function"
    },
    {
      "inputs": [
        {
          "internalType": "address",
          "name": "_address",
          "type": "address"
        },
        {
          "internalType": "address",
          "name": "_erc_20_token",
          "type": "address"
        }
      ],
      "name": "viewBalances",
      "outputs": [
        {
          "internalType": "uint256",
          "name": "",
          "type": "uint256"
        }
      ],
      "stateMutability": "view",
      "type": "function"
    },
    {
      "inputs": [
        {
          "internalType": "bytes32",
          "name": "_offeringId",
          "type": "bytes32"
        }
      ],
      "name": "viewOfferingNFT",
      "outputs": [
        {
          "internalType": "address",
          "name": "",
          "type": "address"
        },
        {
          "internalType": "uint256",
          "name": "",
          "type": "uint256"
        },
        {
          "internalType": "uint256",
          "name": "",
          "type": "uint256"
        },
        {
          "internalType": "bool",
          "name": "",
          "type": "bool"
        }
      ],
      "stateMutability": "view",
      "type": "function"
    },
    {
      "inputs": [
        {
          "internalType": "address",
          "name": "_erc20Token",
          "type": "address"
        }
      ],
      "name": "withdrawBalance",
      "outputs": [],
      "stateMutability": "nonpayable",
      "type": "function"
    }
  ],
  "bytecode": "0x60806040523480156200001157600080fd5b5060405162002570380380620025708339810160408190526200003491620001e5565b60016000908155600380546001600160a01b0319166001600160a01b038516908117909155620000659190620000ac565b6003546001600160a01b03163314620000855762000085600033620000bc565b600480546001600160a01b0319166001600160a01b0392909216919091179055506200021d565b620000b8828262000140565b5050565b60008281526001602090815260408083206001600160a01b038516845290915290205460ff1615620000b85760008281526001602090815260408083206001600160a01b0385168085529252808320805460ff1916905551339285917ff6391f5c32d9c69d2a47ea670b442974b53935d1edc7fd64eb21e047a839171b9190a45050565b60008281526001602090815260408083206001600160a01b038516845290915290205460ff16620000b85760008281526001602081815260408084206001600160a01b0386168086529252808420805460ff19169093179092559051339285917f2f8788117e7eff1d82e926ec794901d17c78024a50270940304540a733656f0d9190a45050565b80516001600160a01b0381168114620001e057600080fd5b919050565b60008060408385031215620001f957600080fd5b6200020483620001c8565b91506200021460208401620001c8565b90509250929050565b612343806200022d6000396000f3fe6080604052600436106101095760003560e01c8063756af45f11610095578063c684c35e11610064578063c684c35e146102e6578063d37c9a3914610306578063d547741f14610326578063e2b4f2b714610346578063ec7bca541461038c57600080fd5b8063756af45f1461026f57806391d148541461028f578063a217fddf146102af578063bda06b37146102c457600080fd5b8063330ef231116100dc578063330ef231146101c457806336568abe146101d757806336748e0a146101f7578063570ca7351461022f57806363f008b01461024f57600080fd5b806301ffc9a71461010e57806306394c9b14610143578063248a9ca3146101655780632f2ff15d146101a4575b600080fd5b34801561011a57600080fd5b5061012e610129366004611dd6565b61040b565b60405190151581526020015b60405180910390f35b34801561014f57600080fd5b5061016361015e366004611e18565b610442565b005b34801561017157600080fd5b50610196610180366004611e35565b6000908152600160208190526040909120015490565b60405190815260200161013a565b3480156101b057600080fd5b506101636101bf366004611e4e565b6105e7565b6101636101d2366004611e35565b610613565b3480156101e357600080fd5b506101636101f2366004611e4e565b610f02565b34801561020357600080fd5b50600454610217906001600160a01b031681565b6040516001600160a01b03909116815260200161013a565b34801561023b57600080fd5b50600354610217906001600160a01b031681565b34801561025b57600080fd5b5061016361026a366004611e18565b610f80565b34801561027b57600080fd5b5061016361028a366004611e18565b61108d565b34801561029b57600080fd5b5061012e6102aa366004611e4e565b6113e3565b3480156102bb57600080fd5b50610196600081565b3480156102d057600080fd5b506102d961140e565b60405161013a9190611e7e565b3480156102f257600080fd5b50610163610301366004611e35565b611466565b34801561031257600080fd5b50610163610321366004611ec2565b611569565b34801561033257600080fd5b50610163610341366004611e4e565b611928565b34801561035257600080fd5b50610196610361366004611f0a565b6001600160a01b03918216600090815260056020908152604080832093909416825291909152205490565b34801561039857600080fd5b506103df6103a7366004611e35565b60009081526006602052604090206001810154600282015460038301546004909301546001600160a01b039092169390929160ff1690565b604080516001600160a01b0390951685526020850193909352918301521515606082015260800161013a565b60006001600160e01b03198216637965db0b60e01b148061043c57506301ffc9a760e01b6001600160e01b03198316145b92915050565b6003546001600160a01b031633146104bb5760405162461bcd60e51b815260206004820152603160248201527f6f6e6c7920746865206f70657261746f722063616e206368616e6765207468656044820152701031bab93932b73a1037b832b930ba37b960791b60648201526084015b60405180910390fd5b6104c66000336113e3565b61050d5760405162461bcd60e51b815260206004820152601860248201527721b0b63632b91034b9903737ba10309037b832b930ba37b960411b60448201526064016104b2565b6001600160a01b0381166105635760405162461bcd60e51b815260206004820152601c60248201527f6e6577206f70657261746f72206973207a65726f20616464726573730000000060448201526064016104b2565b600380546001600160a01b038381166001600160a01b03198316811790935516906105909060009061194f565b61059b600082611959565b600354604080516001600160a01b03808516825290921660208301527fd58299b712891143e76310d5e664c4203c940a67db37cf856bdaa3c5c76a802c91015b60405180910390a15050565b6000828152600160208190526040909120015461060481336119c0565b61060e8383611a24565b505050565b600260005414156106365760405162461bcd60e51b81526004016104b290611f38565b60026000818155828152600660209081526040808320815160c0808201845282546001600160a01b039081168084526001850154821684880181905298850154848701819052600386015460608087019190915260049096015460ff8116151560808088019190915261010090910490931660a0808701829052885195860189528a86529885018a90529684018990529483018890529082018790529481019590955294938493919215159060008215610810575060a08701516040805160c081018252338082526060808c0180516020850152518385015292516370a0823160e01b8152600481019190915290918201906001600160a01b038416906370a0823190602401602060405180830381865afa158015610759573d6000803e3d6000fd5b505050506040513d601f19601f8201168201806040525081019061077d9190611f6f565b8152604051636eb1769f60e11b81523360048201523060248201526020909101906001600160a01b0384169063dd62ed3e90604401602060405180830381865afa1580156107cf573d6000803e3d6000fd5b505050506040513d601f19601f820116820180604052508101906107f39190611f6f565b81526020018960a001516001600160a01b0316815250915061085d565b6040518060c00160405280336001600160a01b031681526020018960600151815260200189606001518152602001600081526020016000815260200160006001600160a01b031681525091505b6040516331a9108f60e11b8152600481018690526001600160a01b038086169190881690636352211e90602401602060405180830381865afa1580156108a7573d6000803e3d6000fd5b505050506040513d601f19601f820116820180604052508101906108cb9190611f88565b6001600160a01b0316146109185760405162461bcd60e51b815260206004820152601460248201527324a72b20a624a22fa2a9219b9918afa7aba722a960611b60448201526064016104b2565b82156109c25781602001518260800151101561096c5760405162461bcd60e51b8152602060048201526013602482015272115490cb4c8c17d393d517d054141493d59151606a1b60448201526064016104b2565b8160200151826060015110156109bd5760405162461bcd60e51b8152602060048201526016602482015275115490cb4c8c17d09053105390d157d253959053125160521b60448201526064016104b2565b610a06565b8160200151341015610a065760405162461bcd60e51b815260206004820152600d60248201526c159053155157d2539590531251609a1b60448201526064016104b2565b60008981526006602052604090206004015460ff1615610a5a5760405162461bcd60e51b815260206004820152600f60248201526e13d1919154925391d7d0d313d4d151608a1b60448201526064016104b2565b8151604051632142170760e11b81526001600160a01b038681166004830152918216602482015260448101879052908716906342842e0e90606401600060405180830381600087803b158015610aaf57600080fd5b505af1158015610ac3573d6000803e3d6000fd5b5050600480546040805160a0810182526000808252602082018190528183018190526060820181905260808201529051636d12dce160e01b81526001600160a01b03909216945092508391636d12dce191610b4191016020808252600e908201526d13505492d15517d091539151925560921b604082015260600190565b602060405180830381865afa158015610b5e573d6000803e3d6000fd5b505050506040513d601f19601f82011682018060405250810190610b829190611f6f565b6040820181905215610da85761271081604001518560400151610ba59190611fbb565b610baf9190611fda565b60608201528415610d455760405163349f642f60e11b815260206004820152600a6024820152692927ab22afaa27a5a2a760b11b60448201526000906001600160a01b0384169063693ec85e90606401600060405180830381865afa158015610c1c573d6000803e3d6000fd5b505050506040513d6000823e601f3d908101601f19168201604052610c449190810190612042565b90508051600014610d4357610c70610c6a8c60a001516001600160a01b03166014611a8f565b82611c32565b15610d4357604051636d12dce160e01b81526020600482015260136024820152722224a9a1a7aaa72a2fa927ab22afaa27a5a2a760691b60448201526001600160a01b03841690636d12dce190606401602060405180830381865afa158015610cdd573d6000803e3d6000fd5b505050506040513d601f19601f82011682018060405250810190610d019190611f6f565b6080830181905215610d435761271082608001518360600151610d249190611fbb565b610d2e9190611fda565b8260600151610d3d91906120ef565b60608301525b505b806060015184602001818151610d5b91906120ef565b90525060608101516003546001600160a01b03908116600090815260056020908152604080832060a08a015190941683529290529081208054909190610da2908490612106565b90915550505b8415610e5857835160408086015190516323b872dd60e01b81526001600160a01b03928316600482015230602482015260448101919091526000918516906323b872dd906064016020604051808303816000875af1158015610e0e573d6000803e3d6000fd5b505050506040513d601f19601f82011682018060405250810190610e32919061211e565b9050600181151514610e565760405162461bcd60e51b81526004016104b290612140565b505b6020808501516001600160a01b03808916600090815260058452604080822060a08a01519093168252919093528220805491929091610e98908490612106565b909155505060008b815260066020526040808220600401805460ff19166001179055855190516001600160a01b03909116918d917f0cfb1c3841b1ebe2ad43e9d641c358c0d40c4a10fc3c2ee73fd956a2658ed1449190a350506001600055505050505050505050565b6001600160a01b0381163314610f725760405162461bcd60e51b815260206004820152602f60248201527f416363657373436f6e74726f6c3a2063616e206f6e6c792072656e6f756e636560448201526e103937b632b9903337b91039b2b63360891b60648201526084016104b2565b610f7c8282611959565b5050565b6003546001600160a01b03163314610faa5760405162461bcd60e51b81526004016104b290612167565b610fb56000336113e3565b610fd15760405162461bcd60e51b81526004016104b290612167565b6001600160a01b0381166110335760405162461bcd60e51b8152602060048201526024808201527f6e657720706172616d65746572636f6e74726f6c206973207a65726f206164646044820152637265737360e01b60648201526084016104b2565b600480546001600160a01b038381166001600160a01b031983168117909355604080519190921680825260208201939093527fff8b036e9641959ee1d5b4efb05f8fa0e816d57e2879aa0758b191993511f7dd91016105db565b600260005414156110b05760405162461bcd60e51b81526004016104b290611f38565b60026000908155338082526005602090815260408084206001600160a01b0386168552909152909120548061111e5760405162461bcd60e51b815260206004820152601460248201527357495448445241575f554e415641494c41424c4560601b60448201526064016104b2565b6001600160a01b038316156112c4576040516370a0823160e01b815230600482015283906000906001600160a01b038316906370a0823190602401602060405180830381865afa158015611176573d6000803e3d6000fd5b505050506040513d601f19601f8201168201806040525081019061119a9190611f6f565b6001600160a01b038086166000908152600560209081526040808320938a16835292905220549091508110156112015760405162461bcd60e51b815260206004820152600c60248201526b1253959053125117d195539160a21b60448201526064016104b2565b6001600160a01b0384811660008181526005602090815260408083208a8616845290915280822054905163a9059cbb60e01b81526004810193909352602483018190529290919085169063a9059cbb906044016020604051808303816000875af1158015611273573d6000803e3d6000fd5b505050506040513d601f19601f82011682018060405250810190611297919061211e565b90506001811515146112bb5760405162461bcd60e51b81526004016104b290612140565b50505050611378565b600047116113035760405162461bcd60e51b815260206004820152600c60248201526b1253959053125117d195539160a21b60448201526064016104b2565b6000826001600160a01b03168260405160006040518083038185875af1925050503d8060008114611350576040519150601f19603f3d011682016040523d82523d6000602084013e611355565b606091505b50509050806113765760405162461bcd60e51b81526004016104b290612140565b505b6001600160a01b03808316600081815260056020908152604080832094881683529390528281205590517fddc398b321237a8d40ac914388309c2f52a08c134e4dc4ce61e32f57cb7d80f1906113d19084815260200190565b60405180910390a25050600160005550565b60009182526001602090815260408084206001600160a01b0393909316845291905290205460ff1690565b6060600780548060200260200160405190810160405280929190818152602001828054801561145c57602002820191906000526020600020905b815481526020019060010190808311611448575b5050505050905090565b6003546001600160a01b031633146114cf5760405162461bcd60e51b815260206004820152602660248201527f4f6e6c79206f70657261746f7220644170702063616e20636c6f7365206f66666044820152656572696e677360d01b60648201526084016104b2565b6114da6000336113e3565b6115215760405162461bcd60e51b815260206004820152601860248201527721b0b63632b91034b9903737ba10309037b832b930ba37b960411b60448201526064016104b2565b600081815260066020526040808220600401805460ff191660011790555182907f0cfb1c3841b1ebe2ad43e9d641c358c0d40c4a10fc3c2ee73fd956a2658ed144908390a350565b6002600054141561158c5760405162461bcd60e51b81526004016104b290611f38565b60026000556040516331a9108f60e11b8152600481018490523390859082906001600160a01b03831690636352211e90602401602060405180830381865afa1580156115dc573d6000803e3d6000fd5b505050506040513d601f19601f820116820180604052508101906116009190611f88565b6001600160a01b03161461164d5760405162461bcd60e51b815260206004820152601460248201527324a72b20a624a22fa2a9219b9918afa7aba722a960611b60448201526064016104b2565b60405163e985e9c560e01b81526001600160a01b0383811660048301523060248301526000919083169063e985e9c590604401602060405180830381865afa15801561169d573d6000803e3d6000fd5b505050506040513d601f19601f820116820180604052508101906116c1919061211e565b905060018115151461170c5760405162461bcd60e51b8152602060048201526014602482015273115490cb4dcc8c57d393d517d054141493d5915160621b60448201526064016104b2565b61171a600280546001019055565b600061172560025490565b905060008189896040516020016117619392919092835260609190911b6bffffffffffffffffffffffff19166020830152603482015260540190565b60408051601f19818403018152918152815160209283012060008181526006909352912080546001600160a01b038089166001600160a01b03199283161783556001830180548e8316931692909217909155600282018b905560039091018890559091508716156118005760008181526006602052604090206004018054610100600160a81b0319166101006001600160a01b038a1602179055611821565b60008181526006602052604090206004018054610100600160a81b03191690555b60405163c87b56dd60e01b8152600481018990526000906001600160a01b0386169063c87b56dd90602401600060405180830381865afa158015611869573d6000803e3d6000fd5b505050506040513d6000823e601f3d908101601f191682016040526118919190810190612042565b600780546001810182556000919091527fa66cc928b5edb82af9bd49922954155ab7b0942694bea4ce44661d9a8736c688018390556040519091506001600160a01b0380881691908c169084907fedb9bcc509764747e9a869005eece6e1a1bf4936195e4454f5f0de1f64a1b9599061190f908e908d9088906121f0565b60405180910390a4505060016000555050505050505050565b6000828152600160208190526040909120015461194581336119c0565b61060e8383611959565b610f7c8282611a24565b61196382826113e3565b15610f7c5760008281526001602090815260408083206001600160a01b0385168085529252808320805460ff1916905551339285917ff6391f5c32d9c69d2a47ea670b442974b53935d1edc7fd64eb21e047a839171b9190a45050565b6119ca82826113e3565b610f7c576119e2816001600160a01b03166014611a8f565b6119ed836020611a8f565b6040516020016119fe929190612218565b60408051601f198184030181529082905262461bcd60e51b82526104b29160040161228d565b611a2e82826113e3565b610f7c5760008281526001602081815260408084206001600160a01b0386168086529252808420805460ff19169093179092559051339285917f2f8788117e7eff1d82e926ec794901d17c78024a50270940304540a733656f0d9190a45050565b60606000611a9e836002611fbb565b611aa9906002612106565b67ffffffffffffffff811115611ac157611ac1611ffc565b6040519080825280601f01601f191660200182016040528015611aeb576020820181803683370190505b509050600360fc1b81600081518110611b0657611b066122a0565b60200101906001600160f81b031916908160001a905350600f60fb1b81600181518110611b3557611b356122a0565b60200101906001600160f81b031916908160001a9053506000611b59846002611fbb565b611b64906001612106565b90505b6001811115611bdc576f181899199a1a9b1b9c1cb0b131b232b360811b85600f1660108110611b9857611b986122a0565b1a60f81b828281518110611bae57611bae6122a0565b60200101906001600160f81b031916908160001a90535060049490941c93611bd5816122b6565b9050611b67565b508315611c2b5760405162461bcd60e51b815260206004820181905260248201527f537472696e67733a20686578206c656e67746820696e73756666696369656e7460448201526064016104b2565b9392505050565b6000611c3d83611c73565b9250611c4882611c73565b91508151835114611c5b5750600061043c565b8180519060200120838051906020012014905061043c565b606060008290506000815167ffffffffffffffff811115611c9657611c96611ffc565b6040519080825280601f01601f191660200182016040528015611cc0576020820181803683370190505b50905060005b8251811015611dce576041838281518110611ce357611ce36122a0565b016020015160f81c10801590611d135750605a838281518110611d0857611d086122a0565b016020015160f81c11155b15611d7557828181518110611d2a57611d2a6122a0565b602001015160f81c60f81b60f81c6020611d4491906122cd565b60f81b828281518110611d5957611d596122a0565b60200101906001600160f81b031916908160001a905350611dbc565b828181518110611d8757611d876122a0565b602001015160f81c60f81b828281518110611da457611da46122a0565b60200101906001600160f81b031916908160001a9053505b80611dc6816122f2565b915050611cc6565b509392505050565b600060208284031215611de857600080fd5b81356001600160e01b031981168114611c2b57600080fd5b6001600160a01b0381168114611e1557600080fd5b50565b600060208284031215611e2a57600080fd5b8135611c2b81611e00565b600060208284031215611e4757600080fd5b5035919050565b60008060408385031215611e6157600080fd5b823591506020830135611e7381611e00565b809150509250929050565b6020808252825182820181905260009190848201906040850190845b81811015611eb657835183529284019291840191600101611e9a565b50909695505050505050565b60008060008060808587031215611ed857600080fd5b8435611ee381611e00565b9350602085013592506040850135611efa81611e00565b9396929550929360600135925050565b60008060408385031215611f1d57600080fd5b8235611f2881611e00565b91506020830135611e7381611e00565b6020808252601f908201527f5265656e7472616e637947756172643a207265656e7472616e742063616c6c00604082015260600190565b600060208284031215611f8157600080fd5b5051919050565b600060208284031215611f9a57600080fd5b8151611c2b81611e00565b634e487b7160e01b600052601160045260246000fd5b6000816000190483118215151615611fd557611fd5611fa5565b500290565b600082611ff757634e487b7160e01b600052601260045260246000fd5b500490565b634e487b7160e01b600052604160045260246000fd5b60005b8381101561202d578181015183820152602001612015565b8381111561203c576000848401525b50505050565b60006020828403121561205457600080fd5b815167ffffffffffffffff8082111561206c57600080fd5b818401915084601f83011261208057600080fd5b81518181111561209257612092611ffc565b604051601f8201601f19908116603f011681019083821181831017156120ba576120ba611ffc565b816040528281528760208487010111156120d357600080fd5b6120e4836020830160208801612012565b979650505050505050565b60008282101561210157612101611fa5565b500390565b6000821982111561211957612119611fa5565b500190565b60006020828403121561213057600080fd5b81518015158114611c2b57600080fd5b6020808252600d908201526c1514905394d1915497d1905253609a1b604082015260600190565b6020808252603a908201527f6f6e6c7920746865206f70657261746f722063616e206368616e67652074686560408201527f2063757272656e74205f706172616d65746572436f6e74726f6c000000000000606082015260800190565b600081518084526121dc816020860160208601612012565b601f01601f19169290920160200192915050565b83815282602082015260606040820152600061220f60608301846121c4565b95945050505050565b7f416363657373436f6e74726f6c3a206163636f756e7420000000000000000000815260008351612250816017850160208801612012565b7001034b99036b4b9b9b4b733903937b6329607d1b6017918401918201528351612281816028840160208801612012565b01602801949350505050565b602081526000611c2b60208301846121c4565b634e487b7160e01b600052603260045260246000fd5b6000816122c5576122c5611fa5565b506000190190565b600060ff821660ff84168060ff038211156122ea576122ea611fa5565b019392505050565b600060001982141561230657612306611fa5565b506001019056fea26469706673582212208f39121f108bb71d72d58773a3c0bea44f10ba445d1fd8f7c21b49f7236aa50564736f6c634300080c0033",
  "linkReferences": {},
  "deployedLinkReferences": {}
}