{
  "_format": "hh-sol-artifact-1",
  "contractName": "NativeMetaTransaction",
  "sourceName": "contracts/utils/common/meta-transactions/NativeMetaTransaction.sol",
  "abi": [
    {
      "anonymous": false,
      "inputs": [
        {
          "indexed": false,
          "internalType": "address",
          "name": "userAddress",
          "type": "address"
        },
        {
          "indexed": false,
          "internalType": "address payable",
          "name": "relayerAddress",
          "type": "address"
        },
        {
          "indexed": false,
          "internalType": "bytes",
          "name": "functionSignature",
          "type": "bytes"
        }
      ],
      "name": "MetaTransactionExecuted",
      "type": "event"
    },
    {
      "inputs": [],
      "name": "ERC712_VERSION",
      "outputs": [
        {
          "internalType": "string",
          "name": "",
          "type": "string"
        }
      ],
      "stateMutability": "view",
      "type": "function"
    },
    {
      "inputs": [
        {
          "internalType": "address",
          "name": "userAddress",
          "type": "address"
        },
        {
          "internalType": "bytes",
          "name": "functionSignature",
          "type": "bytes"
        },
        {
          "internalType": "bytes32",
          "name": "sigR",
          "type": "bytes32"
        },
        {
          "internalType": "bytes32",
          "name": "sigS",
          "type": "bytes32"
        },
        {
          "internalType": "uint8",
          "name": "sigV",
          "type": "uint8"
        }
      ],
      "name": "executeMetaTransaction",
      "outputs": [
        {
          "internalType": "bytes",
          "name": "",
          "type": "bytes"
        }
      ],
      "stateMutability": "nonpayable",
      "type": "function"
    },
    {
      "inputs": [],
      "name": "getChainId",
      "outputs": [
        {
          "internalType": "uint256",
          "name": "",
          "type": "uint256"
        }
      ],
      "stateMutability": "view",
      "type": "function"
    },
    {
      "inputs": [],
      "name": "getDomainSeperator",
      "outputs": [
        {
          "internalType": "bytes32",
          "name": "",
          "type": "bytes32"
        }
      ],
      "stateMutability": "view",
      "type": "function"
    },
    {
      "inputs": [
        {
          "internalType": "address",
          "name": "user",
          "type": "address"
        }
      ],
      "name": "getNonce",
      "outputs": [
        {
          "internalType": "uint256",
          "name": "nonce",
          "type": "uint256"
        }
      ],
      "stateMutability": "view",
      "type": "function"
    }
  ],
  "bytecode": "0x60806040526000805460ff1916905534801561001a57600080fd5b506106fc8061002a6000396000f3fe608060405234801561001057600080fd5b50600436106100575760003560e01c80630c53c51c1461005c5780630f7e59701461008557806320379ee5146100a55780632d0335ab146100b75780633408e470146100e0575b600080fd5b61006f61006a36600461047c565b6100e6565b60405161007c91906105be565b60405180910390f35b61006f604051806040016040528060018152602001603160f81b81525081565b6001545b60405190815260200161007c565b6100a96100c53660046105d8565b6001600160a01b031660009081526002602052604090205490565b466100a9565b60408051606081810183526001600160a01b0388166000818152600260209081529085902054845283015291810186905261012487828787876102be565b61017f5760405162461bcd60e51b815260206004820152602160248201527f5369676e657220616e64207369676e617475726520646f206e6f74206d6174636044820152600d60fb1b60648201526084015b60405180910390fd5b6001600160a01b0387166000908152600260205260409020546101a39060016105f3565b6001600160a01b0388166000908152600260205260409081902091909155517f5845892132946850460bff5a0083f71031bc5bf9aadcd40f1de79423eac9b10b906101f390899033908a90610619565b60405180910390a1600080306001600160a01b0316888a60405160200161021b92919061064e565b60408051601f198184030181529082905261023591610685565b6000604051808303816000865af19150503d8060008114610272576040519150601f19603f3d011682016040523d82523d6000602084013e610277565b606091505b5091509150816102b25760405162461bcd60e51b81526004016101769060208082526004908201526319985a5b60e21b604082015260600190565b98975050505050505050565b60006001600160a01b0386166103025760405162461bcd60e51b815260206004820152600960248201526824a72fa9a4a3a722a960b91b6044820152606401610176565b60016103156103108761038c565b610409565b6040805160008152602081018083529290925260ff851690820152606081018690526080810185905260a0016020604051602081039080840390855afa158015610363573d6000803e3d6000fd5b505050602060405103516001600160a01b0316866001600160a01b031614905095945050505050565b60006040518060600160405280602581526020016106a260259139805160209182012083518483015160408087015180519086012090516103ec950193845260208401929092526001600160a01b03166040830152606082015260800190565b604051602081830303815290604052805190602001209050919050565b600061041460015490565b60405161190160f01b60208201526022810191909152604281018390526062016103ec565b80356001600160a01b038116811461045057600080fd5b919050565b634e487b7160e01b600052604160045260246000fd5b803560ff8116811461045057600080fd5b600080600080600060a0868803121561049457600080fd5b61049d86610439565b9450602086013567ffffffffffffffff808211156104ba57600080fd5b818801915088601f8301126104ce57600080fd5b8135818111156104e0576104e0610455565b604051601f8201601f19908116603f0116810190838211818310171561050857610508610455565b816040528281528b602084870101111561052157600080fd5b82602086016020830137600060208483010152809850505050505060408601359250606086013591506105566080870161046b565b90509295509295909350565b60005b8381101561057d578181015183820152602001610565565b8381111561058c576000848401525b50505050565b600081518084526105aa816020860160208601610562565b601f01601f19169290920160200192915050565b6020815260006105d16020830184610592565b9392505050565b6000602082840312156105ea57600080fd5b6105d182610439565b6000821982111561061457634e487b7160e01b600052601160045260246000fd5b500190565b6001600160a01b0384811682528316602082015260606040820181905260009061064590830184610592565b95945050505050565b60008351610660818460208801610562565b60609390931b6bffffffffffffffffffffffff19169190920190815260140192915050565b60008251610697818460208701610562565b919091019291505056fe4d6574615472616e73616374696f6e286e6f6e63652c66726f6d2c7369676e617475726529a26469706673582212202b70014d2345d40a8d361675c7ee807530b66d88d13dbd3d40961fbfca7610ab64736f6c634300080c0033",
  "linkReferences": {},
  "deployedLinkReferences": {}
}