{
  "_format": "hh-sol-artifact-1",
  "contractName": "RoveMarketPlaceUpgradeable",
  "sourceName": "contracts/goods/RoveMarketPlaceUpgradeable.sol",
  "abi": [
    {
      "anonymous": false,
      "inputs": [
        {
          "indexed": false,
          "internalType": "address",
          "name": "owner",
          "type": "address"
        },
        {
          "indexed": false,
          "internalType": "address",
          "name": "operator",
          "type": "address"
        },
        {
          "indexed": false,
          "internalType": "bool",
          "name": "approved",
          "type": "bool"
        }
      ],
      "name": "ApprovalForAll",
      "type": "event"
    },
    {
      "anonymous": false,
      "inputs": [
        {
          "indexed": true,
          "internalType": "address",
          "name": "beneficiary",
          "type": "address"
        },
        {
          "indexed": false,
          "internalType": "address",
          "name": "erc20",
          "type": "address"
        },
        {
          "indexed": false,
          "internalType": "uint256",
          "name": "amount",
          "type": "uint256"
        }
      ],
      "name": "BalanceWithdrawn",
      "type": "event"
    },
    {
      "anonymous": false,
      "inputs": [
        {
          "indexed": false,
          "internalType": "uint8",
          "name": "version",
          "type": "uint8"
        }
      ],
      "name": "Initialized",
      "type": "event"
    },
    {
      "anonymous": false,
      "inputs": [
        {
          "indexed": true,
          "internalType": "bytes32",
          "name": "offeringId",
          "type": "bytes32"
        },
        {
          "indexed": true,
          "internalType": "address",
          "name": "buyer",
          "type": "address"
        }
      ],
      "name": "OfferingClosed",
      "type": "event"
    },
    {
      "anonymous": false,
      "inputs": [
        {
          "indexed": true,
          "internalType": "bytes32",
          "name": "offeringId",
          "type": "bytes32"
        },
        {
          "indexed": true,
          "internalType": "address",
          "name": "hostContract",
          "type": "address"
        },
        {
          "indexed": true,
          "internalType": "address",
          "name": "offerer",
          "type": "address"
        },
        {
          "indexed": false,
          "internalType": "uint256",
          "name": "tokenId",
          "type": "uint256"
        },
        {
          "indexed": false,
          "internalType": "address",
          "name": "erc20",
          "type": "address"
        },
        {
          "indexed": false,
          "internalType": "uint256",
          "name": "price",
          "type": "uint256"
        },
        {
          "indexed": false,
          "internalType": "uint256",
          "name": "amount",
          "type": "uint256"
        }
      ],
      "name": "OfferingPlaced",
      "type": "event"
    },
    {
      "anonymous": false,
      "inputs": [
        {
          "indexed": true,
          "internalType": "bytes32",
          "name": "offeringId",
          "type": "bytes32"
        },
        {
          "indexed": true,
          "internalType": "address",
          "name": "buyer",
          "type": "address"
        },
        {
          "indexed": true,
          "internalType": "uint256",
          "name": "amount",
          "type": "uint256"
        }
      ],
      "name": "OfferingRemain",
      "type": "event"
    },
    {
      "anonymous": false,
      "inputs": [
        {
          "indexed": false,
          "internalType": "address",
          "name": "previousOperator",
          "type": "address"
        },
        {
          "indexed": false,
          "internalType": "address",
          "name": "newOperator",
          "type": "address"
        }
      ],
      "name": "OperatorChanged",
      "type": "event"
    },
    {
      "anonymous": false,
      "inputs": [
        {
          "indexed": false,
          "internalType": "address",
          "name": "previousOperator",
          "type": "address"
        },
        {
          "indexed": false,
          "internalType": "address",
          "name": "newOperator",
          "type": "address"
        }
      ],
      "name": "ParameterControlChanged",
      "type": "event"
    },
    {
      "anonymous": false,
      "inputs": [
        {
          "indexed": true,
          "internalType": "bytes32",
          "name": "role",
          "type": "bytes32"
        },
        {
          "indexed": true,
          "internalType": "bytes32",
          "name": "previousAdminRole",
          "type": "bytes32"
        },
        {
          "indexed": true,
          "internalType": "bytes32",
          "name": "newAdminRole",
          "type": "bytes32"
        }
      ],
      "name": "RoleAdminChanged",
      "type": "event"
    },
    {
      "anonymous": false,
      "inputs": [
        {
          "indexed": true,
          "internalType": "bytes32",
          "name": "role",
          "type": "bytes32"
        },
        {
          "indexed": true,
          "internalType": "address",
          "name": "account",
          "type": "address"
        },
        {
          "indexed": true,
          "internalType": "address",
          "name": "sender",
          "type": "address"
        }
      ],
      "name": "RoleGranted",
      "type": "event"
    },
    {
      "anonymous": false,
      "inputs": [
        {
          "indexed": true,
          "internalType": "bytes32",
          "name": "role",
          "type": "bytes32"
        },
        {
          "indexed": true,
          "internalType": "address",
          "name": "account",
          "type": "address"
        },
        {
          "indexed": true,
          "internalType": "address",
          "name": "sender",
          "type": "address"
        }
      ],
      "name": "RoleRevoked",
      "type": "event"
    },
    {
      "inputs": [],
      "name": "DEFAULT_ADMIN_ROLE",
      "outputs": [
        {
          "internalType": "bytes32",
          "name": "",
          "type": "bytes32"
        }
      ],
      "stateMutability": "view",
      "type": "function"
    },
    {
      "inputs": [],
      "name": "arrayOffering",
      "outputs": [
        {
          "internalType": "bytes32[]",
          "name": "",
          "type": "bytes32[]"
        }
      ],
      "stateMutability": "view",
      "type": "function"
    },
    {
      "inputs": [
        {
          "internalType": "address",
          "name": "_newOperator",
          "type": "address"
        }
      ],
      "name": "changeOperator",
      "outputs": [],
      "stateMutability": "nonpayable",
      "type": "function"
    },
    {
      "inputs": [
        {
          "internalType": "address",
          "name": "_new",
          "type": "address"
        }
      ],
      "name": "changeParameterControl",
      "outputs": [],
      "stateMutability": "nonpayable",
      "type": "function"
    },
    {
      "inputs": [
        {
          "internalType": "bytes32",
          "name": "_offeringId",
          "type": "bytes32"
        },
        {
          "internalType": "uint256",
          "name": "_amount",
          "type": "uint256"
        }
      ],
      "name": "closeOffering",
      "outputs": [],
      "stateMutability": "payable",
      "type": "function"
    },
    {
      "inputs": [
        {
          "internalType": "bytes32",
          "name": "role",
          "type": "bytes32"
        }
      ],
      "name": "getRoleAdmin",
      "outputs": [
        {
          "internalType": "bytes32",
          "name": "",
          "type": "bytes32"
        }
      ],
      "stateMutability": "view",
      "type": "function"
    },
    {
      "inputs": [
        {
          "internalType": "bytes32",
          "name": "role",
          "type": "bytes32"
        },
        {
          "internalType": "address",
          "name": "account",
          "type": "address"
        }
      ],
      "name": "grantRole",
      "outputs": [],
      "stateMutability": "nonpayable",
      "type": "function"
    },
    {
      "inputs": [
        {
          "internalType": "bytes32",
          "name": "role",
          "type": "bytes32"
        },
        {
          "internalType": "address",
          "name": "account",
          "type": "address"
        }
      ],
      "name": "hasRole",
      "outputs": [
        {
          "internalType": "bool",
          "name": "",
          "type": "bool"
        }
      ],
      "stateMutability": "view",
      "type": "function"
    },
    {
      "inputs": [
        {
          "internalType": "address",
          "name": "operator_",
          "type": "address"
        },
        {
          "internalType": "address",
          "name": "parameterControl_",
          "type": "address"
        }
      ],
      "name": "initialize",
      "outputs": [],
      "stateMutability": "nonpayable",
      "type": "function"
    },
    {
      "inputs": [
        {
          "internalType": "bytes32",
          "name": "_offeringId",
          "type": "bytes32"
        }
      ],
      "name": "offererCloseOffering",
      "outputs": [],
      "stateMutability": "nonpayable",
      "type": "function"
    },
    {
      "inputs": [],
      "name": "operator",
      "outputs": [
        {
          "internalType": "address",
          "name": "",
          "type": "address"
        }
      ],
      "stateMutability": "view",
      "type": "function"
    },
    {
      "inputs": [
        {
          "internalType": "bytes32",
          "name": "_offeringId",
          "type": "bytes32"
        }
      ],
      "name": "operatorCloseOffering",
      "outputs": [],
      "stateMutability": "nonpayable",
      "type": "function"
    },
    {
      "inputs": [],
      "name": "parameterControl",
      "outputs": [
        {
          "internalType": "address",
          "name": "",
          "type": "address"
        }
      ],
      "stateMutability": "view",
      "type": "function"
    },
    {
      "inputs": [
        {
          "internalType": "address",
          "name": "_hostContract",
          "type": "address"
        },
        {
          "internalType": "uint256",
          "name": "_tokenId",
          "type": "uint256"
        },
        {
          "internalType": "address",
          "name": "_erc20Token",
          "type": "address"
        },
        {
          "internalType": "uint256",
          "name": "_price",
          "type": "uint256"
        },
        {
          "internalType": "uint256",
          "name": "_amount",
          "type": "uint256"
        },
        {
          "internalType": "bool",
          "name": "_withdrawImm",
          "type": "bool"
        }
      ],
      "name": "placeOffering",
      "outputs": [
        {
          "internalType": "bytes32",
          "name": "",
          "type": "bytes32"
        }
      ],
      "stateMutability": "nonpayable",
      "type": "function"
    },
    {
      "inputs": [
        {
          "internalType": "bytes32",
          "name": "role",
          "type": "bytes32"
        },
        {
          "internalType": "address",
          "name": "account",
          "type": "address"
        }
      ],
      "name": "renounceRole",
      "outputs": [],
      "stateMutability": "nonpayable",
      "type": "function"
    },
    {
      "inputs": [
        {
          "internalType": "bytes32",
          "name": "role",
          "type": "bytes32"
        },
        {
          "internalType": "address",
          "name": "account",
          "type": "address"
        }
      ],
      "name": "revokeRole",
      "outputs": [],
      "stateMutability": "nonpayable",
      "type": "function"
    },
    {
      "inputs": [
        {
          "internalType": "bytes4",
          "name": "interfaceId",
          "type": "bytes4"
        }
      ],
      "name": "supportsInterface",
      "outputs": [
        {
          "internalType": "bool",
          "name": "",
          "type": "bool"
        }
      ],
      "stateMutability": "view",
      "type": "function"
    },
    {
      "inputs": [
        {
          "internalType": "address",
          "name": "_address",
          "type": "address"
        },
        {
          "internalType": "address",
          "name": "_erc20Token",
          "type": "address"
        }
      ],
      "name": "viewBalances",
      "outputs": [
        {
          "internalType": "uint256",
          "name": "",
          "type": "uint256"
        }
      ],
      "stateMutability": "view",
      "type": "function"
    },
    {
      "inputs": [
        {
          "internalType": "bytes32",
          "name": "_offeringId",
          "type": "bytes32"
        }
      ],
      "name": "viewOfferingNFT",
      "outputs": [
        {
          "internalType": "address",
          "name": "",
          "type": "address"
        },
        {
          "internalType": "uint256",
          "name": "",
          "type": "uint256"
        },
        {
          "internalType": "uint256",
          "name": "",
          "type": "uint256"
        },
        {
          "internalType": "bool",
          "name": "",
          "type": "bool"
        },
        {
          "internalType": "uint256",
          "name": "",
          "type": "uint256"
        }
      ],
      "stateMutability": "view",
      "type": "function"
    },
    {
      "inputs": [
        {
          "internalType": "address",
          "name": "_erc20Token",
          "type": "address"
        }
      ],
      "name": "withdrawBalance",
      "outputs": [],
      "stateMutability": "nonpayable",
      "type": "function"
    }
  ],
  "bytecode": "0x608060405234801561001057600080fd5b50612f96806100206000396000f3fe60806040526004361061011f5760003560e01c8063756af45f116100a0578063c684c35e11610064578063c684c35e1461033b578063d547741f1461035b578063e2b4f2b71461037b578063ec7bca54146103c2578063f563cca61461045157600080fd5b8063756af45f146102b157806391d14854146102d1578063a217fddf146102f1578063bda06b3714610306578063bdac0c1e1461032857600080fd5b806336568abe116100e757806336568abe146101f957806336748e0a14610219578063485cc95514610251578063570ca7351461027157806363f008b01461029157600080fd5b806301ffc9a71461012457806306394c9b14610159578063073d19381461017b578063248a9ca31461019b5780632f2ff15d146101d9575b600080fd5b34801561013057600080fd5b5061014461013f3660046129c5565b610471565b60405190151581526020015b60405180910390f35b34801561016557600080fd5b50610179610174366004612a04565b6104a8565b005b34801561018757600080fd5b50610179610196366004612a21565b6105ac565b3480156101a757600080fd5b506101cb6101b6366004612a21565b60009081526097602052604090206001015490565b604051908152602001610150565b3480156101e557600080fd5b506101796101f4366004612a3a565b61065e565b34801561020557600080fd5b50610179610214366004612a3a565b610688565b34801561022557600080fd5b5060cb54610239906001600160a01b031681565b6040516001600160a01b039091168152602001610150565b34801561025d57600080fd5b5061017961026c366004612a6a565b610706565b34801561027d57600080fd5b5060ca54610239906001600160a01b031681565b34801561029d57600080fd5b506101796102ac366004612a04565b610843565b3480156102bd57600080fd5b506101796102cc366004612a04565b610914565b3480156102dd57600080fd5b506101446102ec366004612a3a565b610c4b565b3480156102fd57600080fd5b506101cb600081565b34801561031257600080fd5b5061031b610c76565b6040516101509190612a98565b610179610336366004612adc565b610cce565b34801561034757600080fd5b50610179610356366004612a21565b611e02565b34801561036757600080fd5b50610179610376366004612a3a565b611f05565b34801561038757600080fd5b506101cb610396366004612a6a565b6001600160a01b03808216600090815260cc602090815260408083209386168352929052205492915050565b3480156103ce57600080fd5b5061041d6103dd366004612a21565b600090815260cd6020526040902060018101546002820154600383015460058401546004909401546001600160a01b03909316949193909260ff90911691565b604080516001600160a01b03909616865260208601949094529284019190915215156060830152608082015260a001610150565b34801561045d57600080fd5b506101cb61046c366004612b0c565b611f2a565b60006001600160e01b03198216637965db0b60e01b14806104a257506301ffc9a760e01b6001600160e01b03198316145b92915050565b60ca546001600160a01b031633146104db5760405162461bcd60e51b81526004016104d290612b73565b60405180910390fd5b6104e6600033610c4b565b6105025760405162461bcd60e51b81526004016104d290612b73565b6001600160a01b0381166105285760405162461bcd60e51b81526004016104d290612b9a565b60ca80546001600160a01b038381166001600160a01b031983168117909355169061055590600090612341565b61056060008261234b565b60ca54604080516001600160a01b03808516825290921660208301527fd58299b712891143e76310d5e664c4203c940a67db37cf856bdaa3c5c76a802c91015b60405180910390a15050565b600081815260cd60205260409020546001600160a01b031633146106015760405162461bcd60e51b815260206004820152600c60248201526b4f4646455245525f4f4e4c5960a01b60448201526064016104d2565b600081815260cd602052604080822060058101805460ff19166001179055600481018390555490516001600160a01b039091169183917f0cfb1c3841b1ebe2ad43e9d641c358c0d40c4a10fc3c2ee73fd956a2658ed1449190a350565b600082815260976020526040902060010154610679816123b2565b61068383836123bf565b505050565b6001600160a01b03811633146106f85760405162461bcd60e51b815260206004820152602f60248201527f416363657373436f6e74726f6c3a2063616e206f6e6c792072656e6f756e636560448201526e103937b632b9903337b91039b2b63360891b60648201526084016104d2565b610702828261234b565b5050565b60006107126001612445565b9050801561072a576000805461ff0019166101001790555b6001600160a01b0383166107505760405162461bcd60e51b81526004016104d290612b9a565b6001600160a01b0382166107975760405162461bcd60e51b815260206004820152600e60248201526d105111149154d7d253959053125160921b60448201526064016104d2565b60ca80546001600160a01b0319166001600160a01b0385169081179091556107c190600090612341565b60ca546001600160a01b031633146107de576107de60003361234b565b60cb80546001600160a01b0319166001600160a01b0384161790558015610683576000805461ff0019169055604051600181527f7f26b83ff96e1f2b6a682f133852f6798a09c465da95921460cefb38474024989060200160405180910390a1505050565b60ca546001600160a01b0316331461086d5760405162461bcd60e51b81526004016104d290612b73565b610878600033610c4b565b6108945760405162461bcd60e51b81526004016104d290612b73565b6001600160a01b0381166108ba5760405162461bcd60e51b81526004016104d290612b9a565b60cb80546001600160a01b038381166001600160a01b031983168117909355604080519190921680825260208201939093527fff8b036e9641959ee1d5b4efb05f8fa0e816d57e2879aa0758b191993511f7dd91016105a0565b600260015414156109375760405162461bcd60e51b81526004016104d290612bc3565b60026001556001600160a01b038116600090815260cc6020908152604080832033808552925290912054806109a55760405162461bcd60e51b815260206004820152601460248201527357495448445241575f554e415641494c41424c4560601b60448201526064016104d2565b6001600160a01b03831615610b2c576040516370a0823160e01b815230600482015283906000906001600160a01b038316906370a0823190602401602060405180830381865afa1580156109fd573d6000803e3d6000fd5b505050506040513d601f19601f82011682018060405250810190610a219190612bfa565b6001600160a01b03808716600090815260cc6020908152604080832093891683529290522054909150811015610a695760405162461bcd60e51b81526004016104d290612c13565b60405163a9059cbb60e01b81526001600160a01b038581166004830152602482018590526000919084169063a9059cbb906044016020604051808303816000875af1158015610abc573d6000803e3d6000fd5b505050506040513d601f19601f82011682018060405250810190610ae09190612c39565b9050600181151514610b245760405162461bcd60e51b815260206004820152600d60248201526c1514905394d1915497d1905253609a1b60448201526064016104d2565b505050610be1565b60004711610b4c5760405162461bcd60e51b81526004016104d290612c13565b6000826001600160a01b03168260405160006040518083038185875af1925050503d8060008114610b99576040519150601f19603f3d011682016040523d82523d6000602084013e610b9e565b606091505b5050905080610bdf5760405162461bcd60e51b815260206004820152600d60248201526c1514905394d1915497d1905253609a1b60448201526064016104d2565b505b6001600160a01b03838116600081815260cc6020908152604080832094871680845294825280832092909255815192835282018490527f50630162af2fe1b3638257703351230fbe331ec0b7368aba0eb78f2dabd03c0c910160405180910390a250506001805550565b60009182526097602090815260408084206001600160a01b0393909316845291905290205460ff1690565b606060ce805480602002602001604051908101604052809291908181526020018280548015610cc457602002820191906000526020600020905b815481526020019060010190808311610cb0575b5050505050905090565b60026001541415610cf15760405162461bcd60e51b81526004016104d290612bc3565b60026001818155600084815260cd602090815260408083208151610100808201845282546001600160a01b039081168084529784015481169583018690529783015482850152600383015460608301526004808401546080840181905260059094015460ff808216151560a086015292810490991660c0840152600160a81b90980416151560e0820152915163e985e9c560e01b8152958601949094523060248601529390929190839063e985e9c590604401602060405180830381865afa158015610dc1573d6000803e3d6000fd5b505050506040513d601f19601f82011682018060405250810190610de59190612c39565b60c0858101516040805161010081018252600080825260208201819052918101829052606081018290526080810182905260a0810182905292830181905260e083018190529293506001600160a01b03161580159290610f93575060c086015160408051610100810182523381526060890180516020830152519091820190610e6f908b90612c6c565b8152602001898960600151610e849190612c6c565b81526040516370a0823160e01b81523360048201526020909101906001600160a01b038416906370a0823190602401602060405180830381865afa158015610ed0573d6000803e3d6000fd5b505050506040513d601f19601f82011682018060405250810190610ef49190612bfa565b8152604051636eb1769f60e11b81523360048201523060248201526020909101906001600160a01b0384169063dd62ed3e90604401602060405180830381865afa158015610f46573d6000803e3d6000fd5b505050506040513d601f19601f82011682018060405250810190610f6a9190612bfa565b81526020018860c001516001600160a01b031681526020018860e0015115158152509150611002565b60408051610100810182523381526060890180516020830152519091820190610fbd908b90612c6c565b8152602001898960600151610fd29190612c6c565b8152602001600081526020016000815260200160006001600160a01b031681526020018860e00151151581525091505b60018415151461104c5760405162461bcd60e51b8152602060048201526015602482015274115490cb4c4c4d4d57d393d517d054141493d59151605a1b60448201526064016104d2565b8785101561109c5760405162461bcd60e51b815260206004820152601760248201527f4552432d313135352d414d4f554e545f494e56414c494400000000000000000060448201526064016104d2565b86516040808901519051627eeac760e11b81526001600160a01b0392831660048201526024810191909152899188169062fdd58e90604401602060405180830381865afa1580156110f1573d6000803e3d6000fd5b505050506040513d601f19601f820116820180604052508101906111159190612bfa565b10156111635760405162461bcd60e51b815260206004820152601860248201527f4552432d313135355f42414c414e43455f494e56414c4944000000000000000060448201526064016104d2565b821561120d5781604001518260a0015110156111b75760405162461bcd60e51b8152602060048201526013602482015272115490cb4c8c17d393d517d054141493d59151606a1b60448201526064016104d2565b8160400151826080015110156112085760405162461bcd60e51b8152602060048201526016602482015275115490cb4c8c17d09053105390d157d253959053125160521b60448201526064016104d2565b611251565b81604001513410156112515760405162461bcd60e51b815260206004820152600d60248201526c159053155157d2539590531251609a1b60448201526064016104d2565b8660a00151156112955760405162461bcd60e51b815260206004820152600f60248201526e13d1919154925391d7d0d313d4d151608a1b60448201526064016104d2565b865182516040808a01519051637921219560e11b81526001600160a01b03938416600482015291831660248301526044820152606481018a905260a06084820152600260a482015261060f60f31b60c48201529087169063f242432a9060e401600060405180830381600087803b15801561130f57600080fd5b505af1158015611323573d6000803e3d6000fd5b505060cb546040805160a0810182526000808252602082018190528183018190526060820181905260808201529051636d12dce160e01b81526001600160a01b03909216935091508290636d12dce1906113a2906004016020808252600e908201526d13505492d15517d091539151925560921b604082015260600190565b602060405180830381865afa1580156113bf573d6000803e3d6000fd5b505050506040513d601f19601f820116820180604052508101906113e39190612bfa565b604082018190521561160957612710816040015185606001516114069190612c6c565b6114109190612c8b565b606082015284156115a65760405163349f642f60e11b815260206004820152600a6024820152692927ab22afaa27a5a2a760b11b60448201526000906001600160a01b0384169063693ec85e90606401600060405180830381865afa15801561147d573d6000803e3d6000fd5b505050506040513d6000823e601f3d908101601f191682016040526114a59190810190612cf3565b905080516000146115a4576114d16114cb8b60c001516001600160a01b031660146124cd565b82612670565b156115a457604051636d12dce160e01b81526020600482015260136024820152722224a9a1a7aaa72a2fa927ab22afaa27a5a2a760691b60448201526001600160a01b03841690636d12dce190606401602060405180830381865afa15801561153e573d6000803e3d6000fd5b505050506040513d601f19601f820116820180604052508101906115629190612bfa565b60808301819052156115a457612710826080015183606001516115859190612c6c565b61158f9190612c8b565b826060015161159e9190612da0565b60608301525b505b8060600151846040018181516115bc9190612da0565b905250606081015160c08501516001600160a01b03908116600090815260cc6020908152604080832060ca5490941683529290529081208054909190611603908490612db7565b90915550505b604051636d12dce160e01b815260206004820152600f60248201526e10d491505513d497d0915391519255608a1b60448201526001600160a01b03831690636d12dce190606401602060405180830381865afa15801561166d573d6000803e3d6000fd5b505050506040513d601f19601f820116820180604052508101906116919190612bfa565b8082521561182a576040516301ffc9a760e01b8152636a4731c560e11b60048201526001600160a01b038916906301ffc9a790602401602060405180830381865afa1580156116e4573d6000803e3d6000fd5b505050506040513d601f19601f820116820180604052508101906117089190612c39565b1561182557600080896001600160a01b0316632a55205a8c6040015188606001516040518363ffffffff1660e01b815260040161174f929190918252602082015260400190565b6040805180830381865afa15801561176b573d6000803e3d6000fd5b505050506040513d601f19601f8201168201806040525081019061178f9190612dcf565b90925090506001600160a01b038216156118225782516060870151612710916117b791612c6c565b6117c19190612c8b565b602084018190526040870180516117d9908390612da0565b90525060208084015160c08801516001600160a01b03908116600090815260cc84526040808220928716825291909352822080549192909161181c908490612db7565b90915550505b50505b61199b565b6040516301ffc9a760e01b8152636a4731c560e11b60048201526001600160a01b038916906301ffc9a790602401602060405180830381865afa158015611875573d6000803e3d6000fd5b505050506040513d601f19601f820116820180604052508101906118999190612c39565b1561199b57600080896001600160a01b0316632a55205a8c6040015188606001516040518363ffffffff1660e01b81526004016118e0929190918252602082015260400190565b6040805180830381865afa1580156118fc573d6000803e3d6000fd5b505050506040513d601f19601f820116820180604052508101906119209190612dcf565b90925090506001600160a01b03821615611998576020830181905260408601805182919061194f908390612da0565b90525060208084015160c08801516001600160a01b03908116600090815260cc845260408082209287168252919093528220805491929091611992908490612db7565b90915550505b50505b60008b815260cd6020526040812060040180548c92906119bc908490612da0565b909155505060008b815260cd602052604090206004015460e0850151909750611b00578415611ab157835160608501516040516323b872dd60e01b81526001600160a01b03928316600482015230602482015260448101919091526000918516906323b872dd906064016020604051808303816000875af1158015611a45573d6000803e3d6000fd5b505050506040513d601f19601f82011682018060405250810190611a699190612c39565b9050600181151514611aaf5760405162461bcd60e51b815260206004820152600f60248201526e5452414e534645525f4641494c5f4560881b60448201526064016104d2565b505b60408085015160c08601516001600160a01b03908116600090815260cc60209081528482208e51909316825291909152918220805491929091611af5908490612db7565b90915550611d5a9050565b8415611ca057835160608501516040516323b872dd60e01b81526001600160a01b03928316600482015230602482015260448101919091526000918516906323b872dd906064016020604051808303816000875af1158015611b66573d6000803e3d6000fd5b505050506040513d601f19601f82011682018060405250810190611b8a9190612c39565b9050600181151514611bd15760405162461bcd60e51b815260206004820152601060248201526f5452414e534645525f4641494c5f453160801b60448201526064016104d2565b895160408681015190516323b872dd60e01b81523060048201526001600160a01b0392831660248201526044810191909152908516906323b872dd906064016020604051808303816000875af1158015611c2f573d6000803e3d6000fd5b505050506040513d601f19601f82011682018060405250810190611c539190612c39565b9050600181151514611c9a5760405162461bcd60e51b815260206004820152601060248201526f2a2920a729a322a92fa320a4a62fa29960811b60448201526064016104d2565b50611d5a565b60004711611cc05760405162461bcd60e51b81526004016104d290612c13565b885160408086015190516000926001600160a01b031691908381818185875af1925050503d8060008114611d10576040519150601f19603f3d011682016040523d82523d6000602084013e611d15565b606091505b5050905080611d585760405162461bcd60e51b815260206004820152600f60248201526e2a2920a729a322a92fa320a4a62fa760891b60448201526064016104d2565b505b86611db75760008b815260cd6020526040808220600501805460ff19166001179055855190516001600160a01b03909116918d917f0cfb1c3841b1ebe2ad43e9d641c358c0d40c4a10fc3c2ee73fd956a2658ed1449190a3611df1565b835160405188916001600160a01b0316908d907fd586202b1fb1f19550228698f4d5754bc25f72478fe3bcdf94e67ac6b64e284390600090a45b505060018055505050505050505050565b60ca546001600160a01b03163314611e2c5760405162461bcd60e51b81526004016104d290612b73565b611e37600033610c4b565b611e535760405162461bcd60e51b81526004016104d290612b73565b600081815260cd602052604090206005015460ff1615611ea75760405162461bcd60e51b815260206004820152600f60248201526e13d1919154925391d7d0d313d4d151608a1b60448201526064016104d2565b600081815260cd602052604080822060058101805460ff1916600117905560040182905560ca5490516001600160a01b039091169183917f0cfb1c3841b1ebe2ad43e9d641c358c0d40c4a10fc3c2ee73fd956a2658ed1449190a350565b600082815260976020526040902060010154611f20816123b2565b610683838361234b565b600060026001541415611f4f5760405162461bcd60e51b81526004016104d290612bc3565b6002600155604051627eeac760e11b81523360048201819052602482018890529088906000906001600160a01b0383169062fdd58e90604401602060405180830381865afa158015611fa5573d6000803e3d6000fd5b505050506040513d601f19601f82011682018060405250810190611fc99190612bfa565b60405163e985e9c560e01b81526001600160a01b03858116600483015230602483015291925060009184169063e985e9c590604401602060405180830381865afa15801561201b573d6000803e3d6000fd5b505050506040513d601f19601f8201168201806040525081019061203f9190612c39565b9050868210156120835760405162461bcd60e51b815260206004820152600f60248201526e109053105390d157d2539590531251608a1b60448201526064016104d2565b6001811515146120cd5760405162461bcd60e51b8152602060048201526015602482015274115490cb4c4c4d4d57d393d517d054141493d59151605a1b60448201526064016104d2565b6120db60c980546001019055565b60006120e660c95490565b90506000818d8d6040516020016121229392919092835260609190911b6bffffffffffffffffffffffff19166020830152603482015260540190565b6040516020818303038152906040528051906020012090508560cd600083815260200190815260200160002060000160006101000a8154816001600160a01b0302191690836001600160a01b031602179055508c60cd600083815260200190815260200160002060010160006101000a8154816001600160a01b0302191690836001600160a01b031602179055508b60cd6000838152602001908152602001600020600201819055508960cd6000838152602001908152602001600020600301819055508860cd6000838152602001908152602001600020600401819055508760cd600083815260200190815260200160002060050160156101000a81548160ff02191690831515021790555060006001600160a01b03168b6001600160a01b03161461227d57600081815260cd602052604090206005018054610100600160a81b0319166101006001600160a01b038e160217905561229e565b600081815260cd602052604090206005018054610100600160a81b03191690555b60ce80546001810182556000919091527fd36cd1c74ef8d7326d8021b776c18fb5a5724b7f7bc93c2f42e43e10ef27d12a01819055604080518d81526001600160a01b038d811660208301529181018c9052606081018b9052818816918f169083907f2c4d7d7477c9a6a7eeddb13ed3948da58ec1c6756693d04bb92190b635c44ae09060800160405180910390a4600180559c9b505050505050505050505050565b61070282826123bf565b6123558282610c4b565b156107025760008281526097602090815260408083206001600160a01b0385168085529252808320805460ff1916905551339285917ff6391f5c32d9c69d2a47ea670b442974b53935d1edc7fd64eb21e047a839171b9190a45050565b6123bc81336126b1565b50565b6123c98282610c4b565b6107025760008281526097602090815260408083206001600160a01b03851684529091529020805460ff191660011790556124013390565b6001600160a01b0316816001600160a01b0316837f2f8788117e7eff1d82e926ec794901d17c78024a50270940304540a733656f0d60405160405180910390a45050565b60008054610100900460ff161561248c578160ff1660011480156124685750303b155b6124845760405162461bcd60e51b81526004016104d290612dfd565b506000919050565b60005460ff8084169116106124b35760405162461bcd60e51b81526004016104d290612dfd565b506000805460ff191660ff92909216919091179055600190565b606060006124dc836002612c6c565b6124e7906002612db7565b67ffffffffffffffff8111156124ff576124ff612cad565b6040519080825280601f01601f191660200182016040528015612529576020820181803683370190505b509050600360fc1b8160008151811061254457612544612e4b565b60200101906001600160f81b031916908160001a905350600f60fb1b8160018151811061257357612573612e4b565b60200101906001600160f81b031916908160001a9053506000612597846002612c6c565b6125a2906001612db7565b90505b600181111561261a576f181899199a1a9b1b9c1cb0b131b232b360811b85600f16601081106125d6576125d6612e4b565b1a60f81b8282815181106125ec576125ec612e4b565b60200101906001600160f81b031916908160001a90535060049490941c9361261381612e61565b90506125a5565b5083156126695760405162461bcd60e51b815260206004820181905260248201527f537472696e67733a20686578206c656e67746820696e73756666696369656e7460448201526064016104d2565b9392505050565b600061267b83612715565b925061268682612715565b91508151835114612699575060006104a2565b818051906020012083805190602001201490506104a2565b6126bb8282610c4b565b610702576126d3816001600160a01b03166014612878565b6126de836020612878565b6040516020016126ef929190612e78565b60408051601f198184030181529082905262461bcd60e51b82526104d291600401612eed565b606060008290506000815167ffffffffffffffff81111561273857612738612cad565b6040519080825280601f01601f191660200182016040528015612762576020820181803683370190505b50905060005b825181101561287057604183828151811061278557612785612e4b565b016020015160f81c108015906127b55750605a8382815181106127aa576127aa612e4b565b016020015160f81c11155b15612817578281815181106127cc576127cc612e4b565b602001015160f81c60f81b60f81c60206127e69190612f20565b60f81b8282815181106127fb576127fb612e4b565b60200101906001600160f81b031916908160001a90535061285e565b82818151811061282957612829612e4b565b602001015160f81c60f81b82828151811061284657612846612e4b565b60200101906001600160f81b031916908160001a9053505b8061286881612f45565b915050612768565b509392505050565b60606000612887836002612c6c565b612892906002612db7565b67ffffffffffffffff8111156128aa576128aa612cad565b6040519080825280601f01601f1916602001820160405280156128d4576020820181803683370190505b509050600360fc1b816000815181106128ef576128ef612e4b565b60200101906001600160f81b031916908160001a905350600f60fb1b8160018151811061291e5761291e612e4b565b60200101906001600160f81b031916908160001a9053506000612942846002612c6c565b61294d906001612db7565b90505b600181111561261a576f181899199a1a9b1b9c1cb0b131b232b360811b85600f166010811061298157612981612e4b565b1a60f81b82828151811061299757612997612e4b565b60200101906001600160f81b031916908160001a90535060049490941c936129be81612e61565b9050612950565b6000602082840312156129d757600080fd5b81356001600160e01b03198116811461266957600080fd5b6001600160a01b03811681146123bc57600080fd5b600060208284031215612a1657600080fd5b8135612669816129ef565b600060208284031215612a3357600080fd5b5035919050565b60008060408385031215612a4d57600080fd5b823591506020830135612a5f816129ef565b809150509250929050565b60008060408385031215612a7d57600080fd5b8235612a88816129ef565b91506020830135612a5f816129ef565b6020808252825182820181905260009190848201906040850190845b81811015612ad057835183529284019291840191600101612ab4565b50909695505050505050565b60008060408385031215612aef57600080fd5b50508035926020909101359150565b80151581146123bc57600080fd5b60008060008060008060c08789031215612b2557600080fd5b8635612b30816129ef565b9550602087013594506040870135612b47816129ef565b9350606087013592506080870135915060a0870135612b6581612afe565b809150509295509295509295565b6020808252600d908201526c4f50455241544f525f4f4e4c5960981b604082015260600190565b6020808252600f908201526e105111149154d4d7d2539590531251608a1b604082015260600190565b6020808252601f908201527f5265656e7472616e637947756172643a207265656e7472616e742063616c6c00604082015260600190565b600060208284031215612c0c57600080fd5b5051919050565b6020808252600c908201526b1253959053125117d195539160a21b604082015260600190565b600060208284031215612c4b57600080fd5b815161266981612afe565b634e487b7160e01b600052601160045260246000fd5b6000816000190483118215151615612c8657612c86612c56565b500290565b600082612ca857634e487b7160e01b600052601260045260246000fd5b500490565b634e487b7160e01b600052604160045260246000fd5b60005b83811015612cde578181015183820152602001612cc6565b83811115612ced576000848401525b50505050565b600060208284031215612d0557600080fd5b815167ffffffffffffffff80821115612d1d57600080fd5b818401915084601f830112612d3157600080fd5b815181811115612d4357612d43612cad565b604051601f8201601f19908116603f01168101908382118183101715612d6b57612d6b612cad565b81604052828152876020848701011115612d8457600080fd5b612d95836020830160208801612cc3565b979650505050505050565b600082821015612db257612db2612c56565b500390565b60008219821115612dca57612dca612c56565b500190565b60008060408385031215612de257600080fd5b8251612ded816129ef565b6020939093015192949293505050565b6020808252602e908201527f496e697469616c697a61626c653a20636f6e747261637420697320616c72656160408201526d191e481a5b9a5d1a585b1a5e995960921b606082015260800190565b634e487b7160e01b600052603260045260246000fd5b600081612e7057612e70612c56565b506000190190565b7f416363657373436f6e74726f6c3a206163636f756e7420000000000000000000815260008351612eb0816017850160208801612cc3565b7001034b99036b4b9b9b4b733903937b6329607d1b6017918401918201528351612ee1816028840160208801612cc3565b01602801949350505050565b6020815260008251806020840152612f0c816040850160208701612cc3565b601f01601f19169190910160400192915050565b600060ff821660ff84168060ff03821115612f3d57612f3d612c56565b019392505050565b6000600019821415612f5957612f59612c56565b506001019056fea2646970667358221220f9432e7c8cdf983b4d9b527289ac339be4b52b38535bf85ec9841154fe32c92164736f6c634300080c0033",
  "linkReferences": {},
  "deployedLinkReferences": {}
}