{
  "_format": "hh-sol-artifact-1",
  "contractName": "ERC1155TradableForRockCrossChain",
  "sourceName": "contracts/utils/ERC1155TradableForRockCrossChain.sol",
  "abi": [
    {
      "anonymous": false,
      "inputs": [
        {
          "indexed": true,
          "internalType": "address",
          "name": "account",
          "type": "address"
        },
        {
          "indexed": true,
          "internalType": "address",
          "name": "operator",
          "type": "address"
        },
        {
          "indexed": false,
          "internalType": "bool",
          "name": "approved",
          "type": "bool"
        }
      ],
      "name": "ApprovalForAll",
      "type": "event"
    },
    {
      "anonymous": false,
      "inputs": [
        {
          "indexed": false,
          "internalType": "uint8",
          "name": "version",
          "type": "uint8"
        }
      ],
      "name": "Initialized",
      "type": "event"
    },
    {
      "anonymous": false,
      "inputs": [
        {
          "indexed": false,
          "internalType": "address",
          "name": "_to",
          "type": "address"
        },
        {
          "indexed": false,
          "internalType": "uint256",
          "name": "_id",
          "type": "uint256"
        },
        {
          "indexed": false,
          "internalType": "uint256",
          "name": "_quantity",
          "type": "uint256"
        }
      ],
      "name": "MintEvent",
      "type": "event"
    },
    {
      "anonymous": false,
      "inputs": [
        {
          "indexed": false,
          "internalType": "address",
          "name": "account",
          "type": "address"
        }
      ],
      "name": "Paused",
      "type": "event"
    },
    {
      "anonymous": false,
      "inputs": [
        {
          "indexed": true,
          "internalType": "bytes32",
          "name": "role",
          "type": "bytes32"
        },
        {
          "indexed": true,
          "internalType": "bytes32",
          "name": "previousAdminRole",
          "type": "bytes32"
        },
        {
          "indexed": true,
          "internalType": "bytes32",
          "name": "newAdminRole",
          "type": "bytes32"
        }
      ],
      "name": "RoleAdminChanged",
      "type": "event"
    },
    {
      "anonymous": false,
      "inputs": [
        {
          "indexed": true,
          "internalType": "bytes32",
          "name": "role",
          "type": "bytes32"
        },
        {
          "indexed": true,
          "internalType": "address",
          "name": "account",
          "type": "address"
        },
        {
          "indexed": true,
          "internalType": "address",
          "name": "sender",
          "type": "address"
        }
      ],
      "name": "RoleGranted",
      "type": "event"
    },
    {
      "anonymous": false,
      "inputs": [
        {
          "indexed": true,
          "internalType": "bytes32",
          "name": "role",
          "type": "bytes32"
        },
        {
          "indexed": true,
          "internalType": "address",
          "name": "account",
          "type": "address"
        },
        {
          "indexed": true,
          "internalType": "address",
          "name": "sender",
          "type": "address"
        }
      ],
      "name": "RoleRevoked",
      "type": "event"
    },
    {
      "anonymous": false,
      "inputs": [
        {
          "indexed": true,
          "internalType": "address",
          "name": "operator",
          "type": "address"
        },
        {
          "indexed": true,
          "internalType": "address",
          "name": "from",
          "type": "address"
        },
        {
          "indexed": true,
          "internalType": "address",
          "name": "to",
          "type": "address"
        },
        {
          "indexed": false,
          "internalType": "uint256[]",
          "name": "ids",
          "type": "uint256[]"
        },
        {
          "indexed": false,
          "internalType": "uint256[]",
          "name": "values",
          "type": "uint256[]"
        }
      ],
      "name": "TransferBatch",
      "type": "event"
    },
    {
      "anonymous": false,
      "inputs": [
        {
          "indexed": true,
          "internalType": "address",
          "name": "operator",
          "type": "address"
        },
        {
          "indexed": true,
          "internalType": "address",
          "name": "from",
          "type": "address"
        },
        {
          "indexed": true,
          "internalType": "address",
          "name": "to",
          "type": "address"
        },
        {
          "indexed": false,
          "internalType": "uint256",
          "name": "id",
          "type": "uint256"
        },
        {
          "indexed": false,
          "internalType": "uint256",
          "name": "value",
          "type": "uint256"
        }
      ],
      "name": "TransferSingle",
      "type": "event"
    },
    {
      "anonymous": false,
      "inputs": [
        {
          "indexed": false,
          "internalType": "string",
          "name": "value",
          "type": "string"
        },
        {
          "indexed": true,
          "internalType": "uint256",
          "name": "id",
          "type": "uint256"
        }
      ],
      "name": "URI",
      "type": "event"
    },
    {
      "anonymous": false,
      "inputs": [
        {
          "indexed": false,
          "internalType": "address",
          "name": "account",
          "type": "address"
        }
      ],
      "name": "Unpaused",
      "type": "event"
    },
    {
      "inputs": [],
      "name": "CREATOR_ROLE",
      "outputs": [
        {
          "internalType": "bytes32",
          "name": "",
          "type": "bytes32"
        }
      ],
      "stateMutability": "view",
      "type": "function"
    },
    {
      "inputs": [],
      "name": "DEFAULT_ADMIN_ROLE",
      "outputs": [
        {
          "internalType": "bytes32",
          "name": "",
          "type": "bytes32"
        }
      ],
      "stateMutability": "view",
      "type": "function"
    },
    {
      "inputs": [],
      "name": "MINTER_ROLE",
      "outputs": [
        {
          "internalType": "bytes32",
          "name": "",
          "type": "bytes32"
        }
      ],
      "stateMutability": "view",
      "type": "function"
    },
    {
      "inputs": [],
      "name": "OPERATOR_ROLE",
      "outputs": [
        {
          "internalType": "bytes32",
          "name": "",
          "type": "bytes32"
        }
      ],
      "stateMutability": "view",
      "type": "function"
    },
    {
      "inputs": [],
      "name": "PAUSER_ROLE",
      "outputs": [
        {
          "internalType": "bytes32",
          "name": "",
          "type": "bytes32"
        }
      ],
      "stateMutability": "view",
      "type": "function"
    },
    {
      "inputs": [],
      "name": "admin",
      "outputs": [
        {
          "internalType": "address",
          "name": "",
          "type": "address"
        }
      ],
      "stateMutability": "view",
      "type": "function"
    },
    {
      "inputs": [
        {
          "internalType": "address",
          "name": "account",
          "type": "address"
        },
        {
          "internalType": "uint256",
          "name": "id",
          "type": "uint256"
        }
      ],
      "name": "balanceOf",
      "outputs": [
        {
          "internalType": "uint256",
          "name": "",
          "type": "uint256"
        }
      ],
      "stateMutability": "view",
      "type": "function"
    },
    {
      "inputs": [
        {
          "internalType": "address[]",
          "name": "accounts",
          "type": "address[]"
        },
        {
          "internalType": "uint256[]",
          "name": "ids",
          "type": "uint256[]"
        }
      ],
      "name": "balanceOfBatch",
      "outputs": [
        {
          "internalType": "uint256[]",
          "name": "",
          "type": "uint256[]"
        }
      ],
      "stateMutability": "view",
      "type": "function"
    },
    {
      "inputs": [
        {
          "internalType": "address",
          "name": "account",
          "type": "address"
        },
        {
          "internalType": "uint256",
          "name": "id",
          "type": "uint256"
        },
        {
          "internalType": "uint256",
          "name": "value",
          "type": "uint256"
        }
      ],
      "name": "burn",
      "outputs": [],
      "stateMutability": "nonpayable",
      "type": "function"
    },
    {
      "inputs": [
        {
          "internalType": "address",
          "name": "account",
          "type": "address"
        },
        {
          "internalType": "uint256[]",
          "name": "ids",
          "type": "uint256[]"
        },
        {
          "internalType": "uint256[]",
          "name": "values",
          "type": "uint256[]"
        }
      ],
      "name": "burnBatch",
      "outputs": [],
      "stateMutability": "nonpayable",
      "type": "function"
    },
    {
      "inputs": [
        {
          "internalType": "address",
          "name": "_newAdmin",
          "type": "address"
        }
      ],
      "name": "changeAdmin",
      "outputs": [],
      "stateMutability": "nonpayable",
      "type": "function"
    },
    {
      "inputs": [
        {
          "internalType": "address",
          "name": "_newOperator",
          "type": "address"
        }
      ],
      "name": "changeOperator",
      "outputs": [],
      "stateMutability": "nonpayable",
      "type": "function"
    },
    {
      "inputs": [
        {
          "internalType": "uint256",
          "name": "",
          "type": "uint256"
        }
      ],
      "name": "creators",
      "outputs": [
        {
          "internalType": "address",
          "name": "",
          "type": "address"
        }
      ],
      "stateMutability": "view",
      "type": "function"
    },
    {
      "inputs": [
        {
          "internalType": "uint256",
          "name": "_id",
          "type": "uint256"
        }
      ],
      "name": "exists",
      "outputs": [
        {
          "internalType": "bool",
          "name": "",
          "type": "bool"
        }
      ],
      "stateMutability": "view",
      "type": "function"
    },
    {
      "inputs": [
        {
          "internalType": "uint256",
          "name": "id",
          "type": "uint256"
        }
      ],
      "name": "getCreator",
      "outputs": [
        {
          "internalType": "address",
          "name": "sender",
          "type": "address"
        }
      ],
      "stateMutability": "view",
      "type": "function"
    },
    {
      "inputs": [
        {
          "internalType": "bytes32",
          "name": "role",
          "type": "bytes32"
        }
      ],
      "name": "getRoleAdmin",
      "outputs": [
        {
          "internalType": "bytes32",
          "name": "",
          "type": "bytes32"
        }
      ],
      "stateMutability": "view",
      "type": "function"
    },
    {
      "inputs": [
        {
          "internalType": "bytes32",
          "name": "role",
          "type": "bytes32"
        },
        {
          "internalType": "uint256",
          "name": "index",
          "type": "uint256"
        }
      ],
      "name": "getRoleMember",
      "outputs": [
        {
          "internalType": "address",
          "name": "",
          "type": "address"
        }
      ],
      "stateMutability": "view",
      "type": "function"
    },
    {
      "inputs": [
        {
          "internalType": "bytes32",
          "name": "role",
          "type": "bytes32"
        }
      ],
      "name": "getRoleMemberCount",
      "outputs": [
        {
          "internalType": "uint256",
          "name": "",
          "type": "uint256"
        }
      ],
      "stateMutability": "view",
      "type": "function"
    },
    {
      "inputs": [
        {
          "internalType": "bytes32",
          "name": "role",
          "type": "bytes32"
        },
        {
          "internalType": "address",
          "name": "account",
          "type": "address"
        }
      ],
      "name": "grantRole",
      "outputs": [],
      "stateMutability": "nonpayable",
      "type": "function"
    },
    {
      "inputs": [
        {
          "internalType": "bytes32",
          "name": "role",
          "type": "bytes32"
        },
        {
          "internalType": "address",
          "name": "account",
          "type": "address"
        }
      ],
      "name": "hasRole",
      "outputs": [
        {
          "internalType": "bool",
          "name": "",
          "type": "bool"
        }
      ],
      "stateMutability": "view",
      "type": "function"
    },
    {
      "inputs": [
        {
          "internalType": "string",
          "name": "_name",
          "type": "string"
        },
        {
          "internalType": "string",
          "name": "_symbol",
          "type": "string"
        },
        {
          "internalType": "string",
          "name": "_uri",
          "type": "string"
        },
        {
          "internalType": "address",
          "name": "_admin",
          "type": "address"
        },
        {
          "internalType": "address",
          "name": "_operator",
          "type": "address"
        }
      ],
      "name": "initialize",
      "outputs": [],
      "stateMutability": "nonpayable",
      "type": "function"
    },
    {
      "inputs": [
        {
          "internalType": "string",
          "name": "uri",
          "type": "string"
        }
      ],
      "name": "initialize",
      "outputs": [],
      "stateMutability": "nonpayable",
      "type": "function"
    },
    {
      "inputs": [
        {
          "internalType": "address",
          "name": "_owner",
          "type": "address"
        },
        {
          "internalType": "address",
          "name": "_operator",
          "type": "address"
        }
      ],
      "name": "isApprovedForAll",
      "outputs": [
        {
          "internalType": "bool",
          "name": "isOperator",
          "type": "bool"
        }
      ],
      "stateMutability": "view",
      "type": "function"
    },
    {
      "inputs": [
        {
          "internalType": "address",
          "name": "_to",
          "type": "address"
        },
        {
          "internalType": "uint256",
          "name": "_id",
          "type": "uint256"
        },
        {
          "internalType": "uint256",
          "name": "_quantity",
          "type": "uint256"
        },
        {
          "internalType": "bytes",
          "name": "_data",
          "type": "bytes"
        }
      ],
      "name": "mint",
      "outputs": [],
      "stateMutability": "nonpayable",
      "type": "function"
    },
    {
      "inputs": [
        {
          "internalType": "address",
          "name": "to",
          "type": "address"
        },
        {
          "internalType": "uint256[]",
          "name": "ids",
          "type": "uint256[]"
        },
        {
          "internalType": "uint256[]",
          "name": "amounts",
          "type": "uint256[]"
        },
        {
          "internalType": "bytes",
          "name": "data",
          "type": "bytes"
        }
      ],
      "name": "mintBatch",
      "outputs": [],
      "stateMutability": "nonpayable",
      "type": "function"
    },
    {
      "inputs": [],
      "name": "name",
      "outputs": [
        {
          "internalType": "string",
          "name": "",
          "type": "string"
        }
      ],
      "stateMutability": "view",
      "type": "function"
    },
    {
      "inputs": [],
      "name": "operator",
      "outputs": [
        {
          "internalType": "address",
          "name": "",
          "type": "address"
        }
      ],
      "stateMutability": "view",
      "type": "function"
    },
    {
      "inputs": [],
      "name": "pause",
      "outputs": [],
      "stateMutability": "nonpayable",
      "type": "function"
    },
    {
      "inputs": [],
      "name": "paused",
      "outputs": [
        {
          "internalType": "bool",
          "name": "",
          "type": "bool"
        }
      ],
      "stateMutability": "view",
      "type": "function"
    },
    {
      "inputs": [],
      "name": "proxyRegistryAddress",
      "outputs": [
        {
          "internalType": "address",
          "name": "",
          "type": "address"
        }
      ],
      "stateMutability": "view",
      "type": "function"
    },
    {
      "inputs": [
        {
          "internalType": "bytes32",
          "name": "role",
          "type": "bytes32"
        },
        {
          "internalType": "address",
          "name": "account",
          "type": "address"
        }
      ],
      "name": "renounceRole",
      "outputs": [],
      "stateMutability": "nonpayable",
      "type": "function"
    },
    {
      "inputs": [
        {
          "internalType": "bytes32",
          "name": "role",
          "type": "bytes32"
        },
        {
          "internalType": "address",
          "name": "account",
          "type": "address"
        }
      ],
      "name": "revokeRole",
      "outputs": [],
      "stateMutability": "nonpayable",
      "type": "function"
    },
    {
      "inputs": [
        {
          "internalType": "uint256",
          "name": "_tokenId",
          "type": "uint256"
        },
        {
          "internalType": "uint256",
          "name": "_salePrice",
          "type": "uint256"
        }
      ],
      "name": "royaltyInfo",
      "outputs": [
        {
          "internalType": "address",
          "name": "receiver",
          "type": "address"
        },
        {
          "internalType": "uint256",
          "name": "royaltyAmount",
          "type": "uint256"
        }
      ],
      "stateMutability": "view",
      "type": "function"
    },
    {
      "inputs": [
        {
          "internalType": "address",
          "name": "from",
          "type": "address"
        },
        {
          "internalType": "address",
          "name": "to",
          "type": "address"
        },
        {
          "internalType": "uint256[]",
          "name": "ids",
          "type": "uint256[]"
        },
        {
          "internalType": "uint256[]",
          "name": "amounts",
          "type": "uint256[]"
        },
        {
          "internalType": "bytes",
          "name": "data",
          "type": "bytes"
        }
      ],
      "name": "safeBatchTransferFrom",
      "outputs": [],
      "stateMutability": "nonpayable",
      "type": "function"
    },
    {
      "inputs": [
        {
          "internalType": "address",
          "name": "from",
          "type": "address"
        },
        {
          "internalType": "address",
          "name": "to",
          "type": "address"
        },
        {
          "internalType": "uint256",
          "name": "id",
          "type": "uint256"
        },
        {
          "internalType": "uint256",
          "name": "amount",
          "type": "uint256"
        },
        {
          "internalType": "bytes",
          "name": "data",
          "type": "bytes"
        }
      ],
      "name": "safeTransferFrom",
      "outputs": [],
      "stateMutability": "nonpayable",
      "type": "function"
    },
    {
      "inputs": [
        {
          "internalType": "address",
          "name": "operator",
          "type": "address"
        },
        {
          "internalType": "bool",
          "name": "approved",
          "type": "bool"
        }
      ],
      "name": "setApprovalForAll",
      "outputs": [],
      "stateMutability": "nonpayable",
      "type": "function"
    },
    {
      "inputs": [
        {
          "internalType": "uint256",
          "name": "_tokenId",
          "type": "uint256"
        },
        {
          "internalType": "string",
          "name": "_newURI",
          "type": "string"
        }
      ],
      "name": "setCustomURI",
      "outputs": [],
      "stateMutability": "nonpayable",
      "type": "function"
    },
    {
      "inputs": [
        {
          "internalType": "address",
          "name": "_proxyRegistryAddress",
          "type": "address"
        }
      ],
      "name": "setProxyRegistryAddress",
      "outputs": [],
      "stateMutability": "nonpayable",
      "type": "function"
    },
    {
      "inputs": [
        {
          "internalType": "bytes4",
          "name": "interfaceId",
          "type": "bytes4"
        }
      ],
      "name": "supportsInterface",
      "outputs": [
        {
          "internalType": "bool",
          "name": "",
          "type": "bool"
        }
      ],
      "stateMutability": "view",
      "type": "function"
    },
    {
      "inputs": [],
      "name": "symbol",
      "outputs": [
        {
          "internalType": "string",
          "name": "",
          "type": "string"
        }
      ],
      "stateMutability": "view",
      "type": "function"
    },
    {
      "inputs": [],
      "name": "unpause",
      "outputs": [],
      "stateMutability": "nonpayable",
      "type": "function"
    },
    {
      "inputs": [
        {
          "internalType": "uint256",
          "name": "_id",
          "type": "uint256"
        }
      ],
      "name": "uri",
      "outputs": [
        {
          "internalType": "string",
          "name": "",
          "type": "string"
        }
      ],
      "stateMutability": "view",
      "type": "function"
    },
    {
      "inputs": [
        {
          "internalType": "address",
          "name": "_to",
          "type": "address"
        }
      ],
      "name": "withdraw",
      "outputs": [],
      "stateMutability": "nonpayable",
      "type": "function"
    }
  ],
  "bytecode": "0x608060405234801561001057600080fd5b50613d6b806100206000396000f3fe608060405234801561001057600080fd5b50600436106102685760003560e01c80638aeda25a11610151578063d48e638a116100c3578063e985e9c511610087578063e985e9c5146105aa578063f242432a146105bd578063f5298aca146105d0578063f5b541a6146105e3578063f62d1888146105f8578063f851a4401461060b57600080fd5b8063d48e638a14610530578063d53913931461055a578063d547741f1461056f578063d6d0faee14610582578063e63ab1e91461059557600080fd5b8063a217fddf11610115578063a217fddf146104b1578063a22cb465146104b9578063ca15c873146104cc578063cd53d08e146104df578063cd7c032614610509578063d26ea6c01461051d57600080fd5b80638aeda25a1461045b5780638f283970146104705780639010d07c1461048357806391d148541461049657806395d89b41146104a957600080fd5b806336568abe116101ea57806351cff8d9116101ae57806351cff8d9146103e2578063570ca735146103f55780635c975abb146104215780636b20c4541461042d578063731133e9146104405780638456cb591461045357600080fd5b806336568abe146103815780633adf80b4146103945780633f4ba83a146103a75780634e1273f4146103af5780634f558e79146103cf57600080fd5b80631f7fdffa116102315780631f7fdffa146102f3578063248a9ca3146103065780632a55205a146103295780632eb2c2d61461035b5780632f2ff15d1461036e57600080fd5b8062fdd58e1461026d57806301ffc9a71461029357806306394c9b146102b657806306fdde03146102cb5780630e89341c146102e0575b600080fd5b61028061027b366004612e97565b61061f565b6040519081526020015b60405180910390f35b6102a66102a1366004612ed9565b6106bb565b604051901515815260200161028a565b6102c96102c4366004612ef6565b6106e0565b005b6102d36108b9565b60405161028a9190612f6b565b6102d36102ee366004612f7e565b610948565b6102c96103013660046130e0565b610afe565b610280610314366004612f7e565b60009081526065602052604090206001015490565b61033c61033736600461317a565b610b9c565b604080516001600160a01b03909316835260208301919091520161028a565b6102c961036936600461319c565b610bd8565b6102c961037c366004613249565b610c81565b6102c961038f366004613249565b610cab565b6102c96103a2366004613279565b610d35565b6102c9610e0c565b6103c26103bd3660046132bf565b610ea2565b60405161028a91906133bc565b6102a66103dd366004612f7e565b610fcb565b6102c96103f0366004612ef6565b610feb565b6101f654610409906001600160a01b031681565b6040516001600160a01b03909116815260200161028a565b61012d5460ff166102a6565b6102c961043b3660046133cf565b61117c565b6102c961044e366004613444565b6111d1565b6102c9611214565b610280600080516020613cb683398151915281565b6102c961047e366004612ef6565b6112a8565b61040961049136600461317a565b6113a9565b6102a66104a4366004613249565b6113c1565b6102d36113ec565b610280600081565b6102c96104c736600461349a565b6113fa565b6102806104da366004612f7e565b61140c565b6104096104ed366004612f7e565b6101f8602052600090815260409020546001600160a01b031681565b6101f754610409906001600160a01b031681565b6102c961052b366004612ef6565b611423565b61040961053e366004612f7e565b60009081526101f860205260409020546001600160a01b031690565b610280600080516020613d1683398151915281565b6102c961057d366004613249565b611546565b6102c96105903660046134cd565b61156b565b610280600080516020613cf683398151915281565b6102a66105b836600461357c565b61174e565b6102c96105cb3660046135aa565b611820565b6102c96105de366004613612565b611877565b610280600080516020613cd683398151915281565b6102c9610606366004613647565b6118cc565b6101f554610409906001600160a01b031681565b60006001600160a01b0383166106905760405162461bcd60e51b815260206004820152602b60248201527f455243313135353a2062616c616e636520717565727920666f7220746865207a60448201526a65726f206164647265737360a81b60648201526084015b60405180910390fd5b50600081815260c9602090815260408083206001600160a01b03861684529091529020545b92915050565b60006001600160e01b03198216636a4731c560e11b14806106b557506106b582611942565b6101f5546001600160a01b03166106f561194d565b6001600160a01b03161461071b5760405162461bcd60e51b815260040161068790613683565b61072860006104a461194d565b6107445760405162461bcd60e51b815260040161068790613683565b6101f5546001600160a01b031661075961194d565b6001600160a01b03161461077f5760405162461bcd60e51b8152600401610687906136a7565b61078c60006104a461194d565b6107a85760405162461bcd60e51b8152600401610687906136a7565b6101f680546001600160a01b038381166001600160a01b03198316811790935516906107e390600080516020613cd683398151915290610c81565b6101f65461080990600080516020613cb6833981519152906001600160a01b0316610c81565b6101f65461082f90600080516020613d16833981519152906001600160a01b0316610c81565b6101f65461085590600080516020613cf6833981519152906001600160a01b0316610c81565b61086d600080516020613cd683398151915282611546565b610885600080516020613cb683398151915282611546565b61089d600080516020613d1683398151915282611546565b6108b5600080516020613cf683398151915282611546565b5050565b6101fa80546108c7906136ca565b80601f01602080910402602001604051908101604052809291908181526020018280546108f3906136ca565b80156109405780601f1061091557610100808354040283529160200191610940565b820191906000526020600020905b81548152906001019060200180831161092357829003601f168201915b505050505081565b60008181526101f860205260409020546060906001600160a01b03166109a45760405162461bcd60e51b81526020600482015260116024820152702727a722ac24a9aa22a72a2faa27a5a2a760791b6044820152606401610687565b60008281526101f96020526040812080546109be906136ca565b80601f01602080910402602001604051908101604052809291908181526020018280546109ea906136ca565b8015610a375780601f10610a0c57610100808354040283529160200191610a37565b820191906000526020600020905b815481529060010190602001808311610a1a57829003601f168201915b50505050509050600081511115610ae85760008381526101f9602052604090208054610a62906136ca565b80601f0160208091040260200160405190810160405280929190818152602001828054610a8e906136ca565b8015610adb5780601f10610ab057610100808354040283529160200191610adb565b820191906000526020600020905b815481529060010190602001808311610abe57829003601f168201915b5050505050915050919050565b610af18361195c565b9392505050565b50919050565b610b18600080516020613d168339815191526104a461194d565b610b8a5760405162461bcd60e51b815260206004820152603860248201527f455243313135355072657365744d696e7465725061757365723a206d7573742060448201527f68617665206d696e74657220726f6c6520746f206d696e7400000000000000006064820152608401610687565b610b96848484846119f0565b50505050565b60008281526101f860205260408120546001600160a01b031690612710610bc5846101f4613715565b610bcf9190613734565b90509250929050565b610be061194d565b6001600160a01b0316856001600160a01b03161480610c065750610c06856105b861194d565b610c6d5760405162461bcd60e51b815260206004820152603260248201527f455243313135353a207472616e736665722063616c6c6572206973206e6f74206044820152711bdddb995c881b9bdc88185c1c1c9bdd995960721b6064820152608401610687565b610c7a8585858585611b90565b5050505050565b600082815260656020526040902060010154610c9c81611d40565b610ca68383611d54565b505050565b610cb361194d565b6001600160a01b0316816001600160a01b031614610d2b5760405162461bcd60e51b815260206004820152602f60248201527f416363657373436f6e74726f6c3a2063616e206f6e6c792072656e6f756e636560448201526e103937b632b9903337b91039b2b63360891b6064820152608401610687565b6108b58282611d76565b81610d3e61194d565b60008281526101f860205260409020546001600160a01b03908116911614610d785760405162461bcd60e51b815260040161068790613756565b610d92600080516020613cb68339815191526104a461194d565b610dae5760405162461bcd60e51b815260040161068790613756565b60008381526101f9602090815260409091208351610dce92850190612de9565b50827f6bb7ff708619ba0610cba295a58592e0451dee2622938c8755667688daf3529b83604051610dff9190612f6b565b60405180910390a2505050565b610e26600080516020613cf68339815191526104a461194d565b610e985760405162461bcd60e51b815260206004820152603b60248201527f455243313135355072657365744d696e7465725061757365723a206d7573742060448201527f686176652070617573657220726f6c6520746f20756e706175736500000000006064820152608401610687565b610ea0611d98565b565b60608151835114610f075760405162461bcd60e51b815260206004820152602960248201527f455243313135353a206163636f756e747320616e6420696473206c656e677468604482015268040dad2e6dac2e8c6d60bb1b6064820152608401610687565b600083516001600160401b03811115610f2257610f22612f97565b604051908082528060200260200182016040528015610f4b578160200160208202803683370190505b50905060005b8451811015610fc357610f96858281518110610f6f57610f6f61377c565b6020026020010151858381518110610f8957610f8961377c565b602002602001015161061f565b828281518110610fa857610fa861377c565b6020908102919091010152610fbc81613792565b9050610f51565b509392505050565b60008181526101f860205260408120546001600160a01b031615156106b5565b60026101c354141561103f5760405162461bcd60e51b815260206004820152601f60248201527f5265656e7472616e637947756172643a207265656e7472616e742063616c6c006044820152606401610687565b60026101c3556101f5546001600160a01b031661105a61194d565b6001600160a01b0316146110805760405162461bcd60e51b815260040161068790613683565b61108d60006104a461194d565b6110a95760405162461bcd60e51b815260040161068790613683565b600047116110e65760405162461bcd60e51b815260206004820152600a60248201526909c9ea8be8a9c9eaa8e960b31b6044820152606401610687565b6000816001600160a01b03164760405160006040518083038185875af1925050503d8060008114611133576040519150601f19603f3d011682016040523d82523d6000602084013e611138565b606091505b50509050806111725760405162461bcd60e51b8152600401610687906020808252600490820152631190525360e21b604082015260600190565b505060016101c355565b61118461194d565b6001600160a01b0316836001600160a01b031614806111aa57506111aa836105b861194d565b6111c65760405162461bcd60e51b8152600401610687906137ad565b610ca6838383611e33565b826111da61194d565b60008281526101f860205260409020546001600160a01b03908116911614610c7a5760405162461bcd60e51b815260040161068790613756565b61122e600080516020613cf68339815191526104a461194d565b6112a05760405162461bcd60e51b815260206004820152603960248201527f455243313135355072657365744d696e7465725061757365723a206d7573742060448201527f686176652070617573657220726f6c6520746f207061757365000000000000006064820152608401610687565b610ea0611fd9565b6101f5546001600160a01b03166112bd61194d565b6001600160a01b0316146112e35760405162461bcd60e51b815260040161068790613683565b6112f060006104a461194d565b61130c5760405162461bcd60e51b815260040161068790613683565b6101f5546001600160a01b031661132161194d565b6001600160a01b0316146113475760405162461bcd60e51b8152600401610687906136a7565b61135460006104a461194d565b6113705760405162461bcd60e51b8152600401610687906136a7565b6101f580546001600160a01b038381166001600160a01b031983168117909355169061139e90600090610c81565b6108b5600082611546565b6000828152609760205260408120610af19083612057565b60009182526065602090815260408084206001600160a01b0393909316845291905290205460ff1690565b6101fb80546108c7906136ca565b6108b561140561194d565b8383612063565b60008181526097602052604081206106b590612144565b6101f6546001600160a01b031661143861194d565b6001600160a01b03161461147e5760405162461bcd60e51b815260206004820152600d60248201526c27a7262cafa7a822a920aa27a960991b6044820152606401610687565b611498600080516020613cd68339815191526104a461194d565b6114d45760405162461bcd60e51b815260206004820152600d60248201526c27a7262cafa7a822a920aa27a960991b6044820152606401610687565b6101f7546001600160a01b03828116911614156115235760405162461bcd60e51b815260206004820152600d60248201526c141493d61657d2539590531251609a1b6044820152606401610687565b6101f780546001600160a01b0319166001600160a01b0392909216919091179055565b60008281526065602052604090206001015461156181611d40565b610ca68383611d76565b6000611577600161214e565b9050801561158f576000805461ff0019166101001790555b611598846121d6565b85516115ac906101fa906020890190612de9565b5084516115c1906101fb906020880190612de9565b506101f780546001600160a01b03199081169091556101f580546001600160a01b0386169216821790556115f790600090610c81565b6101f680546001600160a01b0319166001600160a01b03841690811790915561162f90600080516020613cd683398151915290610c81565b6101f65461165590600080516020613cb6833981519152906001600160a01b0316610c81565b6101f65461167b90600080516020613d16833981519152906001600160a01b0316610c81565b6101f6546116a190600080516020613cf6833981519152906001600160a01b0316610c81565b6116a961194d565b6101f5546001600160a01b03908116911614611700576116d9600080516020613d1683398151915261057d61194d565b6116f3600080516020613cf683398151915261057d61194d565b611700600061057d61194d565b8015611746576000805461ff0019169055604051600181527f7f26b83ff96e1f2b6a682f133852f6798a09c465da95921460cefb38474024989060200160405180910390a15b505050505050565b6101f7546000906001600160a01b0316156117f2576101f75460405163c455279160e01b81526001600160a01b03858116600483015291821691841690829063c455279190602401602060405180830381865afa1580156117b3573d6000803e3d6000fd5b505050506040513d601f19601f820116820180604052508101906117d791906137f6565b6001600160a01b031614156117f05760019150506106b5565b505b6001600160a01b03808416600090815260ca602090815260408083209386168352929052205460ff16610af1565b61182861194d565b6001600160a01b0316856001600160a01b0316148061184e575061184e856105b861194d565b61186a5760405162461bcd60e51b8152600401610687906137ad565b610c7a8585858585612217565b61187f61194d565b6001600160a01b0316836001600160a01b031614806118a557506118a5836105b861194d565b6118c15760405162461bcd60e51b8152600401610687906137ad565b610ca683838361235e565b60006118d8600161214e565b905080156118f0576000805461ff0019166101001790555b6118f9826121d6565b80156108b5576000805461ff0019169055604051600181527f7f26b83ff96e1f2b6a682f133852f6798a09c465da95921460cefb38474024989060200160405180910390a15050565b60006106b58261248a565b60006119576124ca565b905090565b606060cb805461196b906136ca565b80601f0160208091040260200160405190810160405280929190818152602001828054611997906136ca565b80156119e45780601f106119b9576101008083540402835291602001916119e4565b820191906000526020600020905b8154815290600101906020018083116119c757829003601f168201915b50505050509050919050565b6001600160a01b038416611a505760405162461bcd60e51b815260206004820152602160248201527f455243313135353a206d696e7420746f20746865207a65726f206164647265736044820152607360f81b6064820152608401610687565b8151835114611a715760405162461bcd60e51b815260040161068790613813565b6000611a7b61194d565b9050611a8c81600087878787612527565b60005b8451811015611b2857838181518110611aaa57611aaa61377c565b602002602001015160c96000878481518110611ac857611ac861377c565b602002602001015181526020019081526020016000206000886001600160a01b03166001600160a01b031681526020019081526020016000206000828254611b10919061385b565b90915550819050611b2081613792565b915050611a8f565b50846001600160a01b031660006001600160a01b0316826001600160a01b03167f4a39dc06d4c0dbc64b70af90fd698a233a518aa5d07e595d983b8c0526c8f7fb8787604051611b79929190613873565b60405180910390a4610c7a81600087878787612535565b8151835114611bb15760405162461bcd60e51b815260040161068790613813565b6001600160a01b038416611bd75760405162461bcd60e51b8152600401610687906138a1565b6000611be161194d565b9050611bf1818787878787612527565b60005b8451811015611cda576000858281518110611c1157611c1161377c565b602002602001015190506000858381518110611c2f57611c2f61377c565b602090810291909101810151600084815260c9835260408082206001600160a01b038e168352909352919091205490915081811015611c805760405162461bcd60e51b8152600401610687906138e6565b600083815260c9602090815260408083206001600160a01b038e8116855292528083208585039055908b16825281208054849290611cbf90849061385b565b9250508190555050505080611cd390613792565b9050611bf4565b50846001600160a01b0316866001600160a01b0316826001600160a01b03167f4a39dc06d4c0dbc64b70af90fd698a233a518aa5d07e595d983b8c0526c8f7fb8787604051611d2a929190613873565b60405180910390a4611746818787878787612535565b611d5181611d4c61194d565b612691565b50565b611d5e82826126f5565b6000828152609760205260409020610ca6908261277c565b611d808282612791565b6000828152609760205260409020610ca69082612816565b61012d5460ff16611de25760405162461bcd60e51b815260206004820152601460248201527314185d5cd8589b194e881b9bdd081c185d5cd95960621b6044820152606401610687565b61012d805460ff191690557f5db9ee0a495bf2e6ff9c91a7834c1ba4fdd244a5e8aa4e537bd38aeae4b073aa611e1661194d565b6040516001600160a01b03909116815260200160405180910390a1565b6001600160a01b038316611e595760405162461bcd60e51b815260040161068790613930565b8051825114611e7a5760405162461bcd60e51b815260040161068790613813565b6000611e8461194d565b9050611ea481856000868660405180602001604052806000815250612527565b60005b8351811015611f6c576000848281518110611ec457611ec461377c565b602002602001015190506000848381518110611ee257611ee261377c565b602090810291909101810151600084815260c9835260408082206001600160a01b038c168352909352919091205490915081811015611f335760405162461bcd60e51b815260040161068790613973565b600092835260c9602090815260408085206001600160a01b038b1686529091529092209103905580611f6481613792565b915050611ea7565b5060006001600160a01b0316846001600160a01b0316826001600160a01b03167f4a39dc06d4c0dbc64b70af90fd698a233a518aa5d07e595d983b8c0526c8f7fb8686604051611fbd929190613873565b60405180910390a4604080516020810190915260009052610b96565b61012d5460ff16156120205760405162461bcd60e51b815260206004820152601060248201526f14185d5cd8589b194e881c185d5cd95960821b6044820152606401610687565b61012d805460ff191660011790557f62e78cea01bee320cd4e420270b5ea74000d11b0c9f74754ebdbfc544b05a258611e1661194d565b6000610af1838361282b565b816001600160a01b0316836001600160a01b031614156120d75760405162461bcd60e51b815260206004820152602960248201527f455243313135353a2073657474696e6720617070726f76616c20737461747573604482015268103337b91039b2b63360b91b6064820152608401610687565b6001600160a01b03838116600081815260ca6020908152604080832094871680845294825291829020805460ff191686151590811790915591519182527f17307eab39ab6107e8899845ad3d59bd9653f200f220920489ca2b5937696c31910160405180910390a3505050565b60006106b5825490565b60008054610100900460ff1615612195578160ff1660011480156121715750303b155b61218d5760405162461bcd60e51b8152600401610687906139b7565b506000919050565b60005460ff8084169116106121bc5760405162461bcd60e51b8152600401610687906139b7565b506000805460ff191660ff92909216919091179055600190565b600054610100900460ff166121fd5760405162461bcd60e51b815260040161068790613a05565b61220681612855565b61220e612885565b611d51816128b9565b6001600160a01b03841661223d5760405162461bcd60e51b8152600401610687906138a1565b600061224761194d565b9050600061225485612926565b9050600061226185612926565b9050612271838989858589612527565b600086815260c9602090815260408083206001600160a01b038c168452909152902054858110156122b45760405162461bcd60e51b8152600401610687906138e6565b600087815260c9602090815260408083206001600160a01b038d8116855292528083208985039055908a168252812080548892906122f390849061385b565b909155505060408051888152602081018890526001600160a01b03808b16928c821692918816917fc3d58168c5ae7397731d063d5bbf3d657854427343f4c083240f7aacaa2d0f62910160405180910390a4612353848a8a8a8a8a612971565b505050505050505050565b6001600160a01b0383166123845760405162461bcd60e51b815260040161068790613930565b600061238e61194d565b9050600061239b84612926565b905060006123a884612926565b90506123c883876000858560405180602001604052806000815250612527565b600085815260c9602090815260408083206001600160a01b038a1684529091529020548481101561240b5760405162461bcd60e51b815260040161068790613973565b600086815260c9602090815260408083206001600160a01b038b81168086529184528285208a8703905582518b81529384018a90529092908816917fc3d58168c5ae7397731d063d5bbf3d657854427343f4c083240f7aacaa2d0f62910160405180910390a46040805160208101909152600090525b50505050505050565b60006001600160e01b03198216636cdb3d1360e11b14806124bb57506001600160e01b031982166303a24d0760e21b145b806106b557506106b582612a2c565b60003330141561252157600080368080601f0160208091040260200160405190810160405280939291908181526020018383808284376000920191909152505050503601516001600160a01b031691506125249050565b50335b90565b611746868686868686612a51565b6001600160a01b0384163b156117465760405163bc197c8160e01b81526001600160a01b0385169063bc197c81906125799089908990889088908890600401613a50565b6020604051808303816000875af19250505080156125b4575060408051601f3d908101601f191682019092526125b191810190613aae565b60015b612661576125c0613acb565b806308c379a014156125fa57506125d5613ae6565b806125e057506125fc565b8060405162461bcd60e51b81526004016106879190612f6b565b505b60405162461bcd60e51b815260206004820152603460248201527f455243313135353a207472616e7366657220746f206e6f6e20455243313135356044820152732932b1b2b4bb32b91034b6b83632b6b2b73a32b960611b6064820152608401610687565b6001600160e01b0319811663bc197c8160e01b146124815760405162461bcd60e51b815260040161068790613b6f565b61269b82826113c1565b6108b5576126b3816001600160a01b03166014612aba565b6126be836020612aba565b6040516020016126cf929190613bb7565b60408051601f198184030181529082905262461bcd60e51b825261068791600401612f6b565b6126ff82826113c1565b6108b55760008281526065602090815260408083206001600160a01b03851684529091529020805460ff1916600117905561273861194d565b6001600160a01b0316816001600160a01b0316837f2f8788117e7eff1d82e926ec794901d17c78024a50270940304540a733656f0d60405160405180910390a45050565b6000610af1836001600160a01b038416612c55565b61279b82826113c1565b156108b55760008281526065602090815260408083206001600160a01b03851684529091529020805460ff191690556127d261194d565b6001600160a01b0316816001600160a01b0316837ff6391f5c32d9c69d2a47ea670b442974b53935d1edc7fd64eb21e047a839171b60405160405180910390a45050565b6000610af1836001600160a01b038416612ca4565b60008260000182815481106128425761284261377c565b9060005260206000200154905092915050565b600054610100900460ff1661287c5760405162461bcd60e51b815260040161068790613a05565b611d5181612d97565b600054610100900460ff166128ac5760405162461bcd60e51b815260040161068790613a05565b61012d805460ff19169055565b600054610100900460ff166128e05760405162461bcd60e51b815260040161068790613a05565b6128f260006128ed61194d565b612daa565b61290c600080516020613d168339815191526128ed61194d565b611d51600080516020613cf68339815191526128ed61194d565b604080516001808252818301909252606091600091906020808301908036833701905050905082816000815181106129605761296061377c565b602090810291909101015292915050565b6001600160a01b0384163b156117465760405163f23a6e6160e01b81526001600160a01b0385169063f23a6e61906129b59089908990889088908890600401613c2c565b6020604051808303816000875af19250505080156129f0575060408051601f3d908101601f191682019092526129ed91810190613aae565b60015b6129fc576125c0613acb565b6001600160e01b0319811663f23a6e6160e01b146124815760405162461bcd60e51b815260040161068790613b6f565b60006001600160e01b03198216635a05180f60e01b14806106b557506106b582612db4565b61012d5460ff16156117465760405162461bcd60e51b815260206004820152602c60248201527f455243313135355061757361626c653a20746f6b656e207472616e736665722060448201526b1dda1a5b19481c185d5cd95960a21b6064820152608401610687565b60606000612ac9836002613715565b612ad490600261385b565b6001600160401b03811115612aeb57612aeb612f97565b6040519080825280601f01601f191660200182016040528015612b15576020820181803683370190505b509050600360fc1b81600081518110612b3057612b3061377c565b60200101906001600160f81b031916908160001a905350600f60fb1b81600181518110612b5f57612b5f61377c565b60200101906001600160f81b031916908160001a9053506000612b83846002613715565b612b8e90600161385b565b90505b6001811115612c06576f181899199a1a9b1b9c1cb0b131b232b360811b85600f1660108110612bc257612bc261377c565b1a60f81b828281518110612bd857612bd861377c565b60200101906001600160f81b031916908160001a90535060049490941c93612bff81613c71565b9050612b91565b508315610af15760405162461bcd60e51b815260206004820181905260248201527f537472696e67733a20686578206c656e67746820696e73756666696369656e746044820152606401610687565b6000818152600183016020526040812054612c9c575081546001818101845560008481526020808220909301849055845484825282860190935260409020919091556106b5565b5060006106b5565b60008181526001830160205260408120548015612d8d576000612cc8600183613c88565b8554909150600090612cdc90600190613c88565b9050818114612d41576000866000018281548110612cfc57612cfc61377c565b9060005260206000200154905080876000018481548110612d1f57612d1f61377c565b6000918252602080832090910192909255918252600188019052604090208390555b8554869080612d5257612d52613c9f565b6001900381819060005260206000200160009055905585600101600086815260200190815260200160002060009055600193505050506106b5565b60009150506106b5565b80516108b59060cb906020840190612de9565b6108b58282611d54565b60006001600160e01b03198216637965db0b60e01b14806106b557506301ffc9a760e01b6001600160e01b03198316146106b5565b828054612df5906136ca565b90600052602060002090601f016020900481019282612e175760008555612e5d565b82601f10612e3057805160ff1916838001178555612e5d565b82800160010185558215612e5d579182015b82811115612e5d578251825591602001919060010190612e42565b50612e69929150612e6d565b5090565b5b80821115612e695760008155600101612e6e565b6001600160a01b0381168114611d5157600080fd5b60008060408385031215612eaa57600080fd5b8235612eb581612e82565b946020939093013593505050565b6001600160e01b031981168114611d5157600080fd5b600060208284031215612eeb57600080fd5b8135610af181612ec3565b600060208284031215612f0857600080fd5b8135610af181612e82565b60005b83811015612f2e578181015183820152602001612f16565b83811115610b965750506000910152565b60008151808452612f57816020860160208601612f13565b601f01601f19169290920160200192915050565b602081526000610af16020830184612f3f565b600060208284031215612f9057600080fd5b5035919050565b634e487b7160e01b600052604160045260246000fd5b601f8201601f191681016001600160401b0381118282101715612fd257612fd2612f97565b6040525050565b60006001600160401b03821115612ff257612ff2612f97565b5060051b60200190565b600082601f83011261300d57600080fd5b8135602061301a82612fd9565b6040516130278282612fad565b83815260059390931b850182019282810191508684111561304757600080fd5b8286015b84811015613062578035835291830191830161304b565b509695505050505050565b600082601f83011261307e57600080fd5b81356001600160401b0381111561309757613097612f97565b6040516130ae601f8301601f191660200182612fad565b8181528460208386010111156130c357600080fd5b816020850160208301376000918101602001919091529392505050565b600080600080608085870312156130f657600080fd5b843561310181612e82565b935060208501356001600160401b038082111561311d57600080fd5b61312988838901612ffc565b9450604087013591508082111561313f57600080fd5b61314b88838901612ffc565b9350606087013591508082111561316157600080fd5b5061316e8782880161306d565b91505092959194509250565b6000806040838503121561318d57600080fd5b50508035926020909101359150565b600080600080600060a086880312156131b457600080fd5b85356131bf81612e82565b945060208601356131cf81612e82565b935060408601356001600160401b03808211156131eb57600080fd5b6131f789838a01612ffc565b9450606088013591508082111561320d57600080fd5b61321989838a01612ffc565b9350608088013591508082111561322f57600080fd5b5061323c8882890161306d565b9150509295509295909350565b6000806040838503121561325c57600080fd5b82359150602083013561326e81612e82565b809150509250929050565b6000806040838503121561328c57600080fd5b8235915060208301356001600160401b038111156132a957600080fd5b6132b58582860161306d565b9150509250929050565b600080604083850312156132d257600080fd5b82356001600160401b03808211156132e957600080fd5b818501915085601f8301126132fd57600080fd5b8135602061330a82612fd9565b6040516133178282612fad565b83815260059390931b850182019282810191508984111561333757600080fd5b948201945b8386101561335e57853561334f81612e82565b8252948201949082019061333c565b9650508601359250508082111561337457600080fd5b506132b585828601612ffc565b600081518084526020808501945080840160005b838110156133b157815187529582019590820190600101613395565b509495945050505050565b602081526000610af16020830184613381565b6000806000606084860312156133e457600080fd5b83356133ef81612e82565b925060208401356001600160401b038082111561340b57600080fd5b61341787838801612ffc565b9350604086013591508082111561342d57600080fd5b5061343a86828701612ffc565b9150509250925092565b6000806000806080858703121561345a57600080fd5b843561346581612e82565b9350602085013592506040850135915060608501356001600160401b0381111561348e57600080fd5b61316e8782880161306d565b600080604083850312156134ad57600080fd5b82356134b881612e82565b91506020830135801515811461326e57600080fd5b600080600080600060a086880312156134e557600080fd5b85356001600160401b03808211156134fc57600080fd5b61350889838a0161306d565b9650602088013591508082111561351e57600080fd5b61352a89838a0161306d565b9550604088013591508082111561354057600080fd5b5061354d8882890161306d565b935050606086013561355e81612e82565b9150608086013561356e81612e82565b809150509295509295909350565b6000806040838503121561358f57600080fd5b823561359a81612e82565b9150602083013561326e81612e82565b600080600080600060a086880312156135c257600080fd5b85356135cd81612e82565b945060208601356135dd81612e82565b9350604086013592506060860135915060808601356001600160401b0381111561360657600080fd5b61323c8882890161306d565b60008060006060848603121561362757600080fd5b833561363281612e82565b95602085013595506040909401359392505050565b60006020828403121561365957600080fd5b81356001600160401b0381111561366f57600080fd5b61367b8482850161306d565b949350505050565b6020808252600a908201526927a7262cafa0a226a4a760b11b604082015260600190565b6020808252600990820152682727aa2fa0a226a4a760b91b604082015260600190565b600181811c908216806136de57607f821691505b60208210811415610af857634e487b7160e01b600052602260045260246000fd5b634e487b7160e01b600052601160045260246000fd5b600081600019048311821515161561372f5761372f6136ff565b500290565b60008261375157634e487b7160e01b600052601260045260246000fd5b500490565b6020808252600c908201526b27a7262cafa1a922a0aa27a960a11b604082015260600190565b634e487b7160e01b600052603260045260246000fd5b60006000198214156137a6576137a66136ff565b5060010190565b60208082526029908201527f455243313135353a2063616c6c6572206973206e6f74206f776e6572206e6f7260408201526808185c1c1c9bdd995960ba1b606082015260800190565b60006020828403121561380857600080fd5b8151610af181612e82565b60208082526028908201527f455243313135353a2069647320616e6420616d6f756e7473206c656e677468206040820152670dad2e6dac2e8c6d60c31b606082015260800190565b6000821982111561386e5761386e6136ff565b500190565b6040815260006138866040830185613381565b82810360208401526138988185613381565b95945050505050565b60208082526025908201527f455243313135353a207472616e7366657220746f20746865207a65726f206164604082015264647265737360d81b606082015260800190565b6020808252602a908201527f455243313135353a20696e73756666696369656e742062616c616e636520666f60408201526939103a3930b739b332b960b11b606082015260800190565b60208082526023908201527f455243313135353a206275726e2066726f6d20746865207a65726f206164647260408201526265737360e81b606082015260800190565b60208082526024908201527f455243313135353a206275726e20616d6f756e7420657863656564732062616c604082015263616e636560e01b606082015260800190565b6020808252602e908201527f496e697469616c697a61626c653a20636f6e747261637420697320616c72656160408201526d191e481a5b9a5d1a585b1a5e995960921b606082015260800190565b6020808252602b908201527f496e697469616c697a61626c653a20636f6e7472616374206973206e6f74206960408201526a6e697469616c697a696e6760a81b606082015260800190565b6001600160a01b0386811682528516602082015260a060408201819052600090613a7c90830186613381565b8281036060840152613a8e8186613381565b90508281036080840152613aa28185612f3f565b98975050505050505050565b600060208284031215613ac057600080fd5b8151610af181612ec3565b600060033d11156125245760046000803e5060005160e01c90565b600060443d1015613af45790565b6040516003193d81016004833e81513d6001600160401b038160248401118184111715613b2357505050505090565b8285019150815181811115613b3b5750505050505090565b843d8701016020828501011115613b555750505050505090565b613b6460208286010187612fad565b509095945050505050565b60208082526028908201527f455243313135353a204552433131353552656365697665722072656a656374656040820152676420746f6b656e7360c01b606082015260800190565b7f416363657373436f6e74726f6c3a206163636f756e7420000000000000000000815260008351613bef816017850160208801612f13565b7001034b99036b4b9b9b4b733903937b6329607d1b6017918401918201528351613c20816028840160208801612f13565b01602801949350505050565b6001600160a01b03868116825285166020820152604081018490526060810183905260a060808201819052600090613c6690830184612f3f565b979650505050505050565b600081613c8057613c806136ff565b506000190190565b600082821015613c9a57613c9a6136ff565b500390565b634e487b7160e01b600052603160045260246000fdfe828634d95e775031b9ff576b159a8509d3053581a8c9c4d7d86899e0afcd882f97667070c54ef182b0f5858b034beac1b6f3089aa2d3188bb1e8929f4fa9b92965d7a28e3265b37a6474929f336521b332c1681b933f6cb9f3376673440d862a9f2df0fed2c77648de5860a4cc508cd0818c85b8b8a1ab4ceeef8d981c8956a6a2646970667358221220652f68989dc0ac714d49ac65a0ff6742c930850fb35b85b6228e9c24b134061364736f6c634300080c0033",
  "linkReferences": {},
  "deployedLinkReferences": {}
}