{
  "_format": "hh-sol-artifact-1",
  "contractName": "ERC1155PresetMinterPauserUpgradeable",
  "sourceName": "@openzeppelin/contracts-upgradeable/token/ERC1155/presets/ERC1155PresetMinterPauserUpgradeable.sol",
  "abi": [
    {
      "anonymous": false,
      "inputs": [
        {
          "indexed": true,
          "internalType": "address",
          "name": "account",
          "type": "address"
        },
        {
          "indexed": true,
          "internalType": "address",
          "name": "operator",
          "type": "address"
        },
        {
          "indexed": false,
          "internalType": "bool",
          "name": "approved",
          "type": "bool"
        }
      ],
      "name": "ApprovalForAll",
      "type": "event"
    },
    {
      "anonymous": false,
      "inputs": [
        {
          "indexed": false,
          "internalType": "uint8",
          "name": "version",
          "type": "uint8"
        }
      ],
      "name": "Initialized",
      "type": "event"
    },
    {
      "anonymous": false,
      "inputs": [
        {
          "indexed": false,
          "internalType": "address",
          "name": "account",
          "type": "address"
        }
      ],
      "name": "Paused",
      "type": "event"
    },
    {
      "anonymous": false,
      "inputs": [
        {
          "indexed": true,
          "internalType": "bytes32",
          "name": "role",
          "type": "bytes32"
        },
        {
          "indexed": true,
          "internalType": "bytes32",
          "name": "previousAdminRole",
          "type": "bytes32"
        },
        {
          "indexed": true,
          "internalType": "bytes32",
          "name": "newAdminRole",
          "type": "bytes32"
        }
      ],
      "name": "RoleAdminChanged",
      "type": "event"
    },
    {
      "anonymous": false,
      "inputs": [
        {
          "indexed": true,
          "internalType": "bytes32",
          "name": "role",
          "type": "bytes32"
        },
        {
          "indexed": true,
          "internalType": "address",
          "name": "account",
          "type": "address"
        },
        {
          "indexed": true,
          "internalType": "address",
          "name": "sender",
          "type": "address"
        }
      ],
      "name": "RoleGranted",
      "type": "event"
    },
    {
      "anonymous": false,
      "inputs": [
        {
          "indexed": true,
          "internalType": "bytes32",
          "name": "role",
          "type": "bytes32"
        },
        {
          "indexed": true,
          "internalType": "address",
          "name": "account",
          "type": "address"
        },
        {
          "indexed": true,
          "internalType": "address",
          "name": "sender",
          "type": "address"
        }
      ],
      "name": "RoleRevoked",
      "type": "event"
    },
    {
      "anonymous": false,
      "inputs": [
        {
          "indexed": true,
          "internalType": "address",
          "name": "operator",
          "type": "address"
        },
        {
          "indexed": true,
          "internalType": "address",
          "name": "from",
          "type": "address"
        },
        {
          "indexed": true,
          "internalType": "address",
          "name": "to",
          "type": "address"
        },
        {
          "indexed": false,
          "internalType": "uint256[]",
          "name": "ids",
          "type": "uint256[]"
        },
        {
          "indexed": false,
          "internalType": "uint256[]",
          "name": "values",
          "type": "uint256[]"
        }
      ],
      "name": "TransferBatch",
      "type": "event"
    },
    {
      "anonymous": false,
      "inputs": [
        {
          "indexed": true,
          "internalType": "address",
          "name": "operator",
          "type": "address"
        },
        {
          "indexed": true,
          "internalType": "address",
          "name": "from",
          "type": "address"
        },
        {
          "indexed": true,
          "internalType": "address",
          "name": "to",
          "type": "address"
        },
        {
          "indexed": false,
          "internalType": "uint256",
          "name": "id",
          "type": "uint256"
        },
        {
          "indexed": false,
          "internalType": "uint256",
          "name": "value",
          "type": "uint256"
        }
      ],
      "name": "TransferSingle",
      "type": "event"
    },
    {
      "anonymous": false,
      "inputs": [
        {
          "indexed": false,
          "internalType": "string",
          "name": "value",
          "type": "string"
        },
        {
          "indexed": true,
          "internalType": "uint256",
          "name": "id",
          "type": "uint256"
        }
      ],
      "name": "URI",
      "type": "event"
    },
    {
      "anonymous": false,
      "inputs": [
        {
          "indexed": false,
          "internalType": "address",
          "name": "account",
          "type": "address"
        }
      ],
      "name": "Unpaused",
      "type": "event"
    },
    {
      "inputs": [],
      "name": "DEFAULT_ADMIN_ROLE",
      "outputs": [
        {
          "internalType": "bytes32",
          "name": "",
          "type": "bytes32"
        }
      ],
      "stateMutability": "view",
      "type": "function"
    },
    {
      "inputs": [],
      "name": "MINTER_ROLE",
      "outputs": [
        {
          "internalType": "bytes32",
          "name": "",
          "type": "bytes32"
        }
      ],
      "stateMutability": "view",
      "type": "function"
    },
    {
      "inputs": [],
      "name": "PAUSER_ROLE",
      "outputs": [
        {
          "internalType": "bytes32",
          "name": "",
          "type": "bytes32"
        }
      ],
      "stateMutability": "view",
      "type": "function"
    },
    {
      "inputs": [
        {
          "internalType": "address",
          "name": "account",
          "type": "address"
        },
        {
          "internalType": "uint256",
          "name": "id",
          "type": "uint256"
        }
      ],
      "name": "balanceOf",
      "outputs": [
        {
          "internalType": "uint256",
          "name": "",
          "type": "uint256"
        }
      ],
      "stateMutability": "view",
      "type": "function"
    },
    {
      "inputs": [
        {
          "internalType": "address[]",
          "name": "accounts",
          "type": "address[]"
        },
        {
          "internalType": "uint256[]",
          "name": "ids",
          "type": "uint256[]"
        }
      ],
      "name": "balanceOfBatch",
      "outputs": [
        {
          "internalType": "uint256[]",
          "name": "",
          "type": "uint256[]"
        }
      ],
      "stateMutability": "view",
      "type": "function"
    },
    {
      "inputs": [
        {
          "internalType": "address",
          "name": "account",
          "type": "address"
        },
        {
          "internalType": "uint256",
          "name": "id",
          "type": "uint256"
        },
        {
          "internalType": "uint256",
          "name": "value",
          "type": "uint256"
        }
      ],
      "name": "burn",
      "outputs": [],
      "stateMutability": "nonpayable",
      "type": "function"
    },
    {
      "inputs": [
        {
          "internalType": "address",
          "name": "account",
          "type": "address"
        },
        {
          "internalType": "uint256[]",
          "name": "ids",
          "type": "uint256[]"
        },
        {
          "internalType": "uint256[]",
          "name": "values",
          "type": "uint256[]"
        }
      ],
      "name": "burnBatch",
      "outputs": [],
      "stateMutability": "nonpayable",
      "type": "function"
    },
    {
      "inputs": [
        {
          "internalType": "bytes32",
          "name": "role",
          "type": "bytes32"
        }
      ],
      "name": "getRoleAdmin",
      "outputs": [
        {
          "internalType": "bytes32",
          "name": "",
          "type": "bytes32"
        }
      ],
      "stateMutability": "view",
      "type": "function"
    },
    {
      "inputs": [
        {
          "internalType": "bytes32",
          "name": "role",
          "type": "bytes32"
        },
        {
          "internalType": "uint256",
          "name": "index",
          "type": "uint256"
        }
      ],
      "name": "getRoleMember",
      "outputs": [
        {
          "internalType": "address",
          "name": "",
          "type": "address"
        }
      ],
      "stateMutability": "view",
      "type": "function"
    },
    {
      "inputs": [
        {
          "internalType": "bytes32",
          "name": "role",
          "type": "bytes32"
        }
      ],
      "name": "getRoleMemberCount",
      "outputs": [
        {
          "internalType": "uint256",
          "name": "",
          "type": "uint256"
        }
      ],
      "stateMutability": "view",
      "type": "function"
    },
    {
      "inputs": [
        {
          "internalType": "bytes32",
          "name": "role",
          "type": "bytes32"
        },
        {
          "internalType": "address",
          "name": "account",
          "type": "address"
        }
      ],
      "name": "grantRole",
      "outputs": [],
      "stateMutability": "nonpayable",
      "type": "function"
    },
    {
      "inputs": [
        {
          "internalType": "bytes32",
          "name": "role",
          "type": "bytes32"
        },
        {
          "internalType": "address",
          "name": "account",
          "type": "address"
        }
      ],
      "name": "hasRole",
      "outputs": [
        {
          "internalType": "bool",
          "name": "",
          "type": "bool"
        }
      ],
      "stateMutability": "view",
      "type": "function"
    },
    {
      "inputs": [
        {
          "internalType": "string",
          "name": "uri",
          "type": "string"
        }
      ],
      "name": "initialize",
      "outputs": [],
      "stateMutability": "nonpayable",
      "type": "function"
    },
    {
      "inputs": [
        {
          "internalType": "address",
          "name": "account",
          "type": "address"
        },
        {
          "internalType": "address",
          "name": "operator",
          "type": "address"
        }
      ],
      "name": "isApprovedForAll",
      "outputs": [
        {
          "internalType": "bool",
          "name": "",
          "type": "bool"
        }
      ],
      "stateMutability": "view",
      "type": "function"
    },
    {
      "inputs": [
        {
          "internalType": "address",
          "name": "to",
          "type": "address"
        },
        {
          "internalType": "uint256",
          "name": "id",
          "type": "uint256"
        },
        {
          "internalType": "uint256",
          "name": "amount",
          "type": "uint256"
        },
        {
          "internalType": "bytes",
          "name": "data",
          "type": "bytes"
        }
      ],
      "name": "mint",
      "outputs": [],
      "stateMutability": "nonpayable",
      "type": "function"
    },
    {
      "inputs": [
        {
          "internalType": "address",
          "name": "to",
          "type": "address"
        },
        {
          "internalType": "uint256[]",
          "name": "ids",
          "type": "uint256[]"
        },
        {
          "internalType": "uint256[]",
          "name": "amounts",
          "type": "uint256[]"
        },
        {
          "internalType": "bytes",
          "name": "data",
          "type": "bytes"
        }
      ],
      "name": "mintBatch",
      "outputs": [],
      "stateMutability": "nonpayable",
      "type": "function"
    },
    {
      "inputs": [],
      "name": "pause",
      "outputs": [],
      "stateMutability": "nonpayable",
      "type": "function"
    },
    {
      "inputs": [],
      "name": "paused",
      "outputs": [
        {
          "internalType": "bool",
          "name": "",
          "type": "bool"
        }
      ],
      "stateMutability": "view",
      "type": "function"
    },
    {
      "inputs": [
        {
          "internalType": "bytes32",
          "name": "role",
          "type": "bytes32"
        },
        {
          "internalType": "address",
          "name": "account",
          "type": "address"
        }
      ],
      "name": "renounceRole",
      "outputs": [],
      "stateMutability": "nonpayable",
      "type": "function"
    },
    {
      "inputs": [
        {
          "internalType": "bytes32",
          "name": "role",
          "type": "bytes32"
        },
        {
          "internalType": "address",
          "name": "account",
          "type": "address"
        }
      ],
      "name": "revokeRole",
      "outputs": [],
      "stateMutability": "nonpayable",
      "type": "function"
    },
    {
      "inputs": [
        {
          "internalType": "address",
          "name": "from",
          "type": "address"
        },
        {
          "internalType": "address",
          "name": "to",
          "type": "address"
        },
        {
          "internalType": "uint256[]",
          "name": "ids",
          "type": "uint256[]"
        },
        {
          "internalType": "uint256[]",
          "name": "amounts",
          "type": "uint256[]"
        },
        {
          "internalType": "bytes",
          "name": "data",
          "type": "bytes"
        }
      ],
      "name": "safeBatchTransferFrom",
      "outputs": [],
      "stateMutability": "nonpayable",
      "type": "function"
    },
    {
      "inputs": [
        {
          "internalType": "address",
          "name": "from",
          "type": "address"
        },
        {
          "internalType": "address",
          "name": "to",
          "type": "address"
        },
        {
          "internalType": "uint256",
          "name": "id",
          "type": "uint256"
        },
        {
          "internalType": "uint256",
          "name": "amount",
          "type": "uint256"
        },
        {
          "internalType": "bytes",
          "name": "data",
          "type": "bytes"
        }
      ],
      "name": "safeTransferFrom",
      "outputs": [],
      "stateMutability": "nonpayable",
      "type": "function"
    },
    {
      "inputs": [
        {
          "internalType": "address",
          "name": "operator",
          "type": "address"
        },
        {
          "internalType": "bool",
          "name": "approved",
          "type": "bool"
        }
      ],
      "name": "setApprovalForAll",
      "outputs": [],
      "stateMutability": "nonpayable",
      "type": "function"
    },
    {
      "inputs": [
        {
          "internalType": "bytes4",
          "name": "interfaceId",
          "type": "bytes4"
        }
      ],
      "name": "supportsInterface",
      "outputs": [
        {
          "internalType": "bool",
          "name": "",
          "type": "bool"
        }
      ],
      "stateMutability": "view",
      "type": "function"
    },
    {
      "inputs": [],
      "name": "unpause",
      "outputs": [],
      "stateMutability": "nonpayable",
      "type": "function"
    },
    {
      "inputs": [
        {
          "internalType": "uint256",
          "name": "",
          "type": "uint256"
        }
      ],
      "name": "uri",
      "outputs": [
        {
          "internalType": "string",
          "name": "",
          "type": "string"
        }
      ],
      "stateMutability": "view",
      "type": "function"
    }
  ],
  "bytecode": "0x608060405234801561001057600080fd5b50612d37806100206000396000f3fe608060405234801561001057600080fd5b506004361061018d5760003560e01c80638456cb59116100de578063d539139311610097578063e985e9c511610071578063e985e9c514610377578063f242432a146103b3578063f5298aca146103c6578063f62d1888146103d957600080fd5b8063d53913931461033a578063d547741f1461034f578063e63ab1e91461036257600080fd5b80638456cb59146102c65780639010d07c146102ce57806391d14854146102f9578063a217fddf1461030c578063a22cb46514610314578063ca15c8731461032757600080fd5b80632f2ff15d1161014b5780634e1273f4116101255780634e1273f4146102745780635c975abb146102945780636b20c454146102a0578063731133e9146102b357600080fd5b80632f2ff15d1461024657806336568abe146102595780633f4ba83a1461026c57600080fd5b8062fdd58e1461019257806301ffc9a7146101b85780630e89341c146101db5780631f7fdffa146101fb578063248a9ca3146102105780632eb2c2d614610233575b600080fd5b6101a56101a0366004611fa7565b6103ec565b6040519081526020015b60405180910390f35b6101cb6101c6366004611fe7565b610488565b60405190151581526020016101af565b6101ee6101e9366004612004565b610493565b6040516101af9190612075565b61020e6102093660046121db565b610527565b005b6101a561021e366004612004565b60009081526065602052604090206001015490565b61020e610241366004612273565b61056d565b61020e61025436600461231c565b610604565b61020e61026736600461231c565b61062e565b61020e6106ac565b610287610282366004612348565b610740565b6040516101af919061244d565b61012d5460ff166101cb565b61020e6102ae366004612460565b610869565b61020e6102c13660046124d3565b6108ac565b61020e6108ec565b6102e16102dc366004612527565b61097e565b6040516001600160a01b0390911681526020016101af565b6101cb61030736600461231c565b61099d565b6101a5600081565b61020e610322366004612549565b6109c8565b6101a5610335366004612004565b6109d3565b6101a5600080516020612ce283398151915281565b61020e61035d36600461231c565b6109ea565b6101a5600080516020612cc283398151915281565b6101cb610385366004612585565b6001600160a01b03918216600090815260ca6020908152604080832093909416825291909152205460ff1690565b61020e6103c13660046125af565b610a0f565b61020e6103d4366004612613565b610a54565b61020e6103e7366004612646565b610a97565b60006001600160a01b03831661045d5760405162461bcd60e51b815260206004820152602b60248201527f455243313135353a2062616c616e636520717565727920666f7220746865207a60448201526a65726f206164647265737360a81b60648201526084015b60405180910390fd5b50600081815260c9602090815260408083206001600160a01b03861684529091529020545b92915050565b600061048282610b0d565b606060cb80546104a290612696565b80601f01602080910402602001604051908101604052809291908181526020018280546104ce90612696565b801561051b5780601f106104f05761010080835404028352916020019161051b565b820191906000526020600020905b8154815290600101906020018083116104fe57829003601f168201915b50505050509050919050565b61053f600080516020612ce28339815191523361099d565b61055b5760405162461bcd60e51b8152600401610454906126d1565b61056784848484610b4d565b50505050565b6001600160a01b03851633148061058957506105898533610385565b6105f05760405162461bcd60e51b815260206004820152603260248201527f455243313135353a207472616e736665722063616c6c6572206973206e6f74206044820152711bdddb995c881b9bdc88185c1c1c9bdd995960721b6064820152608401610454565b6105fd8585858585610ca8565b5050505050565b60008281526065602052604090206001015461061f81610e55565b6106298383610e62565b505050565b6001600160a01b038116331461069e5760405162461bcd60e51b815260206004820152602f60248201527f416363657373436f6e74726f6c3a2063616e206f6e6c792072656e6f756e636560448201526e103937b632b9903337b91039b2b63360891b6064820152608401610454565b6106a88282610e84565b5050565b6106c4600080516020612cc28339815191523361099d565b6107365760405162461bcd60e51b815260206004820152603b60248201527f455243313135355072657365744d696e7465725061757365723a206d7573742060448201527f686176652070617573657220726f6c6520746f20756e706175736500000000006064820152608401610454565b61073e610ea6565b565b606081518351146107a55760405162461bcd60e51b815260206004820152602960248201527f455243313135353a206163636f756e747320616e6420696473206c656e677468604482015268040dad2e6dac2e8c6d60bb1b6064820152608401610454565b600083516001600160401b038111156107c0576107c0612088565b6040519080825280602002602001820160405280156107e9578160200160208202803683370190505b50905060005b84518110156108615761083485828151811061080d5761080d61272e565b60200260200101518583815181106108275761082761272e565b60200260200101516103ec565b8282815181106108465761084661272e565b602090810291909101015261085a8161275a565b90506107ef565b509392505050565b6001600160a01b03831633148061088557506108858333610385565b6108a15760405162461bcd60e51b815260040161045490612775565b610629838383610f3b565b6108c4600080516020612ce28339815191523361099d565b6108e05760405162461bcd60e51b8152600401610454906126d1565b610567848484846110da565b610904600080516020612cc28339815191523361099d565b6109765760405162461bcd60e51b815260206004820152603960248201527f455243313135355072657365744d696e7465725061757365723a206d7573742060448201527f686176652070617573657220726f6c6520746f207061757365000000000000006064820152608401610454565b61073e6111c5565b60008281526097602052604081206109969083611242565b9392505050565b60009182526065602090815260408084206001600160a01b0393909316845291905290205460ff1690565b6106a833838361124e565b60008181526097602052604081206104829061132f565b600082815260656020526040902060010154610a0581610e55565b6106298383610e84565b6001600160a01b038516331480610a2b5750610a2b8533610385565b610a475760405162461bcd60e51b815260040161045490612775565b6105fd8585858585611339565b6001600160a01b038316331480610a705750610a708333610385565b610a8c5760405162461bcd60e51b815260040161045490612775565b610629838383611475565b6000610aa36001611591565b90508015610abb576000805461ff0019166101001790555b610ac48261161e565b80156106a8576000805461ff0019169055604051600181527f7f26b83ff96e1f2b6a682f133852f6798a09c465da95921460cefb38474024989060200160405180910390a15050565b60006001600160e01b03198216636cdb3d1360e11b1480610b3e57506001600160e01b031982166303a24d0760e21b145b8061048257506104828261165f565b6001600160a01b038416610b735760405162461bcd60e51b8152600401610454906127be565b8151835114610b945760405162461bcd60e51b8152600401610454906127ff565b33610ba481600087878787611684565b60005b8451811015610c4057838181518110610bc257610bc261272e565b602002602001015160c96000878481518110610be057610be061272e565b602002602001015181526020019081526020016000206000886001600160a01b03166001600160a01b031681526020019081526020016000206000828254610c289190612847565b90915550819050610c388161275a565b915050610ba7565b50846001600160a01b031660006001600160a01b0316826001600160a01b03167f4a39dc06d4c0dbc64b70af90fd698a233a518aa5d07e595d983b8c0526c8f7fb8787604051610c9192919061285f565b60405180910390a46105fd81600087878787611692565b8151835114610cc95760405162461bcd60e51b8152600401610454906127ff565b6001600160a01b038416610cef5760405162461bcd60e51b81526004016104549061288d565b33610cfe818787878787611684565b60005b8451811015610de7576000858281518110610d1e57610d1e61272e565b602002602001015190506000858381518110610d3c57610d3c61272e565b602090810291909101810151600084815260c9835260408082206001600160a01b038e168352909352919091205490915081811015610d8d5760405162461bcd60e51b8152600401610454906128d2565b600083815260c9602090815260408083206001600160a01b038e8116855292528083208585039055908b16825281208054849290610dcc908490612847565b9250508190555050505080610de09061275a565b9050610d01565b50846001600160a01b0316866001600160a01b0316826001600160a01b03167f4a39dc06d4c0dbc64b70af90fd698a233a518aa5d07e595d983b8c0526c8f7fb8787604051610e3792919061285f565b60405180910390a4610e4d818787878787611692565b505050505050565b610e5f81336117ee565b50565b610e6c8282611852565b600082815260976020526040902061062990826118d8565b610e8e82826118ed565b60008281526097602052604090206106299082611954565b61012d5460ff16610ef05760405162461bcd60e51b815260206004820152601460248201527314185d5cd8589b194e881b9bdd081c185d5cd95960621b6044820152606401610454565b61012d805460ff191690557f5db9ee0a495bf2e6ff9c91a7834c1ba4fdd244a5e8aa4e537bd38aeae4b073aa335b6040516001600160a01b03909116815260200160405180910390a1565b6001600160a01b038316610f615760405162461bcd60e51b81526004016104549061291c565b8051825114610f825760405162461bcd60e51b8152600401610454906127ff565b6000339050610fa581856000868660405180602001604052806000815250611684565b60005b835181101561106d576000848281518110610fc557610fc561272e565b602002602001015190506000848381518110610fe357610fe361272e565b602090810291909101810151600084815260c9835260408082206001600160a01b038c1683529093529190912054909150818110156110345760405162461bcd60e51b81526004016104549061295f565b600092835260c9602090815260408085206001600160a01b038b16865290915290922091039055806110658161275a565b915050610fa8565b5060006001600160a01b0316846001600160a01b0316826001600160a01b03167f4a39dc06d4c0dbc64b70af90fd698a233a518aa5d07e595d983b8c0526c8f7fb86866040516110be92919061285f565b60405180910390a4604080516020810190915260009052610567565b6001600160a01b0384166111005760405162461bcd60e51b8152600401610454906127be565b33600061110c85611969565b9050600061111985611969565b905061112a83600089858589611684565b600086815260c9602090815260408083206001600160a01b038b1684529091528120805487929061115c908490612847565b909155505060408051878152602081018790526001600160a01b03808a1692600092918716917fc3d58168c5ae7397731d063d5bbf3d657854427343f4c083240f7aacaa2d0f62910160405180910390a46111bc836000898989896119b4565b50505050505050565b61012d5460ff161561120c5760405162461bcd60e51b815260206004820152601060248201526f14185d5cd8589b194e881c185d5cd95960821b6044820152606401610454565b61012d805460ff191660011790557f62e78cea01bee320cd4e420270b5ea74000d11b0c9f74754ebdbfc544b05a258610f1e3390565b60006109968383611a6f565b816001600160a01b0316836001600160a01b031614156112c25760405162461bcd60e51b815260206004820152602960248201527f455243313135353a2073657474696e6720617070726f76616c20737461747573604482015268103337b91039b2b63360b91b6064820152608401610454565b6001600160a01b03838116600081815260ca6020908152604080832094871680845294825291829020805460ff191686151590811790915591519182527f17307eab39ab6107e8899845ad3d59bd9653f200f220920489ca2b5937696c31910160405180910390a3505050565b6000610482825490565b6001600160a01b03841661135f5760405162461bcd60e51b81526004016104549061288d565b33600061136b85611969565b9050600061137885611969565b9050611388838989858589611684565b600086815260c9602090815260408083206001600160a01b038c168452909152902054858110156113cb5760405162461bcd60e51b8152600401610454906128d2565b600087815260c9602090815260408083206001600160a01b038d8116855292528083208985039055908a1682528120805488929061140a908490612847565b909155505060408051888152602081018890526001600160a01b03808b16928c821692918816917fc3d58168c5ae7397731d063d5bbf3d657854427343f4c083240f7aacaa2d0f62910160405180910390a461146a848a8a8a8a8a6119b4565b505050505050505050565b6001600160a01b03831661149b5760405162461bcd60e51b81526004016104549061291c565b3360006114a784611969565b905060006114b484611969565b90506114d483876000858560405180602001604052806000815250611684565b600085815260c9602090815260408083206001600160a01b038a168452909152902054848110156115175760405162461bcd60e51b81526004016104549061295f565b600086815260c9602090815260408083206001600160a01b038b81168086529184528285208a8703905582518b81529384018a90529092908816917fc3d58168c5ae7397731d063d5bbf3d657854427343f4c083240f7aacaa2d0f62910160405180910390a46040805160208101909152600090526111bc565b60008054610100900460ff16156115d8578160ff1660011480156115b45750303b155b6115d05760405162461bcd60e51b8152600401610454906129a3565b506000919050565b60005460ff8084169116106115ff5760405162461bcd60e51b8152600401610454906129a3565b506000805460ff191660ff92909216919091179055600190565b919050565b600054610100900460ff166116455760405162461bcd60e51b8152600401610454906129f1565b61164e81611a99565b611656611ac9565b610e5f81611afd565b60006001600160e01b03198216635a05180f60e01b1480610482575061048282611b5f565b610e4d868686868686611b94565b6001600160a01b0384163b15610e4d5760405163bc197c8160e01b81526001600160a01b0385169063bc197c81906116d69089908990889088908890600401612a3c565b6020604051808303816000875af1925050508015611711575060408051601f3d908101601f1916820190925261170e91810190612a9a565b60015b6117be5761171d612ab7565b806308c379a014156117575750611732612ad3565b8061173d5750611759565b8060405162461bcd60e51b81526004016104549190612075565b505b60405162461bcd60e51b815260206004820152603460248201527f455243313135353a207472616e7366657220746f206e6f6e20455243313135356044820152732932b1b2b4bb32b91034b6b83632b6b2b73a32b960611b6064820152608401610454565b6001600160e01b0319811663bc197c8160e01b146111bc5760405162461bcd60e51b815260040161045490612b5c565b6117f8828261099d565b6106a857611810816001600160a01b03166014611bfd565b61181b836020611bfd565b60405160200161182c929190612ba4565b60408051601f198184030181529082905262461bcd60e51b825261045491600401612075565b61185c828261099d565b6106a85760008281526065602090815260408083206001600160a01b03851684529091529020805460ff191660011790556118943390565b6001600160a01b0316816001600160a01b0316837f2f8788117e7eff1d82e926ec794901d17c78024a50270940304540a733656f0d60405160405180910390a45050565b6000610996836001600160a01b038416611d98565b6118f7828261099d565b156106a85760008281526065602090815260408083206001600160a01b0385168085529252808320805460ff1916905551339285917ff6391f5c32d9c69d2a47ea670b442974b53935d1edc7fd64eb21e047a839171b9190a45050565b6000610996836001600160a01b038416611de7565b604080516001808252818301909252606091600091906020808301908036833701905050905082816000815181106119a3576119a361272e565b602090810291909101015292915050565b6001600160a01b0384163b15610e4d5760405163f23a6e6160e01b81526001600160a01b0385169063f23a6e61906119f89089908990889088908890600401612c19565b6020604051808303816000875af1925050508015611a33575060408051601f3d908101601f19168201909252611a3091810190612a9a565b60015b611a3f5761171d612ab7565b6001600160e01b0319811663f23a6e6160e01b146111bc5760405162461bcd60e51b815260040161045490612b5c565b6000826000018281548110611a8657611a8661272e565b9060005260206000200154905092915050565b600054610100900460ff16611ac05760405162461bcd60e51b8152600401610454906129f1565b610e5f81611eda565b600054610100900460ff16611af05760405162461bcd60e51b8152600401610454906129f1565b61012d805460ff19169055565b600054610100900460ff16611b245760405162461bcd60e51b8152600401610454906129f1565b611b2f600033611eed565b611b47600080516020612ce283398151915233611eed565b610e5f600080516020612cc283398151915233611eed565b60006001600160e01b03198216637965db0b60e01b148061048257506301ffc9a760e01b6001600160e01b0319831614610482565b61012d5460ff1615610e4d5760405162461bcd60e51b815260206004820152602c60248201527f455243313135355061757361626c653a20746f6b656e207472616e736665722060448201526b1dda1a5b19481c185d5cd95960a21b6064820152608401610454565b60606000611c0c836002612c5e565b611c17906002612847565b6001600160401b03811115611c2e57611c2e612088565b6040519080825280601f01601f191660200182016040528015611c58576020820181803683370190505b509050600360fc1b81600081518110611c7357611c7361272e565b60200101906001600160f81b031916908160001a905350600f60fb1b81600181518110611ca257611ca261272e565b60200101906001600160f81b031916908160001a9053506000611cc6846002612c5e565b611cd1906001612847565b90505b6001811115611d49576f181899199a1a9b1b9c1cb0b131b232b360811b85600f1660108110611d0557611d0561272e565b1a60f81b828281518110611d1b57611d1b61272e565b60200101906001600160f81b031916908160001a90535060049490941c93611d4281612c7d565b9050611cd4565b5083156109965760405162461bcd60e51b815260206004820181905260248201527f537472696e67733a20686578206c656e67746820696e73756666696369656e746044820152606401610454565b6000818152600183016020526040812054611ddf57508154600181810184556000848152602080822090930184905584548482528286019093526040902091909155610482565b506000610482565b60008181526001830160205260408120548015611ed0576000611e0b600183612c94565b8554909150600090611e1f90600190612c94565b9050818114611e84576000866000018281548110611e3f57611e3f61272e565b9060005260206000200154905080876000018481548110611e6257611e6261272e565b6000918252602080832090910192909255918252600188019052604090208390555b8554869080611e9557611e95612cab565b600190038181906000526020600020016000905590558560010160008681526020019081526020016000206000905560019350505050610482565b6000915050610482565b80516106a89060cb906020840190611ef7565b6106a88282610e62565b828054611f0390612696565b90600052602060002090601f016020900481019282611f255760008555611f6b565b82601f10611f3e57805160ff1916838001178555611f6b565b82800160010185558215611f6b579182015b82811115611f6b578251825591602001919060010190611f50565b50611f77929150611f7b565b5090565b5b80821115611f775760008155600101611f7c565b80356001600160a01b038116811461161957600080fd5b60008060408385031215611fba57600080fd5b611fc383611f90565b946020939093013593505050565b6001600160e01b031981168114610e5f57600080fd5b600060208284031215611ff957600080fd5b813561099681611fd1565b60006020828403121561201657600080fd5b5035919050565b60005b83811015612038578181015183820152602001612020565b838111156105675750506000910152565b6000815180845261206181602086016020860161201d565b601f01601f19169290920160200192915050565b6020815260006109966020830184612049565b634e487b7160e01b600052604160045260246000fd5b601f8201601f191681016001600160401b03811182821017156120c3576120c3612088565b6040525050565b60006001600160401b038211156120e3576120e3612088565b5060051b60200190565b600082601f8301126120fe57600080fd5b8135602061210b826120ca565b604051612118828261209e565b83815260059390931b850182019282810191508684111561213857600080fd5b8286015b84811015612153578035835291830191830161213c565b509695505050505050565b60006001600160401b0383111561217757612177612088565b60405161218e601f8501601f19166020018261209e565b8091508381528484840111156121a357600080fd5b83836020830137600060208583010152509392505050565b600082601f8301126121cc57600080fd5b6109968383356020850161215e565b600080600080608085870312156121f157600080fd5b6121fa85611f90565b935060208501356001600160401b038082111561221657600080fd5b612222888389016120ed565b9450604087013591508082111561223857600080fd5b612244888389016120ed565b9350606087013591508082111561225a57600080fd5b50612267878288016121bb565b91505092959194509250565b600080600080600060a0868803121561228b57600080fd5b61229486611f90565b94506122a260208701611f90565b935060408601356001600160401b03808211156122be57600080fd5b6122ca89838a016120ed565b945060608801359150808211156122e057600080fd5b6122ec89838a016120ed565b9350608088013591508082111561230257600080fd5b5061230f888289016121bb565b9150509295509295909350565b6000806040838503121561232f57600080fd5b8235915061233f60208401611f90565b90509250929050565b6000806040838503121561235b57600080fd5b82356001600160401b038082111561237257600080fd5b818501915085601f83011261238657600080fd5b81356020612393826120ca565b6040516123a0828261209e565b83815260059390931b85018201928281019150898411156123c057600080fd5b948201945b838610156123e5576123d686611f90565b825294820194908201906123c5565b965050860135925050808211156123fb57600080fd5b50612408858286016120ed565b9150509250929050565b600081518084526020808501945080840160005b8381101561244257815187529582019590820190600101612426565b509495945050505050565b6020815260006109966020830184612412565b60008060006060848603121561247557600080fd5b61247e84611f90565b925060208401356001600160401b038082111561249a57600080fd5b6124a6878388016120ed565b935060408601359150808211156124bc57600080fd5b506124c9868287016120ed565b9150509250925092565b600080600080608085870312156124e957600080fd5b6124f285611f90565b9350602085013592506040850135915060608501356001600160401b0381111561251b57600080fd5b612267878288016121bb565b6000806040838503121561253a57600080fd5b50508035926020909101359150565b6000806040838503121561255c57600080fd5b61256583611f90565b91506020830135801515811461257a57600080fd5b809150509250929050565b6000806040838503121561259857600080fd5b6125a183611f90565b915061233f60208401611f90565b600080600080600060a086880312156125c757600080fd5b6125d086611f90565b94506125de60208701611f90565b9350604086013592506060860135915060808601356001600160401b0381111561260757600080fd5b61230f888289016121bb565b60008060006060848603121561262857600080fd5b61263184611f90565b95602085013595506040909401359392505050565b60006020828403121561265857600080fd5b81356001600160401b0381111561266e57600080fd5b8201601f8101841361267f57600080fd5b61268e8482356020840161215e565b949350505050565b600181811c908216806126aa57607f821691505b602082108114156126cb57634e487b7160e01b600052602260045260246000fd5b50919050565b60208082526038908201527f455243313135355072657365744d696e7465725061757365723a206d7573742060408201527f68617665206d696e74657220726f6c6520746f206d696e740000000000000000606082015260800190565b634e487b7160e01b600052603260045260246000fd5b634e487b7160e01b600052601160045260246000fd5b600060001982141561276e5761276e612744565b5060010190565b60208082526029908201527f455243313135353a2063616c6c6572206973206e6f74206f776e6572206e6f7260408201526808185c1c1c9bdd995960ba1b606082015260800190565b60208082526021908201527f455243313135353a206d696e7420746f20746865207a65726f206164647265736040820152607360f81b606082015260800190565b60208082526028908201527f455243313135353a2069647320616e6420616d6f756e7473206c656e677468206040820152670dad2e6dac2e8c6d60c31b606082015260800190565b6000821982111561285a5761285a612744565b500190565b6040815260006128726040830185612412565b82810360208401526128848185612412565b95945050505050565b60208082526025908201527f455243313135353a207472616e7366657220746f20746865207a65726f206164604082015264647265737360d81b606082015260800190565b6020808252602a908201527f455243313135353a20696e73756666696369656e742062616c616e636520666f60408201526939103a3930b739b332b960b11b606082015260800190565b60208082526023908201527f455243313135353a206275726e2066726f6d20746865207a65726f206164647260408201526265737360e81b606082015260800190565b60208082526024908201527f455243313135353a206275726e20616d6f756e7420657863656564732062616c604082015263616e636560e01b606082015260800190565b6020808252602e908201527f496e697469616c697a61626c653a20636f6e747261637420697320616c72656160408201526d191e481a5b9a5d1a585b1a5e995960921b606082015260800190565b6020808252602b908201527f496e697469616c697a61626c653a20636f6e7472616374206973206e6f74206960408201526a6e697469616c697a696e6760a81b606082015260800190565b6001600160a01b0386811682528516602082015260a060408201819052600090612a6890830186612412565b8281036060840152612a7a8186612412565b90508281036080840152612a8e8185612049565b98975050505050505050565b600060208284031215612aac57600080fd5b815161099681611fd1565b600060033d1115612ad05760046000803e5060005160e01c5b90565b600060443d1015612ae15790565b6040516003193d81016004833e81513d6001600160401b038160248401118184111715612b1057505050505090565b8285019150815181811115612b285750505050505090565b843d8701016020828501011115612b425750505050505090565b612b516020828601018761209e565b509095945050505050565b60208082526028908201527f455243313135353a204552433131353552656365697665722072656a656374656040820152676420746f6b656e7360c01b606082015260800190565b7f416363657373436f6e74726f6c3a206163636f756e7420000000000000000000815260008351612bdc81601785016020880161201d565b7001034b99036b4b9b9b4b733903937b6329607d1b6017918401918201528351612c0d81602884016020880161201d565b01602801949350505050565b6001600160a01b03868116825285166020820152604081018490526060810183905260a060808201819052600090612c5390830184612049565b979650505050505050565b6000816000190483118215151615612c7857612c78612744565b500290565b600081612c8c57612c8c612744565b506000190190565b600082821015612ca657612ca6612744565b500390565b634e487b7160e01b600052603160045260246000fdfe65d7a28e3265b37a6474929f336521b332c1681b933f6cb9f3376673440d862a9f2df0fed2c77648de5860a4cc508cd0818c85b8b8a1ab4ceeef8d981c8956a6a2646970667358221220f74db6cfb9e27b0cbde2616fab2bd714a2c67d5a0e353e93a305ca162eb2a07364736f6c634300080c0033",
  "linkReferences": {},
  "deployedLinkReferences": {}
}