{
  "_format": "hh-sol-artifact-1",
  "contractName": "ERC1155TradableForRock",
  "sourceName": "contracts/utils/ERC1155TradableForRock.sol",
  "abi": [
    {
      "inputs": [
        {
          "internalType": "string",
          "name": "_name",
          "type": "string"
        },
        {
          "internalType": "string",
          "name": "_symbol",
          "type": "string"
        },
        {
          "internalType": "string",
          "name": "_uri",
          "type": "string"
        },
        {
          "internalType": "address",
          "name": "_admin",
          "type": "address"
        },
        {
          "internalType": "address",
          "name": "_operator",
          "type": "address"
        }
      ],
      "stateMutability": "nonpayable",
      "type": "constructor"
    },
    {
      "anonymous": false,
      "inputs": [
        {
          "indexed": false,
          "internalType": "address",
          "name": "previous",
          "type": "address"
        },
        {
          "indexed": false,
          "internalType": "address",
          "name": "new_",
          "type": "address"
        }
      ],
      "name": "AdminChanged",
      "type": "event"
    },
    {
      "anonymous": false,
      "inputs": [
        {
          "indexed": true,
          "internalType": "address",
          "name": "account",
          "type": "address"
        },
        {
          "indexed": true,
          "internalType": "address",
          "name": "operator",
          "type": "address"
        },
        {
          "indexed": false,
          "internalType": "bool",
          "name": "approved",
          "type": "bool"
        }
      ],
      "name": "ApprovalForAll",
      "type": "event"
    },
    {
      "anonymous": false,
      "inputs": [
        {
          "indexed": false,
          "internalType": "address",
          "name": "userAddress",
          "type": "address"
        },
        {
          "indexed": false,
          "internalType": "address payable",
          "name": "relayerAddress",
          "type": "address"
        },
        {
          "indexed": false,
          "internalType": "bytes",
          "name": "functionSignature",
          "type": "bytes"
        }
      ],
      "name": "MetaTransactionExecuted",
      "type": "event"
    },
    {
      "anonymous": false,
      "inputs": [
        {
          "indexed": false,
          "internalType": "address",
          "name": "_to",
          "type": "address"
        },
        {
          "indexed": false,
          "internalType": "uint256",
          "name": "_id",
          "type": "uint256"
        },
        {
          "indexed": false,
          "internalType": "uint256",
          "name": "_quantity",
          "type": "uint256"
        }
      ],
      "name": "MintEvent",
      "type": "event"
    },
    {
      "anonymous": false,
      "inputs": [
        {
          "indexed": false,
          "internalType": "address",
          "name": "previous",
          "type": "address"
        },
        {
          "indexed": false,
          "internalType": "address",
          "name": "new_",
          "type": "address"
        }
      ],
      "name": "OperatorChanged",
      "type": "event"
    },
    {
      "anonymous": false,
      "inputs": [
        {
          "indexed": false,
          "internalType": "address",
          "name": "account",
          "type": "address"
        }
      ],
      "name": "Paused",
      "type": "event"
    },
    {
      "anonymous": false,
      "inputs": [
        {
          "indexed": false,
          "internalType": "address",
          "name": "previous",
          "type": "address"
        },
        {
          "indexed": false,
          "internalType": "address",
          "name": "new_",
          "type": "address"
        }
      ],
      "name": "ProxyRegistryAddressChanged",
      "type": "event"
    },
    {
      "anonymous": false,
      "inputs": [
        {
          "indexed": true,
          "internalType": "bytes32",
          "name": "role",
          "type": "bytes32"
        },
        {
          "indexed": true,
          "internalType": "bytes32",
          "name": "previousAdminRole",
          "type": "bytes32"
        },
        {
          "indexed": true,
          "internalType": "bytes32",
          "name": "newAdminRole",
          "type": "bytes32"
        }
      ],
      "name": "RoleAdminChanged",
      "type": "event"
    },
    {
      "anonymous": false,
      "inputs": [
        {
          "indexed": true,
          "internalType": "bytes32",
          "name": "role",
          "type": "bytes32"
        },
        {
          "indexed": true,
          "internalType": "address",
          "name": "account",
          "type": "address"
        },
        {
          "indexed": true,
          "internalType": "address",
          "name": "sender",
          "type": "address"
        }
      ],
      "name": "RoleGranted",
      "type": "event"
    },
    {
      "anonymous": false,
      "inputs": [
        {
          "indexed": true,
          "internalType": "bytes32",
          "name": "role",
          "type": "bytes32"
        },
        {
          "indexed": true,
          "internalType": "address",
          "name": "account",
          "type": "address"
        },
        {
          "indexed": true,
          "internalType": "address",
          "name": "sender",
          "type": "address"
        }
      ],
      "name": "RoleRevoked",
      "type": "event"
    },
    {
      "anonymous": false,
      "inputs": [
        {
          "indexed": true,
          "internalType": "address",
          "name": "operator",
          "type": "address"
        },
        {
          "indexed": true,
          "internalType": "address",
          "name": "from",
          "type": "address"
        },
        {
          "indexed": true,
          "internalType": "address",
          "name": "to",
          "type": "address"
        },
        {
          "indexed": false,
          "internalType": "uint256[]",
          "name": "ids",
          "type": "uint256[]"
        },
        {
          "indexed": false,
          "internalType": "uint256[]",
          "name": "values",
          "type": "uint256[]"
        }
      ],
      "name": "TransferBatch",
      "type": "event"
    },
    {
      "anonymous": false,
      "inputs": [
        {
          "indexed": true,
          "internalType": "address",
          "name": "operator",
          "type": "address"
        },
        {
          "indexed": true,
          "internalType": "address",
          "name": "from",
          "type": "address"
        },
        {
          "indexed": true,
          "internalType": "address",
          "name": "to",
          "type": "address"
        },
        {
          "indexed": false,
          "internalType": "uint256",
          "name": "id",
          "type": "uint256"
        },
        {
          "indexed": false,
          "internalType": "uint256",
          "name": "value",
          "type": "uint256"
        }
      ],
      "name": "TransferSingle",
      "type": "event"
    },
    {
      "anonymous": false,
      "inputs": [
        {
          "indexed": false,
          "internalType": "string",
          "name": "value",
          "type": "string"
        },
        {
          "indexed": true,
          "internalType": "uint256",
          "name": "id",
          "type": "uint256"
        }
      ],
      "name": "URI",
      "type": "event"
    },
    {
      "anonymous": false,
      "inputs": [
        {
          "indexed": false,
          "internalType": "address",
          "name": "account",
          "type": "address"
        }
      ],
      "name": "Unpaused",
      "type": "event"
    },
    {
      "inputs": [],
      "name": "CREATOR_ROLE",
      "outputs": [
        {
          "internalType": "bytes32",
          "name": "",
          "type": "bytes32"
        }
      ],
      "stateMutability": "view",
      "type": "function"
    },
    {
      "inputs": [],
      "name": "DEFAULT_ADMIN_ROLE",
      "outputs": [
        {
          "internalType": "bytes32",
          "name": "",
          "type": "bytes32"
        }
      ],
      "stateMutability": "view",
      "type": "function"
    },
    {
      "inputs": [],
      "name": "ERC712_VERSION",
      "outputs": [
        {
          "internalType": "string",
          "name": "",
          "type": "string"
        }
      ],
      "stateMutability": "view",
      "type": "function"
    },
    {
      "inputs": [],
      "name": "MINTER_ROLE",
      "outputs": [
        {
          "internalType": "bytes32",
          "name": "",
          "type": "bytes32"
        }
      ],
      "stateMutability": "view",
      "type": "function"
    },
    {
      "inputs": [],
      "name": "OPERATOR_ROLE",
      "outputs": [
        {
          "internalType": "bytes32",
          "name": "",
          "type": "bytes32"
        }
      ],
      "stateMutability": "view",
      "type": "function"
    },
    {
      "inputs": [],
      "name": "PAUSER_ROLE",
      "outputs": [
        {
          "internalType": "bytes32",
          "name": "",
          "type": "bytes32"
        }
      ],
      "stateMutability": "view",
      "type": "function"
    },
    {
      "inputs": [],
      "name": "admin",
      "outputs": [
        {
          "internalType": "address",
          "name": "",
          "type": "address"
        }
      ],
      "stateMutability": "view",
      "type": "function"
    },
    {
      "inputs": [
        {
          "internalType": "address",
          "name": "account",
          "type": "address"
        },
        {
          "internalType": "uint256",
          "name": "id",
          "type": "uint256"
        }
      ],
      "name": "balanceOf",
      "outputs": [
        {
          "internalType": "uint256",
          "name": "",
          "type": "uint256"
        }
      ],
      "stateMutability": "view",
      "type": "function"
    },
    {
      "inputs": [
        {
          "internalType": "address[]",
          "name": "accounts",
          "type": "address[]"
        },
        {
          "internalType": "uint256[]",
          "name": "ids",
          "type": "uint256[]"
        }
      ],
      "name": "balanceOfBatch",
      "outputs": [
        {
          "internalType": "uint256[]",
          "name": "",
          "type": "uint256[]"
        }
      ],
      "stateMutability": "view",
      "type": "function"
    },
    {
      "inputs": [
        {
          "internalType": "address",
          "name": "account",
          "type": "address"
        },
        {
          "internalType": "uint256",
          "name": "id",
          "type": "uint256"
        },
        {
          "internalType": "uint256",
          "name": "value",
          "type": "uint256"
        }
      ],
      "name": "burn",
      "outputs": [],
      "stateMutability": "nonpayable",
      "type": "function"
    },
    {
      "inputs": [
        {
          "internalType": "address",
          "name": "account",
          "type": "address"
        },
        {
          "internalType": "uint256[]",
          "name": "ids",
          "type": "uint256[]"
        },
        {
          "internalType": "uint256[]",
          "name": "values",
          "type": "uint256[]"
        }
      ],
      "name": "burnBatch",
      "outputs": [],
      "stateMutability": "nonpayable",
      "type": "function"
    },
    {
      "inputs": [
        {
          "internalType": "address",
          "name": "_newAdmin",
          "type": "address"
        }
      ],
      "name": "changeAdmin",
      "outputs": [],
      "stateMutability": "nonpayable",
      "type": "function"
    },
    {
      "inputs": [
        {
          "internalType": "address",
          "name": "_newOperator",
          "type": "address"
        }
      ],
      "name": "changeOperator",
      "outputs": [],
      "stateMutability": "nonpayable",
      "type": "function"
    },
    {
      "inputs": [
        {
          "internalType": "uint256",
          "name": "",
          "type": "uint256"
        }
      ],
      "name": "creators",
      "outputs": [
        {
          "internalType": "address",
          "name": "",
          "type": "address"
        }
      ],
      "stateMutability": "view",
      "type": "function"
    },
    {
      "inputs": [
        {
          "internalType": "address",
          "name": "userAddress",
          "type": "address"
        },
        {
          "internalType": "bytes",
          "name": "functionSignature",
          "type": "bytes"
        },
        {
          "internalType": "bytes32",
          "name": "sigR",
          "type": "bytes32"
        },
        {
          "internalType": "bytes32",
          "name": "sigS",
          "type": "bytes32"
        },
        {
          "internalType": "uint8",
          "name": "sigV",
          "type": "uint8"
        }
      ],
      "name": "executeMetaTransaction",
      "outputs": [
        {
          "internalType": "bytes",
          "name": "",
          "type": "bytes"
        }
      ],
      "stateMutability": "nonpayable",
      "type": "function"
    },
    {
      "inputs": [
        {
          "internalType": "uint256",
          "name": "_id",
          "type": "uint256"
        }
      ],
      "name": "exists",
      "outputs": [
        {
          "internalType": "bool",
          "name": "",
          "type": "bool"
        }
      ],
      "stateMutability": "view",
      "type": "function"
    },
    {
      "inputs": [],
      "name": "getChainId",
      "outputs": [
        {
          "internalType": "uint256",
          "name": "",
          "type": "uint256"
        }
      ],
      "stateMutability": "view",
      "type": "function"
    },
    {
      "inputs": [
        {
          "internalType": "uint256",
          "name": "id",
          "type": "uint256"
        }
      ],
      "name": "getCreator",
      "outputs": [
        {
          "internalType": "address",
          "name": "sender",
          "type": "address"
        }
      ],
      "stateMutability": "view",
      "type": "function"
    },
    {
      "inputs": [],
      "name": "getDomainSeperator",
      "outputs": [
        {
          "internalType": "bytes32",
          "name": "",
          "type": "bytes32"
        }
      ],
      "stateMutability": "view",
      "type": "function"
    },
    {
      "inputs": [
        {
          "internalType": "address",
          "name": "user",
          "type": "address"
        }
      ],
      "name": "getNonce",
      "outputs": [
        {
          "internalType": "uint256",
          "name": "nonce",
          "type": "uint256"
        }
      ],
      "stateMutability": "view",
      "type": "function"
    },
    {
      "inputs": [
        {
          "internalType": "bytes32",
          "name": "role",
          "type": "bytes32"
        }
      ],
      "name": "getRoleAdmin",
      "outputs": [
        {
          "internalType": "bytes32",
          "name": "",
          "type": "bytes32"
        }
      ],
      "stateMutability": "view",
      "type": "function"
    },
    {
      "inputs": [
        {
          "internalType": "bytes32",
          "name": "role",
          "type": "bytes32"
        },
        {
          "internalType": "uint256",
          "name": "index",
          "type": "uint256"
        }
      ],
      "name": "getRoleMember",
      "outputs": [
        {
          "internalType": "address",
          "name": "",
          "type": "address"
        }
      ],
      "stateMutability": "view",
      "type": "function"
    },
    {
      "inputs": [
        {
          "internalType": "bytes32",
          "name": "role",
          "type": "bytes32"
        }
      ],
      "name": "getRoleMemberCount",
      "outputs": [
        {
          "internalType": "uint256",
          "name": "",
          "type": "uint256"
        }
      ],
      "stateMutability": "view",
      "type": "function"
    },
    {
      "inputs": [
        {
          "internalType": "bytes32",
          "name": "role",
          "type": "bytes32"
        },
        {
          "internalType": "address",
          "name": "account",
          "type": "address"
        }
      ],
      "name": "grantRole",
      "outputs": [],
      "stateMutability": "nonpayable",
      "type": "function"
    },
    {
      "inputs": [
        {
          "internalType": "bytes32",
          "name": "role",
          "type": "bytes32"
        },
        {
          "internalType": "address",
          "name": "account",
          "type": "address"
        }
      ],
      "name": "hasRole",
      "outputs": [
        {
          "internalType": "bool",
          "name": "",
          "type": "bool"
        }
      ],
      "stateMutability": "view",
      "type": "function"
    },
    {
      "inputs": [
        {
          "internalType": "address",
          "name": "_owner",
          "type": "address"
        },
        {
          "internalType": "address",
          "name": "_operator",
          "type": "address"
        }
      ],
      "name": "isApprovedForAll",
      "outputs": [
        {
          "internalType": "bool",
          "name": "isOperator",
          "type": "bool"
        }
      ],
      "stateMutability": "view",
      "type": "function"
    },
    {
      "inputs": [
        {
          "internalType": "address",
          "name": "_to",
          "type": "address"
        },
        {
          "internalType": "uint256",
          "name": "_id",
          "type": "uint256"
        },
        {
          "internalType": "uint256",
          "name": "_quantity",
          "type": "uint256"
        },
        {
          "internalType": "bytes",
          "name": "_data",
          "type": "bytes"
        }
      ],
      "name": "mint",
      "outputs": [],
      "stateMutability": "nonpayable",
      "type": "function"
    },
    {
      "inputs": [
        {
          "internalType": "address",
          "name": "to",
          "type": "address"
        },
        {
          "internalType": "uint256[]",
          "name": "ids",
          "type": "uint256[]"
        },
        {
          "internalType": "uint256[]",
          "name": "amounts",
          "type": "uint256[]"
        },
        {
          "internalType": "bytes",
          "name": "data",
          "type": "bytes"
        }
      ],
      "name": "mintBatch",
      "outputs": [],
      "stateMutability": "nonpayable",
      "type": "function"
    },
    {
      "inputs": [],
      "name": "name",
      "outputs": [
        {
          "internalType": "string",
          "name": "",
          "type": "string"
        }
      ],
      "stateMutability": "view",
      "type": "function"
    },
    {
      "inputs": [],
      "name": "operator",
      "outputs": [
        {
          "internalType": "address",
          "name": "",
          "type": "address"
        }
      ],
      "stateMutability": "view",
      "type": "function"
    },
    {
      "inputs": [],
      "name": "pause",
      "outputs": [],
      "stateMutability": "nonpayable",
      "type": "function"
    },
    {
      "inputs": [],
      "name": "paused",
      "outputs": [
        {
          "internalType": "bool",
          "name": "",
          "type": "bool"
        }
      ],
      "stateMutability": "view",
      "type": "function"
    },
    {
      "inputs": [],
      "name": "proxyRegistryAddress",
      "outputs": [
        {
          "internalType": "address",
          "name": "",
          "type": "address"
        }
      ],
      "stateMutability": "view",
      "type": "function"
    },
    {
      "inputs": [
        {
          "internalType": "bytes32",
          "name": "role",
          "type": "bytes32"
        },
        {
          "internalType": "address",
          "name": "account",
          "type": "address"
        }
      ],
      "name": "renounceRole",
      "outputs": [],
      "stateMutability": "nonpayable",
      "type": "function"
    },
    {
      "inputs": [
        {
          "internalType": "bytes32",
          "name": "role",
          "type": "bytes32"
        },
        {
          "internalType": "address",
          "name": "account",
          "type": "address"
        }
      ],
      "name": "revokeRole",
      "outputs": [],
      "stateMutability": "nonpayable",
      "type": "function"
    },
    {
      "inputs": [
        {
          "internalType": "uint256",
          "name": "",
          "type": "uint256"
        }
      ],
      "name": "royalties",
      "outputs": [
        {
          "internalType": "address",
          "name": "recipient",
          "type": "address"
        },
        {
          "internalType": "uint24",
          "name": "amount",
          "type": "uint24"
        },
        {
          "internalType": "bool",
          "name": "isValue",
          "type": "bool"
        }
      ],
      "stateMutability": "view",
      "type": "function"
    },
    {
      "inputs": [
        {
          "internalType": "uint256",
          "name": "_tokenId",
          "type": "uint256"
        },
        {
          "internalType": "uint256",
          "name": "_salePrice",
          "type": "uint256"
        }
      ],
      "name": "royaltyInfo",
      "outputs": [
        {
          "internalType": "address",
          "name": "receiver",
          "type": "address"
        },
        {
          "internalType": "uint256",
          "name": "royaltyAmount",
          "type": "uint256"
        }
      ],
      "stateMutability": "view",
      "type": "function"
    },
    {
      "inputs": [
        {
          "internalType": "address",
          "name": "from",
          "type": "address"
        },
        {
          "internalType": "address",
          "name": "to",
          "type": "address"
        },
        {
          "internalType": "uint256[]",
          "name": "ids",
          "type": "uint256[]"
        },
        {
          "internalType": "uint256[]",
          "name": "amounts",
          "type": "uint256[]"
        },
        {
          "internalType": "bytes",
          "name": "data",
          "type": "bytes"
        }
      ],
      "name": "safeBatchTransferFrom",
      "outputs": [],
      "stateMutability": "nonpayable",
      "type": "function"
    },
    {
      "inputs": [
        {
          "internalType": "address",
          "name": "from",
          "type": "address"
        },
        {
          "internalType": "address",
          "name": "to",
          "type": "address"
        },
        {
          "internalType": "uint256",
          "name": "id",
          "type": "uint256"
        },
        {
          "internalType": "uint256",
          "name": "amount",
          "type": "uint256"
        },
        {
          "internalType": "bytes",
          "name": "data",
          "type": "bytes"
        }
      ],
      "name": "safeTransferFrom",
      "outputs": [],
      "stateMutability": "nonpayable",
      "type": "function"
    },
    {
      "inputs": [
        {
          "internalType": "address",
          "name": "operator",
          "type": "address"
        },
        {
          "internalType": "bool",
          "name": "approved",
          "type": "bool"
        }
      ],
      "name": "setApprovalForAll",
      "outputs": [],
      "stateMutability": "nonpayable",
      "type": "function"
    },
    {
      "inputs": [
        {
          "internalType": "address",
          "name": "_to",
          "type": "address"
        },
        {
          "internalType": "uint256[]",
          "name": "_ids",
          "type": "uint256[]"
        }
      ],
      "name": "setCreator",
      "outputs": [],
      "stateMutability": "nonpayable",
      "type": "function"
    },
    {
      "inputs": [
        {
          "internalType": "uint256",
          "name": "_tokenId",
          "type": "uint256"
        },
        {
          "internalType": "string",
          "name": "_newURI",
          "type": "string"
        }
      ],
      "name": "setCustomURI",
      "outputs": [],
      "stateMutability": "nonpayable",
      "type": "function"
    },
    {
      "inputs": [
        {
          "internalType": "address",
          "name": "_proxyRegistryAddress",
          "type": "address"
        }
      ],
      "name": "setProxyRegistryAddress",
      "outputs": [],
      "stateMutability": "nonpayable",
      "type": "function"
    },
    {
      "inputs": [
        {
          "internalType": "uint256",
          "name": "_tokenId",
          "type": "uint256"
        },
        {
          "internalType": "address",
          "name": "_recipient",
          "type": "address"
        },
        {
          "internalType": "uint256",
          "name": "_value",
          "type": "uint256"
        }
      ],
      "name": "setTokenRoyalty",
      "outputs": [],
      "stateMutability": "nonpayable",
      "type": "function"
    },
    {
      "inputs": [
        {
          "internalType": "string",
          "name": "_newURI",
          "type": "string"
        }
      ],
      "name": "setURI",
      "outputs": [],
      "stateMutability": "nonpayable",
      "type": "function"
    },
    {
      "inputs": [
        {
          "internalType": "bytes4",
          "name": "interfaceId",
          "type": "bytes4"
        }
      ],
      "name": "supportsInterface",
      "outputs": [
        {
          "internalType": "bool",
          "name": "",
          "type": "bool"
        }
      ],
      "stateMutability": "view",
      "type": "function"
    },
    {
      "inputs": [],
      "name": "symbol",
      "outputs": [
        {
          "internalType": "string",
          "name": "",
          "type": "string"
        }
      ],
      "stateMutability": "view",
      "type": "function"
    },
    {
      "inputs": [],
      "name": "unpause",
      "outputs": [],
      "stateMutability": "nonpayable",
      "type": "function"
    },
    {
      "inputs": [
        {
          "internalType": "uint256",
          "name": "_id",
          "type": "uint256"
        }
      ],
      "name": "uri",
      "outputs": [
        {
          "internalType": "string",
          "name": "",
          "type": "string"
        }
      ],
      "stateMutability": "view",
      "type": "function"
    },
    {
      "inputs": [
        {
          "internalType": "address",
          "name": "_to",
          "type": "address"
        }
      ],
      "name": "withdraw",
      "outputs": [],
      "stateMutability": "nonpayable",
      "type": "function"
    }
  ],
  "bytecode": "0x60806040526005805461ff00191690553480156200001c57600080fd5b506040516200523d3803806200523d8339810160408190526200003f9162000c57565b82806200004c8162000308565b506005805460ff191690556200006d60006200006762000321565b6200033d565b6200008b6000805160206200521d8339815191526200006762000321565b620000a9600080516020620051fd8339815191526200006762000321565b5060016008558451620000c490600e90602088019062000aba565b508351620000da90600f90602087019062000aba565b50600b80546001600160a01b0319169055600e80546200018b9190620001009062000d0e565b80601f01602080910402602001604051908101604052809291908181526020018280546200012e9062000d0e565b80156200017f5780601f1062000153576101008083540402835291602001916200017f565b820191906000526020600020905b8154815290600101906020018083116200016157829003601f168201915b50506200034992505050565b600980546001600160a01b0319166001600160a01b038416908117909155620001b790600090620003b5565b600a80546001600160a01b0319166001600160a01b03831690811790915562000202907f97667070c54ef182b0f5858b034beac1b6f3089aa2d3188bb1e8929f4fa9b92990620003b5565b600a546200023b907f828634d95e775031b9ff576b159a8509d3053581a8c9c4d7d86899e0afcd882f906001600160a01b0316620003b5565b600a5462000263906000805160206200521d833981519152906001600160a01b0316620003b5565b600a546200028b90600080516020620051fd833981519152906001600160a01b0316620003b5565b6200029562000321565b6009546001600160a01b03908116911614620002fd57620002cf6000805160206200521d833981519152620002c962000321565b620003ed565b620002ed600080516020620051fd833981519152620002c962000321565b620002fd6000620002c962000321565b505050505062000eac565b80516200031d90600490602084019062000aba565b5050565b6000620003386200041a60201b62001e651760201c565b905090565b6200031d828262000479565b600554610100900460ff1615620003985760405162461bcd60e51b815260206004820152600e60248201526d185b1c9958591e481a5b9a5d195960921b60448201526064015b60405180910390fd5b620003a381620004b7565b506005805461ff001916610100179055565b600082815260208190526040902060010154620003dc81620003d662000321565b62000559565b620003e8838362000479565b505050565b6000828152602081905260409020600101546200040e81620003d662000321565b620003e88383620005f4565b6000333014156200047357600080368080601f0160208091040260200160405190810160405280939291908181526020018383808284376000920191909152505050503601516001600160a01b03169150620004769050565b50335b90565b6200049082826200063260201b62001ec21760201c565b6000828152600160209081526040909120620003e891839062001f47620006d4821b17901c565b6040518060800160405280604f8152602001620051ae604f9139805160209182012082519282019290922060408051808201825260018152603160f81b90840152805180840194909452838101919091527fc89efdaa54c0f20c7adf612882df0950f5a951637e0307cdcb4c672f298b8bc660608401523060808401524660a0808501919091528151808503909101815260c090930190528151910120600655565b6000828152602081815260408083206001600160a01b038516845290915290205460ff166200031d57620005a3816001600160a01b03166014620006f460201b62001f5c1760201c565b620005b983602062001f5c620006f4821b17811c565b604051602001620005cc92919062000d4b565b60408051601f198184030181529082905262461bcd60e51b82526200038f9160040162000dc4565b6200060b8282620008ad60201b620020f71760201c565b6000828152600160209081526040909120620003e89183906200217a6200094d821b17901c565b6000828152602081815260408083206001600160a01b038516845290915290205460ff166200031d576000828152602081815260408083206001600160a01b03851684529091529020805460ff191660011790556200069062000321565b6001600160a01b0316816001600160a01b0316837f2f8788117e7eff1d82e926ec794901d17c78024a50270940304540a733656f0d60405160405180910390a45050565b6000620006eb836001600160a01b03841662000964565b90505b92915050565b606060006200070583600262000e0f565b6200071290600262000e31565b6001600160401b038111156200072c576200072c62000b60565b6040519080825280601f01601f19166020018201604052801562000757576020820181803683370190505b509050600360fc1b8160008151811062000775576200077562000e4c565b60200101906001600160f81b031916908160001a905350600f60fb1b81600181518110620007a757620007a762000e4c565b60200101906001600160f81b031916908160001a9053506000620007cd84600262000e0f565b620007da90600162000e31565b90505b60018111156200085c576f181899199a1a9b1b9c1cb0b131b232b360811b85600f166010811062000812576200081262000e4c565b1a60f81b8282815181106200082b576200082b62000e4c565b60200101906001600160f81b031916908160001a90535060049490941c93620008548162000e62565b9050620007dd565b508315620006eb5760405162461bcd60e51b815260206004820181905260248201527f537472696e67733a20686578206c656e67746820696e73756666696369656e7460448201526064016200038f565b6000828152602081815260408083206001600160a01b038516845290915290205460ff16156200031d576000828152602081815260408083206001600160a01b03851684529091529020805460ff191690556200090962000321565b6001600160a01b0316816001600160a01b0316837ff6391f5c32d9c69d2a47ea670b442974b53935d1edc7fd64eb21e047a839171b60405160405180910390a45050565b6000620006eb836001600160a01b038416620009b6565b6000818152600183016020526040812054620009ad57508154600181810184556000848152602080822090930184905584548482528286019093526040902091909155620006ee565b506000620006ee565b6000818152600183016020526040812054801562000aaf576000620009dd60018362000e7c565b8554909150600090620009f39060019062000e7c565b905081811462000a5f57600086600001828154811062000a175762000a1762000e4c565b906000526020600020015490508087600001848154811062000a3d5762000a3d62000e4c565b6000918252602080832090910192909255918252600188019052604090208390555b855486908062000a735762000a7362000e96565b600190038181906000526020600020016000905590558560010160008681526020019081526020016000206000905560019350505050620006ee565b6000915050620006ee565b82805462000ac89062000d0e565b90600052602060002090601f01602090048101928262000aec576000855562000b37565b82601f1062000b0757805160ff191683800117855562000b37565b8280016001018555821562000b37579182015b8281111562000b3757825182559160200191906001019062000b1a565b5062000b4592915062000b49565b5090565b5b8082111562000b45576000815560010162000b4a565b634e487b7160e01b600052604160045260246000fd5b60005b8381101562000b9357818101518382015260200162000b79565b8381111562000ba3576000848401525b50505050565b600082601f83011262000bbb57600080fd5b81516001600160401b038082111562000bd85762000bd862000b60565b604051601f8301601f19908116603f0116810190828211818310171562000c035762000c0362000b60565b8160405283815286602085880101111562000c1d57600080fd5b62000c3084602083016020890162000b76565b9695505050505050565b80516001600160a01b038116811462000c5257600080fd5b919050565b600080600080600060a0868803121562000c7057600080fd5b85516001600160401b038082111562000c8857600080fd5b62000c9689838a0162000ba9565b9650602088015191508082111562000cad57600080fd5b62000cbb89838a0162000ba9565b9550604088015191508082111562000cd257600080fd5b5062000ce18882890162000ba9565b93505062000cf26060870162000c3a565b915062000d026080870162000c3a565b90509295509295909350565b600181811c9082168062000d2357607f821691505b6020821081141562000d4557634e487b7160e01b600052602260045260246000fd5b50919050565b7f416363657373436f6e74726f6c3a206163636f756e742000000000000000000081526000835162000d8581601785016020880162000b76565b7001034b99036b4b9b9b4b733903937b6329607d1b601791840191820152835162000db881602884016020880162000b76565b01602801949350505050565b602081526000825180602084015262000de581604085016020870162000b76565b601f01601f19169190910160400192915050565b634e487b7160e01b600052601160045260246000fd5b600081600019048311821515161562000e2c5762000e2c62000df9565b500290565b6000821982111562000e475762000e4762000df9565b500190565b634e487b7160e01b600052603260045260246000fd5b60008162000e745762000e7462000df9565b506000190190565b60008282101562000e915762000e9162000df9565b500390565b634e487b7160e01b600052603160045260246000fd5b6142f28062000ebc6000396000f3fe608060405234801561001057600080fd5b50600436106102d55760003560e01c8063731133e911610182578063cd53d08e116100e9578063d547741f116100a2578063f242432a1161007c578063f242432a14610722578063f5298aca14610735578063f5b541a614610748578063f851a4401461075d57600080fd5b8063d547741f146106e7578063e63ab1e9146106fa578063e985e9c51461070f57600080fd5b8063cd53d08e14610647578063cd7c032614610670578063d26ea6c014610683578063d2a6b51a14610696578063d48e638a146106a9578063d5391393146106d257600080fd5b806391d148541161013b57806391d14854146105eb57806395d89b41146105fe5780639713c80714610606578063a217fddf14610619578063a22cb46514610621578063ca15c8731461063457600080fd5b8063731133e9146105285780637f77f5741461053b5780638456cb59146105a85780638aeda25a146105b05780638f283970146105c55780639010d07c146105d857600080fd5b80632d0335ab116102415780633f4ba83a116101fa57806351cff8d9116101d457806351cff8d9146104cc578063570ca735146104df5780635c975abb1461050a5780636b20c4541461051557600080fd5b80633f4ba83a146104915780634e1273f4146104995780634f558e79146104b957600080fd5b80632d0335ab146104165780632eb2c2d61461043f5780632f2ff15d146104525780633408e4701461046557806336568abe1461046b5780633adf80b41461047e57600080fd5b80630e89341c116102935780630e89341c146103735780630f7e5970146103865780631f7fdffa146103a657806320379ee5146103b9578063248a9ca3146103c15780632a55205a146103e457600080fd5b8062fdd58e146102da57806301ffc9a71461030057806302fe53051461032357806306394c9b1461033857806306fdde031461034b5780630c53c51c14610360575b600080fd5b6102ed6102e83660046133b7565b610770565b6040519081526020015b60405180910390f35b61031361030e3660046133f9565b61080c565b60405190151581526020016102f7565b6103366103313660046134cb565b610831565b005b610336610346366004613507565b6108e3565b610353610afe565b6040516102f7919061357c565b61035361036e36600461358f565b610b8c565b61035361038136600461360c565b610d5f565b610353604051806040016040528060018152602001603160f81b81525081565b6103366103b43660046136b9565b610f12565b6006546102ed565b6102ed6103cf36600461360c565b60009081526020819052604090206001015490565b6103f76103f2366004613753565b610fb0565b604080516001600160a01b0390931683526020830191909152016102f7565b6102ed610424366004613507565b6001600160a01b031660009081526007602052604090205490565b61033661044d366004613775565b611072565b610336610460366004613822565b61111b565b466102ed565b610336610479366004613822565b61114d565b61033661048c366004613852565b6111db565b6103366112b0565b6104ac6104a736600461388e565b611346565b6040516102f7919061398b565b6103136104c736600461360c565b61146f565b6103366104da366004613507565b61148e565b600a546104f2906001600160a01b031681565b6040516001600160a01b0390911681526020016102f7565b60055460ff16610313565b61033661052336600461399e565b61161b565b610336610536366004613a13565b611670565b61057d61054936600461360c565b6010602052600090815260409020546001600160a01b03811690600160a01b810462ffffff1690600160b81b900460ff1683565b604080516001600160a01b03909416845262ffffff90921660208401521515908201526060016102f7565b6103366116b2565b6102ed60008051602061423d83398151915281565b6103366105d3366004613507565b611746565b6104f26105e6366004613753565b611888565b6103136105f9366004613822565b6118a0565b6103536118c9565b610336610614366004613a69565b6118d6565b6102ed600081565b61033661062f366004613aa1565b611a50565b6102ed61064236600461360c565b611a62565b6104f261065536600461360c565b600c602052600090815260409020546001600160a01b031681565b600b546104f2906001600160a01b031681565b610336610691366004613507565b611a79565b6103366106a4366004613ad4565b611b91565b6104f26106b736600461360c565b6000908152600c60205260409020546001600160a01b031690565b6102ed60008051602061429d83398151915281565b6103366106f5366004613822565b611cc1565b6102ed60008051602061427d83398151915281565b61031361071d366004613b19565b611ce9565b610336610730366004613b47565b611db9565b610336610743366004613baf565b611e10565b6102ed60008051602061425d83398151915281565b6009546104f2906001600160a01b031681565b60006001600160a01b0383166107e15760405162461bcd60e51b815260206004820152602b60248201527f455243313135353a2062616c616e636520717565727920666f7220746865207a60448201526a65726f206164647265737360a81b60648201526084015b60405180910390fd5b5060008181526002602090815260408083206001600160a01b03861684529091529020545b92915050565b60006001600160e01b03198216636a4731c560e11b148061080657506108068261218f565b600a546001600160a01b031661084561219a565b6001600160a01b03161461086b5760405162461bcd60e51b81526004016107d890613be4565b61088560008051602061425d8339815191526105f961219a565b6108a15760405162461bcd60e51b81526004016107d890613be4565b6108bb60008051602061423d8339815191526105f961219a565b6108d75760405162461bcd60e51b81526004016107d890613c0b565b6108e0816121a9565b50565b6009546001600160a01b03166108f761219a565b6001600160a01b03161461091d5760405162461bcd60e51b81526004016107d890613c31565b61092a60006105f961219a565b6109465760405162461bcd60e51b81526004016107d890613c31565b6009546001600160a01b031661095a61219a565b6001600160a01b0316146109805760405162461bcd60e51b81526004016107d890613c55565b61098d60006105f961219a565b6109a95760405162461bcd60e51b81526004016107d890613c55565b600a80546001600160a01b038381166001600160a01b03198316811790935516906109e39060008051602061425d8339815191529061111b565b600a54610a089060008051602061423d833981519152906001600160a01b031661111b565b600a54610a2d9060008051602061429d833981519152906001600160a01b031661111b565b600a54610a529060008051602061427d833981519152906001600160a01b031661111b565b610a6a60008051602061425d83398151915282611cc1565b610a8260008051602061423d83398151915282611cc1565b610a9a60008051602061429d83398151915282611cc1565b610ab260008051602061427d83398151915282611cc1565b600a54604080516001600160a01b03808516825290921660208301527fd58299b712891143e76310d5e664c4203c940a67db37cf856bdaa3c5c76a802c91015b60405180910390a15050565b600e8054610b0b90613c78565b80601f0160208091040260200160405190810160405280929190818152602001828054610b3790613c78565b8015610b845780601f10610b5957610100808354040283529160200191610b84565b820191906000526020600020905b815481529060010190602001808311610b6757829003601f168201915b505050505081565b60408051606081810183526001600160a01b03881660008181526007602090815290859020548452830152918101869052610bca87828787876121bc565b610c205760405162461bcd60e51b815260206004820152602160248201527f5369676e657220616e64207369676e617475726520646f206e6f74206d6174636044820152600d60fb1b60648201526084016107d8565b6001600160a01b038716600090815260076020526040902054610c44906001613cc3565b6001600160a01b0388166000908152600760205260409081902091909155517f5845892132946850460bff5a0083f71031bc5bf9aadcd40f1de79423eac9b10b90610c9490899033908a90613cdb565b60405180910390a1600080306001600160a01b0316888a604051602001610cbc929190613d10565b60408051601f1981840301815290829052610cd691613d47565b6000604051808303816000865af19150503d8060008114610d13576040519150601f19603f3d011682016040523d82523d6000602084013e610d18565b606091505b509150915081610d535760405162461bcd60e51b81526004016107d89060208082526004908201526319985a5b60e21b604082015260600190565b98975050505050505050565b6000818152600c60205260409020546060906001600160a01b0316610dba5760405162461bcd60e51b81526020600482015260116024820152702727a722ac24a9aa22a72a2faa27a5a2a760791b60448201526064016107d8565b6000828152600d602052604081208054610dd390613c78565b80601f0160208091040260200160405190810160405280929190818152602001828054610dff90613c78565b8015610e4c5780601f10610e2157610100808354040283529160200191610e4c565b820191906000526020600020905b815481529060010190602001808311610e2f57829003601f168201915b50505050509050600081511115610efc576000838152600d602052604090208054610e7690613c78565b80601f0160208091040260200160405190810160405280929190818152602001828054610ea290613c78565b8015610eef5780601f10610ec457610100808354040283529160200191610eef565b820191906000526020600020905b815481529060010190602001808311610ed257829003601f168201915b5050505050915050919050565b610f058361228a565b9392505050565b50919050565b610f2c60008051602061429d8339815191526105f961219a565b610f9e5760405162461bcd60e51b815260206004820152603860248201527f455243313135355072657365744d696e7465725061757365723a206d7573742060448201527f68617665206d696e74657220726f6c6520746f206d696e74000000000000000060648201526084016107d8565b610faa8484848461231e565b50505050565b6000828152601060209081526040808320815160608101835290546001600160a01b0381168252600160a01b810462ffffff1693820193909352600160b81b90920460ff16158015918301919091528291906110345780516020820151909350612710906110239062ffffff1686613d63565b61102d9190613d82565b915061106a565b6000858152600c60205260409020546001600160a01b0316925061271061105d856101f4613d63565b6110679190613d82565b91505b509250929050565b61107a61219a565b6001600160a01b0316856001600160a01b031614806110a057506110a08561071d61219a565b6111075760405162461bcd60e51b815260206004820152603260248201527f455243313135353a207472616e736665722063616c6c6572206973206e6f74206044820152711bdddb995c881b9bdc88185c1c1c9bdd995960721b60648201526084016107d8565b61111485858585856124be565b5050505050565b60008281526020819052604090206001015461113e8161113961219a565b612676565b61114883836126da565b505050565b61115561219a565b6001600160a01b0316816001600160a01b0316146111cd5760405162461bcd60e51b815260206004820152602f60248201527f416363657373436f6e74726f6c3a2063616e206f6e6c792072656e6f756e636560448201526e103937b632b9903337b91039b2b63360891b60648201526084016107d8565b6111d782826126fc565b5050565b816111e461219a565b6000828152600c60205260409020546001600160a01b0390811691161461121d5760405162461bcd60e51b81526004016107d890613c0b565b61123760008051602061423d8339815191526105f961219a565b6112535760405162461bcd60e51b81526004016107d890613c0b565b6000838152600d60209081526040909120835161127292850190613309565b50827f6bb7ff708619ba0610cba295a58592e0451dee2622938c8755667688daf3529b836040516112a3919061357c565b60405180910390a2505050565b6112ca60008051602061427d8339815191526105f961219a565b61133c5760405162461bcd60e51b815260206004820152603b60248201527f455243313135355072657365744d696e7465725061757365723a206d7573742060448201527f686176652070617573657220726f6c6520746f20756e7061757365000000000060648201526084016107d8565b61134461271e565b565b606081518351146113ab5760405162461bcd60e51b815260206004820152602960248201527f455243313135353a206163636f756e747320616e6420696473206c656e677468604482015268040dad2e6dac2e8c6d60bb1b60648201526084016107d8565b600083516001600160401b038111156113c6576113c6613416565b6040519080825280602002602001820160405280156113ef578160200160208202803683370190505b50905060005b84518110156114675761143a85828151811061141357611413613da4565b602002602001015185838151811061142d5761142d613da4565b6020026020010151610770565b82828151811061144c5761144c613da4565b602090810291909101015261146081613dba565b90506113f5565b509392505050565b6000818152600c60205260408120546001600160a01b03161515610806565b600260085414156114e15760405162461bcd60e51b815260206004820152601f60248201527f5265656e7472616e637947756172643a207265656e7472616e742063616c6c0060448201526064016107d8565b60026008556009546001600160a01b03166114fa61219a565b6001600160a01b0316146115205760405162461bcd60e51b81526004016107d890613c31565b61152d60006105f961219a565b6115495760405162461bcd60e51b81526004016107d890613c31565b600047116115865760405162461bcd60e51b815260206004820152600a60248201526909c9ea8be8a9c9eaa8e960b31b60448201526064016107d8565b6000816001600160a01b03164760405160006040518083038185875af1925050503d80600081146115d3576040519150601f19603f3d011682016040523d82523d6000602084013e6115d8565b606091505b50509050806116125760405162461bcd60e51b81526004016107d8906020808252600490820152631190525360e21b604082015260600190565b50506001600855565b61162361219a565b6001600160a01b0316836001600160a01b0316148061164957506116498361071d61219a565b6116655760405162461bcd60e51b81526004016107d890613dd5565b6111488383836127b7565b8261167961219a565b6000828152600c60205260409020546001600160a01b039081169116146111145760405162461bcd60e51b81526004016107d890613c0b565b6116cc60008051602061427d8339815191526105f961219a565b61173e5760405162461bcd60e51b815260206004820152603960248201527f455243313135355072657365744d696e7465725061757365723a206d7573742060448201527f686176652070617573657220726f6c6520746f2070617573650000000000000060648201526084016107d8565b61134461294f565b6009546001600160a01b031661175a61219a565b6001600160a01b0316146117805760405162461bcd60e51b81526004016107d890613c31565b61178d60006105f961219a565b6117a95760405162461bcd60e51b81526004016107d890613c31565b6009546001600160a01b03166117bd61219a565b6001600160a01b0316146117e35760405162461bcd60e51b81526004016107d890613c55565b6117f060006105f961219a565b61180c5760405162461bcd60e51b81526004016107d890613c55565b600980546001600160a01b038381166001600160a01b03198316811790935516906118399060009061111b565b611844600082611cc1565b600954604080516001600160a01b03808516825290921660208301527f7e644d79422f17c01e4894b5f4f588d331ebfa28653d42ae832dc59e38c9798f9101610af2565b6000828152600160205260408120610f0590836129cb565b6000918252602082815260408084206001600160a01b0393909316845291905290205460ff1690565b600f8054610b0b90613c78565b600a546001600160a01b03166118ea61219a565b6001600160a01b0316146119105760405162461bcd60e51b81526004016107d890613be4565b61192a60008051602061425d8339815191526105f961219a565b6119465760405162461bcd60e51b81526004016107d890613be4565b61196060008051602061423d8339815191526105f961219a565b61199a5760405162461bcd60e51b815260206004820152600b60248201526a2727aa2fa1a922a0aa27a960a91b60448201526064016107d8565b6127108111156119d75760405162461bcd60e51b81526020600482015260086024820152670a89e9ebe90928e960c31b60448201526064016107d8565b604080516060810182526001600160a01b03938416815262ffffff928316602080830191825260018385019081526000978852601090915292909520905181549551925194166001600160b81b031990951694909417600160a01b91909216021760ff60b81b1916600160b81b91151591909102179055565b6111d7611a5b61219a565b83836129d7565b600081815260016020526040812061080690612ab8565b600a546001600160a01b0316611a8d61219a565b6001600160a01b031614611ab35760405162461bcd60e51b81526004016107d890613be4565b611acd60008051602061425d8339815191526105f961219a565b611ae95760405162461bcd60e51b81526004016107d890613be4565b600b546001600160a01b0382811691161415611b375760405162461bcd60e51b815260206004820152600d60248201526c141493d61657d2539590531251609a1b60448201526064016107d8565b600b80546001600160a01b038381166001600160a01b031983168117909355604080519190921680825260208201939093527ffc15895015d07bcb2ae0459d79c7bfb40d36feedb31f55cc34e3ef404c86c5779101610af2565b600a546001600160a01b0316611ba561219a565b6001600160a01b031614611bcb5760405162461bcd60e51b81526004016107d890613be4565b611be560008051602061425d8339815191526105f961219a565b611c015760405162461bcd60e51b81526004016107d890613be4565b6001600160a01b038216611c4a5760405162461bcd60e51b815260206004820152601060248201526f24a72b20a624a22fa0a2222922a9a99760811b60448201526064016107d8565b611c6260008051602061423d833981519152836126da565b611c7a60008051602061429d833981519152836126da565b60005b8151811015611148576000828281518110611c9a57611c9a613da4565b60200260200101519050611cae8482612ac2565b5080611cb981613dba565b915050611c7d565b600082815260208190526040902060010154611cdf8161113961219a565b61114883836126fc565b600b546000906001600160a01b031615611d8b57600b5460405163c455279160e01b81526001600160a01b03858116600483015291821691841690829063c455279190602401602060405180830381865afa158015611d4c573d6000803e3d6000fd5b505050506040513d601f19601f82011682018060405250810190611d709190613e1e565b6001600160a01b03161415611d89576001915050610806565b505b6001600160a01b0380841660009081526003602090815260408083209386168352929052205460ff16610f05565b611dc161219a565b6001600160a01b0316856001600160a01b03161480611de75750611de78561071d61219a565b611e035760405162461bcd60e51b81526004016107d890613dd5565b6111148585858585612b33565b611e1861219a565b6001600160a01b0316836001600160a01b03161480611e3e5750611e3e8361071d61219a565b611e5a5760405162461bcd60e51b81526004016107d890613dd5565b611148838383612c6e565b600033301415611ebc57600080368080601f0160208091040260200160405190810160405280939291908181526020018383808284376000920191909152505050503601516001600160a01b03169150611ebf9050565b50335b90565b611ecc82826118a0565b6111d7576000828152602081815260408083206001600160a01b03851684529091529020805460ff19166001179055611f0361219a565b6001600160a01b0316816001600160a01b0316837f2f8788117e7eff1d82e926ec794901d17c78024a50270940304540a733656f0d60405160405180910390a45050565b6000610f05836001600160a01b038416612d7e565b60606000611f6b836002613d63565b611f76906002613cc3565b6001600160401b03811115611f8d57611f8d613416565b6040519080825280601f01601f191660200182016040528015611fb7576020820181803683370190505b509050600360fc1b81600081518110611fd257611fd2613da4565b60200101906001600160f81b031916908160001a905350600f60fb1b8160018151811061200157612001613da4565b60200101906001600160f81b031916908160001a9053506000612025846002613d63565b612030906001613cc3565b90505b60018111156120a8576f181899199a1a9b1b9c1cb0b131b232b360811b85600f166010811061206457612064613da4565b1a60f81b82828151811061207a5761207a613da4565b60200101906001600160f81b031916908160001a90535060049490941c936120a181613e3b565b9050612033565b508315610f055760405162461bcd60e51b815260206004820181905260248201527f537472696e67733a20686578206c656e67746820696e73756666696369656e7460448201526064016107d8565b61210182826118a0565b156111d7576000828152602081815260408083206001600160a01b03851684529091529020805460ff1916905561213661219a565b6001600160a01b0316816001600160a01b0316837ff6391f5c32d9c69d2a47ea670b442974b53935d1edc7fd64eb21e047a839171b60405160405180910390a45050565b6000610f05836001600160a01b038416612dcd565b600061080682612ec0565b60006121a4611e65565b905090565b80516111d7906004906020840190613309565b60006001600160a01b0386166122005760405162461bcd60e51b815260206004820152600960248201526824a72fa9a4a3a722a960b91b60448201526064016107d8565b600161221361220e87612f00565b612f7d565b6040805160008152602081018083529290925260ff851690820152606081018690526080810185905260a0016020604051602081039080840390855afa158015612261573d6000803e3d6000fd5b505050602060405103516001600160a01b0316866001600160a01b031614905095945050505050565b60606004805461229990613c78565b80601f01602080910402602001604051908101604052809291908181526020018280546122c590613c78565b80156123125780601f106122e757610100808354040283529160200191612312565b820191906000526020600020905b8154815290600101906020018083116122f557829003601f168201915b50505050509050919050565b6001600160a01b03841661237e5760405162461bcd60e51b815260206004820152602160248201527f455243313135353a206d696e7420746f20746865207a65726f206164647265736044820152607360f81b60648201526084016107d8565b815183511461239f5760405162461bcd60e51b81526004016107d890613e52565b60006123a961219a565b90506123ba81600087878787612fad565b60005b8451811015612456578381815181106123d8576123d8613da4565b6020026020010151600260008784815181106123f6576123f6613da4565b602002602001015181526020019081526020016000206000886001600160a01b03166001600160a01b03168152602001908152602001600020600082825461243e9190613cc3565b9091555081905061244e81613dba565b9150506123bd565b50846001600160a01b031660006001600160a01b0316826001600160a01b03167f4a39dc06d4c0dbc64b70af90fd698a233a518aa5d07e595d983b8c0526c8f7fb87876040516124a7929190613e9a565b60405180910390a461111481600087878787612fbb565b81518351146124df5760405162461bcd60e51b81526004016107d890613e52565b6001600160a01b0384166125055760405162461bcd60e51b81526004016107d890613ebf565b600061250f61219a565b905061251f818787878787612fad565b60005b845181101561260857600085828151811061253f5761253f613da4565b60200260200101519050600085838151811061255d5761255d613da4565b60209081029190910181015160008481526002835260408082206001600160a01b038e1683529093529190912054909150818110156125ae5760405162461bcd60e51b81526004016107d890613f04565b60008381526002602090815260408083206001600160a01b038e8116855292528083208585039055908b168252812080548492906125ed908490613cc3565b925050819055505050508061260190613dba565b9050612522565b50846001600160a01b0316866001600160a01b0316826001600160a01b03167f4a39dc06d4c0dbc64b70af90fd698a233a518aa5d07e595d983b8c0526c8f7fb8787604051612658929190613e9a565b60405180910390a461266e818787878787612fbb565b505050505050565b61268082826118a0565b6111d757612698816001600160a01b03166014611f5c565b6126a3836020611f5c565b6040516020016126b4929190613f4e565b60408051601f198184030181529082905262461bcd60e51b82526107d89160040161357c565b6126e48282611ec2565b60008281526001602052604090206111489082611f47565b61270682826120f7565b6000828152600160205260409020611148908261217a565b60055460ff166127675760405162461bcd60e51b815260206004820152601460248201527314185d5cd8589b194e881b9bdd081c185d5cd95960621b60448201526064016107d8565b6005805460ff191690557f5db9ee0a495bf2e6ff9c91a7834c1ba4fdd244a5e8aa4e537bd38aeae4b073aa61279a61219a565b6040516001600160a01b03909116815260200160405180910390a1565b6001600160a01b0383166127dd5760405162461bcd60e51b81526004016107d890613fc3565b80518251146127fe5760405162461bcd60e51b81526004016107d890613e52565b600061280861219a565b905061282881856000868660405180602001604052806000815250612fad565b60005b83518110156128f057600084828151811061284857612848613da4565b60200260200101519050600084838151811061286657612866613da4565b60209081029190910181015160008481526002835260408082206001600160a01b038c1683529093529190912054909150818110156128b75760405162461bcd60e51b81526004016107d890614006565b60009283526002602090815260408085206001600160a01b038b16865290915290922091039055806128e881613dba565b91505061282b565b5060006001600160a01b0316846001600160a01b0316826001600160a01b03167f4a39dc06d4c0dbc64b70af90fd698a233a518aa5d07e595d983b8c0526c8f7fb8686604051612941929190613e9a565b60405180910390a450505050565b60055460ff16156129955760405162461bcd60e51b815260206004820152601060248201526f14185d5cd8589b194e881c185d5cd95960821b60448201526064016107d8565b6005805460ff191660011790557f62e78cea01bee320cd4e420270b5ea74000d11b0c9f74754ebdbfc544b05a25861279a61219a565b6000610f058383613117565b816001600160a01b0316836001600160a01b03161415612a4b5760405162461bcd60e51b815260206004820152602960248201527f455243313135353a2073657474696e6720617070726f76616c20737461747573604482015268103337b91039b2b63360b91b60648201526084016107d8565b6001600160a01b03838116600081815260036020908152604080832094871680845294825291829020805460ff191686151590811790915591519182527f17307eab39ab6107e8899845ad3d59bd9653f200f220920489ca2b5937696c31910160405180910390a3505050565b6000610806825490565b80612acb61219a565b6000828152600c60205260409020546001600160a01b03908116911614612b045760405162461bcd60e51b81526004016107d890613c0b565b506000908152600c6020526040902080546001600160a01b0319166001600160a01b0392909216919091179055565b6001600160a01b038416612b595760405162461bcd60e51b81526004016107d890613ebf565b6000612b6361219a565b9050612b83818787612b7488613141565b612b7d88613141565b87612fad565b60008481526002602090815260408083206001600160a01b038a16845290915290205483811015612bc65760405162461bcd60e51b81526004016107d890613f04565b60008581526002602090815260408083206001600160a01b038b8116855292528083208785039055908816825281208054869290612c05908490613cc3565b909155505060408051868152602081018690526001600160a01b03808916928a821692918616917fc3d58168c5ae7397731d063d5bbf3d657854427343f4c083240f7aacaa2d0f62910160405180910390a4612c6582888888888861318c565b50505050505050565b6001600160a01b038316612c945760405162461bcd60e51b81526004016107d890613fc3565b6000612c9e61219a565b9050612cce81856000612cb087613141565b612cb987613141565b60405180602001604052806000815250612fad565b60008381526002602090815260408083206001600160a01b038816845290915290205482811015612d115760405162461bcd60e51b81526004016107d890614006565b60008481526002602090815260408083206001600160a01b03898116808652918452828520888703905582518981529384018890529092908616917fc3d58168c5ae7397731d063d5bbf3d657854427343f4c083240f7aacaa2d0f62910160405180910390a45050505050565b6000818152600183016020526040812054612dc557508154600181810184556000848152602080822090930184905584548482528286019093526040902091909155610806565b506000610806565b60008181526001830160205260408120548015612eb6576000612df160018361404a565b8554909150600090612e059060019061404a565b9050818114612e6a576000866000018281548110612e2557612e25613da4565b9060005260206000200154905080876000018481548110612e4857612e48613da4565b6000918252602080832090910192909255918252600188019052604090208390555b8554869080612e7b57612e7b614061565b600190038181906000526020600020016000905590558560010160008681526020019081526020016000206000905560019350505050610806565b6000915050610806565b60006001600160e01b03198216636cdb3d1360e11b1480612ef157506001600160e01b031982166303a24d0760e21b145b80610806575061080682613247565b60006040518060600160405280602581526020016142186025913980516020918201208351848301516040808701518051908601209051612f60950193845260208401929092526001600160a01b03166040830152606082015260800190565b604051602081830303815290604052805190602001209050919050565b6000612f8860065490565b60405161190160f01b6020820152602281019190915260428101839052606201612f60565b61266e86868686868661326c565b6001600160a01b0384163b1561266e5760405163bc197c8160e01b81526001600160a01b0385169063bc197c8190612fff9089908990889088908890600401614077565b6020604051808303816000875af192505050801561303a575060408051601f3d908101601f19168201909252613037918101906140c9565b60015b6130e7576130466140e6565b806308c379a01415613080575061305b614101565b806130665750613082565b8060405162461bcd60e51b81526004016107d8919061357c565b505b60405162461bcd60e51b815260206004820152603460248201527f455243313135353a207472616e7366657220746f206e6f6e20455243313135356044820152732932b1b2b4bb32b91034b6b83632b6b2b73a32b960611b60648201526084016107d8565b6001600160e01b0319811663bc197c8160e01b14612c655760405162461bcd60e51b81526004016107d89061418a565b600082600001828154811061312e5761312e613da4565b9060005260206000200154905092915050565b6040805160018082528183019092526060916000919060208083019080368337019050509050828160008151811061317b5761317b613da4565b602090810291909101015292915050565b6001600160a01b0384163b1561266e5760405163f23a6e6160e01b81526001600160a01b0385169063f23a6e61906131d090899089908890889088906004016141d2565b6020604051808303816000875af192505050801561320b575060408051601f3d908101601f19168201909252613208918101906140c9565b60015b613217576130466140e6565b6001600160e01b0319811663f23a6e6160e01b14612c655760405162461bcd60e51b81526004016107d89061418a565b60006001600160e01b03198216635a05180f60e01b14806108065750610806826132d4565b60055460ff161561266e5760405162461bcd60e51b815260206004820152602c60248201527f455243313135355061757361626c653a20746f6b656e207472616e736665722060448201526b1dda1a5b19481c185d5cd95960a21b60648201526084016107d8565b60006001600160e01b03198216637965db0b60e01b148061080657506301ffc9a760e01b6001600160e01b0319831614610806565b82805461331590613c78565b90600052602060002090601f016020900481019282613337576000855561337d565b82601f1061335057805160ff191683800117855561337d565b8280016001018555821561337d579182015b8281111561337d578251825591602001919060010190613362565b5061338992915061338d565b5090565b5b80821115613389576000815560010161338e565b6001600160a01b03811681146108e057600080fd5b600080604083850312156133ca57600080fd5b82356133d5816133a2565b946020939093013593505050565b6001600160e01b0319811681146108e057600080fd5b60006020828403121561340b57600080fd5b8135610f05816133e3565b634e487b7160e01b600052604160045260246000fd5b601f8201601f191681016001600160401b038111828210171561345157613451613416565b6040525050565b600082601f83011261346957600080fd5b81356001600160401b0381111561348257613482613416565b604051613499601f8301601f19166020018261342c565b8181528460208386010111156134ae57600080fd5b816020850160208301376000918101602001919091529392505050565b6000602082840312156134dd57600080fd5b81356001600160401b038111156134f357600080fd5b6134ff84828501613458565b949350505050565b60006020828403121561351957600080fd5b8135610f05816133a2565b60005b8381101561353f578181015183820152602001613527565b83811115610faa5750506000910152565b60008151808452613568816020860160208601613524565b601f01601f19169290920160200192915050565b602081526000610f056020830184613550565b600080600080600060a086880312156135a757600080fd5b85356135b2816133a2565b945060208601356001600160401b038111156135cd57600080fd5b6135d988828901613458565b9450506040860135925060608601359150608086013560ff811681146135fe57600080fd5b809150509295509295909350565b60006020828403121561361e57600080fd5b5035919050565b60006001600160401b0382111561363e5761363e613416565b5060051b60200190565b600082601f83011261365957600080fd5b8135602061366682613625565b604051613673828261342c565b83815260059390931b850182019282810191508684111561369357600080fd5b8286015b848110156136ae5780358352918301918301613697565b509695505050505050565b600080600080608085870312156136cf57600080fd5b84356136da816133a2565b935060208501356001600160401b03808211156136f657600080fd5b61370288838901613648565b9450604087013591508082111561371857600080fd5b61372488838901613648565b9350606087013591508082111561373a57600080fd5b5061374787828801613458565b91505092959194509250565b6000806040838503121561376657600080fd5b50508035926020909101359150565b600080600080600060a0868803121561378d57600080fd5b8535613798816133a2565b945060208601356137a8816133a2565b935060408601356001600160401b03808211156137c457600080fd5b6137d089838a01613648565b945060608801359150808211156137e657600080fd5b6137f289838a01613648565b9350608088013591508082111561380857600080fd5b5061381588828901613458565b9150509295509295909350565b6000806040838503121561383557600080fd5b823591506020830135613847816133a2565b809150509250929050565b6000806040838503121561386557600080fd5b8235915060208301356001600160401b0381111561388257600080fd5b61106785828601613458565b600080604083850312156138a157600080fd5b82356001600160401b03808211156138b857600080fd5b818501915085601f8301126138cc57600080fd5b813560206138d982613625565b6040516138e6828261342c565b83815260059390931b850182019282810191508984111561390657600080fd5b948201945b8386101561392d57853561391e816133a2565b8252948201949082019061390b565b9650508601359250508082111561394357600080fd5b5061106785828601613648565b600081518084526020808501945080840160005b8381101561398057815187529582019590820190600101613964565b509495945050505050565b602081526000610f056020830184613950565b6000806000606084860312156139b357600080fd5b83356139be816133a2565b925060208401356001600160401b03808211156139da57600080fd5b6139e687838801613648565b935060408601359150808211156139fc57600080fd5b50613a0986828701613648565b9150509250925092565b60008060008060808587031215613a2957600080fd5b8435613a34816133a2565b9350602085013592506040850135915060608501356001600160401b03811115613a5d57600080fd5b61374787828801613458565b600080600060608486031215613a7e57600080fd5b833592506020840135613a90816133a2565b929592945050506040919091013590565b60008060408385031215613ab457600080fd5b8235613abf816133a2565b91506020830135801515811461384757600080fd5b60008060408385031215613ae757600080fd5b8235613af2816133a2565b915060208301356001600160401b03811115613b0d57600080fd5b61106785828601613648565b60008060408385031215613b2c57600080fd5b8235613b37816133a2565b91506020830135613847816133a2565b600080600080600060a08688031215613b5f57600080fd5b8535613b6a816133a2565b94506020860135613b7a816133a2565b9350604086013592506060860135915060808601356001600160401b03811115613ba357600080fd5b61381588828901613458565b600080600060608486031215613bc457600080fd5b8335613bcf816133a2565b95602085013595506040909401359392505050565b6020808252600d908201526c27a7262cafa7a822a920aa27a960991b604082015260600190565b6020808252600c908201526b27a7262cafa1a922a0aa27a960a11b604082015260600190565b6020808252600a908201526927a7262cafa0a226a4a760b11b604082015260600190565b6020808252600990820152682727aa2fa0a226a4a760b91b604082015260600190565b600181811c90821680613c8c57607f821691505b60208210811415610f0c57634e487b7160e01b600052602260045260246000fd5b634e487b7160e01b600052601160045260246000fd5b60008219821115613cd657613cd6613cad565b500190565b6001600160a01b03848116825283166020820152606060408201819052600090613d0790830184613550565b95945050505050565b60008351613d22818460208801613524565b60609390931b6bffffffffffffffffffffffff19169190920190815260140192915050565b60008251613d59818460208701613524565b9190910192915050565b6000816000190483118215151615613d7d57613d7d613cad565b500290565b600082613d9f57634e487b7160e01b600052601260045260246000fd5b500490565b634e487b7160e01b600052603260045260246000fd5b6000600019821415613dce57613dce613cad565b5060010190565b60208082526029908201527f455243313135353a2063616c6c6572206973206e6f74206f776e6572206e6f7260408201526808185c1c1c9bdd995960ba1b606082015260800190565b600060208284031215613e3057600080fd5b8151610f05816133a2565b600081613e4a57613e4a613cad565b506000190190565b60208082526028908201527f455243313135353a2069647320616e6420616d6f756e7473206c656e677468206040820152670dad2e6dac2e8c6d60c31b606082015260800190565b604081526000613ead6040830185613950565b8281036020840152613d078185613950565b60208082526025908201527f455243313135353a207472616e7366657220746f20746865207a65726f206164604082015264647265737360d81b606082015260800190565b6020808252602a908201527f455243313135353a20696e73756666696369656e742062616c616e636520666f60408201526939103a3930b739b332b960b11b606082015260800190565b7f416363657373436f6e74726f6c3a206163636f756e7420000000000000000000815260008351613f86816017850160208801613524565b7001034b99036b4b9b9b4b733903937b6329607d1b6017918401918201528351613fb7816028840160208801613524565b01602801949350505050565b60208082526023908201527f455243313135353a206275726e2066726f6d20746865207a65726f206164647260408201526265737360e81b606082015260800190565b60208082526024908201527f455243313135353a206275726e20616d6f756e7420657863656564732062616c604082015263616e636560e01b606082015260800190565b60008282101561405c5761405c613cad565b500390565b634e487b7160e01b600052603160045260246000fd5b6001600160a01b0386811682528516602082015260a0604082018190526000906140a390830186613950565b82810360608401526140b58186613950565b90508281036080840152610d538185613550565b6000602082840312156140db57600080fd5b8151610f05816133e3565b600060033d1115611ebf5760046000803e5060005160e01c90565b600060443d101561410f5790565b6040516003193d81016004833e81513d6001600160401b03816024840111818411171561413e57505050505090565b82850191508151818111156141565750505050505090565b843d87010160208285010111156141705750505050505090565b61417f6020828601018761342c565b509095945050505050565b60208082526028908201527f455243313135353a204552433131353552656365697665722072656a656374656040820152676420746f6b656e7360c01b606082015260800190565b6001600160a01b03868116825285166020820152604081018490526060810183905260a06080820181905260009061420c90830184613550565b97965050505050505056fe4d6574615472616e73616374696f6e286e6f6e63652c66726f6d2c7369676e617475726529828634d95e775031b9ff576b159a8509d3053581a8c9c4d7d86899e0afcd882f97667070c54ef182b0f5858b034beac1b6f3089aa2d3188bb1e8929f4fa9b92965d7a28e3265b37a6474929f336521b332c1681b933f6cb9f3376673440d862a9f2df0fed2c77648de5860a4cc508cd0818c85b8b8a1ab4ceeef8d981c8956a6a2646970667358221220472a7d0b52ae8a00d96051068c961553859800dba6327ca38213f4435deb4f8a64736f6c634300080c0033454950373132446f6d61696e28737472696e67206e616d652c737472696e672076657273696f6e2c6164647265737320766572696679696e67436f6e74726163742c627974657333322073616c742965d7a28e3265b37a6474929f336521b332c1681b933f6cb9f3376673440d862a9f2df0fed2c77648de5860a4cc508cd0818c85b8b8a1ab4ceeef8d981c8956a6",
  "linkReferences": {},
  "deployedLinkReferences": {}
}