{
  "_format": "hh-sol-artifact-1",
  "contractName": "RockNFTCollectionHolderCrossChain",
  "sourceName": "contracts/goods/RockNFTCollectionHolderCrossChain.sol",
  "abi": [
    {
      "anonymous": false,
      "inputs": [
        {
          "indexed": false,
          "internalType": "uint256",
          "name": "_metaverseId",
          "type": "uint256"
        },
        {
          "indexed": false,
          "internalType": "uint256",
          "name": "_zoneType",
          "type": "uint256"
        },
        {
          "indexed": false,
          "internalType": "uint256",
          "name": "_zoneIndex",
          "type": "uint256"
        },
        {
          "indexed": false,
          "internalType": "uint256",
          "name": "_rockIndexFrom",
          "type": "uint256"
        },
        {
          "indexed": false,
          "internalType": "uint256",
          "name": "_rockIndexTo",
          "type": "uint256"
        },
        {
          "indexed": false,
          "internalType": "address",
          "name": "_coreTeam",
          "type": "address"
        },
        {
          "indexed": false,
          "internalType": "address",
          "name": "_collAddr",
          "type": "address"
        },
        {
          "indexed": false,
          "internalType": "uint256",
          "name": "_price",
          "type": "uint256"
        }
      ],
      "name": "AddZone",
      "type": "event"
    },
    {
      "anonymous": false,
      "inputs": [
        {
          "indexed": true,
          "internalType": "address",
          "name": "account",
          "type": "address"
        },
        {
          "indexed": true,
          "internalType": "address",
          "name": "operator",
          "type": "address"
        },
        {
          "indexed": false,
          "internalType": "bool",
          "name": "approved",
          "type": "bool"
        }
      ],
      "name": "ApprovalForAll",
      "type": "event"
    },
    {
      "anonymous": false,
      "inputs": [
        {
          "indexed": false,
          "internalType": "uint256",
          "name": "_metaverseId",
          "type": "uint256"
        },
        {
          "indexed": false,
          "internalType": "address",
          "name": "_add",
          "type": "address"
        }
      ],
      "name": "EChangeMetaverseOwner",
      "type": "event"
    },
    {
      "anonymous": false,
      "inputs": [
        {
          "indexed": false,
          "internalType": "uint256",
          "name": "_metaverseId",
          "type": "uint256"
        },
        {
          "indexed": false,
          "internalType": "uint256",
          "name": "_zoneIndex",
          "type": "uint256"
        },
        {
          "indexed": false,
          "internalType": "uint256",
          "name": "_price",
          "type": "uint256"
        }
      ],
      "name": "EChangeZonePrice",
      "type": "event"
    },
    {
      "anonymous": false,
      "inputs": [
        {
          "indexed": false,
          "internalType": "uint256",
          "name": "_metaverseId",
          "type": "uint256"
        }
      ],
      "name": "InitMetaverse",
      "type": "event"
    },
    {
      "anonymous": false,
      "inputs": [
        {
          "indexed": false,
          "internalType": "uint8",
          "name": "version",
          "type": "uint8"
        }
      ],
      "name": "Initialized",
      "type": "event"
    },
    {
      "anonymous": false,
      "inputs": [
        {
          "indexed": false,
          "internalType": "address",
          "name": "_to",
          "type": "address"
        },
        {
          "indexed": false,
          "internalType": "uint256",
          "name": "_id",
          "type": "uint256"
        },
        {
          "indexed": false,
          "internalType": "uint256",
          "name": "_quantity",
          "type": "uint256"
        }
      ],
      "name": "MintEvent",
      "type": "event"
    },
    {
      "anonymous": false,
      "inputs": [
        {
          "indexed": false,
          "internalType": "address",
          "name": "account",
          "type": "address"
        }
      ],
      "name": "Paused",
      "type": "event"
    },
    {
      "anonymous": false,
      "inputs": [
        {
          "indexed": true,
          "internalType": "bytes32",
          "name": "role",
          "type": "bytes32"
        },
        {
          "indexed": true,
          "internalType": "bytes32",
          "name": "previousAdminRole",
          "type": "bytes32"
        },
        {
          "indexed": true,
          "internalType": "bytes32",
          "name": "newAdminRole",
          "type": "bytes32"
        }
      ],
      "name": "RoleAdminChanged",
      "type": "event"
    },
    {
      "anonymous": false,
      "inputs": [
        {
          "indexed": true,
          "internalType": "bytes32",
          "name": "role",
          "type": "bytes32"
        },
        {
          "indexed": true,
          "internalType": "address",
          "name": "account",
          "type": "address"
        },
        {
          "indexed": true,
          "internalType": "address",
          "name": "sender",
          "type": "address"
        }
      ],
      "name": "RoleGranted",
      "type": "event"
    },
    {
      "anonymous": false,
      "inputs": [
        {
          "indexed": true,
          "internalType": "bytes32",
          "name": "role",
          "type": "bytes32"
        },
        {
          "indexed": true,
          "internalType": "address",
          "name": "account",
          "type": "address"
        },
        {
          "indexed": true,
          "internalType": "address",
          "name": "sender",
          "type": "address"
        }
      ],
      "name": "RoleRevoked",
      "type": "event"
    },
    {
      "anonymous": false,
      "inputs": [
        {
          "indexed": true,
          "internalType": "address",
          "name": "operator",
          "type": "address"
        },
        {
          "indexed": true,
          "internalType": "address",
          "name": "from",
          "type": "address"
        },
        {
          "indexed": true,
          "internalType": "address",
          "name": "to",
          "type": "address"
        },
        {
          "indexed": false,
          "internalType": "uint256[]",
          "name": "ids",
          "type": "uint256[]"
        },
        {
          "indexed": false,
          "internalType": "uint256[]",
          "name": "values",
          "type": "uint256[]"
        }
      ],
      "name": "TransferBatch",
      "type": "event"
    },
    {
      "anonymous": false,
      "inputs": [
        {
          "indexed": true,
          "internalType": "address",
          "name": "operator",
          "type": "address"
        },
        {
          "indexed": true,
          "internalType": "address",
          "name": "from",
          "type": "address"
        },
        {
          "indexed": true,
          "internalType": "address",
          "name": "to",
          "type": "address"
        },
        {
          "indexed": false,
          "internalType": "uint256",
          "name": "id",
          "type": "uint256"
        },
        {
          "indexed": false,
          "internalType": "uint256",
          "name": "value",
          "type": "uint256"
        }
      ],
      "name": "TransferSingle",
      "type": "event"
    },
    {
      "anonymous": false,
      "inputs": [
        {
          "indexed": false,
          "internalType": "string",
          "name": "value",
          "type": "string"
        },
        {
          "indexed": true,
          "internalType": "uint256",
          "name": "id",
          "type": "uint256"
        }
      ],
      "name": "URI",
      "type": "event"
    },
    {
      "anonymous": false,
      "inputs": [
        {
          "indexed": false,
          "internalType": "address",
          "name": "account",
          "type": "address"
        }
      ],
      "name": "Unpaused",
      "type": "event"
    },
    {
      "inputs": [],
      "name": "CREATOR_ROLE",
      "outputs": [
        {
          "internalType": "bytes32",
          "name": "",
          "type": "bytes32"
        }
      ],
      "stateMutability": "view",
      "type": "function"
    },
    {
      "inputs": [],
      "name": "DEFAULT_ADMIN_ROLE",
      "outputs": [
        {
          "internalType": "bytes32",
          "name": "",
          "type": "bytes32"
        }
      ],
      "stateMutability": "view",
      "type": "function"
    },
    {
      "inputs": [],
      "name": "MINTER_ROLE",
      "outputs": [
        {
          "internalType": "bytes32",
          "name": "",
          "type": "bytes32"
        }
      ],
      "stateMutability": "view",
      "type": "function"
    },
    {
      "inputs": [],
      "name": "OPERATOR_ROLE",
      "outputs": [
        {
          "internalType": "bytes32",
          "name": "",
          "type": "bytes32"
        }
      ],
      "stateMutability": "view",
      "type": "function"
    },
    {
      "inputs": [],
      "name": "PAUSER_ROLE",
      "outputs": [
        {
          "internalType": "bytes32",
          "name": "",
          "type": "bytes32"
        }
      ],
      "stateMutability": "view",
      "type": "function"
    },
    {
      "inputs": [
        {
          "internalType": "uint256",
          "name": "_metaverseId",
          "type": "uint256"
        },
        {
          "components": [
            {
              "internalType": "uint256",
              "name": "zoneIndex",
              "type": "uint256"
            },
            {
              "internalType": "uint256",
              "name": "price",
              "type": "uint256"
            },
            {
              "internalType": "address",
              "name": "coreTeamAddr",
              "type": "address"
            },
            {
              "internalType": "uint256",
              "name": "chainId",
              "type": "uint256"
            },
            {
              "internalType": "address",
              "name": "collAddr",
              "type": "address"
            },
            {
              "internalType": "uint256",
              "name": "typeZone",
              "type": "uint256"
            },
            {
              "internalType": "uint256",
              "name": "rockIndexFrom",
              "type": "uint256"
            },
            {
              "internalType": "uint256",
              "name": "rockIndexTo",
              "type": "uint256"
            }
          ],
          "internalType": "struct SharedStructsCrossChain.zone",
          "name": "_zone",
          "type": "tuple"
        }
      ],
      "name": "addZone",
      "outputs": [],
      "stateMutability": "payable",
      "type": "function"
    },
    {
      "inputs": [],
      "name": "admin",
      "outputs": [
        {
          "internalType": "address",
          "name": "",
          "type": "address"
        }
      ],
      "stateMutability": "view",
      "type": "function"
    },
    {
      "inputs": [
        {
          "internalType": "address",
          "name": "account",
          "type": "address"
        },
        {
          "internalType": "uint256",
          "name": "id",
          "type": "uint256"
        }
      ],
      "name": "balanceOf",
      "outputs": [
        {
          "internalType": "uint256",
          "name": "",
          "type": "uint256"
        }
      ],
      "stateMutability": "view",
      "type": "function"
    },
    {
      "inputs": [
        {
          "internalType": "address[]",
          "name": "accounts",
          "type": "address[]"
        },
        {
          "internalType": "uint256[]",
          "name": "ids",
          "type": "uint256[]"
        }
      ],
      "name": "balanceOfBatch",
      "outputs": [
        {
          "internalType": "uint256[]",
          "name": "",
          "type": "uint256[]"
        }
      ],
      "stateMutability": "view",
      "type": "function"
    },
    {
      "inputs": [
        {
          "internalType": "address",
          "name": "account",
          "type": "address"
        },
        {
          "internalType": "uint256",
          "name": "id",
          "type": "uint256"
        },
        {
          "internalType": "uint256",
          "name": "value",
          "type": "uint256"
        }
      ],
      "name": "burn",
      "outputs": [],
      "stateMutability": "nonpayable",
      "type": "function"
    },
    {
      "inputs": [
        {
          "internalType": "address",
          "name": "account",
          "type": "address"
        },
        {
          "internalType": "uint256[]",
          "name": "ids",
          "type": "uint256[]"
        },
        {
          "internalType": "uint256[]",
          "name": "values",
          "type": "uint256[]"
        }
      ],
      "name": "burnBatch",
      "outputs": [],
      "stateMutability": "nonpayable",
      "type": "function"
    },
    {
      "inputs": [
        {
          "internalType": "address",
          "name": "_newAdmin",
          "type": "address"
        }
      ],
      "name": "changeAdmin",
      "outputs": [],
      "stateMutability": "nonpayable",
      "type": "function"
    },
    {
      "inputs": [
        {
          "internalType": "uint256",
          "name": "_metaverseId",
          "type": "uint256"
        },
        {
          "internalType": "address",
          "name": "_add",
          "type": "address"
        }
      ],
      "name": "changeMetaverseOwner",
      "outputs": [],
      "stateMutability": "nonpayable",
      "type": "function"
    },
    {
      "inputs": [
        {
          "internalType": "address",
          "name": "_newOperator",
          "type": "address"
        }
      ],
      "name": "changeOperator",
      "outputs": [],
      "stateMutability": "nonpayable",
      "type": "function"
    },
    {
      "inputs": [
        {
          "internalType": "address",
          "name": "_new",
          "type": "address"
        }
      ],
      "name": "changeVerifier",
      "outputs": [],
      "stateMutability": "nonpayable",
      "type": "function"
    },
    {
      "inputs": [
        {
          "internalType": "uint256",
          "name": "_metaverseId",
          "type": "uint256"
        },
        {
          "internalType": "uint256",
          "name": "_zoneIndex",
          "type": "uint256"
        },
        {
          "internalType": "uint256",
          "name": "_price",
          "type": "uint256"
        }
      ],
      "name": "changeZonePrice",
      "outputs": [],
      "stateMutability": "nonpayable",
      "type": "function"
    },
    {
      "inputs": [
        {
          "internalType": "uint256",
          "name": "",
          "type": "uint256"
        }
      ],
      "name": "creators",
      "outputs": [
        {
          "internalType": "address",
          "name": "",
          "type": "address"
        }
      ],
      "stateMutability": "view",
      "type": "function"
    },
    {
      "inputs": [
        {
          "internalType": "uint256",
          "name": "_id",
          "type": "uint256"
        }
      ],
      "name": "exists",
      "outputs": [
        {
          "internalType": "bool",
          "name": "",
          "type": "bool"
        }
      ],
      "stateMutability": "view",
      "type": "function"
    },
    {
      "inputs": [
        {
          "internalType": "uint256",
          "name": "id",
          "type": "uint256"
        }
      ],
      "name": "getCreator",
      "outputs": [
        {
          "internalType": "address",
          "name": "sender",
          "type": "address"
        }
      ],
      "stateMutability": "view",
      "type": "function"
    },
    {
      "inputs": [
        {
          "internalType": "bytes32",
          "name": "role",
          "type": "bytes32"
        }
      ],
      "name": "getRoleAdmin",
      "outputs": [
        {
          "internalType": "bytes32",
          "name": "",
          "type": "bytes32"
        }
      ],
      "stateMutability": "view",
      "type": "function"
    },
    {
      "inputs": [
        {
          "internalType": "bytes32",
          "name": "role",
          "type": "bytes32"
        },
        {
          "internalType": "uint256",
          "name": "index",
          "type": "uint256"
        }
      ],
      "name": "getRoleMember",
      "outputs": [
        {
          "internalType": "address",
          "name": "",
          "type": "address"
        }
      ],
      "stateMutability": "view",
      "type": "function"
    },
    {
      "inputs": [
        {
          "internalType": "bytes32",
          "name": "role",
          "type": "bytes32"
        }
      ],
      "name": "getRoleMemberCount",
      "outputs": [
        {
          "internalType": "uint256",
          "name": "",
          "type": "uint256"
        }
      ],
      "stateMutability": "view",
      "type": "function"
    },
    {
      "inputs": [
        {
          "internalType": "bytes32",
          "name": "role",
          "type": "bytes32"
        },
        {
          "internalType": "address",
          "name": "account",
          "type": "address"
        }
      ],
      "name": "grantRole",
      "outputs": [],
      "stateMutability": "nonpayable",
      "type": "function"
    },
    {
      "inputs": [
        {
          "internalType": "bytes32",
          "name": "role",
          "type": "bytes32"
        },
        {
          "internalType": "address",
          "name": "account",
          "type": "address"
        }
      ],
      "name": "hasRole",
      "outputs": [
        {
          "internalType": "bool",
          "name": "",
          "type": "bool"
        }
      ],
      "stateMutability": "view",
      "type": "function"
    },
    {
      "inputs": [
        {
          "internalType": "uint256",
          "name": "_metaverseId",
          "type": "uint256"
        },
        {
          "components": [
            {
              "internalType": "uint256",
              "name": "zoneIndex",
              "type": "uint256"
            },
            {
              "internalType": "uint256",
              "name": "price",
              "type": "uint256"
            },
            {
              "internalType": "address",
              "name": "coreTeamAddr",
              "type": "address"
            },
            {
              "internalType": "uint256",
              "name": "chainId",
              "type": "uint256"
            },
            {
              "internalType": "address",
              "name": "collAddr",
              "type": "address"
            },
            {
              "internalType": "uint256",
              "name": "typeZone",
              "type": "uint256"
            },
            {
              "internalType": "uint256",
              "name": "rockIndexFrom",
              "type": "uint256"
            },
            {
              "internalType": "uint256",
              "name": "rockIndexTo",
              "type": "uint256"
            }
          ],
          "internalType": "struct SharedStructsCrossChain.zone",
          "name": "_zone2",
          "type": "tuple"
        },
        {
          "internalType": "bytes",
          "name": "_singedData",
          "type": "bytes"
        }
      ],
      "name": "initMetaverse",
      "outputs": [],
      "stateMutability": "payable",
      "type": "function"
    },
    {
      "inputs": [
        {
          "internalType": "address",
          "name": "admin",
          "type": "address"
        },
        {
          "internalType": "address",
          "name": "operator",
          "type": "address"
        },
        {
          "internalType": "address",
          "name": "_signer",
          "type": "address"
        },
        {
          "internalType": "address",
          "name": "_parameterAdd",
          "type": "address"
        },
        {
          "internalType": "string",
          "name": "name",
          "type": "string"
        },
        {
          "internalType": "string",
          "name": "symbol",
          "type": "string"
        }
      ],
      "name": "initialize",
      "outputs": [],
      "stateMutability": "nonpayable",
      "type": "function"
    },
    {
      "inputs": [
        {
          "internalType": "string",
          "name": "_name",
          "type": "string"
        },
        {
          "internalType": "string",
          "name": "_symbol",
          "type": "string"
        },
        {
          "internalType": "string",
          "name": "_uri",
          "type": "string"
        },
        {
          "internalType": "address",
          "name": "_admin",
          "type": "address"
        },
        {
          "internalType": "address",
          "name": "_operator",
          "type": "address"
        }
      ],
      "name": "initialize",
      "outputs": [],
      "stateMutability": "nonpayable",
      "type": "function"
    },
    {
      "inputs": [
        {
          "internalType": "string",
          "name": "uri",
          "type": "string"
        }
      ],
      "name": "initialize",
      "outputs": [],
      "stateMutability": "nonpayable",
      "type": "function"
    },
    {
      "inputs": [
        {
          "internalType": "address",
          "name": "_owner",
          "type": "address"
        },
        {
          "internalType": "address",
          "name": "_operator",
          "type": "address"
        }
      ],
      "name": "isApprovedForAll",
      "outputs": [
        {
          "internalType": "bool",
          "name": "isOperator",
          "type": "bool"
        }
      ],
      "stateMutability": "view",
      "type": "function"
    },
    {
      "inputs": [
        {
          "internalType": "uint256",
          "name": "",
          "type": "uint256"
        },
        {
          "internalType": "address",
          "name": "",
          "type": "address"
        }
      ],
      "name": "metaverseNftCollections",
      "outputs": [
        {
          "internalType": "bool",
          "name": "",
          "type": "bool"
        }
      ],
      "stateMutability": "view",
      "type": "function"
    },
    {
      "inputs": [
        {
          "internalType": "uint256",
          "name": "",
          "type": "uint256"
        }
      ],
      "name": "metaverseOwners",
      "outputs": [
        {
          "internalType": "address",
          "name": "",
          "type": "address"
        }
      ],
      "stateMutability": "view",
      "type": "function"
    },
    {
      "inputs": [
        {
          "internalType": "uint256",
          "name": "",
          "type": "uint256"
        },
        {
          "internalType": "uint256",
          "name": "",
          "type": "uint256"
        }
      ],
      "name": "metaverseZones",
      "outputs": [
        {
          "internalType": "uint256",
          "name": "zoneIndex",
          "type": "uint256"
        },
        {
          "internalType": "uint256",
          "name": "price",
          "type": "uint256"
        },
        {
          "internalType": "address",
          "name": "coreTeamAddr",
          "type": "address"
        },
        {
          "internalType": "uint256",
          "name": "chainId",
          "type": "uint256"
        },
        {
          "internalType": "address",
          "name": "collAddr",
          "type": "address"
        },
        {
          "internalType": "uint256",
          "name": "typeZone",
          "type": "uint256"
        },
        {
          "internalType": "uint256",
          "name": "rockIndexFrom",
          "type": "uint256"
        },
        {
          "internalType": "uint256",
          "name": "rockIndexTo",
          "type": "uint256"
        }
      ],
      "stateMutability": "view",
      "type": "function"
    },
    {
      "inputs": [
        {
          "internalType": "address",
          "name": "_to",
          "type": "address"
        },
        {
          "internalType": "uint256",
          "name": "_id",
          "type": "uint256"
        },
        {
          "internalType": "uint256",
          "name": "_quantity",
          "type": "uint256"
        },
        {
          "internalType": "bytes",
          "name": "_data",
          "type": "bytes"
        }
      ],
      "name": "mint",
      "outputs": [],
      "stateMutability": "nonpayable",
      "type": "function"
    },
    {
      "inputs": [
        {
          "internalType": "address",
          "name": "to",
          "type": "address"
        },
        {
          "internalType": "uint256[]",
          "name": "ids",
          "type": "uint256[]"
        },
        {
          "internalType": "uint256[]",
          "name": "amounts",
          "type": "uint256[]"
        },
        {
          "internalType": "bytes",
          "name": "data",
          "type": "bytes"
        }
      ],
      "name": "mintBatch",
      "outputs": [],
      "stateMutability": "nonpayable",
      "type": "function"
    },
    {
      "inputs": [
        {
          "internalType": "uint256",
          "name": "_metaverseId",
          "type": "uint256"
        },
        {
          "internalType": "address",
          "name": "_to",
          "type": "address"
        },
        {
          "internalType": "uint256",
          "name": "_zoneIndex",
          "type": "uint256"
        },
        {
          "internalType": "uint256",
          "name": "_rockIndex",
          "type": "uint256"
        },
        {
          "internalType": "string",
          "name": "_uri",
          "type": "string"
        },
        {
          "internalType": "bytes",
          "name": "_data",
          "type": "bytes"
        },
        {
          "internalType": "bytes",
          "name": "_singedData",
          "type": "bytes"
        }
      ],
      "name": "mintRock",
      "outputs": [],
      "stateMutability": "payable",
      "type": "function"
    },
    {
      "inputs": [],
      "name": "name",
      "outputs": [
        {
          "internalType": "string",
          "name": "",
          "type": "string"
        }
      ],
      "stateMutability": "view",
      "type": "function"
    },
    {
      "inputs": [],
      "name": "operator",
      "outputs": [
        {
          "internalType": "address",
          "name": "",
          "type": "address"
        }
      ],
      "stateMutability": "view",
      "type": "function"
    },
    {
      "inputs": [],
      "name": "parameterControlAdd",
      "outputs": [
        {
          "internalType": "address",
          "name": "",
          "type": "address"
        }
      ],
      "stateMutability": "view",
      "type": "function"
    },
    {
      "inputs": [],
      "name": "pause",
      "outputs": [],
      "stateMutability": "nonpayable",
      "type": "function"
    },
    {
      "inputs": [],
      "name": "paused",
      "outputs": [
        {
          "internalType": "bool",
          "name": "",
          "type": "bool"
        }
      ],
      "stateMutability": "view",
      "type": "function"
    },
    {
      "inputs": [],
      "name": "proxyRegistryAddress",
      "outputs": [
        {
          "internalType": "address",
          "name": "",
          "type": "address"
        }
      ],
      "stateMutability": "view",
      "type": "function"
    },
    {
      "inputs": [
        {
          "internalType": "bytes32",
          "name": "role",
          "type": "bytes32"
        },
        {
          "internalType": "address",
          "name": "account",
          "type": "address"
        }
      ],
      "name": "renounceRole",
      "outputs": [],
      "stateMutability": "nonpayable",
      "type": "function"
    },
    {
      "inputs": [
        {
          "internalType": "bytes32",
          "name": "role",
          "type": "bytes32"
        },
        {
          "internalType": "address",
          "name": "account",
          "type": "address"
        }
      ],
      "name": "revokeRole",
      "outputs": [],
      "stateMutability": "nonpayable",
      "type": "function"
    },
    {
      "inputs": [
        {
          "internalType": "uint256",
          "name": "_tokenId",
          "type": "uint256"
        },
        {
          "internalType": "uint256",
          "name": "_salePrice",
          "type": "uint256"
        }
      ],
      "name": "royaltyInfo",
      "outputs": [
        {
          "internalType": "address",
          "name": "receiver",
          "type": "address"
        },
        {
          "internalType": "uint256",
          "name": "royaltyAmount",
          "type": "uint256"
        }
      ],
      "stateMutability": "view",
      "type": "function"
    },
    {
      "inputs": [
        {
          "internalType": "address",
          "name": "from",
          "type": "address"
        },
        {
          "internalType": "address",
          "name": "to",
          "type": "address"
        },
        {
          "internalType": "uint256[]",
          "name": "ids",
          "type": "uint256[]"
        },
        {
          "internalType": "uint256[]",
          "name": "amounts",
          "type": "uint256[]"
        },
        {
          "internalType": "bytes",
          "name": "data",
          "type": "bytes"
        }
      ],
      "name": "safeBatchTransferFrom",
      "outputs": [],
      "stateMutability": "nonpayable",
      "type": "function"
    },
    {
      "inputs": [
        {
          "internalType": "address",
          "name": "from",
          "type": "address"
        },
        {
          "internalType": "address",
          "name": "to",
          "type": "address"
        },
        {
          "internalType": "uint256",
          "name": "id",
          "type": "uint256"
        },
        {
          "internalType": "uint256",
          "name": "amount",
          "type": "uint256"
        },
        {
          "internalType": "bytes",
          "name": "data",
          "type": "bytes"
        }
      ],
      "name": "safeTransferFrom",
      "outputs": [],
      "stateMutability": "nonpayable",
      "type": "function"
    },
    {
      "inputs": [
        {
          "internalType": "address",
          "name": "operator",
          "type": "address"
        },
        {
          "internalType": "bool",
          "name": "approved",
          "type": "bool"
        }
      ],
      "name": "setApprovalForAll",
      "outputs": [],
      "stateMutability": "nonpayable",
      "type": "function"
    },
    {
      "inputs": [
        {
          "internalType": "uint256",
          "name": "_tokenId",
          "type": "uint256"
        },
        {
          "internalType": "string",
          "name": "_newURI",
          "type": "string"
        }
      ],
      "name": "setCustomURI",
      "outputs": [],
      "stateMutability": "nonpayable",
      "type": "function"
    },
    {
      "inputs": [
        {
          "internalType": "address",
          "name": "_proxyRegistryAddress",
          "type": "address"
        }
      ],
      "name": "setProxyRegistryAddress",
      "outputs": [],
      "stateMutability": "nonpayable",
      "type": "function"
    },
    {
      "inputs": [
        {
          "internalType": "bytes4",
          "name": "interfaceId",
          "type": "bytes4"
        }
      ],
      "name": "supportsInterface",
      "outputs": [
        {
          "internalType": "bool",
          "name": "",
          "type": "bool"
        }
      ],
      "stateMutability": "view",
      "type": "function"
    },
    {
      "inputs": [],
      "name": "symbol",
      "outputs": [
        {
          "internalType": "string",
          "name": "",
          "type": "string"
        }
      ],
      "stateMutability": "view",
      "type": "function"
    },
    {
      "inputs": [],
      "name": "unpause",
      "outputs": [],
      "stateMutability": "nonpayable",
      "type": "function"
    },
    {
      "inputs": [
        {
          "internalType": "uint256",
          "name": "_id",
          "type": "uint256"
        }
      ],
      "name": "uri",
      "outputs": [
        {
          "internalType": "string",
          "name": "",
          "type": "string"
        }
      ],
      "stateMutability": "view",
      "type": "function"
    },
    {
      "inputs": [],
      "name": "verifier",
      "outputs": [
        {
          "internalType": "address",
          "name": "",
          "type": "address"
        }
      ],
      "stateMutability": "view",
      "type": "function"
    },
    {
      "inputs": [
        {
          "internalType": "bytes32",
          "name": "hash",
          "type": "bytes32"
        },
        {
          "internalType": "bytes",
          "name": "signData",
          "type": "bytes"
        }
      ],
      "name": "verifySignData",
      "outputs": [
        {
          "internalType": "address",
          "name": "",
          "type": "address"
        }
      ],
      "stateMutability": "nonpayable",
      "type": "function"
    },
    {
      "inputs": [
        {
          "internalType": "address",
          "name": "_to",
          "type": "address"
        }
      ],
      "name": "withdraw",
      "outputs": [],
      "stateMutability": "nonpayable",
      "type": "function"
    }
  ],
  "bytecode": "0x608060405234801561001057600080fd5b50615ff180620000216000396000f3fe60806040526004361061036a5760003560e01c80639010d07c116101c6578063d26ea6c0116100f7578063e985e9c511610095578063f5298aca1161006f578063f5298aca14610b1c578063f5b541a614610b3c578063f62d188814610b5e578063f851a44014610b7e57600080fd5b8063e985e9c514610abc578063eaaef2c314610adc578063f242432a14610afc57600080fd5b8063d547741f116100d1578063d547741f14610a47578063d6d0faee14610a67578063d82c7c0414610a87578063e63ab1e914610a9a57600080fd5b8063d26ea6c0146109ce578063d48e638a146109ee578063d539139314610a2557600080fd5b8063a89391a511610164578063ca15c8731161013e578063ca15c87314610936578063cd53d08e14610956578063cd7c03261461098d578063cf04fb94146109ae57600080fd5b8063a89391a5146108a3578063afc41841146108df578063c91f88cc146108ff57600080fd5b806395d89b41116101a057806395d89b411461083957806396353c6f1461084e578063a217fddf1461086e578063a22cb4651461088357600080fd5b80639010d07c146107d957806391d14854146107f95780639317c2001461081957600080fd5b80633f4ba83a116102a0578063582543391161023e578063731133e911610218578063731133e9146107625780638456cb59146107825780638aeda25a146107975780638f283970146107b957600080fd5b806358254339146106685780635c975abb146107295780636b20c4541461074257600080fd5b80634f558e791161027a5780634f558e79146105f457806351cff8d91461061457806352409f3d14610634578063570ca7351461064757600080fd5b80633f4ba83a146105915780634e1273f4146105a65780634e193389146105d357600080fd5b80632a55205a1161030d5780632f2ff15d116102e75780632f2ff15d1461051e5780632f6bbb0a1461053e57806336568abe146105515780633adf80b41461057157600080fd5b80632a55205a146104865780632b7ac3f3146104c55780632eb2c2d6146104fe57600080fd5b806306fdde031161034957806306fdde03146103f45780630e89341c146104165780631f7fdffa14610436578063248a9ca31461045657600080fd5b8062fdd58e1461036f57806301ffc9a7146103a257806306394c9b146103d2575b600080fd5b34801561037b57600080fd5b5061038f61038a366004614d52565b610b9f565b6040519081526020015b60405180910390f35b3480156103ae57600080fd5b506103c26103bd366004614d94565b610c3b565b6040519015158152602001610399565b3480156103de57600080fd5b506103f26103ed366004614db1565b610c60565b005b34801561040057600080fd5b50610409610e39565b6040516103999190614e26565b34801561042257600080fd5b50610409610431366004614e39565b610ec8565b34801561044257600080fd5b506103f2610451366004614f9b565b61107e565b34801561046257600080fd5b5061038f610471366004614e39565b60009081526065602052604090206001015490565b34801561049257600080fd5b506104a66104a1366004615035565b61111c565b604080516001600160a01b039093168352602083019190915201610399565b3480156104d157600080fd5b506101fc546104e6906001600160a01b031681565b6040516001600160a01b039091168152602001610399565b34801561050a57600080fd5b506103f2610519366004615057565b611158565b34801561052a57600080fd5b506103f2610539366004615104565b611201565b6103f261054c3660046151d1565b61122b565b34801561055d57600080fd5b506103f261056c366004615104565b6119ad565b34801561057d57600080fd5b506103f261058c36600461522a565b611a37565b34801561059d57600080fd5b506103f2611b0e565b3480156105b257600080fd5b506105c66105c1366004615270565b611ba4565b604051610399919061536d565b3480156105df57600080fd5b506101fd546104e6906001600160a01b031681565b34801561060057600080fd5b506103c261060f366004614e39565b611ccd565b34801561062057600080fd5b506103f261062f366004614db1565b611ced565b6103f2610642366004615380565b611e7e565b34801561065357600080fd5b506101f6546104e6906001600160a01b031681565b34801561067457600080fd5b506106de610683366004615035565b61020060209081526000928352604080842090915290825290208054600182015460028301546003840154600485015460058601546006870154600790970154959694956001600160a01b0394851695939490921692909188565b6040805198895260208901979097526001600160a01b039586169688019690965260608701939093529216608085015260a084019190915260c083015260e082015261010001610399565b34801561073557600080fd5b5061012d5460ff166103c2565b34801561074e57600080fd5b506103f261075d3660046153a5565b61219b565b34801561076e57600080fd5b506103f261077d366004615410565b6121f0565b34801561078e57600080fd5b506103f2612233565b3480156107a357600080fd5b5061038f600080516020615f3c83398151915281565b3480156107c557600080fd5b506103f26107d4366004614db1565b6122c7565b3480156107e557600080fd5b506104e66107f4366004615035565b6123c8565b34801561080557600080fd5b506103c2610814366004615104565b6123e0565b34801561082557600080fd5b506103f2610834366004615466565b61240b565b34801561084557600080fd5b506104096124f2565b34801561085a57600080fd5b506104e661086936600461522a565b612500565b34801561087a57600080fd5b5061038f600081565b34801561088f57600080fd5b506103f261089e366004615512565b6125ed565b3480156108af57600080fd5b506103c26108be366004615104565b6101ff60209081526000928352604080842090915290825290205460ff1681565b3480156108eb57600080fd5b506103f26108fa366004615545565b6125ff565b34801561090b57600080fd5b506104e661091a366004614e39565b6101fe602052600090815260409020546001600160a01b031681565b34801561094257600080fd5b5061038f610951366004614e39565b612770565b34801561096257600080fd5b506104e6610971366004614e39565b6101f8602052600090815260409020546001600160a01b031681565b34801561099957600080fd5b506101f7546104e6906001600160a01b031681565b3480156109ba57600080fd5b506103f26109c9366004614db1565b612787565b3480156109da57600080fd5b506103f26109e9366004614db1565b61280e565b3480156109fa57600080fd5b506104e6610a09366004614e39565b60009081526101f860205260409020546001600160a01b031690565b348015610a3157600080fd5b5061038f600080516020615f9c83398151915281565b348015610a5357600080fd5b506103f2610a62366004615104565b612931565b348015610a7357600080fd5b506103f2610a82366004615571565b612956565b6103f2610a95366004615620565b612b39565b348015610aa657600080fd5b5061038f600080516020615f7c83398151915281565b348015610ac857600080fd5b506103c2610ad73660046156d7565b612feb565b348015610ae857600080fd5b506103f2610af7366004615104565b6130bd565b348015610b0857600080fd5b506103f2610b17366004615705565b613185565b348015610b2857600080fd5b506103f2610b3736600461576d565b6131dc565b348015610b4857600080fd5b5061038f600080516020615f5c83398151915281565b348015610b6a57600080fd5b506103f2610b793660046157a2565b613231565b348015610b8a57600080fd5b506101f5546104e6906001600160a01b031681565b60006001600160a01b038316610c105760405162461bcd60e51b815260206004820152602b60248201527f455243313135353a2062616c616e636520717565727920666f7220746865207a60448201526a65726f206164647265737360a81b60648201526084015b60405180910390fd5b50600081815260c9602090815260408083206001600160a01b03861684529091529020545b92915050565b60006001600160e01b03198216636a4731c560e11b1480610c355750610c35826132a0565b6101f5546001600160a01b0316610c756132ab565b6001600160a01b031614610c9b5760405162461bcd60e51b8152600401610c07906157de565b610ca860006108146132ab565b610cc45760405162461bcd60e51b8152600401610c07906157de565b6101f5546001600160a01b0316610cd96132ab565b6001600160a01b031614610cff5760405162461bcd60e51b8152600401610c0790615802565b610d0c60006108146132ab565b610d285760405162461bcd60e51b8152600401610c0790615802565b6101f680546001600160a01b038381166001600160a01b0319831681179093551690610d6390600080516020615f5c83398151915290611201565b6101f654610d8990600080516020615f3c833981519152906001600160a01b0316611201565b6101f654610daf90600080516020615f9c833981519152906001600160a01b0316611201565b6101f654610dd590600080516020615f7c833981519152906001600160a01b0316611201565b610ded600080516020615f5c83398151915282612931565b610e05600080516020615f3c83398151915282612931565b610e1d600080516020615f9c83398151915282612931565b610e35600080516020615f7c83398151915282612931565b5050565b6101fa8054610e4790615825565b80601f0160208091040260200160405190810160405280929190818152602001828054610e7390615825565b8015610ec05780601f10610e9557610100808354040283529160200191610ec0565b820191906000526020600020905b815481529060010190602001808311610ea357829003601f168201915b505050505081565b60008181526101f860205260409020546060906001600160a01b0316610f245760405162461bcd60e51b81526020600482015260116024820152702727a722ac24a9aa22a72a2faa27a5a2a760791b6044820152606401610c07565b60008281526101f9602052604081208054610f3e90615825565b80601f0160208091040260200160405190810160405280929190818152602001828054610f6a90615825565b8015610fb75780601f10610f8c57610100808354040283529160200191610fb7565b820191906000526020600020905b815481529060010190602001808311610f9a57829003601f168201915b505050505090506000815111156110685760008381526101f9602052604090208054610fe290615825565b80601f016020809104026020016040519081016040528092919081815260200182805461100e90615825565b801561105b5780601f106110305761010080835404028352916020019161105b565b820191906000526020600020905b81548152906001019060200180831161103e57829003601f168201915b5050505050915050919050565b611071836132ba565b9392505050565b50919050565b611098600080516020615f9c8339815191526108146132ab565b61110a5760405162461bcd60e51b815260206004820152603860248201527f455243313135355072657365744d696e7465725061757365723a206d7573742060448201527f68617665206d696e74657220726f6c6520746f206d696e7400000000000000006064820152608401610c07565b6111168484848461334e565b50505050565b60008281526101f860205260408120546001600160a01b031690612710611145846101f4615870565b61114f919061588f565b90509250929050565b6111606132ab565b6001600160a01b0316856001600160a01b03161480611186575061118685610ad76132ab565b6111ed5760405162461bcd60e51b815260206004820152603260248201527f455243313135353a207472616e736665722063616c6c6572206973206e6f74206044820152711bdddb995c881b9bdc88185c1c1c9bdd995960721b6064820152608401610c07565b6111fa85858585856134b4565b5050505050565b60008281526065602052604090206001015461121c81613664565b6112268383613678565b505050565b600083836060015184600001518560200151866040015187608001518860a001518960c001518a60e001516040516020016112be999897969594939291909889526020890197909752604088019590955260608088019490945291831b6bffffffffffffffffffffffff199081166080880152921b909116609485015260a884015260c883015260e88201526101080190565b60408051601f1981840301815291905280516020909101206101fc549091506001600160a01b03166112f08284612500565b6001600160a01b0316146113165760405162461bcd60e51b8152600401610c07906158b1565b60008481526101fe60205260409020546001600160a01b0316156113625760405162461bcd60e51b8152602060048201526003602482015262455f4d60e81b6044820152606401610c07565b606083015160009081526101ff6020908152604080832060808701516001600160a01b0316845290915290205460ff16156113c55760405162461bcd60e51b8152602060048201526003602482015262455f4d60e81b6044820152606401610c07565b82516002146113e65760405162461bcd60e51b8152600401610c07906158ce565b8260a0015160021461140a5760405162461bcd60e51b8152600401610c07906158ce565b60208301511561142c5760405162461bcd60e51b8152600401610c07906158ce565b8260c001516002146114505760405162461bcd60e51b8152600401610c07906158ce565b6114598361369a565b6114755760405162461bcd60e51b8152600401610c07906158ce565b6101fd54604051636d12dce160e01b815260206004820152601860248201527f494e49545f494d4f5f4e46545f484f4c4445525f53495a45000000000000000060448201526001600160a01b03909116906000908290636d12dce190606401602060405180830381865afa1580156114f1573d6000803e3d6000fd5b505050506040513d601f19601f8201168201806040525081019061151591906158ec565b9050801561153257611528816001615905565b60e086015261153b565b6101f560e08601525b60008560c001518660e00151611551919061591d565b61155c906001615905565b90506000811161157e5760405162461bcd60e51b8152600401610c07906158ce565b6101f660009054906101000a90046001600160a01b03166101fe600089815260200190815260200160002060006101000a8154816001600160a01b0302191690836001600160a01b03160217905550856102006000898152602001908152602001600020600088600001518152602001908152602001600020600082015181600001556020820151816001015560408201518160020160006101000a8154816001600160a01b0302191690836001600160a01b031602179055506060820151816003015560808201518160040160006101000a8154816001600160a01b0302191690836001600160a01b0316021790555060a0820151816005015560c0820151816006015560e0820151816007015590505060016101ff600088606001518152602001908152602001600020600088608001516001600160a01b03166001600160a01b0316815260200190815260200160002060006101000a81548160ff021916908315150217905550611742604051806101000160405280600081526020016000815260200160006001600160a01b031681526020016000815260200160006001600160a01b031681526020016000815260200160008152602001600081525090565b6101f660009054906101000a90046001600160a01b031681604001906001600160a01b031690816001600160a01b03168152505060018160a001818152505060018160c001818152505060018160e00181815250506000816020018181525050600081608001906001600160a01b031690816001600160a01b03168152505060018160000181815250508061020060008a8152602001908152602001600020600083600001518152602001908152602001600020600082015181600001556020820151816001015560408201518160020160006101000a8154816001600160a01b0302191690836001600160a01b031602179055506060820151816003015560808201518160040160006101000a8154816001600160a01b0302191690836001600160a01b0316021790555060a0820151816005015560c0820151816006015560e0820151816007015590505060008160c0015182600001518a633b9aca006118ab9190615870565b6118b59190615905565b6118c390633b9aca00615870565b6118cd9190615905565b6101f65460008281526101f86020908152604080832080546001600160a01b0319166001600160a01b039095169490941790935585830151835191820190935290815291925061192191839060019061378d565b60408281015181516001600160a01b0390911681526020810183905260018183015290517f8069ef4945469d029cc32e222031bccdc99b2eaaf4ee374cd268012f7ddee9079181900360600190a16040518981527f49669a69295acda27baba0ea29247e02f517f3450c77bd52c362870cfb7ceac49060200160405180910390a1505050505050505050565b6119b56132ab565b6001600160a01b0316816001600160a01b031614611a2d5760405162461bcd60e51b815260206004820152602f60248201527f416363657373436f6e74726f6c3a2063616e206f6e6c792072656e6f756e636560448201526e103937b632b9903337b91039b2b63360891b6064820152608401610c07565b610e35828261387a565b81611a406132ab565b60008281526101f860205260409020546001600160a01b03908116911614611a7a5760405162461bcd60e51b8152600401610c0790615934565b611a94600080516020615f3c8339815191526108146132ab565b611ab05760405162461bcd60e51b8152600401610c0790615934565b60008381526101f9602090815260409091208351611ad092850190614c99565b50827f6bb7ff708619ba0610cba295a58592e0451dee2622938c8755667688daf3529b83604051611b019190614e26565b60405180910390a2505050565b611b28600080516020615f7c8339815191526108146132ab565b611b9a5760405162461bcd60e51b815260206004820152603b60248201527f455243313135355072657365744d696e7465725061757365723a206d7573742060448201527f686176652070617573657220726f6c6520746f20756e706175736500000000006064820152608401610c07565b611ba261389c565b565b60608151835114611c095760405162461bcd60e51b815260206004820152602960248201527f455243313135353a206163636f756e747320616e6420696473206c656e677468604482015268040dad2e6dac2e8c6d60bb1b6064820152608401610c07565b600083516001600160401b03811115611c2457611c24614e52565b604051908082528060200260200182016040528015611c4d578160200160208202803683370190505b50905060005b8451811015611cc557611c98858281518110611c7157611c7161595a565b6020026020010151858381518110611c8b57611c8b61595a565b6020026020010151610b9f565b828281518110611caa57611caa61595a565b6020908102919091010152611cbe81615970565b9050611c53565b509392505050565b60008181526101f860205260408120546001600160a01b03161515610c35565b60026101c3541415611d415760405162461bcd60e51b815260206004820152601f60248201527f5265656e7472616e637947756172643a207265656e7472616e742063616c6c006044820152606401610c07565b60026101c3556101f5546001600160a01b0316611d5c6132ab565b6001600160a01b031614611d825760405162461bcd60e51b8152600401610c07906157de565b611d8f60006108146132ab565b611dab5760405162461bcd60e51b8152600401610c07906157de565b60004711611de85760405162461bcd60e51b815260206004820152600a60248201526909c9ea8be8a9c9eaa8e960b31b6044820152606401610c07565b6000816001600160a01b03164760405160006040518083038185875af1925050503d8060008114611e35576040519150601f19603f3d011682016040523d82523d6000602084013e611e3a565b606091505b5050905080611e745760405162461bcd60e51b8152600401610c07906020808252600490820152631190525360e21b604082015260600190565b505060016101c355565b60008281526101fe60205260409020546001600160a01b0316611ecb5760405162461bcd60e51b81526020600482015260056024820152644e5f455f4d60d81b6044820152606401610c07565b6000828152610200602090815260408083208451845290915290206007015415611f1d5760405162461bcd60e51b815260206004820152600360248201526222afad60e91b6044820152606401610c07565b611f25613937565b60008381526101fe60205260409020546001600160a01b03908116911614611f5f5760405162461bcd60e51b8152600401610c079061598b565b611f688161369a565b611f9d5760405162461bcd60e51b8152602060048201526006602482015265495f5a4f4e4560d01b6044820152606401610c07565b8060a0015160021480611fb457508060a001516003145b611feb5760405162461bcd60e51b8152602060048201526008602482015267494e565f5459504560c01b6044820152606401610c07565b8060a0015160021415612083576000828152610200602090815260408083206002808552925290912060050154146120355760405162461bcd60e51b8152600401610c07906158ce565b6080810151600083815261020060209081526040808320600284529091529020600401546001600160a01b039081169116146120835760405162461bcd60e51b8152600401610c07906158ce565b6000828152610200602090815260408083208451845282529182902083518082559184015160018201819055838501516002830180546001600160a01b038084166001600160a01b0319928316179092556060880151600386015560808801516004860180549382169390921692909217905560a08701516005850181905560c08801516006860181905560e0890151600790960186905596517fb8033036b5cd4a496e1a16b0f2fd490dc18c2ce1c7c969b4c8f6f84fc3f6b9729761218f978b97939690959194919297885260208801969096526040870194909452606086019290925260808501526001600160a01b0390811660a08501521660c083015260e08201526101000190565b60405180910390a15050565b6121a36132ab565b6001600160a01b0316836001600160a01b031614806121c957506121c983610ad76132ab565b6121e55760405162461bcd60e51b8152600401610c07906159a8565b611226838383613994565b826121f96132ab565b60008281526101f860205260409020546001600160a01b039081169116146111fa5760405162461bcd60e51b8152600401610c0790615934565b61224d600080516020615f7c8339815191526108146132ab565b6122bf5760405162461bcd60e51b815260206004820152603960248201527f455243313135355072657365744d696e7465725061757365723a206d7573742060448201527f686176652070617573657220726f6c6520746f207061757365000000000000006064820152608401610c07565b611ba2613b3a565b6101f5546001600160a01b03166122dc6132ab565b6001600160a01b0316146123025760405162461bcd60e51b8152600401610c07906157de565b61230f60006108146132ab565b61232b5760405162461bcd60e51b8152600401610c07906157de565b6101f5546001600160a01b03166123406132ab565b6001600160a01b0316146123665760405162461bcd60e51b8152600401610c0790615802565b61237360006108146132ab565b61238f5760405162461bcd60e51b8152600401610c0790615802565b6101f580546001600160a01b038381166001600160a01b03198316811790935516906123bd90600090611201565b610e35600082612931565b60008281526097602052604081206110719083613bb8565b60009182526065602090815260408084206001600160a01b0393909316845291905290205460ff1690565b60006124176001613bc4565b9050801561242f576000805461ff0019166101001790555b61244b8383604051806020016040528060008152508a8a612956565b6001600160a01b0384166124715760405162461bcd60e51b8152600401610c079061598b565b6101fd80546001600160a01b038087166001600160a01b0319928316179092556101fc80549288169290911691909117905580156124e9576000805461ff0019169055604051600181527f7f26b83ff96e1f2b6a682f133852f6798a09c465da95921460cefb38474024989060200160405180910390a15b50505050505050565b6101fb8054610e4790615825565b6000828152610202602052604081205460ff16156125465760405162461bcd60e51b8152602060048201526003602482015262535f4560e81b6044820152606401610c07565b6040517f19457468657265756d205369676e6564204d6573736167653a0a3332000000006020820152603c8101849052600090605c0160408051601f198184030181529190528051602090910120905060006125a28285613c44565b90506001600160a01b0381166125ca5760405162461bcd60e51b8152600401610c07906158b1565b600085815261020260205260409020805460ff1916600117905591505092915050565b610e356125f86132ab565b8383613c60565b612607613937565b60008481526101fe60205260409020546001600160a01b039081169116146126415760405162461bcd60e51b8152600401610c079061598b565b6000838152610200602090815260408083208584529091529020600701546126915760405162461bcd60e51b815260206004820152600360248201526224afad60e91b6044820152606401610c07565b600083815261020060209081526040808320858452909152902060050154600214806126da57506000838152610200602090815260408083208584529091529020600501546003145b61270c5760405162461bcd60e51b815260206004820152600360248201526224afad60e91b6044820152606401610c07565b60008381526102006020908152604080832085845282529182902060010183905581518581529081018490529081018290527f95f65f2fc932b553231b4290f85999ae60ac9e82086414d2281a129723b1e76a9060600160405180910390a1505050565b6000818152609760205260408120610c3590613d41565b6101f5546001600160a01b031661279c6132ab565b6001600160a01b0316146127c25760405162461bcd60e51b8152600401610c07906157de565b6127cf60006108146132ab565b6127eb5760405162461bcd60e51b8152600401610c07906157de565b6101fc80546001600160a01b0319166001600160a01b0392909216919091179055565b6101f6546001600160a01b03166128236132ab565b6001600160a01b0316146128695760405162461bcd60e51b815260206004820152600d60248201526c27a7262cafa7a822a920aa27a960991b6044820152606401610c07565b612883600080516020615f5c8339815191526108146132ab565b6128bf5760405162461bcd60e51b815260206004820152600d60248201526c27a7262cafa7a822a920aa27a960991b6044820152606401610c07565b6101f7546001600160a01b038281169116141561290e5760405162461bcd60e51b815260206004820152600d60248201526c141493d61657d2539590531251609a1b6044820152606401610c07565b6101f780546001600160a01b0319166001600160a01b0392909216919091179055565b60008281526065602052604090206001015461294c81613664565b611226838361387a565b60006129626001613bc4565b9050801561297a576000805461ff0019166101001790555b61298384613d4b565b8551612997906101fa906020890190614c99565b5084516129ac906101fb906020880190614c99565b506101f780546001600160a01b03199081169091556101f580546001600160a01b0386169216821790556129e290600090611201565b6101f680546001600160a01b0319166001600160a01b038416908117909155612a1a90600080516020615f5c83398151915290611201565b6101f654612a4090600080516020615f3c833981519152906001600160a01b0316611201565b6101f654612a6690600080516020615f9c833981519152906001600160a01b0316611201565b6101f654612a8c90600080516020615f7c833981519152906001600160a01b0316611201565b612a946132ab565b6101f5546001600160a01b03908116911614612aeb57612ac4600080516020615f9c833981519152610a626132ab565b612ade600080516020615f7c833981519152610a626132ab565b612aeb6000610a626132ab565b8015612b31576000805461ff0019169055604051600181527f7f26b83ff96e1f2b6a682f133852f6798a09c465da95921460cefb38474024989060200160405180910390a15b505050505050565b60008781526101fe60205260409020546001600160a01b031680612b875760405162461bcd60e51b81526020600482015260056024820152644e5f455f4d60d81b6044820152606401610c07565b6000888152610200602090815260408083208984528252918290208251610100810184528154815260018201549281019290925260028101546001600160a01b03908116938301939093526003810154606083015260048101549092166080820152600582015460a0820152600682015460c0820181905260079092015460e0820152908610801590612c1e57508060e001518611155b612c525760405162461bcd60e51b8152602060048201526005602482015264495f525f4960d81b6044820152606401610c07565b60008688612c648c633b9aca00615870565b612c6e9190615905565b612c7c90633b9aca00615870565b612c869190615905565b60008181526101f860205260409020549091506001600160a01b031615612cd55760405162461bcd60e51b81526020600482015260036024820152621157d560ea1b6044820152606401610c07565b60008260e0015111612cf95760405162461bcd60e51b8152600401610c07906158b1565b8160a0015160021415612eaf576000855111612d415760405162461bcd60e51b81526020600482015260076024820152661357cdcc8c57d560ca1b6044820152606401610c07565b6000612d4e866000613d8c565b606084015160009081526102016020908152604080832060808801516001600160a01b03168452825280832084845290915290205490915060ff1615612dba5760405162461bcd60e51b81526020600482015260016024820152604d60f81b6044820152606401610c07565b60008b8b8b8b8b8b604051602001612dd7969594939291906159f1565b60408051601f1981840301815291905280516020909101206101fc549091506001600160a01b0316612e098288612500565b6001600160a01b031614612e2f5760405162461bcd60e51b8152600401610c07906158b1565b606084015160009081526102016020908152604080832060808801516001600160a01b0316845282528083208584528252909120805460ff19166001179055840151341015612ea85760405162461bcd60e51b815260206004820152600560248201526426afa82fa760d91b6044820152606401610c07565b5050612ef8565b8160a0015160031415612ef8578160200151341015612ef85760405162461bcd60e51b815260206004820152600560248201526404d5f505f560dc1b6044820152606401610c07565b6101f65460008281526101f86020526040902080546001600160a01b0319166001600160a01b03909216919091179055855115612f895760008181526101f9602090815260409091208751612f4f92890190614c99565b50807f6bb7ff708619ba0610cba295a58592e0451dee2622938c8755667688daf3529b87604051612f809190614e26565b60405180910390a25b612f96898260018861378d565b604080516001600160a01b038b1681526020810183905260018183015290517f8069ef4945469d029cc32e222031bccdc99b2eaaf4ee374cd268012f7ddee9079181900360600190a150505050505050505050565b6101f7546000906001600160a01b03161561308f576101f75460405163c455279160e01b81526001600160a01b03858116600483015291821691841690829063c455279190602401602060405180830381865afa158015613050573d6000803e3d6000fd5b505050506040513d601f19601f820116820180604052508101906130749190615a54565b6001600160a01b0316141561308d576001915050610c35565b505b6001600160a01b03808416600090815260ca602090815260408083209386168352929052205460ff16611071565b6130c5613937565b60008381526101fe60205260409020546001600160a01b039081169116146130ff5760405162461bcd60e51b8152600401610c079061598b565b6001600160a01b0381166131255760405162461bcd60e51b8152600401610c079061598b565b60008281526101fe602090815260409182902080546001600160a01b0319166001600160a01b0385169081179091558251858152918201527fdd9fea2fe1361d546c2bb487b53ae58d9745b2e73cf28408f5da6ad65d7ba3c1910161218f565b61318d6132ab565b6001600160a01b0316856001600160a01b031614806131b357506131b385610ad76132ab565b6131cf5760405162461bcd60e51b8152600401610c07906159a8565b6111fa8585858585613dd8565b6131e46132ab565b6001600160a01b0316836001600160a01b0316148061320a575061320a83610ad76132ab565b6132265760405162461bcd60e51b8152600401610c07906159a8565b611226838383613f1f565b600061323d6001613bc4565b90508015613255576000805461ff0019166101001790555b61325e82613d4b565b8015610e35576000805461ff0019169055604051600181527f7f26b83ff96e1f2b6a682f133852f6798a09c465da95921460cefb38474024989060200161218f565b6000610c3582614046565b60006132b5613937565b905090565b606060cb80546132c990615825565b80601f01602080910402602001604051908101604052809291908181526020018280546132f590615825565b80156133425780601f1061331757610100808354040283529160200191613342565b820191906000526020600020905b81548152906001019060200180831161332557829003601f168201915b50505050509050919050565b6001600160a01b0384166133745760405162461bcd60e51b8152600401610c0790615a71565b81518351146133955760405162461bcd60e51b8152600401610c0790615ab2565b600061339f6132ab565b90506133b081600087878787614086565b60005b845181101561344c578381815181106133ce576133ce61595a565b602002602001015160c960008784815181106133ec576133ec61595a565b602002602001015181526020019081526020016000206000886001600160a01b03166001600160a01b0316815260200190815260200160002060008282546134349190615905565b9091555081905061344481615970565b9150506133b3565b50846001600160a01b031660006001600160a01b0316826001600160a01b03167f4a39dc06d4c0dbc64b70af90fd698a233a518aa5d07e595d983b8c0526c8f7fb878760405161349d929190615afa565b60405180910390a46111fa81600087878787614094565b81518351146134d55760405162461bcd60e51b8152600401610c0790615ab2565b6001600160a01b0384166134fb5760405162461bcd60e51b8152600401610c0790615b28565b60006135056132ab565b9050613515818787878787614086565b60005b84518110156135fe5760008582815181106135355761353561595a565b6020026020010151905060008583815181106135535761355361595a565b602090810291909101810151600084815260c9835260408082206001600160a01b038e1683529093529190912054909150818110156135a45760405162461bcd60e51b8152600401610c0790615b6d565b600083815260c9602090815260408083206001600160a01b038e8116855292528083208585039055908b168252812080548492906135e3908490615905565b92505081905550505050806135f790615970565b9050613518565b50846001600160a01b0316866001600160a01b0316826001600160a01b03167f4a39dc06d4c0dbc64b70af90fd698a233a518aa5d07e595d983b8c0526c8f7fb878760405161364e929190615afa565b60405180910390a4612b31818787878787614094565b613675816136706132ab565b6141f0565b50565b6136828282614254565b600082815260976020526040902061122690826142db565b60008160a001516002141580156136b657508160a00151600314155b156136c357506000919050565b8151633b9aca001115806136df5750633b9aca008260c0015110155b806136f25750633b9aca008260e0015110155b156136ff57506000919050565b60e082015115613780578160a00151600214156137355760808201516001600160a01b031661373057506000919050565b613753565b8160a001516003141561375357602082015161375357506000919050565b8160e001518260c00151118061376b575060c0820151155b1561377857506000919050565b506001919050565b506000919050565b919050565b6001600160a01b0384166137b35760405162461bcd60e51b8152600401610c0790615a71565b60006137bd6132ab565b905060006137ca856142f0565b905060006137d7856142f0565b90506137e883600089858589614086565b600086815260c9602090815260408083206001600160a01b038b1684529091528120805487929061381a908490615905565b909155505060408051878152602081018790526001600160a01b03808a1692600092918716917fc3d58168c5ae7397731d063d5bbf3d657854427343f4c083240f7aacaa2d0f62910160405180910390a46124e98360008989898961433b565b61388482826143f6565b6000828152609760205260409020611226908261447b565b61012d5460ff166138e65760405162461bcd60e51b815260206004820152601460248201527314185d5cd8589b194e881b9bdd081c185d5cd95960621b6044820152606401610c07565b61012d805460ff191690557f5db9ee0a495bf2e6ff9c91a7834c1ba4fdd244a5e8aa4e537bd38aeae4b073aa61391a6132ab565b6040516001600160a01b03909116815260200160405180910390a1565b60003330141561398e57600080368080601f0160208091040260200160405190810160405280939291908181526020018383808284376000920191909152505050503601516001600160a01b031691506139919050565b50335b90565b6001600160a01b0383166139ba5760405162461bcd60e51b8152600401610c0790615bb7565b80518251146139db5760405162461bcd60e51b8152600401610c0790615ab2565b60006139e56132ab565b9050613a0581856000868660405180602001604052806000815250614086565b60005b8351811015613acd576000848281518110613a2557613a2561595a565b602002602001015190506000848381518110613a4357613a4361595a565b602090810291909101810151600084815260c9835260408082206001600160a01b038c168352909352919091205490915081811015613a945760405162461bcd60e51b8152600401610c0790615bfa565b600092835260c9602090815260408085206001600160a01b038b1686529091529092209103905580613ac581615970565b915050613a08565b5060006001600160a01b0316846001600160a01b0316826001600160a01b03167f4a39dc06d4c0dbc64b70af90fd698a233a518aa5d07e595d983b8c0526c8f7fb8686604051613b1e929190615afa565b60405180910390a4604080516020810190915260009052611116565b61012d5460ff1615613b815760405162461bcd60e51b815260206004820152601060248201526f14185d5cd8589b194e881c185d5cd95960821b6044820152606401610c07565b61012d805460ff191660011790557f62e78cea01bee320cd4e420270b5ea74000d11b0c9f74754ebdbfc544b05a25861391a6132ab565b60006110718383614490565b60008054610100900460ff1615613c03578160ff166001148015613be75750303b155b6137805760405162461bcd60e51b8152600401610c0790615c3e565b60005460ff808416911610613c2a5760405162461bcd60e51b8152600401610c0790615c3e565b506000805460ff191660ff92909216919091179055600190565b6000806000613c5385856144ba565b91509150611cc58161452a565b816001600160a01b0316836001600160a01b03161415613cd45760405162461bcd60e51b815260206004820152602960248201527f455243313135353a2073657474696e6720617070726f76616c20737461747573604482015268103337b91039b2b63360b91b6064820152608401610c07565b6001600160a01b03838116600081815260ca6020908152604080832094871680845294825291829020805460ff191686151590811790915591519182527f17307eab39ab6107e8899845ad3d59bd9653f200f220920489ca2b5937696c31910160405180910390a3505050565b6000610c35825490565b600054610100900460ff16613d725760405162461bcd60e51b8152600401610c0790615c8c565b613d7b816146e5565b613d83614715565b61367581614749565b6000613d99826020615905565b83511015613dcf5760405162461bcd60e51b815260206004820152600360248201526227a7a960e91b6044820152606401610c07565b50016020015190565b6001600160a01b038416613dfe5760405162461bcd60e51b8152600401610c0790615b28565b6000613e086132ab565b90506000613e15856142f0565b90506000613e22856142f0565b9050613e32838989858589614086565b600086815260c9602090815260408083206001600160a01b038c16845290915290205485811015613e755760405162461bcd60e51b8152600401610c0790615b6d565b600087815260c9602090815260408083206001600160a01b038d8116855292528083208985039055908a16825281208054889290613eb4908490615905565b909155505060408051888152602081018890526001600160a01b03808b16928c821692918816917fc3d58168c5ae7397731d063d5bbf3d657854427343f4c083240f7aacaa2d0f62910160405180910390a4613f14848a8a8a8a8a61433b565b505050505050505050565b6001600160a01b038316613f455760405162461bcd60e51b8152600401610c0790615bb7565b6000613f4f6132ab565b90506000613f5c846142f0565b90506000613f69846142f0565b9050613f8983876000858560405180602001604052806000815250614086565b600085815260c9602090815260408083206001600160a01b038a16845290915290205484811015613fcc5760405162461bcd60e51b8152600401610c0790615bfa565b600086815260c9602090815260408083206001600160a01b038b81168086529184528285208a8703905582518b81529384018a90529092908816917fc3d58168c5ae7397731d063d5bbf3d657854427343f4c083240f7aacaa2d0f62910160405180910390a46040805160208101909152600090526124e9565b60006001600160e01b03198216636cdb3d1360e11b148061407757506001600160e01b031982166303a24d0760e21b145b80610c355750610c35826147b6565b612b318686868686866147db565b6001600160a01b0384163b15612b315760405163bc197c8160e01b81526001600160a01b0385169063bc197c81906140d89089908990889088908890600401615cd7565b6020604051808303816000875af1925050508015614113575060408051601f3d908101601f1916820190925261411091810190615d35565b60015b6141c05761411f615d52565b806308c379a014156141595750614134615d6d565b8061413f575061415b565b8060405162461bcd60e51b8152600401610c079190614e26565b505b60405162461bcd60e51b815260206004820152603460248201527f455243313135353a207472616e7366657220746f206e6f6e20455243313135356044820152732932b1b2b4bb32b91034b6b83632b6b2b73a32b960611b6064820152608401610c07565b6001600160e01b0319811663bc197c8160e01b146124e95760405162461bcd60e51b8152600401610c0790615df6565b6141fa82826123e0565b610e3557614212816001600160a01b03166014614844565b61421d836020614844565b60405160200161422e929190615e3e565b60408051601f198184030181529082905262461bcd60e51b8252610c0791600401614e26565b61425e82826123e0565b610e355760008281526065602090815260408083206001600160a01b03851684529091529020805460ff191660011790556142976132ab565b6001600160a01b0316816001600160a01b0316837f2f8788117e7eff1d82e926ec794901d17c78024a50270940304540a733656f0d60405160405180910390a45050565b6000611071836001600160a01b0384166149df565b6040805160018082528183019092526060916000919060208083019080368337019050509050828160008151811061432a5761432a61595a565b602090810291909101015292915050565b6001600160a01b0384163b15612b315760405163f23a6e6160e01b81526001600160a01b0385169063f23a6e619061437f9089908990889088908890600401615eb3565b6020604051808303816000875af19250505080156143ba575060408051601f3d908101601f191682019092526143b791810190615d35565b60015b6143c65761411f615d52565b6001600160e01b0319811663f23a6e6160e01b146124e95760405162461bcd60e51b8152600401610c0790615df6565b61440082826123e0565b15610e355760008281526065602090815260408083206001600160a01b03851684529091529020805460ff191690556144376132ab565b6001600160a01b0316816001600160a01b0316837ff6391f5c32d9c69d2a47ea670b442974b53935d1edc7fd64eb21e047a839171b60405160405180910390a45050565b6000611071836001600160a01b038416614a2e565b60008260000182815481106144a7576144a761595a565b9060005260206000200154905092915050565b6000808251604114156144f15760208301516040840151606085015160001a6144e587828585614b21565b94509450505050614523565b82516040141561451b5760208301516040840151614510868383614c0e565b935093505050614523565b506000905060025b9250929050565b600081600481111561453e5761453e615ef8565b14156145475750565b600181600481111561455b5761455b615ef8565b14156145a95760405162461bcd60e51b815260206004820152601860248201527f45434453413a20696e76616c6964207369676e617475726500000000000000006044820152606401610c07565b60028160048111156145bd576145bd615ef8565b141561460b5760405162461bcd60e51b815260206004820152601f60248201527f45434453413a20696e76616c6964207369676e6174757265206c656e677468006044820152606401610c07565b600381600481111561461f5761461f615ef8565b14156146785760405162461bcd60e51b815260206004820152602260248201527f45434453413a20696e76616c6964207369676e6174757265202773272076616c604482015261756560f01b6064820152608401610c07565b600481600481111561468c5761468c615ef8565b14156136755760405162461bcd60e51b815260206004820152602260248201527f45434453413a20696e76616c6964207369676e6174757265202776272076616c604482015261756560f01b6064820152608401610c07565b600054610100900460ff1661470c5760405162461bcd60e51b8152600401610c0790615c8c565b61367581614c47565b600054610100900460ff1661473c5760405162461bcd60e51b8152600401610c0790615c8c565b61012d805460ff19169055565b600054610100900460ff166147705760405162461bcd60e51b8152600401610c0790615c8c565b614782600061477d6132ab565b614c5a565b61479c600080516020615f9c83398151915261477d6132ab565b613675600080516020615f7c83398151915261477d6132ab565b60006001600160e01b03198216635a05180f60e01b1480610c355750610c3582614c64565b61012d5460ff1615612b315760405162461bcd60e51b815260206004820152602c60248201527f455243313135355061757361626c653a20746f6b656e207472616e736665722060448201526b1dda1a5b19481c185d5cd95960a21b6064820152608401610c07565b60606000614853836002615870565b61485e906002615905565b6001600160401b0381111561487557614875614e52565b6040519080825280601f01601f19166020018201604052801561489f576020820181803683370190505b509050600360fc1b816000815181106148ba576148ba61595a565b60200101906001600160f81b031916908160001a905350600f60fb1b816001815181106148e9576148e961595a565b60200101906001600160f81b031916908160001a905350600061490d846002615870565b614918906001615905565b90505b6001811115614990576f181899199a1a9b1b9c1cb0b131b232b360811b85600f166010811061494c5761494c61595a565b1a60f81b8282815181106149625761496261595a565b60200101906001600160f81b031916908160001a90535060049490941c9361498981615f0e565b905061491b565b5083156110715760405162461bcd60e51b815260206004820181905260248201527f537472696e67733a20686578206c656e67746820696e73756666696369656e746044820152606401610c07565b6000818152600183016020526040812054614a2657508154600181810184556000848152602080822090930184905584548482528286019093526040902091909155610c35565b506000610c35565b60008181526001830160205260408120548015614b17576000614a5260018361591d565b8554909150600090614a669060019061591d565b9050818114614acb576000866000018281548110614a8657614a8661595a565b9060005260206000200154905080876000018481548110614aa957614aa961595a565b6000918252602080832090910192909255918252600188019052604090208390555b8554869080614adc57614adc615f25565b600190038181906000526020600020016000905590558560010160008681526020019081526020016000206000905560019350505050610c35565b6000915050610c35565b6000807f7fffffffffffffffffffffffffffffff5d576e7357a4501ddfe92f46681b20a0831115614b585750600090506003614c05565b8460ff16601b14158015614b7057508460ff16601c14155b15614b815750600090506004614c05565b6040805160008082526020820180845289905260ff881692820192909252606081018690526080810185905260019060a0016020604051602081039080840390855afa158015614bd5573d6000803e3d6000fd5b5050604051601f1901519150506001600160a01b038116614bfe57600060019250925050614c05565b9150600090505b94509492505050565b6000806001600160ff1b03831681614c2b60ff86901c601b615905565b9050614c3987828885614b21565b935093505050935093915050565b8051610e359060cb906020840190614c99565b610e358282613678565b60006001600160e01b03198216637965db0b60e01b1480610c3557506301ffc9a760e01b6001600160e01b0319831614610c35565b828054614ca590615825565b90600052602060002090601f016020900481019282614cc75760008555614d0d565b82601f10614ce057805160ff1916838001178555614d0d565b82800160010185558215614d0d579182015b82811115614d0d578251825591602001919060010190614cf2565b50614d19929150614d1d565b5090565b5b80821115614d195760008155600101614d1e565b6001600160a01b038116811461367557600080fd5b803561378881614d32565b60008060408385031215614d6557600080fd5b8235614d7081614d32565b946020939093013593505050565b6001600160e01b03198116811461367557600080fd5b600060208284031215614da657600080fd5b813561107181614d7e565b600060208284031215614dc357600080fd5b813561107181614d32565b60005b83811015614de9578181015183820152602001614dd1565b838111156111165750506000910152565b60008151808452614e12816020860160208601614dce565b601f01601f19169290920160200192915050565b6020815260006110716020830184614dfa565b600060208284031215614e4b57600080fd5b5035919050565b634e487b7160e01b600052604160045260246000fd5b601f8201601f191681016001600160401b0381118282101715614e8d57614e8d614e52565b6040525050565b60006001600160401b03821115614ead57614ead614e52565b5060051b60200190565b600082601f830112614ec857600080fd5b81356020614ed582614e94565b604051614ee28282614e68565b83815260059390931b8501820192828101915086841115614f0257600080fd5b8286015b84811015614f1d5780358352918301918301614f06565b509695505050505050565b600082601f830112614f3957600080fd5b81356001600160401b03811115614f5257614f52614e52565b604051614f69601f8301601f191660200182614e68565b818152846020838601011115614f7e57600080fd5b816020850160208301376000918101602001919091529392505050565b60008060008060808587031215614fb157600080fd5b8435614fbc81614d32565b935060208501356001600160401b0380821115614fd857600080fd5b614fe488838901614eb7565b94506040870135915080821115614ffa57600080fd5b61500688838901614eb7565b9350606087013591508082111561501c57600080fd5b5061502987828801614f28565b91505092959194509250565b6000806040838503121561504857600080fd5b50508035926020909101359150565b600080600080600060a0868803121561506f57600080fd5b853561507a81614d32565b9450602086013561508a81614d32565b935060408601356001600160401b03808211156150a657600080fd5b6150b289838a01614eb7565b945060608801359150808211156150c857600080fd5b6150d489838a01614eb7565b935060808801359150808211156150ea57600080fd5b506150f788828901614f28565b9150509295509295909350565b6000806040838503121561511757600080fd5b82359150602083013561512981614d32565b809150509250929050565b600061010080838503121561514857600080fd5b604051908101906001600160401b038211818310171561516a5761516a614e52565b81604052809250833581526020840135602082015261518b60408501614d47565b6040820152606084013560608201526151a660808501614d47565b608082015260a084013560a082015260c084013560c082015260e084013560e0820152505092915050565b600080600061014084860312156151e757600080fd5b833592506151f88560208601615134565b91506101208401356001600160401b0381111561521457600080fd5b61522086828701614f28565b9150509250925092565b6000806040838503121561523d57600080fd5b8235915060208301356001600160401b0381111561525a57600080fd5b61526685828601614f28565b9150509250929050565b6000806040838503121561528357600080fd5b82356001600160401b038082111561529a57600080fd5b818501915085601f8301126152ae57600080fd5b813560206152bb82614e94565b6040516152c88282614e68565b83815260059390931b85018201928281019150898411156152e857600080fd5b948201945b8386101561530f57853561530081614d32565b825294820194908201906152ed565b9650508601359250508082111561532557600080fd5b5061526685828601614eb7565b600081518084526020808501945080840160005b8381101561536257815187529582019590820190600101615346565b509495945050505050565b6020815260006110716020830184615332565b600080610120838503121561539457600080fd5b8235915061114f8460208501615134565b6000806000606084860312156153ba57600080fd5b83356153c581614d32565b925060208401356001600160401b03808211156153e157600080fd5b6153ed87838801614eb7565b9350604086013591508082111561540357600080fd5b5061522086828701614eb7565b6000806000806080858703121561542657600080fd5b843561543181614d32565b9350602085013592506040850135915060608501356001600160401b0381111561545a57600080fd5b61502987828801614f28565b60008060008060008060c0878903121561547f57600080fd5b863561548a81614d32565b9550602087013561549a81614d32565b945060408701356154aa81614d32565b935060608701356154ba81614d32565b925060808701356001600160401b03808211156154d657600080fd5b6154e28a838b01614f28565b935060a08901359150808211156154f857600080fd5b5061550589828a01614f28565b9150509295509295509295565b6000806040838503121561552557600080fd5b823561553081614d32565b91506020830135801515811461512957600080fd5b60008060006060848603121561555a57600080fd5b505081359360208301359350604090920135919050565b600080600080600060a0868803121561558957600080fd5b85356001600160401b03808211156155a057600080fd5b6155ac89838a01614f28565b965060208801359150808211156155c257600080fd5b6155ce89838a01614f28565b955060408801359150808211156155e457600080fd5b506155f188828901614f28565b935050606086013561560281614d32565b9150608086013561561281614d32565b809150509295509295909350565b600080600080600080600060e0888a03121561563b57600080fd5b87359650602088013561564d81614d32565b9550604088013594506060880135935060808801356001600160401b038082111561567757600080fd5b6156838b838c01614f28565b945060a08a013591508082111561569957600080fd5b6156a58b838c01614f28565b935060c08a01359150808211156156bb57600080fd5b506156c88a828b01614f28565b91505092959891949750929550565b600080604083850312156156ea57600080fd5b82356156f581614d32565b9150602083013561512981614d32565b600080600080600060a0868803121561571d57600080fd5b853561572881614d32565b9450602086013561573881614d32565b9350604086013592506060860135915060808601356001600160401b0381111561576157600080fd5b6150f788828901614f28565b60008060006060848603121561578257600080fd5b833561578d81614d32565b95602085013595506040909401359392505050565b6000602082840312156157b457600080fd5b81356001600160401b038111156157ca57600080fd5b6157d684828501614f28565b949350505050565b6020808252600a908201526927a7262cafa0a226a4a760b11b604082015260600190565b6020808252600990820152682727aa2fa0a226a4a760b91b604082015260600190565b600181811c9082168061583957607f821691505b6020821081141561107857634e487b7160e01b600052602260045260246000fd5b634e487b7160e01b600052601160045260246000fd5b600081600019048311821515161561588a5761588a61585a565b500290565b6000826158ac57634e487b7160e01b600052601260045260246000fd5b500490565b602080825260039082015262495f5360e81b604082015260600190565b60208082526004908201526324afad1960e11b604082015260600190565b6000602082840312156158fe57600080fd5b5051919050565b600082198211156159185761591861585a565b500190565b60008282101561592f5761592f61585a565b500390565b6020808252600c908201526b27a7262cafa1a922a0aa27a960a11b604082015260600190565b634e487b7160e01b600052603260045260246000fd5b60006000198214156159845761598461585a565b5060010190565b602080825260039082015262495f4160e81b604082015260600190565b60208082526029908201527f455243313135353a2063616c6c6572206973206e6f74206f776e6572206e6f7260408201526808185c1c1c9bdd995960ba1b606082015260800190565b8681526bffffffffffffffffffffffff198660601b16602082015284603482015283605482015260008351615a2d816074850160208801614dce565b835190830190615a44816074840160208801614dce565b0160740198975050505050505050565b600060208284031215615a6657600080fd5b815161107181614d32565b60208082526021908201527f455243313135353a206d696e7420746f20746865207a65726f206164647265736040820152607360f81b606082015260800190565b60208082526028908201527f455243313135353a2069647320616e6420616d6f756e7473206c656e677468206040820152670dad2e6dac2e8c6d60c31b606082015260800190565b604081526000615b0d6040830185615332565b8281036020840152615b1f8185615332565b95945050505050565b60208082526025908201527f455243313135353a207472616e7366657220746f20746865207a65726f206164604082015264647265737360d81b606082015260800190565b6020808252602a908201527f455243313135353a20696e73756666696369656e742062616c616e636520666f60408201526939103a3930b739b332b960b11b606082015260800190565b60208082526023908201527f455243313135353a206275726e2066726f6d20746865207a65726f206164647260408201526265737360e81b606082015260800190565b60208082526024908201527f455243313135353a206275726e20616d6f756e7420657863656564732062616c604082015263616e636560e01b606082015260800190565b6020808252602e908201527f496e697469616c697a61626c653a20636f6e747261637420697320616c72656160408201526d191e481a5b9a5d1a585b1a5e995960921b606082015260800190565b6020808252602b908201527f496e697469616c697a61626c653a20636f6e7472616374206973206e6f74206960408201526a6e697469616c697a696e6760a81b606082015260800190565b6001600160a01b0386811682528516602082015260a060408201819052600090615d0390830186615332565b8281036060840152615d158186615332565b90508281036080840152615d298185614dfa565b98975050505050505050565b600060208284031215615d4757600080fd5b815161107181614d7e565b600060033d11156139915760046000803e5060005160e01c90565b600060443d1015615d7b5790565b6040516003193d81016004833e81513d6001600160401b038160248401118184111715615daa57505050505090565b8285019150815181811115615dc25750505050505090565b843d8701016020828501011115615ddc5750505050505090565b615deb60208286010187614e68565b509095945050505050565b60208082526028908201527f455243313135353a204552433131353552656365697665722072656a656374656040820152676420746f6b656e7360c01b606082015260800190565b7f416363657373436f6e74726f6c3a206163636f756e7420000000000000000000815260008351615e76816017850160208801614dce565b7001034b99036b4b9b9b4b733903937b6329607d1b6017918401918201528351615ea7816028840160208801614dce565b01602801949350505050565b6001600160a01b03868116825285166020820152604081018490526060810183905260a060808201819052600090615eed90830184614dfa565b979650505050505050565b634e487b7160e01b600052602160045260246000fd5b600081615f1d57615f1d61585a565b506000190190565b634e487b7160e01b600052603160045260246000fdfe828634d95e775031b9ff576b159a8509d3053581a8c9c4d7d86899e0afcd882f97667070c54ef182b0f5858b034beac1b6f3089aa2d3188bb1e8929f4fa9b92965d7a28e3265b37a6474929f336521b332c1681b933f6cb9f3376673440d862a9f2df0fed2c77648de5860a4cc508cd0818c85b8b8a1ab4ceeef8d981c8956a6a2646970667358221220788f2fb3352c1639581598bc33fb886d9eb706bcb6343973f187f9955ef0d2d664736f6c634300080c0033",
  "linkReferences": {},
  "deployedLinkReferences": {}
}