{
  "_format": "hh-sol-artifact-1",
  "contractName": "RoveToken",
  "sourceName": "contracts/monetary/RoveToken.sol",
  "abi": [
    {
      "inputs": [
        {
          "internalType": "address",
          "name": "_admin",
          "type": "address"
        }
      ],
      "stateMutability": "nonpayable",
      "type": "constructor"
    },
    {
      "anonymous": false,
      "inputs": [
        {
          "indexed": false,
          "internalType": "address",
          "name": "previous",
          "type": "address"
        },
        {
          "indexed": false,
          "internalType": "address",
          "name": "new_",
          "type": "address"
        }
      ],
      "name": "AdminChanged",
      "type": "event"
    },
    {
      "anonymous": false,
      "inputs": [
        {
          "indexed": true,
          "internalType": "address",
          "name": "owner",
          "type": "address"
        },
        {
          "indexed": true,
          "internalType": "address",
          "name": "spender",
          "type": "address"
        },
        {
          "indexed": false,
          "internalType": "uint256",
          "name": "value",
          "type": "uint256"
        }
      ],
      "name": "Approval",
      "type": "event"
    },
    {
      "anonymous": false,
      "inputs": [
        {
          "indexed": false,
          "internalType": "address",
          "name": "to",
          "type": "address"
        },
        {
          "indexed": false,
          "internalType": "uint256",
          "name": "amount",
          "type": "uint256"
        }
      ],
      "name": "MintToken",
      "type": "event"
    },
    {
      "anonymous": false,
      "inputs": [
        {
          "indexed": false,
          "internalType": "address",
          "name": "account",
          "type": "address"
        }
      ],
      "name": "Paused",
      "type": "event"
    },
    {
      "anonymous": false,
      "inputs": [
        {
          "indexed": true,
          "internalType": "bytes32",
          "name": "role",
          "type": "bytes32"
        },
        {
          "indexed": true,
          "internalType": "bytes32",
          "name": "previousAdminRole",
          "type": "bytes32"
        },
        {
          "indexed": true,
          "internalType": "bytes32",
          "name": "newAdminRole",
          "type": "bytes32"
        }
      ],
      "name": "RoleAdminChanged",
      "type": "event"
    },
    {
      "anonymous": false,
      "inputs": [
        {
          "indexed": true,
          "internalType": "bytes32",
          "name": "role",
          "type": "bytes32"
        },
        {
          "indexed": true,
          "internalType": "address",
          "name": "account",
          "type": "address"
        },
        {
          "indexed": true,
          "internalType": "address",
          "name": "sender",
          "type": "address"
        }
      ],
      "name": "RoleGranted",
      "type": "event"
    },
    {
      "anonymous": false,
      "inputs": [
        {
          "indexed": true,
          "internalType": "bytes32",
          "name": "role",
          "type": "bytes32"
        },
        {
          "indexed": true,
          "internalType": "address",
          "name": "account",
          "type": "address"
        },
        {
          "indexed": true,
          "internalType": "address",
          "name": "sender",
          "type": "address"
        }
      ],
      "name": "RoleRevoked",
      "type": "event"
    },
    {
      "anonymous": false,
      "inputs": [
        {
          "indexed": true,
          "internalType": "address",
          "name": "from",
          "type": "address"
        },
        {
          "indexed": true,
          "internalType": "address",
          "name": "to",
          "type": "address"
        },
        {
          "indexed": false,
          "internalType": "uint256",
          "name": "value",
          "type": "uint256"
        }
      ],
      "name": "Transfer",
      "type": "event"
    },
    {
      "anonymous": false,
      "inputs": [
        {
          "indexed": false,
          "internalType": "address",
          "name": "account",
          "type": "address"
        }
      ],
      "name": "Unpaused",
      "type": "event"
    },
    {
      "inputs": [],
      "name": "DEFAULT_ADMIN_ROLE",
      "outputs": [
        {
          "internalType": "bytes32",
          "name": "",
          "type": "bytes32"
        }
      ],
      "stateMutability": "view",
      "type": "function"
    },
    {
      "inputs": [],
      "name": "MINTER_ROLE",
      "outputs": [
        {
          "internalType": "bytes32",
          "name": "",
          "type": "bytes32"
        }
      ],
      "stateMutability": "view",
      "type": "function"
    },
    {
      "inputs": [],
      "name": "PAUSER_ROLE",
      "outputs": [
        {
          "internalType": "bytes32",
          "name": "",
          "type": "bytes32"
        }
      ],
      "stateMutability": "view",
      "type": "function"
    },
    {
      "inputs": [],
      "name": "admin",
      "outputs": [
        {
          "internalType": "address",
          "name": "",
          "type": "address"
        }
      ],
      "stateMutability": "view",
      "type": "function"
    },
    {
      "inputs": [
        {
          "internalType": "address",
          "name": "owner",
          "type": "address"
        },
        {
          "internalType": "address",
          "name": "spender",
          "type": "address"
        }
      ],
      "name": "allowance",
      "outputs": [
        {
          "internalType": "uint256",
          "name": "",
          "type": "uint256"
        }
      ],
      "stateMutability": "view",
      "type": "function"
    },
    {
      "inputs": [
        {
          "internalType": "address",
          "name": "spender",
          "type": "address"
        },
        {
          "internalType": "uint256",
          "name": "amount",
          "type": "uint256"
        }
      ],
      "name": "approve",
      "outputs": [
        {
          "internalType": "bool",
          "name": "",
          "type": "bool"
        }
      ],
      "stateMutability": "nonpayable",
      "type": "function"
    },
    {
      "inputs": [
        {
          "internalType": "address",
          "name": "account",
          "type": "address"
        }
      ],
      "name": "balanceOf",
      "outputs": [
        {
          "internalType": "uint256",
          "name": "",
          "type": "uint256"
        }
      ],
      "stateMutability": "view",
      "type": "function"
    },
    {
      "inputs": [
        {
          "internalType": "uint256",
          "name": "amount",
          "type": "uint256"
        }
      ],
      "name": "burn",
      "outputs": [],
      "stateMutability": "nonpayable",
      "type": "function"
    },
    {
      "inputs": [
        {
          "internalType": "address",
          "name": "account",
          "type": "address"
        },
        {
          "internalType": "uint256",
          "name": "amount",
          "type": "uint256"
        }
      ],
      "name": "burnFrom",
      "outputs": [],
      "stateMutability": "nonpayable",
      "type": "function"
    },
    {
      "inputs": [
        {
          "internalType": "address",
          "name": "_newAdmin",
          "type": "address"
        }
      ],
      "name": "changeAdmin",
      "outputs": [],
      "stateMutability": "nonpayable",
      "type": "function"
    },
    {
      "inputs": [],
      "name": "decimals",
      "outputs": [
        {
          "internalType": "uint8",
          "name": "",
          "type": "uint8"
        }
      ],
      "stateMutability": "pure",
      "type": "function"
    },
    {
      "inputs": [
        {
          "internalType": "address",
          "name": "spender",
          "type": "address"
        },
        {
          "internalType": "uint256",
          "name": "subtractedValue",
          "type": "uint256"
        }
      ],
      "name": "decreaseAllowance",
      "outputs": [
        {
          "internalType": "bool",
          "name": "",
          "type": "bool"
        }
      ],
      "stateMutability": "nonpayable",
      "type": "function"
    },
    {
      "inputs": [
        {
          "internalType": "bytes32",
          "name": "role",
          "type": "bytes32"
        }
      ],
      "name": "getRoleAdmin",
      "outputs": [
        {
          "internalType": "bytes32",
          "name": "",
          "type": "bytes32"
        }
      ],
      "stateMutability": "view",
      "type": "function"
    },
    {
      "inputs": [
        {
          "internalType": "bytes32",
          "name": "role",
          "type": "bytes32"
        },
        {
          "internalType": "uint256",
          "name": "index",
          "type": "uint256"
        }
      ],
      "name": "getRoleMember",
      "outputs": [
        {
          "internalType": "address",
          "name": "",
          "type": "address"
        }
      ],
      "stateMutability": "view",
      "type": "function"
    },
    {
      "inputs": [
        {
          "internalType": "bytes32",
          "name": "role",
          "type": "bytes32"
        }
      ],
      "name": "getRoleMemberCount",
      "outputs": [
        {
          "internalType": "uint256",
          "name": "",
          "type": "uint256"
        }
      ],
      "stateMutability": "view",
      "type": "function"
    },
    {
      "inputs": [
        {
          "internalType": "bytes32",
          "name": "role",
          "type": "bytes32"
        },
        {
          "internalType": "address",
          "name": "account",
          "type": "address"
        }
      ],
      "name": "grantRole",
      "outputs": [],
      "stateMutability": "nonpayable",
      "type": "function"
    },
    {
      "inputs": [
        {
          "internalType": "bytes32",
          "name": "role",
          "type": "bytes32"
        },
        {
          "internalType": "address",
          "name": "account",
          "type": "address"
        }
      ],
      "name": "hasRole",
      "outputs": [
        {
          "internalType": "bool",
          "name": "",
          "type": "bool"
        }
      ],
      "stateMutability": "view",
      "type": "function"
    },
    {
      "inputs": [
        {
          "internalType": "address",
          "name": "spender",
          "type": "address"
        },
        {
          "internalType": "uint256",
          "name": "addedValue",
          "type": "uint256"
        }
      ],
      "name": "increaseAllowance",
      "outputs": [
        {
          "internalType": "bool",
          "name": "",
          "type": "bool"
        }
      ],
      "stateMutability": "nonpayable",
      "type": "function"
    },
    {
      "inputs": [
        {
          "internalType": "address",
          "name": "to",
          "type": "address"
        },
        {
          "internalType": "uint256",
          "name": "amount",
          "type": "uint256"
        }
      ],
      "name": "mint",
      "outputs": [],
      "stateMutability": "nonpayable",
      "type": "function"
    },
    {
      "inputs": [],
      "name": "name",
      "outputs": [
        {
          "internalType": "string",
          "name": "",
          "type": "string"
        }
      ],
      "stateMutability": "view",
      "type": "function"
    },
    {
      "inputs": [],
      "name": "pause",
      "outputs": [],
      "stateMutability": "nonpayable",
      "type": "function"
    },
    {
      "inputs": [],
      "name": "paused",
      "outputs": [
        {
          "internalType": "bool",
          "name": "",
          "type": "bool"
        }
      ],
      "stateMutability": "view",
      "type": "function"
    },
    {
      "inputs": [
        {
          "internalType": "bytes32",
          "name": "role",
          "type": "bytes32"
        },
        {
          "internalType": "address",
          "name": "account",
          "type": "address"
        }
      ],
      "name": "renounceRole",
      "outputs": [],
      "stateMutability": "nonpayable",
      "type": "function"
    },
    {
      "inputs": [
        {
          "internalType": "bytes32",
          "name": "role",
          "type": "bytes32"
        },
        {
          "internalType": "address",
          "name": "account",
          "type": "address"
        }
      ],
      "name": "revokeRole",
      "outputs": [],
      "stateMutability": "nonpayable",
      "type": "function"
    },
    {
      "inputs": [
        {
          "internalType": "uint256",
          "name": "",
          "type": "uint256"
        }
      ],
      "name": "roveTokenTimelockContract",
      "outputs": [
        {
          "internalType": "address",
          "name": "",
          "type": "address"
        }
      ],
      "stateMutability": "view",
      "type": "function"
    },
    {
      "inputs": [
        {
          "internalType": "address[4]",
          "name": "timeLockContracts",
          "type": "address[4]"
        }
      ],
      "name": "schedule_minting",
      "outputs": [
        {
          "internalType": "uint256",
          "name": "",
          "type": "uint256"
        }
      ],
      "stateMutability": "nonpayable",
      "type": "function"
    },
    {
      "inputs": [
        {
          "internalType": "bytes4",
          "name": "interfaceId",
          "type": "bytes4"
        }
      ],
      "name": "supportsInterface",
      "outputs": [
        {
          "internalType": "bool",
          "name": "",
          "type": "bool"
        }
      ],
      "stateMutability": "view",
      "type": "function"
    },
    {
      "inputs": [],
      "name": "symbol",
      "outputs": [
        {
          "internalType": "string",
          "name": "",
          "type": "string"
        }
      ],
      "stateMutability": "view",
      "type": "function"
    },
    {
      "inputs": [],
      "name": "totalSupply",
      "outputs": [
        {
          "internalType": "uint256",
          "name": "",
          "type": "uint256"
        }
      ],
      "stateMutability": "view",
      "type": "function"
    },
    {
      "inputs": [
        {
          "internalType": "address",
          "name": "to",
          "type": "address"
        },
        {
          "internalType": "uint256",
          "name": "amount",
          "type": "uint256"
        }
      ],
      "name": "transfer",
      "outputs": [
        {
          "internalType": "bool",
          "name": "",
          "type": "bool"
        }
      ],
      "stateMutability": "nonpayable",
      "type": "function"
    },
    {
      "inputs": [
        {
          "internalType": "address",
          "name": "from",
          "type": "address"
        },
        {
          "internalType": "address",
          "name": "to",
          "type": "address"
        },
        {
          "internalType": "uint256",
          "name": "amount",
          "type": "uint256"
        }
      ],
      "name": "transferFrom",
      "outputs": [
        {
          "internalType": "bool",
          "name": "",
          "type": "bool"
        }
      ],
      "stateMutability": "nonpayable",
      "type": "function"
    },
    {
      "inputs": [],
      "name": "unpause",
      "outputs": [],
      "stateMutability": "nonpayable",
      "type": "function"
    }
  ],
  "bytecode": "0x60806040523480156200001157600080fd5b506040516200370238038062003702833981016040819052620000349162000e26565b6040805180820182526004815263524f564560e01b60208083019182528351808501909452600384526252564560e81b908401528151919291839183916200007f9160059162000d80565b5080516200009590600690602084019062000d80565b50506007805460ff1916905550620000af60003362000367565b620000ca600080516020620036e28339815191523362000367565b620000e5600080516020620036c28339815191523362000367565b505062000142604051806040016040528060118152602001702232b83637bc902937bb32903a37b5b2b760791b8152506040518060400160405280600381526020016252564560e81b8152506200037760201b620012671760201c565b620001a36040518060400160405280601581526020017f4d696e7420746f2061646d696e20616464726573730000000000000000000000815250600760019054906101000a90046001600160a01b0316620003c460201b620012ac1760201c565b6001600160a01b038116620001ff5760405162461bcd60e51b815260206004820152601560248201527f61646d696e206973207a65726f2061646472657373000000000000000000000060448201526064015b60405180910390fd5b60078054610100600160a81b0319166101006001600160a01b03848116820292909217928390556509184e72a000926200023e92919004168262000411565b6007546200025d9060009061010090046001600160a01b0316620005d0565b6007546200028a90600080516020620036e28339815191529061010090046001600160a01b0316620005d0565b600754620002b790600080516020620036c28339815191529061010090046001600160a01b0316620005d0565b620003036040518060400160405280601e81526020017f546f74616c20737570706c7920666f722061646d696e2061646472657373000081525082620005ff60201b620012f11760201c565b6007546001600160a01b036101009091041633146200035f5762000337600080516020620036e2833981519152336200064c565b62000352600080516020620036c2833981519152336200064c565b6200035f6000336200064c565b5050620010c8565b62000373828262000676565b5050565b6200037382826040516024016200039092919062000eb2565b60408051601f198184030181529190526020810180516001600160e01b03908116634b5c427760e01b17909152620006b416565b620003738282604051602401620003dd92919062000ee4565b60408051601f198184030181529190526020810180516001600160e01b0390811663319af33360e01b17909152620006b416565b60075460ff1615620004595760405162461bcd60e51b815260206004820152601060248201526f14185d5cd8589b194e881c185d5cd95960821b6044820152606401620001f6565b60075461010090046001600160a01b03163314620004ba5760405162461bcd60e51b815260206004820152601560248201527f43616c6c6572206973206e6f7420612061646d696e00000000000000000000006044820152606401620001f6565b620004c7600033620006d5565b620005155760405162461bcd60e51b815260206004820152601660248201527f43616c6c6572206973206e6f742061206d696e746572000000000000000000006044820152606401620001f6565b62000530600080516020620036e283398151915233620006d5565b6200057e5760405162461bcd60e51b815260206004820152601660248201527f43616c6c6572206973206e6f742061206d696e746572000000000000000000006044820152606401620001f6565b6200058a828262000700565b604080516001600160a01b0384168152602081018390527fdcdea898caf5576419f89caf69301592a4758349a0bd62300b58849213420a72910160405180910390a15050565b600082815260208190526040902060010154620005ee8133620007f3565b620005fa838362000676565b505050565b6200037382826040516024016200061892919062000f10565b60408051601f198184030181529190526020810180516001600160e01b039081166309710a9d60e41b17909152620006b416565b6000828152602081905260409020600101546200066a8133620007f3565b620005fa838362000876565b6200068d8282620008b460201b620013361760201c565b6000828152600160209081526040909120620005fa918390620013ba6200093c821b17901c565b80516a636f6e736f6c652e6c6f67602083016000808483855afa5050505050565b6000828152602081815260408083206001600160a01b038516845290915290205460ff165b92915050565b6001600160a01b038216620007585760405162461bcd60e51b815260206004820152601f60248201527f45524332303a206d696e7420746f20746865207a65726f2061646472657373006044820152606401620001f6565b62000766600083836200095a565b80600460008282546200077a919062000f4a565b90915550506001600160a01b03821660009081526002602052604081208054839290620007a990849062000f4a565b90915550506040518181526001600160a01b038316906000907fddf252ad1be2c89b69c2b068fc378daa952ba7f163c4a11628f55a4df523b3ef9060200160405180910390a35050565b620007ff8282620006d5565b620003735762000825816001600160a01b031660146200097260201b620013cf1760201c565b6200083b836020620013cf62000972821b17811c565b6040516020016200084e92919062000f65565b60408051601f198184030181529082905262461bcd60e51b8252620001f69160040162000fde565b6200088d828262000b2b60201b6200156b1760201c565b6000828152600160209081526040909120620005fa918390620015d062000b93821b17901c565b620008c08282620006d5565b62000373576000828152602081815260408083206001600160a01b03851684529091529020805460ff19166001179055620008f83390565b6001600160a01b0316816001600160a01b0316837f2f8788117e7eff1d82e926ec794901d17c78024a50270940304540a733656f0d60405160405180910390a45050565b600062000953836001600160a01b03841662000baa565b9392505050565b620005fa83838362000bfc60201b620015e51760201c565b606060006200098383600262000ff3565b6200099090600262000f4a565b6001600160401b03811115620009aa57620009aa62001015565b6040519080825280601f01601f191660200182016040528015620009d5576020820181803683370190505b509050600360fc1b81600081518110620009f357620009f36200102b565b60200101906001600160f81b031916908160001a905350600f60fb1b8160018151811062000a255762000a256200102b565b60200101906001600160f81b031916908160001a905350600062000a4b84600262000ff3565b62000a5890600162000f4a565b90505b600181111562000ada576f181899199a1a9b1b9c1cb0b131b232b360811b85600f166010811062000a905762000a906200102b565b1a60f81b82828151811062000aa95762000aa96200102b565b60200101906001600160f81b031916908160001a90535060049490941c9362000ad28162001041565b905062000a5b565b508315620009535760405162461bcd60e51b815260206004820181905260248201527f537472696e67733a20686578206c656e67746820696e73756666696369656e746044820152606401620001f6565b62000b378282620006d5565b1562000373576000828152602081815260408083206001600160a01b0385168085529252808320805460ff1916905551339285917ff6391f5c32d9c69d2a47ea670b442974b53935d1edc7fd64eb21e047a839171b9190a45050565b600062000953836001600160a01b03841662000c7c565b600081815260018301602052604081205462000bf357508154600181810184556000848152602080822090930184905584548482528286019093526040902091909155620006fa565b506000620006fa565b62000c14838383620005fa60201b62000b331760201c565b60075460ff1615620005fa5760405162461bcd60e51b815260206004820152602a60248201527f45524332305061757361626c653a20746f6b656e207472616e736665722077686044820152691a5b19481c185d5cd95960b21b6064820152608401620001f6565b6000818152600183016020526040812054801562000d7557600062000ca36001836200105b565b855490915060009062000cb9906001906200105b565b905081811462000d2557600086600001828154811062000cdd5762000cdd6200102b565b906000526020600020015490508087600001848154811062000d035762000d036200102b565b6000918252602080832090910192909255918252600188019052604090208390555b855486908062000d395762000d3962001075565b600190038181906000526020600020016000905590558560010160008681526020019081526020016000206000905560019350505050620006fa565b6000915050620006fa565b82805462000d8e906200108b565b90600052602060002090601f01602090048101928262000db2576000855562000dfd565b82601f1062000dcd57805160ff191683800117855562000dfd565b8280016001018555821562000dfd579182015b8281111562000dfd57825182559160200191906001019062000de0565b5062000e0b92915062000e0f565b5090565b5b8082111562000e0b576000815560010162000e10565b60006020828403121562000e3957600080fd5b81516001600160a01b03811681146200095357600080fd5b60005b8381101562000e6e57818101518382015260200162000e54565b8381111562000e7e576000848401525b50505050565b6000815180845262000e9e81602086016020860162000e51565b601f01601f19169290920160200192915050565b60408152600062000ec7604083018562000e84565b828103602084015262000edb818562000e84565b95945050505050565b60408152600062000ef9604083018562000e84565b905060018060a01b03831660208301529392505050565b60408152600062000f25604083018562000e84565b90508260208301529392505050565b634e487b7160e01b600052601160045260246000fd5b6000821982111562000f605762000f6062000f34565b500190565b7f416363657373436f6e74726f6c3a206163636f756e742000000000000000000081526000835162000f9f81601785016020880162000e51565b7001034b99036b4b9b9b4b733903937b6329607d1b601791840191820152835162000fd281602884016020880162000e51565b01602801949350505050565b60208152600062000953602083018462000e84565b600081600019048311821515161562001010576200101062000f34565b500290565b634e487b7160e01b600052604160045260246000fd5b634e487b7160e01b600052603260045260246000fd5b60008162001053576200105362000f34565b506000190190565b60008282101562001070576200107062000f34565b500390565b634e487b7160e01b600052603160045260246000fd5b600181811c90821680620010a057607f821691505b60208210811415620010c257634e487b7160e01b600052602260045260246000fd5b50919050565b6125ea80620010d86000396000f3fe608060405234801561001057600080fd5b50600436106101f05760003560e01c806379cc67901161010f578063a9059cbb116100a2578063d6070fc711610071578063d6070fc714610429578063dd62ed3e1461043c578063e63ab1e914610475578063f851a4401461048a57600080fd5b8063a9059cbb146103db578063ca15c873146103ee578063d539139314610401578063d547741f1461041657600080fd5b806391d14854116100de57806391d14854146103a557806395d89b41146103b8578063a217fddf146103c0578063a457c2d7146103c857600080fd5b806379cc67901461034c5780638456cb591461035f5780638f283970146103675780639010d07c1461037a57600080fd5b8063313ce5671161018757806340c10f191161015657806340c10f19146102f257806342966c68146103055780635c975abb1461031857806370a082311461032357600080fd5b8063313ce567146102b557806336568abe146102c457806339509351146102d75780633f4ba83a146102ea57600080fd5b80631ae104c5116101c35780631ae104c51461025757806323b872dd1461026a578063248a9ca31461027d5780632f2ff15d146102a057600080fd5b806301ffc9a7146101f557806306fdde031461021d578063095ea7b31461023257806318160ddd14610245575b600080fd5b610208610203366004612025565b6104a2565b60405190151581526020015b60405180910390f35b6102256104cd565b60405161021491906120a7565b6102086102403660046120d6565b61055f565b6004545b604051908152602001610214565b610249610265366004612116565b610577565b6102086102783660046121a9565b610ae9565b61024961028b3660046121e5565b60009081526020819052604090206001015490565b6102b36102ae3660046121fe565b610b0d565b005b60405160048152602001610214565b6102b36102d23660046121fe565b610b38565b6102086102e53660046120d6565b610bb6565b6102b3610bf5565b6102b36103003660046120d6565b610c89565b6102b36103133660046121e5565b610e24565b60075460ff16610208565b61024961033136600461222a565b6001600160a01b031660009081526002602052604090205490565b6102b361035a3660046120d6565b610e31565b6102b3610e46565b6102b361037536600461222a565b610ed8565b61038d610388366004612245565b611113565b6040516001600160a01b039091168152602001610214565b6102086103b33660046121fe565b611132565b61022561115b565b610249600081565b6102086103d63660046120d6565b61116a565b6102086103e93660046120d6565b6111fc565b6102496103fc3660046121e5565b61120a565b61024960008051602061259583398151915281565b6102b36104243660046121fe565b611221565b61038d6104373660046121e5565b611247565b61024961044a366004612267565b6001600160a01b03918216600090815260036020908152604080832093909416825291909152205490565b61024960008051602061257583398151915281565b60075461038d9061010090046001600160a01b031681565b60006001600160e01b03198216635a05180f60e01b14806104c757506104c78261164b565b92915050565b6060600580546104dc90612291565b80601f016020809104026020016040519081016040528092919081815260200182805461050890612291565b80156105555780601f1061052a57610100808354040283529160200191610555565b820191906000526020600020905b81548152906001019060200180831161053857829003601f168201915b5050505050905090565b60003361056d818585611680565b5060019392505050565b60075460009061010090046001600160a01b031633146105d45760405162461bcd60e51b815260206004820152601360248201527221b0b63632b91034b9903737ba1030b236b4b760691b60448201526064015b60405180910390fd5b6105df600033611132565b61062b5760405162461bcd60e51b815260206004820152601860248201527f43616c6c6572206973206e6f742061646d696e20726f6c65000000000000000060448201526064016105cb565b6106386008836004611fb8565b50600061064460045490565b90506106746040518060400160405280600c81526020016b746f74616c20737570706c7960a01b815250826112f1565b60006106816005836122e2565b905061068e816002612304565b90506106cf6040518060400160405280601b81526020017f746f74616c20737570706c7920666f722066697273745f796561720000000000815250826112f1565b6106db6004600a612407565b6106e9906317d78400612304565b811461075d5760405162461bcd60e51b815260206004820152603b60248201527f526f7665546f6b656e3a207363686564756c65206d696e74696e67206669727360448201527f745f796561722034303030303030303020697320696e76616c6964000000000060648201526084016105cb565b600061076a600a846122e2565b9050610777816003612304565b90506107b86040518060400160405280601c81526020017f746f74616c20737570706c7920666f72207365636f6e645f7965617200000000815250826112f1565b6107c46004600a612407565b6107d2906311e1a300612304565b81146108465760405162461bcd60e51b815260206004820152603c60248201527f526f7665546f6b656e3a207363686564756c65206d696e74696e67207365636f60448201527f6e645f796561722033303030303030303020697320696e76616c69640000000060648201526084016105cb565b60006108536005856122e2565b90506108946040518060400160405280601b81526020017f746f74616c20737570706c7920666f722074686972645f796561720000000000815250826112f1565b6108a06004600a612407565b6108ae90630bebc200612304565b81146109225760405162461bcd60e51b815260206004820152603b60248201527f526f7665546f6b656e3a207363686564756c65206d696e74696e67207468697260448201527f645f796561722032303030303030303020697320696e76616c6964000000000060648201526084016105cb565b600061092f600a866122e2565b90506109706040518060400160405280601c81526020017f746f74616c20737570706c7920666f7220666f757274685f7965617200000000815250826112f1565b61097c6004600a612407565b61098a906305f5e100612304565b81146109fe5760405162461bcd60e51b815260206004820152603c60248201527f526f7665546f6b656e3a207363686564756c65206d696e74696e6720666f757260448201527f74685f796561722031303030303030303020697320696e76616c69640000000060648201526084016105cb565b6000610a0a8486612413565b9050610a168382612413565b9050610a228282612413565b9050858114610a825760405162461bcd60e51b815260206004820152602660248201527f526f7665546f6b656e3a207363686564756c65206d696e74696e6720697320696044820152651b9d985b1a5960d21b60648201526084016105cb565b600854610a98906001600160a01b0316866111fc565b50600954610aaf906001600160a01b0316856111fc565b50600a54610ac6906001600160a01b0316846111fc565b50600b54610add906001600160a01b0316836111fc565b50979650505050505050565b600033610af78582856117a4565b610b02858585611836565b506001949350505050565b600082815260208190526040902060010154610b298133611a0f565b610b338383611a73565b505050565b6001600160a01b0381163314610ba85760405162461bcd60e51b815260206004820152602f60248201527f416363657373436f6e74726f6c3a2063616e206f6e6c792072656e6f756e636560448201526e103937b632b9903337b91039b2b63360891b60648201526084016105cb565b610bb28282611a95565b5050565b3360008181526003602090815260408083206001600160a01b038716845290915281205490919061056d9082908690610bf0908790612413565b611680565b610c0d60008051602061257583398151915233611132565b610c7f5760405162461bcd60e51b815260206004820152603960248201527f45524332305072657365744d696e7465725061757365723a206d75737420686160448201527f76652070617573657220726f6c6520746f20756e70617573650000000000000060648201526084016105cb565b610c87611ab7565b565b60075460ff1615610ccf5760405162461bcd60e51b815260206004820152601060248201526f14185d5cd8589b194e881c185d5cd95960821b60448201526064016105cb565b60075461010090046001600160a01b03163314610d265760405162461bcd60e51b815260206004820152601560248201527421b0b63632b91034b9903737ba10309030b236b4b760591b60448201526064016105cb565b610d31600033611132565b610d765760405162461bcd60e51b815260206004820152601660248201527521b0b63632b91034b9903737ba10309036b4b73a32b960511b60448201526064016105cb565b610d8e60008051602061259583398151915233611132565b610dd35760405162461bcd60e51b815260206004820152601660248201527521b0b63632b91034b9903737ba10309036b4b73a32b960511b60448201526064016105cb565b610ddd8282611b4a565b604080516001600160a01b0384168152602081018390527fdcdea898caf5576419f89caf69301592a4758349a0bd62300b58849213420a7291015b60405180910390a15050565b610e2e3382611c35565b50565b610e3c8233836117a4565b610bb28282611c35565b610e5e60008051602061257583398151915233611132565b610ed05760405162461bcd60e51b815260206004820152603760248201527f45524332305072657365744d696e7465725061757365723a206d75737420686160448201527f76652070617573657220726f6c6520746f20706175736500000000000000000060648201526084016105cb565b610c87611d8f565b60075461010090046001600160a01b03163314610f515760405162461bcd60e51b815260206004820152603160248201527f6f6e6c7920746865206f70657261746f722063616e206368616e6765207468656044820152701031bab93932b73a1037b832b930ba37b960791b60648201526084016105cb565b610f5c600033611132565b610fa85760405162461bcd60e51b815260206004820152601860248201527f43616c6c6572206973206e6f742061206f70657261746f72000000000000000060448201526064016105cb565b6001600160a01b038116610ffe5760405162461bcd60e51b815260206004820152601960248201527f4e65772061646d696e206973207a65726f20616464726573730000000000000060448201526064016105cb565b600780546001600160a01b03838116610100908102610100600160a81b0319841617938490559182900481169261103a92600092910416610b0d565b600754611064906000805160206125958339815191529061010090046001600160a01b0316610b0d565b60075461108e906000805160206125758339815191529061010090046001600160a01b0316610b0d565b6110a660008051602061259583398151915282611221565b6110be60008051602061257583398151915282611221565b6110c9600082611221565b600754604080516001600160a01b03808516825261010090930490921660208301527f7e644d79422f17c01e4894b5f4f588d331ebfa28653d42ae832dc59e38c9798f9101610e18565b600082815260016020526040812061112b9083611e0a565b9392505050565b6000918252602082815260408084206001600160a01b0393909316845291905290205460ff1690565b6060600680546104dc90612291565b3360008181526003602090815260408083206001600160a01b0387168452909152812054909190838110156111ef5760405162461bcd60e51b815260206004820152602560248201527f45524332303a2064656372656173656420616c6c6f77616e63652062656c6f77604482015264207a65726f60d81b60648201526084016105cb565b610b028286868403611680565b60003361056d818585611836565b60008181526001602052604081206104c790611e16565b60008281526020819052604090206001015461123d8133611a0f565b610b338383611a95565b6008816004811061125757600080fd5b01546001600160a01b0316905081565b610bb2828260405160240161127d929190612441565b60408051601f198184030181529190526020810180516001600160e01b0316634b5c427760e01b179052611e20565b610bb282826040516024016112c292919061246f565b60408051601f198184030181529190526020810180516001600160e01b031663319af33360e01b179052611e20565b610bb28282604051602401611307929190612499565b60408051601f198184030181529190526020810180516001600160e01b03166309710a9d60e41b179052611e20565b6113408282611132565b610bb2576000828152602081815260408083206001600160a01b03851684529091529020805460ff191660011790556113763390565b6001600160a01b0316816001600160a01b0316837f2f8788117e7eff1d82e926ec794901d17c78024a50270940304540a733656f0d60405160405180910390a45050565b600061112b836001600160a01b038416611e41565b606060006113de836002612304565b6113e9906002612413565b67ffffffffffffffff81111561140157611401612100565b6040519080825280601f01601f19166020018201604052801561142b576020820181803683370190505b509050600360fc1b816000815181106114465761144661242b565b60200101906001600160f81b031916908160001a905350600f60fb1b816001815181106114755761147561242b565b60200101906001600160f81b031916908160001a9053506000611499846002612304565b6114a4906001612413565b90505b600181111561151c576f181899199a1a9b1b9c1cb0b131b232b360811b85600f16601081106114d8576114d861242b565b1a60f81b8282815181106114ee576114ee61242b565b60200101906001600160f81b031916908160001a90535060049490941c93611515816124bb565b90506114a7565b50831561112b5760405162461bcd60e51b815260206004820181905260248201527f537472696e67733a20686578206c656e67746820696e73756666696369656e7460448201526064016105cb565b6115758282611132565b15610bb2576000828152602081815260408083206001600160a01b0385168085529252808320805460ff1916905551339285917ff6391f5c32d9c69d2a47ea670b442974b53935d1edc7fd64eb21e047a839171b9190a45050565b600061112b836001600160a01b038416611e90565b60075460ff1615610b335760405162461bcd60e51b815260206004820152602a60248201527f45524332305061757361626c653a20746f6b656e207472616e736665722077686044820152691a5b19481c185d5cd95960b21b60648201526084016105cb565b60006001600160e01b03198216637965db0b60e01b14806104c757506301ffc9a760e01b6001600160e01b03198316146104c7565b6001600160a01b0383166116e25760405162461bcd60e51b8152602060048201526024808201527f45524332303a20617070726f76652066726f6d20746865207a65726f206164646044820152637265737360e01b60648201526084016105cb565b6001600160a01b0382166117435760405162461bcd60e51b815260206004820152602260248201527f45524332303a20617070726f766520746f20746865207a65726f206164647265604482015261737360f01b60648201526084016105cb565b6001600160a01b0383811660008181526003602090815260408083209487168084529482529182902085905590518481527f8c5be1e5ebec7d5bd14f71427d1e84f3dd0314c0f7b2291e5b200ac8c7c3b925910160405180910390a3505050565b6001600160a01b03838116600090815260036020908152604080832093861683529290522054600019811461183057818110156118235760405162461bcd60e51b815260206004820152601d60248201527f45524332303a20696e73756666696369656e7420616c6c6f77616e636500000060448201526064016105cb565b6118308484848403611680565b50505050565b6001600160a01b03831661189a5760405162461bcd60e51b815260206004820152602560248201527f45524332303a207472616e736665722066726f6d20746865207a65726f206164604482015264647265737360d81b60648201526084016105cb565b6001600160a01b0382166118fc5760405162461bcd60e51b815260206004820152602360248201527f45524332303a207472616e7366657220746f20746865207a65726f206164647260448201526265737360e81b60648201526084016105cb565b611907838383611f83565b6001600160a01b0383166000908152600260205260409020548181101561197f5760405162461bcd60e51b815260206004820152602660248201527f45524332303a207472616e7366657220616d6f756e7420657863656564732062604482015265616c616e636560d01b60648201526084016105cb565b6001600160a01b038085166000908152600260205260408082208585039055918516815290812080548492906119b6908490612413565b92505081905550826001600160a01b0316846001600160a01b03167fddf252ad1be2c89b69c2b068fc378daa952ba7f163c4a11628f55a4df523b3ef84604051611a0291815260200190565b60405180910390a3611830565b611a198282611132565b610bb257611a31816001600160a01b031660146113cf565b611a3c8360206113cf565b604051602001611a4d9291906124d2565b60408051601f198184030181529082905262461bcd60e51b82526105cb916004016120a7565b611a7d8282611336565b6000828152600160205260409020610b3390826113ba565b611a9f828261156b565b6000828152600160205260409020610b3390826115d0565b60075460ff16611b005760405162461bcd60e51b815260206004820152601460248201527314185d5cd8589b194e881b9bdd081c185d5cd95960621b60448201526064016105cb565b6007805460ff191690557f5db9ee0a495bf2e6ff9c91a7834c1ba4fdd244a5e8aa4e537bd38aeae4b073aa335b6040516001600160a01b03909116815260200160405180910390a1565b6001600160a01b038216611ba05760405162461bcd60e51b815260206004820152601f60248201527f45524332303a206d696e7420746f20746865207a65726f20616464726573730060448201526064016105cb565b611bac60008383611f83565b8060046000828254611bbe9190612413565b90915550506001600160a01b03821660009081526002602052604081208054839290611beb908490612413565b90915550506040518181526001600160a01b038316906000907fddf252ad1be2c89b69c2b068fc378daa952ba7f163c4a11628f55a4df523b3ef9060200160405180910390a35050565b6001600160a01b038216611c955760405162461bcd60e51b815260206004820152602160248201527f45524332303a206275726e2066726f6d20746865207a65726f206164647265736044820152607360f81b60648201526084016105cb565b611ca182600083611f83565b6001600160a01b03821660009081526002602052604090205481811015611d155760405162461bcd60e51b815260206004820152602260248201527f45524332303a206275726e20616d6f756e7420657863656564732062616c616e604482015261636560f01b60648201526084016105cb565b6001600160a01b0383166000908152600260205260408120838303905560048054849290611d44908490612547565b90915550506040518281526000906001600160a01b038516907fddf252ad1be2c89b69c2b068fc378daa952ba7f163c4a11628f55a4df523b3ef9060200160405180910390a3505050565b60075460ff1615611dd55760405162461bcd60e51b815260206004820152601060248201526f14185d5cd8589b194e881c185d5cd95960821b60448201526064016105cb565b6007805460ff191660011790557f62e78cea01bee320cd4e420270b5ea74000d11b0c9f74754ebdbfc544b05a258611b2d3390565b600061112b8383611f8e565b60006104c7825490565b80516a636f6e736f6c652e6c6f67602083016000808483855afa5050505050565b6000818152600183016020526040812054611e88575081546001818101845560008481526020808220909301849055845484825282860190935260409020919091556104c7565b5060006104c7565b60008181526001830160205260408120548015611f79576000611eb4600183612547565b8554909150600090611ec890600190612547565b9050818114611f2d576000866000018281548110611ee857611ee861242b565b9060005260206000200154905080876000018481548110611f0b57611f0b61242b565b6000918252602080832090910192909255918252600188019052604090208390555b8554869080611f3e57611f3e61255e565b6001900381819060005260206000200160009055905585600101600086815260200190815260200160002060009055600193505050506104c7565b60009150506104c7565b610b338383836115e5565b6000826000018281548110611fa557611fa561242b565b9060005260206000200154905092915050565b8260048101928215612000579160200282015b8281111561200057825182546001600160a01b0319166001600160a01b03909116178255602090920191600190910190611fcb565b5061200c929150612010565b5090565b5b8082111561200c5760008155600101612011565b60006020828403121561203757600080fd5b81356001600160e01b03198116811461112b57600080fd5b60005b8381101561206a578181015183820152602001612052565b838111156118305750506000910152565b6000815180845261209381602086016020860161204f565b601f01601f19169290920160200192915050565b60208152600061112b602083018461207b565b80356001600160a01b03811681146120d157600080fd5b919050565b600080604083850312156120e957600080fd5b6120f2836120ba565b946020939093013593505050565b634e487b7160e01b600052604160045260246000fd5b60006080828403121561212857600080fd5b82601f83011261213757600080fd5b6040516080810181811067ffffffffffffffff8211171561216857634e487b7160e01b600052604160045260246000fd5b60405280608084018581111561217d57600080fd5b845b8181101561219e57612190816120ba565b83526020928301920161217f565b509195945050505050565b6000806000606084860312156121be57600080fd5b6121c7846120ba565b92506121d5602085016120ba565b9150604084013590509250925092565b6000602082840312156121f757600080fd5b5035919050565b6000806040838503121561221157600080fd5b82359150612221602084016120ba565b90509250929050565b60006020828403121561223c57600080fd5b61112b826120ba565b6000806040838503121561225857600080fd5b50508035926020909101359150565b6000806040838503121561227a57600080fd5b612283836120ba565b9150612221602084016120ba565b600181811c908216806122a557607f821691505b602082108114156122c657634e487b7160e01b600052602260045260246000fd5b50919050565b634e487b7160e01b600052601160045260246000fd5b6000826122ff57634e487b7160e01b600052601260045260246000fd5b500490565b600081600019048311821515161561231e5761231e6122cc565b500290565b600181815b8085111561235e578160001904821115612344576123446122cc565b8085161561235157918102915b93841c9390800290612328565b509250929050565b600082612375575060016104c7565b81612382575060006104c7565b816001811461239857600281146123a2576123be565b60019150506104c7565b60ff8411156123b3576123b36122cc565b50506001821b6104c7565b5060208310610133831016604e8410600b84101617156123e1575081810a6104c7565b6123eb8383612323565b80600019048211156123ff576123ff6122cc565b029392505050565b600061112b8383612366565b60008219821115612426576124266122cc565b500190565b634e487b7160e01b600052603260045260246000fd5b604081526000612454604083018561207b565b8281036020840152612466818561207b565b95945050505050565b604081526000612482604083018561207b565b905060018060a01b03831660208301529392505050565b6040815260006124ac604083018561207b565b90508260208301529392505050565b6000816124ca576124ca6122cc565b506000190190565b7f416363657373436f6e74726f6c3a206163636f756e742000000000000000000081526000835161250a81601785016020880161204f565b7001034b99036b4b9b9b4b733903937b6329607d1b601791840191820152835161253b81602884016020880161204f565b01602801949350505050565b600082821015612559576125596122cc565b500390565b634e487b7160e01b600052603160045260246000fdfe65d7a28e3265b37a6474929f336521b332c1681b933f6cb9f3376673440d862a9f2df0fed2c77648de5860a4cc508cd0818c85b8b8a1ab4ceeef8d981c8956a6a26469706673582212201a2e7044990f8d9c8aa62f1f8cca4dab9d113a10da0e317dd1a027d10e3ad8c064736f6c634300080c003365d7a28e3265b37a6474929f336521b332c1681b933f6cb9f3376673440d862a9f2df0fed2c77648de5860a4cc508cd0818c85b8b8a1ab4ceeef8d981c8956a6",
  "linkReferences": {},
  "deployedLinkReferences": {}
}