{
  "_format": "hh-sol-artifact-1",
  "contractName": "ERC721Tradable",
  "sourceName": "contracts/utils/ERC721Tradable.sol",
  "abi": [
    {
      "inputs": [
        {
          "internalType": "string",
          "name": "_name",
          "type": "string"
        },
        {
          "internalType": "string",
          "name": "_symbol",
          "type": "string"
        },
        {
          "internalType": "string",
          "name": "_uri",
          "type": "string"
        },
        {
          "internalType": "address",
          "name": "_admin",
          "type": "address"
        },
        {
          "internalType": "address",
          "name": "_operator",
          "type": "address"
        }
      ],
      "stateMutability": "nonpayable",
      "type": "constructor"
    },
    {
      "anonymous": false,
      "inputs": [
        {
          "indexed": false,
          "internalType": "address",
          "name": "previous",
          "type": "address"
        },
        {
          "indexed": false,
          "internalType": "address",
          "name": "new_",
          "type": "address"
        }
      ],
      "name": "AdminChanged",
      "type": "event"
    },
    {
      "anonymous": false,
      "inputs": [
        {
          "indexed": true,
          "internalType": "address",
          "name": "owner",
          "type": "address"
        },
        {
          "indexed": true,
          "internalType": "address",
          "name": "approved",
          "type": "address"
        },
        {
          "indexed": true,
          "internalType": "uint256",
          "name": "tokenId",
          "type": "uint256"
        }
      ],
      "name": "Approval",
      "type": "event"
    },
    {
      "anonymous": false,
      "inputs": [
        {
          "indexed": true,
          "internalType": "address",
          "name": "owner",
          "type": "address"
        },
        {
          "indexed": true,
          "internalType": "address",
          "name": "operator",
          "type": "address"
        },
        {
          "indexed": false,
          "internalType": "bool",
          "name": "approved",
          "type": "bool"
        }
      ],
      "name": "ApprovalForAll",
      "type": "event"
    },
    {
      "anonymous": false,
      "inputs": [
        {
          "indexed": false,
          "internalType": "address",
          "name": "userAddress",
          "type": "address"
        },
        {
          "indexed": false,
          "internalType": "address payable",
          "name": "relayerAddress",
          "type": "address"
        },
        {
          "indexed": false,
          "internalType": "bytes",
          "name": "functionSignature",
          "type": "bytes"
        }
      ],
      "name": "MetaTransactionExecuted",
      "type": "event"
    },
    {
      "anonymous": false,
      "inputs": [
        {
          "indexed": false,
          "internalType": "address",
          "name": "previous",
          "type": "address"
        },
        {
          "indexed": false,
          "internalType": "address",
          "name": "new_",
          "type": "address"
        }
      ],
      "name": "OperatorChanged",
      "type": "event"
    },
    {
      "anonymous": false,
      "inputs": [
        {
          "indexed": false,
          "internalType": "address",
          "name": "account",
          "type": "address"
        }
      ],
      "name": "Paused",
      "type": "event"
    },
    {
      "anonymous": false,
      "inputs": [
        {
          "indexed": false,
          "internalType": "address",
          "name": "previous",
          "type": "address"
        },
        {
          "indexed": false,
          "internalType": "address",
          "name": "new_",
          "type": "address"
        }
      ],
      "name": "ProxyRegistryAddressChanged",
      "type": "event"
    },
    {
      "anonymous": false,
      "inputs": [
        {
          "indexed": true,
          "internalType": "bytes32",
          "name": "role",
          "type": "bytes32"
        },
        {
          "indexed": true,
          "internalType": "bytes32",
          "name": "previousAdminRole",
          "type": "bytes32"
        },
        {
          "indexed": true,
          "internalType": "bytes32",
          "name": "newAdminRole",
          "type": "bytes32"
        }
      ],
      "name": "RoleAdminChanged",
      "type": "event"
    },
    {
      "anonymous": false,
      "inputs": [
        {
          "indexed": true,
          "internalType": "bytes32",
          "name": "role",
          "type": "bytes32"
        },
        {
          "indexed": true,
          "internalType": "address",
          "name": "account",
          "type": "address"
        },
        {
          "indexed": true,
          "internalType": "address",
          "name": "sender",
          "type": "address"
        }
      ],
      "name": "RoleGranted",
      "type": "event"
    },
    {
      "anonymous": false,
      "inputs": [
        {
          "indexed": true,
          "internalType": "bytes32",
          "name": "role",
          "type": "bytes32"
        },
        {
          "indexed": true,
          "internalType": "address",
          "name": "account",
          "type": "address"
        },
        {
          "indexed": true,
          "internalType": "address",
          "name": "sender",
          "type": "address"
        }
      ],
      "name": "RoleRevoked",
      "type": "event"
    },
    {
      "anonymous": false,
      "inputs": [
        {
          "indexed": true,
          "internalType": "address",
          "name": "from",
          "type": "address"
        },
        {
          "indexed": true,
          "internalType": "address",
          "name": "to",
          "type": "address"
        },
        {
          "indexed": true,
          "internalType": "uint256",
          "name": "tokenId",
          "type": "uint256"
        }
      ],
      "name": "Transfer",
      "type": "event"
    },
    {
      "anonymous": false,
      "inputs": [
        {
          "indexed": false,
          "internalType": "address",
          "name": "account",
          "type": "address"
        }
      ],
      "name": "Unpaused",
      "type": "event"
    },
    {
      "inputs": [],
      "name": "CREATOR_ROLE",
      "outputs": [
        {
          "internalType": "bytes32",
          "name": "",
          "type": "bytes32"
        }
      ],
      "stateMutability": "view",
      "type": "function"
    },
    {
      "inputs": [],
      "name": "DEFAULT_ADMIN_ROLE",
      "outputs": [
        {
          "internalType": "bytes32",
          "name": "",
          "type": "bytes32"
        }
      ],
      "stateMutability": "view",
      "type": "function"
    },
    {
      "inputs": [],
      "name": "ERC712_VERSION",
      "outputs": [
        {
          "internalType": "string",
          "name": "",
          "type": "string"
        }
      ],
      "stateMutability": "view",
      "type": "function"
    },
    {
      "inputs": [],
      "name": "MINTER_ROLE",
      "outputs": [
        {
          "internalType": "bytes32",
          "name": "",
          "type": "bytes32"
        }
      ],
      "stateMutability": "view",
      "type": "function"
    },
    {
      "inputs": [],
      "name": "OPERATOR_ROLE",
      "outputs": [
        {
          "internalType": "bytes32",
          "name": "",
          "type": "bytes32"
        }
      ],
      "stateMutability": "view",
      "type": "function"
    },
    {
      "inputs": [],
      "name": "PAUSER_ROLE",
      "outputs": [
        {
          "internalType": "bytes32",
          "name": "",
          "type": "bytes32"
        }
      ],
      "stateMutability": "view",
      "type": "function"
    },
    {
      "inputs": [],
      "name": "admin",
      "outputs": [
        {
          "internalType": "address",
          "name": "",
          "type": "address"
        }
      ],
      "stateMutability": "view",
      "type": "function"
    },
    {
      "inputs": [
        {
          "internalType": "address",
          "name": "to",
          "type": "address"
        },
        {
          "internalType": "uint256",
          "name": "tokenId",
          "type": "uint256"
        }
      ],
      "name": "approve",
      "outputs": [],
      "stateMutability": "nonpayable",
      "type": "function"
    },
    {
      "inputs": [
        {
          "internalType": "address",
          "name": "owner",
          "type": "address"
        }
      ],
      "name": "balanceOf",
      "outputs": [
        {
          "internalType": "uint256",
          "name": "",
          "type": "uint256"
        }
      ],
      "stateMutability": "view",
      "type": "function"
    },
    {
      "inputs": [],
      "name": "baseTokenURI",
      "outputs": [
        {
          "internalType": "string",
          "name": "",
          "type": "string"
        }
      ],
      "stateMutability": "view",
      "type": "function"
    },
    {
      "inputs": [
        {
          "internalType": "uint256",
          "name": "tokenId",
          "type": "uint256"
        }
      ],
      "name": "burn",
      "outputs": [],
      "stateMutability": "nonpayable",
      "type": "function"
    },
    {
      "inputs": [
        {
          "internalType": "address",
          "name": "_newAdmin",
          "type": "address"
        }
      ],
      "name": "changeAdmin",
      "outputs": [],
      "stateMutability": "nonpayable",
      "type": "function"
    },
    {
      "inputs": [
        {
          "internalType": "address",
          "name": "_newOperator",
          "type": "address"
        }
      ],
      "name": "changeOperator",
      "outputs": [],
      "stateMutability": "nonpayable",
      "type": "function"
    },
    {
      "inputs": [
        {
          "internalType": "uint256",
          "name": "",
          "type": "uint256"
        }
      ],
      "name": "creators",
      "outputs": [
        {
          "internalType": "address",
          "name": "",
          "type": "address"
        }
      ],
      "stateMutability": "view",
      "type": "function"
    },
    {
      "inputs": [
        {
          "internalType": "address",
          "name": "userAddress",
          "type": "address"
        },
        {
          "internalType": "bytes",
          "name": "functionSignature",
          "type": "bytes"
        },
        {
          "internalType": "bytes32",
          "name": "sigR",
          "type": "bytes32"
        },
        {
          "internalType": "bytes32",
          "name": "sigS",
          "type": "bytes32"
        },
        {
          "internalType": "uint8",
          "name": "sigV",
          "type": "uint8"
        }
      ],
      "name": "executeMetaTransaction",
      "outputs": [
        {
          "internalType": "bytes",
          "name": "",
          "type": "bytes"
        }
      ],
      "stateMutability": "nonpayable",
      "type": "function"
    },
    {
      "inputs": [
        {
          "internalType": "uint256",
          "name": "tokenId",
          "type": "uint256"
        }
      ],
      "name": "getApproved",
      "outputs": [
        {
          "internalType": "address",
          "name": "",
          "type": "address"
        }
      ],
      "stateMutability": "view",
      "type": "function"
    },
    {
      "inputs": [],
      "name": "getChainId",
      "outputs": [
        {
          "internalType": "uint256",
          "name": "",
          "type": "uint256"
        }
      ],
      "stateMutability": "view",
      "type": "function"
    },
    {
      "inputs": [
        {
          "internalType": "uint256",
          "name": "id",
          "type": "uint256"
        }
      ],
      "name": "getCreator",
      "outputs": [
        {
          "internalType": "address",
          "name": "sender",
          "type": "address"
        }
      ],
      "stateMutability": "view",
      "type": "function"
    },
    {
      "inputs": [],
      "name": "getDomainSeperator",
      "outputs": [
        {
          "internalType": "bytes32",
          "name": "",
          "type": "bytes32"
        }
      ],
      "stateMutability": "view",
      "type": "function"
    },
    {
      "inputs": [
        {
          "internalType": "address",
          "name": "user",
          "type": "address"
        }
      ],
      "name": "getNonce",
      "outputs": [
        {
          "internalType": "uint256",
          "name": "nonce",
          "type": "uint256"
        }
      ],
      "stateMutability": "view",
      "type": "function"
    },
    {
      "inputs": [
        {
          "internalType": "bytes32",
          "name": "role",
          "type": "bytes32"
        }
      ],
      "name": "getRoleAdmin",
      "outputs": [
        {
          "internalType": "bytes32",
          "name": "",
          "type": "bytes32"
        }
      ],
      "stateMutability": "view",
      "type": "function"
    },
    {
      "inputs": [
        {
          "internalType": "bytes32",
          "name": "role",
          "type": "bytes32"
        },
        {
          "internalType": "uint256",
          "name": "index",
          "type": "uint256"
        }
      ],
      "name": "getRoleMember",
      "outputs": [
        {
          "internalType": "address",
          "name": "",
          "type": "address"
        }
      ],
      "stateMutability": "view",
      "type": "function"
    },
    {
      "inputs": [
        {
          "internalType": "bytes32",
          "name": "role",
          "type": "bytes32"
        }
      ],
      "name": "getRoleMemberCount",
      "outputs": [
        {
          "internalType": "uint256",
          "name": "",
          "type": "uint256"
        }
      ],
      "stateMutability": "view",
      "type": "function"
    },
    {
      "inputs": [
        {
          "internalType": "bytes32",
          "name": "role",
          "type": "bytes32"
        },
        {
          "internalType": "address",
          "name": "account",
          "type": "address"
        }
      ],
      "name": "grantRole",
      "outputs": [],
      "stateMutability": "nonpayable",
      "type": "function"
    },
    {
      "inputs": [
        {
          "internalType": "bytes32",
          "name": "role",
          "type": "bytes32"
        },
        {
          "internalType": "address",
          "name": "account",
          "type": "address"
        }
      ],
      "name": "hasRole",
      "outputs": [
        {
          "internalType": "bool",
          "name": "",
          "type": "bool"
        }
      ],
      "stateMutability": "view",
      "type": "function"
    },
    {
      "inputs": [
        {
          "internalType": "address",
          "name": "_owner",
          "type": "address"
        },
        {
          "internalType": "address",
          "name": "_operator",
          "type": "address"
        }
      ],
      "name": "isApprovedForAll",
      "outputs": [
        {
          "internalType": "bool",
          "name": "",
          "type": "bool"
        }
      ],
      "stateMutability": "view",
      "type": "function"
    },
    {
      "inputs": [
        {
          "internalType": "address",
          "name": "to",
          "type": "address"
        }
      ],
      "name": "mint",
      "outputs": [],
      "stateMutability": "nonpayable",
      "type": "function"
    },
    {
      "inputs": [
        {
          "internalType": "address",
          "name": "_to",
          "type": "address"
        },
        {
          "internalType": "string",
          "name": "_uri",
          "type": "string"
        }
      ],
      "name": "mintTo",
      "outputs": [],
      "stateMutability": "nonpayable",
      "type": "function"
    },
    {
      "inputs": [],
      "name": "name",
      "outputs": [
        {
          "internalType": "string",
          "name": "",
          "type": "string"
        }
      ],
      "stateMutability": "view",
      "type": "function"
    },
    {
      "inputs": [],
      "name": "nextTokenId",
      "outputs": [
        {
          "internalType": "uint256",
          "name": "",
          "type": "uint256"
        }
      ],
      "stateMutability": "view",
      "type": "function"
    },
    {
      "inputs": [],
      "name": "operator",
      "outputs": [
        {
          "internalType": "address",
          "name": "",
          "type": "address"
        }
      ],
      "stateMutability": "view",
      "type": "function"
    },
    {
      "inputs": [
        {
          "internalType": "uint256",
          "name": "tokenId",
          "type": "uint256"
        }
      ],
      "name": "ownerOf",
      "outputs": [
        {
          "internalType": "address",
          "name": "",
          "type": "address"
        }
      ],
      "stateMutability": "view",
      "type": "function"
    },
    {
      "inputs": [],
      "name": "pause",
      "outputs": [],
      "stateMutability": "nonpayable",
      "type": "function"
    },
    {
      "inputs": [],
      "name": "paused",
      "outputs": [
        {
          "internalType": "bool",
          "name": "",
          "type": "bool"
        }
      ],
      "stateMutability": "view",
      "type": "function"
    },
    {
      "inputs": [
        {
          "internalType": "bytes32",
          "name": "role",
          "type": "bytes32"
        },
        {
          "internalType": "address",
          "name": "account",
          "type": "address"
        }
      ],
      "name": "renounceRole",
      "outputs": [],
      "stateMutability": "nonpayable",
      "type": "function"
    },
    {
      "inputs": [
        {
          "internalType": "bytes32",
          "name": "role",
          "type": "bytes32"
        },
        {
          "internalType": "address",
          "name": "account",
          "type": "address"
        }
      ],
      "name": "revokeRole",
      "outputs": [],
      "stateMutability": "nonpayable",
      "type": "function"
    },
    {
      "inputs": [
        {
          "internalType": "uint256",
          "name": "",
          "type": "uint256"
        }
      ],
      "name": "royalties",
      "outputs": [
        {
          "internalType": "address",
          "name": "recipient",
          "type": "address"
        },
        {
          "internalType": "uint24",
          "name": "amount",
          "type": "uint24"
        },
        {
          "internalType": "bool",
          "name": "isValue",
          "type": "bool"
        }
      ],
      "stateMutability": "view",
      "type": "function"
    },
    {
      "inputs": [
        {
          "internalType": "uint256",
          "name": "_tokenId",
          "type": "uint256"
        },
        {
          "internalType": "uint256",
          "name": "_salePrice",
          "type": "uint256"
        }
      ],
      "name": "royaltyInfo",
      "outputs": [
        {
          "internalType": "address",
          "name": "receiver",
          "type": "address"
        },
        {
          "internalType": "uint256",
          "name": "royaltyAmount",
          "type": "uint256"
        }
      ],
      "stateMutability": "view",
      "type": "function"
    },
    {
      "inputs": [
        {
          "internalType": "address",
          "name": "from",
          "type": "address"
        },
        {
          "internalType": "address",
          "name": "to",
          "type": "address"
        },
        {
          "internalType": "uint256",
          "name": "tokenId",
          "type": "uint256"
        }
      ],
      "name": "safeTransferFrom",
      "outputs": [],
      "stateMutability": "nonpayable",
      "type": "function"
    },
    {
      "inputs": [
        {
          "internalType": "address",
          "name": "from",
          "type": "address"
        },
        {
          "internalType": "address",
          "name": "to",
          "type": "address"
        },
        {
          "internalType": "uint256",
          "name": "tokenId",
          "type": "uint256"
        },
        {
          "internalType": "bytes",
          "name": "_data",
          "type": "bytes"
        }
      ],
      "name": "safeTransferFrom",
      "outputs": [],
      "stateMutability": "nonpayable",
      "type": "function"
    },
    {
      "inputs": [
        {
          "internalType": "address",
          "name": "operator",
          "type": "address"
        },
        {
          "internalType": "bool",
          "name": "approved",
          "type": "bool"
        }
      ],
      "name": "setApprovalForAll",
      "outputs": [],
      "stateMutability": "nonpayable",
      "type": "function"
    },
    {
      "inputs": [
        {
          "internalType": "address",
          "name": "_to",
          "type": "address"
        },
        {
          "internalType": "uint256[]",
          "name": "_ids",
          "type": "uint256[]"
        }
      ],
      "name": "setCreator",
      "outputs": [],
      "stateMutability": "nonpayable",
      "type": "function"
    },
    {
      "inputs": [
        {
          "internalType": "uint256",
          "name": "_tokenId",
          "type": "uint256"
        },
        {
          "internalType": "string",
          "name": "_newURI",
          "type": "string"
        }
      ],
      "name": "setCustomURI",
      "outputs": [],
      "stateMutability": "nonpayable",
      "type": "function"
    },
    {
      "inputs": [
        {
          "internalType": "address",
          "name": "_proxyRegistryAddress",
          "type": "address"
        }
      ],
      "name": "setProxyRegistryAddress",
      "outputs": [],
      "stateMutability": "nonpayable",
      "type": "function"
    },
    {
      "inputs": [
        {
          "internalType": "uint256",
          "name": "_tokenId",
          "type": "uint256"
        },
        {
          "internalType": "address",
          "name": "_recipient",
          "type": "address"
        },
        {
          "internalType": "uint256",
          "name": "_value",
          "type": "uint256"
        }
      ],
      "name": "setTokenRoyalty",
      "outputs": [],
      "stateMutability": "nonpayable",
      "type": "function"
    },
    {
      "inputs": [
        {
          "internalType": "bytes4",
          "name": "interfaceId",
          "type": "bytes4"
        }
      ],
      "name": "supportsInterface",
      "outputs": [
        {
          "internalType": "bool",
          "name": "",
          "type": "bool"
        }
      ],
      "stateMutability": "view",
      "type": "function"
    },
    {
      "inputs": [],
      "name": "symbol",
      "outputs": [
        {
          "internalType": "string",
          "name": "",
          "type": "string"
        }
      ],
      "stateMutability": "view",
      "type": "function"
    },
    {
      "inputs": [
        {
          "internalType": "uint256",
          "name": "index",
          "type": "uint256"
        }
      ],
      "name": "tokenByIndex",
      "outputs": [
        {
          "internalType": "uint256",
          "name": "",
          "type": "uint256"
        }
      ],
      "stateMutability": "view",
      "type": "function"
    },
    {
      "inputs": [
        {
          "internalType": "address",
          "name": "owner",
          "type": "address"
        },
        {
          "internalType": "uint256",
          "name": "index",
          "type": "uint256"
        }
      ],
      "name": "tokenOfOwnerByIndex",
      "outputs": [
        {
          "internalType": "uint256",
          "name": "",
          "type": "uint256"
        }
      ],
      "stateMutability": "view",
      "type": "function"
    },
    {
      "inputs": [
        {
          "internalType": "uint256",
          "name": "_tokenId",
          "type": "uint256"
        }
      ],
      "name": "tokenURI",
      "outputs": [
        {
          "internalType": "string",
          "name": "",
          "type": "string"
        }
      ],
      "stateMutability": "view",
      "type": "function"
    },
    {
      "inputs": [],
      "name": "totalSupply",
      "outputs": [
        {
          "internalType": "uint256",
          "name": "",
          "type": "uint256"
        }
      ],
      "stateMutability": "view",
      "type": "function"
    },
    {
      "inputs": [
        {
          "internalType": "address",
          "name": "from",
          "type": "address"
        },
        {
          "internalType": "address",
          "name": "to",
          "type": "address"
        },
        {
          "internalType": "uint256",
          "name": "tokenId",
          "type": "uint256"
        }
      ],
      "name": "transferFrom",
      "outputs": [],
      "stateMutability": "nonpayable",
      "type": "function"
    },
    {
      "inputs": [],
      "name": "unpause",
      "outputs": [],
      "stateMutability": "nonpayable",
      "type": "function"
    }
  ],
  "bytecode": "0x6080604052600f805460ff191690553480156200001b57600080fd5b5060405162004c9b38038062004c9b8339810160408190526200003e9162000b8a565b848484828281600290805190602001906200005b929190620009ed565b50805162000071906003906020840190620009ed565b5050600c805460ff191690555080516200009390600e906020840190620009ed565b50620000aa6000620000a462000257565b62000273565b620000c860008051602062004c7b833981519152620000a462000257565b620000e660008051602062004c5b833981519152620000a462000257565b505050620000fa856200028360201b60201c565b601280546001600160a01b0319166001600160a01b0384169081179091556200012690600090620002e8565b601380546001600160a01b0319166001600160a01b03831690811790915562000171907f97667070c54ef182b0f5858b034beac1b6f3089aa2d3188bb1e8929f4fa9b92990620002e8565b601354620001aa907f828634d95e775031b9ff576b159a8509d3053581a8c9c4d7d86899e0afcd882f906001600160a01b0316620002e8565b601354620001d29060008051602062004c7b833981519152906001600160a01b0316620002e8565b601354620001fa9060008051602062004c5b833981519152906001600160a01b0316620002e8565b6200021e60008051602062004c7b8339815191526200021862000257565b62000320565b6200023c60008051602062004c5b8339815191526200021862000257565b6200024c60006200021862000257565b505050505062000ddf565b60006200026e6200034d60201b62001f371760201c565b905090565b6200027f8282620003ac565b5050565b600f5460ff1615620002cd5760405162461bcd60e51b815260206004820152600e60248201526d185b1c9958591e481a5b9a5d195960921b60448201526064015b60405180910390fd5b620002d881620003ea565b50600f805460ff19166001179055565b6000828152602081905260409020600101546200030f816200030962000257565b6200048c565b6200031b8383620003ac565b505050565b60008281526020819052604090206001015462000341816200030962000257565b6200031b838362000527565b600033301415620003a657600080368080601f0160208091040260200160405190810160405280939291908181526020018383808284376000920191909152505050503601516001600160a01b03169150620003a99050565b50335b90565b620003c382826200056560201b62001f941760201c565b60008281526001602090815260409091206200031b9183906200201962000607821b17901c565b6040518060800160405280604f815260200162004c0c604f9139805160209182012082519282019290922060408051808201825260018152603160f81b90840152805180840194909452838101919091527fc89efdaa54c0f20c7adf612882df0950f5a951637e0307cdcb4c672f298b8bc660608401523060808401524660a0808501919091528151808503909101815260c090930190528151910120601055565b6000828152602081815260408083206001600160a01b038516845290915290205460ff166200027f57620004d6816001600160a01b031660146200062760201b6200202e1760201c565b620004ec8360206200202e62000627821b17811c565b604051602001620004ff92919062000c41565b60408051601f198184030181529082905262461bcd60e51b8252620002c49160040162000cba565b6200053e8282620007e060201b620021ca1760201c565b60008281526001602090815260409091206200031b9183906200224d62000880821b17901c565b6000828152602081815260408083206001600160a01b038516845290915290205460ff166200027f576000828152602081815260408083206001600160a01b03851684529091529020805460ff19166001179055620005c362000257565b6001600160a01b0316816001600160a01b0316837f2f8788117e7eff1d82e926ec794901d17c78024a50270940304540a733656f0d60405160405180910390a45050565b60006200061e836001600160a01b03841662000897565b90505b92915050565b606060006200063883600262000d05565b6200064590600262000d27565b6001600160401b038111156200065f576200065f62000a93565b6040519080825280601f01601f1916602001820160405280156200068a576020820181803683370190505b509050600360fc1b81600081518110620006a857620006a862000d42565b60200101906001600160f81b031916908160001a905350600f60fb1b81600181518110620006da57620006da62000d42565b60200101906001600160f81b031916908160001a90535060006200070084600262000d05565b6200070d90600162000d27565b90505b60018111156200078f576f181899199a1a9b1b9c1cb0b131b232b360811b85600f166010811062000745576200074562000d42565b1a60f81b8282815181106200075e576200075e62000d42565b60200101906001600160f81b031916908160001a90535060049490941c93620007878162000d58565b905062000710565b5083156200061e5760405162461bcd60e51b815260206004820181905260248201527f537472696e67733a20686578206c656e67746820696e73756666696369656e746044820152606401620002c4565b6000828152602081815260408083206001600160a01b038516845290915290205460ff16156200027f576000828152602081815260408083206001600160a01b03851684529091529020805460ff191690556200083c62000257565b6001600160a01b0316816001600160a01b0316837ff6391f5c32d9c69d2a47ea670b442974b53935d1edc7fd64eb21e047a839171b60405160405180910390a45050565b60006200061e836001600160a01b038416620008e9565b6000818152600183016020526040812054620008e05750815460018181018455600084815260208082209093018490558454848252828601909352604090209190915562000621565b50600062000621565b60008181526001830160205260408120548015620009e25760006200091060018362000d72565b8554909150600090620009269060019062000d72565b9050818114620009925760008660000182815481106200094a576200094a62000d42565b906000526020600020015490508087600001848154811062000970576200097062000d42565b6000918252602080832090910192909255918252600188019052604090208390555b8554869080620009a657620009a662000d8c565b60019003818190600052602060002001600090559055856001016000868152602001908152602001600020600090556001935050505062000621565b600091505062000621565b828054620009fb9062000da2565b90600052602060002090601f01602090048101928262000a1f576000855562000a6a565b82601f1062000a3a57805160ff191683800117855562000a6a565b8280016001018555821562000a6a579182015b8281111562000a6a57825182559160200191906001019062000a4d565b5062000a7892915062000a7c565b5090565b5b8082111562000a78576000815560010162000a7d565b634e487b7160e01b600052604160045260246000fd5b60005b8381101562000ac657818101518382015260200162000aac565b8381111562000ad6576000848401525b50505050565b600082601f83011262000aee57600080fd5b81516001600160401b038082111562000b0b5762000b0b62000a93565b604051601f8301601f19908116603f0116810190828211818310171562000b365762000b3662000a93565b8160405283815286602085880101111562000b5057600080fd5b62000b6384602083016020890162000aa9565b9695505050505050565b80516001600160a01b038116811462000b8557600080fd5b919050565b600080600080600060a0868803121562000ba357600080fd5b85516001600160401b038082111562000bbb57600080fd5b62000bc989838a0162000adc565b9650602088015191508082111562000be057600080fd5b62000bee89838a0162000adc565b9550604088015191508082111562000c0557600080fd5b5062000c148882890162000adc565b93505062000c256060870162000b6d565b915062000c356080870162000b6d565b90509295509295909350565b7f416363657373436f6e74726f6c3a206163636f756e742000000000000000000081526000835162000c7b81601785016020880162000aa9565b7001034b99036b4b9b9b4b733903937b6329607d1b601791840191820152835162000cae81602884016020880162000aa9565b01602801949350505050565b602081526000825180602084015262000cdb81604085016020870162000aa9565b601f01601f19169190910160400192915050565b634e487b7160e01b600052601160045260246000fd5b600081600019048311821515161562000d225762000d2262000cef565b500290565b6000821982111562000d3d5762000d3d62000cef565b500190565b634e487b7160e01b600052603260045260246000fd5b60008162000d6a5762000d6a62000cef565b506000190190565b60008282101562000d875762000d8762000cef565b500390565b634e487b7160e01b600052603160045260246000fd5b600181811c9082168062000db757607f821691505b6020821081141562000dd957634e487b7160e01b600052602260045260246000fd5b50919050565b613e1d8062000def6000396000f3fe608060405234801561001057600080fd5b50600436106103265760003560e01c80636a627842116101b8578063b88d4fde11610104578063d5391393116100a2578063e63ab1e91161007c578063e63ab1e91461077c578063e985e9c514610791578063f5b541a6146107a4578063f851a440146107b957600080fd5b8063d53913931461074c578063d547741f14610761578063d547cfb71461077457600080fd5b8063cd53d08e116100de578063cd53d08e146106d4578063d26ea6c0146106fd578063d2a6b51a14610710578063d48e638a1461072357600080fd5b8063b88d4fde1461069b578063c87b56dd146106ae578063ca15c873146106c157600080fd5b80638f2839701161017157806395d89b411161014b57806395d89b41146106655780639713c8071461066d578063a217fddf14610680578063a22cb4651461068857600080fd5b80638f2839701461062c5780639010d07c1461063f57806391d148541461065257600080fd5b80636a6278421461057457806370a082311461058757806375794a3c1461059a5780637f77f574146105a25780638456cb591461060f5780638aeda25a1461061757600080fd5b80632d0335ab116102775780633f4ba83a116102305780634f6ccce71161020a5780634f6ccce714610530578063570ca735146105435780635c975abb146105565780636352211e1461056157600080fd5b80633f4ba83a1461050257806342842e0e1461050a57806342966c681461051d57600080fd5b80632d0335ab146104875780632f2ff15d146104b05780632f745c59146104c35780633408e470146104d657806336568abe146104dc5780633adf80b4146104ef57600080fd5b80630c53c51c116102e457806320379ee5116102be57806320379ee51461041757806323b872dd1461041f578063248a9ca3146104325780632a55205a1461045557600080fd5b80630c53c51c146103ce5780630f7e5970146103e157806318160ddd1461040157600080fd5b806275a3171461032b57806301ffc9a71461034057806306394c9b1461036857806306fdde031461037b578063081812fc14610390578063095ea7b3146103bb575b600080fd5b61033e6103393660046134cd565b6107cc565b005b61035361034e366004613529565b6108cc565b60405190151581526020015b60405180910390f35b61033e610376366004613546565b6108f7565b610383610b64565b60405161035f91906135bb565b6103a361039e3660046135ce565b610bf6565b6040516001600160a01b03909116815260200161035f565b61033e6103c93660046135e7565b610c8b565b6103836103dc366004613613565b610dae565b610383604051806040016040528060018152602001603160f81b81525081565b610409610f81565b60405190815260200161035f565b601054610409565b61033e61042d366004613691565b610f9d565b6104096104403660046135ce565b60009081526020819052604090206001015490565b6104686104633660046136d2565b610fd5565b604080516001600160a01b03909316835260208301919091520161035f565b610409610495366004613546565b6001600160a01b031660009081526011602052604090205490565b61033e6104be3660046136f4565b611097565b6104096104d13660046135e7565b6110c4565b46610409565b61033e6104ea3660046136f4565b61115a565b61033e6104fd366004613724565b6111e8565b61033e611285565b61033e610518366004613691565b61131d565b61033e61052b3660046135ce565b611338565b61040961053e3660046135ce565b6113b4565b6013546103a3906001600160a01b031681565b600c5460ff16610353565b6103a361056f3660046135ce565b611447565b61033e610582366004613546565b6114be565b610409610595366004613546565b61156a565b6104096115f1565b6105e46105b03660046135ce565b6018602052600090815260409020546001600160a01b03811690600160a01b810462ffffff1690600160b81b900460ff1683565b604080516001600160a01b03909416845262ffffff909216602084015215159082015260600161035f565b61033e6115fc565b610409600080516020613d6883398151915281565b61033e61063a366004613546565b611690565b6103a361064d3660046136d2565b611824565b6103536106603660046136f4565b611843565b61038361186c565b61033e61067b366004613755565b61187b565b610409600081565b61033e61069636600461377c565b6119f5565b61033e6106a93660046137af565b611a07565b6103836106bc3660046135ce565b611a40565b6104096106cf3660046135ce565b611bc6565b6103a36106e23660046135ce565b6014602052600090815260409020546001600160a01b031681565b61033e61070b366004613546565b611bdd565b61033e61071e36600461381b565b611d05565b6103a36107313660046135ce565b6000908152601460205260409020546001600160a01b031690565b610409600080516020613dc883398151915281565b61033e61076f3660046136f4565b611e35565b610383611e5d565b610409600080516020613da883398151915281565b61035361079f3660046138d6565b611e67565b610409600080516020613d8883398151915281565b6012546103a3906001600160a01b031681565b6013546001600160a01b03166107e0612262565b6001600160a01b03161461080f5760405162461bcd60e51b815260040161080690613904565b60405180910390fd5b610829600080516020613d88833981519152610660612262565b6108455760405162461bcd60e51b815260040161080690613904565b610853601580546001019055565b600061085e60155490565b825190915015610889576000818152601760209081526040909120835161088792850190613368565b505b610891612262565b600082815260146020526040902080546001600160a01b0319166001600160a01b03929092169190911790556108c7838261226c565b505050565b60006001600160e01b031982166380ac58cd60e01b14806108f157506108f182612286565b92915050565b6012546001600160a01b031661090b612262565b6001600160a01b0316146109315760405162461bcd60e51b815260040161080690613954565b61093e6000610660612262565b61095a5760405162461bcd60e51b815260040161080690613954565b6012546001600160a01b031661096e612262565b6001600160a01b0316146109ba5760405162461bcd60e51b815260206004820152601360248201527229b2b73232b91034b9903737ba1030b236b4b760691b6044820152606401610806565b6109c76000610660612262565b610a0f5760405162461bcd60e51b815260206004820152601960248201527853656e64657220686173206e6f742061646d696e20726f6c6560381b6044820152606401610806565b601380546001600160a01b038381166001600160a01b0319831681179093551690610a4990600080516020613d8883398151915290611097565b601354610a6e90600080516020613d68833981519152906001600160a01b0316611097565b601354610a9390600080516020613dc8833981519152906001600160a01b0316611097565b601354610ab890600080516020613da8833981519152906001600160a01b0316611097565b610ad0600080516020613d8883398151915282611e35565b610ae8600080516020613d6883398151915282611e35565b610b00600080516020613dc883398151915282611e35565b610b18600080516020613da883398151915282611e35565b601354604080516001600160a01b03808516825290921660208301527fd58299b712891143e76310d5e664c4203c940a67db37cf856bdaa3c5c76a802c91015b60405180910390a15050565b606060028054610b73906139a1565b80601f0160208091040260200160405190810160405280929190818152602001828054610b9f906139a1565b8015610bec5780601f10610bc157610100808354040283529160200191610bec565b820191906000526020600020905b815481529060010190602001808311610bcf57829003601f168201915b5050505050905090565b6000818152600460205260408120546001600160a01b0316610c6f5760405162461bcd60e51b815260206004820152602c60248201527f4552433732313a20617070726f76656420717565727920666f72206e6f6e657860448201526b34b9ba32b73a103a37b5b2b760a11b6064820152608401610806565b506000908152600660205260409020546001600160a01b031690565b6000610c9682611447565b9050806001600160a01b0316836001600160a01b03161415610d045760405162461bcd60e51b815260206004820152602160248201527f4552433732313a20617070726f76616c20746f2063757272656e74206f776e656044820152603960f91b6064820152608401610806565b806001600160a01b0316610d16612262565b6001600160a01b03161480610d325750610d328161079f612262565b610da45760405162461bcd60e51b815260206004820152603860248201527f4552433732313a20617070726f76652063616c6c6572206973206e6f74206f7760448201527f6e6572206e6f7220617070726f76656420666f7220616c6c00000000000000006064820152608401610806565b6108c78383612291565b60408051606081810183526001600160a01b03881660008181526011602090815290859020548452830152918101869052610dec87828787876122ff565b610e425760405162461bcd60e51b815260206004820152602160248201527f5369676e657220616e64207369676e617475726520646f206e6f74206d6174636044820152600d60fb1b6064820152608401610806565b6001600160a01b038716600090815260116020526040902054610e669060016139ec565b6001600160a01b0388166000908152601160205260409081902091909155517f5845892132946850460bff5a0083f71031bc5bf9aadcd40f1de79423eac9b10b90610eb690899033908a90613a04565b60405180910390a1600080306001600160a01b0316888a604051602001610ede929190613a39565b60408051601f1981840301815290829052610ef891613a70565b6000604051808303816000865af19150503d8060008114610f35576040519150601f19603f3d011682016040523d82523d6000602084013e610f3a565b606091505b509150915081610f755760405162461bcd60e51b81526004016108069060208082526004908201526319985a5b60e21b604082015260600190565b98975050505050505050565b60006001610f8e60155490565b610f989190613a8c565b905090565b610fae610fa8612262565b826123cd565b610fca5760405162461bcd60e51b815260040161080690613aa3565b6108c78383836124a4565b6000828152601860209081526040808320815160608101835290546001600160a01b0381168252600160a01b810462ffffff1693820193909352600160b81b90920460ff16158015918301919091528291906110595780516020820151909350612710906110489062ffffff1686613af4565b6110529190613b29565b915061108f565b6000858152601460205260409020546001600160a01b03169250612710611082856101f4613af4565b61108c9190613b29565b91505b509250929050565b6000828152602081905260409020600101546110ba816110b5612262565b61264b565b6108c783836126af565b60006110cf8361156a565b82106111315760405162461bcd60e51b815260206004820152602b60248201527f455243373231456e756d657261626c653a206f776e657220696e646578206f7560448201526a74206f6620626f756e647360a81b6064820152608401610806565b506001600160a01b03919091166000908152600860209081526040808320938352929052205490565b611162612262565b6001600160a01b0316816001600160a01b0316146111da5760405162461bcd60e51b815260206004820152602f60248201527f416363657373436f6e74726f6c3a2063616e206f6e6c792072656e6f756e636560448201526e103937b632b9903337b91039b2b63360891b6064820152608401610806565b6111e482826126d1565b5050565b816111f1612262565b6000828152601460205260409020546001600160a01b0390811691161461122a5760405162461bcd60e51b815260040161080690613b3d565b611244600080516020613d68833981519152610660612262565b6112605760405162461bcd60e51b815260040161080690613b3d565b6000838152601760209081526040909120835161127f92850190613368565b50505050565b61129f600080516020613da8833981519152610660612262565b611313576040805162461bcd60e51b81526020600482015260248101919091527f4552433732315072657365744d696e7465725061757365724175746f49643a2060448201527f6d75737420686176652070617573657220726f6c6520746f20756e70617573656064820152608401610806565b61131b6126f3565b565b6108c783838360405180602001604052806000815250611a07565b611343610fa8612262565b6113a85760405162461bcd60e51b815260206004820152603060248201527f4552433732314275726e61626c653a2063616c6c6572206973206e6f74206f7760448201526f1b995c881b9bdc88185c1c1c9bdd995960821b6064820152608401610806565b6113b18161278c565b50565b60006113bf600a5490565b82106114225760405162461bcd60e51b815260206004820152602c60248201527f455243373231456e756d657261626c653a20676c6f62616c20696e646578206f60448201526b7574206f6620626f756e647360a01b6064820152608401610806565b600a828154811061143557611435613b63565b90600052602060002001549050919050565b6000818152600460205260408120546001600160a01b0316806108f15760405162461bcd60e51b815260206004820152602960248201527f4552433732313a206f776e657220717565727920666f72206e6f6e657869737460448201526832b73a103a37b5b2b760b91b6064820152608401610806565b6114d8600080516020613dc8833981519152610660612262565b61154a5760405162461bcd60e51b815260206004820152603d60248201527f4552433732315072657365744d696e7465725061757365724175746f49643a2060448201527f6d7573742068617665206d696e74657220726f6c6520746f206d696e740000006064820152608401610806565b61155c81611557600d5490565b612833565b6113b1600d80546001019055565b60006001600160a01b0382166115d55760405162461bcd60e51b815260206004820152602a60248201527f4552433732313a2062616c616e636520717565727920666f7220746865207a65604482015269726f206164647265737360b01b6064820152608401610806565b506001600160a01b031660009081526005602052604090205490565b6000610f9860155490565b611616600080516020613da8833981519152610660612262565b6116885760405162461bcd60e51b815260206004820152603e60248201527f4552433732315072657365744d696e7465725061757365724175746f49643a2060448201527f6d75737420686176652070617573657220726f6c6520746f20706175736500006064820152608401610806565b61131b612981565b6012546001600160a01b03166116a4612262565b6001600160a01b0316146116ca5760405162461bcd60e51b815260040161080690613954565b6116d76000610660612262565b6116f35760405162461bcd60e51b815260040161080690613954565b6012546001600160a01b0316611707612262565b6001600160a01b0316146117535760405162461bcd60e51b815260206004820152601360248201527229b2b73232b91034b9903737ba1030b236b4b760691b6044820152606401610806565b6117606000610660612262565b6117a85760405162461bcd60e51b815260206004820152601960248201527853656e64657220686173206e6f742061646d696e20726f6c6560381b6044820152606401610806565b601280546001600160a01b038381166001600160a01b03198316811790935516906117d590600090611097565b6117e0600082611e35565b601254604080516001600160a01b03808516825290921660208301527f7e644d79422f17c01e4894b5f4f588d331ebfa28653d42ae832dc59e38c9798f9101610b58565b600082815260016020526040812061183c90836129fd565b9392505050565b6000918252602082815260408084206001600160a01b0393909316845291905290205460ff1690565b606060038054610b73906139a1565b6013546001600160a01b031661188f612262565b6001600160a01b0316146118b55760405162461bcd60e51b815260040161080690613904565b6118cf600080516020613d88833981519152610660612262565b6118eb5760405162461bcd60e51b815260040161080690613904565b611905600080516020613d68833981519152610660612262565b61193f5760405162461bcd60e51b815260206004820152600b60248201526a2727aa2fa1a922a0aa27a960a91b6044820152606401610806565b61271081111561197c5760405162461bcd60e51b81526020600482015260086024820152670a89e9ebe90928e960c31b6044820152606401610806565b604080516060810182526001600160a01b03938416815262ffffff928316602080830191825260018385019081526000978852601890915292909520905181549551925194166001600160b81b031990951694909417600160a01b91909216021760ff60b81b1916600160b81b91151591909102179055565b6111e4611a00612262565b8383612a09565b611a18611a12612262565b836123cd565b611a345760405162461bcd60e51b815260040161080690613aa3565b61127f84848484612ad8565b600081815260176020526040812080546060929190611a5e906139a1565b80601f0160208091040260200160405190810160405280929190818152602001828054611a8a906139a1565b8015611ad75780601f10611aac57610100808354040283529160200191611ad7565b820191906000526020600020905b815481529060010190602001808311611aba57829003601f168201915b50505050509050600081511115611b875760008381526017602052604090208054611b01906139a1565b80601f0160208091040260200160405190810160405280929190818152602001828054611b2d906139a1565b8015611b7a5780601f10611b4f57610100808354040283529160200191611b7a565b820191906000526020600020905b815481529060010190602001808311611b5d57829003601f168201915b5050505050915050919050565b611b8f611e5d565b611b9884612b0b565b604051602001611ba9929190613b79565b604051602081830303815290604052915050919050565b50919050565b60008181526001602052604081206108f190612c09565b6013546001600160a01b0316611bf1612262565b6001600160a01b031614611c175760405162461bcd60e51b815260040161080690613904565b611c31600080516020613d88833981519152610660612262565b611c4d5760405162461bcd60e51b815260040161080690613904565b6016546001600160a01b0382811691161415611cab5760405162461bcd60e51b815260206004820152601c60248201527f6e65772070726f7879206164647265737320697320696e76616c6964000000006044820152606401610806565b601680546001600160a01b038381166001600160a01b031983168117909355604080519190921680825260208201939093527ffc15895015d07bcb2ae0459d79c7bfb40d36feedb31f55cc34e3ef404c86c5779101610b58565b6013546001600160a01b0316611d19612262565b6001600160a01b031614611d3f5760405162461bcd60e51b815260040161080690613904565b611d59600080516020613d88833981519152610660612262565b611d755760405162461bcd60e51b815260040161080690613904565b6001600160a01b038216611dbe5760405162461bcd60e51b815260206004820152601060248201526f24a72b20a624a22fa0a2222922a9a99760811b6044820152606401610806565b611dd6600080516020613d68833981519152836126af565b611dee600080516020613dc8833981519152836126af565b60005b81518110156108c7576000828281518110611e0e57611e0e613b63565b60200260200101519050611e228482612c13565b5080611e2d81613ba8565b915050611df1565b600082815260208190526040902060010154611e53816110b5612262565b6108c783836126d1565b6060610f98612c84565b6016546000906001600160a01b031615611f095760165460405163c455279160e01b81526001600160a01b03858116600483015291821691841690829063c455279190602401602060405180830381865afa158015611eca573d6000803e3d6000fd5b505050506040513d601f19601f82011682018060405250810190611eee9190613bc3565b6001600160a01b03161415611f075760019150506108f1565b505b6001600160a01b0380841660009081526007602090815260408083209386168352929052205460ff1661183c565b600033301415611f8e57600080368080601f0160208091040260200160405190810160405280939291908181526020018383808284376000920191909152505050503601516001600160a01b03169150611f919050565b50335b90565b611f9e8282611843565b6111e4576000828152602081815260408083206001600160a01b03851684529091529020805460ff19166001179055611fd5612262565b6001600160a01b0316816001600160a01b0316837f2f8788117e7eff1d82e926ec794901d17c78024a50270940304540a733656f0d60405160405180910390a45050565b600061183c836001600160a01b038416612c93565b6060600061203d836002613af4565b6120489060026139ec565b67ffffffffffffffff81111561206057612060613416565b6040519080825280601f01601f19166020018201604052801561208a576020820181803683370190505b509050600360fc1b816000815181106120a5576120a5613b63565b60200101906001600160f81b031916908160001a905350600f60fb1b816001815181106120d4576120d4613b63565b60200101906001600160f81b031916908160001a90535060006120f8846002613af4565b6121039060016139ec565b90505b600181111561217b576f181899199a1a9b1b9c1cb0b131b232b360811b85600f166010811061213757612137613b63565b1a60f81b82828151811061214d5761214d613b63565b60200101906001600160f81b031916908160001a90535060049490941c9361217481613be0565b9050612106565b50831561183c5760405162461bcd60e51b815260206004820181905260248201527f537472696e67733a20686578206c656e67746820696e73756666696369656e746044820152606401610806565b6121d48282611843565b156111e4576000828152602081815260408083206001600160a01b03851684529091529020805460ff19169055612209612262565b6001600160a01b0316816001600160a01b0316837ff6391f5c32d9c69d2a47ea670b442974b53935d1edc7fd64eb21e047a839171b60405160405180910390a45050565b600061183c836001600160a01b038416612ce2565b6000610f98611f37565b6111e4828260405180602001604052806000815250612dd5565b60006108f182612e08565b600081815260066020526040902080546001600160a01b0319166001600160a01b03841690811790915581906122c682611447565b6001600160a01b03167f8c5be1e5ebec7d5bd14f71427d1e84f3dd0314c0f7b2291e5b200ac8c7c3b92560405160405180910390a45050565b60006001600160a01b0386166123435760405162461bcd60e51b815260206004820152600960248201526824a72fa9a4a3a722a960b91b6044820152606401610806565b600161235661235187612e2d565b612eaa565b6040805160008152602081018083529290925260ff851690820152606081018690526080810185905260a0016020604051602081039080840390855afa1580156123a4573d6000803e3d6000fd5b505050602060405103516001600160a01b0316866001600160a01b031614905095945050505050565b6000818152600460205260408120546001600160a01b03166124465760405162461bcd60e51b815260206004820152602c60248201527f4552433732313a206f70657261746f7220717565727920666f72206e6f6e657860448201526b34b9ba32b73a103a37b5b2b760a11b6064820152608401610806565b600061245183611447565b9050806001600160a01b0316846001600160a01b0316148061248c5750836001600160a01b031661248184610bf6565b6001600160a01b0316145b8061249c575061249c8185611e67565b949350505050565b826001600160a01b03166124b782611447565b6001600160a01b03161461251b5760405162461bcd60e51b815260206004820152602560248201527f4552433732313a207472616e736665722066726f6d20696e636f72726563742060448201526437bbb732b960d91b6064820152608401610806565b6001600160a01b03821661257d5760405162461bcd60e51b8152602060048201526024808201527f4552433732313a207472616e7366657220746f20746865207a65726f206164646044820152637265737360e01b6064820152608401610806565b612588838383612eda565b612593600082612291565b6001600160a01b03831660009081526005602052604081208054600192906125bc908490613a8c565b90915550506001600160a01b03821660009081526005602052604081208054600192906125ea9084906139ec565b909155505060008181526004602052604080822080546001600160a01b0319166001600160a01b0386811691821790925591518493918716917fddf252ad1be2c89b69c2b068fc378daa952ba7f163c4a11628f55a4df523b3ef91a4505050565b6126558282611843565b6111e45761266d816001600160a01b0316601461202e565b61267883602061202e565b604051602001612689929190613bf7565b60408051601f198184030181529082905262461bcd60e51b8252610806916004016135bb565b6126b98282611f94565b60008281526001602052604090206108c79082612019565b6126db82826121ca565b60008281526001602052604090206108c7908261224d565b600c5460ff1661273c5760405162461bcd60e51b815260206004820152601460248201527314185d5cd8589b194e881b9bdd081c185d5cd95960621b6044820152606401610806565b600c805460ff191690557f5db9ee0a495bf2e6ff9c91a7834c1ba4fdd244a5e8aa4e537bd38aeae4b073aa61276f612262565b6040516001600160a01b03909116815260200160405180910390a1565b600061279782611447565b90506127a581600084612eda565b6127b0600083612291565b6001600160a01b03811660009081526005602052604081208054600192906127d9908490613a8c565b909155505060008281526004602052604080822080546001600160a01b0319169055518391906001600160a01b038416907fddf252ad1be2c89b69c2b068fc378daa952ba7f163c4a11628f55a4df523b3ef908390a45050565b6001600160a01b0382166128895760405162461bcd60e51b815260206004820181905260248201527f4552433732313a206d696e7420746f20746865207a65726f20616464726573736044820152606401610806565b6000818152600460205260409020546001600160a01b0316156128ee5760405162461bcd60e51b815260206004820152601c60248201527f4552433732313a20746f6b656e20616c7265616479206d696e746564000000006044820152606401610806565b6128fa60008383612eda565b6001600160a01b03821660009081526005602052604081208054600192906129239084906139ec565b909155505060008181526004602052604080822080546001600160a01b0319166001600160a01b03861690811790915590518392907fddf252ad1be2c89b69c2b068fc378daa952ba7f163c4a11628f55a4df523b3ef908290a45050565b600c5460ff16156129c75760405162461bcd60e51b815260206004820152601060248201526f14185d5cd8589b194e881c185d5cd95960821b6044820152606401610806565b600c805460ff191660011790557f62e78cea01bee320cd4e420270b5ea74000d11b0c9f74754ebdbfc544b05a25861276f612262565b600061183c8383612ee5565b816001600160a01b0316836001600160a01b03161415612a6b5760405162461bcd60e51b815260206004820152601960248201527f4552433732313a20617070726f766520746f2063616c6c6572000000000000006044820152606401610806565b6001600160a01b03838116600081815260076020908152604080832094871680845294825291829020805460ff191686151590811790915591519182527f17307eab39ab6107e8899845ad3d59bd9653f200f220920489ca2b5937696c31910160405180910390a3505050565b612ae38484846124a4565b612aef84848484612f0f565b61127f5760405162461bcd60e51b815260040161080690613c6c565b606081612b2f5750506040805180820190915260018152600360fc1b602082015290565b8160005b8115612b595780612b4381613ba8565b9150612b529050600a83613b29565b9150612b33565b60008167ffffffffffffffff811115612b7457612b74613416565b6040519080825280601f01601f191660200182016040528015612b9e576020820181803683370190505b5090505b841561249c57612bb3600183613a8c565b9150612bc0600a86613cbe565b612bcb9060306139ec565b60f81b818381518110612be057612be0613b63565b60200101906001600160f81b031916908160001a905350612c02600a86613b29565b9450612ba2565b60006108f1825490565b80612c1c612262565b6000828152601460205260409020546001600160a01b03908116911614612c555760405162461bcd60e51b815260040161080690613b3d565b50600090815260146020526040902080546001600160a01b0319166001600160a01b0392909216919091179055565b6060600e8054610b73906139a1565b6000818152600183016020526040812054612cda575081546001818101845560008481526020808220909301849055845484825282860190935260409020919091556108f1565b5060006108f1565b60008181526001830160205260408120548015612dcb576000612d06600183613a8c565b8554909150600090612d1a90600190613a8c565b9050818114612d7f576000866000018281548110612d3a57612d3a613b63565b9060005260206000200154905080876000018481548110612d5d57612d5d613b63565b6000918252602080832090910192909255918252600188019052604090208390555b8554869080612d9057612d90613cd2565b6001900381819060005260206000200160009055905585600101600086815260200190815260200160002060009055600193505050506108f1565b60009150506108f1565b612ddf8383612833565b612dec6000848484612f0f565b6108c75760405162461bcd60e51b815260040161080690613c6c565b60006001600160e01b0319821663780e9d6360e01b14806108f157506108f182613014565b6000604051806060016040528060258152602001613d436025913980516020918201208351848301516040808701518051908601209051612e8d950193845260208401929092526001600160a01b03166040830152606082015260800190565b604051602081830303815290604052805190602001209050919050565b6000612eb560105490565b60405161190160f01b6020820152602281019190915260428101839052606201612e8d565b6108c7838383613054565b6000826000018281548110612efc57612efc613b63565b9060005260206000200154905092915050565b60006001600160a01b0384163b1561300957836001600160a01b031663150b7a02612f38612262565b8786866040518563ffffffff1660e01b8152600401612f5a9493929190613ce8565b6020604051808303816000875af1925050508015612f95575060408051601f3d908101601f19168201909252612f9291810190613d25565b60015b612fef573d808015612fc3576040519150601f19603f3d011682016040523d82523d6000602084013e612fc8565b606091505b508051612fe75760405162461bcd60e51b815260040161080690613c6c565b805181602001fd5b6001600160e01b031916630a85bd0160e11b14905061249c565b506001949350505050565b60006001600160e01b031982166380ac58cd60e01b148061304557506001600160e01b03198216635b5e139f60e01b145b806108f157506108f1826130c6565b61305f8383836130eb565b600c5460ff16156108c75760405162461bcd60e51b815260206004820152602b60248201527f4552433732315061757361626c653a20746f6b656e207472616e73666572207760448201526a1a1a5b19481c185d5cd95960aa1b6064820152608401610806565b60006001600160e01b03198216635a05180f60e01b14806108f157506108f1826131a3565b6001600160a01b0383166131465761314181600a80546000838152600b60205260408120829055600182018355919091527fc65a7bb8d6351c1cf70c95a316cc6a92839c986682d98bc35f958f4883f9d2a80155565b613169565b816001600160a01b0316836001600160a01b0316146131695761316983826131d8565b6001600160a01b038216613180576108c781613275565b826001600160a01b0316826001600160a01b0316146108c7576108c78282613324565b60006001600160e01b03198216637965db0b60e01b14806108f157506301ffc9a760e01b6001600160e01b03198316146108f1565b600060016131e58461156a565b6131ef9190613a8c565b600083815260096020526040902054909150808214613242576001600160a01b03841660009081526008602090815260408083208584528252808320548484528184208190558352600990915290208190555b5060009182526009602090815260408084208490556001600160a01b039094168352600881528383209183525290812055565b600a5460009061328790600190613a8c565b6000838152600b6020526040812054600a80549394509092849081106132af576132af613b63565b9060005260206000200154905080600a83815481106132d0576132d0613b63565b6000918252602080832090910192909255828152600b9091526040808220849055858252812055600a80548061330857613308613cd2565b6001900381819060005260206000200160009055905550505050565b600061332f8361156a565b6001600160a01b039093166000908152600860209081526040808320868452825280832085905593825260099052919091209190915550565b828054613374906139a1565b90600052602060002090601f01602090048101928261339657600085556133dc565b82601f106133af57805160ff19168380011785556133dc565b828001600101855582156133dc579182015b828111156133dc5782518255916020019190600101906133c1565b506133e89291506133ec565b5090565b5b808211156133e857600081556001016133ed565b6001600160a01b03811681146113b157600080fd5b634e487b7160e01b600052604160045260246000fd5b604051601f8201601f1916810167ffffffffffffffff8111828210171561345557613455613416565b604052919050565b600082601f83011261346e57600080fd5b813567ffffffffffffffff81111561348857613488613416565b61349b601f8201601f191660200161342c565b8181528460208386010111156134b057600080fd5b816020850160208301376000918101602001919091529392505050565b600080604083850312156134e057600080fd5b82356134eb81613401565b9150602083013567ffffffffffffffff81111561350757600080fd5b61108c8582860161345d565b6001600160e01b0319811681146113b157600080fd5b60006020828403121561353b57600080fd5b813561183c81613513565b60006020828403121561355857600080fd5b813561183c81613401565b60005b8381101561357e578181015183820152602001613566565b8381111561127f5750506000910152565b600081518084526135a7816020860160208601613563565b601f01601f19169290920160200192915050565b60208152600061183c602083018461358f565b6000602082840312156135e057600080fd5b5035919050565b600080604083850312156135fa57600080fd5b823561360581613401565b946020939093013593505050565b600080600080600060a0868803121561362b57600080fd5b853561363681613401565b9450602086013567ffffffffffffffff81111561365257600080fd5b61365e8882890161345d565b9450506040860135925060608601359150608086013560ff8116811461368357600080fd5b809150509295509295909350565b6000806000606084860312156136a657600080fd5b83356136b181613401565b925060208401356136c181613401565b929592945050506040919091013590565b600080604083850312156136e557600080fd5b50508035926020909101359150565b6000806040838503121561370757600080fd5b82359150602083013561371981613401565b809150509250929050565b6000806040838503121561373757600080fd5b82359150602083013567ffffffffffffffff81111561350757600080fd5b60008060006060848603121561376a57600080fd5b8335925060208401356136c181613401565b6000806040838503121561378f57600080fd5b823561379a81613401565b91506020830135801515811461371957600080fd5b600080600080608085870312156137c557600080fd5b84356137d081613401565b935060208501356137e081613401565b925060408501359150606085013567ffffffffffffffff81111561380357600080fd5b61380f8782880161345d565b91505092959194509250565b6000806040838503121561382e57600080fd5b823561383981613401565b915060208381013567ffffffffffffffff8082111561385757600080fd5b818601915086601f83011261386b57600080fd5b81358181111561387d5761387d613416565b8060051b915061388e84830161342c565b81815291830184019184810190898411156138a857600080fd5b938501935b838510156138c6578435825293850193908501906138ad565b8096505050505050509250929050565b600080604083850312156138e957600080fd5b82356138f481613401565b9150602083013561371981613401565b60208082526030908201527f4552433732315472616461626c65236f776e6572734f6e6c793a204f4e4c595f60408201526f13d41154905513d497d0531313d5d15160821b606082015260800190565b6020808252602d908201527f4552433732315472616461626c65236f776e6572734f6e6c793a204f4e4c595f60408201526c105113525397d0531313d5d151609a1b606082015260800190565b600181811c908216806139b557607f821691505b60208210811415611bc057634e487b7160e01b600052602260045260246000fd5b634e487b7160e01b600052601160045260246000fd5b600082198211156139ff576139ff6139d6565b500190565b6001600160a01b03848116825283166020820152606060408201819052600090613a309083018461358f565b95945050505050565b60008351613a4b818460208801613563565b60609390931b6bffffffffffffffffffffffff19169190920190815260140192915050565b60008251613a82818460208701613563565b9190910192915050565b600082821015613a9e57613a9e6139d6565b500390565b60208082526031908201527f4552433732313a207472616e736665722063616c6c6572206973206e6f74206f6040820152701ddb995c881b9bdc88185c1c1c9bdd9959607a1b606082015260800190565b6000816000190483118215151615613b0e57613b0e6139d6565b500290565b634e487b7160e01b600052601260045260246000fd5b600082613b3857613b38613b13565b500490565b6020808252600c908201526b27a7262cafa1a922a0aa27a960a11b604082015260600190565b634e487b7160e01b600052603260045260246000fd5b60008351613b8b818460208801613563565b835190830190613b9f818360208801613563565b01949350505050565b6000600019821415613bbc57613bbc6139d6565b5060010190565b600060208284031215613bd557600080fd5b815161183c81613401565b600081613bef57613bef6139d6565b506000190190565b7f416363657373436f6e74726f6c3a206163636f756e7420000000000000000000815260008351613c2f816017850160208801613563565b7001034b99036b4b9b9b4b733903937b6329607d1b6017918401918201528351613c60816028840160208801613563565b01602801949350505050565b60208082526032908201527f4552433732313a207472616e7366657220746f206e6f6e20455243373231526560408201527131b2b4bb32b91034b6b83632b6b2b73a32b960711b606082015260800190565b600082613ccd57613ccd613b13565b500690565b634e487b7160e01b600052603160045260246000fd5b6001600160a01b0385811682528416602082015260408101839052608060608201819052600090613d1b9083018461358f565b9695505050505050565b600060208284031215613d3757600080fd5b815161183c8161351356fe4d6574615472616e73616374696f6e286e6f6e63652c66726f6d2c7369676e617475726529828634d95e775031b9ff576b159a8509d3053581a8c9c4d7d86899e0afcd882f97667070c54ef182b0f5858b034beac1b6f3089aa2d3188bb1e8929f4fa9b92965d7a28e3265b37a6474929f336521b332c1681b933f6cb9f3376673440d862a9f2df0fed2c77648de5860a4cc508cd0818c85b8b8a1ab4ceeef8d981c8956a6a264697066735822122052015e6f2ea79c93096f64d1f9f40d4d7b88d1f96b4a6efb0703ae289e75c82164736f6c634300080c0033454950373132446f6d61696e28737472696e67206e616d652c737472696e672076657273696f6e2c6164647265737320766572696679696e67436f6e74726163742c627974657333322073616c742965d7a28e3265b37a6474929f336521b332c1681b933f6cb9f3376673440d862a9f2df0fed2c77648de5860a4cc508cd0818c85b8b8a1ab4ceeef8d981c8956a6",
  "linkReferences": {},
  "deployedLinkReferences": {}
}