{
  "_format": "hh-sol-artifact-1",
  "contractName": "ERC721Tradable",
  "sourceName": "contracts/utils/ERC721Tradable.sol",
  "abi": [
    {
      "inputs": [
        {
          "internalType": "string",
          "name": "_name",
          "type": "string"
        },
        {
          "internalType": "string",
          "name": "_symbol",
          "type": "string"
        },
        {
          "internalType": "string",
          "name": "_uri",
          "type": "string"
        },
        {
          "internalType": "address",
          "name": "_admin",
          "type": "address"
        },
        {
          "internalType": "address",
          "name": "_operator",
          "type": "address"
        }
      ],
      "stateMutability": "nonpayable",
      "type": "constructor"
    },
    {
      "anonymous": false,
      "inputs": [
        {
          "indexed": false,
          "internalType": "address",
          "name": "previous",
          "type": "address"
        },
        {
          "indexed": false,
          "internalType": "address",
          "name": "new_",
          "type": "address"
        }
      ],
      "name": "AdminChanged",
      "type": "event"
    },
    {
      "anonymous": false,
      "inputs": [
        {
          "indexed": true,
          "internalType": "address",
          "name": "owner",
          "type": "address"
        },
        {
          "indexed": true,
          "internalType": "address",
          "name": "approved",
          "type": "address"
        },
        {
          "indexed": true,
          "internalType": "uint256",
          "name": "tokenId",
          "type": "uint256"
        }
      ],
      "name": "Approval",
      "type": "event"
    },
    {
      "anonymous": false,
      "inputs": [
        {
          "indexed": true,
          "internalType": "address",
          "name": "owner",
          "type": "address"
        },
        {
          "indexed": true,
          "internalType": "address",
          "name": "operator",
          "type": "address"
        },
        {
          "indexed": false,
          "internalType": "bool",
          "name": "approved",
          "type": "bool"
        }
      ],
      "name": "ApprovalForAll",
      "type": "event"
    },
    {
      "anonymous": false,
      "inputs": [
        {
          "indexed": false,
          "internalType": "address",
          "name": "userAddress",
          "type": "address"
        },
        {
          "indexed": false,
          "internalType": "address payable",
          "name": "relayerAddress",
          "type": "address"
        },
        {
          "indexed": false,
          "internalType": "bytes",
          "name": "functionSignature",
          "type": "bytes"
        }
      ],
      "name": "MetaTransactionExecuted",
      "type": "event"
    },
    {
      "anonymous": false,
      "inputs": [
        {
          "indexed": false,
          "internalType": "address",
          "name": "previous",
          "type": "address"
        },
        {
          "indexed": false,
          "internalType": "address",
          "name": "new_",
          "type": "address"
        }
      ],
      "name": "OperatorChanged",
      "type": "event"
    },
    {
      "anonymous": false,
      "inputs": [
        {
          "indexed": false,
          "internalType": "address",
          "name": "account",
          "type": "address"
        }
      ],
      "name": "Paused",
      "type": "event"
    },
    {
      "anonymous": false,
      "inputs": [
        {
          "indexed": false,
          "internalType": "address",
          "name": "previous",
          "type": "address"
        },
        {
          "indexed": false,
          "internalType": "address",
          "name": "new_",
          "type": "address"
        }
      ],
      "name": "ProxyRegistryAddressChanged",
      "type": "event"
    },
    {
      "anonymous": false,
      "inputs": [
        {
          "indexed": true,
          "internalType": "bytes32",
          "name": "role",
          "type": "bytes32"
        },
        {
          "indexed": true,
          "internalType": "bytes32",
          "name": "previousAdminRole",
          "type": "bytes32"
        },
        {
          "indexed": true,
          "internalType": "bytes32",
          "name": "newAdminRole",
          "type": "bytes32"
        }
      ],
      "name": "RoleAdminChanged",
      "type": "event"
    },
    {
      "anonymous": false,
      "inputs": [
        {
          "indexed": true,
          "internalType": "bytes32",
          "name": "role",
          "type": "bytes32"
        },
        {
          "indexed": true,
          "internalType": "address",
          "name": "account",
          "type": "address"
        },
        {
          "indexed": true,
          "internalType": "address",
          "name": "sender",
          "type": "address"
        }
      ],
      "name": "RoleGranted",
      "type": "event"
    },
    {
      "anonymous": false,
      "inputs": [
        {
          "indexed": true,
          "internalType": "bytes32",
          "name": "role",
          "type": "bytes32"
        },
        {
          "indexed": true,
          "internalType": "address",
          "name": "account",
          "type": "address"
        },
        {
          "indexed": true,
          "internalType": "address",
          "name": "sender",
          "type": "address"
        }
      ],
      "name": "RoleRevoked",
      "type": "event"
    },
    {
      "anonymous": false,
      "inputs": [
        {
          "indexed": true,
          "internalType": "address",
          "name": "from",
          "type": "address"
        },
        {
          "indexed": true,
          "internalType": "address",
          "name": "to",
          "type": "address"
        },
        {
          "indexed": true,
          "internalType": "uint256",
          "name": "tokenId",
          "type": "uint256"
        }
      ],
      "name": "Transfer",
      "type": "event"
    },
    {
      "anonymous": false,
      "inputs": [
        {
          "indexed": false,
          "internalType": "address",
          "name": "account",
          "type": "address"
        }
      ],
      "name": "Unpaused",
      "type": "event"
    },
    {
      "inputs": [],
      "name": "CREATOR_ROLE",
      "outputs": [
        {
          "internalType": "bytes32",
          "name": "",
          "type": "bytes32"
        }
      ],
      "stateMutability": "view",
      "type": "function"
    },
    {
      "inputs": [],
      "name": "DEFAULT_ADMIN_ROLE",
      "outputs": [
        {
          "internalType": "bytes32",
          "name": "",
          "type": "bytes32"
        }
      ],
      "stateMutability": "view",
      "type": "function"
    },
    {
      "inputs": [],
      "name": "ERC712_VERSION",
      "outputs": [
        {
          "internalType": "string",
          "name": "",
          "type": "string"
        }
      ],
      "stateMutability": "view",
      "type": "function"
    },
    {
      "inputs": [],
      "name": "MINTER_ROLE",
      "outputs": [
        {
          "internalType": "bytes32",
          "name": "",
          "type": "bytes32"
        }
      ],
      "stateMutability": "view",
      "type": "function"
    },
    {
      "inputs": [],
      "name": "OPERATOR_ROLE",
      "outputs": [
        {
          "internalType": "bytes32",
          "name": "",
          "type": "bytes32"
        }
      ],
      "stateMutability": "view",
      "type": "function"
    },
    {
      "inputs": [],
      "name": "PAUSER_ROLE",
      "outputs": [
        {
          "internalType": "bytes32",
          "name": "",
          "type": "bytes32"
        }
      ],
      "stateMutability": "view",
      "type": "function"
    },
    {
      "inputs": [],
      "name": "admin",
      "outputs": [
        {
          "internalType": "address",
          "name": "",
          "type": "address"
        }
      ],
      "stateMutability": "view",
      "type": "function"
    },
    {
      "inputs": [
        {
          "internalType": "address",
          "name": "to",
          "type": "address"
        },
        {
          "internalType": "uint256",
          "name": "tokenId",
          "type": "uint256"
        }
      ],
      "name": "approve",
      "outputs": [],
      "stateMutability": "nonpayable",
      "type": "function"
    },
    {
      "inputs": [
        {
          "internalType": "address",
          "name": "owner",
          "type": "address"
        }
      ],
      "name": "balanceOf",
      "outputs": [
        {
          "internalType": "uint256",
          "name": "",
          "type": "uint256"
        }
      ],
      "stateMutability": "view",
      "type": "function"
    },
    {
      "inputs": [],
      "name": "baseTokenURI",
      "outputs": [
        {
          "internalType": "string",
          "name": "",
          "type": "string"
        }
      ],
      "stateMutability": "view",
      "type": "function"
    },
    {
      "inputs": [
        {
          "internalType": "uint256",
          "name": "tokenId",
          "type": "uint256"
        }
      ],
      "name": "burn",
      "outputs": [],
      "stateMutability": "nonpayable",
      "type": "function"
    },
    {
      "inputs": [
        {
          "internalType": "address",
          "name": "_newAdmin",
          "type": "address"
        }
      ],
      "name": "changeAdmin",
      "outputs": [],
      "stateMutability": "nonpayable",
      "type": "function"
    },
    {
      "inputs": [
        {
          "internalType": "address",
          "name": "_newOperator",
          "type": "address"
        }
      ],
      "name": "changeOperator",
      "outputs": [],
      "stateMutability": "nonpayable",
      "type": "function"
    },
    {
      "inputs": [
        {
          "internalType": "address",
          "name": "userAddress",
          "type": "address"
        },
        {
          "internalType": "bytes",
          "name": "functionSignature",
          "type": "bytes"
        },
        {
          "internalType": "bytes32",
          "name": "sigR",
          "type": "bytes32"
        },
        {
          "internalType": "bytes32",
          "name": "sigS",
          "type": "bytes32"
        },
        {
          "internalType": "uint8",
          "name": "sigV",
          "type": "uint8"
        }
      ],
      "name": "executeMetaTransaction",
      "outputs": [
        {
          "internalType": "bytes",
          "name": "",
          "type": "bytes"
        }
      ],
      "stateMutability": "nonpayable",
      "type": "function"
    },
    {
      "inputs": [
        {
          "internalType": "uint256",
          "name": "tokenId",
          "type": "uint256"
        }
      ],
      "name": "getApproved",
      "outputs": [
        {
          "internalType": "address",
          "name": "",
          "type": "address"
        }
      ],
      "stateMutability": "view",
      "type": "function"
    },
    {
      "inputs": [],
      "name": "getChainId",
      "outputs": [
        {
          "internalType": "uint256",
          "name": "",
          "type": "uint256"
        }
      ],
      "stateMutability": "view",
      "type": "function"
    },
    {
      "inputs": [],
      "name": "getDomainSeperator",
      "outputs": [
        {
          "internalType": "bytes32",
          "name": "",
          "type": "bytes32"
        }
      ],
      "stateMutability": "view",
      "type": "function"
    },
    {
      "inputs": [
        {
          "internalType": "address",
          "name": "user",
          "type": "address"
        }
      ],
      "name": "getNonce",
      "outputs": [
        {
          "internalType": "uint256",
          "name": "nonce",
          "type": "uint256"
        }
      ],
      "stateMutability": "view",
      "type": "function"
    },
    {
      "inputs": [
        {
          "internalType": "bytes32",
          "name": "role",
          "type": "bytes32"
        }
      ],
      "name": "getRoleAdmin",
      "outputs": [
        {
          "internalType": "bytes32",
          "name": "",
          "type": "bytes32"
        }
      ],
      "stateMutability": "view",
      "type": "function"
    },
    {
      "inputs": [
        {
          "internalType": "bytes32",
          "name": "role",
          "type": "bytes32"
        },
        {
          "internalType": "uint256",
          "name": "index",
          "type": "uint256"
        }
      ],
      "name": "getRoleMember",
      "outputs": [
        {
          "internalType": "address",
          "name": "",
          "type": "address"
        }
      ],
      "stateMutability": "view",
      "type": "function"
    },
    {
      "inputs": [
        {
          "internalType": "bytes32",
          "name": "role",
          "type": "bytes32"
        }
      ],
      "name": "getRoleMemberCount",
      "outputs": [
        {
          "internalType": "uint256",
          "name": "",
          "type": "uint256"
        }
      ],
      "stateMutability": "view",
      "type": "function"
    },
    {
      "inputs": [
        {
          "internalType": "bytes32",
          "name": "role",
          "type": "bytes32"
        },
        {
          "internalType": "address",
          "name": "account",
          "type": "address"
        }
      ],
      "name": "grantRole",
      "outputs": [],
      "stateMutability": "nonpayable",
      "type": "function"
    },
    {
      "inputs": [
        {
          "internalType": "bytes32",
          "name": "role",
          "type": "bytes32"
        },
        {
          "internalType": "address",
          "name": "account",
          "type": "address"
        }
      ],
      "name": "hasRole",
      "outputs": [
        {
          "internalType": "bool",
          "name": "",
          "type": "bool"
        }
      ],
      "stateMutability": "view",
      "type": "function"
    },
    {
      "inputs": [
        {
          "internalType": "address",
          "name": "_owner",
          "type": "address"
        },
        {
          "internalType": "address",
          "name": "_operator",
          "type": "address"
        }
      ],
      "name": "isApprovedForAll",
      "outputs": [
        {
          "internalType": "bool",
          "name": "",
          "type": "bool"
        }
      ],
      "stateMutability": "view",
      "type": "function"
    },
    {
      "inputs": [
        {
          "internalType": "address",
          "name": "to",
          "type": "address"
        }
      ],
      "name": "mint",
      "outputs": [],
      "stateMutability": "nonpayable",
      "type": "function"
    },
    {
      "inputs": [
        {
          "internalType": "address",
          "name": "_to",
          "type": "address"
        },
        {
          "internalType": "string",
          "name": "_uri",
          "type": "string"
        }
      ],
      "name": "mintTo",
      "outputs": [],
      "stateMutability": "nonpayable",
      "type": "function"
    },
    {
      "inputs": [],
      "name": "name",
      "outputs": [
        {
          "internalType": "string",
          "name": "",
          "type": "string"
        }
      ],
      "stateMutability": "view",
      "type": "function"
    },
    {
      "inputs": [],
      "name": "nextTokenId",
      "outputs": [
        {
          "internalType": "uint256",
          "name": "",
          "type": "uint256"
        }
      ],
      "stateMutability": "view",
      "type": "function"
    },
    {
      "inputs": [],
      "name": "operator",
      "outputs": [
        {
          "internalType": "address",
          "name": "",
          "type": "address"
        }
      ],
      "stateMutability": "view",
      "type": "function"
    },
    {
      "inputs": [
        {
          "internalType": "uint256",
          "name": "tokenId",
          "type": "uint256"
        }
      ],
      "name": "ownerOf",
      "outputs": [
        {
          "internalType": "address",
          "name": "",
          "type": "address"
        }
      ],
      "stateMutability": "view",
      "type": "function"
    },
    {
      "inputs": [],
      "name": "pause",
      "outputs": [],
      "stateMutability": "nonpayable",
      "type": "function"
    },
    {
      "inputs": [],
      "name": "paused",
      "outputs": [
        {
          "internalType": "bool",
          "name": "",
          "type": "bool"
        }
      ],
      "stateMutability": "view",
      "type": "function"
    },
    {
      "inputs": [
        {
          "internalType": "bytes32",
          "name": "role",
          "type": "bytes32"
        },
        {
          "internalType": "address",
          "name": "account",
          "type": "address"
        }
      ],
      "name": "renounceRole",
      "outputs": [],
      "stateMutability": "nonpayable",
      "type": "function"
    },
    {
      "inputs": [
        {
          "internalType": "bytes32",
          "name": "role",
          "type": "bytes32"
        },
        {
          "internalType": "address",
          "name": "account",
          "type": "address"
        }
      ],
      "name": "revokeRole",
      "outputs": [],
      "stateMutability": "nonpayable",
      "type": "function"
    },
    {
      "inputs": [
        {
          "internalType": "address",
          "name": "from",
          "type": "address"
        },
        {
          "internalType": "address",
          "name": "to",
          "type": "address"
        },
        {
          "internalType": "uint256",
          "name": "tokenId",
          "type": "uint256"
        }
      ],
      "name": "safeTransferFrom",
      "outputs": [],
      "stateMutability": "nonpayable",
      "type": "function"
    },
    {
      "inputs": [
        {
          "internalType": "address",
          "name": "from",
          "type": "address"
        },
        {
          "internalType": "address",
          "name": "to",
          "type": "address"
        },
        {
          "internalType": "uint256",
          "name": "tokenId",
          "type": "uint256"
        },
        {
          "internalType": "bytes",
          "name": "_data",
          "type": "bytes"
        }
      ],
      "name": "safeTransferFrom",
      "outputs": [],
      "stateMutability": "nonpayable",
      "type": "function"
    },
    {
      "inputs": [
        {
          "internalType": "address",
          "name": "operator",
          "type": "address"
        },
        {
          "internalType": "bool",
          "name": "approved",
          "type": "bool"
        }
      ],
      "name": "setApprovalForAll",
      "outputs": [],
      "stateMutability": "nonpayable",
      "type": "function"
    },
    {
      "inputs": [
        {
          "internalType": "address",
          "name": "_proxyRegistryAddress",
          "type": "address"
        }
      ],
      "name": "setProxyRegistryAddress",
      "outputs": [],
      "stateMutability": "nonpayable",
      "type": "function"
    },
    {
      "inputs": [
        {
          "internalType": "bytes4",
          "name": "interfaceId",
          "type": "bytes4"
        }
      ],
      "name": "supportsInterface",
      "outputs": [
        {
          "internalType": "bool",
          "name": "",
          "type": "bool"
        }
      ],
      "stateMutability": "view",
      "type": "function"
    },
    {
      "inputs": [],
      "name": "symbol",
      "outputs": [
        {
          "internalType": "string",
          "name": "",
          "type": "string"
        }
      ],
      "stateMutability": "view",
      "type": "function"
    },
    {
      "inputs": [
        {
          "internalType": "uint256",
          "name": "index",
          "type": "uint256"
        }
      ],
      "name": "tokenByIndex",
      "outputs": [
        {
          "internalType": "uint256",
          "name": "",
          "type": "uint256"
        }
      ],
      "stateMutability": "view",
      "type": "function"
    },
    {
      "inputs": [
        {
          "internalType": "address",
          "name": "owner",
          "type": "address"
        },
        {
          "internalType": "uint256",
          "name": "index",
          "type": "uint256"
        }
      ],
      "name": "tokenOfOwnerByIndex",
      "outputs": [
        {
          "internalType": "uint256",
          "name": "",
          "type": "uint256"
        }
      ],
      "stateMutability": "view",
      "type": "function"
    },
    {
      "inputs": [
        {
          "internalType": "uint256",
          "name": "_tokenId",
          "type": "uint256"
        }
      ],
      "name": "tokenURI",
      "outputs": [
        {
          "internalType": "string",
          "name": "",
          "type": "string"
        }
      ],
      "stateMutability": "view",
      "type": "function"
    },
    {
      "inputs": [],
      "name": "totalSupply",
      "outputs": [
        {
          "internalType": "uint256",
          "name": "",
          "type": "uint256"
        }
      ],
      "stateMutability": "view",
      "type": "function"
    },
    {
      "inputs": [
        {
          "internalType": "address",
          "name": "from",
          "type": "address"
        },
        {
          "internalType": "address",
          "name": "to",
          "type": "address"
        },
        {
          "internalType": "uint256",
          "name": "tokenId",
          "type": "uint256"
        }
      ],
      "name": "transferFrom",
      "outputs": [],
      "stateMutability": "nonpayable",
      "type": "function"
    },
    {
      "inputs": [],
      "name": "unpause",
      "outputs": [],
      "stateMutability": "nonpayable",
      "type": "function"
    }
  ],
  "bytecode": "0x6080604052600f805460ff191690553480156200001b57600080fd5b50604051620044f7380380620044f78339810160408190526200003e9162000b8a565b848484828281600290805190602001906200005b929190620009ed565b50805162000071906003906020840190620009ed565b5050600c805460ff191690555080516200009390600e906020840190620009ed565b50620000aa6000620000a462000257565b62000273565b620000c8600080516020620044d7833981519152620000a462000257565b620000e6600080516020620044b7833981519152620000a462000257565b505050620000fa856200028360201b60201c565b601280546001600160a01b0319166001600160a01b0384169081179091556200012690600090620002e8565b601380546001600160a01b0319166001600160a01b03831690811790915562000171907f97667070c54ef182b0f5858b034beac1b6f3089aa2d3188bb1e8929f4fa9b92990620002e8565b601354620001aa907f828634d95e775031b9ff576b159a8509d3053581a8c9c4d7d86899e0afcd882f906001600160a01b0316620002e8565b601354620001d290600080516020620044d7833981519152906001600160a01b0316620002e8565b601354620001fa90600080516020620044b7833981519152906001600160a01b0316620002e8565b6200021e600080516020620044d78339815191526200021862000257565b62000320565b6200023c600080516020620044b78339815191526200021862000257565b6200024c60006200021862000257565b505050505062000ddf565b60006200026e6200034d60201b620019551760201c565b905090565b6200027f8282620003ac565b5050565b600f5460ff1615620002cd5760405162461bcd60e51b815260206004820152600e60248201526d185b1c9958591e481a5b9a5d195960921b60448201526064015b60405180910390fd5b620002d881620003ea565b50600f805460ff19166001179055565b6000828152602081905260409020600101546200030f816200030962000257565b6200048c565b6200031b8383620003ac565b505050565b60008281526020819052604090206001015462000341816200030962000257565b6200031b838362000527565b600033301415620003a657600080368080601f0160208091040260200160405190810160405280939291908181526020018383808284376000920191909152505050503601516001600160a01b03169150620003a99050565b50335b90565b620003c382826200056560201b620019b21760201c565b60008281526001602090815260409091206200031b91839062001a3762000607821b17901c565b6040518060800160405280604f815260200162004468604f9139805160209182012082519282019290922060408051808201825260018152603160f81b90840152805180840194909452838101919091527fc89efdaa54c0f20c7adf612882df0950f5a951637e0307cdcb4c672f298b8bc660608401523060808401524660a0808501919091528151808503909101815260c090930190528151910120601055565b6000828152602081815260408083206001600160a01b038516845290915290205460ff166200027f57620004d6816001600160a01b031660146200062760201b62001a4c1760201c565b620004ec83602062001a4c62000627821b17811c565b604051602001620004ff92919062000c41565b60408051601f198184030181529082905262461bcd60e51b8252620002c49160040162000cba565b6200053e8282620007e060201b62001be81760201c565b60008281526001602090815260409091206200031b91839062001c6b62000880821b17901c565b6000828152602081815260408083206001600160a01b038516845290915290205460ff166200027f576000828152602081815260408083206001600160a01b03851684529091529020805460ff19166001179055620005c362000257565b6001600160a01b0316816001600160a01b0316837f2f8788117e7eff1d82e926ec794901d17c78024a50270940304540a733656f0d60405160405180910390a45050565b60006200061e836001600160a01b03841662000897565b90505b92915050565b606060006200063883600262000d05565b6200064590600262000d27565b6001600160401b038111156200065f576200065f62000a93565b6040519080825280601f01601f1916602001820160405280156200068a576020820181803683370190505b509050600360fc1b81600081518110620006a857620006a862000d42565b60200101906001600160f81b031916908160001a905350600f60fb1b81600181518110620006da57620006da62000d42565b60200101906001600160f81b031916908160001a90535060006200070084600262000d05565b6200070d90600162000d27565b90505b60018111156200078f576f181899199a1a9b1b9c1cb0b131b232b360811b85600f166010811062000745576200074562000d42565b1a60f81b8282815181106200075e576200075e62000d42565b60200101906001600160f81b031916908160001a90535060049490941c93620007878162000d58565b905062000710565b5083156200061e5760405162461bcd60e51b815260206004820181905260248201527f537472696e67733a20686578206c656e67746820696e73756666696369656e746044820152606401620002c4565b6000828152602081815260408083206001600160a01b038516845290915290205460ff16156200027f576000828152602081815260408083206001600160a01b03851684529091529020805460ff191690556200083c62000257565b6001600160a01b0316816001600160a01b0316837ff6391f5c32d9c69d2a47ea670b442974b53935d1edc7fd64eb21e047a839171b60405160405180910390a45050565b60006200061e836001600160a01b038416620008e9565b6000818152600183016020526040812054620008e05750815460018181018455600084815260208082209093018490558454848252828601909352604090209190915562000621565b50600062000621565b60008181526001830160205260408120548015620009e25760006200091060018362000d72565b8554909150600090620009269060019062000d72565b9050818114620009925760008660000182815481106200094a576200094a62000d42565b906000526020600020015490508087600001848154811062000970576200097062000d42565b6000918252602080832090910192909255918252600188019052604090208390555b8554869080620009a657620009a662000d8c565b60019003818190600052602060002001600090559055856001016000868152602001908152602001600020600090556001935050505062000621565b600091505062000621565b828054620009fb9062000da2565b90600052602060002090601f01602090048101928262000a1f576000855562000a6a565b82601f1062000a3a57805160ff191683800117855562000a6a565b8280016001018555821562000a6a579182015b8281111562000a6a57825182559160200191906001019062000a4d565b5062000a7892915062000a7c565b5090565b5b8082111562000a78576000815560010162000a7d565b634e487b7160e01b600052604160045260246000fd5b60005b8381101562000ac657818101518382015260200162000aac565b8381111562000ad6576000848401525b50505050565b600082601f83011262000aee57600080fd5b81516001600160401b038082111562000b0b5762000b0b62000a93565b604051601f8301601f19908116603f0116810190828211818310171562000b365762000b3662000a93565b8160405283815286602085880101111562000b5057600080fd5b62000b6384602083016020890162000aa9565b9695505050505050565b80516001600160a01b038116811462000b8557600080fd5b919050565b600080600080600060a0868803121562000ba357600080fd5b85516001600160401b038082111562000bbb57600080fd5b62000bc989838a0162000adc565b9650602088015191508082111562000be057600080fd5b62000bee89838a0162000adc565b9550604088015191508082111562000c0557600080fd5b5062000c148882890162000adc565b93505062000c256060870162000b6d565b915062000c356080870162000b6d565b90509295509295909350565b7f416363657373436f6e74726f6c3a206163636f756e742000000000000000000081526000835162000c7b81601785016020880162000aa9565b7001034b99036b4b9b9b4b733903937b6329607d1b601791840191820152835162000cae81602884016020880162000aa9565b01602801949350505050565b602081526000825180602084015262000cdb81604085016020870162000aa9565b601f01601f19169190910160400192915050565b634e487b7160e01b600052601160045260246000fd5b600081600019048311821515161562000d225762000d2262000cef565b500290565b6000821982111562000d3d5762000d3d62000cef565b500190565b634e487b7160e01b600052603260045260246000fd5b60008162000d6a5762000d6a62000cef565b506000190190565b60008282101562000d875762000d8762000cef565b500390565b634e487b7160e01b600052603160045260246000fd5b600181811c9082168062000db757607f821691505b6020821081141562000dd957634e487b7160e01b600052602260045260246000fd5b50919050565b6136798062000def6000396000f3fe608060405234801561001057600080fd5b50600436106102895760003560e01c80636352211e1161015c578063a22cb465116100ce578063d547741f11610087578063d547741f146105ac578063d547cfb7146105bf578063e63ab1e9146105c7578063e985e9c5146105dc578063f5b541a6146105ef578063f851a4401461060457600080fd5b8063a22cb46514610538578063b88d4fde1461054b578063c87b56dd1461055e578063ca15c87314610571578063d26ea6c014610584578063d53913931461059757600080fd5b80638aeda25a116101205780638aeda25a146104c85780638f283970146104ef5780639010d07c1461050257806391d148541461051557806395d89b4114610528578063a217fddf1461053057600080fd5b80636352211e1461047f5780636a6278421461049257806370a08231146104a557806375794a3c146104b85780638456cb59146104c057600080fd5b8063248a9ca3116102005780633f4ba83a116101b95780633f4ba83a1461042057806342842e0e1461042857806342966c681461043b5780634f6ccce71461044e578063570ca735146104615780635c975abb1461047457600080fd5b8063248a9ca3146103955780632d0335ab146103b85780632f2ff15d146103e15780632f745c59146103f45780633408e4701461040757806336568abe1461040d57600080fd5b8063095ea7b311610252578063095ea7b31461031e5780630c53c51c146103315780630f7e59701461034457806318160ddd1461036457806320379ee51461037a57806323b872dd1461038257600080fd5b806275a3171461028e57806301ffc9a7146102a357806306394c9b146102cb57806306fdde03146102de578063081812fc146102f3575b600080fd5b6102a161029c366004612e44565b610617565b005b6102b66102b1366004612ebe565b6106e3565b60405190151581526020015b60405180910390f35b6102a16102d9366004612edb565b6106f4565b6102e6610985565b6040516102c29190612f50565b610306610301366004612f63565b610a17565b6040516001600160a01b0390911681526020016102c2565b6102a161032c366004612f7c565b610aac565b6102e661033f366004612fc8565b610bcf565b6102e6604051806040016040528060018152602001603160f81b81525081565b61036c610da2565b6040519081526020016102c2565b60105461036c565b6102a1610390366004613046565b610dbe565b61036c6103a3366004612f63565b60009081526020819052604090206001015490565b61036c6103c6366004612edb565b6001600160a01b031660009081526011602052604090205490565b6102a16103ef366004613087565b610df6565b61036c610402366004612f7c565b610e23565b4661036c565b6102a161041b366004613087565b610eb9565b6102a1610f47565b6102a1610436366004613046565b610fdf565b6102a1610449366004612f63565b610ffa565b61036c61045c366004612f63565b611076565b601354610306906001600160a01b031681565b600c5460ff166102b6565b61030661048d366004612f63565b611109565b6102a16104a0366004612edb565b611180565b61036c6104b3366004612edb565b61122c565b61036c6112b3565b6102a16112be565b61036c7f828634d95e775031b9ff576b159a8509d3053581a8c9c4d7d86899e0afcd882f81565b6102a16104fd366004612edb565b611352565b6103066105103660046130b7565b6114e6565b6102b6610523366004613087565b611505565b6102e661152e565b61036c600081565b6102a16105463660046130d9565b61153d565b6102a161055936600461310c565b61154f565b6102e661056c366004612f63565b61158e565b61036c61057f366004612f63565b611714565b6102a1610592366004612edb565b61172b565b61036c60008051602061362483398151915281565b6102a16105ba366004613087565b611853565b6102e661187b565b61036c60008051602061360483398151915281565b6102b66105ea366004613178565b611885565b61036c6000805160206135e483398151915281565b601254610306906001600160a01b031681565b6013546001600160a01b031661062b611c80565b6001600160a01b03161461065a5760405162461bcd60e51b8152600401610651906131a6565b60405180910390fd5b6106746000805160206135e4833981519152610523611c80565b6106905760405162461bcd60e51b8152600401610651906131a6565b61069e601480546001019055565b60006106a960145490565b8251909150156106d457600081815260166020908152604090912083516106d292850190612d0a565b505b6106de8382611c8a565b505050565b60006106ee82611ca4565b92915050565b6012546001600160a01b0316610708611c80565b6001600160a01b03161461072e5760405162461bcd60e51b8152600401610651906131f6565b61073b6000610523611c80565b6107575760405162461bcd60e51b8152600401610651906131f6565b6012546001600160a01b031661076b611c80565b6001600160a01b0316146107b75760405162461bcd60e51b815260206004820152601360248201527229b2b73232b91034b9903737ba1030b236b4b760691b6044820152606401610651565b6107c46000610523611c80565b61080c5760405162461bcd60e51b815260206004820152601960248201527853656e64657220686173206e6f742061646d696e20726f6c6560381b6044820152606401610651565b601380546001600160a01b038381166001600160a01b0319831681179093551690610846906000805160206135e483398151915290610df6565b60135461087d907f828634d95e775031b9ff576b159a8509d3053581a8c9c4d7d86899e0afcd882f906001600160a01b0316610df6565b6013546108a290600080516020613624833981519152906001600160a01b0316610df6565b6013546108c790600080516020613604833981519152906001600160a01b0316610df6565b6108df6000805160206135e483398151915282611853565b6109097f828634d95e775031b9ff576b159a8509d3053581a8c9c4d7d86899e0afcd882f82611853565b61092160008051602061362483398151915282611853565b61093960008051602061360483398151915282611853565b601354604080516001600160a01b03808516825290921660208301527fd58299b712891143e76310d5e664c4203c940a67db37cf856bdaa3c5c76a802c91015b60405180910390a15050565b60606002805461099490613243565b80601f01602080910402602001604051908101604052809291908181526020018280546109c090613243565b8015610a0d5780601f106109e257610100808354040283529160200191610a0d565b820191906000526020600020905b8154815290600101906020018083116109f057829003601f168201915b5050505050905090565b6000818152600460205260408120546001600160a01b0316610a905760405162461bcd60e51b815260206004820152602c60248201527f4552433732313a20617070726f76656420717565727920666f72206e6f6e657860448201526b34b9ba32b73a103a37b5b2b760a11b6064820152608401610651565b506000908152600660205260409020546001600160a01b031690565b6000610ab782611109565b9050806001600160a01b0316836001600160a01b03161415610b255760405162461bcd60e51b815260206004820152602160248201527f4552433732313a20617070726f76616c20746f2063757272656e74206f776e656044820152603960f91b6064820152608401610651565b806001600160a01b0316610b37611c80565b6001600160a01b03161480610b535750610b53816105ea611c80565b610bc55760405162461bcd60e51b815260206004820152603860248201527f4552433732313a20617070726f76652063616c6c6572206973206e6f74206f7760448201527f6e6572206e6f7220617070726f76656420666f7220616c6c00000000000000006064820152608401610651565b6106de8383611cc9565b60408051606081810183526001600160a01b03881660008181526011602090815290859020548452830152918101869052610c0d8782878787611d37565b610c635760405162461bcd60e51b815260206004820152602160248201527f5369676e657220616e64207369676e617475726520646f206e6f74206d6174636044820152600d60fb1b6064820152608401610651565b6001600160a01b038716600090815260116020526040902054610c8790600161328e565b6001600160a01b0388166000908152601160205260409081902091909155517f5845892132946850460bff5a0083f71031bc5bf9aadcd40f1de79423eac9b10b90610cd790899033908a906132a6565b60405180910390a1600080306001600160a01b0316888a604051602001610cff9291906132db565b60408051601f1981840301815290829052610d1991613312565b6000604051808303816000865af19150503d8060008114610d56576040519150601f19603f3d011682016040523d82523d6000602084013e610d5b565b606091505b509150915081610d965760405162461bcd60e51b81526004016106519060208082526004908201526319985a5b60e21b604082015260600190565b98975050505050505050565b60006001610daf60145490565b610db9919061332e565b905090565b610dcf610dc9611c80565b82611e05565b610deb5760405162461bcd60e51b815260040161065190613345565b6106de838383611edc565b600082815260208190526040902060010154610e1981610e14611c80565b612083565b6106de83836120e7565b6000610e2e8361122c565b8210610e905760405162461bcd60e51b815260206004820152602b60248201527f455243373231456e756d657261626c653a206f776e657220696e646578206f7560448201526a74206f6620626f756e647360a81b6064820152608401610651565b506001600160a01b03919091166000908152600860209081526040808320938352929052205490565b610ec1611c80565b6001600160a01b0316816001600160a01b031614610f395760405162461bcd60e51b815260206004820152602f60248201527f416363657373436f6e74726f6c3a2063616e206f6e6c792072656e6f756e636560448201526e103937b632b9903337b91039b2b63360891b6064820152608401610651565b610f438282612109565b5050565b610f61600080516020613604833981519152610523611c80565b610fd5576040805162461bcd60e51b81526020600482015260248101919091527f4552433732315072657365744d696e7465725061757365724175746f49643a2060448201527f6d75737420686176652070617573657220726f6c6520746f20756e70617573656064820152608401610651565b610fdd61212b565b565b6106de8383836040518060200160405280600081525061154f565b611005610dc9611c80565b61106a5760405162461bcd60e51b815260206004820152603060248201527f4552433732314275726e61626c653a2063616c6c6572206973206e6f74206f7760448201526f1b995c881b9bdc88185c1c1c9bdd995960821b6064820152608401610651565b611073816121c4565b50565b6000611081600a5490565b82106110e45760405162461bcd60e51b815260206004820152602c60248201527f455243373231456e756d657261626c653a20676c6f62616c20696e646578206f60448201526b7574206f6620626f756e647360a01b6064820152608401610651565b600a82815481106110f7576110f7613396565b90600052602060002001549050919050565b6000818152600460205260408120546001600160a01b0316806106ee5760405162461bcd60e51b815260206004820152602960248201527f4552433732313a206f776e657220717565727920666f72206e6f6e657869737460448201526832b73a103a37b5b2b760b91b6064820152608401610651565b61119a600080516020613624833981519152610523611c80565b61120c5760405162461bcd60e51b815260206004820152603d60248201527f4552433732315072657365744d696e7465725061757365724175746f49643a2060448201527f6d7573742068617665206d696e74657220726f6c6520746f206d696e740000006064820152608401610651565b61121e81611219600d5490565b61226b565b611073600d80546001019055565b60006001600160a01b0382166112975760405162461bcd60e51b815260206004820152602a60248201527f4552433732313a2062616c616e636520717565727920666f7220746865207a65604482015269726f206164647265737360b01b6064820152608401610651565b506001600160a01b031660009081526005602052604090205490565b6000610db960145490565b6112d8600080516020613604833981519152610523611c80565b61134a5760405162461bcd60e51b815260206004820152603e60248201527f4552433732315072657365744d696e7465725061757365724175746f49643a2060448201527f6d75737420686176652070617573657220726f6c6520746f20706175736500006064820152608401610651565b610fdd6123b9565b6012546001600160a01b0316611366611c80565b6001600160a01b03161461138c5760405162461bcd60e51b8152600401610651906131f6565b6113996000610523611c80565b6113b55760405162461bcd60e51b8152600401610651906131f6565b6012546001600160a01b03166113c9611c80565b6001600160a01b0316146114155760405162461bcd60e51b815260206004820152601360248201527229b2b73232b91034b9903737ba1030b236b4b760691b6044820152606401610651565b6114226000610523611c80565b61146a5760405162461bcd60e51b815260206004820152601960248201527853656e64657220686173206e6f742061646d696e20726f6c6560381b6044820152606401610651565b601280546001600160a01b038381166001600160a01b031983168117909355169061149790600090610df6565b6114a2600082611853565b601254604080516001600160a01b03808516825290921660208301527f7e644d79422f17c01e4894b5f4f588d331ebfa28653d42ae832dc59e38c9798f9101610979565b60008281526001602052604081206114fe9083612435565b9392505050565b6000918252602082815260408084206001600160a01b0393909316845291905290205460ff1690565b60606003805461099490613243565b610f43611548611c80565b8383612441565b61156061155a611c80565b83611e05565b61157c5760405162461bcd60e51b815260040161065190613345565b61158884848484612510565b50505050565b6000818152601660205260408120805460609291906115ac90613243565b80601f01602080910402602001604051908101604052809291908181526020018280546115d890613243565b80156116255780601f106115fa57610100808354040283529160200191611625565b820191906000526020600020905b81548152906001019060200180831161160857829003601f168201915b505050505090506000815111156116d5576000838152601660205260409020805461164f90613243565b80601f016020809104026020016040519081016040528092919081815260200182805461167b90613243565b80156116c85780601f1061169d576101008083540402835291602001916116c8565b820191906000526020600020905b8154815290600101906020018083116116ab57829003601f168201915b5050505050915050919050565b6116dd61187b565b6116e684612543565b6040516020016116f79291906133ac565b604051602081830303815290604052915050919050565b50919050565b60008181526001602052604081206106ee90612641565b6013546001600160a01b031661173f611c80565b6001600160a01b0316146117655760405162461bcd60e51b8152600401610651906131a6565b61177f6000805160206135e4833981519152610523611c80565b61179b5760405162461bcd60e51b8152600401610651906131a6565b6015546001600160a01b03828116911614156117f95760405162461bcd60e51b815260206004820152601c60248201527f6e65772070726f7879206164647265737320697320696e76616c6964000000006044820152606401610651565b601580546001600160a01b038381166001600160a01b031983168117909355604080519190921680825260208201939093527ffc15895015d07bcb2ae0459d79c7bfb40d36feedb31f55cc34e3ef404c86c5779101610979565b60008281526020819052604090206001015461187181610e14611c80565b6106de8383612109565b6060610db961264b565b6015546000906001600160a01b0316156119275760155460405163c455279160e01b81526001600160a01b03858116600483015291821691841690829063c455279190602401602060405180830381865afa1580156118e8573d6000803e3d6000fd5b505050506040513d601f19601f8201168201806040525081019061190c91906133db565b6001600160a01b031614156119255760019150506106ee565b505b6001600160a01b0380841660009081526007602090815260408083209386168352929052205460ff166114fe565b6000333014156119ac57600080368080601f0160208091040260200160405190810160405280939291908181526020018383808284376000920191909152505050503601516001600160a01b031691506119af9050565b50335b90565b6119bc8282611505565b610f43576000828152602081815260408083206001600160a01b03851684529091529020805460ff191660011790556119f3611c80565b6001600160a01b0316816001600160a01b0316837f2f8788117e7eff1d82e926ec794901d17c78024a50270940304540a733656f0d60405160405180910390a45050565b60006114fe836001600160a01b03841661265a565b60606000611a5b8360026133f8565b611a6690600261328e565b67ffffffffffffffff811115611a7e57611a7e612db8565b6040519080825280601f01601f191660200182016040528015611aa8576020820181803683370190505b509050600360fc1b81600081518110611ac357611ac3613396565b60200101906001600160f81b031916908160001a905350600f60fb1b81600181518110611af257611af2613396565b60200101906001600160f81b031916908160001a9053506000611b168460026133f8565b611b2190600161328e565b90505b6001811115611b99576f181899199a1a9b1b9c1cb0b131b232b360811b85600f1660108110611b5557611b55613396565b1a60f81b828281518110611b6b57611b6b613396565b60200101906001600160f81b031916908160001a90535060049490941c93611b9281613417565b9050611b24565b5083156114fe5760405162461bcd60e51b815260206004820181905260248201527f537472696e67733a20686578206c656e67746820696e73756666696369656e746044820152606401610651565b611bf28282611505565b15610f43576000828152602081815260408083206001600160a01b03851684529091529020805460ff19169055611c27611c80565b6001600160a01b0316816001600160a01b0316837ff6391f5c32d9c69d2a47ea670b442974b53935d1edc7fd64eb21e047a839171b60405160405180910390a45050565b60006114fe836001600160a01b0384166126a9565b6000610db9611955565b610f4382826040518060200160405280600081525061279c565b60006001600160e01b0319821663780e9d6360e01b14806106ee57506106ee826127cf565b600081815260066020526040902080546001600160a01b0319166001600160a01b0384169081179091558190611cfe82611109565b6001600160a01b03167f8c5be1e5ebec7d5bd14f71427d1e84f3dd0314c0f7b2291e5b200ac8c7c3b92560405160405180910390a45050565b60006001600160a01b038616611d7b5760405162461bcd60e51b815260206004820152600960248201526824a72fa9a4a3a722a960b91b6044820152606401610651565b6001611d8e611d898761280f565b61288c565b6040805160008152602081018083529290925260ff851690820152606081018690526080810185905260a0016020604051602081039080840390855afa158015611ddc573d6000803e3d6000fd5b505050602060405103516001600160a01b0316866001600160a01b031614905095945050505050565b6000818152600460205260408120546001600160a01b0316611e7e5760405162461bcd60e51b815260206004820152602c60248201527f4552433732313a206f70657261746f7220717565727920666f72206e6f6e657860448201526b34b9ba32b73a103a37b5b2b760a11b6064820152608401610651565b6000611e8983611109565b9050806001600160a01b0316846001600160a01b03161480611ec45750836001600160a01b0316611eb984610a17565b6001600160a01b0316145b80611ed45750611ed48185611885565b949350505050565b826001600160a01b0316611eef82611109565b6001600160a01b031614611f535760405162461bcd60e51b815260206004820152602560248201527f4552433732313a207472616e736665722066726f6d20696e636f72726563742060448201526437bbb732b960d91b6064820152608401610651565b6001600160a01b038216611fb55760405162461bcd60e51b8152602060048201526024808201527f4552433732313a207472616e7366657220746f20746865207a65726f206164646044820152637265737360e01b6064820152608401610651565b611fc08383836128bc565b611fcb600082611cc9565b6001600160a01b0383166000908152600560205260408120805460019290611ff490849061332e565b90915550506001600160a01b038216600090815260056020526040812080546001929061202290849061328e565b909155505060008181526004602052604080822080546001600160a01b0319166001600160a01b0386811691821790925591518493918716917fddf252ad1be2c89b69c2b068fc378daa952ba7f163c4a11628f55a4df523b3ef91a4505050565b61208d8282611505565b610f43576120a5816001600160a01b03166014611a4c565b6120b0836020611a4c565b6040516020016120c192919061342e565b60408051601f198184030181529082905262461bcd60e51b825261065191600401612f50565b6120f182826119b2565b60008281526001602052604090206106de9082611a37565b6121138282611be8565b60008281526001602052604090206106de9082611c6b565b600c5460ff166121745760405162461bcd60e51b815260206004820152601460248201527314185d5cd8589b194e881b9bdd081c185d5cd95960621b6044820152606401610651565b600c805460ff191690557f5db9ee0a495bf2e6ff9c91a7834c1ba4fdd244a5e8aa4e537bd38aeae4b073aa6121a7611c80565b6040516001600160a01b03909116815260200160405180910390a1565b60006121cf82611109565b90506121dd816000846128bc565b6121e8600083611cc9565b6001600160a01b038116600090815260056020526040812080546001929061221190849061332e565b909155505060008281526004602052604080822080546001600160a01b0319169055518391906001600160a01b038416907fddf252ad1be2c89b69c2b068fc378daa952ba7f163c4a11628f55a4df523b3ef908390a45050565b6001600160a01b0382166122c15760405162461bcd60e51b815260206004820181905260248201527f4552433732313a206d696e7420746f20746865207a65726f20616464726573736044820152606401610651565b6000818152600460205260409020546001600160a01b0316156123265760405162461bcd60e51b815260206004820152601c60248201527f4552433732313a20746f6b656e20616c7265616479206d696e746564000000006044820152606401610651565b612332600083836128bc565b6001600160a01b038216600090815260056020526040812080546001929061235b90849061328e565b909155505060008181526004602052604080822080546001600160a01b0319166001600160a01b03861690811790915590518392907fddf252ad1be2c89b69c2b068fc378daa952ba7f163c4a11628f55a4df523b3ef908290a45050565b600c5460ff16156123ff5760405162461bcd60e51b815260206004820152601060248201526f14185d5cd8589b194e881c185d5cd95960821b6044820152606401610651565b600c805460ff191660011790557f62e78cea01bee320cd4e420270b5ea74000d11b0c9f74754ebdbfc544b05a2586121a7611c80565b60006114fe83836128c7565b816001600160a01b0316836001600160a01b031614156124a35760405162461bcd60e51b815260206004820152601960248201527f4552433732313a20617070726f766520746f2063616c6c6572000000000000006044820152606401610651565b6001600160a01b03838116600081815260076020908152604080832094871680845294825291829020805460ff191686151590811790915591519182527f17307eab39ab6107e8899845ad3d59bd9653f200f220920489ca2b5937696c31910160405180910390a3505050565b61251b848484611edc565b612527848484846128f1565b6115885760405162461bcd60e51b8152600401610651906134a3565b6060816125675750506040805180820190915260018152600360fc1b602082015290565b8160005b8115612591578061257b816134f5565b915061258a9050600a83613526565b915061256b565b60008167ffffffffffffffff8111156125ac576125ac612db8565b6040519080825280601f01601f1916602001820160405280156125d6576020820181803683370190505b5090505b8415611ed4576125eb60018361332e565b91506125f8600a8661353a565b61260390603061328e565b60f81b81838151811061261857612618613396565b60200101906001600160f81b031916908160001a90535061263a600a86613526565b94506125da565b60006106ee825490565b6060600e805461099490613243565b60008181526001830160205260408120546126a1575081546001818101845560008481526020808220909301849055845484825282860190935260409020919091556106ee565b5060006106ee565b600081815260018301602052604081205480156127925760006126cd60018361332e565b85549091506000906126e19060019061332e565b905081811461274657600086600001828154811061270157612701613396565b906000526020600020015490508087600001848154811061272457612724613396565b6000918252602080832090910192909255918252600188019052604090208390555b85548690806127575761275761354e565b6001900381819060005260206000200160009055905585600101600086815260200190815260200160002060009055600193505050506106ee565b60009150506106ee565b6127a6838361226b565b6127b360008484846128f1565b6106de5760405162461bcd60e51b8152600401610651906134a3565b60006001600160e01b031982166380ac58cd60e01b148061280057506001600160e01b03198216635b5e139f60e01b145b806106ee57506106ee826129f6565b60006040518060600160405280602581526020016135bf602591398051602091820120835184830151604080870151805190860120905161286f950193845260208401929092526001600160a01b03166040830152606082015260800190565b604051602081830303815290604052805190602001209050919050565b600061289760105490565b60405161190160f01b602082015260228101919091526042810183905260620161286f565b6106de838383612a1b565b60008260000182815481106128de576128de613396565b9060005260206000200154905092915050565b60006001600160a01b0384163b156129eb57836001600160a01b031663150b7a0261291a611c80565b8786866040518563ffffffff1660e01b815260040161293c9493929190613564565b6020604051808303816000875af1925050508015612977575060408051601f3d908101601f19168201909252612974918101906135a1565b60015b6129d1573d8080156129a5576040519150601f19603f3d011682016040523d82523d6000602084013e6129aa565b606091505b5080516129c95760405162461bcd60e51b8152600401610651906134a3565b805181602001fd5b6001600160e01b031916630a85bd0160e11b149050611ed4565b506001949350505050565b60006001600160e01b03198216635a05180f60e01b14806106ee57506106ee82612a8d565b612a26838383612ac2565b600c5460ff16156106de5760405162461bcd60e51b815260206004820152602b60248201527f4552433732315061757361626c653a20746f6b656e207472616e73666572207760448201526a1a1a5b19481c185d5cd95960aa1b6064820152608401610651565b60006001600160e01b03198216637965db0b60e01b14806106ee57506301ffc9a760e01b6001600160e01b03198316146106ee565b6001600160a01b038316612b1d57612b1881600a80546000838152600b60205260408120829055600182018355919091527fc65a7bb8d6351c1cf70c95a316cc6a92839c986682d98bc35f958f4883f9d2a80155565b612b40565b816001600160a01b0316836001600160a01b031614612b4057612b408382612b7a565b6001600160a01b038216612b57576106de81612c17565b826001600160a01b0316826001600160a01b0316146106de576106de8282612cc6565b60006001612b878461122c565b612b91919061332e565b600083815260096020526040902054909150808214612be4576001600160a01b03841660009081526008602090815260408083208584528252808320548484528184208190558352600990915290208190555b5060009182526009602090815260408084208490556001600160a01b039094168352600881528383209183525290812055565b600a54600090612c299060019061332e565b6000838152600b6020526040812054600a8054939450909284908110612c5157612c51613396565b9060005260206000200154905080600a8381548110612c7257612c72613396565b6000918252602080832090910192909255828152600b9091526040808220849055858252812055600a805480612caa57612caa61354e565b6001900381819060005260206000200160009055905550505050565b6000612cd18361122c565b6001600160a01b039093166000908152600860209081526040808320868452825280832085905593825260099052919091209190915550565b828054612d1690613243565b90600052602060002090601f016020900481019282612d385760008555612d7e565b82601f10612d5157805160ff1916838001178555612d7e565b82800160010185558215612d7e579182015b82811115612d7e578251825591602001919060010190612d63565b50612d8a929150612d8e565b5090565b5b80821115612d8a5760008155600101612d8f565b6001600160a01b038116811461107357600080fd5b634e487b7160e01b600052604160045260246000fd5b600067ffffffffffffffff80841115612de957612de9612db8565b604051601f8501601f19908116603f01168101908282118183101715612e1157612e11612db8565b81604052809350858152868686011115612e2a57600080fd5b858560208301376000602087830101525050509392505050565b60008060408385031215612e5757600080fd5b8235612e6281612da3565b9150602083013567ffffffffffffffff811115612e7e57600080fd5b8301601f81018513612e8f57600080fd5b612e9e85823560208401612dce565b9150509250929050565b6001600160e01b03198116811461107357600080fd5b600060208284031215612ed057600080fd5b81356114fe81612ea8565b600060208284031215612eed57600080fd5b81356114fe81612da3565b60005b83811015612f13578181015183820152602001612efb565b838111156115885750506000910152565b60008151808452612f3c816020860160208601612ef8565b601f01601f19169290920160200192915050565b6020815260006114fe6020830184612f24565b600060208284031215612f7557600080fd5b5035919050565b60008060408385031215612f8f57600080fd5b8235612f9a81612da3565b946020939093013593505050565b600082601f830112612fb957600080fd5b6114fe83833560208501612dce565b600080600080600060a08688031215612fe057600080fd5b8535612feb81612da3565b9450602086013567ffffffffffffffff81111561300757600080fd5b61301388828901612fa8565b9450506040860135925060608601359150608086013560ff8116811461303857600080fd5b809150509295509295909350565b60008060006060848603121561305b57600080fd5b833561306681612da3565b9250602084013561307681612da3565b929592945050506040919091013590565b6000806040838503121561309a57600080fd5b8235915060208301356130ac81612da3565b809150509250929050565b600080604083850312156130ca57600080fd5b50508035926020909101359150565b600080604083850312156130ec57600080fd5b82356130f781612da3565b9150602083013580151581146130ac57600080fd5b6000806000806080858703121561312257600080fd5b843561312d81612da3565b9350602085013561313d81612da3565b925060408501359150606085013567ffffffffffffffff81111561316057600080fd5b61316c87828801612fa8565b91505092959194509250565b6000806040838503121561318b57600080fd5b823561319681612da3565b915060208301356130ac81612da3565b60208082526030908201527f4552433732315472616461626c65236f776e6572734f6e6c793a204f4e4c595f60408201526f13d41154905513d497d0531313d5d15160821b606082015260800190565b6020808252602d908201527f4552433732315472616461626c65236f776e6572734f6e6c793a204f4e4c595f60408201526c105113525397d0531313d5d151609a1b606082015260800190565b600181811c9082168061325757607f821691505b6020821081141561170e57634e487b7160e01b600052602260045260246000fd5b634e487b7160e01b600052601160045260246000fd5b600082198211156132a1576132a1613278565b500190565b6001600160a01b038481168252831660208201526060604082018190526000906132d290830184612f24565b95945050505050565b600083516132ed818460208801612ef8565b60609390931b6bffffffffffffffffffffffff19169190920190815260140192915050565b60008251613324818460208701612ef8565b9190910192915050565b60008282101561334057613340613278565b500390565b60208082526031908201527f4552433732313a207472616e736665722063616c6c6572206973206e6f74206f6040820152701ddb995c881b9bdc88185c1c1c9bdd9959607a1b606082015260800190565b634e487b7160e01b600052603260045260246000fd5b600083516133be818460208801612ef8565b8351908301906133d2818360208801612ef8565b01949350505050565b6000602082840312156133ed57600080fd5b81516114fe81612da3565b600081600019048311821515161561341257613412613278565b500290565b60008161342657613426613278565b506000190190565b7f416363657373436f6e74726f6c3a206163636f756e7420000000000000000000815260008351613466816017850160208801612ef8565b7001034b99036b4b9b9b4b733903937b6329607d1b6017918401918201528351613497816028840160208801612ef8565b01602801949350505050565b60208082526032908201527f4552433732313a207472616e7366657220746f206e6f6e20455243373231526560408201527131b2b4bb32b91034b6b83632b6b2b73a32b960711b606082015260800190565b600060001982141561350957613509613278565b5060010190565b634e487b7160e01b600052601260045260246000fd5b60008261353557613535613510565b500490565b60008261354957613549613510565b500690565b634e487b7160e01b600052603160045260246000fd5b6001600160a01b038581168252841660208201526040810183905260806060820181905260009061359790830184612f24565b9695505050505050565b6000602082840312156135b357600080fd5b81516114fe81612ea856fe4d6574615472616e73616374696f6e286e6f6e63652c66726f6d2c7369676e61747572652997667070c54ef182b0f5858b034beac1b6f3089aa2d3188bb1e8929f4fa9b92965d7a28e3265b37a6474929f336521b332c1681b933f6cb9f3376673440d862a9f2df0fed2c77648de5860a4cc508cd0818c85b8b8a1ab4ceeef8d981c8956a6a2646970667358221220a88c07a35a0897cb080b8818c0732cedf2c22c58e009685db743ac95b5e9f5c064736f6c634300080c0033454950373132446f6d61696e28737472696e67206e616d652c737472696e672076657273696f6e2c6164647265737320766572696679696e67436f6e74726163742c627974657333322073616c742965d7a28e3265b37a6474929f336521b332c1681b933f6cb9f3376673440d862a9f2df0fed2c77648de5860a4cc508cd0818c85b8b8a1ab4ceeef8d981c8956a6",
  "linkReferences": {},
  "deployedLinkReferences": {}
}