{
  "_format": "hh-sol-artifact-1",
  "contractName": "RoveMarketPlaceERC721Upgradeable",
  "sourceName": "contracts/goods/RoveMarketPlaceERC721Upgradeable.sol",
  "abi": [
    {
      "anonymous": false,
      "inputs": [
        {
          "indexed": false,
          "internalType": "address",
          "name": "owner",
          "type": "address"
        },
        {
          "indexed": false,
          "internalType": "address",
          "name": "operator",
          "type": "address"
        },
        {
          "indexed": false,
          "internalType": "bool",
          "name": "approved",
          "type": "bool"
        }
      ],
      "name": "ApprovalForAll",
      "type": "event"
    },
    {
      "anonymous": false,
      "inputs": [
        {
          "indexed": true,
          "internalType": "address",
          "name": "beneficiary",
          "type": "address"
        },
        {
          "indexed": false,
          "internalType": "uint256",
          "name": "amount",
          "type": "uint256"
        }
      ],
      "name": "BalanceWithdrawn",
      "type": "event"
    },
    {
      "anonymous": false,
      "inputs": [
        {
          "indexed": false,
          "internalType": "uint8",
          "name": "version",
          "type": "uint8"
        }
      ],
      "name": "Initialized",
      "type": "event"
    },
    {
      "anonymous": false,
      "inputs": [
        {
          "indexed": true,
          "internalType": "bytes32",
          "name": "offeringId",
          "type": "bytes32"
        },
        {
          "indexed": true,
          "internalType": "address",
          "name": "buyer",
          "type": "address"
        }
      ],
      "name": "OfferingClosed",
      "type": "event"
    },
    {
      "anonymous": false,
      "inputs": [
        {
          "indexed": true,
          "internalType": "bytes32",
          "name": "offeringId",
          "type": "bytes32"
        },
        {
          "indexed": true,
          "internalType": "address",
          "name": "hostContract",
          "type": "address"
        },
        {
          "indexed": true,
          "internalType": "address",
          "name": "offerer",
          "type": "address"
        },
        {
          "indexed": false,
          "internalType": "uint256",
          "name": "tokenId",
          "type": "uint256"
        },
        {
          "indexed": false,
          "internalType": "uint256",
          "name": "price",
          "type": "uint256"
        }
      ],
      "name": "OfferingPlaced",
      "type": "event"
    },
    {
      "anonymous": false,
      "inputs": [
        {
          "indexed": false,
          "internalType": "address",
          "name": "previousOperator",
          "type": "address"
        },
        {
          "indexed": false,
          "internalType": "address",
          "name": "newOperator",
          "type": "address"
        }
      ],
      "name": "OperatorChanged",
      "type": "event"
    },
    {
      "anonymous": false,
      "inputs": [
        {
          "indexed": false,
          "internalType": "address",
          "name": "previousOperator",
          "type": "address"
        },
        {
          "indexed": false,
          "internalType": "address",
          "name": "newOperator",
          "type": "address"
        }
      ],
      "name": "ParameterControlChanged",
      "type": "event"
    },
    {
      "anonymous": false,
      "inputs": [
        {
          "indexed": true,
          "internalType": "bytes32",
          "name": "role",
          "type": "bytes32"
        },
        {
          "indexed": true,
          "internalType": "bytes32",
          "name": "previousAdminRole",
          "type": "bytes32"
        },
        {
          "indexed": true,
          "internalType": "bytes32",
          "name": "newAdminRole",
          "type": "bytes32"
        }
      ],
      "name": "RoleAdminChanged",
      "type": "event"
    },
    {
      "anonymous": false,
      "inputs": [
        {
          "indexed": true,
          "internalType": "bytes32",
          "name": "role",
          "type": "bytes32"
        },
        {
          "indexed": true,
          "internalType": "address",
          "name": "account",
          "type": "address"
        },
        {
          "indexed": true,
          "internalType": "address",
          "name": "sender",
          "type": "address"
        }
      ],
      "name": "RoleGranted",
      "type": "event"
    },
    {
      "anonymous": false,
      "inputs": [
        {
          "indexed": true,
          "internalType": "bytes32",
          "name": "role",
          "type": "bytes32"
        },
        {
          "indexed": true,
          "internalType": "address",
          "name": "account",
          "type": "address"
        },
        {
          "indexed": true,
          "internalType": "address",
          "name": "sender",
          "type": "address"
        }
      ],
      "name": "RoleRevoked",
      "type": "event"
    },
    {
      "inputs": [],
      "name": "DEFAULT_ADMIN_ROLE",
      "outputs": [
        {
          "internalType": "bytes32",
          "name": "",
          "type": "bytes32"
        }
      ],
      "stateMutability": "view",
      "type": "function"
    },
    {
      "inputs": [],
      "name": "arrayOffering",
      "outputs": [
        {
          "internalType": "bytes32[]",
          "name": "",
          "type": "bytes32[]"
        }
      ],
      "stateMutability": "view",
      "type": "function"
    },
    {
      "inputs": [
        {
          "internalType": "address",
          "name": "_newOperator",
          "type": "address"
        }
      ],
      "name": "changeOperator",
      "outputs": [],
      "stateMutability": "nonpayable",
      "type": "function"
    },
    {
      "inputs": [
        {
          "internalType": "address",
          "name": "_new",
          "type": "address"
        }
      ],
      "name": "changeParameterControl",
      "outputs": [],
      "stateMutability": "nonpayable",
      "type": "function"
    },
    {
      "inputs": [
        {
          "internalType": "bytes32",
          "name": "_offeringId",
          "type": "bytes32"
        }
      ],
      "name": "closeOffering",
      "outputs": [],
      "stateMutability": "payable",
      "type": "function"
    },
    {
      "inputs": [
        {
          "internalType": "bytes32",
          "name": "role",
          "type": "bytes32"
        }
      ],
      "name": "getRoleAdmin",
      "outputs": [
        {
          "internalType": "bytes32",
          "name": "",
          "type": "bytes32"
        }
      ],
      "stateMutability": "view",
      "type": "function"
    },
    {
      "inputs": [
        {
          "internalType": "bytes32",
          "name": "role",
          "type": "bytes32"
        },
        {
          "internalType": "address",
          "name": "account",
          "type": "address"
        }
      ],
      "name": "grantRole",
      "outputs": [],
      "stateMutability": "nonpayable",
      "type": "function"
    },
    {
      "inputs": [
        {
          "internalType": "bytes32",
          "name": "role",
          "type": "bytes32"
        },
        {
          "internalType": "address",
          "name": "account",
          "type": "address"
        }
      ],
      "name": "hasRole",
      "outputs": [
        {
          "internalType": "bool",
          "name": "",
          "type": "bool"
        }
      ],
      "stateMutability": "view",
      "type": "function"
    },
    {
      "inputs": [
        {
          "internalType": "address",
          "name": "operator_",
          "type": "address"
        },
        {
          "internalType": "address",
          "name": "parameterControl_",
          "type": "address"
        }
      ],
      "name": "initialize",
      "outputs": [],
      "stateMutability": "nonpayable",
      "type": "function"
    },
    {
      "inputs": [
        {
          "internalType": "bytes32",
          "name": "_offeringId",
          "type": "bytes32"
        }
      ],
      "name": "offererCloseOffering",
      "outputs": [],
      "stateMutability": "nonpayable",
      "type": "function"
    },
    {
      "inputs": [],
      "name": "operator",
      "outputs": [
        {
          "internalType": "address",
          "name": "",
          "type": "address"
        }
      ],
      "stateMutability": "view",
      "type": "function"
    },
    {
      "inputs": [
        {
          "internalType": "bytes32",
          "name": "_offeringId",
          "type": "bytes32"
        }
      ],
      "name": "operatorCloseOffering",
      "outputs": [],
      "stateMutability": "nonpayable",
      "type": "function"
    },
    {
      "inputs": [],
      "name": "parameterControl",
      "outputs": [
        {
          "internalType": "address",
          "name": "",
          "type": "address"
        }
      ],
      "stateMutability": "view",
      "type": "function"
    },
    {
      "inputs": [
        {
          "internalType": "address",
          "name": "_hostContract",
          "type": "address"
        },
        {
          "internalType": "uint256",
          "name": "_tokenId",
          "type": "uint256"
        },
        {
          "internalType": "address",
          "name": "_erc20Token",
          "type": "address"
        },
        {
          "internalType": "uint256",
          "name": "_price",
          "type": "uint256"
        },
        {
          "internalType": "bool",
          "name": "_withdrawImm",
          "type": "bool"
        }
      ],
      "name": "placeOffering",
      "outputs": [
        {
          "internalType": "bytes32",
          "name": "",
          "type": "bytes32"
        }
      ],
      "stateMutability": "nonpayable",
      "type": "function"
    },
    {
      "inputs": [
        {
          "internalType": "bytes32",
          "name": "role",
          "type": "bytes32"
        },
        {
          "internalType": "address",
          "name": "account",
          "type": "address"
        }
      ],
      "name": "renounceRole",
      "outputs": [],
      "stateMutability": "nonpayable",
      "type": "function"
    },
    {
      "inputs": [
        {
          "internalType": "bytes32",
          "name": "role",
          "type": "bytes32"
        },
        {
          "internalType": "address",
          "name": "account",
          "type": "address"
        }
      ],
      "name": "revokeRole",
      "outputs": [],
      "stateMutability": "nonpayable",
      "type": "function"
    },
    {
      "inputs": [
        {
          "internalType": "bytes4",
          "name": "interfaceId",
          "type": "bytes4"
        }
      ],
      "name": "supportsInterface",
      "outputs": [
        {
          "internalType": "bool",
          "name": "",
          "type": "bool"
        }
      ],
      "stateMutability": "view",
      "type": "function"
    },
    {
      "inputs": [
        {
          "internalType": "address",
          "name": "_address",
          "type": "address"
        },
        {
          "internalType": "address",
          "name": "_erc_20_token",
          "type": "address"
        }
      ],
      "name": "viewBalances",
      "outputs": [
        {
          "internalType": "uint256",
          "name": "",
          "type": "uint256"
        }
      ],
      "stateMutability": "view",
      "type": "function"
    },
    {
      "inputs": [
        {
          "internalType": "bytes32",
          "name": "_offeringId",
          "type": "bytes32"
        }
      ],
      "name": "viewOfferingNFT",
      "outputs": [
        {
          "internalType": "address",
          "name": "",
          "type": "address"
        },
        {
          "internalType": "uint256",
          "name": "",
          "type": "uint256"
        },
        {
          "internalType": "uint256",
          "name": "",
          "type": "uint256"
        },
        {
          "internalType": "bool",
          "name": "",
          "type": "bool"
        }
      ],
      "stateMutability": "view",
      "type": "function"
    },
    {
      "inputs": [
        {
          "internalType": "address",
          "name": "_erc20Token",
          "type": "address"
        }
      ],
      "name": "withdrawBalance",
      "outputs": [],
      "stateMutability": "nonpayable",
      "type": "function"
    }
  ],
  "bytecode": "0x608060405234801561001057600080fd5b5061290a806100206000396000f3fe60806040526004361061011f5760003560e01c806363f008b0116100a0578063bda06b3711610064578063bda06b3714610339578063c684c35e1461035b578063d547741f1461037b578063e2b4f2b71461039b578063ec7bca54146103e157600080fd5b806363f008b0146102a4578063756af45f146102c457806391d14854146102e457806394a58f7e14610304578063a217fddf1461032457600080fd5b8063330ef231116100e7578063330ef231146101f957806336568abe1461020c57806336748e0a1461022c578063485cc95514610264578063570ca7351461028457600080fd5b806301ffc9a71461012457806306394c9b14610159578063073d19381461017b578063248a9ca31461019b5780632f2ff15d146101d9575b600080fd5b34801561013057600080fd5b5061014461013f366004612352565b610460565b60405190151581526020015b60405180910390f35b34801561016557600080fd5b50610179610174366004612391565b610497565b005b34801561018757600080fd5b506101796101963660046123ae565b6105bd565b3480156101a757600080fd5b506101cb6101b63660046123ae565b60009081526097602052604090206001015490565b604051908152602001610150565b3480156101e557600080fd5b506101796101f43660046123c7565b610668565b6101796102073660046123ae565b610692565b34801561021857600080fd5b506101796102273660046123c7565b6111f5565b34801561023857600080fd5b5060cb5461024c906001600160a01b031681565b6040516001600160a01b039091168152602001610150565b34801561027057600080fd5b5061017961027f3660046123f7565b611273565b34801561029057600080fd5b5060ca5461024c906001600160a01b031681565b3480156102b057600080fd5b506101796102bf366004612391565b611343565b3480156102d057600080fd5b506101796102df366004612391565b611436565b3480156102f057600080fd5b506101446102ff3660046123c7565b61174c565b34801561031057600080fd5b506101cb61031f366004612433565b611777565b34801561033057600080fd5b506101cb600081565b34801561034557600080fd5b5061034e611b64565b6040516101509190612492565b34801561036757600080fd5b506101796103763660046123ae565b611bbc565b34801561038757600080fd5b506101796103963660046123c7565b611ca9565b3480156103a757600080fd5b506101cb6103b63660046123f7565b6001600160a01b03918216600090815260cc6020908152604080832093909416825291909152205490565b3480156103ed57600080fd5b506104346103fc3660046123ae565b600090815260cd602052604090206001810154600282015460038301546004909301546001600160a01b039092169390929160ff1690565b604080516001600160a01b03909516855260208501939093529183015215156060820152608001610150565b60006001600160e01b03198216637965db0b60e01b148061049157506301ffc9a760e01b6001600160e01b03198316145b92915050565b60ca546001600160a01b031633146104ca5760405162461bcd60e51b81526004016104c1906124d6565b60405180910390fd5b6104d560003361174c565b6104f15760405162461bcd60e51b81526004016104c1906124d6565b6001600160a01b0381166105395760405162461bcd60e51b815260206004820152600f60248201526e105111149154d4d7d2539590531251608a1b60448201526064016104c1565b60ca80546001600160a01b038381166001600160a01b031983168117909355169061056690600090611cce565b610571600082611cd8565b60ca54604080516001600160a01b03808516825290921660208301527fd58299b712891143e76310d5e664c4203c940a67db37cf856bdaa3c5c76a802c91015b60405180910390a15050565b600081815260cd60205260409020546001600160a01b031633146106125760405162461bcd60e51b815260206004820152600c60248201526b4f4646455245525f4f4e4c5960a01b60448201526064016104c1565b600081815260cd602052604080822060048101805460ff191660011790555490516001600160a01b039091169183917f0cfb1c3841b1ebe2ad43e9d641c358c0d40c4a10fc3c2ee73fd956a2658ed1449190a350565b60008281526097602052604090206001015461068381611d3f565b61068d8383611d4c565b505050565b600260015414156106b55760405162461bcd60e51b81526004016104c1906124fd565b60026001818155600083815260cd60209081526040808320815160e0808201845282546001600160a01b0390811680845297840154811683870181905298840154838601819052600385015460608086019190915260049095015460ff8082161515608080880191909152610100830490941660a0808801829052600160a81b909304909116151560c080880191909152885195860189528a86529885018a9052968401899052948301889052908201879052928101869052938401859052959485949193909215801592906108b7575060a08701516040805160e081018252338082526060808c0180516020850152518385015292516370a0823160e01b8152600481019190915290918201906001600160a01b038416906370a0823190602401602060405180830381865afa1580156107f4573d6000803e3d6000fd5b505050506040513d601f19601f820116820180604052508101906108189190612534565b8152604051636eb1769f60e11b81523360048201523060248201526020909101906001600160a01b0384169063dd62ed3e90604401602060405180830381865afa15801561086a573d6000803e3d6000fd5b505050506040513d601f19601f8201168201806040525081019061088e9190612534565b81526020018960a001516001600160a01b031681526020018960c0015115158152509150610910565b6040518060e00160405280336001600160a01b031681526020018960600151815260200189606001518152602001600081526020016000815260200160006001600160a01b031681526020018960c00151151581525091505b6040516331a9108f60e11b8152600481018690526001600160a01b038086169190881690636352211e90602401602060405180830381865afa15801561095a573d6000803e3d6000fd5b505050506040513d601f19601f8201168201806040525081019061097e919061254d565b6001600160a01b0316146109cb5760405162461bcd60e51b815260206004820152601460248201527324a72b20a624a22fa2a9219b9918afa7aba722a960611b60448201526064016104c1565b8215610a7557816020015182608001511015610a1f5760405162461bcd60e51b8152602060048201526013602482015272115490cb4c8c17d393d517d054141493d59151606a1b60448201526064016104c1565b816020015182606001511015610a705760405162461bcd60e51b8152602060048201526016602482015275115490cb4c8c17d09053105390d157d253959053125160521b60448201526064016104c1565b610ab9565b8160200151341015610ab95760405162461bcd60e51b815260206004820152600d60248201526c159053155157d2539590531251609a1b60448201526064016104c1565b600089815260cd602052604090206004015460ff1615610b0d5760405162461bcd60e51b815260206004820152600f60248201526e13d1919154925391d7d0d313d4d151608a1b60448201526064016104c1565b8151604051632142170760e11b81526001600160a01b038816916342842e0e91610b3d9188918a9060040161256a565b600060405180830381600087803b158015610b5757600080fd5b505af1158015610b6b573d6000803e3d6000fd5b505060cb546040805160a0810182526000808252602082018190528183018190526060820181905260808201529051636d12dce160e01b81526001600160a01b03909216935091508290636d12dce190610bea906004016020808252600e908201526d13505492d15517d091539151925560921b604082015260600190565b602060405180830381865afa158015610c07573d6000803e3d6000fd5b505050506040513d601f19601f82011682018060405250810190610c2b9190612534565b6040820181905215610e515761271081604001518560400151610c4e91906125a4565b610c5891906125c3565b60608201528415610dee5760405163349f642f60e11b815260206004820152600a6024820152692927ab22afaa27a5a2a760b11b60448201526000906001600160a01b0384169063693ec85e90606401600060405180830381865afa158015610cc5573d6000803e3d6000fd5b505050506040513d6000823e601f3d908101601f19168201604052610ced919081019061262b565b90508051600014610dec57610d19610d138c60a001516001600160a01b03166014611dd2565b82611f75565b15610dec57604051636d12dce160e01b81526020600482015260136024820152722224a9a1a7aaa72a2fa927ab22afaa27a5a2a760691b60448201526001600160a01b03841690636d12dce190606401602060405180830381865afa158015610d86573d6000803e3d6000fd5b505050506040513d601f19601f82011682018060405250810190610daa9190612534565b6080830181905215610dec5761271082608001518360600151610dcd91906125a4565b610dd791906125c3565b8260600151610de691906126d8565b60608301525b505b806060015184602001818151610e0491906126d8565b905250606081015160ca546001600160a01b03908116600090815260cc6020908152604080832060a08a015190941683529290529081208054909190610e4b9084906126ef565b90915550505b8360c00151610f4b578415610f0057835160408086015190516323b872dd60e01b81526000926001600160a01b038716926323b872dd92610e979291309160040161256a565b6020604051808303816000875af1158015610eb6573d6000803e3d6000fd5b505050506040513d601f19601f82011682018060405250810190610eda9190612707565b9050600181151514610efe5760405162461bcd60e51b81526004016104c190612724565b505b6020808501516001600160a01b03808916600090815260cc8452604080822060a08a01519093168252919093528220805491929091610f409084906126ef565b909155506111919050565b84156110d757835160408086015190516323b872dd60e01b81526000926001600160a01b038716926323b872dd92610f889291309160040161256a565b6020604051808303816000875af1158015610fa7573d6000803e3d6000fd5b505050506040513d601f19601f82011682018060405250810190610fcb9190612707565b90506001811515146110125760405162461bcd60e51b815260206004820152601060248201526f5452414e534645525f4641494c5f453160801b60448201526064016104c1565b8a5160208601516040516323b872dd60e01b81526001600160a01b038716926323b872dd92611047923092919060040161256a565b6020604051808303816000875af1158015611066573d6000803e3d6000fd5b505050506040513d601f19601f8201168201806040525081019061108a9190612707565b90506001811515146110d15760405162461bcd60e51b815260206004820152601060248201526f2a2920a729a322a92fa320a4a62fa29960811b60448201526064016104c1565b50611191565b600047116110f75760405162461bcd60e51b81526004016104c19061274b565b895160208501516040516000926001600160a01b031691908381818185875af1925050503d8060008114611147576040519150601f19603f3d011682016040523d82523d6000602084013e61114c565b606091505b505090508061118f5760405162461bcd60e51b815260206004820152600f60248201526e2a2920a729a322a92fa320a4a62fa760891b60448201526064016104c1565b505b60008b815260cd6020526040808220600401805460ff19166001179055855190516001600160a01b03909116918d917f0cfb1c3841b1ebe2ad43e9d641c358c0d40c4a10fc3c2ee73fd956a2658ed1449190a3505060018055505050505050505050565b6001600160a01b03811633146112655760405162461bcd60e51b815260206004820152602f60248201527f416363657373436f6e74726f6c3a2063616e206f6e6c792072656e6f756e636560448201526e103937b632b9903337b91039b2b63360891b60648201526084016104c1565b61126f8282611cd8565b5050565b600061127f6001611fb6565b90508015611297576000805461ff0019166101001790555b60ca80546001600160a01b0319166001600160a01b0385169081179091556112c190600090611cce565b60ca546001600160a01b031633146112de576112de600033611cd8565b60cb80546001600160a01b0319166001600160a01b038416179055801561068d576000805461ff0019169055604051600181527f7f26b83ff96e1f2b6a682f133852f6798a09c465da95921460cefb38474024989060200160405180910390a1505050565b60ca546001600160a01b0316331461136d5760405162461bcd60e51b81526004016104c1906124d6565b61137860003361174c565b6113945760405162461bcd60e51b81526004016104c1906124d6565b6001600160a01b0381166113dc5760405162461bcd60e51b815260206004820152600f60248201526e105111149154d4d7d2539590531251608a1b60448201526064016104c1565b60cb80546001600160a01b038381166001600160a01b031983168117909355604080519190921680825260208201939093527fff8b036e9641959ee1d5b4efb05f8fa0e816d57e2879aa0758b191993511f7dd91016105b1565b600260015414156114595760405162461bcd60e51b81526004016104c1906124fd565b600260015533600081815260cc602090815260408083206001600160a01b0386168452909152902054806114c65760405162461bcd60e51b815260206004820152601460248201527357495448445241575f554e415641494c41424c4560601b60448201526064016104c1565b6001600160a01b0383161561164d576040516370a0823160e01b815230600482015283906000906001600160a01b038316906370a0823190602401602060405180830381865afa15801561151e573d6000803e3d6000fd5b505050506040513d601f19601f820116820180604052508101906115429190612534565b6001600160a01b03808616600090815260cc60209081526040808320938a168352929052205490915081101561158a5760405162461bcd60e51b81526004016104c19061274b565b6001600160a01b03848116600081815260cc602090815260408083208a8616845290915280822054905163a9059cbb60e01b81526004810193909352602483018190529290919085169063a9059cbb906044016020604051808303816000875af11580156115fc573d6000803e3d6000fd5b505050506040513d601f19601f820116820180604052508101906116209190612707565b90506001811515146116445760405162461bcd60e51b81526004016104c190612724565b505050506116e2565b6000471161166d5760405162461bcd60e51b81526004016104c19061274b565b6000826001600160a01b03168260405160006040518083038185875af1925050503d80600081146116ba576040519150601f19603f3d011682016040523d82523d6000602084013e6116bf565b606091505b50509050806116e05760405162461bcd60e51b81526004016104c190612724565b505b6001600160a01b03808316600081815260cc6020908152604080832094881683529390528281205590517fddc398b321237a8d40ac914388309c2f52a08c134e4dc4ce61e32f57cb7d80f19061173b9084815260200190565b60405180910390a250506001805550565b60009182526097602090815260408084206001600160a01b0393909316845291905290205460ff1690565b60006002600154141561179c5760405162461bcd60e51b81526004016104c1906124fd565b60026001556040516331a9108f60e11b8152600481018690523390879082906001600160a01b03831690636352211e90602401602060405180830381865afa1580156117ec573d6000803e3d6000fd5b505050506040513d601f19601f82011682018060405250810190611810919061254d565b6001600160a01b03161461185d5760405162461bcd60e51b815260206004820152601460248201527324a72b20a624a22fa2a9219b9918afa7aba722a960611b60448201526064016104c1565b60405163e985e9c560e01b81526001600160a01b0383811660048301523060248301526000919083169063e985e9c590604401602060405180830381865afa1580156118ad573d6000803e3d6000fd5b505050506040513d601f19601f820116820180604052508101906118d19190612707565b905060018115151461191c5760405162461bcd60e51b8152602060048201526014602482015273115490cb4dcc8c57d393d517d054141493d5915160621b60448201526064016104c1565b61192a60c980546001019055565b600061193560c95490565b90506000818b8b6040516020016119719392919092835260609190911b6bffffffffffffffffffffffff19166020830152603482015260540190565b6040516020818303038152906040528051906020012090508460cd600083815260200190815260200160002060000160006101000a8154816001600160a01b0302191690836001600160a01b031602179055508a60cd600083815260200190815260200160002060010160006101000a8154816001600160a01b0302191690836001600160a01b031602179055508960cd6000838152602001908152602001600020600201819055508760cd6000838152602001908152602001600020600301819055508660cd600083815260200190815260200160002060040160156101000a81548160ff02191690831515021790555060006001600160a01b0316896001600160a01b031614611ab157600081815260cd602052604090206004018054610100600160a81b0319166101006001600160a01b038c1602179055611ad2565b600081815260cd602052604090206004018054610100600160a81b03191690555b60ce80546001810182556000919091527fd36cd1c74ef8d7326d8021b776c18fb5a5724b7f7bc93c2f42e43e10ef27d12a01819055604080518b8152602081018a90526001600160a01b0387811692908e169184917f9dba34c4719780505d509c311c67b3b9681265dd28ebfc72dd738fa57cba0fda910160405180910390a4600180559a9950505050505050505050565b606060ce805480602002602001604051908101604052809291908181526020018280548015611bb257602002820191906000526020600020905b815481526020019060010190808311611b9e575b5050505050905090565b60ca546001600160a01b03163314611be65760405162461bcd60e51b81526004016104c1906124d6565b611bf160003361174c565b611c0d5760405162461bcd60e51b81526004016104c1906124d6565b600081815260cd602052604090206004015460ff1615611c615760405162461bcd60e51b815260206004820152600f60248201526e13d1919154925391d7d0d313d4d151608a1b60448201526064016104c1565b600081815260cd6020526040808220600401805460ff191660011790555182907f0cfb1c3841b1ebe2ad43e9d641c358c0d40c4a10fc3c2ee73fd956a2658ed144908390a350565b600082815260976020526040902060010154611cc481611d3f565b61068d8383611cd8565b61126f8282611d4c565b611ce2828261174c565b1561126f5760008281526097602090815260408083206001600160a01b0385168085529252808320805460ff1916905551339285917ff6391f5c32d9c69d2a47ea670b442974b53935d1edc7fd64eb21e047a839171b9190a45050565b611d49813361203e565b50565b611d56828261174c565b61126f5760008281526097602090815260408083206001600160a01b03851684529091529020805460ff19166001179055611d8e3390565b6001600160a01b0316816001600160a01b0316837f2f8788117e7eff1d82e926ec794901d17c78024a50270940304540a733656f0d60405160405180910390a45050565b60606000611de18360026125a4565b611dec9060026126ef565b67ffffffffffffffff811115611e0457611e046125e5565b6040519080825280601f01601f191660200182016040528015611e2e576020820181803683370190505b509050600360fc1b81600081518110611e4957611e49612771565b60200101906001600160f81b031916908160001a905350600f60fb1b81600181518110611e7857611e78612771565b60200101906001600160f81b031916908160001a9053506000611e9c8460026125a4565b611ea79060016126ef565b90505b6001811115611f1f576f181899199a1a9b1b9c1cb0b131b232b360811b85600f1660108110611edb57611edb612771565b1a60f81b828281518110611ef157611ef1612771565b60200101906001600160f81b031916908160001a90535060049490941c93611f1881612787565b9050611eaa565b508315611f6e5760405162461bcd60e51b815260206004820181905260248201527f537472696e67733a20686578206c656e67746820696e73756666696369656e7460448201526064016104c1565b9392505050565b6000611f80836120a2565b9250611f8b826120a2565b91508151835114611f9e57506000610491565b81805190602001208380519060200120149050610491565b60008054610100900460ff1615611ffd578160ff166001148015611fd95750303b155b611ff55760405162461bcd60e51b81526004016104c19061279e565b506000919050565b60005460ff8084169116106120245760405162461bcd60e51b81526004016104c19061279e565b506000805460ff191660ff92909216919091179055600190565b612048828261174c565b61126f57612060816001600160a01b03166014612205565b61206b836020612205565b60405160200161207c9291906127ec565b60408051601f198184030181529082905262461bcd60e51b82526104c191600401612861565b606060008290506000815167ffffffffffffffff8111156120c5576120c56125e5565b6040519080825280601f01601f1916602001820160405280156120ef576020820181803683370190505b50905060005b82518110156121fd57604183828151811061211257612112612771565b016020015160f81c108015906121425750605a83828151811061213757612137612771565b016020015160f81c11155b156121a45782818151811061215957612159612771565b602001015160f81c60f81b60f81c60206121739190612894565b60f81b82828151811061218857612188612771565b60200101906001600160f81b031916908160001a9053506121eb565b8281815181106121b6576121b6612771565b602001015160f81c60f81b8282815181106121d3576121d3612771565b60200101906001600160f81b031916908160001a9053505b806121f5816128b9565b9150506120f5565b509392505050565b606060006122148360026125a4565b61221f9060026126ef565b67ffffffffffffffff811115612237576122376125e5565b6040519080825280601f01601f191660200182016040528015612261576020820181803683370190505b509050600360fc1b8160008151811061227c5761227c612771565b60200101906001600160f81b031916908160001a905350600f60fb1b816001815181106122ab576122ab612771565b60200101906001600160f81b031916908160001a90535060006122cf8460026125a4565b6122da9060016126ef565b90505b6001811115611f1f576f181899199a1a9b1b9c1cb0b131b232b360811b85600f166010811061230e5761230e612771565b1a60f81b82828151811061232457612324612771565b60200101906001600160f81b031916908160001a90535060049490941c9361234b81612787565b90506122dd565b60006020828403121561236457600080fd5b81356001600160e01b031981168114611f6e57600080fd5b6001600160a01b0381168114611d4957600080fd5b6000602082840312156123a357600080fd5b8135611f6e8161237c565b6000602082840312156123c057600080fd5b5035919050565b600080604083850312156123da57600080fd5b8235915060208301356123ec8161237c565b809150509250929050565b6000806040838503121561240a57600080fd5b82356124158161237c565b915060208301356123ec8161237c565b8015158114611d4957600080fd5b600080600080600060a0868803121561244b57600080fd5b85356124568161237c565b945060208601359350604086013561246d8161237c565b925060608601359150608086013561248481612425565b809150509295509295909350565b6020808252825182820181905260009190848201906040850190845b818110156124ca578351835292840192918401916001016124ae565b50909695505050505050565b6020808252600d908201526c4f50455241544f525f4f4e4c5960981b604082015260600190565b6020808252601f908201527f5265656e7472616e637947756172643a207265656e7472616e742063616c6c00604082015260600190565b60006020828403121561254657600080fd5b5051919050565b60006020828403121561255f57600080fd5b8151611f6e8161237c565b6001600160a01b039384168152919092166020820152604081019190915260600190565b634e487b7160e01b600052601160045260246000fd5b60008160001904831182151516156125be576125be61258e565b500290565b6000826125e057634e487b7160e01b600052601260045260246000fd5b500490565b634e487b7160e01b600052604160045260246000fd5b60005b838110156126165781810151838201526020016125fe565b83811115612625576000848401525b50505050565b60006020828403121561263d57600080fd5b815167ffffffffffffffff8082111561265557600080fd5b818401915084601f83011261266957600080fd5b81518181111561267b5761267b6125e5565b604051601f8201601f19908116603f011681019083821181831017156126a3576126a36125e5565b816040528281528760208487010111156126bc57600080fd5b6126cd8360208301602088016125fb565b979650505050505050565b6000828210156126ea576126ea61258e565b500390565b600082198211156127025761270261258e565b500190565b60006020828403121561271957600080fd5b8151611f6e81612425565b6020808252600d908201526c1514905394d1915497d1905253609a1b604082015260600190565b6020808252600c908201526b1253959053125117d195539160a21b604082015260600190565b634e487b7160e01b600052603260045260246000fd5b6000816127965761279661258e565b506000190190565b6020808252602e908201527f496e697469616c697a61626c653a20636f6e747261637420697320616c72656160408201526d191e481a5b9a5d1a585b1a5e995960921b606082015260800190565b7f416363657373436f6e74726f6c3a206163636f756e74200000000000000000008152600083516128248160178501602088016125fb565b7001034b99036b4b9b9b4b733903937b6329607d1b60179184019182015283516128558160288401602088016125fb565b01602801949350505050565b60208152600082518060208401526128808160408501602087016125fb565b601f01601f19169190910160400192915050565b600060ff821660ff84168060ff038211156128b1576128b161258e565b019392505050565b60006000198214156128cd576128cd61258e565b506001019056fea2646970667358221220781df235a469c976702f9d0dc61d1912d7cfc0f7b682d7b57a4a32c44ac6508564736f6c634300080c0033",
  "linkReferences": {},
  "deployedLinkReferences": {}
}