{
  "_format": "hh-sol-artifact-1",
  "contractName": "RockNFTCollectionHolder",
  "sourceName": "contracts/goods/RockNFTCollectionHolder.sol",
  "abi": [
    {
      "inputs": [
        {
          "internalType": "address",
          "name": "admin",
          "type": "address"
        },
        {
          "internalType": "address",
          "name": "operator",
          "type": "address"
        },
        {
          "internalType": "address",
          "name": "_parameterAdd",
          "type": "address"
        },
        {
          "internalType": "string",
          "name": "name",
          "type": "string"
        },
        {
          "internalType": "string",
          "name": "symbol",
          "type": "string"
        }
      ],
      "stateMutability": "nonpayable",
      "type": "constructor"
    },
    {
      "anonymous": false,
      "inputs": [
        {
          "indexed": false,
          "internalType": "uint256",
          "name": "_metaverseId",
          "type": "uint256"
        },
        {
          "indexed": false,
          "internalType": "uint256",
          "name": "_zoneType",
          "type": "uint256"
        },
        {
          "indexed": false,
          "internalType": "uint256",
          "name": "_zoneIndex",
          "type": "uint256"
        },
        {
          "indexed": false,
          "internalType": "uint256",
          "name": "_rockIndexFrom",
          "type": "uint256"
        },
        {
          "indexed": false,
          "internalType": "uint256",
          "name": "_rockIndexTo",
          "type": "uint256"
        },
        {
          "indexed": false,
          "internalType": "address",
          "name": "_coreTeam",
          "type": "address"
        },
        {
          "indexed": false,
          "internalType": "address",
          "name": "_collAddr",
          "type": "address"
        },
        {
          "indexed": false,
          "internalType": "uint256",
          "name": "_price",
          "type": "uint256"
        }
      ],
      "name": "AddZone",
      "type": "event"
    },
    {
      "anonymous": false,
      "inputs": [
        {
          "indexed": false,
          "internalType": "address",
          "name": "previous",
          "type": "address"
        },
        {
          "indexed": false,
          "internalType": "address",
          "name": "new_",
          "type": "address"
        }
      ],
      "name": "AdminChanged",
      "type": "event"
    },
    {
      "anonymous": false,
      "inputs": [
        {
          "indexed": true,
          "internalType": "address",
          "name": "account",
          "type": "address"
        },
        {
          "indexed": true,
          "internalType": "address",
          "name": "operator",
          "type": "address"
        },
        {
          "indexed": false,
          "internalType": "bool",
          "name": "approved",
          "type": "bool"
        }
      ],
      "name": "ApprovalForAll",
      "type": "event"
    },
    {
      "anonymous": false,
      "inputs": [
        {
          "indexed": false,
          "internalType": "uint256",
          "name": "_metaverseId",
          "type": "uint256"
        },
        {
          "indexed": false,
          "internalType": "address",
          "name": "_add",
          "type": "address"
        }
      ],
      "name": "EChangeMetaverseOwner",
      "type": "event"
    },
    {
      "anonymous": false,
      "inputs": [
        {
          "indexed": false,
          "internalType": "uint256",
          "name": "_metaverseId",
          "type": "uint256"
        },
        {
          "indexed": false,
          "internalType": "uint256",
          "name": "_zoneIndex",
          "type": "uint256"
        },
        {
          "indexed": false,
          "internalType": "uint256",
          "name": "_price",
          "type": "uint256"
        }
      ],
      "name": "EChangeZonePrice",
      "type": "event"
    },
    {
      "anonymous": false,
      "inputs": [
        {
          "indexed": false,
          "internalType": "uint256",
          "name": "_metaverseId",
          "type": "uint256"
        }
      ],
      "name": "InitMetaverse",
      "type": "event"
    },
    {
      "anonymous": false,
      "inputs": [
        {
          "indexed": false,
          "internalType": "address",
          "name": "userAddress",
          "type": "address"
        },
        {
          "indexed": false,
          "internalType": "address payable",
          "name": "relayerAddress",
          "type": "address"
        },
        {
          "indexed": false,
          "internalType": "bytes",
          "name": "functionSignature",
          "type": "bytes"
        }
      ],
      "name": "MetaTransactionExecuted",
      "type": "event"
    },
    {
      "anonymous": false,
      "inputs": [
        {
          "indexed": false,
          "internalType": "address",
          "name": "_to",
          "type": "address"
        },
        {
          "indexed": false,
          "internalType": "uint256",
          "name": "_id",
          "type": "uint256"
        },
        {
          "indexed": false,
          "internalType": "uint256",
          "name": "_quantity",
          "type": "uint256"
        }
      ],
      "name": "MintEvent",
      "type": "event"
    },
    {
      "anonymous": false,
      "inputs": [
        {
          "indexed": false,
          "internalType": "address",
          "name": "previous",
          "type": "address"
        },
        {
          "indexed": false,
          "internalType": "address",
          "name": "new_",
          "type": "address"
        }
      ],
      "name": "OperatorChanged",
      "type": "event"
    },
    {
      "anonymous": false,
      "inputs": [
        {
          "indexed": false,
          "internalType": "address",
          "name": "previous",
          "type": "address"
        },
        {
          "indexed": false,
          "internalType": "address",
          "name": "new_",
          "type": "address"
        }
      ],
      "name": "ParameterControlChanged",
      "type": "event"
    },
    {
      "anonymous": false,
      "inputs": [
        {
          "indexed": false,
          "internalType": "address",
          "name": "account",
          "type": "address"
        }
      ],
      "name": "Paused",
      "type": "event"
    },
    {
      "anonymous": false,
      "inputs": [
        {
          "indexed": false,
          "internalType": "address",
          "name": "previous",
          "type": "address"
        },
        {
          "indexed": false,
          "internalType": "address",
          "name": "new_",
          "type": "address"
        }
      ],
      "name": "ProxyRegistryAddressChanged",
      "type": "event"
    },
    {
      "anonymous": false,
      "inputs": [
        {
          "indexed": true,
          "internalType": "bytes32",
          "name": "role",
          "type": "bytes32"
        },
        {
          "indexed": true,
          "internalType": "bytes32",
          "name": "previousAdminRole",
          "type": "bytes32"
        },
        {
          "indexed": true,
          "internalType": "bytes32",
          "name": "newAdminRole",
          "type": "bytes32"
        }
      ],
      "name": "RoleAdminChanged",
      "type": "event"
    },
    {
      "anonymous": false,
      "inputs": [
        {
          "indexed": true,
          "internalType": "bytes32",
          "name": "role",
          "type": "bytes32"
        },
        {
          "indexed": true,
          "internalType": "address",
          "name": "account",
          "type": "address"
        },
        {
          "indexed": true,
          "internalType": "address",
          "name": "sender",
          "type": "address"
        }
      ],
      "name": "RoleGranted",
      "type": "event"
    },
    {
      "anonymous": false,
      "inputs": [
        {
          "indexed": true,
          "internalType": "bytes32",
          "name": "role",
          "type": "bytes32"
        },
        {
          "indexed": true,
          "internalType": "address",
          "name": "account",
          "type": "address"
        },
        {
          "indexed": true,
          "internalType": "address",
          "name": "sender",
          "type": "address"
        }
      ],
      "name": "RoleRevoked",
      "type": "event"
    },
    {
      "anonymous": false,
      "inputs": [
        {
          "indexed": true,
          "internalType": "address",
          "name": "operator",
          "type": "address"
        },
        {
          "indexed": true,
          "internalType": "address",
          "name": "from",
          "type": "address"
        },
        {
          "indexed": true,
          "internalType": "address",
          "name": "to",
          "type": "address"
        },
        {
          "indexed": false,
          "internalType": "uint256[]",
          "name": "ids",
          "type": "uint256[]"
        },
        {
          "indexed": false,
          "internalType": "uint256[]",
          "name": "values",
          "type": "uint256[]"
        }
      ],
      "name": "TransferBatch",
      "type": "event"
    },
    {
      "anonymous": false,
      "inputs": [
        {
          "indexed": true,
          "internalType": "address",
          "name": "operator",
          "type": "address"
        },
        {
          "indexed": true,
          "internalType": "address",
          "name": "from",
          "type": "address"
        },
        {
          "indexed": true,
          "internalType": "address",
          "name": "to",
          "type": "address"
        },
        {
          "indexed": false,
          "internalType": "uint256",
          "name": "id",
          "type": "uint256"
        },
        {
          "indexed": false,
          "internalType": "uint256",
          "name": "value",
          "type": "uint256"
        }
      ],
      "name": "TransferSingle",
      "type": "event"
    },
    {
      "anonymous": false,
      "inputs": [
        {
          "indexed": false,
          "internalType": "string",
          "name": "value",
          "type": "string"
        },
        {
          "indexed": true,
          "internalType": "uint256",
          "name": "id",
          "type": "uint256"
        }
      ],
      "name": "URI",
      "type": "event"
    },
    {
      "anonymous": false,
      "inputs": [
        {
          "indexed": false,
          "internalType": "address",
          "name": "account",
          "type": "address"
        }
      ],
      "name": "Unpaused",
      "type": "event"
    },
    {
      "inputs": [],
      "name": "CREATOR_ROLE",
      "outputs": [
        {
          "internalType": "bytes32",
          "name": "",
          "type": "bytes32"
        }
      ],
      "stateMutability": "view",
      "type": "function"
    },
    {
      "inputs": [],
      "name": "DEFAULT_ADMIN_ROLE",
      "outputs": [
        {
          "internalType": "bytes32",
          "name": "",
          "type": "bytes32"
        }
      ],
      "stateMutability": "view",
      "type": "function"
    },
    {
      "inputs": [],
      "name": "ERC712_VERSION",
      "outputs": [
        {
          "internalType": "string",
          "name": "",
          "type": "string"
        }
      ],
      "stateMutability": "view",
      "type": "function"
    },
    {
      "inputs": [],
      "name": "MINTER_ROLE",
      "outputs": [
        {
          "internalType": "bytes32",
          "name": "",
          "type": "bytes32"
        }
      ],
      "stateMutability": "view",
      "type": "function"
    },
    {
      "inputs": [],
      "name": "OPERATOR_ROLE",
      "outputs": [
        {
          "internalType": "bytes32",
          "name": "",
          "type": "bytes32"
        }
      ],
      "stateMutability": "view",
      "type": "function"
    },
    {
      "inputs": [],
      "name": "PAUSER_ROLE",
      "outputs": [
        {
          "internalType": "bytes32",
          "name": "",
          "type": "bytes32"
        }
      ],
      "stateMutability": "view",
      "type": "function"
    },
    {
      "inputs": [
        {
          "internalType": "uint256",
          "name": "_metaverseId",
          "type": "uint256"
        },
        {
          "components": [
            {
              "internalType": "uint256",
              "name": "zoneIndex",
              "type": "uint256"
            },
            {
              "internalType": "uint256",
              "name": "price",
              "type": "uint256"
            },
            {
              "internalType": "address",
              "name": "coreTeamAddr",
              "type": "address"
            },
            {
              "internalType": "address",
              "name": "collAddr",
              "type": "address"
            },
            {
              "internalType": "uint256",
              "name": "typeZone",
              "type": "uint256"
            },
            {
              "internalType": "uint256",
              "name": "rockIndexFrom",
              "type": "uint256"
            },
            {
              "internalType": "uint256",
              "name": "rockIndexTo",
              "type": "uint256"
            }
          ],
          "internalType": "struct SharedStructs.zone",
          "name": "_zone",
          "type": "tuple"
        }
      ],
      "name": "addZone",
      "outputs": [],
      "stateMutability": "payable",
      "type": "function"
    },
    {
      "inputs": [],
      "name": "admin",
      "outputs": [
        {
          "internalType": "address",
          "name": "",
          "type": "address"
        }
      ],
      "stateMutability": "view",
      "type": "function"
    },
    {
      "inputs": [
        {
          "internalType": "address",
          "name": "account",
          "type": "address"
        },
        {
          "internalType": "uint256",
          "name": "id",
          "type": "uint256"
        }
      ],
      "name": "balanceOf",
      "outputs": [
        {
          "internalType": "uint256",
          "name": "",
          "type": "uint256"
        }
      ],
      "stateMutability": "view",
      "type": "function"
    },
    {
      "inputs": [
        {
          "internalType": "address[]",
          "name": "accounts",
          "type": "address[]"
        },
        {
          "internalType": "uint256[]",
          "name": "ids",
          "type": "uint256[]"
        }
      ],
      "name": "balanceOfBatch",
      "outputs": [
        {
          "internalType": "uint256[]",
          "name": "",
          "type": "uint256[]"
        }
      ],
      "stateMutability": "view",
      "type": "function"
    },
    {
      "inputs": [
        {
          "internalType": "address",
          "name": "account",
          "type": "address"
        },
        {
          "internalType": "uint256",
          "name": "id",
          "type": "uint256"
        },
        {
          "internalType": "uint256",
          "name": "value",
          "type": "uint256"
        }
      ],
      "name": "burn",
      "outputs": [],
      "stateMutability": "nonpayable",
      "type": "function"
    },
    {
      "inputs": [
        {
          "internalType": "address",
          "name": "account",
          "type": "address"
        },
        {
          "internalType": "uint256[]",
          "name": "ids",
          "type": "uint256[]"
        },
        {
          "internalType": "uint256[]",
          "name": "values",
          "type": "uint256[]"
        }
      ],
      "name": "burnBatch",
      "outputs": [],
      "stateMutability": "nonpayable",
      "type": "function"
    },
    {
      "inputs": [
        {
          "internalType": "address",
          "name": "_newAdmin",
          "type": "address"
        }
      ],
      "name": "changeAdmin",
      "outputs": [],
      "stateMutability": "nonpayable",
      "type": "function"
    },
    {
      "inputs": [
        {
          "internalType": "uint256",
          "name": "_metaverseId",
          "type": "uint256"
        },
        {
          "internalType": "address",
          "name": "_add",
          "type": "address"
        }
      ],
      "name": "changeMetaverseOwner",
      "outputs": [],
      "stateMutability": "nonpayable",
      "type": "function"
    },
    {
      "inputs": [
        {
          "internalType": "address",
          "name": "_newOperator",
          "type": "address"
        }
      ],
      "name": "changeOperator",
      "outputs": [],
      "stateMutability": "nonpayable",
      "type": "function"
    },
    {
      "inputs": [
        {
          "internalType": "uint256",
          "name": "_metaverseId",
          "type": "uint256"
        },
        {
          "internalType": "uint256",
          "name": "_zoneIndex",
          "type": "uint256"
        },
        {
          "internalType": "uint256",
          "name": "_price",
          "type": "uint256"
        }
      ],
      "name": "changeZonePrice",
      "outputs": [],
      "stateMutability": "nonpayable",
      "type": "function"
    },
    {
      "inputs": [
        {
          "internalType": "uint256",
          "name": "",
          "type": "uint256"
        }
      ],
      "name": "creators",
      "outputs": [
        {
          "internalType": "address",
          "name": "",
          "type": "address"
        }
      ],
      "stateMutability": "view",
      "type": "function"
    },
    {
      "inputs": [
        {
          "internalType": "address",
          "name": "userAddress",
          "type": "address"
        },
        {
          "internalType": "bytes",
          "name": "functionSignature",
          "type": "bytes"
        },
        {
          "internalType": "bytes32",
          "name": "sigR",
          "type": "bytes32"
        },
        {
          "internalType": "bytes32",
          "name": "sigS",
          "type": "bytes32"
        },
        {
          "internalType": "uint8",
          "name": "sigV",
          "type": "uint8"
        }
      ],
      "name": "executeMetaTransaction",
      "outputs": [
        {
          "internalType": "bytes",
          "name": "",
          "type": "bytes"
        }
      ],
      "stateMutability": "nonpayable",
      "type": "function"
    },
    {
      "inputs": [
        {
          "internalType": "uint256",
          "name": "_id",
          "type": "uint256"
        }
      ],
      "name": "exists",
      "outputs": [
        {
          "internalType": "bool",
          "name": "",
          "type": "bool"
        }
      ],
      "stateMutability": "view",
      "type": "function"
    },
    {
      "inputs": [],
      "name": "getChainId",
      "outputs": [
        {
          "internalType": "uint256",
          "name": "",
          "type": "uint256"
        }
      ],
      "stateMutability": "view",
      "type": "function"
    },
    {
      "inputs": [
        {
          "internalType": "uint256",
          "name": "id",
          "type": "uint256"
        }
      ],
      "name": "getCreator",
      "outputs": [
        {
          "internalType": "address",
          "name": "sender",
          "type": "address"
        }
      ],
      "stateMutability": "view",
      "type": "function"
    },
    {
      "inputs": [],
      "name": "getDomainSeperator",
      "outputs": [
        {
          "internalType": "bytes32",
          "name": "",
          "type": "bytes32"
        }
      ],
      "stateMutability": "view",
      "type": "function"
    },
    {
      "inputs": [
        {
          "internalType": "address",
          "name": "user",
          "type": "address"
        }
      ],
      "name": "getNonce",
      "outputs": [
        {
          "internalType": "uint256",
          "name": "nonce",
          "type": "uint256"
        }
      ],
      "stateMutability": "view",
      "type": "function"
    },
    {
      "inputs": [
        {
          "internalType": "bytes32",
          "name": "role",
          "type": "bytes32"
        }
      ],
      "name": "getRoleAdmin",
      "outputs": [
        {
          "internalType": "bytes32",
          "name": "",
          "type": "bytes32"
        }
      ],
      "stateMutability": "view",
      "type": "function"
    },
    {
      "inputs": [
        {
          "internalType": "bytes32",
          "name": "role",
          "type": "bytes32"
        },
        {
          "internalType": "uint256",
          "name": "index",
          "type": "uint256"
        }
      ],
      "name": "getRoleMember",
      "outputs": [
        {
          "internalType": "address",
          "name": "",
          "type": "address"
        }
      ],
      "stateMutability": "view",
      "type": "function"
    },
    {
      "inputs": [
        {
          "internalType": "bytes32",
          "name": "role",
          "type": "bytes32"
        }
      ],
      "name": "getRoleMemberCount",
      "outputs": [
        {
          "internalType": "uint256",
          "name": "",
          "type": "uint256"
        }
      ],
      "stateMutability": "view",
      "type": "function"
    },
    {
      "inputs": [
        {
          "internalType": "bytes32",
          "name": "role",
          "type": "bytes32"
        },
        {
          "internalType": "address",
          "name": "account",
          "type": "address"
        }
      ],
      "name": "grantRole",
      "outputs": [],
      "stateMutability": "nonpayable",
      "type": "function"
    },
    {
      "inputs": [
        {
          "internalType": "bytes32",
          "name": "role",
          "type": "bytes32"
        },
        {
          "internalType": "address",
          "name": "account",
          "type": "address"
        }
      ],
      "name": "hasRole",
      "outputs": [
        {
          "internalType": "bool",
          "name": "",
          "type": "bool"
        }
      ],
      "stateMutability": "view",
      "type": "function"
    },
    {
      "inputs": [
        {
          "internalType": "uint256",
          "name": "_metaverseId",
          "type": "uint256"
        },
        {
          "components": [
            {
              "internalType": "uint256",
              "name": "zoneIndex",
              "type": "uint256"
            },
            {
              "internalType": "uint256",
              "name": "price",
              "type": "uint256"
            },
            {
              "internalType": "address",
              "name": "coreTeamAddr",
              "type": "address"
            },
            {
              "internalType": "address",
              "name": "collAddr",
              "type": "address"
            },
            {
              "internalType": "uint256",
              "name": "typeZone",
              "type": "uint256"
            },
            {
              "internalType": "uint256",
              "name": "rockIndexFrom",
              "type": "uint256"
            },
            {
              "internalType": "uint256",
              "name": "rockIndexTo",
              "type": "uint256"
            }
          ],
          "internalType": "struct SharedStructs.zone",
          "name": "_zone2",
          "type": "tuple"
        }
      ],
      "name": "initMetaverse",
      "outputs": [],
      "stateMutability": "payable",
      "type": "function"
    },
    {
      "inputs": [
        {
          "internalType": "address",
          "name": "_owner",
          "type": "address"
        },
        {
          "internalType": "address",
          "name": "_operator",
          "type": "address"
        }
      ],
      "name": "isApprovedForAll",
      "outputs": [
        {
          "internalType": "bool",
          "name": "isOperator",
          "type": "bool"
        }
      ],
      "stateMutability": "view",
      "type": "function"
    },
    {
      "inputs": [
        {
          "internalType": "address",
          "name": "",
          "type": "address"
        }
      ],
      "name": "metaverseNftCollections",
      "outputs": [
        {
          "internalType": "bool",
          "name": "",
          "type": "bool"
        }
      ],
      "stateMutability": "view",
      "type": "function"
    },
    {
      "inputs": [
        {
          "internalType": "uint256",
          "name": "",
          "type": "uint256"
        }
      ],
      "name": "metaverseOwners",
      "outputs": [
        {
          "internalType": "address",
          "name": "",
          "type": "address"
        }
      ],
      "stateMutability": "view",
      "type": "function"
    },
    {
      "inputs": [
        {
          "internalType": "uint256",
          "name": "",
          "type": "uint256"
        },
        {
          "internalType": "uint256",
          "name": "",
          "type": "uint256"
        }
      ],
      "name": "metaverseZones",
      "outputs": [
        {
          "internalType": "uint256",
          "name": "zoneIndex",
          "type": "uint256"
        },
        {
          "internalType": "uint256",
          "name": "price",
          "type": "uint256"
        },
        {
          "internalType": "address",
          "name": "coreTeamAddr",
          "type": "address"
        },
        {
          "internalType": "address",
          "name": "collAddr",
          "type": "address"
        },
        {
          "internalType": "uint256",
          "name": "typeZone",
          "type": "uint256"
        },
        {
          "internalType": "uint256",
          "name": "rockIndexFrom",
          "type": "uint256"
        },
        {
          "internalType": "uint256",
          "name": "rockIndexTo",
          "type": "uint256"
        }
      ],
      "stateMutability": "view",
      "type": "function"
    },
    {
      "inputs": [
        {
          "internalType": "address",
          "name": "_to",
          "type": "address"
        },
        {
          "internalType": "uint256",
          "name": "_id",
          "type": "uint256"
        },
        {
          "internalType": "uint256",
          "name": "_quantity",
          "type": "uint256"
        },
        {
          "internalType": "bytes",
          "name": "_data",
          "type": "bytes"
        }
      ],
      "name": "mint",
      "outputs": [],
      "stateMutability": "nonpayable",
      "type": "function"
    },
    {
      "inputs": [
        {
          "internalType": "address",
          "name": "to",
          "type": "address"
        },
        {
          "internalType": "uint256[]",
          "name": "ids",
          "type": "uint256[]"
        },
        {
          "internalType": "uint256[]",
          "name": "amounts",
          "type": "uint256[]"
        },
        {
          "internalType": "bytes",
          "name": "data",
          "type": "bytes"
        }
      ],
      "name": "mintBatch",
      "outputs": [],
      "stateMutability": "nonpayable",
      "type": "function"
    },
    {
      "inputs": [
        {
          "internalType": "uint256",
          "name": "_metaverseId",
          "type": "uint256"
        },
        {
          "internalType": "address",
          "name": "_to",
          "type": "address"
        },
        {
          "internalType": "uint256",
          "name": "_zoneIndex",
          "type": "uint256"
        },
        {
          "internalType": "uint256",
          "name": "_rockIndex",
          "type": "uint256"
        },
        {
          "internalType": "string",
          "name": "_uri",
          "type": "string"
        },
        {
          "internalType": "bytes",
          "name": "_data",
          "type": "bytes"
        }
      ],
      "name": "mintRock",
      "outputs": [],
      "stateMutability": "payable",
      "type": "function"
    },
    {
      "inputs": [],
      "name": "name",
      "outputs": [
        {
          "internalType": "string",
          "name": "",
          "type": "string"
        }
      ],
      "stateMutability": "view",
      "type": "function"
    },
    {
      "inputs": [],
      "name": "operator",
      "outputs": [
        {
          "internalType": "address",
          "name": "",
          "type": "address"
        }
      ],
      "stateMutability": "view",
      "type": "function"
    },
    {
      "inputs": [],
      "name": "parameterControlAdd",
      "outputs": [
        {
          "internalType": "address",
          "name": "",
          "type": "address"
        }
      ],
      "stateMutability": "view",
      "type": "function"
    },
    {
      "inputs": [],
      "name": "pause",
      "outputs": [],
      "stateMutability": "nonpayable",
      "type": "function"
    },
    {
      "inputs": [],
      "name": "paused",
      "outputs": [
        {
          "internalType": "bool",
          "name": "",
          "type": "bool"
        }
      ],
      "stateMutability": "view",
      "type": "function"
    },
    {
      "inputs": [],
      "name": "proxyRegistryAddress",
      "outputs": [
        {
          "internalType": "address",
          "name": "",
          "type": "address"
        }
      ],
      "stateMutability": "view",
      "type": "function"
    },
    {
      "inputs": [
        {
          "internalType": "bytes32",
          "name": "role",
          "type": "bytes32"
        },
        {
          "internalType": "address",
          "name": "account",
          "type": "address"
        }
      ],
      "name": "renounceRole",
      "outputs": [],
      "stateMutability": "nonpayable",
      "type": "function"
    },
    {
      "inputs": [
        {
          "internalType": "bytes32",
          "name": "role",
          "type": "bytes32"
        },
        {
          "internalType": "address",
          "name": "account",
          "type": "address"
        }
      ],
      "name": "revokeRole",
      "outputs": [],
      "stateMutability": "nonpayable",
      "type": "function"
    },
    {
      "inputs": [
        {
          "internalType": "uint256",
          "name": "",
          "type": "uint256"
        }
      ],
      "name": "royalties",
      "outputs": [
        {
          "internalType": "address",
          "name": "recipient",
          "type": "address"
        },
        {
          "internalType": "uint24",
          "name": "amount",
          "type": "uint24"
        },
        {
          "internalType": "bool",
          "name": "isValue",
          "type": "bool"
        }
      ],
      "stateMutability": "view",
      "type": "function"
    },
    {
      "inputs": [
        {
          "internalType": "uint256",
          "name": "_tokenId",
          "type": "uint256"
        },
        {
          "internalType": "uint256",
          "name": "_salePrice",
          "type": "uint256"
        }
      ],
      "name": "royaltyInfo",
      "outputs": [
        {
          "internalType": "address",
          "name": "receiver",
          "type": "address"
        },
        {
          "internalType": "uint256",
          "name": "royaltyAmount",
          "type": "uint256"
        }
      ],
      "stateMutability": "view",
      "type": "function"
    },
    {
      "inputs": [
        {
          "internalType": "address",
          "name": "from",
          "type": "address"
        },
        {
          "internalType": "address",
          "name": "to",
          "type": "address"
        },
        {
          "internalType": "uint256[]",
          "name": "ids",
          "type": "uint256[]"
        },
        {
          "internalType": "uint256[]",
          "name": "amounts",
          "type": "uint256[]"
        },
        {
          "internalType": "bytes",
          "name": "data",
          "type": "bytes"
        }
      ],
      "name": "safeBatchTransferFrom",
      "outputs": [],
      "stateMutability": "nonpayable",
      "type": "function"
    },
    {
      "inputs": [
        {
          "internalType": "address",
          "name": "from",
          "type": "address"
        },
        {
          "internalType": "address",
          "name": "to",
          "type": "address"
        },
        {
          "internalType": "uint256",
          "name": "id",
          "type": "uint256"
        },
        {
          "internalType": "uint256",
          "name": "amount",
          "type": "uint256"
        },
        {
          "internalType": "bytes",
          "name": "data",
          "type": "bytes"
        }
      ],
      "name": "safeTransferFrom",
      "outputs": [],
      "stateMutability": "nonpayable",
      "type": "function"
    },
    {
      "inputs": [
        {
          "internalType": "address",
          "name": "operator",
          "type": "address"
        },
        {
          "internalType": "bool",
          "name": "approved",
          "type": "bool"
        }
      ],
      "name": "setApprovalForAll",
      "outputs": [],
      "stateMutability": "nonpayable",
      "type": "function"
    },
    {
      "inputs": [
        {
          "internalType": "address",
          "name": "_to",
          "type": "address"
        },
        {
          "internalType": "uint256[]",
          "name": "_ids",
          "type": "uint256[]"
        }
      ],
      "name": "setCreator",
      "outputs": [],
      "stateMutability": "nonpayable",
      "type": "function"
    },
    {
      "inputs": [
        {
          "internalType": "uint256",
          "name": "_tokenId",
          "type": "uint256"
        },
        {
          "internalType": "string",
          "name": "_newURI",
          "type": "string"
        }
      ],
      "name": "setCustomURI",
      "outputs": [],
      "stateMutability": "nonpayable",
      "type": "function"
    },
    {
      "inputs": [
        {
          "internalType": "address",
          "name": "_proxyRegistryAddress",
          "type": "address"
        }
      ],
      "name": "setProxyRegistryAddress",
      "outputs": [],
      "stateMutability": "nonpayable",
      "type": "function"
    },
    {
      "inputs": [
        {
          "internalType": "uint256",
          "name": "_tokenId",
          "type": "uint256"
        },
        {
          "internalType": "address",
          "name": "_recipient",
          "type": "address"
        },
        {
          "internalType": "uint256",
          "name": "_value",
          "type": "uint256"
        }
      ],
      "name": "setTokenRoyalty",
      "outputs": [],
      "stateMutability": "nonpayable",
      "type": "function"
    },
    {
      "inputs": [
        {
          "internalType": "string",
          "name": "_newURI",
          "type": "string"
        }
      ],
      "name": "setURI",
      "outputs": [],
      "stateMutability": "nonpayable",
      "type": "function"
    },
    {
      "inputs": [
        {
          "internalType": "bytes4",
          "name": "interfaceId",
          "type": "bytes4"
        }
      ],
      "name": "supportsInterface",
      "outputs": [
        {
          "internalType": "bool",
          "name": "",
          "type": "bool"
        }
      ],
      "stateMutability": "view",
      "type": "function"
    },
    {
      "inputs": [],
      "name": "symbol",
      "outputs": [
        {
          "internalType": "string",
          "name": "",
          "type": "string"
        }
      ],
      "stateMutability": "view",
      "type": "function"
    },
    {
      "inputs": [],
      "name": "unpause",
      "outputs": [],
      "stateMutability": "nonpayable",
      "type": "function"
    },
    {
      "inputs": [
        {
          "internalType": "uint256",
          "name": "_id",
          "type": "uint256"
        }
      ],
      "name": "uri",
      "outputs": [
        {
          "internalType": "string",
          "name": "",
          "type": "string"
        }
      ],
      "stateMutability": "view",
      "type": "function"
    },
    {
      "inputs": [
        {
          "internalType": "address",
          "name": "_to",
          "type": "address"
        }
      ],
      "name": "withdraw",
      "outputs": [],
      "stateMutability": "nonpayable",
      "type": "function"
    }
  ],
  "bytecode": "0x60806040526005805461ff00191690553480156200001c57600080fd5b5060405162006ec338038062006ec38339810160408190526200003f9162000cd8565b8181604051806020016040528060008152508787828062000066816200038d60201b60201c565b506005805460ff1916905562000087600062000081620003a6565b620003c2565b620000a560008051602062006ea383398151915262000081620003a6565b620000c360008051602062006e8383398151915262000081620003a6565b5060016008558451620000de90600e90602088019062000b3b565b508351620000f490600f90602087019062000b3b565b50600b80546001600160a01b0319169055600e8054620001a591906200011a9062000d7b565b80601f0160208091040260200160405190810160405280929190818152602001828054620001489062000d7b565b8015620001995780601f106200016d5761010080835404028352916020019162000199565b820191906000526020600020905b8154815290600101906020018083116200017b57829003601f168201915b5050620003ce92505050565b600980546001600160a01b0319166001600160a01b038416908117909155620001d19060009062000436565b600a80546001600160a01b0319166001600160a01b0383169081179091556200021c907f97667070c54ef182b0f5858b034beac1b6f3089aa2d3188bb1e8929f4fa9b9299062000436565b600a5462000255907f828634d95e775031b9ff576b159a8509d3053581a8c9c4d7d86899e0afcd882f906001600160a01b031662000436565b600a546200027d9060008051602062006ea3833981519152906001600160a01b031662000436565b600a54620002a59060008051602062006e83833981519152906001600160a01b031662000436565b620002af620003a6565b6009546001600160a01b039081169116146200031757620002e960008051602062006ea3833981519152620002e3620003a6565b6200046e565b6200030760008051602062006e83833981519152620002e3620003a6565b620003176000620002e3620003a6565b50505050506001600160a01b038316620003625760405162461bcd60e51b815260206004820152600760248201526612539597d0511160ca1b60448201526064015b60405180910390fd5b5050601580546001600160a01b0319166001600160a01b03929092169190911790555062000f199050565b8051620003a290600490602084019062000b3b565b5050565b6000620003bd6200049b60201b620036991760201c565b905090565b620003a28282620004fa565b600554610100900460ff1615620004195760405162461bcd60e51b815260206004820152600e60248201526d185b1c9958591e481a5b9a5d195960921b604482015260640162000359565b620004248162000538565b506005805461ff001916610100179055565b6000828152602081905260409020600101546200045d8162000457620003a6565b620005da565b620004698383620004fa565b505050565b6000828152602081905260409020600101546200048f8162000457620003a6565b62000469838362000675565b600033301415620004f457600080368080601f0160208091040260200160405190810160405280939291908181526020018383808284376000920191909152505050503601516001600160a01b03169150620004f79050565b50335b90565b620005118282620006b360201b620036f61760201c565b6000828152600160209081526040909120620004699183906200377b62000755821b17901c565b6040518060800160405280604f815260200162006e34604f9139805160209182012082519282019290922060408051808201825260018152603160f81b90840152805180840194909452838101919091527fc89efdaa54c0f20c7adf612882df0950f5a951637e0307cdcb4c672f298b8bc660608401523060808401524660a0808501919091528151808503909101815260c090930190528151910120600655565b6000828152602081815260408083206001600160a01b038516845290915290205460ff16620003a25762000624816001600160a01b031660146200077560201b620037901760201c565b6200063a8360206200379062000775821b17811c565b6040516020016200064d92919062000db8565b60408051601f198184030181529082905262461bcd60e51b8252620003599160040162000e31565b6200068c82826200092e60201b6200392b1760201c565b600082815260016020908152604090912062000469918390620039ae620009ce821b17901c565b6000828152602081815260408083206001600160a01b038516845290915290205460ff16620003a2576000828152602081815260408083206001600160a01b03851684529091529020805460ff1916600117905562000711620003a6565b6001600160a01b0316816001600160a01b0316837f2f8788117e7eff1d82e926ec794901d17c78024a50270940304540a733656f0d60405160405180910390a45050565b60006200076c836001600160a01b038416620009e5565b90505b92915050565b606060006200078683600262000e7c565b6200079390600262000e9e565b6001600160401b03811115620007ad57620007ad62000bfe565b6040519080825280601f01601f191660200182016040528015620007d8576020820181803683370190505b509050600360fc1b81600081518110620007f657620007f662000eb9565b60200101906001600160f81b031916908160001a905350600f60fb1b8160018151811062000828576200082862000eb9565b60200101906001600160f81b031916908160001a90535060006200084e84600262000e7c565b6200085b90600162000e9e565b90505b6001811115620008dd576f181899199a1a9b1b9c1cb0b131b232b360811b85600f166010811062000893576200089362000eb9565b1a60f81b828281518110620008ac57620008ac62000eb9565b60200101906001600160f81b031916908160001a90535060049490941c93620008d58162000ecf565b90506200085e565b5083156200076c5760405162461bcd60e51b815260206004820181905260248201527f537472696e67733a20686578206c656e67746820696e73756666696369656e74604482015260640162000359565b6000828152602081815260408083206001600160a01b038516845290915290205460ff1615620003a2576000828152602081815260408083206001600160a01b03851684529091529020805460ff191690556200098a620003a6565b6001600160a01b0316816001600160a01b0316837ff6391f5c32d9c69d2a47ea670b442974b53935d1edc7fd64eb21e047a839171b60405160405180910390a45050565b60006200076c836001600160a01b03841662000a37565b600081815260018301602052604081205462000a2e575081546001818101845560008481526020808220909301849055845484825282860190935260409020919091556200076f565b5060006200076f565b6000818152600183016020526040812054801562000b3057600062000a5e60018362000ee9565b855490915060009062000a749060019062000ee9565b905081811462000ae057600086600001828154811062000a985762000a9862000eb9565b906000526020600020015490508087600001848154811062000abe5762000abe62000eb9565b6000918252602080832090910192909255918252600188019052604090208390555b855486908062000af45762000af462000f03565b6001900381819060005260206000200160009055905585600101600086815260200190815260200160002060009055600193505050506200076f565b60009150506200076f565b82805462000b499062000d7b565b90600052602060002090601f01602090048101928262000b6d576000855562000bb8565b82601f1062000b8857805160ff191683800117855562000bb8565b8280016001018555821562000bb8579182015b8281111562000bb857825182559160200191906001019062000b9b565b5062000bc692915062000bca565b5090565b5b8082111562000bc6576000815560010162000bcb565b80516001600160a01b038116811462000bf957600080fd5b919050565b634e487b7160e01b600052604160045260246000fd5b60005b8381101562000c3157818101518382015260200162000c17565b8381111562000c41576000848401525b50505050565b600082601f83011262000c5957600080fd5b81516001600160401b038082111562000c765762000c7662000bfe565b604051601f8301601f19908116603f0116810190828211818310171562000ca15762000ca162000bfe565b8160405283815286602085880101111562000cbb57600080fd5b62000cce84602083016020890162000c14565b9695505050505050565b600080600080600060a0868803121562000cf157600080fd5b62000cfc8662000be1565b945062000d0c6020870162000be1565b935062000d1c6040870162000be1565b60608701519093506001600160401b038082111562000d3a57600080fd5b62000d4889838a0162000c47565b9350608088015191508082111562000d5f57600080fd5b5062000d6e8882890162000c47565b9150509295509295909350565b600181811c9082168062000d9057607f821691505b6020821081141562000db257634e487b7160e01b600052602260045260246000fd5b50919050565b7f416363657373436f6e74726f6c3a206163636f756e742000000000000000000081526000835162000df281601785016020880162000c14565b7001034b99036b4b9b9b4b733903937b6329607d1b601791840191820152835162000e2581602884016020880162000c14565b01602801949350505050565b602081526000825180602084015262000e5281604085016020870162000c14565b601f01601f19169190910160400192915050565b634e487b7160e01b600052601160045260246000fd5b600081600019048311821515161562000e995762000e9962000e66565b500290565b6000821982111562000eb45762000eb462000e66565b500190565b634e487b7160e01b600052603260045260246000fd5b60008162000ee15762000ee162000e66565b506000190190565b60008282101562000efe5762000efe62000e66565b500390565b634e487b7160e01b600052603160045260246000fd5b615f0b8062000f296000396000f3fe60806040526004361061038b5760003560e01c8063731133e9116101dc578063ca15c87311610102578063d547741f116100a0578063f242432a1161006f578063f242432a14610bdd578063f5298aca14610bfd578063f5b541a614610c1d578063f851a44014610c3f57600080fd5b8063d547741f14610b5b578063e63ab1e914610b7b578063e985e9c514610b9d578063eaaef2c314610bbd57600080fd5b8063d26ea6c0116100dc578063d26ea6c014610ac3578063d2a6b51a14610ae3578063d48e638a14610b03578063d539139314610b3957600080fd5b8063ca15c87314610a4d578063cd53d08e14610a6d578063cd7c032614610aa357600080fd5b806395d89b411161017a578063a22cb46511610149578063a22cb465146109c4578063afc24cd6146109e4578063afc41841146109f7578063c91f88cc14610a1757600080fd5b806395d89b41146109675780639713c8071461097c5780639ff43f9e1461099c578063a217fddf146109af57600080fd5b80638aeda25a116101b65780638aeda25a146108e55780638f283970146109075780639010d07c1461092757806391d148541461094757600080fd5b8063731133e9146108365780637f77f574146108565780638456cb59146108d057600080fd5b80632f2ff15d116102c15780634e1933891161025f578063582543391161022e578063582543391461071e5780635c975abb146107ce57806366987f8b146107e65780636b20c4541461081657600080fd5b80634e193389146106865780634f558e79146106be57806351cff8d9146106de578063570ca735146106fe57600080fd5b80633adf80b41161029b5780633adf80b4146106115780633f4ba83a1461063157806340959287146106465780634e1273f41461065957600080fd5b80632f2ff15d146105be5780633408e470146105de57806336568abe146105f157600080fd5b80630f7e59701161032e578063248a9ca311610308578063248a9ca3146104f95780632a55205a146105295780632d0335ab146105685780632eb2c2d61461059e57600080fd5b80630f7e5970146104975780631f7fdffa146104c457806320379ee5146104e457600080fd5b806306394c9b1161036a57806306394c9b1461041557806306fdde03146104355780630c53c51c146104575780630e89341c1461047757600080fd5b8062fdd58e1461039057806301ffc9a7146103c357806302fe5305146103f3575b600080fd5b34801561039c57600080fd5b506103b06103ab366004614dbf565b610c5f565b6040519081526020015b60405180910390f35b3480156103cf57600080fd5b506103e36103de366004614e01565b610cfb565b60405190151581526020016103ba565b3480156103ff57600080fd5b5061041361040e366004614ef8565b610d20565b005b34801561042157600080fd5b50610413610430366004614f34565b610dd2565b34801561044157600080fd5b5061044a610fed565b6040516103ba9190614fa9565b34801561046357600080fd5b5061044a610472366004614fbc565b61107b565b34801561048357600080fd5b5061044a610492366004615039565b61124e565b3480156104a357600080fd5b5061044a604051806040016040528060018152602001603160f81b81525081565b3480156104d057600080fd5b506104136104df3660046150e6565b611401565b3480156104f057600080fd5b506006546103b0565b34801561050557600080fd5b506103b0610514366004615039565b60009081526020819052604090206001015490565b34801561053557600080fd5b50610549610544366004615180565b61149f565b604080516001600160a01b0390931683526020830191909152016103ba565b34801561057457600080fd5b506103b0610583366004614f34565b6001600160a01b031660009081526007602052604090205490565b3480156105aa57600080fd5b506104136105b93660046151a2565b611561565b3480156105ca57600080fd5b506104136105d936600461524f565b61160a565b3480156105ea57600080fd5b50466103b0565b3480156105fd57600080fd5b5061041361060c36600461524f565b61163c565b34801561061d57600080fd5b5061041361062c36600461527f565b6116ca565b34801561063d57600080fd5b5061041361179f565b6104136106543660046152bb565b611835565b34801561066557600080fd5b5061067961067436600461534c565b611ed6565b6040516103ba9190615449565b34801561069257600080fd5b506015546106a6906001600160a01b031681565b6040516001600160a01b0390911681526020016103ba565b3480156106ca57600080fd5b506103e36106d9366004615039565b611fff565b3480156106ea57600080fd5b506104136106f9366004614f34565b61201e565b34801561070a57600080fd5b50600a546106a6906001600160a01b031681565b34801561072a57600080fd5b5061078d610739366004615180565b60136020908152600092835260408084209091529082529020805460018201546002830154600384015460048501546005860154600690960154949593946001600160a01b03938416949390921692909187565b6040805197885260208801969096526001600160a01b0394851695870195909552929091166060850152608084015260a083015260c082015260e0016103ba565b3480156107da57600080fd5b5060055460ff166103e3565b3480156107f257600080fd5b506103e3610801366004614f34565b60126020526000908152604090205460ff1681565b34801561082257600080fd5b5061041361083136600461545c565b6121ab565b34801561084257600080fd5b506104136108513660046154d1565b612200565b34801561086257600080fd5b506108a5610871366004615039565b6010602052600090815260409020546001600160a01b03811690600160a01b810462ffffff1690600160b81b900460ff1683565b604080516001600160a01b03909416845262ffffff90921660208401521515908201526060016103ba565b3480156108dc57600080fd5b50610413612242565b3480156108f157600080fd5b506103b0600080516020615e5683398151915281565b34801561091357600080fd5b50610413610922366004614f34565b6122d6565b34801561093357600080fd5b506106a6610942366004615180565b612418565b34801561095357600080fd5b506103e361096236600461524f565b612430565b34801561097357600080fd5b5061044a612459565b34801561098857600080fd5b50610413610997366004615527565b612466565b6104136109aa36600461555f565b6125e0565b3480156109bb57600080fd5b506103b0600081565b3480156109d057600080fd5b506104136109df3660046155f9565b612c46565b6104136109f236600461555f565b612c58565b348015610a0357600080fd5b50610413610a1236600461562c565b613064565b348015610a2357600080fd5b506106a6610a32366004615039565b6011602052600090815260409020546001600160a01b031681565b348015610a5957600080fd5b506103b0610a68366004615039565b6131d0565b348015610a7957600080fd5b506106a6610a88366004615039565b600c602052600090815260409020546001600160a01b031681565b348015610aaf57600080fd5b50600b546106a6906001600160a01b031681565b348015610acf57600080fd5b50610413610ade366004614f34565b6131e7565b348015610aef57600080fd5b50610413610afe366004615658565b6132ff565b348015610b0f57600080fd5b506106a6610b1e366004615039565b6000908152600c60205260409020546001600160a01b031690565b348015610b4557600080fd5b506103b0600080516020615eb683398151915281565b348015610b6757600080fd5b50610413610b7636600461524f565b61342f565b348015610b8757600080fd5b506103b0600080516020615e9683398151915281565b348015610ba957600080fd5b506103e3610bb836600461569d565b613457565b348015610bc957600080fd5b50610413610bd836600461524f565b613527565b348015610be957600080fd5b50610413610bf83660046156cb565b6135ed565b348015610c0957600080fd5b50610413610c18366004615733565b613644565b348015610c2957600080fd5b506103b0600080516020615e7683398151915281565b348015610c4b57600080fd5b506009546106a6906001600160a01b031681565b60006001600160a01b038316610cd05760405162461bcd60e51b815260206004820152602b60248201527f455243313135353a2062616c616e636520717565727920666f7220746865207a60448201526a65726f206164647265737360a81b60648201526084015b60405180910390fd5b5060008181526002602090815260408083206001600160a01b03861684529091529020545b92915050565b60006001600160e01b03198216636a4731c560e11b1480610cf55750610cf5826139c3565b600a546001600160a01b0316610d346139ce565b6001600160a01b031614610d5a5760405162461bcd60e51b8152600401610cc790615768565b610d74600080516020615e768339815191526109626139ce565b610d905760405162461bcd60e51b8152600401610cc790615768565b610daa600080516020615e568339815191526109626139ce565b610dc65760405162461bcd60e51b8152600401610cc79061578f565b610dcf816139dd565b50565b6009546001600160a01b0316610de66139ce565b6001600160a01b031614610e0c5760405162461bcd60e51b8152600401610cc7906157b5565b610e1960006109626139ce565b610e355760405162461bcd60e51b8152600401610cc7906157b5565b6009546001600160a01b0316610e496139ce565b6001600160a01b031614610e6f5760405162461bcd60e51b8152600401610cc7906157d9565b610e7c60006109626139ce565b610e985760405162461bcd60e51b8152600401610cc7906157d9565b600a80546001600160a01b038381166001600160a01b0319831681179093551690610ed290600080516020615e768339815191529061160a565b600a54610ef790600080516020615e56833981519152906001600160a01b031661160a565b600a54610f1c90600080516020615eb6833981519152906001600160a01b031661160a565b600a54610f4190600080516020615e96833981519152906001600160a01b031661160a565b610f59600080516020615e768339815191528261342f565b610f71600080516020615e568339815191528261342f565b610f89600080516020615eb68339815191528261342f565b610fa1600080516020615e968339815191528261342f565b600a54604080516001600160a01b03808516825290921660208301527fd58299b712891143e76310d5e664c4203c940a67db37cf856bdaa3c5c76a802c91015b60405180910390a15050565b600e8054610ffa906157fc565b80601f0160208091040260200160405190810160405280929190818152602001828054611026906157fc565b80156110735780601f1061104857610100808354040283529160200191611073565b820191906000526020600020905b81548152906001019060200180831161105657829003601f168201915b505050505081565b60408051606081810183526001600160a01b038816600081815260076020908152908590205484528301529181018690526110b987828787876139f0565b61110f5760405162461bcd60e51b815260206004820152602160248201527f5369676e657220616e64207369676e617475726520646f206e6f74206d6174636044820152600d60fb1b6064820152608401610cc7565b6001600160a01b038716600090815260076020526040902054611133906001615847565b6001600160a01b0388166000908152600760205260409081902091909155517f5845892132946850460bff5a0083f71031bc5bf9aadcd40f1de79423eac9b10b9061118390899033908a9061585f565b60405180910390a1600080306001600160a01b0316888a6040516020016111ab929190615894565b60408051601f19818403018152908290526111c5916158cb565b6000604051808303816000865af19150503d8060008114611202576040519150601f19603f3d011682016040523d82523d6000602084013e611207565b606091505b5091509150816112425760405162461bcd60e51b8152600401610cc79060208082526004908201526319985a5b60e21b604082015260600190565b98975050505050505050565b6000818152600c60205260409020546060906001600160a01b03166112a95760405162461bcd60e51b81526020600482015260116024820152702727a722ac24a9aa22a72a2faa27a5a2a760791b6044820152606401610cc7565b6000828152600d6020526040812080546112c2906157fc565b80601f01602080910402602001604051908101604052809291908181526020018280546112ee906157fc565b801561133b5780601f106113105761010080835404028352916020019161133b565b820191906000526020600020905b81548152906001019060200180831161131e57829003601f168201915b505050505090506000815111156113eb576000838152600d602052604090208054611365906157fc565b80601f0160208091040260200160405190810160405280929190818152602001828054611391906157fc565b80156113de5780601f106113b3576101008083540402835291602001916113de565b820191906000526020600020905b8154815290600101906020018083116113c157829003601f168201915b5050505050915050919050565b6113f483613abe565b9392505050565b50919050565b61141b600080516020615eb68339815191526109626139ce565b61148d5760405162461bcd60e51b815260206004820152603860248201527f455243313135355072657365744d696e7465725061757365723a206d7573742060448201527f68617665206d696e74657220726f6c6520746f206d696e7400000000000000006064820152608401610cc7565b61149984848484613b52565b50505050565b6000828152601060209081526040808320815160608101835290546001600160a01b0381168252600160a01b810462ffffff1693820193909352600160b81b90920460ff16158015918301919091528291906115235780516020820151909350612710906115129062ffffff16866158e7565b61151c9190615906565b9150611559565b6000858152600c60205260409020546001600160a01b0316925061271061154c856101f46158e7565b6115569190615906565b91505b509250929050565b6115696139ce565b6001600160a01b0316856001600160a01b0316148061158f575061158f85610bb86139ce565b6115f65760405162461bcd60e51b815260206004820152603260248201527f455243313135353a207472616e736665722063616c6c6572206973206e6f74206044820152711bdddb995c881b9bdc88185c1c1c9bdd995960721b6064820152608401610cc7565b6116038585858585613cb8565b5050505050565b60008281526020819052604090206001015461162d816116286139ce565b613e70565b6116378383613ed4565b505050565b6116446139ce565b6001600160a01b0316816001600160a01b0316146116bc5760405162461bcd60e51b815260206004820152602f60248201527f416363657373436f6e74726f6c3a2063616e206f6e6c792072656e6f756e636560448201526e103937b632b9903337b91039b2b63360891b6064820152608401610cc7565b6116c68282613ef6565b5050565b816116d36139ce565b6000828152600c60205260409020546001600160a01b0390811691161461170c5760405162461bcd60e51b8152600401610cc79061578f565b611726600080516020615e568339815191526109626139ce565b6117425760405162461bcd60e51b8152600401610cc79061578f565b6000838152600d60209081526040909120835161176192850190614d11565b50827f6bb7ff708619ba0610cba295a58592e0451dee2622938c8755667688daf3529b836040516117929190614fa9565b60405180910390a2505050565b6117b9600080516020615e968339815191526109626139ce565b61182b5760405162461bcd60e51b815260206004820152603b60248201527f455243313135355072657365744d696e7465725061757365723a206d7573742060448201527f686176652070617573657220726f6c6520746f20756e706175736500000000006064820152608401610cc7565b611833613f18565b565b6000868152601160205260409020546001600160a01b0316806118825760405162461bcd60e51b81526020600482015260056024820152644e5f455f4d60d81b6044820152606401610cc7565b6000878152601360209081526040808320888452825291829020825160e0810184528154815260018201549281019290925260028101546001600160a01b03908116938301939093526003810154909216606082015260048201546080820152600582015460a0820181905260069092015460c082015290851080159061190d57508060c001518511155b6119415760405162461bcd60e51b8152602060048201526005602482015264495f525f4960d81b6044820152606401610cc7565b600085876119538b633b9aca006158e7565b61195d9190615847565b61196b90633b9aca006158e7565b6119759190615847565b6000818152600c60205260409020549091506001600160a01b0316156119c35760405162461bcd60e51b81526020600482015260036024820152621157d560ea1b6044820152606401610cc7565b60008260c00151116119fd5760405162461bcd60e51b8152602060048201526003602482015262495f5360e81b6044820152606401610cc7565b816080015160011415611a6157611a12613699565b6001600160a01b031682604001516001600160a01b031614611a5c5760405162461bcd60e51b815260206004820152600360248201526210d7d560ea1b6044820152606401610cc7565b611c96565b816080015160021415611c4d5760608201516001600160a01b038116611a8657600080fd5b6000855111611ac15760405162461bcd60e51b81526020600482015260076024820152661357cdcc8c57d560ca1b6044820152606401610cc7565b806000611ace8782613fb1565b9050611ad8613699565b6040516331a9108f60e11b8152600481018390526001600160a01b0391821691841690636352211e90602401602060405180830381865afa158015611b21573d6000803e3d6000fd5b505050506040513d601f19601f82011682018060405250810190611b459190615928565b6001600160a01b031614611b855760405162461bcd60e51b81526020600482015260076024820152664e5f4f5f37323160c81b6044820152606401610cc7565b6001600160a01b038316600090815260146020908152604080832084845290915290205460ff1615611bdd5760405162461bcd60e51b81526020600482015260016024820152604d60f81b6044820152606401610cc7565b6001600160a01b03831660009081526014602090815260408083208484528252909120805460ff19166001179055850151341015611c455760405162461bcd60e51b815260206004820152600560248201526426afa82fa760d91b6044820152606401610cc7565b505050611c96565b816080015160031415611c96578160200151341015611c965760405162461bcd60e51b815260206004820152600560248201526404d5f505f560dc1b6044820152606401610cc7565b600a546000828152600c6020526040902080546001600160a01b0319166001600160a01b03909216919091179055845115611d24576000818152600d602090815260409091208651611cea92880190614d11565b50807f6bb7ff708619ba0610cba295a58592e0451dee2622938c8755667688daf3529b86604051611d1b9190614fa9565b60405180910390a25b611d318882600187613ffd565b602082015115611e82573415611e8257601554604051636d12dce160e01b815260206004820152600c60248201526b524f434b5f5055525f46454560a01b60448201526001600160a01b03909116906000908290636d12dce190606401602060405180830381865afa158015611dab573d6000803e3d6000fd5b505050506040513d601f19601f82011682018060405250810190611dcf9190615945565b90506000612710611de083346158e7565b611dea9190615906565b905060006001600160a01b038716611e02833461595e565b604051600081818185875af1925050503d8060008114611e3e576040519150601f19603f3d011682016040523d82523d6000602084013e611e43565b606091505b5050905080611e7d5760405162461bcd60e51b8152600401610cc7906020808252600490820152631190525360e21b604082015260600190565b505050505b604080516001600160a01b038a1681526020810183905260018183015290517f8069ef4945469d029cc32e222031bccdc99b2eaaf4ee374cd268012f7ddee9079181900360600190a1505050505050505050565b60608151835114611f3b5760405162461bcd60e51b815260206004820152602960248201527f455243313135353a206163636f756e747320616e6420696473206c656e677468604482015268040dad2e6dac2e8c6d60bb1b6064820152608401610cc7565b600083516001600160401b03811115611f5657611f56614e1e565b604051908082528060200260200182016040528015611f7f578160200160208202803683370190505b50905060005b8451811015611ff757611fca858281518110611fa357611fa3615975565b6020026020010151858381518110611fbd57611fbd615975565b6020026020010151610c5f565b828281518110611fdc57611fdc615975565b6020908102919091010152611ff08161598b565b9050611f85565b509392505050565b6000818152600c60205260408120546001600160a01b03161515610cf5565b600260085414156120715760405162461bcd60e51b815260206004820152601f60248201527f5265656e7472616e637947756172643a207265656e7472616e742063616c6c006044820152606401610cc7565b60026008556009546001600160a01b031661208a6139ce565b6001600160a01b0316146120b05760405162461bcd60e51b8152600401610cc7906157b5565b6120bd60006109626139ce565b6120d95760405162461bcd60e51b8152600401610cc7906157b5565b600047116121165760405162461bcd60e51b815260206004820152600a60248201526909c9ea8be8a9c9eaa8e960b31b6044820152606401610cc7565b6000816001600160a01b03164760405160006040518083038185875af1925050503d8060008114612163576040519150601f19603f3d011682016040523d82523d6000602084013e612168565b606091505b50509050806121a25760405162461bcd60e51b8152600401610cc7906020808252600490820152631190525360e21b604082015260600190565b50506001600855565b6121b36139ce565b6001600160a01b0316836001600160a01b031614806121d957506121d983610bb86139ce565b6121f55760405162461bcd60e51b8152600401610cc7906159a6565b6116378383836140e0565b826122096139ce565b6000828152600c60205260409020546001600160a01b039081169116146116035760405162461bcd60e51b8152600401610cc79061578f565b61225c600080516020615e968339815191526109626139ce565b6122ce5760405162461bcd60e51b815260206004820152603960248201527f455243313135355072657365744d696e7465725061757365723a206d7573742060448201527f686176652070617573657220726f6c6520746f207061757365000000000000006064820152608401610cc7565b611833614278565b6009546001600160a01b03166122ea6139ce565b6001600160a01b0316146123105760405162461bcd60e51b8152600401610cc7906157b5565b61231d60006109626139ce565b6123395760405162461bcd60e51b8152600401610cc7906157b5565b6009546001600160a01b031661234d6139ce565b6001600160a01b0316146123735760405162461bcd60e51b8152600401610cc7906157d9565b61238060006109626139ce565b61239c5760405162461bcd60e51b8152600401610cc7906157d9565b600980546001600160a01b038381166001600160a01b03198316811790935516906123c99060009061160a565b6123d460008261342f565b600954604080516001600160a01b03808516825290921660208301527f7e644d79422f17c01e4894b5f4f588d331ebfa28653d42ae832dc59e38c9798f9101610fe1565b60008281526001602052604081206113f490836142f4565b6000918252602082815260408084206001600160a01b0393909316845291905290205460ff1690565b600f8054610ffa906157fc565b600a546001600160a01b031661247a6139ce565b6001600160a01b0316146124a05760405162461bcd60e51b8152600401610cc790615768565b6124ba600080516020615e768339815191526109626139ce565b6124d65760405162461bcd60e51b8152600401610cc790615768565b6124f0600080516020615e568339815191526109626139ce565b61252a5760405162461bcd60e51b815260206004820152600b60248201526a2727aa2fa1a922a0aa27a960a91b6044820152606401610cc7565b6127108111156125675760405162461bcd60e51b81526020600482015260086024820152670a89e9ebe90928e960c31b6044820152606401610cc7565b604080516060810182526001600160a01b03938416815262ffffff928316602080830191825260018385019081526000978852601090915292909520905181549551925194166001600160b81b031990951694909417600160a01b91909216021760ff60b81b1916600160b81b91151591909102179055565b6000828152601160205260409020546001600160a01b03161561262b5760405162461bcd60e51b8152602060048201526003602482015262455f4d60e81b6044820152606401610cc7565b60608101516001600160a01b031660009081526012602052604090205460ff161561267e5760405162461bcd60e51b8152602060048201526003602482015262455f4d60e81b6044820152606401610cc7565b805160021461269f5760405162461bcd60e51b8152600401610cc7906159ef565b80608001516002146126c35760405162461bcd60e51b8152600401610cc7906159ef565b6020810151156126e55760405162461bcd60e51b8152600401610cc7906159ef565b8060a001516002146127095760405162461bcd60e51b8152600401610cc7906159ef565b61271281614300565b61272e5760405162461bcd60e51b8152600401610cc7906159ef565b601554604051636d12dce160e01b815260206004820152601860248201527f494e49545f494d4f5f4e46545f484f4c4445525f53495a45000000000000000060448201526001600160a01b03909116906000908290636d12dce190606401602060405180830381865afa1580156127a9573d6000803e3d6000fd5b505050506040513d601f19601f820116820180604052508101906127cd9190615945565b905080156127ea576127e0816001615847565b60c08401526127f2565b606560c08401525b60008360a001518460c00151612808919061595e565b612813906001615847565b9050600081116128355760405162461bcd60e51b8152600401610cc7906159ef565b604051636d12dce160e01b815260206004820152600c60248201526b494e49545f494d4f5f46454560a01b60448201526000906001600160a01b03851690636d12dce190606401602060405180830381865afa158015612899573d6000803e3d6000fd5b505050506040513d601f19601f820116820180604052508101906128bd9190615945565b90508015612904576128cf82826158e7565b3410156129045760405162461bcd60e51b815260206004820152600360248201526224afa360e91b6044820152606401610cc7565b600a54600087815260116020908152604080832080546001600160a01b03199081166001600160a01b0396871617909155601383528184208a51855283528184208a5181558a8401516001828101919091558b8401516002830180549189169185169190911790556060808d015160038401805491909916941684179097556080808d0151600484015560a0808e0151600585015560c0808f015160069095019490945593875260128652848720805460ff1916909217909155835160e081018552868152948501869052928401859052948301849052908201839052810182905291820152600a60009054906101000a90046001600160a01b031681604001906001600160a01b031690816001600160a01b031681525050600181608001818152505060018160a001818152505060018160c00181815250506000816020018181525050600081606001906001600160a01b031690816001600160a01b03168152505060018160000181815250508060136000898152602001908152602001600020600083600001518152602001908152602001600020600082015181600001556020820151816001015560408201518160020160006101000a8154816001600160a01b0302191690836001600160a01b0316021790555060608201518160030160006101000a8154816001600160a01b0302191690836001600160a01b031602179055506080820151816004015560a0820151816005015560c0820151816006015590505060008160a00151826000015189633b9aca00612b4791906158e7565b612b519190615847565b612b5f90633b9aca006158e7565b612b699190615847565b600a546000828152600c6020908152604080832080546001600160a01b0319166001600160a01b0390951694909417909355858301518351918201909352908152919250612bbb918390600190613ffd565b60408281015181516001600160a01b0390911681526020810183905260018183015290517f8069ef4945469d029cc32e222031bccdc99b2eaaf4ee374cd268012f7ddee9079181900360600190a16040518881527f49669a69295acda27baba0ea29247e02f517f3450c77bd52c362870cfb7ceac49060200160405180910390a15050505050505050565b6116c6612c516139ce565b83836143ee565b6000828152601160205260409020546001600160a01b0316612ca45760405162461bcd60e51b81526020600482015260056024820152644e5f455f4d60d81b6044820152606401610cc7565b60008281526013602090815260408083208451845290915290206006015415612cf55760405162461bcd60e51b815260206004820152600360248201526222afad60e91b6044820152606401610cc7565b612cfd613699565b6000838152601160205260409020546001600160a01b03908116911614612d365760405162461bcd60e51b8152600401610cc790615a0d565b612d3f81614300565b612d745760405162461bcd60e51b8152602060048201526006602482015265495f5a4f4e4560d01b6044820152606401610cc7565b806080015160021480612d8b575080608001516003145b612dc25760405162461bcd60e51b8152602060048201526008602482015267494e565f5459504560c01b6044820152606401610cc7565b806080015160021415612e58576000828152601360209081526040808320600280855292529091206004015414612e0b5760405162461bcd60e51b8152600401610cc7906159ef565b60608101516000838152601360209081526040808320600284529091529020600301546001600160a01b03908116911614612e585760405162461bcd60e51b8152600401610cc7906159ef565b601554604051636d12dce160e01b815260206004820152600c60248201526b494e49545f494d4f5f46454560a01b60448201526001600160a01b03909116906000908290636d12dce190606401602060405180830381865afa158015612ec2573d6000803e3d6000fd5b505050506040513d601f19601f82011682018060405250810190612ee69190615945565b90508015612f55578260a001518360c00151612f02919061595e565b612f0d906001615847565b612f1790826158e7565b341015612f555760405162461bcd60e51b815260206004820152600c60248201526b4d4953535f494e495f46454560a01b6044820152606401610cc7565b60008481526013602090815260408083208651845282529182902085518082559186015160018201819055838701516002830180546001600160a01b038084166001600160a01b03199283161790925560608a01516003860180549382169390921692909217905560808901516004850181905560a08a01516005860181905560c08b0151600690960186905596517fb8033036b5cd4a496e1a16b0f2fd490dc18c2ce1c7c969b4c8f6f84fc3f6b97297613056978d97939690959194919297885260208801969096526040870194909452606086019290925260808501526001600160a01b0390811660a08501521660c083015260e08201526101000190565b60405180910390a150505050565b61306c613699565b6000848152601160205260409020546001600160a01b039081169116146130a55760405162461bcd60e51b8152600401610cc790615a0d565b60008381526013602090815260408083208584529091529020600601546130f45760405162461bcd60e51b815260206004820152600360248201526224afad60e91b6044820152606401610cc7565b60008381526013602090815260408083208584529091529020600401546002148061313b575060008381526013602090815260408083208584529091529020600401546003145b61316d5760405162461bcd60e51b815260206004820152600360248201526224afad60e91b6044820152606401610cc7565b600083815260136020908152604080832085845282529182902060010183905581518581529081018490529081018290527f95f65f2fc932b553231b4290f85999ae60ac9e82086414d2281a129723b1e76a9060600160405180910390a1505050565b6000818152600160205260408120610cf5906144cf565b600a546001600160a01b03166131fb6139ce565b6001600160a01b0316146132215760405162461bcd60e51b8152600401610cc790615768565b61323b600080516020615e768339815191526109626139ce565b6132575760405162461bcd60e51b8152600401610cc790615768565b600b546001600160a01b03828116911614156132a55760405162461bcd60e51b815260206004820152600d60248201526c141493d61657d2539590531251609a1b6044820152606401610cc7565b600b80546001600160a01b038381166001600160a01b031983168117909355604080519190921680825260208201939093527ffc15895015d07bcb2ae0459d79c7bfb40d36feedb31f55cc34e3ef404c86c5779101610fe1565b600a546001600160a01b03166133136139ce565b6001600160a01b0316146133395760405162461bcd60e51b8152600401610cc790615768565b613353600080516020615e768339815191526109626139ce565b61336f5760405162461bcd60e51b8152600401610cc790615768565b6001600160a01b0382166133b85760405162461bcd60e51b815260206004820152601060248201526f24a72b20a624a22fa0a2222922a9a99760811b6044820152606401610cc7565b6133d0600080516020615e5683398151915283613ed4565b6133e8600080516020615eb683398151915283613ed4565b60005b815181101561163757600082828151811061340857613408615975565b6020026020010151905061341c84826144d9565b50806134278161598b565b9150506133eb565b60008281526020819052604090206001015461344d816116286139ce565b6116378383613ef6565b600b546000906001600160a01b0316156134f957600b5460405163c455279160e01b81526001600160a01b03858116600483015291821691841690829063c455279190602401602060405180830381865afa1580156134ba573d6000803e3d6000fd5b505050506040513d601f19601f820116820180604052508101906134de9190615928565b6001600160a01b031614156134f7576001915050610cf5565b505b6001600160a01b0380841660009081526003602090815260408083209386168352929052205460ff166113f4565b61352f613699565b6000838152601160205260409020546001600160a01b039081169116146135685760405162461bcd60e51b8152600401610cc790615a0d565b6001600160a01b03811661358e5760405162461bcd60e51b8152600401610cc790615a0d565b60008281526011602090815260409182902080546001600160a01b0319166001600160a01b0385169081179091558251858152918201527fdd9fea2fe1361d546c2bb487b53ae58d9745b2e73cf28408f5da6ad65d7ba3c19101610fe1565b6135f56139ce565b6001600160a01b0316856001600160a01b0316148061361b575061361b85610bb86139ce565b6136375760405162461bcd60e51b8152600401610cc7906159a6565b611603858585858561454a565b61364c6139ce565b6001600160a01b0316836001600160a01b03161480613672575061367283610bb86139ce565b61368e5760405162461bcd60e51b8152600401610cc7906159a6565b611637838383614676565b6000333014156136f057600080368080601f0160208091040260200160405190810160405280939291908181526020018383808284376000920191909152505050503601516001600160a01b031691506136f39050565b50335b90565b6137008282612430565b6116c6576000828152602081815260408083206001600160a01b03851684529091529020805460ff191660011790556137376139ce565b6001600160a01b0316816001600160a01b0316837f2f8788117e7eff1d82e926ec794901d17c78024a50270940304540a733656f0d60405160405180910390a45050565b60006113f4836001600160a01b038416614786565b6060600061379f8360026158e7565b6137aa906002615847565b6001600160401b038111156137c1576137c1614e1e565b6040519080825280601f01601f1916602001820160405280156137eb576020820181803683370190505b509050600360fc1b8160008151811061380657613806615975565b60200101906001600160f81b031916908160001a905350600f60fb1b8160018151811061383557613835615975565b60200101906001600160f81b031916908160001a90535060006138598460026158e7565b613864906001615847565b90505b60018111156138dc576f181899199a1a9b1b9c1cb0b131b232b360811b85600f166010811061389857613898615975565b1a60f81b8282815181106138ae576138ae615975565b60200101906001600160f81b031916908160001a90535060049490941c936138d581615a2a565b9050613867565b5083156113f45760405162461bcd60e51b815260206004820181905260248201527f537472696e67733a20686578206c656e67746820696e73756666696369656e746044820152606401610cc7565b6139358282612430565b156116c6576000828152602081815260408083206001600160a01b03851684529091529020805460ff1916905561396a6139ce565b6001600160a01b0316816001600160a01b0316837ff6391f5c32d9c69d2a47ea670b442974b53935d1edc7fd64eb21e047a839171b60405160405180910390a45050565b60006113f4836001600160a01b0384166147d5565b6000610cf5826148c8565b60006139d8613699565b905090565b80516116c6906004906020840190614d11565b60006001600160a01b038616613a345760405162461bcd60e51b815260206004820152600960248201526824a72fa9a4a3a722a960b91b6044820152606401610cc7565b6001613a47613a4287614908565b614985565b6040805160008152602081018083529290925260ff851690820152606081018690526080810185905260a0016020604051602081039080840390855afa158015613a95573d6000803e3d6000fd5b505050602060405103516001600160a01b0316866001600160a01b031614905095945050505050565b606060048054613acd906157fc565b80601f0160208091040260200160405190810160405280929190818152602001828054613af9906157fc565b8015613b465780601f10613b1b57610100808354040283529160200191613b46565b820191906000526020600020905b815481529060010190602001808311613b2957829003601f168201915b50505050509050919050565b6001600160a01b038416613b785760405162461bcd60e51b8152600401610cc790615a41565b8151835114613b995760405162461bcd60e51b8152600401610cc790615a82565b6000613ba36139ce565b9050613bb4816000878787876149b5565b60005b8451811015613c5057838181518110613bd257613bd2615975565b602002602001015160026000878481518110613bf057613bf0615975565b602002602001015181526020019081526020016000206000886001600160a01b03166001600160a01b031681526020019081526020016000206000828254613c389190615847565b90915550819050613c488161598b565b915050613bb7565b50846001600160a01b031660006001600160a01b0316826001600160a01b03167f4a39dc06d4c0dbc64b70af90fd698a233a518aa5d07e595d983b8c0526c8f7fb8787604051613ca1929190615aca565b60405180910390a4611603816000878787876149c3565b8151835114613cd95760405162461bcd60e51b8152600401610cc790615a82565b6001600160a01b038416613cff5760405162461bcd60e51b8152600401610cc790615aef565b6000613d096139ce565b9050613d198187878787876149b5565b60005b8451811015613e02576000858281518110613d3957613d39615975565b602002602001015190506000858381518110613d5757613d57615975565b60209081029190910181015160008481526002835260408082206001600160a01b038e168352909352919091205490915081811015613da85760405162461bcd60e51b8152600401610cc790615b34565b60008381526002602090815260408083206001600160a01b038e8116855292528083208585039055908b16825281208054849290613de7908490615847565b9250508190555050505080613dfb9061598b565b9050613d1c565b50846001600160a01b0316866001600160a01b0316826001600160a01b03167f4a39dc06d4c0dbc64b70af90fd698a233a518aa5d07e595d983b8c0526c8f7fb8787604051613e52929190615aca565b60405180910390a4613e688187878787876149c3565b505050505050565b613e7a8282612430565b6116c657613e92816001600160a01b03166014613790565b613e9d836020613790565b604051602001613eae929190615b7e565b60408051601f198184030181529082905262461bcd60e51b8252610cc791600401614fa9565b613ede82826136f6565b6000828152600160205260409020611637908261377b565b613f00828261392b565b600082815260016020526040902061163790826139ae565b60055460ff16613f615760405162461bcd60e51b815260206004820152601460248201527314185d5cd8589b194e881b9bdd081c185d5cd95960621b6044820152606401610cc7565b6005805460ff191690557f5db9ee0a495bf2e6ff9c91a7834c1ba4fdd244a5e8aa4e537bd38aeae4b073aa613f946139ce565b6040516001600160a01b03909116815260200160405180910390a1565b6000613fbe826020615847565b83511015613ff45760405162461bcd60e51b815260206004820152600360248201526227a7a960e91b6044820152606401610cc7565b50016020015190565b6001600160a01b0384166140235760405162461bcd60e51b8152600401610cc790615a41565b600061402d6139ce565b905061404e8160008761403f88614b1f565b61404888614b1f565b876149b5565b60008481526002602090815260408083206001600160a01b038916845290915281208054859290614080908490615847565b909155505060408051858152602081018590526001600160a01b0380881692600092918516917fc3d58168c5ae7397731d063d5bbf3d657854427343f4c083240f7aacaa2d0f62910160405180910390a461160381600087878787614b6a565b6001600160a01b0383166141065760405162461bcd60e51b8152600401610cc790615bf3565b80518251146141275760405162461bcd60e51b8152600401610cc790615a82565b60006141316139ce565b9050614151818560008686604051806020016040528060008152506149b5565b60005b835181101561421957600084828151811061417157614171615975565b60200260200101519050600084838151811061418f5761418f615975565b60209081029190910181015160008481526002835260408082206001600160a01b038c1683529093529190912054909150818110156141e05760405162461bcd60e51b8152600401610cc790615c36565b60009283526002602090815260408085206001600160a01b038b16865290915290922091039055806142118161598b565b915050614154565b5060006001600160a01b0316846001600160a01b0316826001600160a01b03167f4a39dc06d4c0dbc64b70af90fd698a233a518aa5d07e595d983b8c0526c8f7fb868660405161426a929190615aca565b60405180910390a450505050565b60055460ff16156142be5760405162461bcd60e51b815260206004820152601060248201526f14185d5cd8589b194e881c185d5cd95960821b6044820152606401610cc7565b6005805460ff191660011790557f62e78cea01bee320cd4e420270b5ea74000d11b0c9f74754ebdbfc544b05a258613f946139ce565b60006113f48383614c25565b6000816080015160021415801561431c57508160800151600314155b1561432957506000919050565b8151633b9aca001115806143455750633b9aca008260a0015110155b806143585750633b9aca008260c0015110155b1561436557506000919050565b60c0820151156143e65781608001516002141561439b5760608201516001600160a01b031661439657506000919050565b6143b9565b8160800151600314156143b95760208201516143b957506000919050565b8160c001518260a0015111806143d1575060a0820151155b156143de57506000919050565b506001919050565b506000919050565b816001600160a01b0316836001600160a01b031614156144625760405162461bcd60e51b815260206004820152602960248201527f455243313135353a2073657474696e6720617070726f76616c20737461747573604482015268103337b91039b2b63360b91b6064820152608401610cc7565b6001600160a01b03838116600081815260036020908152604080832094871680845294825291829020805460ff191686151590811790915591519182527f17307eab39ab6107e8899845ad3d59bd9653f200f220920489ca2b5937696c31910160405180910390a3505050565b6000610cf5825490565b806144e26139ce565b6000828152600c60205260409020546001600160a01b0390811691161461451b5760405162461bcd60e51b8152600401610cc79061578f565b506000908152600c6020526040902080546001600160a01b0319166001600160a01b0392909216919091179055565b6001600160a01b0384166145705760405162461bcd60e51b8152600401610cc790615aef565b600061457a6139ce565b905061458b81878761403f88614b1f565b60008481526002602090815260408083206001600160a01b038a168452909152902054838110156145ce5760405162461bcd60e51b8152600401610cc790615b34565b60008581526002602090815260408083206001600160a01b038b811685529252808320878503905590881682528120805486929061460d908490615847565b909155505060408051868152602081018690526001600160a01b03808916928a821692918616917fc3d58168c5ae7397731d063d5bbf3d657854427343f4c083240f7aacaa2d0f62910160405180910390a461466d828888888888614b6a565b50505050505050565b6001600160a01b03831661469c5760405162461bcd60e51b8152600401610cc790615bf3565b60006146a66139ce565b90506146d6818560006146b887614b1f565b6146c187614b1f565b604051806020016040528060008152506149b5565b60008381526002602090815260408083206001600160a01b0388168452909152902054828110156147195760405162461bcd60e51b8152600401610cc790615c36565b60008481526002602090815260408083206001600160a01b03898116808652918452828520888703905582518981529384018890529092908616917fc3d58168c5ae7397731d063d5bbf3d657854427343f4c083240f7aacaa2d0f62910160405180910390a45050505050565b60008181526001830160205260408120546147cd57508154600181810184556000848152602080822090930184905584548482528286019093526040902091909155610cf5565b506000610cf5565b600081815260018301602052604081205480156148be5760006147f960018361595e565b855490915060009061480d9060019061595e565b905081811461487257600086600001828154811061482d5761482d615975565b906000526020600020015490508087600001848154811061485057614850615975565b6000918252602080832090910192909255918252600188019052604090208390555b855486908061488357614883615c7a565b600190038181906000526020600020016000905590558560010160008681526020019081526020016000206000905560019350505050610cf5565b6000915050610cf5565b60006001600160e01b03198216636cdb3d1360e11b14806148f957506001600160e01b031982166303a24d0760e21b145b80610cf55750610cf582614c4f565b6000604051806060016040528060258152602001615e316025913980516020918201208351848301516040808701518051908601209051614968950193845260208401929092526001600160a01b03166040830152606082015260800190565b604051602081830303815290604052805190602001209050919050565b600061499060065490565b60405161190160f01b6020820152602281019190915260428101839052606201614968565b613e68868686868686614c74565b6001600160a01b0384163b15613e685760405163bc197c8160e01b81526001600160a01b0385169063bc197c8190614a079089908990889088908890600401615c90565b6020604051808303816000875af1925050508015614a42575060408051601f3d908101601f19168201909252614a3f91810190615ce2565b60015b614aef57614a4e615cff565b806308c379a01415614a885750614a63615d1a565b80614a6e5750614a8a565b8060405162461bcd60e51b8152600401610cc79190614fa9565b505b60405162461bcd60e51b815260206004820152603460248201527f455243313135353a207472616e7366657220746f206e6f6e20455243313135356044820152732932b1b2b4bb32b91034b6b83632b6b2b73a32b960611b6064820152608401610cc7565b6001600160e01b0319811663bc197c8160e01b1461466d5760405162461bcd60e51b8152600401610cc790615da3565b60408051600180825281830190925260609160009190602080830190803683370190505090508281600081518110614b5957614b59615975565b602090810291909101015292915050565b6001600160a01b0384163b15613e685760405163f23a6e6160e01b81526001600160a01b0385169063f23a6e6190614bae9089908990889088908890600401615deb565b6020604051808303816000875af1925050508015614be9575060408051601f3d908101601f19168201909252614be691810190615ce2565b60015b614bf557614a4e615cff565b6001600160e01b0319811663f23a6e6160e01b1461466d5760405162461bcd60e51b8152600401610cc790615da3565b6000826000018281548110614c3c57614c3c615975565b9060005260206000200154905092915050565b60006001600160e01b03198216635a05180f60e01b1480610cf55750610cf582614cdc565b60055460ff1615613e685760405162461bcd60e51b815260206004820152602c60248201527f455243313135355061757361626c653a20746f6b656e207472616e736665722060448201526b1dda1a5b19481c185d5cd95960a21b6064820152608401610cc7565b60006001600160e01b03198216637965db0b60e01b1480610cf557506301ffc9a760e01b6001600160e01b0319831614610cf5565b828054614d1d906157fc565b90600052602060002090601f016020900481019282614d3f5760008555614d85565b82601f10614d5857805160ff1916838001178555614d85565b82800160010185558215614d85579182015b82811115614d85578251825591602001919060010190614d6a565b50614d91929150614d95565b5090565b5b80821115614d915760008155600101614d96565b6001600160a01b0381168114610dcf57600080fd5b60008060408385031215614dd257600080fd5b8235614ddd81614daa565b946020939093013593505050565b6001600160e01b031981168114610dcf57600080fd5b600060208284031215614e1357600080fd5b81356113f481614deb565b634e487b7160e01b600052604160045260246000fd5b60e081018181106001600160401b0382111715614e5357614e53614e1e565b60405250565b601f8201601f191681016001600160401b0381118282101715614e7e57614e7e614e1e565b6040525050565b600082601f830112614e9657600080fd5b81356001600160401b03811115614eaf57614eaf614e1e565b604051614ec6601f8301601f191660200182614e59565b818152846020838601011115614edb57600080fd5b816020850160208301376000918101602001919091529392505050565b600060208284031215614f0a57600080fd5b81356001600160401b03811115614f2057600080fd5b614f2c84828501614e85565b949350505050565b600060208284031215614f4657600080fd5b81356113f481614daa565b60005b83811015614f6c578181015183820152602001614f54565b838111156114995750506000910152565b60008151808452614f95816020860160208601614f51565b601f01601f19169290920160200192915050565b6020815260006113f46020830184614f7d565b600080600080600060a08688031215614fd457600080fd5b8535614fdf81614daa565b945060208601356001600160401b03811115614ffa57600080fd5b61500688828901614e85565b9450506040860135925060608601359150608086013560ff8116811461502b57600080fd5b809150509295509295909350565b60006020828403121561504b57600080fd5b5035919050565b60006001600160401b0382111561506b5761506b614e1e565b5060051b60200190565b600082601f83011261508657600080fd5b8135602061509382615052565b6040516150a08282614e59565b83815260059390931b85018201928281019150868411156150c057600080fd5b8286015b848110156150db57803583529183019183016150c4565b509695505050505050565b600080600080608085870312156150fc57600080fd5b843561510781614daa565b935060208501356001600160401b038082111561512357600080fd5b61512f88838901615075565b9450604087013591508082111561514557600080fd5b61515188838901615075565b9350606087013591508082111561516757600080fd5b5061517487828801614e85565b91505092959194509250565b6000806040838503121561519357600080fd5b50508035926020909101359150565b600080600080600060a086880312156151ba57600080fd5b85356151c581614daa565b945060208601356151d581614daa565b935060408601356001600160401b03808211156151f157600080fd5b6151fd89838a01615075565b9450606088013591508082111561521357600080fd5b61521f89838a01615075565b9350608088013591508082111561523557600080fd5b5061524288828901614e85565b9150509295509295909350565b6000806040838503121561526257600080fd5b82359150602083013561527481614daa565b809150509250929050565b6000806040838503121561529257600080fd5b8235915060208301356001600160401b038111156152af57600080fd5b61155685828601614e85565b60008060008060008060c087890312156152d457600080fd5b8635955060208701356152e681614daa565b9450604087013593506060870135925060808701356001600160401b038082111561531057600080fd5b61531c8a838b01614e85565b935060a089013591508082111561533257600080fd5b5061533f89828a01614e85565b9150509295509295509295565b6000806040838503121561535f57600080fd5b82356001600160401b038082111561537657600080fd5b818501915085601f83011261538a57600080fd5b8135602061539782615052565b6040516153a48282614e59565b83815260059390931b85018201928281019150898411156153c457600080fd5b948201945b838610156153eb5785356153dc81614daa565b825294820194908201906153c9565b9650508601359250508082111561540157600080fd5b5061155685828601615075565b600081518084526020808501945080840160005b8381101561543e57815187529582019590820190600101615422565b509495945050505050565b6020815260006113f4602083018461540e565b60008060006060848603121561547157600080fd5b833561547c81614daa565b925060208401356001600160401b038082111561549857600080fd5b6154a487838801615075565b935060408601359150808211156154ba57600080fd5b506154c786828701615075565b9150509250925092565b600080600080608085870312156154e757600080fd5b84356154f281614daa565b9350602085013592506040850135915060608501356001600160401b0381111561551b57600080fd5b61517487828801614e85565b60008060006060848603121561553c57600080fd5b83359250602084013561554e81614daa565b929592945050506040919091013590565b60008082840361010081121561557457600080fd5b8335925060e0601f198201121561558a57600080fd5b5060405161559781614e34565b602084013581526040840135602082015260608401356155b681614daa565b604082015260808401356155c981614daa565b8060608301525060a0840135608082015260c084013560a082015260e084013560c0820152809150509250929050565b6000806040838503121561560c57600080fd5b823561561781614daa565b91506020830135801515811461527457600080fd5b60008060006060848603121561564157600080fd5b505081359360208301359350604090920135919050565b6000806040838503121561566b57600080fd5b823561567681614daa565b915060208301356001600160401b0381111561569157600080fd5b61155685828601615075565b600080604083850312156156b057600080fd5b82356156bb81614daa565b9150602083013561527481614daa565b600080600080600060a086880312156156e357600080fd5b85356156ee81614daa565b945060208601356156fe81614daa565b9350604086013592506060860135915060808601356001600160401b0381111561572757600080fd5b61524288828901614e85565b60008060006060848603121561574857600080fd5b833561575381614daa565b95602085013595506040909401359392505050565b6020808252600d908201526c27a7262cafa7a822a920aa27a960991b604082015260600190565b6020808252600c908201526b27a7262cafa1a922a0aa27a960a11b604082015260600190565b6020808252600a908201526927a7262cafa0a226a4a760b11b604082015260600190565b6020808252600990820152682727aa2fa0a226a4a760b91b604082015260600190565b600181811c9082168061581057607f821691505b602082108114156113fb57634e487b7160e01b600052602260045260246000fd5b634e487b7160e01b600052601160045260246000fd5b6000821982111561585a5761585a615831565b500190565b6001600160a01b0384811682528316602082015260606040820181905260009061588b90830184614f7d565b95945050505050565b600083516158a6818460208801614f51565b60609390931b6bffffffffffffffffffffffff19169190920190815260140192915050565b600082516158dd818460208701614f51565b9190910192915050565b600081600019048311821515161561590157615901615831565b500290565b60008261592357634e487b7160e01b600052601260045260246000fd5b500490565b60006020828403121561593a57600080fd5b81516113f481614daa565b60006020828403121561595757600080fd5b5051919050565b60008282101561597057615970615831565b500390565b634e487b7160e01b600052603260045260246000fd5b600060001982141561599f5761599f615831565b5060010190565b60208082526029908201527f455243313135353a2063616c6c6572206973206e6f74206f776e6572206e6f7260408201526808185c1c1c9bdd995960ba1b606082015260800190565b60208082526004908201526324afad1960e11b604082015260600190565b602080825260039082015262495f4160e81b604082015260600190565b600081615a3957615a39615831565b506000190190565b60208082526021908201527f455243313135353a206d696e7420746f20746865207a65726f206164647265736040820152607360f81b606082015260800190565b60208082526028908201527f455243313135353a2069647320616e6420616d6f756e7473206c656e677468206040820152670dad2e6dac2e8c6d60c31b606082015260800190565b604081526000615add604083018561540e565b828103602084015261588b818561540e565b60208082526025908201527f455243313135353a207472616e7366657220746f20746865207a65726f206164604082015264647265737360d81b606082015260800190565b6020808252602a908201527f455243313135353a20696e73756666696369656e742062616c616e636520666f60408201526939103a3930b739b332b960b11b606082015260800190565b7f416363657373436f6e74726f6c3a206163636f756e7420000000000000000000815260008351615bb6816017850160208801614f51565b7001034b99036b4b9b9b4b733903937b6329607d1b6017918401918201528351615be7816028840160208801614f51565b01602801949350505050565b60208082526023908201527f455243313135353a206275726e2066726f6d20746865207a65726f206164647260408201526265737360e81b606082015260800190565b60208082526024908201527f455243313135353a206275726e20616d6f756e7420657863656564732062616c604082015263616e636560e01b606082015260800190565b634e487b7160e01b600052603160045260246000fd5b6001600160a01b0386811682528516602082015260a060408201819052600090615cbc9083018661540e565b8281036060840152615cce818661540e565b905082810360808401526112428185614f7d565b600060208284031215615cf457600080fd5b81516113f481614deb565b600060033d11156136f35760046000803e5060005160e01c90565b600060443d1015615d285790565b6040516003193d81016004833e81513d6001600160401b038160248401118184111715615d5757505050505090565b8285019150815181811115615d6f5750505050505090565b843d8701016020828501011115615d895750505050505090565b615d9860208286010187614e59565b509095945050505050565b60208082526028908201527f455243313135353a204552433131353552656365697665722072656a656374656040820152676420746f6b656e7360c01b606082015260800190565b6001600160a01b03868116825285166020820152604081018490526060810183905260a060808201819052600090615e2590830184614f7d565b97965050505050505056fe4d6574615472616e73616374696f6e286e6f6e63652c66726f6d2c7369676e617475726529828634d95e775031b9ff576b159a8509d3053581a8c9c4d7d86899e0afcd882f97667070c54ef182b0f5858b034beac1b6f3089aa2d3188bb1e8929f4fa9b92965d7a28e3265b37a6474929f336521b332c1681b933f6cb9f3376673440d862a9f2df0fed2c77648de5860a4cc508cd0818c85b8b8a1ab4ceeef8d981c8956a6a2646970667358221220954e674abdb7944630f3b07db06c57fa932ac29bf7ba4b608737d138ed6a048664736f6c634300080c0033454950373132446f6d61696e28737472696e67206e616d652c737472696e672076657273696f6e2c6164647265737320766572696679696e67436f6e74726163742c627974657333322073616c742965d7a28e3265b37a6474929f336521b332c1681b933f6cb9f3376673440d862a9f2df0fed2c77648de5860a4cc508cd0818c85b8b8a1ab4ceeef8d981c8956a6",
  "linkReferences": {},
  "deployedLinkReferences": {}
}